{
	"data": {
		"bytecode": {
			"linkReferences": {},
			"object": "60806040526000805461ffff191660011790553480156200001f57600080fd5b507f5265736561726368202620446576656c6f706d656e74000000000000000000006007556646696e616e636560c81b600e5564131959d85b60da1b6015556e0a0eac4d8d2c6409eeae8e4cac2c6d608b1b601c5560005b600481101562000168576040516200008f9062000217565b604051809103906000f080158015620000ac573d6000803e3d6000fd5b5060078260048110620000cf57634e487b7160e01b600052603260045260246000fd5b6007020160030160006101000a8154816001600160a01b0302191690836001600160a01b03160217905550600781600481106200011c57634e487b7160e01b600052603260045260246000fd5b60070201600401805461ffff16906000620001378362000225565b91906101000a81548161ffff021916908361ffff1602179055505080806200015f906200024a565b91505062000077565b5062000184336001620001a560201b62002df41790919060201c565b506200019e600833620001a5602090811b62002df417901c565b506200027e565b6000620001bc836001600160a01b038416620001c5565b90505b92915050565b60008181526001830160205260408120546200020e57508154600181810184556000848152602080822090930184905584548482528286019093526040902091909155620001bf565b506000620001bf565b610d1b806200550b83390190565b600061ffff8083168181141562000240576200024062000268565b6001019392505050565b600060001982141562000261576200026162000268565b5060010190565b634e487b7160e01b600052601160045260246000fd5b61527d806200028e6000396000f3fe6080604052600436106101395760003560e01c8063ba87146a116100ab578063d537b0601161006f578063d537b060146103ba578063ddb6e116146103da578063edbc28df146103fa578063f23a6e611461041a578063f492935b14610446578063f5d77adf1461046657600080fd5b8063ba87146a1461030d578063bc197c811461032d578063c696709c14610372578063caa3981714610392578063d0e30db0146103b257600080fd5b80633e08602c116100fd5780633e08602c1461025057806348eccc2c1461027257806349041d3e146102925780635b4693b9146102b257806398ba1d46146102d25780639a7eabc6146102ed57600080fd5b806301ffc9a71461017a5780631279a374146101af57806323850315146101d1578063267044e5146101f1578063269d6e711461022157600080fd5b366101755760405134815233907f66ff7c8f71ccc7c36152a41920d0d3b46ef3034359f76aa1498ed4478c204b5c9060200160405180910390a2005b600080fd5b34801561018657600080fd5b5061019a610195366004614787565b610494565b60405190151581526020015b60405180910390f35b3480156101bb57600080fd5b506101cf6101ca3660046147af565b6104cb565b005b3480156101dd57600080fd5b506101cf6101ec366004614a82565b610625565b3480156101fd57600080fd5b5061021161020c366004614a2e565b6106b6565b6040516101a69493929190614f5e565b34801561022d57600080fd5b5061024161023c366004614a48565b610edf565b6040516101a693929190614edb565b34801561025c57600080fd5b50610265611083565b6040516101a69190614e97565b34801561027e57600080fd5b506101cf61028d366004614922565b6110da565b34801561029e57600080fd5b506101cf6102ad366004614877565b6112a7565b3480156102be57600080fd5b506101cf6102cd366004614b42565b6113e9565b3480156102de57600080fd5b506040514781526020016101a6565b3480156102f957600080fd5b5061019a610308366004614a60565b61145f565b34801561031957600080fd5b506101cf610328366004614b9e565b61149c565b34801561033957600080fd5b50610359610348366004614680565b63bc197c8160e01b95945050505050565b6040516001600160e01b031990911681526020016101a6565b34801561037e57600080fd5b506101cf61038d3660046147fa565b611b5b565b34801561039e57600080fd5b506101cf6103ad366004614b9e565b611cc1565b6101cf611d32565b3480156103c657600080fd5b5061019a6103d5366004614a2e565b611d69565b3480156103e657600080fd5b506101cf6103f5366004614a2e565b612235565b34801561040657600080fd5b506101cf610415366004614a2e565b6126fd565b34801561042657600080fd5b50610359610435366004614725565b63f23a6e6160e01b95945050505050565b34801561045257600080fd5b506101cf610461366004614b9e565b612d2d565b34801561047257600080fd5b50610486610481366004614b9e565b612d9f565b6040516101a6929190614f18565b60006001600160e01b03198216630271189760e51b14806104c557506301ffc9a760e01b6001600160e01b03198316145b92915050565b336104d7600182612e10565b6104e057600080fd5b6040805160c08101825284815260ff84166020808301919091526000805461ffff16838501819052426060858101919091526080850183905260a085018190529082526004835293902082518051919261053f928492909101906140c6565b50602082810151600183018054604086015161ffff166101000262ffffff1990911660ff90931692909217919091179055606083015160028301556080830151600383015560a0830151805161059b926004850192019061414a565b50506000805461ffff169150806105b183615155565b82546101009290920a61ffff8181021990931691831602179091556000546105dd9250600191166150ba565b61ffff16846040516105ef9190614dbe565b6040805191829003822060ff87168352426020840152916000805160206151bf833981519152910160405180910390a350505050565b3386610661826007836004811061064c57634e487b7160e01b600052603260045260246000fd5b60070201600101612e1090919063ffffffff16565b61066a57600080fd5b6106ac878787878760078e6004811061069357634e487b7160e01b600052603260045260246000fd5b60070201600401612e329095949392919063ffffffff16565b5050505050505050565b6106be61419f565b6106c66141cd565b6106ce61420a565b6106d6614236565b61ffff85166000908152600360209081526040808320600483528184206005845282852060069094529382902082516101408101909352815491949392909185908290608082019083908290829061072d90615120565b80601f016020809104026020016040519081016040528092919081815260200182805461075990615120565b80156107a65780601f1061077b576101008083540402835291602001916107a6565b820191906000526020600020905b81548152906001019060200180831161078957829003601f168201915b5050509183525050600182015460ff811660208084019190915261010090910461ffff16604080840191909152600284015460608401526003840154608084015260048401805482518185028101850190935280835260a090940193919290919083018282801561084057602002820191906000526020600020905b81546001600160a01b03168152600190910190602001808311610822575b5050505050815250508152602001600582018054806020026020016040519081016040528092919081815260200182805480156108a657602002820191906000526020600020905b81546001600160a01b03168152600190910190602001808311610888575b5050505050815260200160068201805480602002602001604051908101604052809291908181526020016000905b828210156109805783829060005260206000200180546108f390615120565b80601f016020809104026020016040519081016040528092919081815260200182805461091f90615120565b801561096c5780601f106109415761010080835404028352916020019161096c565b820191906000526020600020905b81548152906001019060200180831161094f57829003601f168201915b5050505050815260200190600101906108d4565b505050508152602001600782018054806020026020016040519081016040528092919081815260200182805480156109d757602002820191906000526020600020905b8154815260200190600101908083116109c3575b5050505050815250509350826040518060c00160405290816000820180546109fe90615120565b80601f0160208091040260200160405190810160405280929190818152602001828054610a2a90615120565b8015610a775780601f10610a4c57610100808354040283529160200191610a77565b820191906000526020600020905b815481529060010190602001808311610a5a57829003601f168201915b5050509183525050600182015460ff811660208084019190915261010090910461ffff16604080840191909152600284015460608401526003840154608084015260048401805482518185028101850190935280835260a0909401939192909190830182828015610b1157602002820191906000526020600020905b81546001600160a01b03168152600190910190602001808311610af3575b505050505081525050925081604051806080016040529081600082016040518060c0016040529081600082018054610b4890615120565b80601f0160208091040260200160405190810160405280929190818152602001828054610b7490615120565b8015610bc15780601f10610b9657610100808354040283529160200191610bc1565b820191906000526020600020905b815481529060010190602001808311610ba457829003601f168201915b5050509183525050600182015460ff811660208084019190915261010090910461ffff16604080840191909152600284015460608401526003840154608084015260048401805482518185028101850190935280835260a0909401939192909190830182828015610c5b57602002820191906000526020600020905b81546001600160a01b03168152600190910190602001808311610c3d575b505050505081525050815260200160058201805480602002602001604051908101604052809291908181526020018280548015610cc157602002820191906000526020600020905b81546001600160a01b03168152600190910190602001808311610ca3575b5050509183525050600682015460ff1615156020808301919091526007830180546040805182850281018501825282815294019392830182828015610d4357602002820191906000526020600020906000905b825461010083900a900460ff16815260206001928301818104948501949093039092029101808411610d145790505b505050505081525050915080604051806080016040529081600082016040518060c0016040529081600082018054610d7a90615120565b80601f0160208091040260200160405190810160405280929190818152602001828054610da690615120565b8015610df35780601f10610dc857610100808354040283529160200191610df3565b820191906000526020600020905b815481529060010190602001808311610dd657829003601f168201915b5050509183525050600182015460ff811660208084019190915261010090910461ffff16604080840191909152600284015460608401526003840154608084015260048401805482518185028101850190935280835260a0909401939192909190830182828015610e8d57602002820191906000526020600020905b81546001600160a01b03168152600190910190602001808311610e6f575b505050919092525050508152600591909101546001600160a01b038116602083015260ff600160a01b820481166040840152600160a81b90910416606090910152939992985090965091945092505050565b60008060606000610f1660078660048110610f0a57634e487b7160e01b600052603260045260246000fd5b60070201600101612fe2565b6001600160401b03811115610f3b57634e487b7160e01b600052604160045260246000fd5b604051908082528060200260200182016040528015610f64578160200160208202803683370190505b50905060005b610f8e60078760048110610f0a57634e487b7160e01b600052603260045260246000fd5b81101561101957610fcf8160078860048110610fba57634e487b7160e01b600052603260045260246000fd5b60070201600101612fec90919063ffffffff16565b828281518110610fef57634e487b7160e01b600052603260045260246000fd5b6001600160a01b03909216602092830291909101909101528061101181615177565b915050610f6a565b506007856004811061103b57634e487b7160e01b600052603260045260246000fd5b60070201600001546007866004811061106457634e487b7160e01b600052603260045260246000fd5b600702016003015490966001600160a01b039091169550909350915050565b6001805460408051602080840282018101909252828152606093909290918301828280156110d057602002820191906000526020600020905b8154815260200190600101908083116110bc575b5050505050905090565b336110e6600182612e10565b6110ef57600080fd5b60408051610140810182526080810188815260ff881660a08301526000805461ffff1660c084018190524260e085015261010084018290526060610120850181905292845260208085018a90528815158587015284840188905290825260058152939020825180518051939592939192849261116e92849201906140c6565b50602082810151600183018054604086015161ffff166101000262ffffff1990911660ff90931692909217919091179055606083015160028301556080830151600383015560a083015180516111ca926004850192019061414a565b50505060208281015180516111e5926005850192019061414a565b50604082015160068201805460ff191691151591909117905560608201518051611219916007840191602090910190614264565b50506000805461ffff1691508061122f83615155565b82546101009290920a61ffff81810219909316918316021790915560005461125b9250600191166150ba565b61ffff168760405161126d9190614dbe565b6040805191829003822060ff8a168352426020840152916000805160206151bf83398151915291015b60405180910390a350505050505050565b336112b3600182612e10565b6112bc57600080fd5b60408051610140810182526080810188815260ff881660a08301526000805461ffff1660c084018190524260e085015261010084018290526060610120850181905292845260208085018a905284860189905284840188905290825260038152939020825180518051939592939192849261133a92849201906140c6565b50602082810151600183018054604086015161ffff166101000262ffffff1990911660ff90931692909217919091179055606083015160028301556080830151600383015560a08301518051611396926004850192019061414a565b50505060208281015180516113b1926005850192019061414a565b50604082015180516113cd916006840191602090910190614305565b506060820151805161121991600784019160209091019061435e565b3384611410826007836004811061064c57634e487b7160e01b600052603260045260246000fd5b61141957600080fd5b61145785858560078a6004811061144057634e487b7160e01b600052603260045260246000fd5b60070201600401612ff8909392919063ffffffff16565b505050505050565b6000611486826007856004811061064c57634e487b7160e01b600052603260045260246000fd5b15611493575060016104c5565b50600092915050565b600082815260246020908152604080832061ffff8516845290915290205460ff16156114c757600080fd5b600782600481106114e857634e487b7160e01b600052603260045260246000fd5b61ffff83811660009081526007929092029290920160050160205260409020600101546101009004161580159061158f5750600261154060078460048110610f0a57634e487b7160e01b600052603260045260246000fd5b61154a919061506f565b6007836004811061156b57634e487b7160e01b600052603260045260246000fd5b61ffff84166000908152600560079290920292909201016020526040902060030154115b1561183f576000600783600481106115b757634e487b7160e01b600052603260045260246000fd5b61ffff84166000818152600560079390930293909301919091016020908152604080842087855260248352818520938552929091528220805460ff1916600117905591505b60058201548110156117f55781600601818154811061162b57634e487b7160e01b600052603260045260246000fd5b90600052602060002001805461164090615120565b151590506116bb576116b682600701828154811061166e57634e487b7160e01b600052603260045260246000fd5b906000526020600020015483600501838154811061169c57634e487b7160e01b600052603260045260246000fd5b6000918252602090912001546001600160a01b031661315e565b6117e3565b6117e38260050182815481106116e157634e487b7160e01b600052603260045260246000fd5b6000918252602090912001546006840180546001600160a01b03909216918490811061171d57634e487b7160e01b600052603260045260246000fd5b90600052602060002001805461173290615120565b80601f016020809104026020016040519081016040528092919081815260200182805461175e90615120565b80156117ab5780601f10611780576101008083540402835291602001916117ab565b820191906000526020600020905b81548152906001019060200180831161178e57829003601f168201915b50505050508460070184815481106117d357634e487b7160e01b600052603260045260246000fd5b90600052602060002001546131b9565b806117ed81615177565b9150506115fc565b50604051611804908290614dda565b6040519081900381206001830154610100900461ffff168252906000805160206151df833981519152906020015b60405180910390a2505050565b6007826004811061186057634e487b7160e01b600052603260045260246000fd5b61ffff838116600090815260079290920292909201600601602052604090206001015461010090041615801590611907575060026118b860078460048110610f0a57634e487b7160e01b600052603260045260246000fd5b6118c2919061506f565b600783600481106118e357634e487b7160e01b600052603260045260246000fd5b61ffff84166000908152600660079290920292909201016020526040902060030154115b15611b575760006007836004811061192f57634e487b7160e01b600052603260045260246000fd5b61ffff8416600081815260079283029390930160060160209081526040808520888652602483528186209386529290915283208054600160ff199091161790559250611994908560048110610f0a57634e487b7160e01b600052603260045260246000fd5b6001600160401b038111156119b957634e487b7160e01b600052604160045260246000fd5b6040519080825280602002602001820160405280156119e2578160200160208202803683370190505b50905060005b611a0c60078660048110610f0a57634e487b7160e01b600052603260045260246000fd5b811015611a8257611a388160078760048110610fba57634e487b7160e01b600052603260045260246000fd5b828281518110611a5857634e487b7160e01b600052603260045260246000fd5b6001600160a01b039092166020928302919091019091015280611a7a81615177565b9150506119e8565b5060078460048110611aa457634e487b7160e01b600052603260045260246000fd5b60070201600301546005830154604051631826c11960e01b81526001600160a01b0390921691631826c11991611adf91859190600401614e75565b600060405180830381600087803b158015611af957600080fd5b505af1158015611b0d573d6000803e3d6000fd5b5050604051611b1f9250849150614dda565b6040519081900381206001840154610100900461ffff168252906000805160206151df8339815191529060200160405180910390a250505b5050565b33611b67600182612e10565b611b7057600080fd5b60408051610140810182526080810188815260ff80891660a08401526000805461ffff1660c085018190524260e08601526101008501829052606061012086018190529385526001600160a01b038a166020808701919091528984168688015292881685850152815260068252939093208251805180519395929391928492611bfc92849201906140c6565b50602082810151600183018054604086015161ffff166101000262ffffff1990911660ff90931692909217919091179055606083015160028301556080830151600383015560a08301518051611c58926004850192019061414a565b5050506020820151600591909101805460408401516060909401516001600160a01b039093166001600160a81b031990911617600160a01b60ff948516021760ff60a81b1916600160a81b93909216929092021790556000805461ffff16908061122f83615155565b3382611ce8826007836004811061064c57634e487b7160e01b600052603260045260246000fd5b611cf157600080fd5b611d2b8360078660048110611d1657634e487b7160e01b600052603260045260246000fd5b6007020160040161320090919063ffffffff16565b5050505050565b60405134815233907f66ff7c8f71ccc7c36152a41920d0d3b46ef3034359f76aa1498ed4478c204b5c9060200160405180910390a2565b600033611d77600182612e10565b611d8057600080fd5b61ffff80841660009081526003602052604090206001015461010090041615801590611dfb575061ffff8316600090815260036020526040902060010154611dce9060ff166201518061508f565b61ffff841660009081526003602052604090206002015462ffffff9190911690611df890426150dd565b10155b15611ec35761ffff8316600081815260036020526040908190209051611e219190614dda565b6040519081900381209060008051602061522883398151915290600090a361ffff83166000908152600360205260408120908181611e5f8282614398565b60018201805462ffffff1916905560006002830181905560038301819055611e8b9060048401906143d2565b50611e9c90506005830160006143d2565b611eaa6006830160006143f0565b611eb86007830160006143d2565b50506001915061222f565b61ffff80841660009081526004602052604090206001015461010090041615801590611f3e575061ffff8316600090815260046020526040902060010154611f119060ff166201518061508f565b61ffff841660009081526004602052604090206002015462ffffff9190911690611f3b90426150dd565b10155b15611fcc5761ffff8316600081815260036020526040908190209051611f649190614dda565b6040519081900381209060008051602061522883398151915290600090a361ffff8316600090815260046020526040812090611fa08282614398565b60018201805462ffffff1916905560006002830181905560038301819055611eb89060048401906143d2565b61ffff80841660009081526005602052604090206001015461010090041615801590612047575061ffff831660009081526005602052604090206001015461201a9060ff166201518061508f565b61ffff841660009081526005602052604090206002015462ffffff919091169061204490426150dd565b10155b156121025761ffff831660008181526003602052604090819020905161206d9190614dda565b6040519081900381209060008051602061522883398151915290600090a361ffff831660009081526005602052604081209081816120ab8282614398565b60018201805462ffffff19169055600060028301819055600383018190556120d79060048401906143d2565b506120e890506005830160006143d2565b60068201805460ff19169055611eb860078301600061440e565b61ffff8084166000908152600660205260409020600101546101009004161580159061217d575061ffff83166000908152600660205260409020600101546121509060ff166201518061508f565b61ffff841660009081526006602052604090206002015462ffffff919091169061217a90426150dd565b10155b1561222a5761ffff83166000818152600360205260409081902090516121a39190614dda565b6040519081900381209060008051602061522883398151915290600090a361ffff831660009081526006602052604081209081816121e18282614398565b60018201805462ffffff191690556000600283018190556003830181905561220d9060048401906143d2565b50505060050180546001600160b01b03191690556001915061222f565b600091505b50919050565b33612241600182612e10565b61224a57600080fd5b61ffff8083166000908152600360205260409020600101543391610100909104161561239f5761ffff831660009081526003602090815260409182902060040180548351818402810184019094528084526122e493928301828280156122d957602002820191906000526020600020905b81546001600160a01b031681526001909101906020018083116122bb575b505050505082613479565b1561239a5761ffff8316600090815260036020819052604082200180549161230b83615177565b909155505061ffff8316600081815260036020908152604080832060048101805460018101825590855292842090920180546001600160a01b0319166001600160a01b03871690811790915592849052519192916123699190614dda565b604051908190038120907f96aff3db4ff7dbe7dd5d88fadbcc5c5f7fe5eb97cd711500d046a737b9c08cf990600090a45b505050565b61ffff808416600090815260046020526040902060010154610100900416156124bf5761ffff8316600090815260046020818152604092839020909101805483518184028101840190945280845261243493928301828280156122d9576020028201919060005260206000209081546001600160a01b031681526001909101906020018083116122bb57505050505082613479565b1561239a5761ffff8316600090815260046020526040812060030180549161245b83615177565b909155505061ffff8316600081815260046020818152604080842090920180546001810182559084528184200180546001600160a01b0319166001600160a01b03871690811790915584845260039091529181902090519192916123699190614dda565b61ffff808416600090815260056020526040902060010154610100900416156125de5761ffff8316600090815260056020908152604091829020600401805483518184028101840190945280845261255493928301828280156122d9576020028201919060005260206000209081546001600160a01b031681526001909101906020018083116122bb57505050505082613479565b1561239a5761ffff8316600090815260056020526040812060030180549161257b83615177565b909155505061ffff8316600081815260056020908152604080832060040180546001810182559084528284200180546001600160a01b0319166001600160a01b038716908117909155848452600390925291829020915190929161236991614dda565b61ffff8084166000908152600660205260409020600101546101009004161561239a5761ffff8316600090815260066020908152604091829020600401805483518184028101840190945280845261267393928301828280156122d9576020028201919060005260206000209081546001600160a01b031681526001909101906020018083116122bb57505050505082613479565b1561239a5761ffff8316600090815260066020526040812060030180549161269a83615177565b909155505061ffff8316600081815260066020908152604080832060040180546001810182559084528284200180546001600160a01b0319166001600160a01b038716908117909155848452600390925291829020915190929161236991614dda565b61ffff811660009081526023602052604090205460ff161561271e57600080fd5b61ffff80821660009081526003602052604090206001015461010090041615801590612775575060026127516001612fe2565b61275b919061506f565b61ffff821660009081526003602081905260409091200154115b1561289b5761ffff8116600090815260036020908152604080832060239092528220805460ff19166001179055905b6005820154811015612853578160060181815481106127d357634e487b7160e01b600052603260045260246000fd5b9060005260206000200180546127e890615120565b1515905061281b5761281682600701828154811061166e57634e487b7160e01b600052603260045260246000fd5b612841565b6128418260050182815481106116e157634e487b7160e01b600052603260045260246000fd5b8061284b81615177565b9150506127a4565b50604051612862908290614dda565b6040519081900381206001830154610100900461ffff168252906000805160206151df8339815191529060200160405180910390a25050565b61ffff808216600090815260056020526040902060010154610100900416158015906128f1575060026128ce6001612fe2565b6128d8919061506f565b61ffff8216600090815260056020526040902060030154115b15612b785761ffff811660009081526005602090815260408083206023909252909120805460ff19166001179055600681015460ff1615612a4e5760005b6005820154811015612a485761297e82600501828154811061296157634e487b7160e01b600052603260045260246000fd5b6000918252602090912001546001906001600160a01b0316612df4565b50612a358260050182815481106129a557634e487b7160e01b600052603260045260246000fd5b600091825260209091200154600784810180546001600160a01b0390931692859081106129e257634e487b7160e01b600052603260045260246000fd5b60009182526020918290209181049091015460ff601f9092166101000a90041660048110612a2057634e487b7160e01b600052603260045260246000fd5b60070201600101612df490919063ffffffff16565b5080612a4081615177565b91505061292f565b50612b6a565b60005b600582015481101561285357612aa0826005018281548110612a8357634e487b7160e01b600052603260045260246000fd5b6000918252602090912001546001906001600160a01b03166134ed565b50612b57826005018281548110612ac757634e487b7160e01b600052603260045260246000fd5b600091825260209091200154600784810180546001600160a01b039093169285908110612b0457634e487b7160e01b600052603260045260246000fd5b60009182526020918290209181049091015460ff601f9092166101000a90041660048110612b4257634e487b7160e01b600052603260045260246000fd5b600702016001016134ed90919063ffffffff16565b5080612b6281615177565b915050612a51565b604051612862908290614dda565b61ffff80821660009081526006602052604090206001015461010090041615801590612bce57506002612bab6001612fe2565b612bb5919061506f565b61ffff8216600090815260066020526040902060030154115b15612c7b5761ffff811660009081526006602090815260408083206023909252909120805460ff191660011790556005810154612c3b906001600160a01b03811690600790600160a01b900460ff1660048110612b4257634e487b7160e01b600052603260045260246000fd5b506005810154612853906001600160a01b03811690600790600160a81b900460ff1660048110612a2057634e487b7160e01b600052603260045260246000fd5b6002612c876001612fe2565b612c91919061506f565b61ffff82166000908152600460205260409020600301541115612d2a5761ffff81166000908152602360209081526040808320805460ff191660011790556004909152908190209051612ce49190614dda565b6040805191829003822061ffff848116600090815260046020908152939020600101546101009004168352916000805160206151df833981519152910160405180910390a25b50565b3382612d54826007836004811061064c57634e487b7160e01b600052603260045260246000fd5b612d5d57600080fd5b612d99833360078760048110612d8357634e487b7160e01b600052603260045260246000fd5b600702016004016135029092919063ffffffff16565b50505050565b612da761419f565b612daf614433565b612de98360078660048110612dd457634e487b7160e01b600052603260045260246000fd5b6007020160040161374890919063ffffffff16565b915091509250929050565b6000612e09836001600160a01b038416613bb5565b9392505050565b6001600160a01b03811660009081526001830160205260408120541515612e09565b60408051610140810182526080810187815260ff871660a0830152885461ffff1660c083018190524260e08401526000610100840181905260606101208501819052928452602080850189905284860188905284840187905291815260018b018252939093208251805180519395929391928492612eb392849201906140c6565b50602082810151600183018054604086015161ffff166101000262ffffff1990911660ff90931692909217919091179055606083015160028301556080830151600383015560a08301518051612f0f926004850192019061414a565b5050506020828101518051612f2a926005850192019061414a565b5060408201518051612f46916006840191602090910190614305565b5060608201518051612f6291600784019160209091019061435e565b5050875461ffff169050876000612f7883615155565b82546101009290920a61ffff8181021990931691831602179091558854612fa39250600191166150ba565b61ffff1686604051612fb59190614dbe565b6040805191829003822060ff89168352426020840152916000805160206151bf8339815191529101611296565b60006104c5825490565b6000612e098383613c04565b604080516101008101825280820185815260ff8516606083810191909152875461ffff16608084018190524260a0850152600060c0850181905260e08501839052928452602080850187905290835260028901815293909120825180518051939592939192849261306c92849201906140c6565b50602082810151600183018054604086015161ffff166101000262ffffff1990911660ff90931692909217919091179055606083015160028301556080830151600383015560a083015180516130c8926004850192019061414a565b50505060209190910151600590910155845461ffff168560006130ea83615155565b82546101009290920a61ffff81810219909316918316021790915586546131159250600191166150ba565b61ffff16846040516131279190614dbe565b6040805191829003822060ff87168352426020840152916000805160206151bf833981519152910160405180910390a35050505050565b814781111561316c57600080fd5b816001600160a01b03167f04bd02e6e14d9c1417ba3582a754b1124ad2fbe11ad4cee6b51d08ebadfc0792846040516131a791815260200190565b60405180910390a261239a8284613c9d565b6131c4838383613db6565b50826001600160a01b03167f04bd02e6e14d9c1417ba3582a754b1124ad2fbe11ad4cee6b51d08ebadfc07928260405161183291815260200190565b61ffff8082166000908152600180850160205260408220015490916101009091041615801590613283575061ffff821660009081526001808501602052604090912001546132549060ff166201518061508f565b61ffff8316600090815260018501602052604090206002015462ffffff919091169061328090426150dd565b10155b1561334f5761ffff821660008181526001850160205260409081902090516132ab9190614dda565b6040519081900381209060008051602061522883398151915290600090a361ffff8216600090815260018401602052604081209081816132eb8282614398565b60018201805462ffffff19169055600060028301819055600383018190556133179060048401906143d2565b5061332890506005830160006143d2565b6133366006830160006143f0565b6133446007830160006143d2565b5050600190506104c5565b61ffff8083166000908152600285016020526040902060010154610100900416158015906133d0575061ffff821660009081526002840160205260409020600101546133a19060ff166201518061508f565b61ffff8316600090815260028086016020526040909120015462ffffff91909116906133cd90426150dd565b10155b156114935761ffff821660008181526002850160205260409081902090516133f89190614dda565b6040519081900381209060008051602061522883398151915290600090a361ffff8216600090815260028401602052604081209081816134388282614398565b60018201805462ffffff19169055600060028301819055600383018190556134649060048401906143d2565b505060058201600090555050600190506104c5565b6000805b83518110156134e357826001600160a01b03168482815181106134b057634e487b7160e01b600052603260045260246000fd5b60200260200101516001600160a01b031614156134d15760009150506104c5565b806134db81615177565b91505061347d565b5060019392505050565b6000612e09836001600160a01b038416613de4565b61ffff8083166000908152600180860160205260409091200154610100900416156136265761ffff82166000908152600184016020908152604091829020600401805483518184028101840190945280845261359d939283018282801561359257602002820191906000526020600020905b81546001600160a01b03168152600190910190602001808311613574575b505050505082613efb565b1561239a5761ffff8216600090815260018401602052604081206003018054916135c683615177565b909155505061ffff821660008181526001858101602090815260408084206004810180549485018155855291842090920180546001600160a01b0319166001600160a01b0387169081179091559284905290519192916123699190614dda565b61ffff80831660009081526002850160205260409020600101546101009004161561239a5761ffff8216600090815260028401602090815260409182902060040180548351818402810184019094528084526136bf9392830182828015613592576020028201919060005260206000209081546001600160a01b0316815260019091019060200180831161357457505050505082613efb565b1561239a5761ffff8216600090815260028401602052604081206003018054916136e883615177565b909155505061ffff82166000818152600285016020908152604080832060048101805460018101825590855292842090920180546001600160a01b0319166001600160a01b03871690811790915592849052519192916123699190614dda565b61375061419f565b613758614433565b61ffff8316600090815260018501602090815260408083206002880190925291829020825161014081019093528154919290918390829060808201908390829082906137a390615120565b80601f01602080910402602001604051908101604052809291908181526020018280546137cf90615120565b801561381c5780601f106137f15761010080835404028352916020019161381c565b820191906000526020600020905b8154815290600101906020018083116137ff57829003601f168201915b5050509183525050600182015460ff811660208084019190915261010090910461ffff16604080840191909152600284015460608401526003840154608084015260048401805482518185028101850190935280835260a09094019391929091908301828280156138b657602002820191906000526020600020905b81546001600160a01b03168152600190910190602001808311613898575b50505050508152505081526020016005820180548060200260200160405190810160405280929190818152602001828054801561391c57602002820191906000526020600020905b81546001600160a01b031681526001909101906020018083116138fe575b5050505050815260200160068201805480602002602001604051908101604052809291908181526020016000905b828210156139f657838290600052602060002001805461396990615120565b80601f016020809104026020016040519081016040528092919081815260200182805461399590615120565b80156139e25780601f106139b7576101008083540402835291602001916139e2565b820191906000526020600020905b8154815290600101906020018083116139c557829003601f168201915b50505050508152602001906001019061394a565b50505050815260200160078201805480602002602001604051908101604052809291908181526020018280548015613a4d57602002820191906000526020600020905b815481526020019060010190808311613a39575b50505091909252505060408051610100810182528454939550928492508391820190839082908290613a7e90615120565b80601f0160208091040260200160405190810160405280929190818152602001828054613aaa90615120565b8015613af75780601f10613acc57610100808354040283529160200191613af7565b820191906000526020600020905b815481529060010190602001808311613ada57829003601f168201915b5050509183525050600182015460ff811660208084019190915261010090910461ffff16604080840191909152600284015460608401526003840154608084015260048401805482518185028101850190935280835260a0909401939192909190830182828015613b9157602002820191906000526020600020905b81546001600160a01b03168152600190910190602001808311613b73575b50505050508152505081526020016005820154815250509050915091509250929050565b6000818152600183016020526040812054613bfc575081546001818101845560008481526020808220909301849055845484825282860190935260409020919091556104c5565b5060006104c5565b81546000908210613c675760405162461bcd60e51b815260206004820152602260248201527f456e756d657261626c655365743a20696e646578206f7574206f6620626f756e604482015261647360f01b60648201526084015b60405180910390fd5b826000018281548110613c8a57634e487b7160e01b600052603260045260246000fd5b9060005260206000200154905092915050565b80471015613ced5760405162461bcd60e51b815260206004820152601d60248201527f416464726573733a20696e73756666696369656e742062616c616e63650000006044820152606401613c5e565b6000826001600160a01b03168260405160006040518083038185875af1925050503d8060008114613d3a576040519150601f19603f3d011682016040523d82523d6000602084013e613d3f565b606091505b505090508061239a5760405162461bcd60e51b815260206004820152603a60248201527f416464726573733a20756e61626c6520746f2073656e642076616c75652c207260448201527f6563697069656e74206d617920686176652072657665727465640000000000006064820152608401613c5e565b6060613ddc8484846040518060600160405280602981526020016151ff60299139613f65565b949350505050565b60008181526001830160205260408120548015613ef1576000613e086001836150dd565b8554909150600090613e1c906001906150dd565b90506000866000018281548110613e4357634e487b7160e01b600052603260045260246000fd5b9060005260206000200154905080876000018481548110613e7457634e487b7160e01b600052603260045260246000fd5b600091825260208083209091019290925582815260018901909152604090208490558654879080613eb557634e487b7160e01b600052603160045260246000fd5b600190038181906000526020600020016000905590558660010160008781526020019081526020016000206000905560019450505050506104c5565b60009150506104c5565b6000805b83518110156134e357826001600160a01b0316848281518110613f3257634e487b7160e01b600052603260045260246000fd5b60200260200101516001600160a01b03161415613f535760009150506104c5565b80613f5d81615177565b915050613eff565b606082471015613fc65760405162461bcd60e51b815260206004820152602660248201527f416464726573733a20696e73756666696369656e742062616c616e636520666f6044820152651c8818d85b1b60d21b6064820152608401613c5e565b843b6140145760405162461bcd60e51b815260206004820152601d60248201527f416464726573733a2063616c6c20746f206e6f6e2d636f6e74726163740000006044820152606401613c5e565b600080866001600160a01b031685876040516140309190614dbe565b60006040518083038185875af1925050503d806000811461406d576040519150601f19603f3d011682016040523d82523d6000602084013e614072565b606091505b509150915061408282828661408d565b979650505050505050565b6060831561409c575081612e09565b8251156140ac5782518084602001fd5b8160405162461bcd60e51b8152600401613c5e9190614f05565b8280546140d290615120565b90600052602060002090601f0160209004810192826140f4576000855561413a565b82601f1061410d57805160ff191683800117855561413a565b8280016001018555821561413a579182015b8281111561413a57825182559160200191906001019061411f565b50614146929150614453565b5090565b82805482825590600052602060002090810192821561413a579160200282015b8281111561413a57825182546001600160a01b0319166001600160a01b0390911617825560209092019160019091019061416a565b60405180608001604052806141b26141cd565b81526020016060815260200160608152602001606081525090565b6040518060c0016040528060608152602001600060ff168152602001600061ffff1681526020016000815260200160008152602001606081525090565b604051806080016040528061421d6141cd565b8152606060208201819052600060408301529081015290565b60405180608001604052806142496141cd565b81526000602082018190526040820181905260609091015290565b82805482825590600052602060002090601f0160209004810192821561413a5791602002820160005b838211156142cb57835183826101000a81548160ff021916908360ff160217905550926020019260010160208160000104928301926001030261428d565b80156142f85782816101000a81549060ff02191690556001016020816000010492830192600103026142cb565b5050614146929150614453565b828054828255906000526020600020908101928215614352579160200282015b8281111561435257825180516143429184916020909101906140c6565b5091602001919060010190614325565b50614146929150614468565b82805482825590600052602060002090810192821561413a579160200282018281111561413a57825182559160200191906001019061411f565b5080546143a490615120565b6000825580601f106143b4575050565b601f016020900490600052602060002090810190612d2a9190614453565b5080546000825590600052602060002090810190612d2a9190614453565b5080546000825590600052602060002090810190612d2a9190614468565b50805460008255601f016020900490600052602060002090810190612d2a9190614453565b60405180604001604052806144466141cd565b8152602001600081525090565b5b808211156141465760008155600101614454565b8082111561414657600061447c8282614398565b50600101614468565b80356001600160a01b038116811461449c57600080fd5b919050565b600082601f8301126144b1578081fd5b813560206144c66144c18361504c565b61501c565b80838252828201915082860187848660051b89010111156144e5578586fd5b855b8581101561450a576144f882614485565b845292840192908401906001016144e7565b5090979650505050505050565b600082601f830112614527578081fd5b813560206145376144c18361504c565b80838252828201915082860187848660051b8901011115614556578586fd5b855b8581101561450a5781356001600160401b03811115614575578788fd5b6145838a87838c01016145f3565b8552509284019290840190600101614558565b600082601f8301126145a6578081fd5b813560206145b66144c18361504c565b80838252828201915082860187848660051b89010111156145d5578586fd5b855b8581101561450a578135845292840192908401906001016145d7565b600082601f830112614603578081fd5b81356001600160401b0381111561461c5761461c6151a8565b61462f601f8201601f191660200161501c565b818152846020838601011115614643578283fd5b816020850160208301379081016020019190915292915050565b803561ffff8116811461449c57600080fd5b803560ff8116811461449c57600080fd5b600080600080600060a08688031215614697578081fd5b6146a086614485565b94506146ae60208701614485565b935060408601356001600160401b03808211156146c9578283fd5b6146d589838a01614596565b945060608801359150808211156146ea578283fd5b6146f689838a01614596565b9350608088013591508082111561470b578283fd5b50614718888289016145f3565b9150509295509295909350565b600080600080600060a0868803121561473c578081fd5b61474586614485565b945061475360208701614485565b9350604086013592506060860135915060808601356001600160401b0381111561477b578182fd5b614718888289016145f3565b600060208284031215614798578081fd5b81356001600160e01b031981168114612e09578182fd5b600080604083850312156147c1578182fd5b82356001600160401b038111156147d6578283fd5b6147e2858286016145f3565b9250506147f16020840161466f565b90509250929050565b600080600080600060a08688031215614811578081fd5b85356001600160401b03811115614826578182fd5b614832888289016145f3565b9550506148416020870161466f565b935061484f60408701614485565b925061485d6060870161466f565b915061486b6080870161466f565b90509295509295909350565b600080600080600060a0868803121561488e578283fd5b85356001600160401b03808211156148a4578485fd5b6148b089838a016145f3565b96506148be6020890161466f565b955060408801359150808211156148d3578485fd5b6148df89838a016144a1565b945060608801359150808211156148f4578283fd5b61490089838a01614517565b93506080880135915080821115614915578283fd5b5061471888828901614596565b600080600080600060a08688031215614939578283fd5b85356001600160401b038082111561494f578485fd5b61495b89838a016145f3565b96506020915061496c82890161466f565b955060408801358181111561497f578586fd5b61498b8a828b016144a1565b955050606088013580151581146149a0578384fd5b93506080880135818111156149b3578384fd5b88019050601f810189136149c5578283fd5b80356149d36144c18261504c565b8082825284820191508484018c868560051b87010111156149f2578687fd5b8694505b83851015614a1b57614a078161466f565b8352600194909401939185019185016149f6565b5080955050505050509295509295909350565b600060208284031215614a3f578081fd5b612e098261465d565b600060208284031215614a59578081fd5b5035919050565b60008060408385031215614a72578182fd5b823591506147f160208401614485565b60008060008060008060c08789031215614a9a578384fd5b8635955060208701356001600160401b0380821115614ab7578586fd5b614ac38a838b016145f3565b9650614ad160408a0161466f565b95506060890135915080821115614ae6578283fd5b614af28a838b016144a1565b94506080890135915080821115614b07578283fd5b614b138a838b01614517565b935060a0890135915080821115614b28578283fd5b50614b3589828a01614596565b9150509295509295509295565b60008060008060808587031215614b57578182fd5b8435935060208501356001600160401b03811115614b73578283fd5b614b7f878288016145f3565b935050614b8e6040860161466f565b9396929550929360600135925050565b60008060408385031215614bb0578182fd5b823591506147f16020840161465d565b6000815180845260208085019450808401835b83811015614bf85781516001600160a01b031687529582019590820190600101614bd3565b509495945050505050565b6000815180845260208085019450808401835b83811015614bf857815187529582019590820190600101614c16565b60008151808452614c4a8160208601602086016150f4565b601f01601f19169290920160200192915050565b6000815160808452614c736080850182614d58565b905060018060a01b03602084015116602085015260ff604084015116604085015260ff60608401511660608501528091505092915050565b6000815160808452614cc06080850182614d58565b905060208084015185830382870152614cd98382614bc0565b925050604084015185830360408701528281518085528385019150838160051b8601018484019350865b82811015614d3157601f19878303018452614d1f828651614c32565b94860194938601939150600101614d03565b506060880151955088810360608a0152614d4b8187614c03565b9998505050505050505050565b6000815160c08452614d6d60c0850182614c32565b905060ff602084015116602085015261ffff6040840151166040850152606083015160608501526080830151608085015260a083015184820360a0860152614db58282614bc0565b95945050505050565b60008251614dd08184602087016150f4565b9190910192915050565b600080835482600182811c915080831680614df657607f831692505b6020808410821415614e1657634e487b7160e01b87526022600452602487fd5b818015614e2a5760018114614e3b57614e67565b60ff19861689528489019650614e67565b60008a815260209020885b86811015614e5f5781548b820152908501908301614e46565b505084890196505b509498975050505050505050565b604081526000614e886040830185614bc0565b90508260208301529392505050565b6020808252825182820181905260009190848201906040850190845b81811015614ecf57835183529284019291840191600101614eb3565b50909695505050505050565b8381526001600160a01b0383166020820152606060408201819052600090614db590830184614bc0565b602081526000612e096020830184614c32565b604081526000614f2b6040830185614cab565b8281036020840152835160408252614f466040830182614d58565b90506020850151602083015280925050509392505050565b608081526000614f716080830187614cab565b602083820381850152614f848288614d58565b91508382036040850152855160808352614fa16080840182614d58565b90508187015183820383850152614fb88282614bc0565b6040898101511515908601526060808a01518683039190960152845180825290840194840192508591505b8082101561500657825160ff168552938301939183019160019190910190614fe3565b5050505082810360608401526140828185614c5e565b604051601f8201601f191681016001600160401b0381118282101715615044576150446151a8565b604052919050565b60006001600160401b03821115615065576150656151a8565b5060051b60200190565b60008261508a57634e487b7160e01b81526012600452602481fd5b500490565b600062ffffff808316818516818304811182151516156150b1576150b1615192565b02949350505050565b600061ffff838116908316818110156150d5576150d5615192565b039392505050565b6000828210156150ef576150ef615192565b500390565b60005b8381101561510f5781810151838201526020016150f7565b83811115612d995750506000910152565b600181811c9082168061513457607f821691505b6020821081141561222f57634e487b7160e01b600052602260045260246000fd5b600061ffff8083168181141561516d5761516d615192565b6001019392505050565b600060001982141561518b5761518b615192565b5060010190565b634e487b7160e01b600052601160045260246000fd5b634e487b7160e01b600052604160045260246000fdfefb07f0b6a495000a76b84fe72725aefa5d6b75fa4c4018f95c244048d02ba1340e4c462064ff3edd0c76f240471b531e7a1fb5d76435e9be70181a779056fbc9416464726573733a206c6f772d6c6576656c2063616c6c20776974682076616c7565206661696c6564e3b80df9e89df04cf349bc0ed35da62b9edc408708393382577b14c234a082d6a26469706673582212203971055ce9eb970ba334c80efff33b256a0cae0afcd2e3a9fe9fd6cf551a541264736f6c63430008040033608060405234801561001057600080fd5b50600080546001600160a01b03191633179055610ce9806100326000396000f3fe60806040526004361061007f5760003560e01c806398ba1d461161004e57806398ba1d461461015f578063bc197c811461017a578063d0e30db0146101bf578063f23a6e61146101c757600080fd5b806301ffc9a7146100c05780631826c119146100f557806388bde015146101175780638da5cb5b1461013757600080fd5b366100bb5760405134815233907f66ff7c8f71ccc7c36152a41920d0d3b46ef3034359f76aa1498ed4478c204b5c9060200160405180910390a2005b600080fd5b3480156100cc57600080fd5b506100e06100db366004610b35565b6101f3565b60405190151581526020015b60405180910390f35b34801561010157600080fd5b50610115610110366004610af2565b61022a565b005b34801561012357600080fd5b506101156101323660046109fd565b6102fe565b34801561014357600080fd5b506000546040516001600160a01b0390911681526020016100ec565b34801561016b57600080fd5b506040514781526020016100ec565b34801561018657600080fd5b506101a66101953660046108f4565b63bc197c8160e01b95945050505050565b6040516001600160e01b031990911681526020016100ec565b610115610405565b3480156101d357600080fd5b506101a66101e236600461099a565b63f23a6e6160e01b95945050505050565b60006001600160e01b03198216630271189760e51b148061022457506301ffc9a760e01b6001600160e01b03198316145b92915050565b3361023d6000546001600160a01b031690565b6001600160a01b0316146102985760405162461bcd60e51b815260206004820152601e60248201527f4f776e65643a2063616c6c6572206973206e6f7420746865206f776e6572000060448201526064015b60405180910390fd5b60008251826102a79190610c01565b905060005b83518110156102f8576102e6828583815181106102d957634e487b7160e01b600052603260045260246000fd5b602002602001015161043c565b806102f081610c4d565b9150506102ac565b50505050565b336103116000546001600160a01b031690565b6001600160a01b0316146103675760405162461bcd60e51b815260206004820152601e60248201527f4f776e65643a2063616c6c6572206973206e6f7420746865206f776e65720000604482015260640161028f565b60005b83518110156102f8576103f384828151811061039657634e487b7160e01b600052603260045260246000fd5b60200260200101518483815181106103be57634e487b7160e01b600052603260045260246000fd5b60200260200101518484815181106103e657634e487b7160e01b600052603260045260246000fd5b602002602001015161049c565b806103fd81610c4d565b91505061036a565b60405134815233907f66ff7c8f71ccc7c36152a41920d0d3b46ef3034359f76aa1498ed4478c204b5c9060200160405180910390a2565b814781111561044a57600080fd5b816001600160a01b03167f04bd02e6e14d9c1417ba3582a754b1124ad2fbe11ad4cee6b51d08ebadfc07928460405161048591815260200190565b60405180910390a261049782846104f0565b505050565b6104a7838383610609565b50826001600160a01b03167f04bd02e6e14d9c1417ba3582a754b1124ad2fbe11ad4cee6b51d08ebadfc0792826040516104e391815260200190565b60405180910390a2505050565b804710156105405760405162461bcd60e51b815260206004820152601d60248201527f416464726573733a20696e73756666696369656e742062616c616e6365000000604482015260640161028f565b6000826001600160a01b03168260405160006040518083038185875af1925050503d806000811461058d576040519150601f19603f3d011682016040523d82523d6000602084013e610592565b606091505b50509050806104975760405162461bcd60e51b815260206004820152603a60248201527f416464726573733a20756e61626c6520746f2073656e642076616c75652c207260448201527f6563697069656e74206d61792068617665207265766572746564000000000000606482015260840161028f565b606061062f848484604051806060016040528060298152602001610c8b60299139610639565b90505b9392505050565b60608247101561069a5760405162461bcd60e51b815260206004820152602660248201527f416464726573733a20696e73756666696369656e742062616c616e636520666f6044820152651c8818d85b1b60d21b606482015260840161028f565b843b6106e85760405162461bcd60e51b815260206004820152601d60248201527f416464726573733a2063616c6c20746f206e6f6e2d636f6e7472616374000000604482015260640161028f565b600080866001600160a01b031685876040516107049190610b5d565b60006040518083038185875af1925050503d8060008114610741576040519150601f19603f3d011682016040523d82523d6000602084013e610746565b606091505b5091509150610756828286610761565b979650505050505050565b60608315610770575081610632565b8251156107805782518084602001fd5b8160405162461bcd60e51b815260040161028f9190610b79565b80356001600160a01b03811681146107b157600080fd5b919050565b600082601f8301126107c6578081fd5b813560206107db6107d683610bdd565b610bac565b80838252828201915082860187848660051b89010111156107fa578586fd5b855b8581101561081f5761080d8261079a565b845292840192908401906001016107fc565b5090979650505050505050565b600082601f83011261083c578081fd5b8135602061084c6107d683610bdd565b80838252828201915082860187848660051b890101111561086b578586fd5b855b8581101561081f5781358452928401929084019060010161086d565b600082601f830112610899578081fd5b813567ffffffffffffffff8111156108b3576108b3610c74565b6108c6601f8201601f1916602001610bac565b8181528460208386010111156108da578283fd5b816020850160208301379081016020019190915292915050565b600080600080600060a0868803121561090b578081fd5b6109148661079a565b94506109226020870161079a565b9350604086013567ffffffffffffffff8082111561093e578283fd5b61094a89838a0161082c565b9450606088013591508082111561095f578283fd5b61096b89838a0161082c565b93506080880135915080821115610980578283fd5b5061098d88828901610889565b9150509295509295909350565b600080600080600060a086880312156109b1578081fd5b6109ba8661079a565b94506109c86020870161079a565b93506040860135925060608601359150608086013567ffffffffffffffff8111156109f1578182fd5b61098d88828901610889565b600080600060608486031215610a11578283fd5b833567ffffffffffffffff80821115610a28578485fd5b610a34878388016107b6565b9450602091508186013581811115610a4a578485fd5b8601601f81018813610a5a578485fd5b8035610a686107d682610bdd565b8082825285820191508584018b878560051b8701011115610a87578889fd5b885b84811015610ac057813587811115610a9f578a8bfd5b610aad8e8a838a0101610889565b8552509287019290870190600101610a89565b50909750505050604087013592505080821115610adb578283fd5b50610ae88682870161082c565b9150509250925092565b60008060408385031215610b04578182fd5b823567ffffffffffffffff811115610b1a578283fd5b610b26858286016107b6565b95602094909401359450505050565b600060208284031215610b46578081fd5b81356001600160e01b031981168114610632578182fd5b60008251610b6f818460208701610c21565b9190910192915050565b6020815260008251806020840152610b98816040850160208701610c21565b601f01601f19169190910160400192915050565b604051601f8201601f1916810167ffffffffffffffff81118282101715610bd557610bd5610c74565b604052919050565b600067ffffffffffffffff821115610bf757610bf7610c74565b5060051b60200190565b600082610c1c57634e487b7160e01b81526012600452602481fd5b500490565b60005b83811015610c3c578181015183820152602001610c24565b838111156102f85750506000910152565b6000600019821415610c6d57634e487b7160e01b81526011600452602481fd5b5060010190565b634e487b7160e01b600052604160045260246000fdfe416464726573733a206c6f772d6c6576656c2063616c6c20776974682076616c7565206661696c6564a2646970667358221220e461e79485c9ab8c90a331d6c6b57811905bbf96dd67955d8c1ad1e655bfad2064736f6c63430008040033",
			"opcodes": "PUSH1 0x80 PUSH1 0x40 MSTORE PUSH1 0x0 DUP1 SLOAD PUSH2 0xFFFF NOT AND PUSH1 0x1 OR SWAP1 SSTORE CALLVALUE DUP1 ISZERO PUSH3 0x1F JUMPI PUSH1 0x0 DUP1 REVERT JUMPDEST POP PUSH32 0x5265736561726368202620446576656C6F706D656E7400000000000000000000 PUSH1 0x7 SSTORE PUSH7 0x46696E616E6365 PUSH1 0xC8 SHL PUSH1 0xE SSTORE PUSH5 0x131959D85B PUSH1 0xDA SHL PUSH1 0x15 SSTORE PUSH15 0xA0EAC4D8D2C6409EEAE8E4CAC2C6D PUSH1 0x8B SHL PUSH1 0x1C SSTORE PUSH1 0x0 JUMPDEST PUSH1 0x4 DUP2 LT ISZERO PUSH3 0x168 JUMPI PUSH1 0x40 MLOAD PUSH3 0x8F SWAP1 PUSH3 0x217 JUMP JUMPDEST PUSH1 0x40 MLOAD DUP1 SWAP2 SUB SWAP1 PUSH1 0x0 CREATE DUP1 ISZERO DUP1 ISZERO PUSH3 0xAC JUMPI RETURNDATASIZE PUSH1 0x0 DUP1 RETURNDATACOPY RETURNDATASIZE PUSH1 0x0 REVERT JUMPDEST POP PUSH1 0x7 DUP3 PUSH1 0x4 DUP2 LT PUSH3 0xCF JUMPI PUSH4 0x4E487B71 PUSH1 0xE0 SHL PUSH1 0x0 MSTORE PUSH1 0x32 PUSH1 0x4 MSTORE PUSH1 0x24 PUSH1 0x0 REVERT JUMPDEST PUSH1 0x7 MUL ADD PUSH1 0x3 ADD PUSH1 0x0 PUSH2 0x100 EXP DUP2 SLOAD DUP2 PUSH1 0x1 PUSH1 0x1 PUSH1 0xA0 SHL SUB MUL NOT AND SWAP1 DUP4 PUSH1 0x1 PUSH1 0x1 PUSH1 0xA0 SHL SUB AND MUL OR SWAP1 SSTORE POP PUSH1 0x7 DUP2 PUSH1 0x4 DUP2 LT PUSH3 0x11C JUMPI PUSH4 0x4E487B71 PUSH1 0xE0 SHL PUSH1 0x0 MSTORE PUSH1 0x32 PUSH1 0x4 MSTORE PUSH1 0x24 PUSH1 0x0 REVERT JUMPDEST PUSH1 0x7 MUL ADD PUSH1 0x4 ADD DUP1 SLOAD PUSH2 0xFFFF AND SWAP1 PUSH1 0x0 PUSH3 0x137 DUP4 PUSH3 0x225 JUMP JUMPDEST SWAP2 SWAP1 PUSH2 0x100 EXP DUP2 SLOAD DUP2 PUSH2 0xFFFF MUL NOT AND SWAP1 DUP4 PUSH2 0xFFFF AND MUL OR SWAP1 SSTORE POP POP DUP1 DUP1 PUSH3 0x15F SWAP1 PUSH3 0x24A JUMP JUMPDEST SWAP2 POP POP PUSH3 0x77 JUMP JUMPDEST POP PUSH3 0x184 CALLER PUSH1 0x1 PUSH3 0x1A5 PUSH1 0x20 SHL PUSH3 0x2DF4 OR SWAP1 SWAP2 SWAP1 PUSH1 0x20 SHR JUMP JUMPDEST POP PUSH3 0x19E PUSH1 0x8 CALLER PUSH3 0x1A5 PUSH1 0x20 SWAP1 DUP2 SHL PUSH3 0x2DF4 OR SWAP1 SHR JUMP JUMPDEST POP PUSH3 0x27E JUMP JUMPDEST PUSH1 0x0 PUSH3 0x1BC DUP4 PUSH1 0x1 PUSH1 0x1 PUSH1 0xA0 SHL SUB DUP5 AND PUSH3 0x1C5 JUMP JUMPDEST SWAP1 POP JUMPDEST SWAP3 SWAP2 POP POP JUMP JUMPDEST PUSH1 0x0 DUP2 DUP2 MSTORE PUSH1 0x1 DUP4 ADD PUSH1 0x20 MSTORE PUSH1 0x40 DUP2 KECCAK256 SLOAD PUSH3 0x20E JUMPI POP DUP2 SLOAD PUSH1 0x1 DUP2 DUP2 ADD DUP5 SSTORE PUSH1 0x0 DUP5 DUP2 MSTORE PUSH1 0x20 DUP1 DUP3 KECCAK256 SWAP1 SWAP4 ADD DUP5 SWAP1 SSTORE DUP5 SLOAD DUP5 DUP3 MSTORE DUP3 DUP7 ADD SWAP1 SWAP4 MSTORE PUSH1 0x40 SWAP1 KECCAK256 SWAP2 SWAP1 SWAP2 SSTORE PUSH3 0x1BF JUMP JUMPDEST POP PUSH1 0x0 PUSH3 0x1BF JUMP JUMPDEST PUSH2 0xD1B DUP1 PUSH3 0x550B DUP4 CODECOPY ADD SWAP1 JUMP JUMPDEST PUSH1 0x0 PUSH2 0xFFFF DUP1 DUP4 AND DUP2 DUP2 EQ ISZERO PUSH3 0x240 JUMPI PUSH3 0x240 PUSH3 0x268 JUMP JUMPDEST PUSH1 0x1 ADD SWAP4 SWAP3 POP POP POP JUMP JUMPDEST PUSH1 0x0 PUSH1 0x0 NOT DUP3 EQ ISZERO PUSH3 0x261 JUMPI PUSH3 0x261 PUSH3 0x268 JUMP JUMPDEST POP PUSH1 0x1 ADD SWAP1 JUMP JUMPDEST PUSH4 0x4E487B71 PUSH1 0xE0 SHL PUSH1 0x0 MSTORE PUSH1 0x11 PUSH1 0x4 MSTORE PUSH1 0x24 PUSH1 0x0 REVERT JUMPDEST PUSH2 0x527D DUP1 PUSH3 0x28E PUSH1 0x0 CODECOPY PUSH1 0x0 RETURN INVALID PUSH1 0x80 PUSH1 0x40 MSTORE PUSH1 0x4 CALLDATASIZE LT PUSH2 0x139 JUMPI PUSH1 0x0 CALLDATALOAD PUSH1 0xE0 SHR DUP1 PUSH4 0xBA87146A GT PUSH2 0xAB JUMPI DUP1 PUSH4 0xD537B060 GT PUSH2 0x6F JUMPI DUP1 PUSH4 0xD537B060 EQ PUSH2 0x3BA JUMPI DUP1 PUSH4 0xDDB6E116 EQ PUSH2 0x3DA JUMPI DUP1 PUSH4 0xEDBC28DF EQ PUSH2 0x3FA JUMPI DUP1 PUSH4 0xF23A6E61 EQ PUSH2 0x41A JUMPI DUP1 PUSH4 0xF492935B EQ PUSH2 0x446 JUMPI DUP1 PUSH4 0xF5D77ADF EQ PUSH2 0x466 JUMPI PUSH1 0x0 DUP1 REVERT JUMPDEST DUP1 PUSH4 0xBA87146A EQ PUSH2 0x30D JUMPI DUP1 PUSH4 0xBC197C81 EQ PUSH2 0x32D JUMPI DUP1 PUSH4 0xC696709C EQ PUSH2 0x372 JUMPI DUP1 PUSH4 0xCAA39817 EQ PUSH2 0x392 JUMPI DUP1 PUSH4 0xD0E30DB0 EQ PUSH2 0x3B2 JUMPI PUSH1 0x0 DUP1 REVERT JUMPDEST DUP1 PUSH4 0x3E08602C GT PUSH2 0xFD JUMPI DUP1 PUSH4 0x3E08602C EQ PUSH2 0x250 JUMPI DUP1 PUSH4 0x48ECCC2C EQ PUSH2 0x272 JUMPI DUP1 PUSH4 0x49041D3E EQ PUSH2 0x292 JUMPI DUP1 PUSH4 0x5B4693B9 EQ PUSH2 0x2B2 JUMPI DUP1 PUSH4 0x98BA1D46 EQ PUSH2 0x2D2 JUMPI DUP1 PUSH4 0x9A7EABC6 EQ PUSH2 0x2ED JUMPI PUSH1 0x0 DUP1 REVERT JUMPDEST DUP1 PUSH4 0x1FFC9A7 EQ PUSH2 0x17A JUMPI DUP1 PUSH4 0x1279A374 EQ PUSH2 0x1AF JUMPI DUP1 PUSH4 0x23850315 EQ PUSH2 0x1D1 JUMPI DUP1 PUSH4 0x267044E5 EQ PUSH2 0x1F1 JUMPI DUP1 PUSH4 0x269D6E71 EQ PUSH2 0x221 JUMPI PUSH1 0x0 DUP1 REVERT JUMPDEST CALLDATASIZE PUSH2 0x175 JUMPI PUSH1 0x40 MLOAD CALLVALUE DUP2 MSTORE CALLER SWAP1 PUSH32 0x66FF7C8F71CCC7C36152A41920D0D3B46EF3034359F76AA1498ED4478C204B5C SWAP1 PUSH1 0x20 ADD PUSH1 0x40 MLOAD DUP1 SWAP2 SUB SWAP1 LOG2 STOP JUMPDEST PUSH1 0x0 DUP1 REVERT JUMPDEST CALLVALUE DUP1 ISZERO PUSH2 0x186 JUMPI PUSH1 0x0 DUP1 REVERT JUMPDEST POP PUSH2 0x19A PUSH2 0x195 CALLDATASIZE PUSH1 0x4 PUSH2 0x4787 JUMP JUMPDEST PUSH2 0x494 JUMP JUMPDEST PUSH1 0x40 MLOAD SWAP1 ISZERO ISZERO DUP2 MSTORE PUSH1 0x20 ADD JUMPDEST PUSH1 0x40 MLOAD DUP1 SWAP2 SUB SWAP1 RETURN JUMPDEST CALLVALUE DUP1 ISZERO PUSH2 0x1BB JUMPI PUSH1 0x0 DUP1 REVERT JUMPDEST POP PUSH2 0x1CF PUSH2 0x1CA CALLDATASIZE PUSH1 0x4 PUSH2 0x47AF JUMP JUMPDEST PUSH2 0x4CB JUMP JUMPDEST STOP JUMPDEST CALLVALUE DUP1 ISZERO PUSH2 0x1DD JUMPI PUSH1 0x0 DUP1 REVERT JUMPDEST POP PUSH2 0x1CF PUSH2 0x1EC CALLDATASIZE PUSH1 0x4 PUSH2 0x4A82 JUMP JUMPDEST PUSH2 0x625 JUMP JUMPDEST CALLVALUE DUP1 ISZERO PUSH2 0x1FD JUMPI PUSH1 0x0 DUP1 REVERT JUMPDEST POP PUSH2 0x211 PUSH2 0x20C CALLDATASIZE PUSH1 0x4 PUSH2 0x4A2E JUMP JUMPDEST PUSH2 0x6B6 JUMP JUMPDEST PUSH1 0x40 MLOAD PUSH2 0x1A6 SWAP5 SWAP4 SWAP3 SWAP2 SWAP1 PUSH2 0x4F5E JUMP JUMPDEST CALLVALUE DUP1 ISZERO PUSH2 0x22D JUMPI PUSH1 0x0 DUP1 REVERT JUMPDEST POP PUSH2 0x241 PUSH2 0x23C CALLDATASIZE PUSH1 0x4 PUSH2 0x4A48 JUMP JUMPDEST PUSH2 0xEDF JUMP JUMPDEST PUSH1 0x40 MLOAD PUSH2 0x1A6 SWAP4 SWAP3 SWAP2 SWAP1 PUSH2 0x4EDB JUMP JUMPDEST CALLVALUE DUP1 ISZERO PUSH2 0x25C JUMPI PUSH1 0x0 DUP1 REVERT JUMPDEST POP PUSH2 0x265 PUSH2 0x1083 JUMP JUMPDEST PUSH1 0x40 MLOAD PUSH2 0x1A6 SWAP2 SWAP1 PUSH2 0x4E97 JUMP JUMPDEST CALLVALUE DUP1 ISZERO PUSH2 0x27E JUMPI PUSH1 0x0 DUP1 REVERT JUMPDEST POP PUSH2 0x1CF PUSH2 0x28D CALLDATASIZE PUSH1 0x4 PUSH2 0x4922 JUMP JUMPDEST PUSH2 0x10DA JUMP JUMPDEST CALLVALUE DUP1 ISZERO PUSH2 0x29E JUMPI PUSH1 0x0 DUP1 REVERT JUMPDEST POP PUSH2 0x1CF PUSH2 0x2AD CALLDATASIZE PUSH1 0x4 PUSH2 0x4877 JUMP JUMPDEST PUSH2 0x12A7 JUMP JUMPDEST CALLVALUE DUP1 ISZERO PUSH2 0x2BE JUMPI PUSH1 0x0 DUP1 REVERT JUMPDEST POP PUSH2 0x1CF PUSH2 0x2CD CALLDATASIZE PUSH1 0x4 PUSH2 0x4B42 JUMP JUMPDEST PUSH2 0x13E9 JUMP JUMPDEST CALLVALUE DUP1 ISZERO PUSH2 0x2DE JUMPI PUSH1 0x0 DUP1 REVERT JUMPDEST POP PUSH1 0x40 MLOAD SELFBALANCE DUP2 MSTORE PUSH1 0x20 ADD PUSH2 0x1A6 JUMP JUMPDEST CALLVALUE DUP1 ISZERO PUSH2 0x2F9 JUMPI PUSH1 0x0 DUP1 REVERT JUMPDEST POP PUSH2 0x19A PUSH2 0x308 CALLDATASIZE PUSH1 0x4 PUSH2 0x4A60 JUMP JUMPDEST PUSH2 0x145F JUMP JUMPDEST CALLVALUE DUP1 ISZERO PUSH2 0x319 JUMPI PUSH1 0x0 DUP1 REVERT JUMPDEST POP PUSH2 0x1CF PUSH2 0x328 CALLDATASIZE PUSH1 0x4 PUSH2 0x4B9E JUMP JUMPDEST PUSH2 0x149C JUMP JUMPDEST CALLVALUE DUP1 ISZERO PUSH2 0x339 JUMPI PUSH1 0x0 DUP1 REVERT JUMPDEST POP PUSH2 0x359 PUSH2 0x348 CALLDATASIZE PUSH1 0x4 PUSH2 0x4680 JUMP JUMPDEST PUSH4 0xBC197C81 PUSH1 0xE0 SHL SWAP6 SWAP5 POP POP POP POP POP JUMP JUMPDEST PUSH1 0x40 MLOAD PUSH1 0x1 PUSH1 0x1 PUSH1 0xE0 SHL SUB NOT SWAP1 SWAP2 AND DUP2 MSTORE PUSH1 0x20 ADD PUSH2 0x1A6 JUMP JUMPDEST CALLVALUE DUP1 ISZERO PUSH2 0x37E JUMPI PUSH1 0x0 DUP1 REVERT JUMPDEST POP PUSH2 0x1CF PUSH2 0x38D CALLDATASIZE PUSH1 0x4 PUSH2 0x47FA JUMP JUMPDEST PUSH2 0x1B5B JUMP JUMPDEST CALLVALUE DUP1 ISZERO PUSH2 0x39E JUMPI PUSH1 0x0 DUP1 REVERT JUMPDEST POP PUSH2 0x1CF PUSH2 0x3AD CALLDATASIZE PUSH1 0x4 PUSH2 0x4B9E JUMP JUMPDEST PUSH2 0x1CC1 JUMP JUMPDEST PUSH2 0x1CF PUSH2 0x1D32 JUMP JUMPDEST CALLVALUE DUP1 ISZERO PUSH2 0x3C6 JUMPI PUSH1 0x0 DUP1 REVERT JUMPDEST POP PUSH2 0x19A PUSH2 0x3D5 CALLDATASIZE PUSH1 0x4 PUSH2 0x4A2E JUMP JUMPDEST PUSH2 0x1D69 JUMP JUMPDEST CALLVALUE DUP1 ISZERO PUSH2 0x3E6 JUMPI PUSH1 0x0 DUP1 REVERT JUMPDEST POP PUSH2 0x1CF PUSH2 0x3F5 CALLDATASIZE PUSH1 0x4 PUSH2 0x4A2E JUMP JUMPDEST PUSH2 0x2235 JUMP JUMPDEST CALLVALUE DUP1 ISZERO PUSH2 0x406 JUMPI PUSH1 0x0 DUP1 REVERT JUMPDEST POP PUSH2 0x1CF PUSH2 0x415 CALLDATASIZE PUSH1 0x4 PUSH2 0x4A2E JUMP JUMPDEST PUSH2 0x26FD JUMP JUMPDEST CALLVALUE DUP1 ISZERO PUSH2 0x426 JUMPI PUSH1 0x0 DUP1 REVERT JUMPDEST POP PUSH2 0x359 PUSH2 0x435 CALLDATASIZE PUSH1 0x4 PUSH2 0x4725 JUMP JUMPDEST PUSH4 0xF23A6E61 PUSH1 0xE0 SHL SWAP6 SWAP5 POP POP POP POP POP JUMP JUMPDEST CALLVALUE DUP1 ISZERO PUSH2 0x452 JUMPI PUSH1 0x0 DUP1 REVERT JUMPDEST POP PUSH2 0x1CF PUSH2 0x461 CALLDATASIZE PUSH1 0x4 PUSH2 0x4B9E JUMP JUMPDEST PUSH2 0x2D2D JUMP JUMPDEST CALLVALUE DUP1 ISZERO PUSH2 0x472 JUMPI PUSH1 0x0 DUP1 REVERT JUMPDEST POP PUSH2 0x486 PUSH2 0x481 CALLDATASIZE PUSH1 0x4 PUSH2 0x4B9E JUMP JUMPDEST PUSH2 0x2D9F JUMP JUMPDEST PUSH1 0x40 MLOAD PUSH2 0x1A6 SWAP3 SWAP2 SWAP1 PUSH2 0x4F18 JUMP JUMPDEST PUSH1 0x0 PUSH1 0x1 PUSH1 0x1 PUSH1 0xE0 SHL SUB NOT DUP3 AND PUSH4 0x2711897 PUSH1 0xE5 SHL EQ DUP1 PUSH2 0x4C5 JUMPI POP PUSH4 0x1FFC9A7 PUSH1 0xE0 SHL PUSH1 0x1 PUSH1 0x1 PUSH1 0xE0 SHL SUB NOT DUP4 AND EQ JUMPDEST SWAP3 SWAP2 POP POP JUMP JUMPDEST CALLER PUSH2 0x4D7 PUSH1 0x1 DUP3 PUSH2 0x2E10 JUMP JUMPDEST PUSH2 0x4E0 JUMPI PUSH1 0x0 DUP1 REVERT JUMPDEST PUSH1 0x40 DUP1 MLOAD PUSH1 0xC0 DUP2 ADD DUP3 MSTORE DUP5 DUP2 MSTORE PUSH1 0xFF DUP5 AND PUSH1 0x20 DUP1 DUP4 ADD SWAP2 SWAP1 SWAP2 MSTORE PUSH1 0x0 DUP1 SLOAD PUSH2 0xFFFF AND DUP4 DUP6 ADD DUP2 SWAP1 MSTORE TIMESTAMP PUSH1 0x60 DUP6 DUP2 ADD SWAP2 SWAP1 SWAP2 MSTORE PUSH1 0x80 DUP6 ADD DUP4 SWAP1 MSTORE PUSH1 0xA0 DUP6 ADD DUP2 SWAP1 MSTORE SWAP1 DUP3 MSTORE PUSH1 0x4 DUP4 MSTORE SWAP4 SWAP1 KECCAK256 DUP3 MLOAD DUP1 MLOAD SWAP2 SWAP3 PUSH2 0x53F SWAP3 DUP5 SWAP3 SWAP1 SWAP2 ADD SWAP1 PUSH2 0x40C6 JUMP JUMPDEST POP PUSH1 0x20 DUP3 DUP2 ADD MLOAD PUSH1 0x1 DUP4 ADD DUP1 SLOAD PUSH1 0x40 DUP7 ADD MLOAD PUSH2 0xFFFF AND PUSH2 0x100 MUL PUSH3 0xFFFFFF NOT SWAP1 SWAP2 AND PUSH1 0xFF SWAP1 SWAP4 AND SWAP3 SWAP1 SWAP3 OR SWAP2 SWAP1 SWAP2 OR SWAP1 SSTORE PUSH1 0x60 DUP4 ADD MLOAD PUSH1 0x2 DUP4 ADD SSTORE PUSH1 0x80 DUP4 ADD MLOAD PUSH1 0x3 DUP4 ADD SSTORE PUSH1 0xA0 DUP4 ADD MLOAD DUP1 MLOAD PUSH2 0x59B SWAP3 PUSH1 0x4 DUP6 ADD SWAP3 ADD SWAP1 PUSH2 0x414A JUMP JUMPDEST POP POP PUSH1 0x0 DUP1 SLOAD PUSH2 0xFFFF AND SWAP2 POP DUP1 PUSH2 0x5B1 DUP4 PUSH2 0x5155 JUMP JUMPDEST DUP3 SLOAD PUSH2 0x100 SWAP3 SWAP1 SWAP3 EXP PUSH2 0xFFFF DUP2 DUP2 MUL NOT SWAP1 SWAP4 AND SWAP2 DUP4 AND MUL OR SWAP1 SWAP2 SSTORE PUSH1 0x0 SLOAD PUSH2 0x5DD SWAP3 POP PUSH1 0x1 SWAP2 AND PUSH2 0x50BA JUMP JUMPDEST PUSH2 0xFFFF AND DUP5 PUSH1 0x40 MLOAD PUSH2 0x5EF SWAP2 SWAP1 PUSH2 0x4DBE JUMP JUMPDEST PUSH1 0x40 DUP1 MLOAD SWAP2 DUP3 SWAP1 SUB DUP3 KECCAK256 PUSH1 0xFF DUP8 AND DUP4 MSTORE TIMESTAMP PUSH1 0x20 DUP5 ADD MSTORE SWAP2 PUSH1 0x0 DUP1 MLOAD PUSH1 0x20 PUSH2 0x51BF DUP4 CODECOPY DUP2 MLOAD SWAP2 MSTORE SWAP2 ADD PUSH1 0x40 MLOAD DUP1 SWAP2 SUB SWAP1 LOG3 POP POP POP POP JUMP JUMPDEST CALLER DUP7 PUSH2 0x661 DUP3 PUSH1 0x7 DUP4 PUSH1 0x4 DUP2 LT PUSH2 0x64C JUMPI PUSH4 0x4E487B71 PUSH1 0xE0 SHL PUSH1 0x0 MSTORE PUSH1 0x32 PUSH1 0x4 MSTORE PUSH1 0x24 PUSH1 0x0 REVERT JUMPDEST PUSH1 0x7 MUL ADD PUSH1 0x1 ADD PUSH2 0x2E10 SWAP1 SWAP2 SWAP1 PUSH4 0xFFFFFFFF AND JUMP JUMPDEST PUSH2 0x66A JUMPI PUSH1 0x0 DUP1 REVERT JUMPDEST PUSH2 0x6AC DUP8 DUP8 DUP8 DUP8 DUP8 PUSH1 0x7 DUP15 PUSH1 0x4 DUP2 LT PUSH2 0x693 JUMPI PUSH4 0x4E487B71 PUSH1 0xE0 SHL PUSH1 0x0 MSTORE PUSH1 0x32 PUSH1 0x4 MSTORE PUSH1 0x24 PUSH1 0x0 REVERT JUMPDEST PUSH1 0x7 MUL ADD PUSH1 0x4 ADD PUSH2 0x2E32 SWAP1 SWAP6 SWAP5 SWAP4 SWAP3 SWAP2 SWAP1 PUSH4 0xFFFFFFFF AND JUMP JUMPDEST POP POP POP POP POP POP POP POP JUMP JUMPDEST PUSH2 0x6BE PUSH2 0x419F JUMP JUMPDEST PUSH2 0x6C6 PUSH2 0x41CD JUMP JUMPDEST PUSH2 0x6CE PUSH2 0x420A JUMP JUMPDEST PUSH2 0x6D6 PUSH2 0x4236 JUMP JUMPDEST PUSH2 0xFFFF DUP6 AND PUSH1 0x0 SWAP1 DUP2 MSTORE PUSH1 0x3 PUSH1 0x20 SWAP1 DUP2 MSTORE PUSH1 0x40 DUP1 DUP4 KECCAK256 PUSH1 0x4 DUP4 MSTORE DUP2 DUP5 KECCAK256 PUSH1 0x5 DUP5 MSTORE DUP3 DUP6 KECCAK256 PUSH1 0x6 SWAP1 SWAP5 MSTORE SWAP4 DUP3 SWAP1 KECCAK256 DUP3 MLOAD PUSH2 0x140 DUP2 ADD SWAP1 SWAP4 MSTORE DUP2 SLOAD SWAP2 SWAP5 SWAP4 SWAP3 SWAP1 SWAP2 DUP6 SWAP1 DUP3 SWAP1 PUSH1 0x80 DUP3 ADD SWAP1 DUP4 SWAP1 DUP3 SWAP1 DUP3 SWAP1 PUSH2 0x72D SWAP1 PUSH2 0x5120 JUMP JUMPDEST DUP1 PUSH1 0x1F ADD PUSH1 0x20 DUP1 SWAP2 DIV MUL PUSH1 0x20 ADD PUSH1 0x40 MLOAD SWAP1 DUP2 ADD PUSH1 0x40 MSTORE DUP1 SWAP3 SWAP2 SWAP1 DUP2 DUP2 MSTORE PUSH1 0x20 ADD DUP3 DUP1 SLOAD PUSH2 0x759 SWAP1 PUSH2 0x5120 JUMP JUMPDEST DUP1 ISZERO PUSH2 0x7A6 JUMPI DUP1 PUSH1 0x1F LT PUSH2 0x77B JUMPI PUSH2 0x100 DUP1 DUP4 SLOAD DIV MUL DUP4 MSTORE SWAP2 PUSH1 0x20 ADD SWAP2 PUSH2 0x7A6 JUMP JUMPDEST DUP3 ADD SWAP2 SWAP1 PUSH1 0x0 MSTORE PUSH1 0x20 PUSH1 0x0 KECCAK256 SWAP1 JUMPDEST DUP2 SLOAD DUP2 MSTORE SWAP1 PUSH1 0x1 ADD SWAP1 PUSH1 0x20 ADD DUP1 DUP4 GT PUSH2 0x789 JUMPI DUP3 SWAP1 SUB PUSH1 0x1F AND DUP3 ADD SWAP2 JUMPDEST POP POP POP SWAP2 DUP4 MSTORE POP POP PUSH1 0x1 DUP3 ADD SLOAD PUSH1 0xFF DUP2 AND PUSH1 0x20 DUP1 DUP5 ADD SWAP2 SWAP1 SWAP2 MSTORE PUSH2 0x100 SWAP1 SWAP2 DIV PUSH2 0xFFFF AND PUSH1 0x40 DUP1 DUP5 ADD SWAP2 SWAP1 SWAP2 MSTORE PUSH1 0x2 DUP5 ADD SLOAD PUSH1 0x60 DUP5 ADD MSTORE PUSH1 0x3 DUP5 ADD SLOAD PUSH1 0x80 DUP5 ADD MSTORE PUSH1 0x4 DUP5 ADD DUP1 SLOAD DUP3 MLOAD DUP2 DUP6 MUL DUP2 ADD DUP6 ADD SWAP1 SWAP4 MSTORE DUP1 DUP4 MSTORE PUSH1 0xA0 SWAP1 SWAP5 ADD SWAP4 SWAP2 SWAP3 SWAP1 SWAP2 SWAP1 DUP4 ADD DUP3 DUP3 DUP1 ISZERO PUSH2 0x840 JUMPI PUSH1 0x20 MUL DUP3 ADD SWAP2 SWAP1 PUSH1 0x0 MSTORE PUSH1 0x20 PUSH1 0x0 KECCAK256 SWAP1 JUMPDEST DUP2 SLOAD PUSH1 0x1 PUSH1 0x1 PUSH1 0xA0 SHL SUB AND DUP2 MSTORE PUSH1 0x1 SWAP1 SWAP2 ADD SWAP1 PUSH1 0x20 ADD DUP1 DUP4 GT PUSH2 0x822 JUMPI JUMPDEST POP POP POP POP POP DUP2 MSTORE POP POP DUP2 MSTORE PUSH1 0x20 ADD PUSH1 0x5 DUP3 ADD DUP1 SLOAD DUP1 PUSH1 0x20 MUL PUSH1 0x20 ADD PUSH1 0x40 MLOAD SWAP1 DUP2 ADD PUSH1 0x40 MSTORE DUP1 SWAP3 SWAP2 SWAP1 DUP2 DUP2 MSTORE PUSH1 0x20 ADD DUP3 DUP1 SLOAD DUP1 ISZERO PUSH2 0x8A6 JUMPI PUSH1 0x20 MUL DUP3 ADD SWAP2 SWAP1 PUSH1 0x0 MSTORE PUSH1 0x20 PUSH1 0x0 KECCAK256 SWAP1 JUMPDEST DUP2 SLOAD PUSH1 0x1 PUSH1 0x1 PUSH1 0xA0 SHL SUB AND DUP2 MSTORE PUSH1 0x1 SWAP1 SWAP2 ADD SWAP1 PUSH1 0x20 ADD DUP1 DUP4 GT PUSH2 0x888 JUMPI JUMPDEST POP POP POP POP POP DUP2 MSTORE PUSH1 0x20 ADD PUSH1 0x6 DUP3 ADD DUP1 SLOAD DUP1 PUSH1 0x20 MUL PUSH1 0x20 ADD PUSH1 0x40 MLOAD SWAP1 DUP2 ADD PUSH1 0x40 MSTORE DUP1 SWAP3 SWAP2 SWAP1 DUP2 DUP2 MSTORE PUSH1 0x20 ADD PUSH1 0x0 SWAP1 JUMPDEST DUP3 DUP3 LT ISZERO PUSH2 0x980 JUMPI DUP4 DUP3 SWAP1 PUSH1 0x0 MSTORE PUSH1 0x20 PUSH1 0x0 KECCAK256 ADD DUP1 SLOAD PUSH2 0x8F3 SWAP1 PUSH2 0x5120 JUMP JUMPDEST DUP1 PUSH1 0x1F ADD PUSH1 0x20 DUP1 SWAP2 DIV MUL PUSH1 0x20 ADD PUSH1 0x40 MLOAD SWAP1 DUP2 ADD PUSH1 0x40 MSTORE DUP1 SWAP3 SWAP2 SWAP1 DUP2 DUP2 MSTORE PUSH1 0x20 ADD DUP3 DUP1 SLOAD PUSH2 0x91F SWAP1 PUSH2 0x5120 JUMP JUMPDEST DUP1 ISZERO PUSH2 0x96C JUMPI DUP1 PUSH1 0x1F LT PUSH2 0x941 JUMPI PUSH2 0x100 DUP1 DUP4 SLOAD DIV MUL DUP4 MSTORE SWAP2 PUSH1 0x20 ADD SWAP2 PUSH2 0x96C JUMP JUMPDEST DUP3 ADD SWAP2 SWAP1 PUSH1 0x0 MSTORE PUSH1 0x20 PUSH1 0x0 KECCAK256 SWAP1 JUMPDEST DUP2 SLOAD DUP2 MSTORE SWAP1 PUSH1 0x1 ADD SWAP1 PUSH1 0x20 ADD DUP1 DUP4 GT PUSH2 0x94F JUMPI DUP3 SWAP1 SUB PUSH1 0x1F AND DUP3 ADD SWAP2 JUMPDEST POP POP POP POP POP DUP2 MSTORE PUSH1 0x20 ADD SWAP1 PUSH1 0x1 ADD SWAP1 PUSH2 0x8D4 JUMP JUMPDEST POP POP POP POP DUP2 MSTORE PUSH1 0x20 ADD PUSH1 0x7 DUP3 ADD DUP1 SLOAD DUP1 PUSH1 0x20 MUL PUSH1 0x20 ADD PUSH1 0x40 MLOAD SWAP1 DUP2 ADD PUSH1 0x40 MSTORE DUP1 SWAP3 SWAP2 SWAP1 DUP2 DUP2 MSTORE PUSH1 0x20 ADD DUP3 DUP1 SLOAD DUP1 ISZERO PUSH2 0x9D7 JUMPI PUSH1 0x20 MUL DUP3 ADD SWAP2 SWAP1 PUSH1 0x0 MSTORE PUSH1 0x20 PUSH1 0x0 KECCAK256 SWAP1 JUMPDEST DUP2 SLOAD DUP2 MSTORE PUSH1 0x20 ADD SWAP1 PUSH1 0x1 ADD SWAP1 DUP1 DUP4 GT PUSH2 0x9C3 JUMPI JUMPDEST POP POP POP POP POP DUP2 MSTORE POP POP SWAP4 POP DUP3 PUSH1 0x40 MLOAD DUP1 PUSH1 0xC0 ADD PUSH1 0x40 MSTORE SWAP1 DUP2 PUSH1 0x0 DUP3 ADD DUP1 SLOAD PUSH2 0x9FE SWAP1 PUSH2 0x5120 JUMP JUMPDEST DUP1 PUSH1 0x1F ADD PUSH1 0x20 DUP1 SWAP2 DIV MUL PUSH1 0x20 ADD PUSH1 0x40 MLOAD SWAP1 DUP2 ADD PUSH1 0x40 MSTORE DUP1 SWAP3 SWAP2 SWAP1 DUP2 DUP2 MSTORE PUSH1 0x20 ADD DUP3 DUP1 SLOAD PUSH2 0xA2A SWAP1 PUSH2 0x5120 JUMP JUMPDEST DUP1 ISZERO PUSH2 0xA77 JUMPI DUP1 PUSH1 0x1F LT PUSH2 0xA4C JUMPI PUSH2 0x100 DUP1 DUP4 SLOAD DIV MUL DUP4 MSTORE SWAP2 PUSH1 0x20 ADD SWAP2 PUSH2 0xA77 JUMP JUMPDEST DUP3 ADD SWAP2 SWAP1 PUSH1 0x0 MSTORE PUSH1 0x20 PUSH1 0x0 KECCAK256 SWAP1 JUMPDEST DUP2 SLOAD DUP2 MSTORE SWAP1 PUSH1 0x1 ADD SWAP1 PUSH1 0x20 ADD DUP1 DUP4 GT PUSH2 0xA5A JUMPI DUP3 SWAP1 SUB PUSH1 0x1F AND DUP3 ADD SWAP2 JUMPDEST POP POP POP SWAP2 DUP4 MSTORE POP POP PUSH1 0x1 DUP3 ADD SLOAD PUSH1 0xFF DUP2 AND PUSH1 0x20 DUP1 DUP5 ADD SWAP2 SWAP1 SWAP2 MSTORE PUSH2 0x100 SWAP1 SWAP2 DIV PUSH2 0xFFFF AND PUSH1 0x40 DUP1 DUP5 ADD SWAP2 SWAP1 SWAP2 MSTORE PUSH1 0x2 DUP5 ADD SLOAD PUSH1 0x60 DUP5 ADD MSTORE PUSH1 0x3 DUP5 ADD SLOAD PUSH1 0x80 DUP5 ADD MSTORE PUSH1 0x4 DUP5 ADD DUP1 SLOAD DUP3 MLOAD DUP2 DUP6 MUL DUP2 ADD DUP6 ADD SWAP1 SWAP4 MSTORE DUP1 DUP4 MSTORE PUSH1 0xA0 SWAP1 SWAP5 ADD SWAP4 SWAP2 SWAP3 SWAP1 SWAP2 SWAP1 DUP4 ADD DUP3 DUP3 DUP1 ISZERO PUSH2 0xB11 JUMPI PUSH1 0x20 MUL DUP3 ADD SWAP2 SWAP1 PUSH1 0x0 MSTORE PUSH1 0x20 PUSH1 0x0 KECCAK256 SWAP1 JUMPDEST DUP2 SLOAD PUSH1 0x1 PUSH1 0x1 PUSH1 0xA0 SHL SUB AND DUP2 MSTORE PUSH1 0x1 SWAP1 SWAP2 ADD SWAP1 PUSH1 0x20 ADD DUP1 DUP4 GT PUSH2 0xAF3 JUMPI JUMPDEST POP POP POP POP POP DUP2 MSTORE POP POP SWAP3 POP DUP2 PUSH1 0x40 MLOAD DUP1 PUSH1 0x80 ADD PUSH1 0x40 MSTORE SWAP1 DUP2 PUSH1 0x0 DUP3 ADD PUSH1 0x40 MLOAD DUP1 PUSH1 0xC0 ADD PUSH1 0x40 MSTORE SWAP1 DUP2 PUSH1 0x0 DUP3 ADD DUP1 SLOAD PUSH2 0xB48 SWAP1 PUSH2 0x5120 JUMP JUMPDEST DUP1 PUSH1 0x1F ADD PUSH1 0x20 DUP1 SWAP2 DIV MUL PUSH1 0x20 ADD PUSH1 0x40 MLOAD SWAP1 DUP2 ADD PUSH1 0x40 MSTORE DUP1 SWAP3 SWAP2 SWAP1 DUP2 DUP2 MSTORE PUSH1 0x20 ADD DUP3 DUP1 SLOAD PUSH2 0xB74 SWAP1 PUSH2 0x5120 JUMP JUMPDEST DUP1 ISZERO PUSH2 0xBC1 JUMPI DUP1 PUSH1 0x1F LT PUSH2 0xB96 JUMPI PUSH2 0x100 DUP1 DUP4 SLOAD DIV MUL DUP4 MSTORE SWAP2 PUSH1 0x20 ADD SWAP2 PUSH2 0xBC1 JUMP JUMPDEST DUP3 ADD SWAP2 SWAP1 PUSH1 0x0 MSTORE PUSH1 0x20 PUSH1 0x0 KECCAK256 SWAP1 JUMPDEST DUP2 SLOAD DUP2 MSTORE SWAP1 PUSH1 0x1 ADD SWAP1 PUSH1 0x20 ADD DUP1 DUP4 GT PUSH2 0xBA4 JUMPI DUP3 SWAP1 SUB PUSH1 0x1F AND DUP3 ADD SWAP2 JUMPDEST POP POP POP SWAP2 DUP4 MSTORE POP POP PUSH1 0x1 DUP3 ADD SLOAD PUSH1 0xFF DUP2 AND PUSH1 0x20 DUP1 DUP5 ADD SWAP2 SWAP1 SWAP2 MSTORE PUSH2 0x100 SWAP1 SWAP2 DIV PUSH2 0xFFFF AND PUSH1 0x40 DUP1 DUP5 ADD SWAP2 SWAP1 SWAP2 MSTORE PUSH1 0x2 DUP5 ADD SLOAD PUSH1 0x60 DUP5 ADD MSTORE PUSH1 0x3 DUP5 ADD SLOAD PUSH1 0x80 DUP5 ADD MSTORE PUSH1 0x4 DUP5 ADD DUP1 SLOAD DUP3 MLOAD DUP2 DUP6 MUL DUP2 ADD DUP6 ADD SWAP1 SWAP4 MSTORE DUP1 DUP4 MSTORE PUSH1 0xA0 SWAP1 SWAP5 ADD SWAP4 SWAP2 SWAP3 SWAP1 SWAP2 SWAP1 DUP4 ADD DUP3 DUP3 DUP1 ISZERO PUSH2 0xC5B JUMPI PUSH1 0x20 MUL DUP3 ADD SWAP2 SWAP1 PUSH1 0x0 MSTORE PUSH1 0x20 PUSH1 0x0 KECCAK256 SWAP1 JUMPDEST DUP2 SLOAD PUSH1 0x1 PUSH1 0x1 PUSH1 0xA0 SHL SUB AND DUP2 MSTORE PUSH1 0x1 SWAP1 SWAP2 ADD SWAP1 PUSH1 0x20 ADD DUP1 DUP4 GT PUSH2 0xC3D JUMPI JUMPDEST POP POP POP POP POP DUP2 MSTORE POP POP DUP2 MSTORE PUSH1 0x20 ADD PUSH1 0x5 DUP3 ADD DUP1 SLOAD DUP1 PUSH1 0x20 MUL PUSH1 0x20 ADD PUSH1 0x40 MLOAD SWAP1 DUP2 ADD PUSH1 0x40 MSTORE DUP1 SWAP3 SWAP2 SWAP1 DUP2 DUP2 MSTORE PUSH1 0x20 ADD DUP3 DUP1 SLOAD DUP1 ISZERO PUSH2 0xCC1 JUMPI PUSH1 0x20 MUL DUP3 ADD SWAP2 SWAP1 PUSH1 0x0 MSTORE PUSH1 0x20 PUSH1 0x0 KECCAK256 SWAP1 JUMPDEST DUP2 SLOAD PUSH1 0x1 PUSH1 0x1 PUSH1 0xA0 SHL SUB AND DUP2 MSTORE PUSH1 0x1 SWAP1 SWAP2 ADD SWAP1 PUSH1 0x20 ADD DUP1 DUP4 GT PUSH2 0xCA3 JUMPI JUMPDEST POP POP POP SWAP2 DUP4 MSTORE POP POP PUSH1 0x6 DUP3 ADD SLOAD PUSH1 0xFF AND ISZERO ISZERO PUSH1 0x20 DUP1 DUP4 ADD SWAP2 SWAP1 SWAP2 MSTORE PUSH1 0x7 DUP4 ADD DUP1 SLOAD PUSH1 0x40 DUP1 MLOAD DUP3 DUP6 MUL DUP2 ADD DUP6 ADD DUP3 MSTORE DUP3 DUP2 MSTORE SWAP5 ADD SWAP4 SWAP3 DUP4 ADD DUP3 DUP3 DUP1 ISZERO PUSH2 0xD43 JUMPI PUSH1 0x20 MUL DUP3 ADD SWAP2 SWAP1 PUSH1 0x0 MSTORE PUSH1 0x20 PUSH1 0x0 KECCAK256 SWAP1 PUSH1 0x0 SWAP1 JUMPDEST DUP3 SLOAD PUSH2 0x100 DUP4 SWAP1 EXP SWAP1 DIV PUSH1 0xFF AND DUP2 MSTORE PUSH1 0x20 PUSH1 0x1 SWAP3 DUP4 ADD DUP2 DUP2 DIV SWAP5 DUP6 ADD SWAP5 SWAP1 SWAP4 SUB SWAP1 SWAP3 MUL SWAP2 ADD DUP1 DUP5 GT PUSH2 0xD14 JUMPI SWAP1 POP JUMPDEST POP POP POP POP POP DUP2 MSTORE POP POP SWAP2 POP DUP1 PUSH1 0x40 MLOAD DUP1 PUSH1 0x80 ADD PUSH1 0x40 MSTORE SWAP1 DUP2 PUSH1 0x0 DUP3 ADD PUSH1 0x40 MLOAD DUP1 PUSH1 0xC0 ADD PUSH1 0x40 MSTORE SWAP1 DUP2 PUSH1 0x0 DUP3 ADD DUP1 SLOAD PUSH2 0xD7A SWAP1 PUSH2 0x5120 JUMP JUMPDEST DUP1 PUSH1 0x1F ADD PUSH1 0x20 DUP1 SWAP2 DIV MUL PUSH1 0x20 ADD PUSH1 0x40 MLOAD SWAP1 DUP2 ADD PUSH1 0x40 MSTORE DUP1 SWAP3 SWAP2 SWAP1 DUP2 DUP2 MSTORE PUSH1 0x20 ADD DUP3 DUP1 SLOAD PUSH2 0xDA6 SWAP1 PUSH2 0x5120 JUMP JUMPDEST DUP1 ISZERO PUSH2 0xDF3 JUMPI DUP1 PUSH1 0x1F LT PUSH2 0xDC8 JUMPI PUSH2 0x100 DUP1 DUP4 SLOAD DIV MUL DUP4 MSTORE SWAP2 PUSH1 0x20 ADD SWAP2 PUSH2 0xDF3 JUMP JUMPDEST DUP3 ADD SWAP2 SWAP1 PUSH1 0x0 MSTORE PUSH1 0x20 PUSH1 0x0 KECCAK256 SWAP1 JUMPDEST DUP2 SLOAD DUP2 MSTORE SWAP1 PUSH1 0x1 ADD SWAP1 PUSH1 0x20 ADD DUP1 DUP4 GT PUSH2 0xDD6 JUMPI DUP3 SWAP1 SUB PUSH1 0x1F AND DUP3 ADD SWAP2 JUMPDEST POP POP POP SWAP2 DUP4 MSTORE POP POP PUSH1 0x1 DUP3 ADD SLOAD PUSH1 0xFF DUP2 AND PUSH1 0x20 DUP1 DUP5 ADD SWAP2 SWAP1 SWAP2 MSTORE PUSH2 0x100 SWAP1 SWAP2 DIV PUSH2 0xFFFF AND PUSH1 0x40 DUP1 DUP5 ADD SWAP2 SWAP1 SWAP2 MSTORE PUSH1 0x2 DUP5 ADD SLOAD PUSH1 0x60 DUP5 ADD MSTORE PUSH1 0x3 DUP5 ADD SLOAD PUSH1 0x80 DUP5 ADD MSTORE PUSH1 0x4 DUP5 ADD DUP1 SLOAD DUP3 MLOAD DUP2 DUP6 MUL DUP2 ADD DUP6 ADD SWAP1 SWAP4 MSTORE DUP1 DUP4 MSTORE PUSH1 0xA0 SWAP1 SWAP5 ADD SWAP4 SWAP2 SWAP3 SWAP1 SWAP2 SWAP1 DUP4 ADD DUP3 DUP3 DUP1 ISZERO PUSH2 0xE8D JUMPI PUSH1 0x20 MUL DUP3 ADD SWAP2 SWAP1 PUSH1 0x0 MSTORE PUSH1 0x20 PUSH1 0x0 KECCAK256 SWAP1 JUMPDEST DUP2 SLOAD PUSH1 0x1 PUSH1 0x1 PUSH1 0xA0 SHL SUB AND DUP2 MSTORE PUSH1 0x1 SWAP1 SWAP2 ADD SWAP1 PUSH1 0x20 ADD DUP1 DUP4 GT PUSH2 0xE6F JUMPI JUMPDEST POP POP POP SWAP2 SWAP1 SWAP3 MSTORE POP POP POP DUP2 MSTORE PUSH1 0x5 SWAP2 SWAP1 SWAP2 ADD SLOAD PUSH1 0x1 PUSH1 0x1 PUSH1 0xA0 SHL SUB DUP2 AND PUSH1 0x20 DUP4 ADD MSTORE PUSH1 0xFF PUSH1 0x1 PUSH1 0xA0 SHL DUP3 DIV DUP2 AND PUSH1 0x40 DUP5 ADD MSTORE PUSH1 0x1 PUSH1 0xA8 SHL SWAP1 SWAP2 DIV AND PUSH1 0x60 SWAP1 SWAP2 ADD MSTORE SWAP4 SWAP10 SWAP3 SWAP9 POP SWAP1 SWAP7 POP SWAP2 SWAP5 POP SWAP3 POP POP POP JUMP JUMPDEST PUSH1 0x0 DUP1 PUSH1 0x60 PUSH1 0x0 PUSH2 0xF16 PUSH1 0x7 DUP7 PUSH1 0x4 DUP2 LT PUSH2 0xF0A JUMPI PUSH4 0x4E487B71 PUSH1 0xE0 SHL PUSH1 0x0 MSTORE PUSH1 0x32 PUSH1 0x4 MSTORE PUSH1 0x24 PUSH1 0x0 REVERT JUMPDEST PUSH1 0x7 MUL ADD PUSH1 0x1 ADD PUSH2 0x2FE2 JUMP JUMPDEST PUSH1 0x1 PUSH1 0x1 PUSH1 0x40 SHL SUB DUP2 GT ISZERO PUSH2 0xF3B JUMPI PUSH4 0x4E487B71 PUSH1 0xE0 SHL PUSH1 0x0 MSTORE PUSH1 0x41 PUSH1 0x4 MSTORE PUSH1 0x24 PUSH1 0x0 REVERT JUMPDEST PUSH1 0x40 MLOAD SWAP1 DUP1 DUP3 MSTORE DUP1 PUSH1 0x20 MUL PUSH1 0x20 ADD DUP3 ADD PUSH1 0x40 MSTORE DUP1 ISZERO PUSH2 0xF64 JUMPI DUP2 PUSH1 0x20 ADD PUSH1 0x20 DUP3 MUL DUP1 CALLDATASIZE DUP4 CALLDATACOPY ADD SWAP1 POP JUMPDEST POP SWAP1 POP PUSH1 0x0 JUMPDEST PUSH2 0xF8E PUSH1 0x7 DUP8 PUSH1 0x4 DUP2 LT PUSH2 0xF0A JUMPI PUSH4 0x4E487B71 PUSH1 0xE0 SHL PUSH1 0x0 MSTORE PUSH1 0x32 PUSH1 0x4 MSTORE PUSH1 0x24 PUSH1 0x0 REVERT JUMPDEST DUP2 LT ISZERO PUSH2 0x1019 JUMPI PUSH2 0xFCF DUP2 PUSH1 0x7 DUP9 PUSH1 0x4 DUP2 LT PUSH2 0xFBA JUMPI PUSH4 0x4E487B71 PUSH1 0xE0 SHL PUSH1 0x0 MSTORE PUSH1 0x32 PUSH1 0x4 MSTORE PUSH1 0x24 PUSH1 0x0 REVERT JUMPDEST PUSH1 0x7 MUL ADD PUSH1 0x1 ADD PUSH2 0x2FEC SWAP1 SWAP2 SWAP1 PUSH4 0xFFFFFFFF AND JUMP JUMPDEST DUP3 DUP3 DUP2 MLOAD DUP2 LT PUSH2 0xFEF JUMPI PUSH4 0x4E487B71 PUSH1 0xE0 SHL PUSH1 0x0 MSTORE PUSH1 0x32 PUSH1 0x4 MSTORE PUSH1 0x24 PUSH1 0x0 REVERT JUMPDEST PUSH1 0x1 PUSH1 0x1 PUSH1 0xA0 SHL SUB SWAP1 SWAP3 AND PUSH1 0x20 SWAP3 DUP4 MUL SWAP2 SWAP1 SWAP2 ADD SWAP1 SWAP2 ADD MSTORE DUP1 PUSH2 0x1011 DUP2 PUSH2 0x5177 JUMP JUMPDEST SWAP2 POP POP PUSH2 0xF6A JUMP JUMPDEST POP PUSH1 0x7 DUP6 PUSH1 0x4 DUP2 LT PUSH2 0x103B JUMPI PUSH4 0x4E487B71 PUSH1 0xE0 SHL PUSH1 0x0 MSTORE PUSH1 0x32 PUSH1 0x4 MSTORE PUSH1 0x24 PUSH1 0x0 REVERT JUMPDEST PUSH1 0x7 MUL ADD PUSH1 0x0 ADD SLOAD PUSH1 0x7 DUP7 PUSH1 0x4 DUP2 LT PUSH2 0x1064 JUMPI PUSH4 0x4E487B71 PUSH1 0xE0 SHL PUSH1 0x0 MSTORE PUSH1 0x32 PUSH1 0x4 MSTORE PUSH1 0x24 PUSH1 0x0 REVERT JUMPDEST PUSH1 0x7 MUL ADD PUSH1 0x3 ADD SLOAD SWAP1 SWAP7 PUSH1 0x1 PUSH1 0x1 PUSH1 0xA0 SHL SUB SWAP1 SWAP2 AND SWAP6 POP SWAP1 SWAP4 POP SWAP2 POP POP JUMP JUMPDEST PUSH1 0x1 DUP1 SLOAD PUSH1 0x40 DUP1 MLOAD PUSH1 0x20 DUP1 DUP5 MUL DUP3 ADD DUP2 ADD SWAP1 SWAP3 MSTORE DUP3 DUP2 MSTORE PUSH1 0x60 SWAP4 SWAP1 SWAP3 SWAP1 SWAP2 DUP4 ADD DUP3 DUP3 DUP1 ISZERO PUSH2 0x10D0 JUMPI PUSH1 0x20 MUL DUP3 ADD SWAP2 SWAP1 PUSH1 0x0 MSTORE PUSH1 0x20 PUSH1 0x0 KECCAK256 SWAP1 JUMPDEST DUP2 SLOAD DUP2 MSTORE PUSH1 0x20 ADD SWAP1 PUSH1 0x1 ADD SWAP1 DUP1 DUP4 GT PUSH2 0x10BC JUMPI JUMPDEST POP POP POP POP POP SWAP1 POP SWAP1 JUMP JUMPDEST CALLER PUSH2 0x10E6 PUSH1 0x1 DUP3 PUSH2 0x2E10 JUMP JUMPDEST PUSH2 0x10EF JUMPI PUSH1 0x0 DUP1 REVERT JUMPDEST PUSH1 0x40 DUP1 MLOAD PUSH2 0x140 DUP2 ADD DUP3 MSTORE PUSH1 0x80 DUP2 ADD DUP9 DUP2 MSTORE PUSH1 0xFF DUP9 AND PUSH1 0xA0 DUP4 ADD MSTORE PUSH1 0x0 DUP1 SLOAD PUSH2 0xFFFF AND PUSH1 0xC0 DUP5 ADD DUP2 SWAP1 MSTORE TIMESTAMP PUSH1 0xE0 DUP6 ADD MSTORE PUSH2 0x100 DUP5 ADD DUP3 SWAP1 MSTORE PUSH1 0x60 PUSH2 0x120 DUP6 ADD DUP2 SWAP1 MSTORE SWAP3 DUP5 MSTORE PUSH1 0x20 DUP1 DUP6 ADD DUP11 SWAP1 MSTORE DUP9 ISZERO ISZERO DUP6 DUP8 ADD MSTORE DUP5 DUP5 ADD DUP9 SWAP1 MSTORE SWAP1 DUP3 MSTORE PUSH1 0x5 DUP2 MSTORE SWAP4 SWAP1 KECCAK256 DUP3 MLOAD DUP1 MLOAD DUP1 MLOAD SWAP4 SWAP6 SWAP3 SWAP4 SWAP2 SWAP3 DUP5 SWAP3 PUSH2 0x116E SWAP3 DUP5 SWAP3 ADD SWAP1 PUSH2 0x40C6 JUMP JUMPDEST POP PUSH1 0x20 DUP3 DUP2 ADD MLOAD PUSH1 0x1 DUP4 ADD DUP1 SLOAD PUSH1 0x40 DUP7 ADD MLOAD PUSH2 0xFFFF AND PUSH2 0x100 MUL PUSH3 0xFFFFFF NOT SWAP1 SWAP2 AND PUSH1 0xFF SWAP1 SWAP4 AND SWAP3 SWAP1 SWAP3 OR SWAP2 SWAP1 SWAP2 OR SWAP1 SSTORE PUSH1 0x60 DUP4 ADD MLOAD PUSH1 0x2 DUP4 ADD SSTORE PUSH1 0x80 DUP4 ADD MLOAD PUSH1 0x3 DUP4 ADD SSTORE PUSH1 0xA0 DUP4 ADD MLOAD DUP1 MLOAD PUSH2 0x11CA SWAP3 PUSH1 0x4 DUP6 ADD SWAP3 ADD SWAP1 PUSH2 0x414A JUMP JUMPDEST POP POP POP PUSH1 0x20 DUP3 DUP2 ADD MLOAD DUP1 MLOAD PUSH2 0x11E5 SWAP3 PUSH1 0x5 DUP6 ADD SWAP3 ADD SWAP1 PUSH2 0x414A JUMP JUMPDEST POP PUSH1 0x40 DUP3 ADD MLOAD PUSH1 0x6 DUP3 ADD DUP1 SLOAD PUSH1 0xFF NOT AND SWAP2 ISZERO ISZERO SWAP2 SWAP1 SWAP2 OR SWAP1 SSTORE PUSH1 0x60 DUP3 ADD MLOAD DUP1 MLOAD PUSH2 0x1219 SWAP2 PUSH1 0x7 DUP5 ADD SWAP2 PUSH1 0x20 SWAP1 SWAP2 ADD SWAP1 PUSH2 0x4264 JUMP JUMPDEST POP POP PUSH1 0x0 DUP1 SLOAD PUSH2 0xFFFF AND SWAP2 POP DUP1 PUSH2 0x122F DUP4 PUSH2 0x5155 JUMP JUMPDEST DUP3 SLOAD PUSH2 0x100 SWAP3 SWAP1 SWAP3 EXP PUSH2 0xFFFF DUP2 DUP2 MUL NOT SWAP1 SWAP4 AND SWAP2 DUP4 AND MUL OR SWAP1 SWAP2 SSTORE PUSH1 0x0 SLOAD PUSH2 0x125B SWAP3 POP PUSH1 0x1 SWAP2 AND PUSH2 0x50BA JUMP JUMPDEST PUSH2 0xFFFF AND DUP8 PUSH1 0x40 MLOAD PUSH2 0x126D SWAP2 SWAP1 PUSH2 0x4DBE JUMP JUMPDEST PUSH1 0x40 DUP1 MLOAD SWAP2 DUP3 SWAP1 SUB DUP3 KECCAK256 PUSH1 0xFF DUP11 AND DUP4 MSTORE TIMESTAMP PUSH1 0x20 DUP5 ADD MSTORE SWAP2 PUSH1 0x0 DUP1 MLOAD PUSH1 0x20 PUSH2 0x51BF DUP4 CODECOPY DUP2 MLOAD SWAP2 MSTORE SWAP2 ADD JUMPDEST PUSH1 0x40 MLOAD DUP1 SWAP2 SUB SWAP1 LOG3 POP POP POP POP POP POP POP JUMP JUMPDEST CALLER PUSH2 0x12B3 PUSH1 0x1 DUP3 PUSH2 0x2E10 JUMP JUMPDEST PUSH2 0x12BC JUMPI PUSH1 0x0 DUP1 REVERT JUMPDEST PUSH1 0x40 DUP1 MLOAD PUSH2 0x140 DUP2 ADD DUP3 MSTORE PUSH1 0x80 DUP2 ADD DUP9 DUP2 MSTORE PUSH1 0xFF DUP9 AND PUSH1 0xA0 DUP4 ADD MSTORE PUSH1 0x0 DUP1 SLOAD PUSH2 0xFFFF AND PUSH1 0xC0 DUP5 ADD DUP2 SWAP1 MSTORE TIMESTAMP PUSH1 0xE0 DUP6 ADD MSTORE PUSH2 0x100 DUP5 ADD DUP3 SWAP1 MSTORE PUSH1 0x60 PUSH2 0x120 DUP6 ADD DUP2 SWAP1 MSTORE SWAP3 DUP5 MSTORE PUSH1 0x20 DUP1 DUP6 ADD DUP11 SWAP1 MSTORE DUP5 DUP7 ADD DUP10 SWAP1 MSTORE DUP5 DUP5 ADD DUP9 SWAP1 MSTORE SWAP1 DUP3 MSTORE PUSH1 0x3 DUP2 MSTORE SWAP4 SWAP1 KECCAK256 DUP3 MLOAD DUP1 MLOAD DUP1 MLOAD SWAP4 SWAP6 SWAP3 SWAP4 SWAP2 SWAP3 DUP5 SWAP3 PUSH2 0x133A SWAP3 DUP5 SWAP3 ADD SWAP1 PUSH2 0x40C6 JUMP JUMPDEST POP PUSH1 0x20 DUP3 DUP2 ADD MLOAD PUSH1 0x1 DUP4 ADD DUP1 SLOAD PUSH1 0x40 DUP7 ADD MLOAD PUSH2 0xFFFF AND PUSH2 0x100 MUL PUSH3 0xFFFFFF NOT SWAP1 SWAP2 AND PUSH1 0xFF SWAP1 SWAP4 AND SWAP3 SWAP1 SWAP3 OR SWAP2 SWAP1 SWAP2 OR SWAP1 SSTORE PUSH1 0x60 DUP4 ADD MLOAD PUSH1 0x2 DUP4 ADD SSTORE PUSH1 0x80 DUP4 ADD MLOAD PUSH1 0x3 DUP4 ADD SSTORE PUSH1 0xA0 DUP4 ADD MLOAD DUP1 MLOAD PUSH2 0x1396 SWAP3 PUSH1 0x4 DUP6 ADD SWAP3 ADD SWAP1 PUSH2 0x414A JUMP JUMPDEST POP POP POP PUSH1 0x20 DUP3 DUP2 ADD MLOAD DUP1 MLOAD PUSH2 0x13B1 SWAP3 PUSH1 0x5 DUP6 ADD SWAP3 ADD SWAP1 PUSH2 0x414A JUMP JUMPDEST POP PUSH1 0x40 DUP3 ADD MLOAD DUP1 MLOAD PUSH2 0x13CD SWAP2 PUSH1 0x6 DUP5 ADD SWAP2 PUSH1 0x20 SWAP1 SWAP2 ADD SWAP1 PUSH2 0x4305 JUMP JUMPDEST POP PUSH1 0x60 DUP3 ADD MLOAD DUP1 MLOAD PUSH2 0x1219 SWAP2 PUSH1 0x7 DUP5 ADD SWAP2 PUSH1 0x20 SWAP1 SWAP2 ADD SWAP1 PUSH2 0x435E JUMP JUMPDEST CALLER DUP5 PUSH2 0x1410 DUP3 PUSH1 0x7 DUP4 PUSH1 0x4 DUP2 LT PUSH2 0x64C JUMPI PUSH4 0x4E487B71 PUSH1 0xE0 SHL PUSH1 0x0 MSTORE PUSH1 0x32 PUSH1 0x4 MSTORE PUSH1 0x24 PUSH1 0x0 REVERT JUMPDEST PUSH2 0x1419 JUMPI PUSH1 0x0 DUP1 REVERT JUMPDEST PUSH2 0x1457 DUP6 DUP6 DUP6 PUSH1 0x7 DUP11 PUSH1 0x4 DUP2 LT PUSH2 0x1440 JUMPI PUSH4 0x4E487B71 PUSH1 0xE0 SHL PUSH1 0x0 MSTORE PUSH1 0x32 PUSH1 0x4 MSTORE PUSH1 0x24 PUSH1 0x0 REVERT JUMPDEST PUSH1 0x7 MUL ADD PUSH1 0x4 ADD PUSH2 0x2FF8 SWAP1 SWAP4 SWAP3 SWAP2 SWAP1 PUSH4 0xFFFFFFFF AND JUMP JUMPDEST POP POP POP POP POP POP JUMP JUMPDEST PUSH1 0x0 PUSH2 0x1486 DUP3 PUSH1 0x7 DUP6 PUSH1 0x4 DUP2 LT PUSH2 0x64C JUMPI PUSH4 0x4E487B71 PUSH1 0xE0 SHL PUSH1 0x0 MSTORE PUSH1 0x32 PUSH1 0x4 MSTORE PUSH1 0x24 PUSH1 0x0 REVERT JUMPDEST ISZERO PUSH2 0x1493 JUMPI POP PUSH1 0x1 PUSH2 0x4C5 JUMP JUMPDEST POP PUSH1 0x0 SWAP3 SWAP2 POP POP JUMP JUMPDEST PUSH1 0x0 DUP3 DUP2 MSTORE PUSH1 0x24 PUSH1 0x20 SWAP1 DUP2 MSTORE PUSH1 0x40 DUP1 DUP4 KECCAK256 PUSH2 0xFFFF DUP6 AND DUP5 MSTORE SWAP1 SWAP2 MSTORE SWAP1 KECCAK256 SLOAD PUSH1 0xFF AND ISZERO PUSH2 0x14C7 JUMPI PUSH1 0x0 DUP1 REVERT JUMPDEST PUSH1 0x7 DUP3 PUSH1 0x4 DUP2 LT PUSH2 0x14E8 JUMPI PUSH4 0x4E487B71 PUSH1 0xE0 SHL PUSH1 0x0 MSTORE PUSH1 0x32 PUSH1 0x4 MSTORE PUSH1 0x24 PUSH1 0x0 REVERT JUMPDEST PUSH2 0xFFFF DUP4 DUP2 AND PUSH1 0x0 SWAP1 DUP2 MSTORE PUSH1 0x7 SWAP3 SWAP1 SWAP3 MUL SWAP3 SWAP1 SWAP3 ADD PUSH1 0x5 ADD PUSH1 0x20 MSTORE PUSH1 0x40 SWAP1 KECCAK256 PUSH1 0x1 ADD SLOAD PUSH2 0x100 SWAP1 DIV AND ISZERO DUP1 ISZERO SWAP1 PUSH2 0x158F JUMPI POP PUSH1 0x2 PUSH2 0x1540 PUSH1 0x7 DUP5 PUSH1 0x4 DUP2 LT PUSH2 0xF0A JUMPI PUSH4 0x4E487B71 PUSH1 0xE0 SHL PUSH1 0x0 MSTORE PUSH1 0x32 PUSH1 0x4 MSTORE PUSH1 0x24 PUSH1 0x0 REVERT JUMPDEST PUSH2 0x154A SWAP2 SWAP1 PUSH2 0x506F JUMP JUMPDEST PUSH1 0x7 DUP4 PUSH1 0x4 DUP2 LT PUSH2 0x156B JUMPI PUSH4 0x4E487B71 PUSH1 0xE0 SHL PUSH1 0x0 MSTORE PUSH1 0x32 PUSH1 0x4 MSTORE PUSH1 0x24 PUSH1 0x0 REVERT JUMPDEST PUSH2 0xFFFF DUP5 AND PUSH1 0x0 SWAP1 DUP2 MSTORE PUSH1 0x5 PUSH1 0x7 SWAP3 SWAP1 SWAP3 MUL SWAP3 SWAP1 SWAP3 ADD ADD PUSH1 0x20 MSTORE PUSH1 0x40 SWAP1 KECCAK256 PUSH1 0x3 ADD SLOAD GT JUMPDEST ISZERO PUSH2 0x183F JUMPI PUSH1 0x0 PUSH1 0x7 DUP4 PUSH1 0x4 DUP2 LT PUSH2 0x15B7 JUMPI PUSH4 0x4E487B71 PUSH1 0xE0 SHL PUSH1 0x0 MSTORE PUSH1 0x32 PUSH1 0x4 MSTORE PUSH1 0x24 PUSH1 0x0 REVERT JUMPDEST PUSH2 0xFFFF DUP5 AND PUSH1 0x0 DUP2 DUP2 MSTORE PUSH1 0x5 PUSH1 0x7 SWAP4 SWAP1 SWAP4 MUL SWAP4 SWAP1 SWAP4 ADD SWAP2 SWAP1 SWAP2 ADD PUSH1 0x20 SWAP1 DUP2 MSTORE PUSH1 0x40 DUP1 DUP5 KECCAK256 DUP8 DUP6 MSTORE PUSH1 0x24 DUP4 MSTORE DUP2 DUP6 KECCAK256 SWAP4 DUP6 MSTORE SWAP3 SWAP1 SWAP2 MSTORE DUP3 KECCAK256 DUP1 SLOAD PUSH1 0xFF NOT AND PUSH1 0x1 OR SWAP1 SSTORE SWAP2 POP JUMPDEST PUSH1 0x5 DUP3 ADD SLOAD DUP2 LT ISZERO PUSH2 0x17F5 JUMPI DUP2 PUSH1 0x6 ADD DUP2 DUP2 SLOAD DUP2 LT PUSH2 0x162B JUMPI PUSH4 0x4E487B71 PUSH1 0xE0 SHL PUSH1 0x0 MSTORE PUSH1 0x32 PUSH1 0x4 MSTORE PUSH1 0x24 PUSH1 0x0 REVERT JUMPDEST SWAP1 PUSH1 0x0 MSTORE PUSH1 0x20 PUSH1 0x0 KECCAK256 ADD DUP1 SLOAD PUSH2 0x1640 SWAP1 PUSH2 0x5120 JUMP JUMPDEST ISZERO ISZERO SWAP1 POP PUSH2 0x16BB JUMPI PUSH2 0x16B6 DUP3 PUSH1 0x7 ADD DUP3 DUP2 SLOAD DUP2 LT PUSH2 0x166E JUMPI PUSH4 0x4E487B71 PUSH1 0xE0 SHL PUSH1 0x0 MSTORE PUSH1 0x32 PUSH1 0x4 MSTORE PUSH1 0x24 PUSH1 0x0 REVERT JUMPDEST SWAP1 PUSH1 0x0 MSTORE PUSH1 0x20 PUSH1 0x0 KECCAK256 ADD SLOAD DUP4 PUSH1 0x5 ADD DUP4 DUP2 SLOAD DUP2 LT PUSH2 0x169C JUMPI PUSH4 0x4E487B71 PUSH1 0xE0 SHL PUSH1 0x0 MSTORE PUSH1 0x32 PUSH1 0x4 MSTORE PUSH1 0x24 PUSH1 0x0 REVERT JUMPDEST PUSH1 0x0 SWAP2 DUP3 MSTORE PUSH1 0x20 SWAP1 SWAP2 KECCAK256 ADD SLOAD PUSH1 0x1 PUSH1 0x1 PUSH1 0xA0 SHL SUB AND PUSH2 0x315E JUMP JUMPDEST PUSH2 0x17E3 JUMP JUMPDEST PUSH2 0x17E3 DUP3 PUSH1 0x5 ADD DUP3 DUP2 SLOAD DUP2 LT PUSH2 0x16E1 JUMPI PUSH4 0x4E487B71 PUSH1 0xE0 SHL PUSH1 0x0 MSTORE PUSH1 0x32 PUSH1 0x4 MSTORE PUSH1 0x24 PUSH1 0x0 REVERT JUMPDEST PUSH1 0x0 SWAP2 DUP3 MSTORE PUSH1 0x20 SWAP1 SWAP2 KECCAK256 ADD SLOAD PUSH1 0x6 DUP5 ADD DUP1 SLOAD PUSH1 0x1 PUSH1 0x1 PUSH1 0xA0 SHL SUB SWAP1 SWAP3 AND SWAP2 DUP5 SWAP1 DUP2 LT PUSH2 0x171D JUMPI PUSH4 0x4E487B71 PUSH1 0xE0 SHL PUSH1 0x0 MSTORE PUSH1 0x32 PUSH1 0x4 MSTORE PUSH1 0x24 PUSH1 0x0 REVERT JUMPDEST SWAP1 PUSH1 0x0 MSTORE PUSH1 0x20 PUSH1 0x0 KECCAK256 ADD DUP1 SLOAD PUSH2 0x1732 SWAP1 PUSH2 0x5120 JUMP JUMPDEST DUP1 PUSH1 0x1F ADD PUSH1 0x20 DUP1 SWAP2 DIV MUL PUSH1 0x20 ADD PUSH1 0x40 MLOAD SWAP1 DUP2 ADD PUSH1 0x40 MSTORE DUP1 SWAP3 SWAP2 SWAP1 DUP2 DUP2 MSTORE PUSH1 0x20 ADD DUP3 DUP1 SLOAD PUSH2 0x175E SWAP1 PUSH2 0x5120 JUMP JUMPDEST DUP1 ISZERO PUSH2 0x17AB JUMPI DUP1 PUSH1 0x1F LT PUSH2 0x1780 JUMPI PUSH2 0x100 DUP1 DUP4 SLOAD DIV MUL DUP4 MSTORE SWAP2 PUSH1 0x20 ADD SWAP2 PUSH2 0x17AB JUMP JUMPDEST DUP3 ADD SWAP2 SWAP1 PUSH1 0x0 MSTORE PUSH1 0x20 PUSH1 0x0 KECCAK256 SWAP1 JUMPDEST DUP2 SLOAD DUP2 MSTORE SWAP1 PUSH1 0x1 ADD SWAP1 PUSH1 0x20 ADD DUP1 DUP4 GT PUSH2 0x178E JUMPI DUP3 SWAP1 SUB PUSH1 0x1F AND DUP3 ADD SWAP2 JUMPDEST POP POP POP POP POP DUP5 PUSH1 0x7 ADD DUP5 DUP2 SLOAD DUP2 LT PUSH2 0x17D3 JUMPI PUSH4 0x4E487B71 PUSH1 0xE0 SHL PUSH1 0x0 MSTORE PUSH1 0x32 PUSH1 0x4 MSTORE PUSH1 0x24 PUSH1 0x0 REVERT JUMPDEST SWAP1 PUSH1 0x0 MSTORE PUSH1 0x20 PUSH1 0x0 KECCAK256 ADD SLOAD PUSH2 0x31B9 JUMP JUMPDEST DUP1 PUSH2 0x17ED DUP2 PUSH2 0x5177 JUMP JUMPDEST SWAP2 POP POP PUSH2 0x15FC JUMP JUMPDEST POP PUSH1 0x40 MLOAD PUSH2 0x1804 SWAP1 DUP3 SWAP1 PUSH2 0x4DDA JUMP JUMPDEST PUSH1 0x40 MLOAD SWAP1 DUP2 SWAP1 SUB DUP2 KECCAK256 PUSH1 0x1 DUP4 ADD SLOAD PUSH2 0x100 SWAP1 DIV PUSH2 0xFFFF AND DUP3 MSTORE SWAP1 PUSH1 0x0 DUP1 MLOAD PUSH1 0x20 PUSH2 0x51DF DUP4 CODECOPY DUP2 MLOAD SWAP2 MSTORE SWAP1 PUSH1 0x20 ADD JUMPDEST PUSH1 0x40 MLOAD DUP1 SWAP2 SUB SWAP1 LOG2 POP POP POP JUMP JUMPDEST PUSH1 0x7 DUP3 PUSH1 0x4 DUP2 LT PUSH2 0x1860 JUMPI PUSH4 0x4E487B71 PUSH1 0xE0 SHL PUSH1 0x0 MSTORE PUSH1 0x32 PUSH1 0x4 MSTORE PUSH1 0x24 PUSH1 0x0 REVERT JUMPDEST PUSH2 0xFFFF DUP4 DUP2 AND PUSH1 0x0 SWAP1 DUP2 MSTORE PUSH1 0x7 SWAP3 SWAP1 SWAP3 MUL SWAP3 SWAP1 SWAP3 ADD PUSH1 0x6 ADD PUSH1 0x20 MSTORE PUSH1 0x40 SWAP1 KECCAK256 PUSH1 0x1 ADD SLOAD PUSH2 0x100 SWAP1 DIV AND ISZERO DUP1 ISZERO SWAP1 PUSH2 0x1907 JUMPI POP PUSH1 0x2 PUSH2 0x18B8 PUSH1 0x7 DUP5 PUSH1 0x4 DUP2 LT PUSH2 0xF0A JUMPI PUSH4 0x4E487B71 PUSH1 0xE0 SHL PUSH1 0x0 MSTORE PUSH1 0x32 PUSH1 0x4 MSTORE PUSH1 0x24 PUSH1 0x0 REVERT JUMPDEST PUSH2 0x18C2 SWAP2 SWAP1 PUSH2 0x506F JUMP JUMPDEST PUSH1 0x7 DUP4 PUSH1 0x4 DUP2 LT PUSH2 0x18E3 JUMPI PUSH4 0x4E487B71 PUSH1 0xE0 SHL PUSH1 0x0 MSTORE PUSH1 0x32 PUSH1 0x4 MSTORE PUSH1 0x24 PUSH1 0x0 REVERT JUMPDEST PUSH2 0xFFFF DUP5 AND PUSH1 0x0 SWAP1 DUP2 MSTORE PUSH1 0x6 PUSH1 0x7 SWAP3 SWAP1 SWAP3 MUL SWAP3 SWAP1 SWAP3 ADD ADD PUSH1 0x20 MSTORE PUSH1 0x40 SWAP1 KECCAK256 PUSH1 0x3 ADD SLOAD GT JUMPDEST ISZERO PUSH2 0x1B57 JUMPI PUSH1 0x0 PUSH1 0x7 DUP4 PUSH1 0x4 DUP2 LT PUSH2 0x192F JUMPI PUSH4 0x4E487B71 PUSH1 0xE0 SHL PUSH1 0x0 MSTORE PUSH1 0x32 PUSH1 0x4 MSTORE PUSH1 0x24 PUSH1 0x0 REVERT JUMPDEST PUSH2 0xFFFF DUP5 AND PUSH1 0x0 DUP2 DUP2 MSTORE PUSH1 0x7 SWAP3 DUP4 MUL SWAP4 SWAP1 SWAP4 ADD PUSH1 0x6 ADD PUSH1 0x20 SWAP1 DUP2 MSTORE PUSH1 0x40 DUP1 DUP6 KECCAK256 DUP9 DUP7 MSTORE PUSH1 0x24 DUP4 MSTORE DUP2 DUP7 KECCAK256 SWAP4 DUP7 MSTORE SWAP3 SWAP1 SWAP2 MSTORE DUP4 KECCAK256 DUP1 SLOAD PUSH1 0x1 PUSH1 0xFF NOT SWAP1 SWAP2 AND OR SWAP1 SSTORE SWAP3 POP PUSH2 0x1994 SWAP1 DUP6 PUSH1 0x4 DUP2 LT PUSH2 0xF0A JUMPI PUSH4 0x4E487B71 PUSH1 0xE0 SHL PUSH1 0x0 MSTORE PUSH1 0x32 PUSH1 0x4 MSTORE PUSH1 0x24 PUSH1 0x0 REVERT JUMPDEST PUSH1 0x1 PUSH1 0x1 PUSH1 0x40 SHL SUB DUP2 GT ISZERO PUSH2 0x19B9 JUMPI PUSH4 0x4E487B71 PUSH1 0xE0 SHL PUSH1 0x0 MSTORE PUSH1 0x41 PUSH1 0x4 MSTORE PUSH1 0x24 PUSH1 0x0 REVERT JUMPDEST PUSH1 0x40 MLOAD SWAP1 DUP1 DUP3 MSTORE DUP1 PUSH1 0x20 MUL PUSH1 0x20 ADD DUP3 ADD PUSH1 0x40 MSTORE DUP1 ISZERO PUSH2 0x19E2 JUMPI DUP2 PUSH1 0x20 ADD PUSH1 0x20 DUP3 MUL DUP1 CALLDATASIZE DUP4 CALLDATACOPY ADD SWAP1 POP JUMPDEST POP SWAP1 POP PUSH1 0x0 JUMPDEST PUSH2 0x1A0C PUSH1 0x7 DUP7 PUSH1 0x4 DUP2 LT PUSH2 0xF0A JUMPI PUSH4 0x4E487B71 PUSH1 0xE0 SHL PUSH1 0x0 MSTORE PUSH1 0x32 PUSH1 0x4 MSTORE PUSH1 0x24 PUSH1 0x0 REVERT JUMPDEST DUP2 LT ISZERO PUSH2 0x1A82 JUMPI PUSH2 0x1A38 DUP2 PUSH1 0x7 DUP8 PUSH1 0x4 DUP2 LT PUSH2 0xFBA JUMPI PUSH4 0x4E487B71 PUSH1 0xE0 SHL PUSH1 0x0 MSTORE PUSH1 0x32 PUSH1 0x4 MSTORE PUSH1 0x24 PUSH1 0x0 REVERT JUMPDEST DUP3 DUP3 DUP2 MLOAD DUP2 LT PUSH2 0x1A58 JUMPI PUSH4 0x4E487B71 PUSH1 0xE0 SHL PUSH1 0x0 MSTORE PUSH1 0x32 PUSH1 0x4 MSTORE PUSH1 0x24 PUSH1 0x0 REVERT JUMPDEST PUSH1 0x1 PUSH1 0x1 PUSH1 0xA0 SHL SUB SWAP1 SWAP3 AND PUSH1 0x20 SWAP3 DUP4 MUL SWAP2 SWAP1 SWAP2 ADD SWAP1 SWAP2 ADD MSTORE DUP1 PUSH2 0x1A7A DUP2 PUSH2 0x5177 JUMP JUMPDEST SWAP2 POP POP PUSH2 0x19E8 JUMP JUMPDEST POP PUSH1 0x7 DUP5 PUSH1 0x4 DUP2 LT PUSH2 0x1AA4 JUMPI PUSH4 0x4E487B71 PUSH1 0xE0 SHL PUSH1 0x0 MSTORE PUSH1 0x32 PUSH1 0x4 MSTORE PUSH1 0x24 PUSH1 0x0 REVERT JUMPDEST PUSH1 0x7 MUL ADD PUSH1 0x3 ADD SLOAD PUSH1 0x5 DUP4 ADD SLOAD PUSH1 0x40 MLOAD PUSH4 0x1826C119 PUSH1 0xE0 SHL DUP2 MSTORE PUSH1 0x1 PUSH1 0x1 PUSH1 0xA0 SHL SUB SWAP1 SWAP3 AND SWAP2 PUSH4 0x1826C119 SWAP2 PUSH2 0x1ADF SWAP2 DUP6 SWAP2 SWAP1 PUSH1 0x4 ADD PUSH2 0x4E75 JUMP JUMPDEST PUSH1 0x0 PUSH1 0x40 MLOAD DUP1 DUP4 SUB DUP2 PUSH1 0x0 DUP8 DUP1 EXTCODESIZE ISZERO DUP1 ISZERO PUSH2 0x1AF9 JUMPI PUSH1 0x0 DUP1 REVERT JUMPDEST POP GAS CALL ISZERO DUP1 ISZERO PUSH2 0x1B0D JUMPI RETURNDATASIZE PUSH1 0x0 DUP1 RETURNDATACOPY RETURNDATASIZE PUSH1 0x0 REVERT JUMPDEST POP POP PUSH1 0x40 MLOAD PUSH2 0x1B1F SWAP3 POP DUP5 SWAP2 POP PUSH2 0x4DDA JUMP JUMPDEST PUSH1 0x40 MLOAD SWAP1 DUP2 SWAP1 SUB DUP2 KECCAK256 PUSH1 0x1 DUP5 ADD SLOAD PUSH2 0x100 SWAP1 DIV PUSH2 0xFFFF AND DUP3 MSTORE SWAP1 PUSH1 0x0 DUP1 MLOAD PUSH1 0x20 PUSH2 0x51DF DUP4 CODECOPY DUP2 MLOAD SWAP2 MSTORE SWAP1 PUSH1 0x20 ADD PUSH1 0x40 MLOAD DUP1 SWAP2 SUB SWAP1 LOG2 POP POP JUMPDEST POP POP JUMP JUMPDEST CALLER PUSH2 0x1B67 PUSH1 0x1 DUP3 PUSH2 0x2E10 JUMP JUMPDEST PUSH2 0x1B70 JUMPI PUSH1 0x0 DUP1 REVERT JUMPDEST PUSH1 0x40 DUP1 MLOAD PUSH2 0x140 DUP2 ADD DUP3 MSTORE PUSH1 0x80 DUP2 ADD DUP9 DUP2 MSTORE PUSH1 0xFF DUP1 DUP10 AND PUSH1 0xA0 DUP5 ADD MSTORE PUSH1 0x0 DUP1 SLOAD PUSH2 0xFFFF AND PUSH1 0xC0 DUP6 ADD DUP2 SWAP1 MSTORE TIMESTAMP PUSH1 0xE0 DUP7 ADD MSTORE PUSH2 0x100 DUP6 ADD DUP3 SWAP1 MSTORE PUSH1 0x60 PUSH2 0x120 DUP7 ADD DUP2 SWAP1 MSTORE SWAP4 DUP6 MSTORE PUSH1 0x1 PUSH1 0x1 PUSH1 0xA0 SHL SUB DUP11 AND PUSH1 0x20 DUP1 DUP8 ADD SWAP2 SWAP1 SWAP2 MSTORE DUP10 DUP5 AND DUP7 DUP9 ADD MSTORE SWAP3 DUP9 AND DUP6 DUP6 ADD MSTORE DUP2 MSTORE PUSH1 0x6 DUP3 MSTORE SWAP4 SWAP1 SWAP4 KECCAK256 DUP3 MLOAD DUP1 MLOAD DUP1 MLOAD SWAP4 SWAP6 SWAP3 SWAP4 SWAP2 SWAP3 DUP5 SWAP3 PUSH2 0x1BFC SWAP3 DUP5 SWAP3 ADD SWAP1 PUSH2 0x40C6 JUMP JUMPDEST POP PUSH1 0x20 DUP3 DUP2 ADD MLOAD PUSH1 0x1 DUP4 ADD DUP1 SLOAD PUSH1 0x40 DUP7 ADD MLOAD PUSH2 0xFFFF AND PUSH2 0x100 MUL PUSH3 0xFFFFFF NOT SWAP1 SWAP2 AND PUSH1 0xFF SWAP1 SWAP4 AND SWAP3 SWAP1 SWAP3 OR SWAP2 SWAP1 SWAP2 OR SWAP1 SSTORE PUSH1 0x60 DUP4 ADD MLOAD PUSH1 0x2 DUP4 ADD SSTORE PUSH1 0x80 DUP4 ADD MLOAD PUSH1 0x3 DUP4 ADD SSTORE PUSH1 0xA0 DUP4 ADD MLOAD DUP1 MLOAD PUSH2 0x1C58 SWAP3 PUSH1 0x4 DUP6 ADD SWAP3 ADD SWAP1 PUSH2 0x414A JUMP JUMPDEST POP POP POP PUSH1 0x20 DUP3 ADD MLOAD PUSH1 0x5 SWAP2 SWAP1 SWAP2 ADD DUP1 SLOAD PUSH1 0x40 DUP5 ADD MLOAD PUSH1 0x60 SWAP1 SWAP5 ADD MLOAD PUSH1 0x1 PUSH1 0x1 PUSH1 0xA0 SHL SUB SWAP1 SWAP4 AND PUSH1 0x1 PUSH1 0x1 PUSH1 0xA8 SHL SUB NOT SWAP1 SWAP2 AND OR PUSH1 0x1 PUSH1 0xA0 SHL PUSH1 0xFF SWAP5 DUP6 AND MUL OR PUSH1 0xFF PUSH1 0xA8 SHL NOT AND PUSH1 0x1 PUSH1 0xA8 SHL SWAP4 SWAP1 SWAP3 AND SWAP3 SWAP1 SWAP3 MUL OR SWAP1 SSTORE PUSH1 0x0 DUP1 SLOAD PUSH2 0xFFFF AND SWAP1 DUP1 PUSH2 0x122F DUP4 PUSH2 0x5155 JUMP JUMPDEST CALLER DUP3 PUSH2 0x1CE8 DUP3 PUSH1 0x7 DUP4 PUSH1 0x4 DUP2 LT PUSH2 0x64C JUMPI PUSH4 0x4E487B71 PUSH1 0xE0 SHL PUSH1 0x0 MSTORE PUSH1 0x32 PUSH1 0x4 MSTORE PUSH1 0x24 PUSH1 0x0 REVERT JUMPDEST PUSH2 0x1CF1 JUMPI PUSH1 0x0 DUP1 REVERT JUMPDEST PUSH2 0x1D2B DUP4 PUSH1 0x7 DUP7 PUSH1 0x4 DUP2 LT PUSH2 0x1D16 JUMPI PUSH4 0x4E487B71 PUSH1 0xE0 SHL PUSH1 0x0 MSTORE PUSH1 0x32 PUSH1 0x4 MSTORE PUSH1 0x24 PUSH1 0x0 REVERT JUMPDEST PUSH1 0x7 MUL ADD PUSH1 0x4 ADD PUSH2 0x3200 SWAP1 SWAP2 SWAP1 PUSH4 0xFFFFFFFF AND JUMP JUMPDEST POP POP POP POP POP JUMP JUMPDEST PUSH1 0x40 MLOAD CALLVALUE DUP2 MSTORE CALLER SWAP1 PUSH32 0x66FF7C8F71CCC7C36152A41920D0D3B46EF3034359F76AA1498ED4478C204B5C SWAP1 PUSH1 0x20 ADD PUSH1 0x40 MLOAD DUP1 SWAP2 SUB SWAP1 LOG2 JUMP JUMPDEST PUSH1 0x0 CALLER PUSH2 0x1D77 PUSH1 0x1 DUP3 PUSH2 0x2E10 JUMP JUMPDEST PUSH2 0x1D80 JUMPI PUSH1 0x0 DUP1 REVERT JUMPDEST PUSH2 0xFFFF DUP1 DUP5 AND PUSH1 0x0 SWAP1 DUP2 MSTORE PUSH1 0x3 PUSH1 0x20 MSTORE PUSH1 0x40 SWAP1 KECCAK256 PUSH1 0x1 ADD SLOAD PUSH2 0x100 SWAP1 DIV AND ISZERO DUP1 ISZERO SWAP1 PUSH2 0x1DFB JUMPI POP PUSH2 0xFFFF DUP4 AND PUSH1 0x0 SWAP1 DUP2 MSTORE PUSH1 0x3 PUSH1 0x20 MSTORE PUSH1 0x40 SWAP1 KECCAK256 PUSH1 0x1 ADD SLOAD PUSH2 0x1DCE SWAP1 PUSH1 0xFF AND PUSH3 0x15180 PUSH2 0x508F JUMP JUMPDEST PUSH2 0xFFFF DUP5 AND PUSH1 0x0 SWAP1 DUP2 MSTORE PUSH1 0x3 PUSH1 0x20 MSTORE PUSH1 0x40 SWAP1 KECCAK256 PUSH1 0x2 ADD SLOAD PUSH3 0xFFFFFF SWAP2 SWAP1 SWAP2 AND SWAP1 PUSH2 0x1DF8 SWAP1 TIMESTAMP PUSH2 0x50DD JUMP JUMPDEST LT ISZERO JUMPDEST ISZERO PUSH2 0x1EC3 JUMPI PUSH2 0xFFFF DUP4 AND PUSH1 0x0 DUP2 DUP2 MSTORE PUSH1 0x3 PUSH1 0x20 MSTORE PUSH1 0x40 SWAP1 DUP2 SWAP1 KECCAK256 SWAP1 MLOAD PUSH2 0x1E21 SWAP2 SWAP1 PUSH2 0x4DDA JUMP JUMPDEST PUSH1 0x40 MLOAD SWAP1 DUP2 SWAP1 SUB DUP2 KECCAK256 SWAP1 PUSH1 0x0 DUP1 MLOAD PUSH1 0x20 PUSH2 0x5228 DUP4 CODECOPY DUP2 MLOAD SWAP2 MSTORE SWAP1 PUSH1 0x0 SWAP1 LOG3 PUSH2 0xFFFF DUP4 AND PUSH1 0x0 SWAP1 DUP2 MSTORE PUSH1 0x3 PUSH1 0x20 MSTORE PUSH1 0x40 DUP2 KECCAK256 SWAP1 DUP2 DUP2 PUSH2 0x1E5F DUP3 DUP3 PUSH2 0x4398 JUMP JUMPDEST PUSH1 0x1 DUP3 ADD DUP1 SLOAD PUSH3 0xFFFFFF NOT AND SWAP1 SSTORE PUSH1 0x0 PUSH1 0x2 DUP4 ADD DUP2 SWAP1 SSTORE PUSH1 0x3 DUP4 ADD DUP2 SWAP1 SSTORE PUSH2 0x1E8B SWAP1 PUSH1 0x4 DUP5 ADD SWAP1 PUSH2 0x43D2 JUMP JUMPDEST POP PUSH2 0x1E9C SWAP1 POP PUSH1 0x5 DUP4 ADD PUSH1 0x0 PUSH2 0x43D2 JUMP JUMPDEST PUSH2 0x1EAA PUSH1 0x6 DUP4 ADD PUSH1 0x0 PUSH2 0x43F0 JUMP JUMPDEST PUSH2 0x1EB8 PUSH1 0x7 DUP4 ADD PUSH1 0x0 PUSH2 0x43D2 JUMP JUMPDEST POP POP PUSH1 0x1 SWAP2 POP PUSH2 0x222F JUMP JUMPDEST PUSH2 0xFFFF DUP1 DUP5 AND PUSH1 0x0 SWAP1 DUP2 MSTORE PUSH1 0x4 PUSH1 0x20 MSTORE PUSH1 0x40 SWAP1 KECCAK256 PUSH1 0x1 ADD SLOAD PUSH2 0x100 SWAP1 DIV AND ISZERO DUP1 ISZERO SWAP1 PUSH2 0x1F3E JUMPI POP PUSH2 0xFFFF DUP4 AND PUSH1 0x0 SWAP1 DUP2 MSTORE PUSH1 0x4 PUSH1 0x20 MSTORE PUSH1 0x40 SWAP1 KECCAK256 PUSH1 0x1 ADD SLOAD PUSH2 0x1F11 SWAP1 PUSH1 0xFF AND PUSH3 0x15180 PUSH2 0x508F JUMP JUMPDEST PUSH2 0xFFFF DUP5 AND PUSH1 0x0 SWAP1 DUP2 MSTORE PUSH1 0x4 PUSH1 0x20 MSTORE PUSH1 0x40 SWAP1 KECCAK256 PUSH1 0x2 ADD SLOAD PUSH3 0xFFFFFF SWAP2 SWAP1 SWAP2 AND SWAP1 PUSH2 0x1F3B SWAP1 TIMESTAMP PUSH2 0x50DD JUMP JUMPDEST LT ISZERO JUMPDEST ISZERO PUSH2 0x1FCC JUMPI PUSH2 0xFFFF DUP4 AND PUSH1 0x0 DUP2 DUP2 MSTORE PUSH1 0x3 PUSH1 0x20 MSTORE PUSH1 0x40 SWAP1 DUP2 SWAP1 KECCAK256 SWAP1 MLOAD PUSH2 0x1F64 SWAP2 SWAP1 PUSH2 0x4DDA JUMP JUMPDEST PUSH1 0x40 MLOAD SWAP1 DUP2 SWAP1 SUB DUP2 KECCAK256 SWAP1 PUSH1 0x0 DUP1 MLOAD PUSH1 0x20 PUSH2 0x5228 DUP4 CODECOPY DUP2 MLOAD SWAP2 MSTORE SWAP1 PUSH1 0x0 SWAP1 LOG3 PUSH2 0xFFFF DUP4 AND PUSH1 0x0 SWAP1 DUP2 MSTORE PUSH1 0x4 PUSH1 0x20 MSTORE PUSH1 0x40 DUP2 KECCAK256 SWAP1 PUSH2 0x1FA0 DUP3 DUP3 PUSH2 0x4398 JUMP JUMPDEST PUSH1 0x1 DUP3 ADD DUP1 SLOAD PUSH3 0xFFFFFF NOT AND SWAP1 SSTORE PUSH1 0x0 PUSH1 0x2 DUP4 ADD DUP2 SWAP1 SSTORE PUSH1 0x3 DUP4 ADD DUP2 SWAP1 SSTORE PUSH2 0x1EB8 SWAP1 PUSH1 0x4 DUP5 ADD SWAP1 PUSH2 0x43D2 JUMP JUMPDEST PUSH2 0xFFFF DUP1 DUP5 AND PUSH1 0x0 SWAP1 DUP2 MSTORE PUSH1 0x5 PUSH1 0x20 MSTORE PUSH1 0x40 SWAP1 KECCAK256 PUSH1 0x1 ADD SLOAD PUSH2 0x100 SWAP1 DIV AND ISZERO DUP1 ISZERO SWAP1 PUSH2 0x2047 JUMPI POP PUSH2 0xFFFF DUP4 AND PUSH1 0x0 SWAP1 DUP2 MSTORE PUSH1 0x5 PUSH1 0x20 MSTORE PUSH1 0x40 SWAP1 KECCAK256 PUSH1 0x1 ADD SLOAD PUSH2 0x201A SWAP1 PUSH1 0xFF AND PUSH3 0x15180 PUSH2 0x508F JUMP JUMPDEST PUSH2 0xFFFF DUP5 AND PUSH1 0x0 SWAP1 DUP2 MSTORE PUSH1 0x5 PUSH1 0x20 MSTORE PUSH1 0x40 SWAP1 KECCAK256 PUSH1 0x2 ADD SLOAD PUSH3 0xFFFFFF SWAP2 SWAP1 SWAP2 AND SWAP1 PUSH2 0x2044 SWAP1 TIMESTAMP PUSH2 0x50DD JUMP JUMPDEST LT ISZERO JUMPDEST ISZERO PUSH2 0x2102 JUMPI PUSH2 0xFFFF DUP4 AND PUSH1 0x0 DUP2 DUP2 MSTORE PUSH1 0x3 PUSH1 0x20 MSTORE PUSH1 0x40 SWAP1 DUP2 SWAP1 KECCAK256 SWAP1 MLOAD PUSH2 0x206D SWAP2 SWAP1 PUSH2 0x4DDA JUMP JUMPDEST PUSH1 0x40 MLOAD SWAP1 DUP2 SWAP1 SUB DUP2 KECCAK256 SWAP1 PUSH1 0x0 DUP1 MLOAD PUSH1 0x20 PUSH2 0x5228 DUP4 CODECOPY DUP2 MLOAD SWAP2 MSTORE SWAP1 PUSH1 0x0 SWAP1 LOG3 PUSH2 0xFFFF DUP4 AND PUSH1 0x0 SWAP1 DUP2 MSTORE PUSH1 0x5 PUSH1 0x20 MSTORE PUSH1 0x40 DUP2 KECCAK256 SWAP1 DUP2 DUP2 PUSH2 0x20AB DUP3 DUP3 PUSH2 0x4398 JUMP JUMPDEST PUSH1 0x1 DUP3 ADD DUP1 SLOAD PUSH3 0xFFFFFF NOT AND SWAP1 SSTORE PUSH1 0x0 PUSH1 0x2 DUP4 ADD DUP2 SWAP1 SSTORE PUSH1 0x3 DUP4 ADD DUP2 SWAP1 SSTORE PUSH2 0x20D7 SWAP1 PUSH1 0x4 DUP5 ADD SWAP1 PUSH2 0x43D2 JUMP JUMPDEST POP PUSH2 0x20E8 SWAP1 POP PUSH1 0x5 DUP4 ADD PUSH1 0x0 PUSH2 0x43D2 JUMP JUMPDEST PUSH1 0x6 DUP3 ADD DUP1 SLOAD PUSH1 0xFF NOT AND SWAP1 SSTORE PUSH2 0x1EB8 PUSH1 0x7 DUP4 ADD PUSH1 0x0 PUSH2 0x440E JUMP JUMPDEST PUSH2 0xFFFF DUP1 DUP5 AND PUSH1 0x0 SWAP1 DUP2 MSTORE PUSH1 0x6 PUSH1 0x20 MSTORE PUSH1 0x40 SWAP1 KECCAK256 PUSH1 0x1 ADD SLOAD PUSH2 0x100 SWAP1 DIV AND ISZERO DUP1 ISZERO SWAP1 PUSH2 0x217D JUMPI POP PUSH2 0xFFFF DUP4 AND PUSH1 0x0 SWAP1 DUP2 MSTORE PUSH1 0x6 PUSH1 0x20 MSTORE PUSH1 0x40 SWAP1 KECCAK256 PUSH1 0x1 ADD SLOAD PUSH2 0x2150 SWAP1 PUSH1 0xFF AND PUSH3 0x15180 PUSH2 0x508F JUMP JUMPDEST PUSH2 0xFFFF DUP5 AND PUSH1 0x0 SWAP1 DUP2 MSTORE PUSH1 0x6 PUSH1 0x20 MSTORE PUSH1 0x40 SWAP1 KECCAK256 PUSH1 0x2 ADD SLOAD PUSH3 0xFFFFFF SWAP2 SWAP1 SWAP2 AND SWAP1 PUSH2 0x217A SWAP1 TIMESTAMP PUSH2 0x50DD JUMP JUMPDEST LT ISZERO JUMPDEST ISZERO PUSH2 0x222A JUMPI PUSH2 0xFFFF DUP4 AND PUSH1 0x0 DUP2 DUP2 MSTORE PUSH1 0x3 PUSH1 0x20 MSTORE PUSH1 0x40 SWAP1 DUP2 SWAP1 KECCAK256 SWAP1 MLOAD PUSH2 0x21A3 SWAP2 SWAP1 PUSH2 0x4DDA JUMP JUMPDEST PUSH1 0x40 MLOAD SWAP1 DUP2 SWAP1 SUB DUP2 KECCAK256 SWAP1 PUSH1 0x0 DUP1 MLOAD PUSH1 0x20 PUSH2 0x5228 DUP4 CODECOPY DUP2 MLOAD SWAP2 MSTORE SWAP1 PUSH1 0x0 SWAP1 LOG3 PUSH2 0xFFFF DUP4 AND PUSH1 0x0 SWAP1 DUP2 MSTORE PUSH1 0x6 PUSH1 0x20 MSTORE PUSH1 0x40 DUP2 KECCAK256 SWAP1 DUP2 DUP2 PUSH2 0x21E1 DUP3 DUP3 PUSH2 0x4398 JUMP JUMPDEST PUSH1 0x1 DUP3 ADD DUP1 SLOAD PUSH3 0xFFFFFF NOT AND SWAP1 SSTORE PUSH1 0x0 PUSH1 0x2 DUP4 ADD DUP2 SWAP1 SSTORE PUSH1 0x3 DUP4 ADD DUP2 SWAP1 SSTORE PUSH2 0x220D SWAP1 PUSH1 0x4 DUP5 ADD SWAP1 PUSH2 0x43D2 JUMP JUMPDEST POP POP POP PUSH1 0x5 ADD DUP1 SLOAD PUSH1 0x1 PUSH1 0x1 PUSH1 0xB0 SHL SUB NOT AND SWAP1 SSTORE PUSH1 0x1 SWAP2 POP PUSH2 0x222F JUMP JUMPDEST PUSH1 0x0 SWAP2 POP JUMPDEST POP SWAP2 SWAP1 POP JUMP JUMPDEST CALLER PUSH2 0x2241 PUSH1 0x1 DUP3 PUSH2 0x2E10 JUMP JUMPDEST PUSH2 0x224A JUMPI PUSH1 0x0 DUP1 REVERT JUMPDEST PUSH2 0xFFFF DUP1 DUP4 AND PUSH1 0x0 SWAP1 DUP2 MSTORE PUSH1 0x3 PUSH1 0x20 MSTORE PUSH1 0x40 SWAP1 KECCAK256 PUSH1 0x1 ADD SLOAD CALLER SWAP2 PUSH2 0x100 SWAP1 SWAP2 DIV AND ISZERO PUSH2 0x239F JUMPI PUSH2 0xFFFF DUP4 AND PUSH1 0x0 SWAP1 DUP2 MSTORE PUSH1 0x3 PUSH1 0x20 SWAP1 DUP2 MSTORE PUSH1 0x40 SWAP2 DUP3 SWAP1 KECCAK256 PUSH1 0x4 ADD DUP1 SLOAD DUP4 MLOAD DUP2 DUP5 MUL DUP2 ADD DUP5 ADD SWAP1 SWAP5 MSTORE DUP1 DUP5 MSTORE PUSH2 0x22E4 SWAP4 SWAP3 DUP4 ADD DUP3 DUP3 DUP1 ISZERO PUSH2 0x22D9 JUMPI PUSH1 0x20 MUL DUP3 ADD SWAP2 SWAP1 PUSH1 0x0 MSTORE PUSH1 0x20 PUSH1 0x0 KECCAK256 SWAP1 JUMPDEST DUP2 SLOAD PUSH1 0x1 PUSH1 0x1 PUSH1 0xA0 SHL SUB AND DUP2 MSTORE PUSH1 0x1 SWAP1 SWAP2 ADD SWAP1 PUSH1 0x20 ADD DUP1 DUP4 GT PUSH2 0x22BB JUMPI JUMPDEST POP POP POP POP POP DUP3 PUSH2 0x3479 JUMP JUMPDEST ISZERO PUSH2 0x239A JUMPI PUSH2 0xFFFF DUP4 AND PUSH1 0x0 SWAP1 DUP2 MSTORE PUSH1 0x3 PUSH1 0x20 DUP2 SWAP1 MSTORE PUSH1 0x40 DUP3 KECCAK256 ADD DUP1 SLOAD SWAP2 PUSH2 0x230B DUP4 PUSH2 0x5177 JUMP JUMPDEST SWAP1 SWAP2 SSTORE POP POP PUSH2 0xFFFF DUP4 AND PUSH1 0x0 DUP2 DUP2 MSTORE PUSH1 0x3 PUSH1 0x20 SWAP1 DUP2 MSTORE PUSH1 0x40 DUP1 DUP4 KECCAK256 PUSH1 0x4 DUP2 ADD DUP1 SLOAD PUSH1 0x1 DUP2 ADD DUP3 SSTORE SWAP1 DUP6 MSTORE SWAP3 DUP5 KECCAK256 SWAP1 SWAP3 ADD DUP1 SLOAD PUSH1 0x1 PUSH1 0x1 PUSH1 0xA0 SHL SUB NOT AND PUSH1 0x1 PUSH1 0x1 PUSH1 0xA0 SHL SUB DUP8 AND SWAP1 DUP2 OR SWAP1 SWAP2 SSTORE SWAP3 DUP5 SWAP1 MSTORE MLOAD SWAP2 SWAP3 SWAP2 PUSH2 0x2369 SWAP2 SWAP1 PUSH2 0x4DDA JUMP JUMPDEST PUSH1 0x40 MLOAD SWAP1 DUP2 SWAP1 SUB DUP2 KECCAK256 SWAP1 PUSH32 0x96AFF3DB4FF7DBE7DD5D88FADBCC5C5F7FE5EB97CD711500D046A737B9C08CF9 SWAP1 PUSH1 0x0 SWAP1 LOG4 JUMPDEST POP POP POP JUMP JUMPDEST PUSH2 0xFFFF DUP1 DUP5 AND PUSH1 0x0 SWAP1 DUP2 MSTORE PUSH1 0x4 PUSH1 0x20 MSTORE PUSH1 0x40 SWAP1 KECCAK256 PUSH1 0x1 ADD SLOAD PUSH2 0x100 SWAP1 DIV AND ISZERO PUSH2 0x24BF JUMPI PUSH2 0xFFFF DUP4 AND PUSH1 0x0 SWAP1 DUP2 MSTORE PUSH1 0x4 PUSH1 0x20 DUP2 DUP2 MSTORE PUSH1 0x40 SWAP3 DUP4 SWAP1 KECCAK256 SWAP1 SWAP2 ADD DUP1 SLOAD DUP4 MLOAD DUP2 DUP5 MUL DUP2 ADD DUP5 ADD SWAP1 SWAP5 MSTORE DUP1 DUP5 MSTORE PUSH2 0x2434 SWAP4 SWAP3 DUP4 ADD DUP3 DUP3 DUP1 ISZERO PUSH2 0x22D9 JUMPI PUSH1 0x20 MUL DUP3 ADD SWAP2 SWAP1 PUSH1 0x0 MSTORE PUSH1 0x20 PUSH1 0x0 KECCAK256 SWAP1 DUP2 SLOAD PUSH1 0x1 PUSH1 0x1 PUSH1 0xA0 SHL SUB AND DUP2 MSTORE PUSH1 0x1 SWAP1 SWAP2 ADD SWAP1 PUSH1 0x20 ADD DUP1 DUP4 GT PUSH2 0x22BB JUMPI POP POP POP POP POP DUP3 PUSH2 0x3479 JUMP JUMPDEST ISZERO PUSH2 0x239A JUMPI PUSH2 0xFFFF DUP4 AND PUSH1 0x0 SWAP1 DUP2 MSTORE PUSH1 0x4 PUSH1 0x20 MSTORE PUSH1 0x40 DUP2 KECCAK256 PUSH1 0x3 ADD DUP1 SLOAD SWAP2 PUSH2 0x245B DUP4 PUSH2 0x5177 JUMP JUMPDEST SWAP1 SWAP2 SSTORE POP POP PUSH2 0xFFFF DUP4 AND PUSH1 0x0 DUP2 DUP2 MSTORE PUSH1 0x4 PUSH1 0x20 DUP2 DUP2 MSTORE PUSH1 0x40 DUP1 DUP5 KECCAK256 SWAP1 SWAP3 ADD DUP1 SLOAD PUSH1 0x1 DUP2 ADD DUP3 SSTORE SWAP1 DUP5 MSTORE DUP2 DUP5 KECCAK256 ADD DUP1 SLOAD PUSH1 0x1 PUSH1 0x1 PUSH1 0xA0 SHL SUB NOT AND PUSH1 0x1 PUSH1 0x1 PUSH1 0xA0 SHL SUB DUP8 AND SWAP1 DUP2 OR SWAP1 SWAP2 SSTORE DUP5 DUP5 MSTORE PUSH1 0x3 SWAP1 SWAP2 MSTORE SWAP2 DUP2 SWAP1 KECCAK256 SWAP1 MLOAD SWAP2 SWAP3 SWAP2 PUSH2 0x2369 SWAP2 SWAP1 PUSH2 0x4DDA JUMP JUMPDEST PUSH2 0xFFFF DUP1 DUP5 AND PUSH1 0x0 SWAP1 DUP2 MSTORE PUSH1 0x5 PUSH1 0x20 MSTORE PUSH1 0x40 SWAP1 KECCAK256 PUSH1 0x1 ADD SLOAD PUSH2 0x100 SWAP1 DIV AND ISZERO PUSH2 0x25DE JUMPI PUSH2 0xFFFF DUP4 AND PUSH1 0x0 SWAP1 DUP2 MSTORE PUSH1 0x5 PUSH1 0x20 SWAP1 DUP2 MSTORE PUSH1 0x40 SWAP2 DUP3 SWAP1 KECCAK256 PUSH1 0x4 ADD DUP1 SLOAD DUP4 MLOAD DUP2 DUP5 MUL DUP2 ADD DUP5 ADD SWAP1 SWAP5 MSTORE DUP1 DUP5 MSTORE PUSH2 0x2554 SWAP4 SWAP3 DUP4 ADD DUP3 DUP3 DUP1 ISZERO PUSH2 0x22D9 JUMPI PUSH1 0x20 MUL DUP3 ADD SWAP2 SWAP1 PUSH1 0x0 MSTORE PUSH1 0x20 PUSH1 0x0 KECCAK256 SWAP1 DUP2 SLOAD PUSH1 0x1 PUSH1 0x1 PUSH1 0xA0 SHL SUB AND DUP2 MSTORE PUSH1 0x1 SWAP1 SWAP2 ADD SWAP1 PUSH1 0x20 ADD DUP1 DUP4 GT PUSH2 0x22BB JUMPI POP POP POP POP POP DUP3 PUSH2 0x3479 JUMP JUMPDEST ISZERO PUSH2 0x239A JUMPI PUSH2 0xFFFF DUP4 AND PUSH1 0x0 SWAP1 DUP2 MSTORE PUSH1 0x5 PUSH1 0x20 MSTORE PUSH1 0x40 DUP2 KECCAK256 PUSH1 0x3 ADD DUP1 SLOAD SWAP2 PUSH2 0x257B DUP4 PUSH2 0x5177 JUMP JUMPDEST SWAP1 SWAP2 SSTORE POP POP PUSH2 0xFFFF DUP4 AND PUSH1 0x0 DUP2 DUP2 MSTORE PUSH1 0x5 PUSH1 0x20 SWAP1 DUP2 MSTORE PUSH1 0x40 DUP1 DUP4 KECCAK256 PUSH1 0x4 ADD DUP1 SLOAD PUSH1 0x1 DUP2 ADD DUP3 SSTORE SWAP1 DUP5 MSTORE DUP3 DUP5 KECCAK256 ADD DUP1 SLOAD PUSH1 0x1 PUSH1 0x1 PUSH1 0xA0 SHL SUB NOT AND PUSH1 0x1 PUSH1 0x1 PUSH1 0xA0 SHL SUB DUP8 AND SWAP1 DUP2 OR SWAP1 SWAP2 SSTORE DUP5 DUP5 MSTORE PUSH1 0x3 SWAP1 SWAP3 MSTORE SWAP2 DUP3 SWAP1 KECCAK256 SWAP2 MLOAD SWAP1 SWAP3 SWAP2 PUSH2 0x2369 SWAP2 PUSH2 0x4DDA JUMP JUMPDEST PUSH2 0xFFFF DUP1 DUP5 AND PUSH1 0x0 SWAP1 DUP2 MSTORE PUSH1 0x6 PUSH1 0x20 MSTORE PUSH1 0x40 SWAP1 KECCAK256 PUSH1 0x1 ADD SLOAD PUSH2 0x100 SWAP1 DIV AND ISZERO PUSH2 0x239A JUMPI PUSH2 0xFFFF DUP4 AND PUSH1 0x0 SWAP1 DUP2 MSTORE PUSH1 0x6 PUSH1 0x20 SWAP1 DUP2 MSTORE PUSH1 0x40 SWAP2 DUP3 SWAP1 KECCAK256 PUSH1 0x4 ADD DUP1 SLOAD DUP4 MLOAD DUP2 DUP5 MUL DUP2 ADD DUP5 ADD SWAP1 SWAP5 MSTORE DUP1 DUP5 MSTORE PUSH2 0x2673 SWAP4 SWAP3 DUP4 ADD DUP3 DUP3 DUP1 ISZERO PUSH2 0x22D9 JUMPI PUSH1 0x20 MUL DUP3 ADD SWAP2 SWAP1 PUSH1 0x0 MSTORE PUSH1 0x20 PUSH1 0x0 KECCAK256 SWAP1 DUP2 SLOAD PUSH1 0x1 PUSH1 0x1 PUSH1 0xA0 SHL SUB AND DUP2 MSTORE PUSH1 0x1 SWAP1 SWAP2 ADD SWAP1 PUSH1 0x20 ADD DUP1 DUP4 GT PUSH2 0x22BB JUMPI POP POP POP POP POP DUP3 PUSH2 0x3479 JUMP JUMPDEST ISZERO PUSH2 0x239A JUMPI PUSH2 0xFFFF DUP4 AND PUSH1 0x0 SWAP1 DUP2 MSTORE PUSH1 0x6 PUSH1 0x20 MSTORE PUSH1 0x40 DUP2 KECCAK256 PUSH1 0x3 ADD DUP1 SLOAD SWAP2 PUSH2 0x269A DUP4 PUSH2 0x5177 JUMP JUMPDEST SWAP1 SWAP2 SSTORE POP POP PUSH2 0xFFFF DUP4 AND PUSH1 0x0 DUP2 DUP2 MSTORE PUSH1 0x6 PUSH1 0x20 SWAP1 DUP2 MSTORE PUSH1 0x40 DUP1 DUP4 KECCAK256 PUSH1 0x4 ADD DUP1 SLOAD PUSH1 0x1 DUP2 ADD DUP3 SSTORE SWAP1 DUP5 MSTORE DUP3 DUP5 KECCAK256 ADD DUP1 SLOAD PUSH1 0x1 PUSH1 0x1 PUSH1 0xA0 SHL SUB NOT AND PUSH1 0x1 PUSH1 0x1 PUSH1 0xA0 SHL SUB DUP8 AND SWAP1 DUP2 OR SWAP1 SWAP2 SSTORE DUP5 DUP5 MSTORE PUSH1 0x3 SWAP1 SWAP3 MSTORE SWAP2 DUP3 SWAP1 KECCAK256 SWAP2 MLOAD SWAP1 SWAP3 SWAP2 PUSH2 0x2369 SWAP2 PUSH2 0x4DDA JUMP JUMPDEST PUSH2 0xFFFF DUP2 AND PUSH1 0x0 SWAP1 DUP2 MSTORE PUSH1 0x23 PUSH1 0x20 MSTORE PUSH1 0x40 SWAP1 KECCAK256 SLOAD PUSH1 0xFF AND ISZERO PUSH2 0x271E JUMPI PUSH1 0x0 DUP1 REVERT JUMPDEST PUSH2 0xFFFF DUP1 DUP3 AND PUSH1 0x0 SWAP1 DUP2 MSTORE PUSH1 0x3 PUSH1 0x20 MSTORE PUSH1 0x40 SWAP1 KECCAK256 PUSH1 0x1 ADD SLOAD PUSH2 0x100 SWAP1 DIV AND ISZERO DUP1 ISZERO SWAP1 PUSH2 0x2775 JUMPI POP PUSH1 0x2 PUSH2 0x2751 PUSH1 0x1 PUSH2 0x2FE2 JUMP JUMPDEST PUSH2 0x275B SWAP2 SWAP1 PUSH2 0x506F JUMP JUMPDEST PUSH2 0xFFFF DUP3 AND PUSH1 0x0 SWAP1 DUP2 MSTORE PUSH1 0x3 PUSH1 0x20 DUP2 SWAP1 MSTORE PUSH1 0x40 SWAP1 SWAP2 KECCAK256 ADD SLOAD GT JUMPDEST ISZERO PUSH2 0x289B JUMPI PUSH2 0xFFFF DUP2 AND PUSH1 0x0 SWAP1 DUP2 MSTORE PUSH1 0x3 PUSH1 0x20 SWAP1 DUP2 MSTORE PUSH1 0x40 DUP1 DUP4 KECCAK256 PUSH1 0x23 SWAP1 SWAP3 MSTORE DUP3 KECCAK256 DUP1 SLOAD PUSH1 0xFF NOT AND PUSH1 0x1 OR SWAP1 SSTORE SWAP1 JUMPDEST PUSH1 0x5 DUP3 ADD SLOAD DUP2 LT ISZERO PUSH2 0x2853 JUMPI DUP2 PUSH1 0x6 ADD DUP2 DUP2 SLOAD DUP2 LT PUSH2 0x27D3 JUMPI PUSH4 0x4E487B71 PUSH1 0xE0 SHL PUSH1 0x0 MSTORE PUSH1 0x32 PUSH1 0x4 MSTORE PUSH1 0x24 PUSH1 0x0 REVERT JUMPDEST SWAP1 PUSH1 0x0 MSTORE PUSH1 0x20 PUSH1 0x0 KECCAK256 ADD DUP1 SLOAD PUSH2 0x27E8 SWAP1 PUSH2 0x5120 JUMP JUMPDEST ISZERO ISZERO SWAP1 POP PUSH2 0x281B JUMPI PUSH2 0x2816 DUP3 PUSH1 0x7 ADD DUP3 DUP2 SLOAD DUP2 LT PUSH2 0x166E JUMPI PUSH4 0x4E487B71 PUSH1 0xE0 SHL PUSH1 0x0 MSTORE PUSH1 0x32 PUSH1 0x4 MSTORE PUSH1 0x24 PUSH1 0x0 REVERT JUMPDEST PUSH2 0x2841 JUMP JUMPDEST PUSH2 0x2841 DUP3 PUSH1 0x5 ADD DUP3 DUP2 SLOAD DUP2 LT PUSH2 0x16E1 JUMPI PUSH4 0x4E487B71 PUSH1 0xE0 SHL PUSH1 0x0 MSTORE PUSH1 0x32 PUSH1 0x4 MSTORE PUSH1 0x24 PUSH1 0x0 REVERT JUMPDEST DUP1 PUSH2 0x284B DUP2 PUSH2 0x5177 JUMP JUMPDEST SWAP2 POP POP PUSH2 0x27A4 JUMP JUMPDEST POP PUSH1 0x40 MLOAD PUSH2 0x2862 SWAP1 DUP3 SWAP1 PUSH2 0x4DDA JUMP JUMPDEST PUSH1 0x40 MLOAD SWAP1 DUP2 SWAP1 SUB DUP2 KECCAK256 PUSH1 0x1 DUP4 ADD SLOAD PUSH2 0x100 SWAP1 DIV PUSH2 0xFFFF AND DUP3 MSTORE SWAP1 PUSH1 0x0 DUP1 MLOAD PUSH1 0x20 PUSH2 0x51DF DUP4 CODECOPY DUP2 MLOAD SWAP2 MSTORE SWAP1 PUSH1 0x20 ADD PUSH1 0x40 MLOAD DUP1 SWAP2 SUB SWAP1 LOG2 POP POP JUMP JUMPDEST PUSH2 0xFFFF DUP1 DUP3 AND PUSH1 0x0 SWAP1 DUP2 MSTORE PUSH1 0x5 PUSH1 0x20 MSTORE PUSH1 0x40 SWAP1 KECCAK256 PUSH1 0x1 ADD SLOAD PUSH2 0x100 SWAP1 DIV AND ISZERO DUP1 ISZERO SWAP1 PUSH2 0x28F1 JUMPI POP PUSH1 0x2 PUSH2 0x28CE PUSH1 0x1 PUSH2 0x2FE2 JUMP JUMPDEST PUSH2 0x28D8 SWAP2 SWAP1 PUSH2 0x506F JUMP JUMPDEST PUSH2 0xFFFF DUP3 AND PUSH1 0x0 SWAP1 DUP2 MSTORE PUSH1 0x5 PUSH1 0x20 MSTORE PUSH1 0x40 SWAP1 KECCAK256 PUSH1 0x3 ADD SLOAD GT JUMPDEST ISZERO PUSH2 0x2B78 JUMPI PUSH2 0xFFFF DUP2 AND PUSH1 0x0 SWAP1 DUP2 MSTORE PUSH1 0x5 PUSH1 0x20 SWAP1 DUP2 MSTORE PUSH1 0x40 DUP1 DUP4 KECCAK256 PUSH1 0x23 SWAP1 SWAP3 MSTORE SWAP1 SWAP2 KECCAK256 DUP1 SLOAD PUSH1 0xFF NOT AND PUSH1 0x1 OR SWAP1 SSTORE PUSH1 0x6 DUP2 ADD SLOAD PUSH1 0xFF AND ISZERO PUSH2 0x2A4E JUMPI PUSH1 0x0 JUMPDEST PUSH1 0x5 DUP3 ADD SLOAD DUP2 LT ISZERO PUSH2 0x2A48 JUMPI PUSH2 0x297E DUP3 PUSH1 0x5 ADD DUP3 DUP2 SLOAD DUP2 LT PUSH2 0x2961 JUMPI PUSH4 0x4E487B71 PUSH1 0xE0 SHL PUSH1 0x0 MSTORE PUSH1 0x32 PUSH1 0x4 MSTORE PUSH1 0x24 PUSH1 0x0 REVERT JUMPDEST PUSH1 0x0 SWAP2 DUP3 MSTORE PUSH1 0x20 SWAP1 SWAP2 KECCAK256 ADD SLOAD PUSH1 0x1 SWAP1 PUSH1 0x1 PUSH1 0x1 PUSH1 0xA0 SHL SUB AND PUSH2 0x2DF4 JUMP JUMPDEST POP PUSH2 0x2A35 DUP3 PUSH1 0x5 ADD DUP3 DUP2 SLOAD DUP2 LT PUSH2 0x29A5 JUMPI PUSH4 0x4E487B71 PUSH1 0xE0 SHL PUSH1 0x0 MSTORE PUSH1 0x32 PUSH1 0x4 MSTORE PUSH1 0x24 PUSH1 0x0 REVERT JUMPDEST PUSH1 0x0 SWAP2 DUP3 MSTORE PUSH1 0x20 SWAP1 SWAP2 KECCAK256 ADD SLOAD PUSH1 0x7 DUP5 DUP2 ADD DUP1 SLOAD PUSH1 0x1 PUSH1 0x1 PUSH1 0xA0 SHL SUB SWAP1 SWAP4 AND SWAP3 DUP6 SWAP1 DUP2 LT PUSH2 0x29E2 JUMPI PUSH4 0x4E487B71 PUSH1 0xE0 SHL PUSH1 0x0 MSTORE PUSH1 0x32 PUSH1 0x4 MSTORE PUSH1 0x24 PUSH1 0x0 REVERT JUMPDEST PUSH1 0x0 SWAP2 DUP3 MSTORE PUSH1 0x20 SWAP2 DUP3 SWAP1 KECCAK256 SWAP2 DUP2 DIV SWAP1 SWAP2 ADD SLOAD PUSH1 0xFF PUSH1 0x1F SWAP1 SWAP3 AND PUSH2 0x100 EXP SWAP1 DIV AND PUSH1 0x4 DUP2 LT PUSH2 0x2A20 JUMPI PUSH4 0x4E487B71 PUSH1 0xE0 SHL PUSH1 0x0 MSTORE PUSH1 0x32 PUSH1 0x4 MSTORE PUSH1 0x24 PUSH1 0x0 REVERT JUMPDEST PUSH1 0x7 MUL ADD PUSH1 0x1 ADD PUSH2 0x2DF4 SWAP1 SWAP2 SWAP1 PUSH4 0xFFFFFFFF AND JUMP JUMPDEST POP DUP1 PUSH2 0x2A40 DUP2 PUSH2 0x5177 JUMP JUMPDEST SWAP2 POP POP PUSH2 0x292F JUMP JUMPDEST POP PUSH2 0x2B6A JUMP JUMPDEST PUSH1 0x0 JUMPDEST PUSH1 0x5 DUP3 ADD SLOAD DUP2 LT ISZERO PUSH2 0x2853 JUMPI PUSH2 0x2AA0 DUP3 PUSH1 0x5 ADD DUP3 DUP2 SLOAD DUP2 LT PUSH2 0x2A83 JUMPI PUSH4 0x4E487B71 PUSH1 0xE0 SHL PUSH1 0x0 MSTORE PUSH1 0x32 PUSH1 0x4 MSTORE PUSH1 0x24 PUSH1 0x0 REVERT JUMPDEST PUSH1 0x0 SWAP2 DUP3 MSTORE PUSH1 0x20 SWAP1 SWAP2 KECCAK256 ADD SLOAD PUSH1 0x1 SWAP1 PUSH1 0x1 PUSH1 0x1 PUSH1 0xA0 SHL SUB AND PUSH2 0x34ED JUMP JUMPDEST POP PUSH2 0x2B57 DUP3 PUSH1 0x5 ADD DUP3 DUP2 SLOAD DUP2 LT PUSH2 0x2AC7 JUMPI PUSH4 0x4E487B71 PUSH1 0xE0 SHL PUSH1 0x0 MSTORE PUSH1 0x32 PUSH1 0x4 MSTORE PUSH1 0x24 PUSH1 0x0 REVERT JUMPDEST PUSH1 0x0 SWAP2 DUP3 MSTORE PUSH1 0x20 SWAP1 SWAP2 KECCAK256 ADD SLOAD PUSH1 0x7 DUP5 DUP2 ADD DUP1 SLOAD PUSH1 0x1 PUSH1 0x1 PUSH1 0xA0 SHL SUB SWAP1 SWAP4 AND SWAP3 DUP6 SWAP1 DUP2 LT PUSH2 0x2B04 JUMPI PUSH4 0x4E487B71 PUSH1 0xE0 SHL PUSH1 0x0 MSTORE PUSH1 0x32 PUSH1 0x4 MSTORE PUSH1 0x24 PUSH1 0x0 REVERT JUMPDEST PUSH1 0x0 SWAP2 DUP3 MSTORE PUSH1 0x20 SWAP2 DUP3 SWAP1 KECCAK256 SWAP2 DUP2 DIV SWAP1 SWAP2 ADD SLOAD PUSH1 0xFF PUSH1 0x1F SWAP1 SWAP3 AND PUSH2 0x100 EXP SWAP1 DIV AND PUSH1 0x4 DUP2 LT PUSH2 0x2B42 JUMPI PUSH4 0x4E487B71 PUSH1 0xE0 SHL PUSH1 0x0 MSTORE PUSH1 0x32 PUSH1 0x4 MSTORE PUSH1 0x24 PUSH1 0x0 REVERT JUMPDEST PUSH1 0x7 MUL ADD PUSH1 0x1 ADD PUSH2 0x34ED SWAP1 SWAP2 SWAP1 PUSH4 0xFFFFFFFF AND JUMP JUMPDEST POP DUP1 PUSH2 0x2B62 DUP2 PUSH2 0x5177 JUMP JUMPDEST SWAP2 POP POP PUSH2 0x2A51 JUMP JUMPDEST PUSH1 0x40 MLOAD PUSH2 0x2862 SWAP1 DUP3 SWAP1 PUSH2 0x4DDA JUMP JUMPDEST PUSH2 0xFFFF DUP1 DUP3 AND PUSH1 0x0 SWAP1 DUP2 MSTORE PUSH1 0x6 PUSH1 0x20 MSTORE PUSH1 0x40 SWAP1 KECCAK256 PUSH1 0x1 ADD SLOAD PUSH2 0x100 SWAP1 DIV AND ISZERO DUP1 ISZERO SWAP1 PUSH2 0x2BCE JUMPI POP PUSH1 0x2 PUSH2 0x2BAB PUSH1 0x1 PUSH2 0x2FE2 JUMP JUMPDEST PUSH2 0x2BB5 SWAP2 SWAP1 PUSH2 0x506F JUMP JUMPDEST PUSH2 0xFFFF DUP3 AND PUSH1 0x0 SWAP1 DUP2 MSTORE PUSH1 0x6 PUSH1 0x20 MSTORE PUSH1 0x40 SWAP1 KECCAK256 PUSH1 0x3 ADD SLOAD GT JUMPDEST ISZERO PUSH2 0x2C7B JUMPI PUSH2 0xFFFF DUP2 AND PUSH1 0x0 SWAP1 DUP2 MSTORE PUSH1 0x6 PUSH1 0x20 SWAP1 DUP2 MSTORE PUSH1 0x40 DUP1 DUP4 KECCAK256 PUSH1 0x23 SWAP1 SWAP3 MSTORE SWAP1 SWAP2 KECCAK256 DUP1 SLOAD PUSH1 0xFF NOT AND PUSH1 0x1 OR SWAP1 SSTORE PUSH1 0x5 DUP2 ADD SLOAD PUSH2 0x2C3B SWAP1 PUSH1 0x1 PUSH1 0x1 PUSH1 0xA0 SHL SUB DUP2 AND SWAP1 PUSH1 0x7 SWAP1 PUSH1 0x1 PUSH1 0xA0 SHL SWAP1 DIV PUSH1 0xFF AND PUSH1 0x4 DUP2 LT PUSH2 0x2B42 JUMPI PUSH4 0x4E487B71 PUSH1 0xE0 SHL PUSH1 0x0 MSTORE PUSH1 0x32 PUSH1 0x4 MSTORE PUSH1 0x24 PUSH1 0x0 REVERT JUMPDEST POP PUSH1 0x5 DUP2 ADD SLOAD PUSH2 0x2853 SWAP1 PUSH1 0x1 PUSH1 0x1 PUSH1 0xA0 SHL SUB DUP2 AND SWAP1 PUSH1 0x7 SWAP1 PUSH1 0x1 PUSH1 0xA8 SHL SWAP1 DIV PUSH1 0xFF AND PUSH1 0x4 DUP2 LT PUSH2 0x2A20 JUMPI PUSH4 0x4E487B71 PUSH1 0xE0 SHL PUSH1 0x0 MSTORE PUSH1 0x32 PUSH1 0x4 MSTORE PUSH1 0x24 PUSH1 0x0 REVERT JUMPDEST PUSH1 0x2 PUSH2 0x2C87 PUSH1 0x1 PUSH2 0x2FE2 JUMP JUMPDEST PUSH2 0x2C91 SWAP2 SWAP1 PUSH2 0x506F JUMP JUMPDEST PUSH2 0xFFFF DUP3 AND PUSH1 0x0 SWAP1 DUP2 MSTORE PUSH1 0x4 PUSH1 0x20 MSTORE PUSH1 0x40 SWAP1 KECCAK256 PUSH1 0x3 ADD SLOAD GT ISZERO PUSH2 0x2D2A JUMPI PUSH2 0xFFFF DUP2 AND PUSH1 0x0 SWAP1 DUP2 MSTORE PUSH1 0x23 PUSH1 0x20 SWAP1 DUP2 MSTORE PUSH1 0x40 DUP1 DUP4 KECCAK256 DUP1 SLOAD PUSH1 0xFF NOT AND PUSH1 0x1 OR SWAP1 SSTORE PUSH1 0x4 SWAP1 SWAP2 MSTORE SWAP1 DUP2 SWAP1 KECCAK256 SWAP1 MLOAD PUSH2 0x2CE4 SWAP2 SWAP1 PUSH2 0x4DDA JUMP JUMPDEST PUSH1 0x40 DUP1 MLOAD SWAP2 DUP3 SWAP1 SUB DUP3 KECCAK256 PUSH2 0xFFFF DUP5 DUP2 AND PUSH1 0x0 SWAP1 DUP2 MSTORE PUSH1 0x4 PUSH1 0x20 SWAP1 DUP2 MSTORE SWAP4 SWAP1 KECCAK256 PUSH1 0x1 ADD SLOAD PUSH2 0x100 SWAP1 DIV AND DUP4 MSTORE SWAP2 PUSH1 0x0 DUP1 MLOAD PUSH1 0x20 PUSH2 0x51DF DUP4 CODECOPY DUP2 MLOAD SWAP2 MSTORE SWAP2 ADD PUSH1 0x40 MLOAD DUP1 SWAP2 SUB SWAP1 LOG2 JUMPDEST POP JUMP JUMPDEST CALLER DUP3 PUSH2 0x2D54 DUP3 PUSH1 0x7 DUP4 PUSH1 0x4 DUP2 LT PUSH2 0x64C JUMPI PUSH4 0x4E487B71 PUSH1 0xE0 SHL PUSH1 0x0 MSTORE PUSH1 0x32 PUSH1 0x4 MSTORE PUSH1 0x24 PUSH1 0x0 REVERT JUMPDEST PUSH2 0x2D5D JUMPI PUSH1 0x0 DUP1 REVERT JUMPDEST PUSH2 0x2D99 DUP4 CALLER PUSH1 0x7 DUP8 PUSH1 0x4 DUP2 LT PUSH2 0x2D83 JUMPI PUSH4 0x4E487B71 PUSH1 0xE0 SHL PUSH1 0x0 MSTORE PUSH1 0x32 PUSH1 0x4 MSTORE PUSH1 0x24 PUSH1 0x0 REVERT JUMPDEST PUSH1 0x7 MUL ADD PUSH1 0x4 ADD PUSH2 0x3502 SWAP1 SWAP3 SWAP2 SWAP1 PUSH4 0xFFFFFFFF AND JUMP JUMPDEST POP POP POP POP JUMP JUMPDEST PUSH2 0x2DA7 PUSH2 0x419F JUMP JUMPDEST PUSH2 0x2DAF PUSH2 0x4433 JUMP JUMPDEST PUSH2 0x2DE9 DUP4 PUSH1 0x7 DUP7 PUSH1 0x4 DUP2 LT PUSH2 0x2DD4 JUMPI PUSH4 0x4E487B71 PUSH1 0xE0 SHL PUSH1 0x0 MSTORE PUSH1 0x32 PUSH1 0x4 MSTORE PUSH1 0x24 PUSH1 0x0 REVERT JUMPDEST PUSH1 0x7 MUL ADD PUSH1 0x4 ADD PUSH2 0x3748 SWAP1 SWAP2 SWAP1 PUSH4 0xFFFFFFFF AND JUMP JUMPDEST SWAP2 POP SWAP2 POP SWAP3 POP SWAP3 SWAP1 POP JUMP JUMPDEST PUSH1 0x0 PUSH2 0x2E09 DUP4 PUSH1 0x1 PUSH1 0x1 PUSH1 0xA0 SHL SUB DUP5 AND PUSH2 0x3BB5 JUMP JUMPDEST SWAP4 SWAP3 POP POP POP JUMP JUMPDEST PUSH1 0x1 PUSH1 0x1 PUSH1 0xA0 SHL SUB DUP2 AND PUSH1 0x0 SWAP1 DUP2 MSTORE PUSH1 0x1 DUP4 ADD PUSH1 0x20 MSTORE PUSH1 0x40 DUP2 KECCAK256 SLOAD ISZERO ISZERO PUSH2 0x2E09 JUMP JUMPDEST PUSH1 0x40 DUP1 MLOAD PUSH2 0x140 DUP2 ADD DUP3 MSTORE PUSH1 0x80 DUP2 ADD DUP8 DUP2 MSTORE PUSH1 0xFF DUP8 AND PUSH1 0xA0 DUP4 ADD MSTORE DUP9 SLOAD PUSH2 0xFFFF AND PUSH1 0xC0 DUP4 ADD DUP2 SWAP1 MSTORE TIMESTAMP PUSH1 0xE0 DUP5 ADD MSTORE PUSH1 0x0 PUSH2 0x100 DUP5 ADD DUP2 SWAP1 MSTORE PUSH1 0x60 PUSH2 0x120 DUP6 ADD DUP2 SWAP1 MSTORE SWAP3 DUP5 MSTORE PUSH1 0x20 DUP1 DUP6 ADD DUP10 SWAP1 MSTORE DUP5 DUP7 ADD DUP9 SWAP1 MSTORE DUP5 DUP5 ADD DUP8 SWAP1 MSTORE SWAP2 DUP2 MSTORE PUSH1 0x1 DUP12 ADD DUP3 MSTORE SWAP4 SWAP1 SWAP4 KECCAK256 DUP3 MLOAD DUP1 MLOAD DUP1 MLOAD SWAP4 SWAP6 SWAP3 SWAP4 SWAP2 SWAP3 DUP5 SWAP3 PUSH2 0x2EB3 SWAP3 DUP5 SWAP3 ADD SWAP1 PUSH2 0x40C6 JUMP JUMPDEST POP PUSH1 0x20 DUP3 DUP2 ADD MLOAD PUSH1 0x1 DUP4 ADD DUP1 SLOAD PUSH1 0x40 DUP7 ADD MLOAD PUSH2 0xFFFF AND PUSH2 0x100 MUL PUSH3 0xFFFFFF NOT SWAP1 SWAP2 AND PUSH1 0xFF SWAP1 SWAP4 AND SWAP3 SWAP1 SWAP3 OR SWAP2 SWAP1 SWAP2 OR SWAP1 SSTORE PUSH1 0x60 DUP4 ADD MLOAD PUSH1 0x2 DUP4 ADD SSTORE PUSH1 0x80 DUP4 ADD MLOAD PUSH1 0x3 DUP4 ADD SSTORE PUSH1 0xA0 DUP4 ADD MLOAD DUP1 MLOAD PUSH2 0x2F0F SWAP3 PUSH1 0x4 DUP6 ADD SWAP3 ADD SWAP1 PUSH2 0x414A JUMP JUMPDEST POP POP POP PUSH1 0x20 DUP3 DUP2 ADD MLOAD DUP1 MLOAD PUSH2 0x2F2A SWAP3 PUSH1 0x5 DUP6 ADD SWAP3 ADD SWAP1 PUSH2 0x414A JUMP JUMPDEST POP PUSH1 0x40 DUP3 ADD MLOAD DUP1 MLOAD PUSH2 0x2F46 SWAP2 PUSH1 0x6 DUP5 ADD SWAP2 PUSH1 0x20 SWAP1 SWAP2 ADD SWAP1 PUSH2 0x4305 JUMP JUMPDEST POP PUSH1 0x60 DUP3 ADD MLOAD DUP1 MLOAD PUSH2 0x2F62 SWAP2 PUSH1 0x7 DUP5 ADD SWAP2 PUSH1 0x20 SWAP1 SWAP2 ADD SWAP1 PUSH2 0x435E JUMP JUMPDEST POP POP DUP8 SLOAD PUSH2 0xFFFF AND SWAP1 POP DUP8 PUSH1 0x0 PUSH2 0x2F78 DUP4 PUSH2 0x5155 JUMP JUMPDEST DUP3 SLOAD PUSH2 0x100 SWAP3 SWAP1 SWAP3 EXP PUSH2 0xFFFF DUP2 DUP2 MUL NOT SWAP1 SWAP4 AND SWAP2 DUP4 AND MUL OR SWAP1 SWAP2 SSTORE DUP9 SLOAD PUSH2 0x2FA3 SWAP3 POP PUSH1 0x1 SWAP2 AND PUSH2 0x50BA JUMP JUMPDEST PUSH2 0xFFFF AND DUP7 PUSH1 0x40 MLOAD PUSH2 0x2FB5 SWAP2 SWAP1 PUSH2 0x4DBE JUMP JUMPDEST PUSH1 0x40 DUP1 MLOAD SWAP2 DUP3 SWAP1 SUB DUP3 KECCAK256 PUSH1 0xFF DUP10 AND DUP4 MSTORE TIMESTAMP PUSH1 0x20 DUP5 ADD MSTORE SWAP2 PUSH1 0x0 DUP1 MLOAD PUSH1 0x20 PUSH2 0x51BF DUP4 CODECOPY DUP2 MLOAD SWAP2 MSTORE SWAP2 ADD PUSH2 0x1296 JUMP JUMPDEST PUSH1 0x0 PUSH2 0x4C5 DUP3 SLOAD SWAP1 JUMP JUMPDEST PUSH1 0x0 PUSH2 0x2E09 DUP4 DUP4 PUSH2 0x3C04 JUMP JUMPDEST PUSH1 0x40 DUP1 MLOAD PUSH2 0x100 DUP2 ADD DUP3 MSTORE DUP1 DUP3 ADD DUP6 DUP2 MSTORE PUSH1 0xFF DUP6 AND PUSH1 0x60 DUP4 DUP2 ADD SWAP2 SWAP1 SWAP2 MSTORE DUP8 SLOAD PUSH2 0xFFFF AND PUSH1 0x80 DUP5 ADD DUP2 SWAP1 MSTORE TIMESTAMP PUSH1 0xA0 DUP6 ADD MSTORE PUSH1 0x0 PUSH1 0xC0 DUP6 ADD DUP2 SWAP1 MSTORE PUSH1 0xE0 DUP6 ADD DUP4 SWAP1 MSTORE SWAP3 DUP5 MSTORE PUSH1 0x20 DUP1 DUP6 ADD DUP8 SWAP1 MSTORE SWAP1 DUP4 MSTORE PUSH1 0x2 DUP10 ADD DUP2 MSTORE SWAP4 SWAP1 SWAP2 KECCAK256 DUP3 MLOAD DUP1 MLOAD DUP1 MLOAD SWAP4 SWAP6 SWAP3 SWAP4 SWAP2 SWAP3 DUP5 SWAP3 PUSH2 0x306C SWAP3 DUP5 SWAP3 ADD SWAP1 PUSH2 0x40C6 JUMP JUMPDEST POP PUSH1 0x20 DUP3 DUP2 ADD MLOAD PUSH1 0x1 DUP4 ADD DUP1 SLOAD PUSH1 0x40 DUP7 ADD MLOAD PUSH2 0xFFFF AND PUSH2 0x100 MUL PUSH3 0xFFFFFF NOT SWAP1 SWAP2 AND PUSH1 0xFF SWAP1 SWAP4 AND SWAP3 SWAP1 SWAP3 OR SWAP2 SWAP1 SWAP2 OR SWAP1 SSTORE PUSH1 0x60 DUP4 ADD MLOAD PUSH1 0x2 DUP4 ADD SSTORE PUSH1 0x80 DUP4 ADD MLOAD PUSH1 0x3 DUP4 ADD SSTORE PUSH1 0xA0 DUP4 ADD MLOAD DUP1 MLOAD PUSH2 0x30C8 SWAP3 PUSH1 0x4 DUP6 ADD SWAP3 ADD SWAP1 PUSH2 0x414A JUMP JUMPDEST POP POP POP PUSH1 0x20 SWAP2 SWAP1 SWAP2 ADD MLOAD PUSH1 0x5 SWAP1 SWAP2 ADD SSTORE DUP5 SLOAD PUSH2 0xFFFF AND DUP6 PUSH1 0x0 PUSH2 0x30EA DUP4 PUSH2 0x5155 JUMP JUMPDEST DUP3 SLOAD PUSH2 0x100 SWAP3 SWAP1 SWAP3 EXP PUSH2 0xFFFF DUP2 DUP2 MUL NOT SWAP1 SWAP4 AND SWAP2 DUP4 AND MUL OR SWAP1 SWAP2 SSTORE DUP7 SLOAD PUSH2 0x3115 SWAP3 POP PUSH1 0x1 SWAP2 AND PUSH2 0x50BA JUMP JUMPDEST PUSH2 0xFFFF AND DUP5 PUSH1 0x40 MLOAD PUSH2 0x3127 SWAP2 SWAP1 PUSH2 0x4DBE JUMP JUMPDEST PUSH1 0x40 DUP1 MLOAD SWAP2 DUP3 SWAP1 SUB DUP3 KECCAK256 PUSH1 0xFF DUP8 AND DUP4 MSTORE TIMESTAMP PUSH1 0x20 DUP5 ADD MSTORE SWAP2 PUSH1 0x0 DUP1 MLOAD PUSH1 0x20 PUSH2 0x51BF DUP4 CODECOPY DUP2 MLOAD SWAP2 MSTORE SWAP2 ADD PUSH1 0x40 MLOAD DUP1 SWAP2 SUB SWAP1 LOG3 POP POP POP POP POP JUMP JUMPDEST DUP2 SELFBALANCE DUP2 GT ISZERO PUSH2 0x316C JUMPI PUSH1 0x0 DUP1 REVERT JUMPDEST DUP2 PUSH1 0x1 PUSH1 0x1 PUSH1 0xA0 SHL SUB AND PUSH32 0x4BD02E6E14D9C1417BA3582A754B1124AD2FBE11AD4CEE6B51D08EBADFC0792 DUP5 PUSH1 0x40 MLOAD PUSH2 0x31A7 SWAP2 DUP2 MSTORE PUSH1 0x20 ADD SWAP1 JUMP JUMPDEST PUSH1 0x40 MLOAD DUP1 SWAP2 SUB SWAP1 LOG2 PUSH2 0x239A DUP3 DUP5 PUSH2 0x3C9D JUMP JUMPDEST PUSH2 0x31C4 DUP4 DUP4 DUP4 PUSH2 0x3DB6 JUMP JUMPDEST POP DUP3 PUSH1 0x1 PUSH1 0x1 PUSH1 0xA0 SHL SUB AND PUSH32 0x4BD02E6E14D9C1417BA3582A754B1124AD2FBE11AD4CEE6B51D08EBADFC0792 DUP3 PUSH1 0x40 MLOAD PUSH2 0x1832 SWAP2 DUP2 MSTORE PUSH1 0x20 ADD SWAP1 JUMP JUMPDEST PUSH2 0xFFFF DUP1 DUP3 AND PUSH1 0x0 SWAP1 DUP2 MSTORE PUSH1 0x1 DUP1 DUP6 ADD PUSH1 0x20 MSTORE PUSH1 0x40 DUP3 KECCAK256 ADD SLOAD SWAP1 SWAP2 PUSH2 0x100 SWAP1 SWAP2 DIV AND ISZERO DUP1 ISZERO SWAP1 PUSH2 0x3283 JUMPI POP PUSH2 0xFFFF DUP3 AND PUSH1 0x0 SWAP1 DUP2 MSTORE PUSH1 0x1 DUP1 DUP6 ADD PUSH1 0x20 MSTORE PUSH1 0x40 SWAP1 SWAP2 KECCAK256 ADD SLOAD PUSH2 0x3254 SWAP1 PUSH1 0xFF AND PUSH3 0x15180 PUSH2 0x508F JUMP JUMPDEST PUSH2 0xFFFF DUP4 AND PUSH1 0x0 SWAP1 DUP2 MSTORE PUSH1 0x1 DUP6 ADD PUSH1 0x20 MSTORE PUSH1 0x40 SWAP1 KECCAK256 PUSH1 0x2 ADD SLOAD PUSH3 0xFFFFFF SWAP2 SWAP1 SWAP2 AND SWAP1 PUSH2 0x3280 SWAP1 TIMESTAMP PUSH2 0x50DD JUMP JUMPDEST LT ISZERO JUMPDEST ISZERO PUSH2 0x334F JUMPI PUSH2 0xFFFF DUP3 AND PUSH1 0x0 DUP2 DUP2 MSTORE PUSH1 0x1 DUP6 ADD PUSH1 0x20 MSTORE PUSH1 0x40 SWAP1 DUP2 SWAP1 KECCAK256 SWAP1 MLOAD PUSH2 0x32AB SWAP2 SWAP1 PUSH2 0x4DDA JUMP JUMPDEST PUSH1 0x40 MLOAD SWAP1 DUP2 SWAP1 SUB DUP2 KECCAK256 SWAP1 PUSH1 0x0 DUP1 MLOAD PUSH1 0x20 PUSH2 0x5228 DUP4 CODECOPY DUP2 MLOAD SWAP2 MSTORE SWAP1 PUSH1 0x0 SWAP1 LOG3 PUSH2 0xFFFF DUP3 AND PUSH1 0x0 SWAP1 DUP2 MSTORE PUSH1 0x1 DUP5 ADD PUSH1 0x20 MSTORE PUSH1 0x40 DUP2 KECCAK256 SWAP1 DUP2 DUP2 PUSH2 0x32EB DUP3 DUP3 PUSH2 0x4398 JUMP JUMPDEST PUSH1 0x1 DUP3 ADD DUP1 SLOAD PUSH3 0xFFFFFF NOT AND SWAP1 SSTORE PUSH1 0x0 PUSH1 0x2 DUP4 ADD DUP2 SWAP1 SSTORE PUSH1 0x3 DUP4 ADD DUP2 SWAP1 SSTORE PUSH2 0x3317 SWAP1 PUSH1 0x4 DUP5 ADD SWAP1 PUSH2 0x43D2 JUMP JUMPDEST POP PUSH2 0x3328 SWAP1 POP PUSH1 0x5 DUP4 ADD PUSH1 0x0 PUSH2 0x43D2 JUMP JUMPDEST PUSH2 0x3336 PUSH1 0x6 DUP4 ADD PUSH1 0x0 PUSH2 0x43F0 JUMP JUMPDEST PUSH2 0x3344 PUSH1 0x7 DUP4 ADD PUSH1 0x0 PUSH2 0x43D2 JUMP JUMPDEST POP POP PUSH1 0x1 SWAP1 POP PUSH2 0x4C5 JUMP JUMPDEST PUSH2 0xFFFF DUP1 DUP4 AND PUSH1 0x0 SWAP1 DUP2 MSTORE PUSH1 0x2 DUP6 ADD PUSH1 0x20 MSTORE PUSH1 0x40 SWAP1 KECCAK256 PUSH1 0x1 ADD SLOAD PUSH2 0x100 SWAP1 DIV AND ISZERO DUP1 ISZERO SWAP1 PUSH2 0x33D0 JUMPI POP PUSH2 0xFFFF DUP3 AND PUSH1 0x0 SWAP1 DUP2 MSTORE PUSH1 0x2 DUP5 ADD PUSH1 0x20 MSTORE PUSH1 0x40 SWAP1 KECCAK256 PUSH1 0x1 ADD SLOAD PUSH2 0x33A1 SWAP1 PUSH1 0xFF AND PUSH3 0x15180 PUSH2 0x508F JUMP JUMPDEST PUSH2 0xFFFF DUP4 AND PUSH1 0x0 SWAP1 DUP2 MSTORE PUSH1 0x2 DUP1 DUP7 ADD PUSH1 0x20 MSTORE PUSH1 0x40 SWAP1 SWAP2 KECCAK256 ADD SLOAD PUSH3 0xFFFFFF SWAP2 SWAP1 SWAP2 AND SWAP1 PUSH2 0x33CD SWAP1 TIMESTAMP PUSH2 0x50DD JUMP JUMPDEST LT ISZERO JUMPDEST ISZERO PUSH2 0x1493 JUMPI PUSH2 0xFFFF DUP3 AND PUSH1 0x0 DUP2 DUP2 MSTORE PUSH1 0x2 DUP6 ADD PUSH1 0x20 MSTORE PUSH1 0x40 SWAP1 DUP2 SWAP1 KECCAK256 SWAP1 MLOAD PUSH2 0x33F8 SWAP2 SWAP1 PUSH2 0x4DDA JUMP JUMPDEST PUSH1 0x40 MLOAD SWAP1 DUP2 SWAP1 SUB DUP2 KECCAK256 SWAP1 PUSH1 0x0 DUP1 MLOAD PUSH1 0x20 PUSH2 0x5228 DUP4 CODECOPY DUP2 MLOAD SWAP2 MSTORE SWAP1 PUSH1 0x0 SWAP1 LOG3 PUSH2 0xFFFF DUP3 AND PUSH1 0x0 SWAP1 DUP2 MSTORE PUSH1 0x2 DUP5 ADD PUSH1 0x20 MSTORE PUSH1 0x40 DUP2 KECCAK256 SWAP1 DUP2 DUP2 PUSH2 0x3438 DUP3 DUP3 PUSH2 0x4398 JUMP JUMPDEST PUSH1 0x1 DUP3 ADD DUP1 SLOAD PUSH3 0xFFFFFF NOT AND SWAP1 SSTORE PUSH1 0x0 PUSH1 0x2 DUP4 ADD DUP2 SWAP1 SSTORE PUSH1 0x3 DUP4 ADD DUP2 SWAP1 SSTORE PUSH2 0x3464 SWAP1 PUSH1 0x4 DUP5 ADD SWAP1 PUSH2 0x43D2 JUMP JUMPDEST POP POP PUSH1 0x5 DUP3 ADD PUSH1 0x0 SWAP1 SSTORE POP POP PUSH1 0x1 SWAP1 POP PUSH2 0x4C5 JUMP JUMPDEST PUSH1 0x0 DUP1 JUMPDEST DUP4 MLOAD DUP2 LT ISZERO PUSH2 0x34E3 JUMPI DUP3 PUSH1 0x1 PUSH1 0x1 PUSH1 0xA0 SHL SUB AND DUP5 DUP3 DUP2 MLOAD DUP2 LT PUSH2 0x34B0 JUMPI PUSH4 0x4E487B71 PUSH1 0xE0 SHL PUSH1 0x0 MSTORE PUSH1 0x32 PUSH1 0x4 MSTORE PUSH1 0x24 PUSH1 0x0 REVERT JUMPDEST PUSH1 0x20 MUL PUSH1 0x20 ADD ADD MLOAD PUSH1 0x1 PUSH1 0x1 PUSH1 0xA0 SHL SUB AND EQ ISZERO PUSH2 0x34D1 JUMPI PUSH1 0x0 SWAP2 POP POP PUSH2 0x4C5 JUMP JUMPDEST DUP1 PUSH2 0x34DB DUP2 PUSH2 0x5177 JUMP JUMPDEST SWAP2 POP POP PUSH2 0x347D JUMP JUMPDEST POP PUSH1 0x1 SWAP4 SWAP3 POP POP POP JUMP JUMPDEST PUSH1 0x0 PUSH2 0x2E09 DUP4 PUSH1 0x1 PUSH1 0x1 PUSH1 0xA0 SHL SUB DUP5 AND PUSH2 0x3DE4 JUMP JUMPDEST PUSH2 0xFFFF DUP1 DUP4 AND PUSH1 0x0 SWAP1 DUP2 MSTORE PUSH1 0x1 DUP1 DUP7 ADD PUSH1 0x20 MSTORE PUSH1 0x40 SWAP1 SWAP2 KECCAK256 ADD SLOAD PUSH2 0x100 SWAP1 DIV AND ISZERO PUSH2 0x3626 JUMPI PUSH2 0xFFFF DUP3 AND PUSH1 0x0 SWAP1 DUP2 MSTORE PUSH1 0x1 DUP5 ADD PUSH1 0x20 SWAP1 DUP2 MSTORE PUSH1 0x40 SWAP2 DUP3 SWAP1 KECCAK256 PUSH1 0x4 ADD DUP1 SLOAD DUP4 MLOAD DUP2 DUP5 MUL DUP2 ADD DUP5 ADD SWAP1 SWAP5 MSTORE DUP1 DUP5 MSTORE PUSH2 0x359D SWAP4 SWAP3 DUP4 ADD DUP3 DUP3 DUP1 ISZERO PUSH2 0x3592 JUMPI PUSH1 0x20 MUL DUP3 ADD SWAP2 SWAP1 PUSH1 0x0 MSTORE PUSH1 0x20 PUSH1 0x0 KECCAK256 SWAP1 JUMPDEST DUP2 SLOAD PUSH1 0x1 PUSH1 0x1 PUSH1 0xA0 SHL SUB AND DUP2 MSTORE PUSH1 0x1 SWAP1 SWAP2 ADD SWAP1 PUSH1 0x20 ADD DUP1 DUP4 GT PUSH2 0x3574 JUMPI JUMPDEST POP POP POP POP POP DUP3 PUSH2 0x3EFB JUMP JUMPDEST ISZERO PUSH2 0x239A JUMPI PUSH2 0xFFFF DUP3 AND PUSH1 0x0 SWAP1 DUP2 MSTORE PUSH1 0x1 DUP5 ADD PUSH1 0x20 MSTORE PUSH1 0x40 DUP2 KECCAK256 PUSH1 0x3 ADD DUP1 SLOAD SWAP2 PUSH2 0x35C6 DUP4 PUSH2 0x5177 JUMP JUMPDEST SWAP1 SWAP2 SSTORE POP POP PUSH2 0xFFFF DUP3 AND PUSH1 0x0 DUP2 DUP2 MSTORE PUSH1 0x1 DUP6 DUP2 ADD PUSH1 0x20 SWAP1 DUP2 MSTORE PUSH1 0x40 DUP1 DUP5 KECCAK256 PUSH1 0x4 DUP2 ADD DUP1 SLOAD SWAP5 DUP6 ADD DUP2 SSTORE DUP6 MSTORE SWAP2 DUP5 KECCAK256 SWAP1 SWAP3 ADD DUP1 SLOAD PUSH1 0x1 PUSH1 0x1 PUSH1 0xA0 SHL SUB NOT AND PUSH1 0x1 PUSH1 0x1 PUSH1 0xA0 SHL SUB DUP8 AND SWAP1 DUP2 OR SWAP1 SWAP2 SSTORE SWAP3 DUP5 SWAP1 MSTORE SWAP1 MLOAD SWAP2 SWAP3 SWAP2 PUSH2 0x2369 SWAP2 SWAP1 PUSH2 0x4DDA JUMP JUMPDEST PUSH2 0xFFFF DUP1 DUP4 AND PUSH1 0x0 SWAP1 DUP2 MSTORE PUSH1 0x2 DUP6 ADD PUSH1 0x20 MSTORE PUSH1 0x40 SWAP1 KECCAK256 PUSH1 0x1 ADD SLOAD PUSH2 0x100 SWAP1 DIV AND ISZERO PUSH2 0x239A JUMPI PUSH2 0xFFFF DUP3 AND PUSH1 0x0 SWAP1 DUP2 MSTORE PUSH1 0x2 DUP5 ADD PUSH1 0x20 SWAP1 DUP2 MSTORE PUSH1 0x40 SWAP2 DUP3 SWAP1 KECCAK256 PUSH1 0x4 ADD DUP1 SLOAD DUP4 MLOAD DUP2 DUP5 MUL DUP2 ADD DUP5 ADD SWAP1 SWAP5 MSTORE DUP1 DUP5 MSTORE PUSH2 0x36BF SWAP4 SWAP3 DUP4 ADD DUP3 DUP3 DUP1 ISZERO PUSH2 0x3592 JUMPI PUSH1 0x20 MUL DUP3 ADD SWAP2 SWAP1 PUSH1 0x0 MSTORE PUSH1 0x20 PUSH1 0x0 KECCAK256 SWAP1 DUP2 SLOAD PUSH1 0x1 PUSH1 0x1 PUSH1 0xA0 SHL SUB AND DUP2 MSTORE PUSH1 0x1 SWAP1 SWAP2 ADD SWAP1 PUSH1 0x20 ADD DUP1 DUP4 GT PUSH2 0x3574 JUMPI POP POP POP POP POP DUP3 PUSH2 0x3EFB JUMP JUMPDEST ISZERO PUSH2 0x239A JUMPI PUSH2 0xFFFF DUP3 AND PUSH1 0x0 SWAP1 DUP2 MSTORE PUSH1 0x2 DUP5 ADD PUSH1 0x20 MSTORE PUSH1 0x40 DUP2 KECCAK256 PUSH1 0x3 ADD DUP1 SLOAD SWAP2 PUSH2 0x36E8 DUP4 PUSH2 0x5177 JUMP JUMPDEST SWAP1 SWAP2 SSTORE POP POP PUSH2 0xFFFF DUP3 AND PUSH1 0x0 DUP2 DUP2 MSTORE PUSH1 0x2 DUP6 ADD PUSH1 0x20 SWAP1 DUP2 MSTORE PUSH1 0x40 DUP1 DUP4 KECCAK256 PUSH1 0x4 DUP2 ADD DUP1 SLOAD PUSH1 0x1 DUP2 ADD DUP3 SSTORE SWAP1 DUP6 MSTORE SWAP3 DUP5 KECCAK256 SWAP1 SWAP3 ADD DUP1 SLOAD PUSH1 0x1 PUSH1 0x1 PUSH1 0xA0 SHL SUB NOT AND PUSH1 0x1 PUSH1 0x1 PUSH1 0xA0 SHL SUB DUP8 AND SWAP1 DUP2 OR SWAP1 SWAP2 SSTORE SWAP3 DUP5 SWAP1 MSTORE MLOAD SWAP2 SWAP3 SWAP2 PUSH2 0x2369 SWAP2 SWAP1 PUSH2 0x4DDA JUMP JUMPDEST PUSH2 0x3750 PUSH2 0x419F JUMP JUMPDEST PUSH2 0x3758 PUSH2 0x4433 JUMP JUMPDEST PUSH2 0xFFFF DUP4 AND PUSH1 0x0 SWAP1 DUP2 MSTORE PUSH1 0x1 DUP6 ADD PUSH1 0x20 SWAP1 DUP2 MSTORE PUSH1 0x40 DUP1 DUP4 KECCAK256 PUSH1 0x2 DUP9 ADD SWAP1 SWAP3 MSTORE SWAP2 DUP3 SWAP1 KECCAK256 DUP3 MLOAD PUSH2 0x140 DUP2 ADD SWAP1 SWAP4 MSTORE DUP2 SLOAD SWAP2 SWAP3 SWAP1 SWAP2 DUP4 SWAP1 DUP3 SWAP1 PUSH1 0x80 DUP3 ADD SWAP1 DUP4 SWAP1 DUP3 SWAP1 DUP3 SWAP1 PUSH2 0x37A3 SWAP1 PUSH2 0x5120 JUMP JUMPDEST DUP1 PUSH1 0x1F ADD PUSH1 0x20 DUP1 SWAP2 DIV MUL PUSH1 0x20 ADD PUSH1 0x40 MLOAD SWAP1 DUP2 ADD PUSH1 0x40 MSTORE DUP1 SWAP3 SWAP2 SWAP1 DUP2 DUP2 MSTORE PUSH1 0x20 ADD DUP3 DUP1 SLOAD PUSH2 0x37CF SWAP1 PUSH2 0x5120 JUMP JUMPDEST DUP1 ISZERO PUSH2 0x381C JUMPI DUP1 PUSH1 0x1F LT PUSH2 0x37F1 JUMPI PUSH2 0x100 DUP1 DUP4 SLOAD DIV MUL DUP4 MSTORE SWAP2 PUSH1 0x20 ADD SWAP2 PUSH2 0x381C JUMP JUMPDEST DUP3 ADD SWAP2 SWAP1 PUSH1 0x0 MSTORE PUSH1 0x20 PUSH1 0x0 KECCAK256 SWAP1 JUMPDEST DUP2 SLOAD DUP2 MSTORE SWAP1 PUSH1 0x1 ADD SWAP1 PUSH1 0x20 ADD DUP1 DUP4 GT PUSH2 0x37FF JUMPI DUP3 SWAP1 SUB PUSH1 0x1F AND DUP3 ADD SWAP2 JUMPDEST POP POP POP SWAP2 DUP4 MSTORE POP POP PUSH1 0x1 DUP3 ADD SLOAD PUSH1 0xFF DUP2 AND PUSH1 0x20 DUP1 DUP5 ADD SWAP2 SWAP1 SWAP2 MSTORE PUSH2 0x100 SWAP1 SWAP2 DIV PUSH2 0xFFFF AND PUSH1 0x40 DUP1 DUP5 ADD SWAP2 SWAP1 SWAP2 MSTORE PUSH1 0x2 DUP5 ADD SLOAD PUSH1 0x60 DUP5 ADD MSTORE PUSH1 0x3 DUP5 ADD SLOAD PUSH1 0x80 DUP5 ADD MSTORE PUSH1 0x4 DUP5 ADD DUP1 SLOAD DUP3 MLOAD DUP2 DUP6 MUL DUP2 ADD DUP6 ADD SWAP1 SWAP4 MSTORE DUP1 DUP4 MSTORE PUSH1 0xA0 SWAP1 SWAP5 ADD SWAP4 SWAP2 SWAP3 SWAP1 SWAP2 SWAP1 DUP4 ADD DUP3 DUP3 DUP1 ISZERO PUSH2 0x38B6 JUMPI PUSH1 0x20 MUL DUP3 ADD SWAP2 SWAP1 PUSH1 0x0 MSTORE PUSH1 0x20 PUSH1 0x0 KECCAK256 SWAP1 JUMPDEST DUP2 SLOAD PUSH1 0x1 PUSH1 0x1 PUSH1 0xA0 SHL SUB AND DUP2 MSTORE PUSH1 0x1 SWAP1 SWAP2 ADD SWAP1 PUSH1 0x20 ADD DUP1 DUP4 GT PUSH2 0x3898 JUMPI JUMPDEST POP POP POP POP POP DUP2 MSTORE POP POP DUP2 MSTORE PUSH1 0x20 ADD PUSH1 0x5 DUP3 ADD DUP1 SLOAD DUP1 PUSH1 0x20 MUL PUSH1 0x20 ADD PUSH1 0x40 MLOAD SWAP1 DUP2 ADD PUSH1 0x40 MSTORE DUP1 SWAP3 SWAP2 SWAP1 DUP2 DUP2 MSTORE PUSH1 0x20 ADD DUP3 DUP1 SLOAD DUP1 ISZERO PUSH2 0x391C JUMPI PUSH1 0x20 MUL DUP3 ADD SWAP2 SWAP1 PUSH1 0x0 MSTORE PUSH1 0x20 PUSH1 0x0 KECCAK256 SWAP1 JUMPDEST DUP2 SLOAD PUSH1 0x1 PUSH1 0x1 PUSH1 0xA0 SHL SUB AND DUP2 MSTORE PUSH1 0x1 SWAP1 SWAP2 ADD SWAP1 PUSH1 0x20 ADD DUP1 DUP4 GT PUSH2 0x38FE JUMPI JUMPDEST POP POP POP POP POP DUP2 MSTORE PUSH1 0x20 ADD PUSH1 0x6 DUP3 ADD DUP1 SLOAD DUP1 PUSH1 0x20 MUL PUSH1 0x20 ADD PUSH1 0x40 MLOAD SWAP1 DUP2 ADD PUSH1 0x40 MSTORE DUP1 SWAP3 SWAP2 SWAP1 DUP2 DUP2 MSTORE PUSH1 0x20 ADD PUSH1 0x0 SWAP1 JUMPDEST DUP3 DUP3 LT ISZERO PUSH2 0x39F6 JUMPI DUP4 DUP3 SWAP1 PUSH1 0x0 MSTORE PUSH1 0x20 PUSH1 0x0 KECCAK256 ADD DUP1 SLOAD PUSH2 0x3969 SWAP1 PUSH2 0x5120 JUMP JUMPDEST DUP1 PUSH1 0x1F ADD PUSH1 0x20 DUP1 SWAP2 DIV MUL PUSH1 0x20 ADD PUSH1 0x40 MLOAD SWAP1 DUP2 ADD PUSH1 0x40 MSTORE DUP1 SWAP3 SWAP2 SWAP1 DUP2 DUP2 MSTORE PUSH1 0x20 ADD DUP3 DUP1 SLOAD PUSH2 0x3995 SWAP1 PUSH2 0x5120 JUMP JUMPDEST DUP1 ISZERO PUSH2 0x39E2 JUMPI DUP1 PUSH1 0x1F LT PUSH2 0x39B7 JUMPI PUSH2 0x100 DUP1 DUP4 SLOAD DIV MUL DUP4 MSTORE SWAP2 PUSH1 0x20 ADD SWAP2 PUSH2 0x39E2 JUMP JUMPDEST DUP3 ADD SWAP2 SWAP1 PUSH1 0x0 MSTORE PUSH1 0x20 PUSH1 0x0 KECCAK256 SWAP1 JUMPDEST DUP2 SLOAD DUP2 MSTORE SWAP1 PUSH1 0x1 ADD SWAP1 PUSH1 0x20 ADD DUP1 DUP4 GT PUSH2 0x39C5 JUMPI DUP3 SWAP1 SUB PUSH1 0x1F AND DUP3 ADD SWAP2 JUMPDEST POP POP POP POP POP DUP2 MSTORE PUSH1 0x20 ADD SWAP1 PUSH1 0x1 ADD SWAP1 PUSH2 0x394A JUMP JUMPDEST POP POP POP POP DUP2 MSTORE PUSH1 0x20 ADD PUSH1 0x7 DUP3 ADD DUP1 SLOAD DUP1 PUSH1 0x20 MUL PUSH1 0x20 ADD PUSH1 0x40 MLOAD SWAP1 DUP2 ADD PUSH1 0x40 MSTORE DUP1 SWAP3 SWAP2 SWAP1 DUP2 DUP2 MSTORE PUSH1 0x20 ADD DUP3 DUP1 SLOAD DUP1 ISZERO PUSH2 0x3A4D JUMPI PUSH1 0x20 MUL DUP3 ADD SWAP2 SWAP1 PUSH1 0x0 MSTORE PUSH1 0x20 PUSH1 0x0 KECCAK256 SWAP1 JUMPDEST DUP2 SLOAD DUP2 MSTORE PUSH1 0x20 ADD SWAP1 PUSH1 0x1 ADD SWAP1 DUP1 DUP4 GT PUSH2 0x3A39 JUMPI JUMPDEST POP POP POP SWAP2 SWAP1 SWAP3 MSTORE POP POP PUSH1 0x40 DUP1 MLOAD PUSH2 0x100 DUP2 ADD DUP3 MSTORE DUP5 SLOAD SWAP4 SWAP6 POP SWAP3 DUP5 SWAP3 POP DUP4 SWAP2 DUP3 ADD SWAP1 DUP4 SWAP1 DUP3 SWAP1 DUP3 SWAP1 PUSH2 0x3A7E SWAP1 PUSH2 0x5120 JUMP JUMPDEST DUP1 PUSH1 0x1F ADD PUSH1 0x20 DUP1 SWAP2 DIV MUL PUSH1 0x20 ADD PUSH1 0x40 MLOAD SWAP1 DUP2 ADD PUSH1 0x40 MSTORE DUP1 SWAP3 SWAP2 SWAP1 DUP2 DUP2 MSTORE PUSH1 0x20 ADD DUP3 DUP1 SLOAD PUSH2 0x3AAA SWAP1 PUSH2 0x5120 JUMP JUMPDEST DUP1 ISZERO PUSH2 0x3AF7 JUMPI DUP1 PUSH1 0x1F LT PUSH2 0x3ACC JUMPI PUSH2 0x100 DUP1 DUP4 SLOAD DIV MUL DUP4 MSTORE SWAP2 PUSH1 0x20 ADD SWAP2 PUSH2 0x3AF7 JUMP JUMPDEST DUP3 ADD SWAP2 SWAP1 PUSH1 0x0 MSTORE PUSH1 0x20 PUSH1 0x0 KECCAK256 SWAP1 JUMPDEST DUP2 SLOAD DUP2 MSTORE SWAP1 PUSH1 0x1 ADD SWAP1 PUSH1 0x20 ADD DUP1 DUP4 GT PUSH2 0x3ADA JUMPI DUP3 SWAP1 SUB PUSH1 0x1F AND DUP3 ADD SWAP2 JUMPDEST POP POP POP SWAP2 DUP4 MSTORE POP POP PUSH1 0x1 DUP3 ADD SLOAD PUSH1 0xFF DUP2 AND PUSH1 0x20 DUP1 DUP5 ADD SWAP2 SWAP1 SWAP2 MSTORE PUSH2 0x100 SWAP1 SWAP2 DIV PUSH2 0xFFFF AND PUSH1 0x40 DUP1 DUP5 ADD SWAP2 SWAP1 SWAP2 MSTORE PUSH1 0x2 DUP5 ADD SLOAD PUSH1 0x60 DUP5 ADD MSTORE PUSH1 0x3 DUP5 ADD SLOAD PUSH1 0x80 DUP5 ADD MSTORE PUSH1 0x4 DUP5 ADD DUP1 SLOAD DUP3 MLOAD DUP2 DUP6 MUL DUP2 ADD DUP6 ADD SWAP1 SWAP4 MSTORE DUP1 DUP4 MSTORE PUSH1 0xA0 SWAP1 SWAP5 ADD SWAP4 SWAP2 SWAP3 SWAP1 SWAP2 SWAP1 DUP4 ADD DUP3 DUP3 DUP1 ISZERO PUSH2 0x3B91 JUMPI PUSH1 0x20 MUL DUP3 ADD SWAP2 SWAP1 PUSH1 0x0 MSTORE PUSH1 0x20 PUSH1 0x0 KECCAK256 SWAP1 JUMPDEST DUP2 SLOAD PUSH1 0x1 PUSH1 0x1 PUSH1 0xA0 SHL SUB AND DUP2 MSTORE PUSH1 0x1 SWAP1 SWAP2 ADD SWAP1 PUSH1 0x20 ADD DUP1 DUP4 GT PUSH2 0x3B73 JUMPI JUMPDEST POP POP POP POP POP DUP2 MSTORE POP POP DUP2 MSTORE PUSH1 0x20 ADD PUSH1 0x5 DUP3 ADD SLOAD DUP2 MSTORE POP POP SWAP1 POP SWAP2 POP SWAP2 POP SWAP3 POP SWAP3 SWAP1 POP JUMP JUMPDEST PUSH1 0x0 DUP2 DUP2 MSTORE PUSH1 0x1 DUP4 ADD PUSH1 0x20 MSTORE PUSH1 0x40 DUP2 KECCAK256 SLOAD PUSH2 0x3BFC JUMPI POP DUP2 SLOAD PUSH1 0x1 DUP2 DUP2 ADD DUP5 SSTORE PUSH1 0x0 DUP5 DUP2 MSTORE PUSH1 0x20 DUP1 DUP3 KECCAK256 SWAP1 SWAP4 ADD DUP5 SWAP1 SSTORE DUP5 SLOAD DUP5 DUP3 MSTORE DUP3 DUP7 ADD SWAP1 SWAP4 MSTORE PUSH1 0x40 SWAP1 KECCAK256 SWAP2 SWAP1 SWAP2 SSTORE PUSH2 0x4C5 JUMP JUMPDEST POP PUSH1 0x0 PUSH2 0x4C5 JUMP JUMPDEST DUP2 SLOAD PUSH1 0x0 SWAP1 DUP3 LT PUSH2 0x3C67 JUMPI PUSH1 0x40 MLOAD PUSH3 0x461BCD PUSH1 0xE5 SHL DUP2 MSTORE PUSH1 0x20 PUSH1 0x4 DUP3 ADD MSTORE PUSH1 0x22 PUSH1 0x24 DUP3 ADD MSTORE PUSH32 0x456E756D657261626C655365743A20696E646578206F7574206F6620626F756E PUSH1 0x44 DUP3 ADD MSTORE PUSH2 0x6473 PUSH1 0xF0 SHL PUSH1 0x64 DUP3 ADD MSTORE PUSH1 0x84 ADD JUMPDEST PUSH1 0x40 MLOAD DUP1 SWAP2 SUB SWAP1 REVERT JUMPDEST DUP3 PUSH1 0x0 ADD DUP3 DUP2 SLOAD DUP2 LT PUSH2 0x3C8A JUMPI PUSH4 0x4E487B71 PUSH1 0xE0 SHL PUSH1 0x0 MSTORE PUSH1 0x32 PUSH1 0x4 MSTORE PUSH1 0x24 PUSH1 0x0 REVERT JUMPDEST SWAP1 PUSH1 0x0 MSTORE PUSH1 0x20 PUSH1 0x0 KECCAK256 ADD SLOAD SWAP1 POP SWAP3 SWAP2 POP POP JUMP JUMPDEST DUP1 SELFBALANCE LT ISZERO PUSH2 0x3CED JUMPI PUSH1 0x40 MLOAD PUSH3 0x461BCD PUSH1 0xE5 SHL DUP2 MSTORE PUSH1 0x20 PUSH1 0x4 DUP3 ADD MSTORE PUSH1 0x1D PUSH1 0x24 DUP3 ADD MSTORE PUSH32 0x416464726573733A20696E73756666696369656E742062616C616E6365000000 PUSH1 0x44 DUP3 ADD MSTORE PUSH1 0x64 ADD PUSH2 0x3C5E JUMP JUMPDEST PUSH1 0x0 DUP3 PUSH1 0x1 PUSH1 0x1 PUSH1 0xA0 SHL SUB AND DUP3 PUSH1 0x40 MLOAD PUSH1 0x0 PUSH1 0x40 MLOAD DUP1 DUP4 SUB DUP2 DUP6 DUP8 GAS CALL SWAP3 POP POP POP RETURNDATASIZE DUP1 PUSH1 0x0 DUP2 EQ PUSH2 0x3D3A JUMPI PUSH1 0x40 MLOAD SWAP2 POP PUSH1 0x1F NOT PUSH1 0x3F RETURNDATASIZE ADD AND DUP3 ADD PUSH1 0x40 MSTORE RETURNDATASIZE DUP3 MSTORE RETURNDATASIZE PUSH1 0x0 PUSH1 0x20 DUP5 ADD RETURNDATACOPY PUSH2 0x3D3F JUMP JUMPDEST PUSH1 0x60 SWAP2 POP JUMPDEST POP POP SWAP1 POP DUP1 PUSH2 0x239A JUMPI PUSH1 0x40 MLOAD PUSH3 0x461BCD PUSH1 0xE5 SHL DUP2 MSTORE PUSH1 0x20 PUSH1 0x4 DUP3 ADD MSTORE PUSH1 0x3A PUSH1 0x24 DUP3 ADD MSTORE PUSH32 0x416464726573733A20756E61626C6520746F2073656E642076616C75652C2072 PUSH1 0x44 DUP3 ADD MSTORE PUSH32 0x6563697069656E74206D61792068617665207265766572746564000000000000 PUSH1 0x64 DUP3 ADD MSTORE PUSH1 0x84 ADD PUSH2 0x3C5E JUMP JUMPDEST PUSH1 0x60 PUSH2 0x3DDC DUP5 DUP5 DUP5 PUSH1 0x40 MLOAD DUP1 PUSH1 0x60 ADD PUSH1 0x40 MSTORE DUP1 PUSH1 0x29 DUP2 MSTORE PUSH1 0x20 ADD PUSH2 0x51FF PUSH1 0x29 SWAP2 CODECOPY PUSH2 0x3F65 JUMP JUMPDEST SWAP5 SWAP4 POP POP POP POP JUMP JUMPDEST PUSH1 0x0 DUP2 DUP2 MSTORE PUSH1 0x1 DUP4 ADD PUSH1 0x20 MSTORE PUSH1 0x40 DUP2 KECCAK256 SLOAD DUP1 ISZERO PUSH2 0x3EF1 JUMPI PUSH1 0x0 PUSH2 0x3E08 PUSH1 0x1 DUP4 PUSH2 0x50DD JUMP JUMPDEST DUP6 SLOAD SWAP1 SWAP2 POP PUSH1 0x0 SWAP1 PUSH2 0x3E1C SWAP1 PUSH1 0x1 SWAP1 PUSH2 0x50DD JUMP JUMPDEST SWAP1 POP PUSH1 0x0 DUP7 PUSH1 0x0 ADD DUP3 DUP2 SLOAD DUP2 LT PUSH2 0x3E43 JUMPI PUSH4 0x4E487B71 PUSH1 0xE0 SHL PUSH1 0x0 MSTORE PUSH1 0x32 PUSH1 0x4 MSTORE PUSH1 0x24 PUSH1 0x0 REVERT JUMPDEST SWAP1 PUSH1 0x0 MSTORE PUSH1 0x20 PUSH1 0x0 KECCAK256 ADD SLOAD SWAP1 POP DUP1 DUP8 PUSH1 0x0 ADD DUP5 DUP2 SLOAD DUP2 LT PUSH2 0x3E74 JUMPI PUSH4 0x4E487B71 PUSH1 0xE0 SHL PUSH1 0x0 MSTORE PUSH1 0x32 PUSH1 0x4 MSTORE PUSH1 0x24 PUSH1 0x0 REVERT JUMPDEST PUSH1 0x0 SWAP2 DUP3 MSTORE PUSH1 0x20 DUP1 DUP4 KECCAK256 SWAP1 SWAP2 ADD SWAP3 SWAP1 SWAP3 SSTORE DUP3 DUP2 MSTORE PUSH1 0x1 DUP10 ADD SWAP1 SWAP2 MSTORE PUSH1 0x40 SWAP1 KECCAK256 DUP5 SWAP1 SSTORE DUP7 SLOAD DUP8 SWAP1 DUP1 PUSH2 0x3EB5 JUMPI PUSH4 0x4E487B71 PUSH1 0xE0 SHL PUSH1 0x0 MSTORE PUSH1 0x31 PUSH1 0x4 MSTORE PUSH1 0x24 PUSH1 0x0 REVERT JUMPDEST PUSH1 0x1 SWAP1 SUB DUP2 DUP2 SWAP1 PUSH1 0x0 MSTORE PUSH1 0x20 PUSH1 0x0 KECCAK256 ADD PUSH1 0x0 SWAP1 SSTORE SWAP1 SSTORE DUP7 PUSH1 0x1 ADD PUSH1 0x0 DUP8 DUP2 MSTORE PUSH1 0x20 ADD SWAP1 DUP2 MSTORE PUSH1 0x20 ADD PUSH1 0x0 KECCAK256 PUSH1 0x0 SWAP1 SSTORE PUSH1 0x1 SWAP5 POP POP POP POP POP PUSH2 0x4C5 JUMP JUMPDEST PUSH1 0x0 SWAP2 POP POP PUSH2 0x4C5 JUMP JUMPDEST PUSH1 0x0 DUP1 JUMPDEST DUP4 MLOAD DUP2 LT ISZERO PUSH2 0x34E3 JUMPI DUP3 PUSH1 0x1 PUSH1 0x1 PUSH1 0xA0 SHL SUB AND DUP5 DUP3 DUP2 MLOAD DUP2 LT PUSH2 0x3F32 JUMPI PUSH4 0x4E487B71 PUSH1 0xE0 SHL PUSH1 0x0 MSTORE PUSH1 0x32 PUSH1 0x4 MSTORE PUSH1 0x24 PUSH1 0x0 REVERT JUMPDEST PUSH1 0x20 MUL PUSH1 0x20 ADD ADD MLOAD PUSH1 0x1 PUSH1 0x1 PUSH1 0xA0 SHL SUB AND EQ ISZERO PUSH2 0x3F53 JUMPI PUSH1 0x0 SWAP2 POP POP PUSH2 0x4C5 JUMP JUMPDEST DUP1 PUSH2 0x3F5D DUP2 PUSH2 0x5177 JUMP JUMPDEST SWAP2 POP POP PUSH2 0x3EFF JUMP JUMPDEST PUSH1 0x60 DUP3 SELFBALANCE LT ISZERO PUSH2 0x3FC6 JUMPI PUSH1 0x40 MLOAD PUSH3 0x461BCD PUSH1 0xE5 SHL DUP2 MSTORE PUSH1 0x20 PUSH1 0x4 DUP3 ADD MSTORE PUSH1 0x26 PUSH1 0x24 DUP3 ADD MSTORE PUSH32 0x416464726573733A20696E73756666696369656E742062616C616E636520666F PUSH1 0x44 DUP3 ADD MSTORE PUSH6 0x1C8818D85B1B PUSH1 0xD2 SHL PUSH1 0x64 DUP3 ADD MSTORE PUSH1 0x84 ADD PUSH2 0x3C5E JUMP JUMPDEST DUP5 EXTCODESIZE PUSH2 0x4014 JUMPI PUSH1 0x40 MLOAD PUSH3 0x461BCD PUSH1 0xE5 SHL DUP2 MSTORE PUSH1 0x20 PUSH1 0x4 DUP3 ADD MSTORE PUSH1 0x1D PUSH1 0x24 DUP3 ADD MSTORE PUSH32 0x416464726573733A2063616C6C20746F206E6F6E2D636F6E7472616374000000 PUSH1 0x44 DUP3 ADD MSTORE PUSH1 0x64 ADD PUSH2 0x3C5E JUMP JUMPDEST PUSH1 0x0 DUP1 DUP7 PUSH1 0x1 PUSH1 0x1 PUSH1 0xA0 SHL SUB AND DUP6 DUP8 PUSH1 0x40 MLOAD PUSH2 0x4030 SWAP2 SWAP1 PUSH2 0x4DBE JUMP JUMPDEST PUSH1 0x0 PUSH1 0x40 MLOAD DUP1 DUP4 SUB DUP2 DUP6 DUP8 GAS CALL SWAP3 POP POP POP RETURNDATASIZE DUP1 PUSH1 0x0 DUP2 EQ PUSH2 0x406D JUMPI PUSH1 0x40 MLOAD SWAP2 POP PUSH1 0x1F NOT PUSH1 0x3F RETURNDATASIZE ADD AND DUP3 ADD PUSH1 0x40 MSTORE RETURNDATASIZE DUP3 MSTORE RETURNDATASIZE PUSH1 0x0 PUSH1 0x20 DUP5 ADD RETURNDATACOPY PUSH2 0x4072 JUMP JUMPDEST PUSH1 0x60 SWAP2 POP JUMPDEST POP SWAP2 POP SWAP2 POP PUSH2 0x4082 DUP3 DUP3 DUP7 PUSH2 0x408D JUMP JUMPDEST SWAP8 SWAP7 POP POP POP POP POP POP POP JUMP JUMPDEST PUSH1 0x60 DUP4 ISZERO PUSH2 0x409C JUMPI POP DUP2 PUSH2 0x2E09 JUMP JUMPDEST DUP3 MLOAD ISZERO PUSH2 0x40AC JUMPI DUP3 MLOAD DUP1 DUP5 PUSH1 0x20 ADD REVERT JUMPDEST DUP2 PUSH1 0x40 MLOAD PUSH3 0x461BCD PUSH1 0xE5 SHL DUP2 MSTORE PUSH1 0x4 ADD PUSH2 0x3C5E SWAP2 SWAP1 PUSH2 0x4F05 JUMP JUMPDEST DUP3 DUP1 SLOAD PUSH2 0x40D2 SWAP1 PUSH2 0x5120 JUMP JUMPDEST SWAP1 PUSH1 0x0 MSTORE PUSH1 0x20 PUSH1 0x0 KECCAK256 SWAP1 PUSH1 0x1F ADD PUSH1 0x20 SWAP1 DIV DUP2 ADD SWAP3 DUP3 PUSH2 0x40F4 JUMPI PUSH1 0x0 DUP6 SSTORE PUSH2 0x413A JUMP JUMPDEST DUP3 PUSH1 0x1F LT PUSH2 0x410D JUMPI DUP1 MLOAD PUSH1 0xFF NOT AND DUP4 DUP1 ADD OR DUP6 SSTORE PUSH2 0x413A JUMP JUMPDEST DUP3 DUP1 ADD PUSH1 0x1 ADD DUP6 SSTORE DUP3 ISZERO PUSH2 0x413A JUMPI SWAP2 DUP3 ADD JUMPDEST DUP3 DUP2 GT ISZERO PUSH2 0x413A JUMPI DUP3 MLOAD DUP3 SSTORE SWAP2 PUSH1 0x20 ADD SWAP2 SWAP1 PUSH1 0x1 ADD SWAP1 PUSH2 0x411F JUMP JUMPDEST POP PUSH2 0x4146 SWAP3 SWAP2 POP PUSH2 0x4453 JUMP JUMPDEST POP SWAP1 JUMP JUMPDEST DUP3 DUP1 SLOAD DUP3 DUP3 SSTORE SWAP1 PUSH1 0x0 MSTORE PUSH1 0x20 PUSH1 0x0 KECCAK256 SWAP1 DUP2 ADD SWAP3 DUP3 ISZERO PUSH2 0x413A JUMPI SWAP2 PUSH1 0x20 MUL DUP3 ADD JUMPDEST DUP3 DUP2 GT ISZERO PUSH2 0x413A JUMPI DUP3 MLOAD DUP3 SLOAD PUSH1 0x1 PUSH1 0x1 PUSH1 0xA0 SHL SUB NOT AND PUSH1 0x1 PUSH1 0x1 PUSH1 0xA0 SHL SUB SWAP1 SWAP2 AND OR DUP3 SSTORE PUSH1 0x20 SWAP1 SWAP3 ADD SWAP2 PUSH1 0x1 SWAP1 SWAP2 ADD SWAP1 PUSH2 0x416A JUMP JUMPDEST PUSH1 0x40 MLOAD DUP1 PUSH1 0x80 ADD PUSH1 0x40 MSTORE DUP1 PUSH2 0x41B2 PUSH2 0x41CD JUMP JUMPDEST DUP2 MSTORE PUSH1 0x20 ADD PUSH1 0x60 DUP2 MSTORE PUSH1 0x20 ADD PUSH1 0x60 DUP2 MSTORE PUSH1 0x20 ADD PUSH1 0x60 DUP2 MSTORE POP SWAP1 JUMP JUMPDEST PUSH1 0x40 MLOAD DUP1 PUSH1 0xC0 ADD PUSH1 0x40 MSTORE DUP1 PUSH1 0x60 DUP2 MSTORE PUSH1 0x20 ADD PUSH1 0x0 PUSH1 0xFF AND DUP2 MSTORE PUSH1 0x20 ADD PUSH1 0x0 PUSH2 0xFFFF AND DUP2 MSTORE PUSH1 0x20 ADD PUSH1 0x0 DUP2 MSTORE PUSH1 0x20 ADD PUSH1 0x0 DUP2 MSTORE PUSH1 0x20 ADD PUSH1 0x60 DUP2 MSTORE POP SWAP1 JUMP JUMPDEST PUSH1 0x40 MLOAD DUP1 PUSH1 0x80 ADD PUSH1 0x40 MSTORE DUP1 PUSH2 0x421D PUSH2 0x41CD JUMP JUMPDEST DUP2 MSTORE PUSH1 0x60 PUSH1 0x20 DUP3 ADD DUP2 SWAP1 MSTORE PUSH1 0x0 PUSH1 0x40 DUP4 ADD MSTORE SWAP1 DUP2 ADD MSTORE SWAP1 JUMP JUMPDEST PUSH1 0x40 MLOAD DUP1 PUSH1 0x80 ADD PUSH1 0x40 MSTORE DUP1 PUSH2 0x4249 PUSH2 0x41CD JUMP JUMPDEST DUP2 MSTORE PUSH1 0x0 PUSH1 0x20 DUP3 ADD DUP2 SWAP1 MSTORE PUSH1 0x40 DUP3 ADD DUP2 SWAP1 MSTORE PUSH1 0x60 SWAP1 SWAP2 ADD MSTORE SWAP1 JUMP JUMPDEST DUP3 DUP1 SLOAD DUP3 DUP3 SSTORE SWAP1 PUSH1 0x0 MSTORE PUSH1 0x20 PUSH1 0x0 KECCAK256 SWAP1 PUSH1 0x1F ADD PUSH1 0x20 SWAP1 DIV DUP2 ADD SWAP3 DUP3 ISZERO PUSH2 0x413A JUMPI SWAP2 PUSH1 0x20 MUL DUP3 ADD PUSH1 0x0 JUMPDEST DUP4 DUP3 GT ISZERO PUSH2 0x42CB JUMPI DUP4 MLOAD DUP4 DUP3 PUSH2 0x100 EXP DUP2 SLOAD DUP2 PUSH1 0xFF MUL NOT AND SWAP1 DUP4 PUSH1 0xFF AND MUL OR SWAP1 SSTORE POP SWAP3 PUSH1 0x20 ADD SWAP3 PUSH1 0x1 ADD PUSH1 0x20 DUP2 PUSH1 0x0 ADD DIV SWAP3 DUP4 ADD SWAP3 PUSH1 0x1 SUB MUL PUSH2 0x428D JUMP JUMPDEST DUP1 ISZERO PUSH2 0x42F8 JUMPI DUP3 DUP2 PUSH2 0x100 EXP DUP2 SLOAD SWAP1 PUSH1 0xFF MUL NOT AND SWAP1 SSTORE PUSH1 0x1 ADD PUSH1 0x20 DUP2 PUSH1 0x0 ADD DIV SWAP3 DUP4 ADD SWAP3 PUSH1 0x1 SUB MUL PUSH2 0x42CB JUMP JUMPDEST POP POP PUSH2 0x4146 SWAP3 SWAP2 POP PUSH2 0x4453 JUMP JUMPDEST DUP3 DUP1 SLOAD DUP3 DUP3 SSTORE SWAP1 PUSH1 0x0 MSTORE PUSH1 0x20 PUSH1 0x0 KECCAK256 SWAP1 DUP2 ADD SWAP3 DUP3 ISZERO PUSH2 0x4352 JUMPI SWAP2 PUSH1 0x20 MUL DUP3 ADD JUMPDEST DUP3 DUP2 GT ISZERO PUSH2 0x4352 JUMPI DUP3 MLOAD DUP1 MLOAD PUSH2 0x4342 SWAP2 DUP5 SWAP2 PUSH1 0x20 SWAP1 SWAP2 ADD SWAP1 PUSH2 0x40C6 JUMP JUMPDEST POP SWAP2 PUSH1 0x20 ADD SWAP2 SWAP1 PUSH1 0x1 ADD SWAP1 PUSH2 0x4325 JUMP JUMPDEST POP PUSH2 0x4146 SWAP3 SWAP2 POP PUSH2 0x4468 JUMP JUMPDEST DUP3 DUP1 SLOAD DUP3 DUP3 SSTORE SWAP1 PUSH1 0x0 MSTORE PUSH1 0x20 PUSH1 0x0 KECCAK256 SWAP1 DUP2 ADD SWAP3 DUP3 ISZERO PUSH2 0x413A JUMPI SWAP2 PUSH1 0x20 MUL DUP3 ADD DUP3 DUP2 GT ISZERO PUSH2 0x413A JUMPI DUP3 MLOAD DUP3 SSTORE SWAP2 PUSH1 0x20 ADD SWAP2 SWAP1 PUSH1 0x1 ADD SWAP1 PUSH2 0x411F JUMP JUMPDEST POP DUP1 SLOAD PUSH2 0x43A4 SWAP1 PUSH2 0x5120 JUMP JUMPDEST PUSH1 0x0 DUP3 SSTORE DUP1 PUSH1 0x1F LT PUSH2 0x43B4 JUMPI POP POP JUMP JUMPDEST PUSH1 0x1F ADD PUSH1 0x20 SWAP1 DIV SWAP1 PUSH1 0x0 MSTORE PUSH1 0x20 PUSH1 0x0 KECCAK256 SWAP1 DUP2 ADD SWAP1 PUSH2 0x2D2A SWAP2 SWAP1 PUSH2 0x4453 JUMP JUMPDEST POP DUP1 SLOAD PUSH1 0x0 DUP3 SSTORE SWAP1 PUSH1 0x0 MSTORE PUSH1 0x20 PUSH1 0x0 KECCAK256 SWAP1 DUP2 ADD SWAP1 PUSH2 0x2D2A SWAP2 SWAP1 PUSH2 0x4453 JUMP JUMPDEST POP DUP1 SLOAD PUSH1 0x0 DUP3 SSTORE SWAP1 PUSH1 0x0 MSTORE PUSH1 0x20 PUSH1 0x0 KECCAK256 SWAP1 DUP2 ADD SWAP1 PUSH2 0x2D2A SWAP2 SWAP1 PUSH2 0x4468 JUMP JUMPDEST POP DUP1 SLOAD PUSH1 0x0 DUP3 SSTORE PUSH1 0x1F ADD PUSH1 0x20 SWAP1 DIV SWAP1 PUSH1 0x0 MSTORE PUSH1 0x20 PUSH1 0x0 KECCAK256 SWAP1 DUP2 ADD SWAP1 PUSH2 0x2D2A SWAP2 SWAP1 PUSH2 0x4453 JUMP JUMPDEST PUSH1 0x40 MLOAD DUP1 PUSH1 0x40 ADD PUSH1 0x40 MSTORE DUP1 PUSH2 0x4446 PUSH2 0x41CD JUMP JUMPDEST DUP2 MSTORE PUSH1 0x20 ADD PUSH1 0x0 DUP2 MSTORE POP SWAP1 JUMP JUMPDEST JUMPDEST DUP1 DUP3 GT ISZERO PUSH2 0x4146 JUMPI PUSH1 0x0 DUP2 SSTORE PUSH1 0x1 ADD PUSH2 0x4454 JUMP JUMPDEST DUP1 DUP3 GT ISZERO PUSH2 0x4146 JUMPI PUSH1 0x0 PUSH2 0x447C DUP3 DUP3 PUSH2 0x4398 JUMP JUMPDEST POP PUSH1 0x1 ADD PUSH2 0x4468 JUMP JUMPDEST DUP1 CALLDATALOAD PUSH1 0x1 PUSH1 0x1 PUSH1 0xA0 SHL SUB DUP2 AND DUP2 EQ PUSH2 0x449C JUMPI PUSH1 0x0 DUP1 REVERT JUMPDEST SWAP2 SWAP1 POP JUMP JUMPDEST PUSH1 0x0 DUP3 PUSH1 0x1F DUP4 ADD SLT PUSH2 0x44B1 JUMPI DUP1 DUP2 REVERT JUMPDEST DUP2 CALLDATALOAD PUSH1 0x20 PUSH2 0x44C6 PUSH2 0x44C1 DUP4 PUSH2 0x504C JUMP JUMPDEST PUSH2 0x501C JUMP JUMPDEST DUP1 DUP4 DUP3 MSTORE DUP3 DUP3 ADD SWAP2 POP DUP3 DUP7 ADD DUP8 DUP5 DUP7 PUSH1 0x5 SHL DUP10 ADD ADD GT ISZERO PUSH2 0x44E5 JUMPI DUP6 DUP7 REVERT JUMPDEST DUP6 JUMPDEST DUP6 DUP2 LT ISZERO PUSH2 0x450A JUMPI PUSH2 0x44F8 DUP3 PUSH2 0x4485 JUMP JUMPDEST DUP5 MSTORE SWAP3 DUP5 ADD SWAP3 SWAP1 DUP5 ADD SWAP1 PUSH1 0x1 ADD PUSH2 0x44E7 JUMP JUMPDEST POP SWAP1 SWAP8 SWAP7 POP POP POP POP POP POP POP JUMP JUMPDEST PUSH1 0x0 DUP3 PUSH1 0x1F DUP4 ADD SLT PUSH2 0x4527 JUMPI DUP1 DUP2 REVERT JUMPDEST DUP2 CALLDATALOAD PUSH1 0x20 PUSH2 0x4537 PUSH2 0x44C1 DUP4 PUSH2 0x504C JUMP JUMPDEST DUP1 DUP4 DUP3 MSTORE DUP3 DUP3 ADD SWAP2 POP DUP3 DUP7 ADD DUP8 DUP5 DUP7 PUSH1 0x5 SHL DUP10 ADD ADD GT ISZERO PUSH2 0x4556 JUMPI DUP6 DUP7 REVERT JUMPDEST DUP6 JUMPDEST DUP6 DUP2 LT ISZERO PUSH2 0x450A JUMPI DUP2 CALLDATALOAD PUSH1 0x1 PUSH1 0x1 PUSH1 0x40 SHL SUB DUP2 GT ISZERO PUSH2 0x4575 JUMPI DUP8 DUP9 REVERT JUMPDEST PUSH2 0x4583 DUP11 DUP8 DUP4 DUP13 ADD ADD PUSH2 0x45F3 JUMP JUMPDEST DUP6 MSTORE POP SWAP3 DUP5 ADD SWAP3 SWAP1 DUP5 ADD SWAP1 PUSH1 0x1 ADD PUSH2 0x4558 JUMP JUMPDEST PUSH1 0x0 DUP3 PUSH1 0x1F DUP4 ADD SLT PUSH2 0x45A6 JUMPI DUP1 DUP2 REVERT JUMPDEST DUP2 CALLDATALOAD PUSH1 0x20 PUSH2 0x45B6 PUSH2 0x44C1 DUP4 PUSH2 0x504C JUMP JUMPDEST DUP1 DUP4 DUP3 MSTORE DUP3 DUP3 ADD SWAP2 POP DUP3 DUP7 ADD DUP8 DUP5 DUP7 PUSH1 0x5 SHL DUP10 ADD ADD GT ISZERO PUSH2 0x45D5 JUMPI DUP6 DUP7 REVERT JUMPDEST DUP6 JUMPDEST DUP6 DUP2 LT ISZERO PUSH2 0x450A JUMPI DUP2 CALLDATALOAD DUP5 MSTORE SWAP3 DUP5 ADD SWAP3 SWAP1 DUP5 ADD SWAP1 PUSH1 0x1 ADD PUSH2 0x45D7 JUMP JUMPDEST PUSH1 0x0 DUP3 PUSH1 0x1F DUP4 ADD SLT PUSH2 0x4603 JUMPI DUP1 DUP2 REVERT JUMPDEST DUP2 CALLDATALOAD PUSH1 0x1 PUSH1 0x1 PUSH1 0x40 SHL SUB DUP2 GT ISZERO PUSH2 0x461C JUMPI PUSH2 0x461C PUSH2 0x51A8 JUMP JUMPDEST PUSH2 0x462F PUSH1 0x1F DUP3 ADD PUSH1 0x1F NOT AND PUSH1 0x20 ADD PUSH2 0x501C JUMP JUMPDEST DUP2 DUP2 MSTORE DUP5 PUSH1 0x20 DUP4 DUP7 ADD ADD GT ISZERO PUSH2 0x4643 JUMPI DUP3 DUP4 REVERT JUMPDEST DUP2 PUSH1 0x20 DUP6 ADD PUSH1 0x20 DUP4 ADD CALLDATACOPY SWAP1 DUP2 ADD PUSH1 0x20 ADD SWAP2 SWAP1 SWAP2 MSTORE SWAP3 SWAP2 POP POP JUMP JUMPDEST DUP1 CALLDATALOAD PUSH2 0xFFFF DUP2 AND DUP2 EQ PUSH2 0x449C JUMPI PUSH1 0x0 DUP1 REVERT JUMPDEST DUP1 CALLDATALOAD PUSH1 0xFF DUP2 AND DUP2 EQ PUSH2 0x449C JUMPI PUSH1 0x0 DUP1 REVERT JUMPDEST PUSH1 0x0 DUP1 PUSH1 0x0 DUP1 PUSH1 0x0 PUSH1 0xA0 DUP7 DUP9 SUB SLT ISZERO PUSH2 0x4697 JUMPI DUP1 DUP2 REVERT JUMPDEST PUSH2 0x46A0 DUP7 PUSH2 0x4485 JUMP JUMPDEST SWAP5 POP PUSH2 0x46AE PUSH1 0x20 DUP8 ADD PUSH2 0x4485 JUMP JUMPDEST SWAP4 POP PUSH1 0x40 DUP7 ADD CALLDATALOAD PUSH1 0x1 PUSH1 0x1 PUSH1 0x40 SHL SUB DUP1 DUP3 GT ISZERO PUSH2 0x46C9 JUMPI DUP3 DUP4 REVERT JUMPDEST PUSH2 0x46D5 DUP10 DUP4 DUP11 ADD PUSH2 0x4596 JUMP JUMPDEST SWAP5 POP PUSH1 0x60 DUP9 ADD CALLDATALOAD SWAP2 POP DUP1 DUP3 GT ISZERO PUSH2 0x46EA JUMPI DUP3 DUP4 REVERT JUMPDEST PUSH2 0x46F6 DUP10 DUP4 DUP11 ADD PUSH2 0x4596 JUMP JUMPDEST SWAP4 POP PUSH1 0x80 DUP9 ADD CALLDATALOAD SWAP2 POP DUP1 DUP3 GT ISZERO PUSH2 0x470B JUMPI DUP3 DUP4 REVERT JUMPDEST POP PUSH2 0x4718 DUP9 DUP3 DUP10 ADD PUSH2 0x45F3 JUMP JUMPDEST SWAP2 POP POP SWAP3 SWAP6 POP SWAP3 SWAP6 SWAP1 SWAP4 POP JUMP JUMPDEST PUSH1 0x0 DUP1 PUSH1 0x0 DUP1 PUSH1 0x0 PUSH1 0xA0 DUP7 DUP9 SUB SLT ISZERO PUSH2 0x473C JUMPI DUP1 DUP2 REVERT JUMPDEST PUSH2 0x4745 DUP7 PUSH2 0x4485 JUMP JUMPDEST SWAP5 POP PUSH2 0x4753 PUSH1 0x20 DUP8 ADD PUSH2 0x4485 JUMP JUMPDEST SWAP4 POP PUSH1 0x40 DUP7 ADD CALLDATALOAD SWAP3 POP PUSH1 0x60 DUP7 ADD CALLDATALOAD SWAP2 POP PUSH1 0x80 DUP7 ADD CALLDATALOAD PUSH1 0x1 PUSH1 0x1 PUSH1 0x40 SHL SUB DUP2 GT ISZERO PUSH2 0x477B JUMPI DUP2 DUP3 REVERT JUMPDEST PUSH2 0x4718 DUP9 DUP3 DUP10 ADD PUSH2 0x45F3 JUMP JUMPDEST PUSH1 0x0 PUSH1 0x20 DUP3 DUP5 SUB SLT ISZERO PUSH2 0x4798 JUMPI DUP1 DUP2 REVERT JUMPDEST DUP2 CALLDATALOAD PUSH1 0x1 PUSH1 0x1 PUSH1 0xE0 SHL SUB NOT DUP2 AND DUP2 EQ PUSH2 0x2E09 JUMPI DUP2 DUP3 REVERT JUMPDEST PUSH1 0x0 DUP1 PUSH1 0x40 DUP4 DUP6 SUB SLT ISZERO PUSH2 0x47C1 JUMPI DUP2 DUP3 REVERT JUMPDEST DUP3 CALLDATALOAD PUSH1 0x1 PUSH1 0x1 PUSH1 0x40 SHL SUB DUP2 GT ISZERO PUSH2 0x47D6 JUMPI DUP3 DUP4 REVERT JUMPDEST PUSH2 0x47E2 DUP6 DUP3 DUP7 ADD PUSH2 0x45F3 JUMP JUMPDEST SWAP3 POP POP PUSH2 0x47F1 PUSH1 0x20 DUP5 ADD PUSH2 0x466F JUMP JUMPDEST SWAP1 POP SWAP3 POP SWAP3 SWAP1 POP JUMP JUMPDEST PUSH1 0x0 DUP1 PUSH1 0x0 DUP1 PUSH1 0x0 PUSH1 0xA0 DUP7 DUP9 SUB SLT ISZERO PUSH2 0x4811 JUMPI DUP1 DUP2 REVERT JUMPDEST DUP6 CALLDATALOAD PUSH1 0x1 PUSH1 0x1 PUSH1 0x40 SHL SUB DUP2 GT ISZERO PUSH2 0x4826 JUMPI DUP2 DUP3 REVERT JUMPDEST PUSH2 0x4832 DUP9 DUP3 DUP10 ADD PUSH2 0x45F3 JUMP JUMPDEST SWAP6 POP POP PUSH2 0x4841 PUSH1 0x20 DUP8 ADD PUSH2 0x466F JUMP JUMPDEST SWAP4 POP PUSH2 0x484F PUSH1 0x40 DUP8 ADD PUSH2 0x4485 JUMP JUMPDEST SWAP3 POP PUSH2 0x485D PUSH1 0x60 DUP8 ADD PUSH2 0x466F JUMP JUMPDEST SWAP2 POP PUSH2 0x486B PUSH1 0x80 DUP8 ADD PUSH2 0x466F JUMP JUMPDEST SWAP1 POP SWAP3 SWAP6 POP SWAP3 SWAP6 SWAP1 SWAP4 POP JUMP JUMPDEST PUSH1 0x0 DUP1 PUSH1 0x0 DUP1 PUSH1 0x0 PUSH1 0xA0 DUP7 DUP9 SUB SLT ISZERO PUSH2 0x488E JUMPI DUP3 DUP4 REVERT JUMPDEST DUP6 CALLDATALOAD PUSH1 0x1 PUSH1 0x1 PUSH1 0x40 SHL SUB DUP1 DUP3 GT ISZERO PUSH2 0x48A4 JUMPI DUP5 DUP6 REVERT JUMPDEST PUSH2 0x48B0 DUP10 DUP4 DUP11 ADD PUSH2 0x45F3 JUMP JUMPDEST SWAP7 POP PUSH2 0x48BE PUSH1 0x20 DUP10 ADD PUSH2 0x466F JUMP JUMPDEST SWAP6 POP PUSH1 0x40 DUP9 ADD CALLDATALOAD SWAP2 POP DUP1 DUP3 GT ISZERO PUSH2 0x48D3 JUMPI DUP5 DUP6 REVERT JUMPDEST PUSH2 0x48DF DUP10 DUP4 DUP11 ADD PUSH2 0x44A1 JUMP JUMPDEST SWAP5 POP PUSH1 0x60 DUP9 ADD CALLDATALOAD SWAP2 POP DUP1 DUP3 GT ISZERO PUSH2 0x48F4 JUMPI DUP3 DUP4 REVERT JUMPDEST PUSH2 0x4900 DUP10 DUP4 DUP11 ADD PUSH2 0x4517 JUMP JUMPDEST SWAP4 POP PUSH1 0x80 DUP9 ADD CALLDATALOAD SWAP2 POP DUP1 DUP3 GT ISZERO PUSH2 0x4915 JUMPI DUP3 DUP4 REVERT JUMPDEST POP PUSH2 0x4718 DUP9 DUP3 DUP10 ADD PUSH2 0x4596 JUMP JUMPDEST PUSH1 0x0 DUP1 PUSH1 0x0 DUP1 PUSH1 0x0 PUSH1 0xA0 DUP7 DUP9 SUB SLT ISZERO PUSH2 0x4939 JUMPI DUP3 DUP4 REVERT JUMPDEST DUP6 CALLDATALOAD PUSH1 0x1 PUSH1 0x1 PUSH1 0x40 SHL SUB DUP1 DUP3 GT ISZERO PUSH2 0x494F JUMPI DUP5 DUP6 REVERT JUMPDEST PUSH2 0x495B DUP10 DUP4 DUP11 ADD PUSH2 0x45F3 JUMP JUMPDEST SWAP7 POP PUSH1 0x20 SWAP2 POP PUSH2 0x496C DUP3 DUP10 ADD PUSH2 0x466F JUMP JUMPDEST SWAP6 POP PUSH1 0x40 DUP9 ADD CALLDATALOAD DUP2 DUP2 GT ISZERO PUSH2 0x497F JUMPI DUP6 DUP7 REVERT JUMPDEST PUSH2 0x498B DUP11 DUP3 DUP12 ADD PUSH2 0x44A1 JUMP JUMPDEST SWAP6 POP POP PUSH1 0x60 DUP9 ADD CALLDATALOAD DUP1 ISZERO ISZERO DUP2 EQ PUSH2 0x49A0 JUMPI DUP4 DUP5 REVERT JUMPDEST SWAP4 POP PUSH1 0x80 DUP9 ADD CALLDATALOAD DUP2 DUP2 GT ISZERO PUSH2 0x49B3 JUMPI DUP4 DUP5 REVERT JUMPDEST DUP9 ADD SWAP1 POP PUSH1 0x1F DUP2 ADD DUP10 SGT PUSH2 0x49C5 JUMPI DUP3 DUP4 REVERT JUMPDEST DUP1 CALLDATALOAD PUSH2 0x49D3 PUSH2 0x44C1 DUP3 PUSH2 0x504C JUMP JUMPDEST DUP1 DUP3 DUP3 MSTORE DUP5 DUP3 ADD SWAP2 POP DUP5 DUP5 ADD DUP13 DUP7 DUP6 PUSH1 0x5 SHL DUP8 ADD ADD GT ISZERO PUSH2 0x49F2 JUMPI DUP7 DUP8 REVERT JUMPDEST DUP7 SWAP5 POP JUMPDEST DUP4 DUP6 LT ISZERO PUSH2 0x4A1B JUMPI PUSH2 0x4A07 DUP2 PUSH2 0x466F JUMP JUMPDEST DUP4 MSTORE PUSH1 0x1 SWAP5 SWAP1 SWAP5 ADD SWAP4 SWAP2 DUP6 ADD SWAP2 DUP6 ADD PUSH2 0x49F6 JUMP JUMPDEST POP DUP1 SWAP6 POP POP POP POP POP POP SWAP3 SWAP6 POP SWAP3 SWAP6 SWAP1 SWAP4 POP JUMP JUMPDEST PUSH1 0x0 PUSH1 0x20 DUP3 DUP5 SUB SLT ISZERO PUSH2 0x4A3F JUMPI DUP1 DUP2 REVERT JUMPDEST PUSH2 0x2E09 DUP3 PUSH2 0x465D JUMP JUMPDEST PUSH1 0x0 PUSH1 0x20 DUP3 DUP5 SUB SLT ISZERO PUSH2 0x4A59 JUMPI DUP1 DUP2 REVERT JUMPDEST POP CALLDATALOAD SWAP2 SWAP1 POP JUMP JUMPDEST PUSH1 0x0 DUP1 PUSH1 0x40 DUP4 DUP6 SUB SLT ISZERO PUSH2 0x4A72 JUMPI DUP2 DUP3 REVERT JUMPDEST DUP3 CALLDATALOAD SWAP2 POP PUSH2 0x47F1 PUSH1 0x20 DUP5 ADD PUSH2 0x4485 JUMP JUMPDEST PUSH1 0x0 DUP1 PUSH1 0x0 DUP1 PUSH1 0x0 DUP1 PUSH1 0xC0 DUP8 DUP10 SUB SLT ISZERO PUSH2 0x4A9A JUMPI DUP4 DUP5 REVERT JUMPDEST DUP7 CALLDATALOAD SWAP6 POP PUSH1 0x20 DUP8 ADD CALLDATALOAD PUSH1 0x1 PUSH1 0x1 PUSH1 0x40 SHL SUB DUP1 DUP3 GT ISZERO PUSH2 0x4AB7 JUMPI DUP6 DUP7 REVERT JUMPDEST PUSH2 0x4AC3 DUP11 DUP4 DUP12 ADD PUSH2 0x45F3 JUMP JUMPDEST SWAP7 POP PUSH2 0x4AD1 PUSH1 0x40 DUP11 ADD PUSH2 0x466F JUMP JUMPDEST SWAP6 POP PUSH1 0x60 DUP10 ADD CALLDATALOAD SWAP2 POP DUP1 DUP3 GT ISZERO PUSH2 0x4AE6 JUMPI DUP3 DUP4 REVERT JUMPDEST PUSH2 0x4AF2 DUP11 DUP4 DUP12 ADD PUSH2 0x44A1 JUMP JUMPDEST SWAP5 POP PUSH1 0x80 DUP10 ADD CALLDATALOAD SWAP2 POP DUP1 DUP3 GT ISZERO PUSH2 0x4B07 JUMPI DUP3 DUP4 REVERT JUMPDEST PUSH2 0x4B13 DUP11 DUP4 DUP12 ADD PUSH2 0x4517 JUMP JUMPDEST SWAP4 POP PUSH1 0xA0 DUP10 ADD CALLDATALOAD SWAP2 POP DUP1 DUP3 GT ISZERO PUSH2 0x4B28 JUMPI DUP3 DUP4 REVERT JUMPDEST POP PUSH2 0x4B35 DUP10 DUP3 DUP11 ADD PUSH2 0x4596 JUMP JUMPDEST SWAP2 POP POP SWAP3 SWAP6 POP SWAP3 SWAP6 POP SWAP3 SWAP6 JUMP JUMPDEST PUSH1 0x0 DUP1 PUSH1 0x0 DUP1 PUSH1 0x80 DUP6 DUP8 SUB SLT ISZERO PUSH2 0x4B57 JUMPI DUP2 DUP3 REVERT JUMPDEST DUP5 CALLDATALOAD SWAP4 POP PUSH1 0x20 DUP6 ADD CALLDATALOAD PUSH1 0x1 PUSH1 0x1 PUSH1 0x40 SHL SUB DUP2 GT ISZERO PUSH2 0x4B73 JUMPI DUP3 DUP4 REVERT JUMPDEST PUSH2 0x4B7F DUP8 DUP3 DUP9 ADD PUSH2 0x45F3 JUMP JUMPDEST SWAP4 POP POP PUSH2 0x4B8E PUSH1 0x40 DUP7 ADD PUSH2 0x466F JUMP JUMPDEST SWAP4 SWAP7 SWAP3 SWAP6 POP SWAP3 SWAP4 PUSH1 0x60 ADD CALLDATALOAD SWAP3 POP POP JUMP JUMPDEST PUSH1 0x0 DUP1 PUSH1 0x40 DUP4 DUP6 SUB SLT ISZERO PUSH2 0x4BB0 JUMPI DUP2 DUP3 REVERT JUMPDEST DUP3 CALLDATALOAD SWAP2 POP PUSH2 0x47F1 PUSH1 0x20 DUP5 ADD PUSH2 0x465D JUMP JUMPDEST PUSH1 0x0 DUP2 MLOAD DUP1 DUP5 MSTORE PUSH1 0x20 DUP1 DUP6 ADD SWAP5 POP DUP1 DUP5 ADD DUP4 JUMPDEST DUP4 DUP2 LT ISZERO PUSH2 0x4BF8 JUMPI DUP2 MLOAD PUSH1 0x1 PUSH1 0x1 PUSH1 0xA0 SHL SUB AND DUP8 MSTORE SWAP6 DUP3 ADD SWAP6 SWAP1 DUP3 ADD SWAP1 PUSH1 0x1 ADD PUSH2 0x4BD3 JUMP JUMPDEST POP SWAP5 SWAP6 SWAP5 POP POP POP POP POP JUMP JUMPDEST PUSH1 0x0 DUP2 MLOAD DUP1 DUP5 MSTORE PUSH1 0x20 DUP1 DUP6 ADD SWAP5 POP DUP1 DUP5 ADD DUP4 JUMPDEST DUP4 DUP2 LT ISZERO PUSH2 0x4BF8 JUMPI DUP2 MLOAD DUP8 MSTORE SWAP6 DUP3 ADD SWAP6 SWAP1 DUP3 ADD SWAP1 PUSH1 0x1 ADD PUSH2 0x4C16 JUMP JUMPDEST PUSH1 0x0 DUP2 MLOAD DUP1 DUP5 MSTORE PUSH2 0x4C4A DUP2 PUSH1 0x20 DUP7 ADD PUSH1 0x20 DUP7 ADD PUSH2 0x50F4 JUMP JUMPDEST PUSH1 0x1F ADD PUSH1 0x1F NOT AND SWAP3 SWAP1 SWAP3 ADD PUSH1 0x20 ADD SWAP3 SWAP2 POP POP JUMP JUMPDEST PUSH1 0x0 DUP2 MLOAD PUSH1 0x80 DUP5 MSTORE PUSH2 0x4C73 PUSH1 0x80 DUP6 ADD DUP3 PUSH2 0x4D58 JUMP JUMPDEST SWAP1 POP PUSH1 0x1 DUP1 PUSH1 0xA0 SHL SUB PUSH1 0x20 DUP5 ADD MLOAD AND PUSH1 0x20 DUP6 ADD MSTORE PUSH1 0xFF PUSH1 0x40 DUP5 ADD MLOAD AND PUSH1 0x40 DUP6 ADD MSTORE PUSH1 0xFF PUSH1 0x60 DUP5 ADD MLOAD AND PUSH1 0x60 DUP6 ADD MSTORE DUP1 SWAP2 POP POP SWAP3 SWAP2 POP POP JUMP JUMPDEST PUSH1 0x0 DUP2 MLOAD PUSH1 0x80 DUP5 MSTORE PUSH2 0x4CC0 PUSH1 0x80 DUP6 ADD DUP3 PUSH2 0x4D58 JUMP JUMPDEST SWAP1 POP PUSH1 0x20 DUP1 DUP5 ADD MLOAD DUP6 DUP4 SUB DUP3 DUP8 ADD MSTORE PUSH2 0x4CD9 DUP4 DUP3 PUSH2 0x4BC0 JUMP JUMPDEST SWAP3 POP POP PUSH1 0x40 DUP5 ADD MLOAD DUP6 DUP4 SUB PUSH1 0x40 DUP8 ADD MSTORE DUP3 DUP2 MLOAD DUP1 DUP6 MSTORE DUP4 DUP6 ADD SWAP2 POP DUP4 DUP2 PUSH1 0x5 SHL DUP7 ADD ADD DUP5 DUP5 ADD SWAP4 POP DUP7 JUMPDEST DUP3 DUP2 LT ISZERO PUSH2 0x4D31 JUMPI PUSH1 0x1F NOT DUP8 DUP4 SUB ADD DUP5 MSTORE PUSH2 0x4D1F DUP3 DUP7 MLOAD PUSH2 0x4C32 JUMP JUMPDEST SWAP5 DUP7 ADD SWAP5 SWAP4 DUP7 ADD SWAP4 SWAP2 POP PUSH1 0x1 ADD PUSH2 0x4D03 JUMP JUMPDEST POP PUSH1 0x60 DUP9 ADD MLOAD SWAP6 POP DUP9 DUP2 SUB PUSH1 0x60 DUP11 ADD MSTORE PUSH2 0x4D4B DUP2 DUP8 PUSH2 0x4C03 JUMP JUMPDEST SWAP10 SWAP9 POP POP POP POP POP POP POP POP POP JUMP JUMPDEST PUSH1 0x0 DUP2 MLOAD PUSH1 0xC0 DUP5 MSTORE PUSH2 0x4D6D PUSH1 0xC0 DUP6 ADD DUP3 PUSH2 0x4C32 JUMP JUMPDEST SWAP1 POP PUSH1 0xFF PUSH1 0x20 DUP5 ADD MLOAD AND PUSH1 0x20 DUP6 ADD MSTORE PUSH2 0xFFFF PUSH1 0x40 DUP5 ADD MLOAD AND PUSH1 0x40 DUP6 ADD MSTORE PUSH1 0x60 DUP4 ADD MLOAD PUSH1 0x60 DUP6 ADD MSTORE PUSH1 0x80 DUP4 ADD MLOAD PUSH1 0x80 DUP6 ADD MSTORE PUSH1 0xA0 DUP4 ADD MLOAD DUP5 DUP3 SUB PUSH1 0xA0 DUP7 ADD MSTORE PUSH2 0x4DB5 DUP3 DUP3 PUSH2 0x4BC0 JUMP JUMPDEST SWAP6 SWAP5 POP POP POP POP POP JUMP JUMPDEST PUSH1 0x0 DUP3 MLOAD PUSH2 0x4DD0 DUP2 DUP5 PUSH1 0x20 DUP8 ADD PUSH2 0x50F4 JUMP JUMPDEST SWAP2 SWAP1 SWAP2 ADD SWAP3 SWAP2 POP POP JUMP JUMPDEST PUSH1 0x0 DUP1 DUP4 SLOAD DUP3 PUSH1 0x1 DUP3 DUP2 SHR SWAP2 POP DUP1 DUP4 AND DUP1 PUSH2 0x4DF6 JUMPI PUSH1 0x7F DUP4 AND SWAP3 POP JUMPDEST PUSH1 0x20 DUP1 DUP5 LT DUP3 EQ ISZERO PUSH2 0x4E16 JUMPI PUSH4 0x4E487B71 PUSH1 0xE0 SHL DUP8 MSTORE PUSH1 0x22 PUSH1 0x4 MSTORE PUSH1 0x24 DUP8 REVERT JUMPDEST DUP2 DUP1 ISZERO PUSH2 0x4E2A JUMPI PUSH1 0x1 DUP2 EQ PUSH2 0x4E3B JUMPI PUSH2 0x4E67 JUMP JUMPDEST PUSH1 0xFF NOT DUP7 AND DUP10 MSTORE DUP5 DUP10 ADD SWAP7 POP PUSH2 0x4E67 JUMP JUMPDEST PUSH1 0x0 DUP11 DUP2 MSTORE PUSH1 0x20 SWAP1 KECCAK256 DUP9 JUMPDEST DUP7 DUP2 LT ISZERO PUSH2 0x4E5F JUMPI DUP2 SLOAD DUP12 DUP3 ADD MSTORE SWAP1 DUP6 ADD SWAP1 DUP4 ADD PUSH2 0x4E46 JUMP JUMPDEST POP POP DUP5 DUP10 ADD SWAP7 POP JUMPDEST POP SWAP5 SWAP9 SWAP8 POP POP POP POP POP POP POP POP JUMP JUMPDEST PUSH1 0x40 DUP2 MSTORE PUSH1 0x0 PUSH2 0x4E88 PUSH1 0x40 DUP4 ADD DUP6 PUSH2 0x4BC0 JUMP JUMPDEST SWAP1 POP DUP3 PUSH1 0x20 DUP4 ADD MSTORE SWAP4 SWAP3 POP POP POP JUMP JUMPDEST PUSH1 0x20 DUP1 DUP3 MSTORE DUP3 MLOAD DUP3 DUP3 ADD DUP2 SWAP1 MSTORE PUSH1 0x0 SWAP2 SWAP1 DUP5 DUP3 ADD SWAP1 PUSH1 0x40 DUP6 ADD SWAP1 DUP5 JUMPDEST DUP2 DUP2 LT ISZERO PUSH2 0x4ECF JUMPI DUP4 MLOAD DUP4 MSTORE SWAP3 DUP5 ADD SWAP3 SWAP2 DUP5 ADD SWAP2 PUSH1 0x1 ADD PUSH2 0x4EB3 JUMP JUMPDEST POP SWAP1 SWAP7 SWAP6 POP POP POP POP POP POP JUMP JUMPDEST DUP4 DUP2 MSTORE PUSH1 0x1 PUSH1 0x1 PUSH1 0xA0 SHL SUB DUP4 AND PUSH1 0x20 DUP3 ADD MSTORE PUSH1 0x60 PUSH1 0x40 DUP3 ADD DUP2 SWAP1 MSTORE PUSH1 0x0 SWAP1 PUSH2 0x4DB5 SWAP1 DUP4 ADD DUP5 PUSH2 0x4BC0 JUMP JUMPDEST PUSH1 0x20 DUP2 MSTORE PUSH1 0x0 PUSH2 0x2E09 PUSH1 0x20 DUP4 ADD DUP5 PUSH2 0x4C32 JUMP JUMPDEST PUSH1 0x40 DUP2 MSTORE PUSH1 0x0 PUSH2 0x4F2B PUSH1 0x40 DUP4 ADD DUP6 PUSH2 0x4CAB JUMP JUMPDEST DUP3 DUP2 SUB PUSH1 0x20 DUP5 ADD MSTORE DUP4 MLOAD PUSH1 0x40 DUP3 MSTORE PUSH2 0x4F46 PUSH1 0x40 DUP4 ADD DUP3 PUSH2 0x4D58 JUMP JUMPDEST SWAP1 POP PUSH1 0x20 DUP6 ADD MLOAD PUSH1 0x20 DUP4 ADD MSTORE DUP1 SWAP3 POP POP POP SWAP4 SWAP3 POP POP POP JUMP JUMPDEST PUSH1 0x80 DUP2 MSTORE PUSH1 0x0 PUSH2 0x4F71 PUSH1 0x80 DUP4 ADD DUP8 PUSH2 0x4CAB JUMP JUMPDEST PUSH1 0x20 DUP4 DUP3 SUB DUP2 DUP6 ADD MSTORE PUSH2 0x4F84 DUP3 DUP9 PUSH2 0x4D58 JUMP JUMPDEST SWAP2 POP DUP4 DUP3 SUB PUSH1 0x40 DUP6 ADD MSTORE DUP6 MLOAD PUSH1 0x80 DUP4 MSTORE PUSH2 0x4FA1 PUSH1 0x80 DUP5 ADD DUP3 PUSH2 0x4D58 JUMP JUMPDEST SWAP1 POP DUP2 DUP8 ADD MLOAD DUP4 DUP3 SUB DUP4 DUP6 ADD MSTORE PUSH2 0x4FB8 DUP3 DUP3 PUSH2 0x4BC0 JUMP JUMPDEST PUSH1 0x40 DUP10 DUP2 ADD MLOAD ISZERO ISZERO SWAP1 DUP7 ADD MSTORE PUSH1 0x60 DUP1 DUP11 ADD MLOAD DUP7 DUP4 SUB SWAP2 SWAP1 SWAP7 ADD MSTORE DUP5 MLOAD DUP1 DUP3 MSTORE SWAP1 DUP5 ADD SWAP5 DUP5 ADD SWAP3 POP DUP6 SWAP2 POP JUMPDEST DUP1 DUP3 LT ISZERO PUSH2 0x5006 JUMPI DUP3 MLOAD PUSH1 0xFF AND DUP6 MSTORE SWAP4 DUP4 ADD SWAP4 SWAP2 DUP4 ADD SWAP2 PUSH1 0x1 SWAP2 SWAP1 SWAP2 ADD SWAP1 PUSH2 0x4FE3 JUMP JUMPDEST POP POP POP POP DUP3 DUP2 SUB PUSH1 0x60 DUP5 ADD MSTORE PUSH2 0x4082 DUP2 DUP6 PUSH2 0x4C5E JUMP JUMPDEST PUSH1 0x40 MLOAD PUSH1 0x1F DUP3 ADD PUSH1 0x1F NOT AND DUP2 ADD PUSH1 0x1 PUSH1 0x1 PUSH1 0x40 SHL SUB DUP2 GT DUP3 DUP3 LT OR ISZERO PUSH2 0x5044 JUMPI PUSH2 0x5044 PUSH2 0x51A8 JUMP JUMPDEST PUSH1 0x40 MSTORE SWAP2 SWAP1 POP JUMP JUMPDEST PUSH1 0x0 PUSH1 0x1 PUSH1 0x1 PUSH1 0x40 SHL SUB DUP3 GT ISZERO PUSH2 0x5065 JUMPI PUSH2 0x5065 PUSH2 0x51A8 JUMP JUMPDEST POP PUSH1 0x5 SHL PUSH1 0x20 ADD SWAP1 JUMP JUMPDEST PUSH1 0x0 DUP3 PUSH2 0x508A JUMPI PUSH4 0x4E487B71 PUSH1 0xE0 SHL DUP2 MSTORE PUSH1 0x12 PUSH1 0x4 MSTORE PUSH1 0x24 DUP2 REVERT JUMPDEST POP DIV SWAP1 JUMP JUMPDEST PUSH1 0x0 PUSH3 0xFFFFFF DUP1 DUP4 AND DUP2 DUP6 AND DUP2 DUP4 DIV DUP2 GT DUP3 ISZERO ISZERO AND ISZERO PUSH2 0x50B1 JUMPI PUSH2 0x50B1 PUSH2 0x5192 JUMP JUMPDEST MUL SWAP5 SWAP4 POP POP POP POP JUMP JUMPDEST PUSH1 0x0 PUSH2 0xFFFF DUP4 DUP2 AND SWAP1 DUP4 AND DUP2 DUP2 LT ISZERO PUSH2 0x50D5 JUMPI PUSH2 0x50D5 PUSH2 0x5192 JUMP JUMPDEST SUB SWAP4 SWAP3 POP POP POP JUMP JUMPDEST PUSH1 0x0 DUP3 DUP3 LT ISZERO PUSH2 0x50EF JUMPI PUSH2 0x50EF PUSH2 0x5192 JUMP JUMPDEST POP SUB SWAP1 JUMP JUMPDEST PUSH1 0x0 JUMPDEST DUP4 DUP2 LT ISZERO PUSH2 0x510F JUMPI DUP2 DUP2 ADD MLOAD DUP4 DUP3 ADD MSTORE PUSH1 0x20 ADD PUSH2 0x50F7 JUMP JUMPDEST DUP4 DUP2 GT ISZERO PUSH2 0x2D99 JUMPI POP POP PUSH1 0x0 SWAP2 ADD MSTORE JUMP JUMPDEST PUSH1 0x1 DUP2 DUP2 SHR SWAP1 DUP3 AND DUP1 PUSH2 0x5134 JUMPI PUSH1 0x7F DUP3 AND SWAP2 POP JUMPDEST PUSH1 0x20 DUP3 LT DUP2 EQ ISZERO PUSH2 0x222F JUMPI PUSH4 0x4E487B71 PUSH1 0xE0 SHL PUSH1 0x0 MSTORE PUSH1 0x22 PUSH1 0x4 MSTORE PUSH1 0x24 PUSH1 0x0 REVERT JUMPDEST PUSH1 0x0 PUSH2 0xFFFF DUP1 DUP4 AND DUP2 DUP2 EQ ISZERO PUSH2 0x516D JUMPI PUSH2 0x516D PUSH2 0x5192 JUMP JUMPDEST PUSH1 0x1 ADD SWAP4 SWAP3 POP POP POP JUMP JUMPDEST PUSH1 0x0 PUSH1 0x0 NOT DUP3 EQ ISZERO PUSH2 0x518B JUMPI PUSH2 0x518B PUSH2 0x5192 JUMP JUMPDEST POP PUSH1 0x1 ADD SWAP1 JUMP JUMPDEST PUSH4 0x4E487B71 PUSH1 0xE0 SHL PUSH1 0x0 MSTORE PUSH1 0x11 PUSH1 0x4 MSTORE PUSH1 0x24 PUSH1 0x0 REVERT JUMPDEST PUSH4 0x4E487B71 PUSH1 0xE0 SHL PUSH1 0x0 MSTORE PUSH1 0x41 PUSH1 0x4 MSTORE PUSH1 0x24 PUSH1 0x0 REVERT INVALID 0xFB SMOD CREATE 0xB6 LOG4 SWAP6 STOP EXP PUSH23 0xB84FE72725AEFA5D6B75FA4C4018F95C244048D02BA134 0xE 0x4C CHAINID KECCAK256 PUSH5 0xFF3EDD0C76 CALLCODE BLOCKHASH SELFBALANCE SHL MSTORE8 0x1E PUSH27 0x1FB5D76435E9BE70181A779056FBC9416464726573733A206C6F77 0x2D PUSH13 0x6576656C2063616C6C20776974 PUSH9 0x2076616C7565206661 PUSH10 0x6C6564E3B80DF9E89DF0 0x4C RETURN 0x49 0xBC 0xE 0xD3 0x5D 0xA6 0x2B SWAP15 0xDC BLOCKHASH DUP8 ADDMOD CODECOPY CALLER DUP3 JUMPI PUSH28 0x14C234A082D6A26469706673582212203971055CE9EB970BA334C80E SELFDESTRUCT RETURN EXTCODESIZE 0x25 PUSH11 0xCAE0AFCD2E3A9FE9FD6CF SSTORE BYTE SLOAD SLT PUSH5 0x736F6C6343 STOP ADDMOD DIV STOP CALLER PUSH1 0x80 PUSH1 0x40 MSTORE CALLVALUE DUP1 ISZERO PUSH2 0x10 JUMPI PUSH1 0x0 DUP1 REVERT JUMPDEST POP PUSH1 0x0 DUP1 SLOAD PUSH1 0x1 PUSH1 0x1 PUSH1 0xA0 SHL SUB NOT AND CALLER OR SWAP1 SSTORE PUSH2 0xCE9 DUP1 PUSH2 0x32 PUSH1 0x0 CODECOPY PUSH1 0x0 RETURN INVALID PUSH1 0x80 PUSH1 0x40 MSTORE PUSH1 0x4 CALLDATASIZE LT PUSH2 0x7F JUMPI PUSH1 0x0 CALLDATALOAD PUSH1 0xE0 SHR DUP1 PUSH4 0x98BA1D46 GT PUSH2 0x4E JUMPI DUP1 PUSH4 0x98BA1D46 EQ PUSH2 0x15F JUMPI DUP1 PUSH4 0xBC197C81 EQ PUSH2 0x17A JUMPI DUP1 PUSH4 0xD0E30DB0 EQ PUSH2 0x1BF JUMPI DUP1 PUSH4 0xF23A6E61 EQ PUSH2 0x1C7 JUMPI PUSH1 0x0 DUP1 REVERT JUMPDEST DUP1 PUSH4 0x1FFC9A7 EQ PUSH2 0xC0 JUMPI DUP1 PUSH4 0x1826C119 EQ PUSH2 0xF5 JUMPI DUP1 PUSH4 0x88BDE015 EQ PUSH2 0x117 JUMPI DUP1 PUSH4 0x8DA5CB5B EQ PUSH2 0x137 JUMPI PUSH1 0x0 DUP1 REVERT JUMPDEST CALLDATASIZE PUSH2 0xBB JUMPI PUSH1 0x40 MLOAD CALLVALUE DUP2 MSTORE CALLER SWAP1 PUSH32 0x66FF7C8F71CCC7C36152A41920D0D3B46EF3034359F76AA1498ED4478C204B5C SWAP1 PUSH1 0x20 ADD PUSH1 0x40 MLOAD DUP1 SWAP2 SUB SWAP1 LOG2 STOP JUMPDEST PUSH1 0x0 DUP1 REVERT JUMPDEST CALLVALUE DUP1 ISZERO PUSH2 0xCC JUMPI PUSH1 0x0 DUP1 REVERT JUMPDEST POP PUSH2 0xE0 PUSH2 0xDB CALLDATASIZE PUSH1 0x4 PUSH2 0xB35 JUMP JUMPDEST PUSH2 0x1F3 JUMP JUMPDEST PUSH1 0x40 MLOAD SWAP1 ISZERO ISZERO DUP2 MSTORE PUSH1 0x20 ADD JUMPDEST PUSH1 0x40 MLOAD DUP1 SWAP2 SUB SWAP1 RETURN JUMPDEST CALLVALUE DUP1 ISZERO PUSH2 0x101 JUMPI PUSH1 0x0 DUP1 REVERT JUMPDEST POP PUSH2 0x115 PUSH2 0x110 CALLDATASIZE PUSH1 0x4 PUSH2 0xAF2 JUMP JUMPDEST PUSH2 0x22A JUMP JUMPDEST STOP JUMPDEST CALLVALUE DUP1 ISZERO PUSH2 0x123 JUMPI PUSH1 0x0 DUP1 REVERT JUMPDEST POP PUSH2 0x115 PUSH2 0x132 CALLDATASIZE PUSH1 0x4 PUSH2 0x9FD JUMP JUMPDEST PUSH2 0x2FE JUMP JUMPDEST CALLVALUE DUP1 ISZERO PUSH2 0x143 JUMPI PUSH1 0x0 DUP1 REVERT JUMPDEST POP PUSH1 0x0 SLOAD PUSH1 0x40 MLOAD PUSH1 0x1 PUSH1 0x1 PUSH1 0xA0 SHL SUB SWAP1 SWAP2 AND DUP2 MSTORE PUSH1 0x20 ADD PUSH2 0xEC JUMP JUMPDEST CALLVALUE DUP1 ISZERO PUSH2 0x16B JUMPI PUSH1 0x0 DUP1 REVERT JUMPDEST POP PUSH1 0x40 MLOAD SELFBALANCE DUP2 MSTORE PUSH1 0x20 ADD PUSH2 0xEC JUMP JUMPDEST CALLVALUE DUP1 ISZERO PUSH2 0x186 JUMPI PUSH1 0x0 DUP1 REVERT JUMPDEST POP PUSH2 0x1A6 PUSH2 0x195 CALLDATASIZE PUSH1 0x4 PUSH2 0x8F4 JUMP JUMPDEST PUSH4 0xBC197C81 PUSH1 0xE0 SHL SWAP6 SWAP5 POP POP POP POP POP JUMP JUMPDEST PUSH1 0x40 MLOAD PUSH1 0x1 PUSH1 0x1 PUSH1 0xE0 SHL SUB NOT SWAP1 SWAP2 AND DUP2 MSTORE PUSH1 0x20 ADD PUSH2 0xEC JUMP JUMPDEST PUSH2 0x115 PUSH2 0x405 JUMP JUMPDEST CALLVALUE DUP1 ISZERO PUSH2 0x1D3 JUMPI PUSH1 0x0 DUP1 REVERT JUMPDEST POP PUSH2 0x1A6 PUSH2 0x1E2 CALLDATASIZE PUSH1 0x4 PUSH2 0x99A JUMP JUMPDEST PUSH4 0xF23A6E61 PUSH1 0xE0 SHL SWAP6 SWAP5 POP POP POP POP POP JUMP JUMPDEST PUSH1 0x0 PUSH1 0x1 PUSH1 0x1 PUSH1 0xE0 SHL SUB NOT DUP3 AND PUSH4 0x2711897 PUSH1 0xE5 SHL EQ DUP1 PUSH2 0x224 JUMPI POP PUSH4 0x1FFC9A7 PUSH1 0xE0 SHL PUSH1 0x1 PUSH1 0x1 PUSH1 0xE0 SHL SUB NOT DUP4 AND EQ JUMPDEST SWAP3 SWAP2 POP POP JUMP JUMPDEST CALLER PUSH2 0x23D PUSH1 0x0 SLOAD PUSH1 0x1 PUSH1 0x1 PUSH1 0xA0 SHL SUB AND SWAP1 JUMP JUMPDEST PUSH1 0x1 PUSH1 0x1 PUSH1 0xA0 SHL SUB AND EQ PUSH2 0x298 JUMPI PUSH1 0x40 MLOAD PUSH3 0x461BCD PUSH1 0xE5 SHL DUP2 MSTORE PUSH1 0x20 PUSH1 0x4 DUP3 ADD MSTORE PUSH1 0x1E PUSH1 0x24 DUP3 ADD MSTORE PUSH32 0x4F776E65643A2063616C6C6572206973206E6F7420746865206F776E65720000 PUSH1 0x44 DUP3 ADD MSTORE PUSH1 0x64 ADD JUMPDEST PUSH1 0x40 MLOAD DUP1 SWAP2 SUB SWAP1 REVERT JUMPDEST PUSH1 0x0 DUP3 MLOAD DUP3 PUSH2 0x2A7 SWAP2 SWAP1 PUSH2 0xC01 JUMP JUMPDEST SWAP1 POP PUSH1 0x0 JUMPDEST DUP4 MLOAD DUP2 LT ISZERO PUSH2 0x2F8 JUMPI PUSH2 0x2E6 DUP3 DUP6 DUP4 DUP2 MLOAD DUP2 LT PUSH2 0x2D9 JUMPI PUSH4 0x4E487B71 PUSH1 0xE0 SHL PUSH1 0x0 MSTORE PUSH1 0x32 PUSH1 0x4 MSTORE PUSH1 0x24 PUSH1 0x0 REVERT JUMPDEST PUSH1 0x20 MUL PUSH1 0x20 ADD ADD MLOAD PUSH2 0x43C JUMP JUMPDEST DUP1 PUSH2 0x2F0 DUP2 PUSH2 0xC4D JUMP JUMPDEST SWAP2 POP POP PUSH2 0x2AC JUMP JUMPDEST POP POP POP POP JUMP JUMPDEST CALLER PUSH2 0x311 PUSH1 0x0 SLOAD PUSH1 0x1 PUSH1 0x1 PUSH1 0xA0 SHL SUB AND SWAP1 JUMP JUMPDEST PUSH1 0x1 PUSH1 0x1 PUSH1 0xA0 SHL SUB AND EQ PUSH2 0x367 JUMPI PUSH1 0x40 MLOAD PUSH3 0x461BCD PUSH1 0xE5 SHL DUP2 MSTORE PUSH1 0x20 PUSH1 0x4 DUP3 ADD MSTORE PUSH1 0x1E PUSH1 0x24 DUP3 ADD MSTORE PUSH32 0x4F776E65643A2063616C6C6572206973206E6F7420746865206F776E65720000 PUSH1 0x44 DUP3 ADD MSTORE PUSH1 0x64 ADD PUSH2 0x28F JUMP JUMPDEST PUSH1 0x0 JUMPDEST DUP4 MLOAD DUP2 LT ISZERO PUSH2 0x2F8 JUMPI PUSH2 0x3F3 DUP5 DUP3 DUP2 MLOAD DUP2 LT PUSH2 0x396 JUMPI PUSH4 0x4E487B71 PUSH1 0xE0 SHL PUSH1 0x0 MSTORE PUSH1 0x32 PUSH1 0x4 MSTORE PUSH1 0x24 PUSH1 0x0 REVERT JUMPDEST PUSH1 0x20 MUL PUSH1 0x20 ADD ADD MLOAD DUP5 DUP4 DUP2 MLOAD DUP2 LT PUSH2 0x3BE JUMPI PUSH4 0x4E487B71 PUSH1 0xE0 SHL PUSH1 0x0 MSTORE PUSH1 0x32 PUSH1 0x4 MSTORE PUSH1 0x24 PUSH1 0x0 REVERT JUMPDEST PUSH1 0x20 MUL PUSH1 0x20 ADD ADD MLOAD DUP5 DUP5 DUP2 MLOAD DUP2 LT PUSH2 0x3E6 JUMPI PUSH4 0x4E487B71 PUSH1 0xE0 SHL PUSH1 0x0 MSTORE PUSH1 0x32 PUSH1 0x4 MSTORE PUSH1 0x24 PUSH1 0x0 REVERT JUMPDEST PUSH1 0x20 MUL PUSH1 0x20 ADD ADD MLOAD PUSH2 0x49C JUMP JUMPDEST DUP1 PUSH2 0x3FD DUP2 PUSH2 0xC4D JUMP JUMPDEST SWAP2 POP POP PUSH2 0x36A JUMP JUMPDEST PUSH1 0x40 MLOAD CALLVALUE DUP2 MSTORE CALLER SWAP1 PUSH32 0x66FF7C8F71CCC7C36152A41920D0D3B46EF3034359F76AA1498ED4478C204B5C SWAP1 PUSH1 0x20 ADD PUSH1 0x40 MLOAD DUP1 SWAP2 SUB SWAP1 LOG2 JUMP JUMPDEST DUP2 SELFBALANCE DUP2 GT ISZERO PUSH2 0x44A JUMPI PUSH1 0x0 DUP1 REVERT JUMPDEST DUP2 PUSH1 0x1 PUSH1 0x1 PUSH1 0xA0 SHL SUB AND PUSH32 0x4BD02E6E14D9C1417BA3582A754B1124AD2FBE11AD4CEE6B51D08EBADFC0792 DUP5 PUSH1 0x40 MLOAD PUSH2 0x485 SWAP2 DUP2 MSTORE PUSH1 0x20 ADD SWAP1 JUMP JUMPDEST PUSH1 0x40 MLOAD DUP1 SWAP2 SUB SWAP1 LOG2 PUSH2 0x497 DUP3 DUP5 PUSH2 0x4F0 JUMP JUMPDEST POP POP POP JUMP JUMPDEST PUSH2 0x4A7 DUP4 DUP4 DUP4 PUSH2 0x609 JUMP JUMPDEST POP DUP3 PUSH1 0x1 PUSH1 0x1 PUSH1 0xA0 SHL SUB AND PUSH32 0x4BD02E6E14D9C1417BA3582A754B1124AD2FBE11AD4CEE6B51D08EBADFC0792 DUP3 PUSH1 0x40 MLOAD PUSH2 0x4E3 SWAP2 DUP2 MSTORE PUSH1 0x20 ADD SWAP1 JUMP JUMPDEST PUSH1 0x40 MLOAD DUP1 SWAP2 SUB SWAP1 LOG2 POP POP POP JUMP JUMPDEST DUP1 SELFBALANCE LT ISZERO PUSH2 0x540 JUMPI PUSH1 0x40 MLOAD PUSH3 0x461BCD PUSH1 0xE5 SHL DUP2 MSTORE PUSH1 0x20 PUSH1 0x4 DUP3 ADD MSTORE PUSH1 0x1D PUSH1 0x24 DUP3 ADD MSTORE PUSH32 0x416464726573733A20696E73756666696369656E742062616C616E6365000000 PUSH1 0x44 DUP3 ADD MSTORE PUSH1 0x64 ADD PUSH2 0x28F JUMP JUMPDEST PUSH1 0x0 DUP3 PUSH1 0x1 PUSH1 0x1 PUSH1 0xA0 SHL SUB AND DUP3 PUSH1 0x40 MLOAD PUSH1 0x0 PUSH1 0x40 MLOAD DUP1 DUP4 SUB DUP2 DUP6 DUP8 GAS CALL SWAP3 POP POP POP RETURNDATASIZE DUP1 PUSH1 0x0 DUP2 EQ PUSH2 0x58D JUMPI PUSH1 0x40 MLOAD SWAP2 POP PUSH1 0x1F NOT PUSH1 0x3F RETURNDATASIZE ADD AND DUP3 ADD PUSH1 0x40 MSTORE RETURNDATASIZE DUP3 MSTORE RETURNDATASIZE PUSH1 0x0 PUSH1 0x20 DUP5 ADD RETURNDATACOPY PUSH2 0x592 JUMP JUMPDEST PUSH1 0x60 SWAP2 POP JUMPDEST POP POP SWAP1 POP DUP1 PUSH2 0x497 JUMPI PUSH1 0x40 MLOAD PUSH3 0x461BCD PUSH1 0xE5 SHL DUP2 MSTORE PUSH1 0x20 PUSH1 0x4 DUP3 ADD MSTORE PUSH1 0x3A PUSH1 0x24 DUP3 ADD MSTORE PUSH32 0x416464726573733A20756E61626C6520746F2073656E642076616C75652C2072 PUSH1 0x44 DUP3 ADD MSTORE PUSH32 0x6563697069656E74206D61792068617665207265766572746564000000000000 PUSH1 0x64 DUP3 ADD MSTORE PUSH1 0x84 ADD PUSH2 0x28F JUMP JUMPDEST PUSH1 0x60 PUSH2 0x62F DUP5 DUP5 DUP5 PUSH1 0x40 MLOAD DUP1 PUSH1 0x60 ADD PUSH1 0x40 MSTORE DUP1 PUSH1 0x29 DUP2 MSTORE PUSH1 0x20 ADD PUSH2 0xC8B PUSH1 0x29 SWAP2 CODECOPY PUSH2 0x639 JUMP JUMPDEST SWAP1 POP JUMPDEST SWAP4 SWAP3 POP POP POP JUMP JUMPDEST PUSH1 0x60 DUP3 SELFBALANCE LT ISZERO PUSH2 0x69A JUMPI PUSH1 0x40 MLOAD PUSH3 0x461BCD PUSH1 0xE5 SHL DUP2 MSTORE PUSH1 0x20 PUSH1 0x4 DUP3 ADD MSTORE PUSH1 0x26 PUSH1 0x24 DUP3 ADD MSTORE PUSH32 0x416464726573733A20696E73756666696369656E742062616C616E636520666F PUSH1 0x44 DUP3 ADD MSTORE PUSH6 0x1C8818D85B1B PUSH1 0xD2 SHL PUSH1 0x64 DUP3 ADD MSTORE PUSH1 0x84 ADD PUSH2 0x28F JUMP JUMPDEST DUP5 EXTCODESIZE PUSH2 0x6E8 JUMPI PUSH1 0x40 MLOAD PUSH3 0x461BCD PUSH1 0xE5 SHL DUP2 MSTORE PUSH1 0x20 PUSH1 0x4 DUP3 ADD MSTORE PUSH1 0x1D PUSH1 0x24 DUP3 ADD MSTORE PUSH32 0x416464726573733A2063616C6C20746F206E6F6E2D636F6E7472616374000000 PUSH1 0x44 DUP3 ADD MSTORE PUSH1 0x64 ADD PUSH2 0x28F JUMP JUMPDEST PUSH1 0x0 DUP1 DUP7 PUSH1 0x1 PUSH1 0x1 PUSH1 0xA0 SHL SUB AND DUP6 DUP8 PUSH1 0x40 MLOAD PUSH2 0x704 SWAP2 SWAP1 PUSH2 0xB5D JUMP JUMPDEST PUSH1 0x0 PUSH1 0x40 MLOAD DUP1 DUP4 SUB DUP2 DUP6 DUP8 GAS CALL SWAP3 POP POP POP RETURNDATASIZE DUP1 PUSH1 0x0 DUP2 EQ PUSH2 0x741 JUMPI PUSH1 0x40 MLOAD SWAP2 POP PUSH1 0x1F NOT PUSH1 0x3F RETURNDATASIZE ADD AND DUP3 ADD PUSH1 0x40 MSTORE RETURNDATASIZE DUP3 MSTORE RETURNDATASIZE PUSH1 0x0 PUSH1 0x20 DUP5 ADD RETURNDATACOPY PUSH2 0x746 JUMP JUMPDEST PUSH1 0x60 SWAP2 POP JUMPDEST POP SWAP2 POP SWAP2 POP PUSH2 0x756 DUP3 DUP3 DUP7 PUSH2 0x761 JUMP JUMPDEST SWAP8 SWAP7 POP POP POP POP POP POP POP JUMP JUMPDEST PUSH1 0x60 DUP4 ISZERO PUSH2 0x770 JUMPI POP DUP2 PUSH2 0x632 JUMP JUMPDEST DUP3 MLOAD ISZERO PUSH2 0x780 JUMPI DUP3 MLOAD DUP1 DUP5 PUSH1 0x20 ADD REVERT JUMPDEST DUP2 PUSH1 0x40 MLOAD PUSH3 0x461BCD PUSH1 0xE5 SHL DUP2 MSTORE PUSH1 0x4 ADD PUSH2 0x28F SWAP2 SWAP1 PUSH2 0xB79 JUMP JUMPDEST DUP1 CALLDATALOAD PUSH1 0x1 PUSH1 0x1 PUSH1 0xA0 SHL SUB DUP2 AND DUP2 EQ PUSH2 0x7B1 JUMPI PUSH1 0x0 DUP1 REVERT JUMPDEST SWAP2 SWAP1 POP JUMP JUMPDEST PUSH1 0x0 DUP3 PUSH1 0x1F DUP4 ADD SLT PUSH2 0x7C6 JUMPI DUP1 DUP2 REVERT JUMPDEST DUP2 CALLDATALOAD PUSH1 0x20 PUSH2 0x7DB PUSH2 0x7D6 DUP4 PUSH2 0xBDD JUMP JUMPDEST PUSH2 0xBAC JUMP JUMPDEST DUP1 DUP4 DUP3 MSTORE DUP3 DUP3 ADD SWAP2 POP DUP3 DUP7 ADD DUP8 DUP5 DUP7 PUSH1 0x5 SHL DUP10 ADD ADD GT ISZERO PUSH2 0x7FA JUMPI DUP6 DUP7 REVERT JUMPDEST DUP6 JUMPDEST DUP6 DUP2 LT ISZERO PUSH2 0x81F JUMPI PUSH2 0x80D DUP3 PUSH2 0x79A JUMP JUMPDEST DUP5 MSTORE SWAP3 DUP5 ADD SWAP3 SWAP1 DUP5 ADD SWAP1 PUSH1 0x1 ADD PUSH2 0x7FC JUMP JUMPDEST POP SWAP1 SWAP8 SWAP7 POP POP POP POP POP POP POP JUMP JUMPDEST PUSH1 0x0 DUP3 PUSH1 0x1F DUP4 ADD SLT PUSH2 0x83C JUMPI DUP1 DUP2 REVERT JUMPDEST DUP2 CALLDATALOAD PUSH1 0x20 PUSH2 0x84C PUSH2 0x7D6 DUP4 PUSH2 0xBDD JUMP JUMPDEST DUP1 DUP4 DUP3 MSTORE DUP3 DUP3 ADD SWAP2 POP DUP3 DUP7 ADD DUP8 DUP5 DUP7 PUSH1 0x5 SHL DUP10 ADD ADD GT ISZERO PUSH2 0x86B JUMPI DUP6 DUP7 REVERT JUMPDEST DUP6 JUMPDEST DUP6 DUP2 LT ISZERO PUSH2 0x81F JUMPI DUP2 CALLDATALOAD DUP5 MSTORE SWAP3 DUP5 ADD SWAP3 SWAP1 DUP5 ADD SWAP1 PUSH1 0x1 ADD PUSH2 0x86D JUMP JUMPDEST PUSH1 0x0 DUP3 PUSH1 0x1F DUP4 ADD SLT PUSH2 0x899 JUMPI DUP1 DUP2 REVERT JUMPDEST DUP2 CALLDATALOAD PUSH8 0xFFFFFFFFFFFFFFFF DUP2 GT ISZERO PUSH2 0x8B3 JUMPI PUSH2 0x8B3 PUSH2 0xC74 JUMP JUMPDEST PUSH2 0x8C6 PUSH1 0x1F DUP3 ADD PUSH1 0x1F NOT AND PUSH1 0x20 ADD PUSH2 0xBAC JUMP JUMPDEST DUP2 DUP2 MSTORE DUP5 PUSH1 0x20 DUP4 DUP7 ADD ADD GT ISZERO PUSH2 0x8DA JUMPI DUP3 DUP4 REVERT JUMPDEST DUP2 PUSH1 0x20 DUP6 ADD PUSH1 0x20 DUP4 ADD CALLDATACOPY SWAP1 DUP2 ADD PUSH1 0x20 ADD SWAP2 SWAP1 SWAP2 MSTORE SWAP3 SWAP2 POP POP JUMP JUMPDEST PUSH1 0x0 DUP1 PUSH1 0x0 DUP1 PUSH1 0x0 PUSH1 0xA0 DUP7 DUP9 SUB SLT ISZERO PUSH2 0x90B JUMPI DUP1 DUP2 REVERT JUMPDEST PUSH2 0x914 DUP7 PUSH2 0x79A JUMP JUMPDEST SWAP5 POP PUSH2 0x922 PUSH1 0x20 DUP8 ADD PUSH2 0x79A JUMP JUMPDEST SWAP4 POP PUSH1 0x40 DUP7 ADD CALLDATALOAD PUSH8 0xFFFFFFFFFFFFFFFF DUP1 DUP3 GT ISZERO PUSH2 0x93E JUMPI DUP3 DUP4 REVERT JUMPDEST PUSH2 0x94A DUP10 DUP4 DUP11 ADD PUSH2 0x82C JUMP JUMPDEST SWAP5 POP PUSH1 0x60 DUP9 ADD CALLDATALOAD SWAP2 POP DUP1 DUP3 GT ISZERO PUSH2 0x95F JUMPI DUP3 DUP4 REVERT JUMPDEST PUSH2 0x96B DUP10 DUP4 DUP11 ADD PUSH2 0x82C JUMP JUMPDEST SWAP4 POP PUSH1 0x80 DUP9 ADD CALLDATALOAD SWAP2 POP DUP1 DUP3 GT ISZERO PUSH2 0x980 JUMPI DUP3 DUP4 REVERT JUMPDEST POP PUSH2 0x98D DUP9 DUP3 DUP10 ADD PUSH2 0x889 JUMP JUMPDEST SWAP2 POP POP SWAP3 SWAP6 POP SWAP3 SWAP6 SWAP1 SWAP4 POP JUMP JUMPDEST PUSH1 0x0 DUP1 PUSH1 0x0 DUP1 PUSH1 0x0 PUSH1 0xA0 DUP7 DUP9 SUB SLT ISZERO PUSH2 0x9B1 JUMPI DUP1 DUP2 REVERT JUMPDEST PUSH2 0x9BA DUP7 PUSH2 0x79A JUMP JUMPDEST SWAP5 POP PUSH2 0x9C8 PUSH1 0x20 DUP8 ADD PUSH2 0x79A JUMP JUMPDEST SWAP4 POP PUSH1 0x40 DUP7 ADD CALLDATALOAD SWAP3 POP PUSH1 0x60 DUP7 ADD CALLDATALOAD SWAP2 POP PUSH1 0x80 DUP7 ADD CALLDATALOAD PUSH8 0xFFFFFFFFFFFFFFFF DUP2 GT ISZERO PUSH2 0x9F1 JUMPI DUP2 DUP3 REVERT JUMPDEST PUSH2 0x98D DUP9 DUP3 DUP10 ADD PUSH2 0x889 JUMP JUMPDEST PUSH1 0x0 DUP1 PUSH1 0x0 PUSH1 0x60 DUP5 DUP7 SUB SLT ISZERO PUSH2 0xA11 JUMPI DUP3 DUP4 REVERT JUMPDEST DUP4 CALLDATALOAD PUSH8 0xFFFFFFFFFFFFFFFF DUP1 DUP3 GT ISZERO PUSH2 0xA28 JUMPI DUP5 DUP6 REVERT JUMPDEST PUSH2 0xA34 DUP8 DUP4 DUP9 ADD PUSH2 0x7B6 JUMP JUMPDEST SWAP5 POP PUSH1 0x20 SWAP2 POP DUP2 DUP7 ADD CALLDATALOAD DUP2 DUP2 GT ISZERO PUSH2 0xA4A JUMPI DUP5 DUP6 REVERT JUMPDEST DUP7 ADD PUSH1 0x1F DUP2 ADD DUP9 SGT PUSH2 0xA5A JUMPI DUP5 DUP6 REVERT JUMPDEST DUP1 CALLDATALOAD PUSH2 0xA68 PUSH2 0x7D6 DUP3 PUSH2 0xBDD JUMP JUMPDEST DUP1 DUP3 DUP3 MSTORE DUP6 DUP3 ADD SWAP2 POP DUP6 DUP5 ADD DUP12 DUP8 DUP6 PUSH1 0x5 SHL DUP8 ADD ADD GT ISZERO PUSH2 0xA87 JUMPI DUP9 DUP10 REVERT JUMPDEST DUP9 JUMPDEST DUP5 DUP2 LT ISZERO PUSH2 0xAC0 JUMPI DUP2 CALLDATALOAD DUP8 DUP2 GT ISZERO PUSH2 0xA9F JUMPI DUP11 DUP12 REVERT JUMPDEST PUSH2 0xAAD DUP15 DUP11 DUP4 DUP11 ADD ADD PUSH2 0x889 JUMP JUMPDEST DUP6 MSTORE POP SWAP3 DUP8 ADD SWAP3 SWAP1 DUP8 ADD SWAP1 PUSH1 0x1 ADD PUSH2 0xA89 JUMP JUMPDEST POP SWAP1 SWAP8 POP POP POP POP PUSH1 0x40 DUP8 ADD CALLDATALOAD SWAP3 POP POP DUP1 DUP3 GT ISZERO PUSH2 0xADB JUMPI DUP3 DUP4 REVERT JUMPDEST POP PUSH2 0xAE8 DUP7 DUP3 DUP8 ADD PUSH2 0x82C JUMP JUMPDEST SWAP2 POP POP SWAP3 POP SWAP3 POP SWAP3 JUMP JUMPDEST PUSH1 0x0 DUP1 PUSH1 0x40 DUP4 DUP6 SUB SLT ISZERO PUSH2 0xB04 JUMPI DUP2 DUP3 REVERT JUMPDEST DUP3 CALLDATALOAD PUSH8 0xFFFFFFFFFFFFFFFF DUP2 GT ISZERO PUSH2 0xB1A JUMPI DUP3 DUP4 REVERT JUMPDEST PUSH2 0xB26 DUP6 DUP3 DUP7 ADD PUSH2 0x7B6 JUMP JUMPDEST SWAP6 PUSH1 0x20 SWAP5 SWAP1 SWAP5 ADD CALLDATALOAD SWAP5 POP POP POP POP JUMP JUMPDEST PUSH1 0x0 PUSH1 0x20 DUP3 DUP5 SUB SLT ISZERO PUSH2 0xB46 JUMPI DUP1 DUP2 REVERT JUMPDEST DUP2 CALLDATALOAD PUSH1 0x1 PUSH1 0x1 PUSH1 0xE0 SHL SUB NOT DUP2 AND DUP2 EQ PUSH2 0x632 JUMPI DUP2 DUP3 REVERT JUMPDEST PUSH1 0x0 DUP3 MLOAD PUSH2 0xB6F DUP2 DUP5 PUSH1 0x20 DUP8 ADD PUSH2 0xC21 JUMP JUMPDEST SWAP2 SWAP1 SWAP2 ADD SWAP3 SWAP2 POP POP JUMP JUMPDEST PUSH1 0x20 DUP2 MSTORE PUSH1 0x0 DUP3 MLOAD DUP1 PUSH1 0x20 DUP5 ADD MSTORE PUSH2 0xB98 DUP2 PUSH1 0x40 DUP6 ADD PUSH1 0x20 DUP8 ADD PUSH2 0xC21 JUMP JUMPDEST PUSH1 0x1F ADD PUSH1 0x1F NOT AND SWAP2 SWAP1 SWAP2 ADD PUSH1 0x40 ADD SWAP3 SWAP2 POP POP JUMP JUMPDEST PUSH1 0x40 MLOAD PUSH1 0x1F DUP3 ADD PUSH1 0x1F NOT AND DUP2 ADD PUSH8 0xFFFFFFFFFFFFFFFF DUP2 GT DUP3 DUP3 LT OR ISZERO PUSH2 0xBD5 JUMPI PUSH2 0xBD5 PUSH2 0xC74 JUMP JUMPDEST PUSH1 0x40 MSTORE SWAP2 SWAP1 POP JUMP JUMPDEST PUSH1 0x0 PUSH8 0xFFFFFFFFFFFFFFFF DUP3 GT ISZERO PUSH2 0xBF7 JUMPI PUSH2 0xBF7 PUSH2 0xC74 JUMP JUMPDEST POP PUSH1 0x5 SHL PUSH1 0x20 ADD SWAP1 JUMP JUMPDEST PUSH1 0x0 DUP3 PUSH2 0xC1C JUMPI PUSH4 0x4E487B71 PUSH1 0xE0 SHL DUP2 MSTORE PUSH1 0x12 PUSH1 0x4 MSTORE PUSH1 0x24 DUP2 REVERT JUMPDEST POP DIV SWAP1 JUMP JUMPDEST PUSH1 0x0 JUMPDEST DUP4 DUP2 LT ISZERO PUSH2 0xC3C JUMPI DUP2 DUP2 ADD MLOAD DUP4 DUP3 ADD MSTORE PUSH1 0x20 ADD PUSH2 0xC24 JUMP JUMPDEST DUP4 DUP2 GT ISZERO PUSH2 0x2F8 JUMPI POP POP PUSH1 0x0 SWAP2 ADD MSTORE JUMP JUMPDEST PUSH1 0x0 PUSH1 0x0 NOT DUP3 EQ ISZERO PUSH2 0xC6D JUMPI PUSH4 0x4E487B71 PUSH1 0xE0 SHL DUP2 MSTORE PUSH1 0x11 PUSH1 0x4 MSTORE PUSH1 0x24 DUP2 REVERT JUMPDEST POP PUSH1 0x1 ADD SWAP1 JUMP JUMPDEST PUSH4 0x4E487B71 PUSH1 0xE0 SHL PUSH1 0x0 MSTORE PUSH1 0x41 PUSH1 0x4 MSTORE PUSH1 0x24 PUSH1 0x0 REVERT INVALID COINBASE PUSH5 0x6472657373 GASPRICE KECCAK256 PUSH13 0x6F772D6C6576656C2063616C6C KECCAK256 PUSH24 0x6974682076616C7565206661696C6564A264697066735822 SLT KECCAK256 0xE4 PUSH2 0xE794 DUP6 0xC9 0xAB DUP13 SWAP1 LOG3 BALANCE 0xD6 0xC6 0xB5 PUSH25 0x11905BBF96DD67955D8C1AD1E655BFAD2064736F6C63430008 DIV STOP CALLER "
		},
		"gasEstimates": {
			"creation": {
				"codeDepositCost": "4223400",
				"executionCost": "infinite",
				"totalCost": "infinite"
			},
			"external": {
				"check_balance()": "290",
				"check_members()": "infinite",
				"create_department_dproposal(uint256,bytes,uint8,uint256)": "infinite",
				"create_department_tproposal(uint256,bytes,uint8,address[],bytes[],uint256[])": "infinite",
				"create_governance_proposal(bytes,uint8)": "infinite",
				"create_management_proposal(bytes,uint8,address[],bool,uint8[])": "infinite",
				"create_move_proposal(bytes,uint8,address,uint8,uint8)": "infinite",
				"create_transaction_proposal(bytes,uint8,address[],bytes[],uint256[])": "infinite",
				"department_vote(uint256,uint16)": "infinite",
				"deposit()": "1667",
				"execute(uint16)": "infinite",
				"execute_department_proposal(uint256,uint16)": "infinite",
				"get_department_info(uint256)": "infinite",
				"get_department_proposal(uint256,uint16)": "infinite",
				"get_proposal(uint16)": "infinite",
				"is_department_member(uint256,address)": "infinite",
				"onERC1155BatchReceived(address,address,uint256[],uint256[],bytes)": "infinite",
				"onERC1155Received(address,address,uint256,uint256,bytes)": "infinite",
				"remove_department_proposal(uint256,uint16)": "infinite",
				"remove_proposal(uint16)": "infinite",
				"supportsInterface(bytes4)": "450",
				"vote(uint16)": "infinite"
			}
		},
		"methodIdentifiers": {
			"check_balance()": "98ba1d46",
			"check_members()": "3e08602c",
			"create_department_dproposal(uint256,bytes,uint8,uint256)": "5b4693b9",
			"create_department_tproposal(uint256,bytes,uint8,address[],bytes[],uint256[])": "23850315",
			"create_governance_proposal(bytes,uint8)": "1279a374",
			"create_management_proposal(bytes,uint8,address[],bool,uint8[])": "48eccc2c",
			"create_move_proposal(bytes,uint8,address,uint8,uint8)": "c696709c",
			"create_transaction_proposal(bytes,uint8,address[],bytes[],uint256[])": "49041d3e",
			"department_vote(uint256,uint16)": "f492935b",
			"deposit()": "d0e30db0",
			"execute(uint16)": "edbc28df",
			"execute_department_proposal(uint256,uint16)": "ba87146a",
			"get_department_info(uint256)": "269d6e71",
			"get_department_proposal(uint256,uint16)": "f5d77adf",
			"get_proposal(uint16)": "267044e5",
			"is_department_member(uint256,address)": "9a7eabc6",
			"onERC1155BatchReceived(address,address,uint256[],uint256[],bytes)": "bc197c81",
			"onERC1155Received(address,address,uint256,uint256,bytes)": "f23a6e61",
			"remove_department_proposal(uint256,uint16)": "caa39817",
			"remove_proposal(uint16)": "d537b060",
			"supportsInterface(bytes4)": "01ffc9a7",
			"vote(uint16)": "ddb6e116"
		}
	},
	"abi": [
		{
			"inputs": [],
			"stateMutability": "nonpayable",
			"type": "constructor"
		},
		{
			"anonymous": false,
			"inputs": [
				{
					"indexed": true,
					"internalType": "address",
					"name": "from",
					"type": "address"
				},
				{
					"indexed": false,
					"internalType": "uint256",
					"name": "value",
					"type": "uint256"
				}
			],
			"name": "EthDeposited",
			"type": "event"
		},
		{
			"anonymous": false,
			"inputs": [
				{
					"indexed": true,
					"internalType": "address",
					"name": "to",
					"type": "address"
				},
				{
					"indexed": false,
					"internalType": "uint256",
					"name": "value",
					"type": "uint256"
				}
			],
			"name": "EthTransfered",
			"type": "event"
		},
		{
			"anonymous": false,
			"inputs": [
				{
					"indexed": true,
					"internalType": "bytes",
					"name": "name",
					"type": "bytes"
				},
				{
					"indexed": true,
					"internalType": "uint16",
					"name": "id",
					"type": "uint16"
				},
				{
					"indexed": false,
					"internalType": "uint8",
					"name": "lifespan",
					"type": "uint8"
				},
				{
					"indexed": false,
					"internalType": "uint256",
					"name": "timestamp",
					"type": "uint256"
				}
			],
			"name": "ProposalCreated",
			"type": "event"
		},
		{
			"anonymous": false,
			"inputs": [
				{
					"indexed": true,
					"internalType": "bytes",
					"name": "name",
					"type": "bytes"
				},
				{
					"indexed": false,
					"internalType": "uint16",
					"name": "id",
					"type": "uint16"
				}
			],
			"name": "ProposalExecuted",
			"type": "event"
		},
		{
			"anonymous": false,
			"inputs": [
				{
					"indexed": true,
					"internalType": "bytes",
					"name": "name",
					"type": "bytes"
				},
				{
					"indexed": true,
					"internalType": "uint16",
					"name": "id",
					"type": "uint16"
				}
			],
			"name": "ProposalRemoved",
			"type": "event"
		},
		{
			"anonymous": false,
			"inputs": [
				{
					"indexed": true,
					"internalType": "bytes",
					"name": "name",
					"type": "bytes"
				},
				{
					"indexed": true,
					"internalType": "uint16",
					"name": "id",
					"type": "uint16"
				},
				{
					"indexed": true,
					"internalType": "address",
					"name": "voter",
					"type": "address"
				}
			],
			"name": "VoteCast",
			"type": "event"
		},
		{
			"inputs": [],
			"name": "check_balance",
			"outputs": [
				{
					"internalType": "uint256",
					"name": "",
					"type": "uint256"
				}
			],
			"stateMutability": "view",
			"type": "function"
		},
		{
			"inputs": [],
			"name": "check_members",
			"outputs": [
				{
					"internalType": "bytes32[]",
					"name": "",
					"type": "bytes32[]"
				}
			],
			"stateMutability": "view",
			"type": "function"
		},
		{
			"inputs": [
				{
					"internalType": "uint256",
					"name": "d_id",
					"type": "uint256"
				},
				{
					"internalType": "bytes",
					"name": "name",
					"type": "bytes"
				},
				{
					"internalType": "uint8",
					"name": "lifespan",
					"type": "uint8"
				},
				{
					"internalType": "uint256",
					"name": "amount",
					"type": "uint256"
				}
			],
			"name": "create_department_dproposal",
			"outputs": [],
			"stateMutability": "nonpayable",
			"type": "function"
		},
		{
			"inputs": [
				{
					"internalType": "uint256",
					"name": "d_id",
					"type": "uint256"
				},
				{
					"internalType": "bytes",
					"name": "name",
					"type": "bytes"
				},
				{
					"internalType": "uint8",
					"name": "lifespan",
					"type": "uint8"
				},
				{
					"internalType": "address[]",
					"name": "targets",
					"type": "address[]"
				},
				{
					"internalType": "bytes[]",
					"name": "datas",
					"type": "bytes[]"
				},
				{
					"internalType": "uint256[]",
					"name": "values",
					"type": "uint256[]"
				}
			],
			"name": "create_department_tproposal",
			"outputs": [],
			"stateMutability": "nonpayable",
			"type": "function"
		},
		{
			"inputs": [
				{
					"internalType": "bytes",
					"name": "name",
					"type": "bytes"
				},
				{
					"internalType": "uint8",
					"name": "lifespan",
					"type": "uint8"
				}
			],
			"name": "create_governance_proposal",
			"outputs": [],
			"stateMutability": "nonpayable",
			"type": "function"
		},
		{
			"inputs": [
				{
					"internalType": "bytes",
					"name": "name",
					"type": "bytes"
				},
				{
					"internalType": "uint8",
					"name": "lifespan",
					"type": "uint8"
				},
				{
					"internalType": "address[]",
					"name": "targets",
					"type": "address[]"
				},
				{
					"internalType": "bool",
					"name": "adding",
					"type": "bool"
				},
				{
					"internalType": "uint8[]",
					"name": "d_ids",
					"type": "uint8[]"
				}
			],
			"name": "create_management_proposal",
			"outputs": [],
			"stateMutability": "nonpayable",
			"type": "function"
		},
		{
			"inputs": [
				{
					"internalType": "bytes",
					"name": "name",
					"type": "bytes"
				},
				{
					"internalType": "uint8",
					"name": "lifespan",
					"type": "uint8"
				},
				{
					"internalType": "address",
					"name": "target",
					"type": "address"
				},
				{
					"internalType": "uint8",
					"name": "old_d_id",
					"type": "uint8"
				},
				{
					"internalType": "uint8",
					"name": "new_d_id",
					"type": "uint8"
				}
			],
			"name": "create_move_proposal",
			"outputs": [],
			"stateMutability": "nonpayable",
			"type": "function"
		},
		{
			"inputs": [
				{
					"internalType": "bytes",
					"name": "name",
					"type": "bytes"
				},
				{
					"internalType": "uint8",
					"name": "lifespan",
					"type": "uint8"
				},
				{
					"internalType": "address[]",
					"name": "targets",
					"type": "address[]"
				},
				{
					"internalType": "bytes[]",
					"name": "datas",
					"type": "bytes[]"
				},
				{
					"internalType": "uint256[]",
					"name": "values",
					"type": "uint256[]"
				}
			],
			"name": "create_transaction_proposal",
			"outputs": [],
			"stateMutability": "nonpayable",
			"type": "function"
		},
		{
			"inputs": [
				{
					"internalType": "uint256",
					"name": "d_id",
					"type": "uint256"
				},
				{
					"internalType": "uint16",
					"name": "p_id",
					"type": "uint16"
				}
			],
			"name": "department_vote",
			"outputs": [],
			"stateMutability": "nonpayable",
			"type": "function"
		},
		{
			"inputs": [],
			"name": "deposit",
			"outputs": [],
			"stateMutability": "payable",
			"type": "function"
		},
		{
			"inputs": [
				{
					"internalType": "uint16",
					"name": "id",
					"type": "uint16"
				}
			],
			"name": "execute",
			"outputs": [],
			"stateMutability": "nonpayable",
			"type": "function"
		},
		{
			"inputs": [
				{
					"internalType": "uint256",
					"name": "d_id",
					"type": "uint256"
				},
				{
					"internalType": "uint16",
					"name": "p_id",
					"type": "uint16"
				}
			],
			"name": "execute_department_proposal",
			"outputs": [],
			"stateMutability": "nonpayable",
			"type": "function"
		},
		{
			"inputs": [
				{
					"internalType": "uint256",
					"name": "d_id",
					"type": "uint256"
				}
			],
			"name": "get_department_info",
			"outputs": [
				{
					"internalType": "bytes32",
					"name": "",
					"type": "bytes32"
				},
				{
					"internalType": "address",
					"name": "",
					"type": "address"
				},
				{
					"internalType": "address[]",
					"name": "",
					"type": "address[]"
				}
			],
			"stateMutability": "view",
			"type": "function"
		},
		{
			"inputs": [
				{
					"internalType": "uint256",
					"name": "d_id",
					"type": "uint256"
				},
				{
					"internalType": "uint16",
					"name": "p_id",
					"type": "uint16"
				}
			],
			"name": "get_department_proposal",
			"outputs": [
				{
					"components": [
						{
							"components": [
								{
									"internalType": "bytes",
									"name": "name",
									"type": "bytes"
								},
								{
									"internalType": "uint8",
									"name": "lifespan",
									"type": "uint8"
								},
								{
									"internalType": "uint16",
									"name": "id",
									"type": "uint16"
								},
								{
									"internalType": "uint256",
									"name": "timestamp",
									"type": "uint256"
								},
								{
									"internalType": "uint256",
									"name": "votes",
									"type": "uint256"
								},
								{
									"internalType": "address[]",
									"name": "voters",
									"type": "address[]"
								}
							],
							"internalType": "struct ProposalManager.PBase",
							"name": "base",
							"type": "tuple"
						},
						{
							"internalType": "address[]",
							"name": "targets",
							"type": "address[]"
						},
						{
							"internalType": "bytes[]",
							"name": "datas",
							"type": "bytes[]"
						},
						{
							"internalType": "uint256[]",
							"name": "values",
							"type": "uint256[]"
						}
					],
					"internalType": "struct ProposalManager.MultiTransactionProposal",
					"name": "",
					"type": "tuple"
				},
				{
					"components": [
						{
							"components": [
								{
									"internalType": "bytes",
									"name": "name",
									"type": "bytes"
								},
								{
									"internalType": "uint8",
									"name": "lifespan",
									"type": "uint8"
								},
								{
									"internalType": "uint16",
									"name": "id",
									"type": "uint16"
								},
								{
									"internalType": "uint256",
									"name": "timestamp",
									"type": "uint256"
								},
								{
									"internalType": "uint256",
									"name": "votes",
									"type": "uint256"
								},
								{
									"internalType": "address[]",
									"name": "voters",
									"type": "address[]"
								}
							],
							"internalType": "struct ProposalManager.PBase",
							"name": "base",
							"type": "tuple"
						},
						{
							"internalType": "uint256",
							"name": "amount",
							"type": "uint256"
						}
					],
					"internalType": "struct ProposalManager.DistributionProposal",
					"name": "",
					"type": "tuple"
				}
			],
			"stateMutability": "view",
			"type": "function"
		},
		{
			"inputs": [
				{
					"internalType": "uint16",
					"name": "id",
					"type": "uint16"
				}
			],
			"name": "get_proposal",
			"outputs": [
				{
					"components": [
						{
							"components": [
								{
									"internalType": "bytes",
									"name": "name",
									"type": "bytes"
								},
								{
									"internalType": "uint8",
									"name": "lifespan",
									"type": "uint8"
								},
								{
									"internalType": "uint16",
									"name": "id",
									"type": "uint16"
								},
								{
									"internalType": "uint256",
									"name": "timestamp",
									"type": "uint256"
								},
								{
									"internalType": "uint256",
									"name": "votes",
									"type": "uint256"
								},
								{
									"internalType": "address[]",
									"name": "voters",
									"type": "address[]"
								}
							],
							"internalType": "struct ProposalManager.PBase",
							"name": "base",
							"type": "tuple"
						},
						{
							"internalType": "address[]",
							"name": "targets",
							"type": "address[]"
						},
						{
							"internalType": "bytes[]",
							"name": "datas",
							"type": "bytes[]"
						},
						{
							"internalType": "uint256[]",
							"name": "values",
							"type": "uint256[]"
						}
					],
					"internalType": "struct ProposalManager.MultiTransactionProposal",
					"name": "",
					"type": "tuple"
				},
				{
					"components": [
						{
							"internalType": "bytes",
							"name": "name",
							"type": "bytes"
						},
						{
							"internalType": "uint8",
							"name": "lifespan",
							"type": "uint8"
						},
						{
							"internalType": "uint16",
							"name": "id",
							"type": "uint16"
						},
						{
							"internalType": "uint256",
							"name": "timestamp",
							"type": "uint256"
						},
						{
							"internalType": "uint256",
							"name": "votes",
							"type": "uint256"
						},
						{
							"internalType": "address[]",
							"name": "voters",
							"type": "address[]"
						}
					],
					"internalType": "struct ProposalManager.PBase",
					"name": "",
					"type": "tuple"
				},
				{
					"components": [
						{
							"components": [
								{
									"internalType": "bytes",
									"name": "name",
									"type": "bytes"
								},
								{
									"internalType": "uint8",
									"name": "lifespan",
									"type": "uint8"
								},
								{
									"internalType": "uint16",
									"name": "id",
									"type": "uint16"
								},
								{
									"internalType": "uint256",
									"name": "timestamp",
									"type": "uint256"
								},
								{
									"internalType": "uint256",
									"name": "votes",
									"type": "uint256"
								},
								{
									"internalType": "address[]",
									"name": "voters",
									"type": "address[]"
								}
							],
							"internalType": "struct ProposalManager.PBase",
							"name": "base",
							"type": "tuple"
						},
						{
							"internalType": "address[]",
							"name": "targets",
							"type": "address[]"
						},
						{
							"internalType": "bool",
							"name": "adding",
							"type": "bool"
						},
						{
							"internalType": "uint8[]",
							"name": "department_ids",
							"type": "uint8[]"
						}
					],
					"internalType": "struct ProposalManager.ManagementProposal",
					"name": "",
					"type": "tuple"
				},
				{
					"components": [
						{
							"components": [
								{
									"internalType": "bytes",
									"name": "name",
									"type": "bytes"
								},
								{
									"internalType": "uint8",
									"name": "lifespan",
									"type": "uint8"
								},
								{
									"internalType": "uint16",
									"name": "id",
									"type": "uint16"
								},
								{
									"internalType": "uint256",
									"name": "timestamp",
									"type": "uint256"
								},
								{
									"internalType": "uint256",
									"name": "votes",
									"type": "uint256"
								},
								{
									"internalType": "address[]",
									"name": "voters",
									"type": "address[]"
								}
							],
							"internalType": "struct ProposalManager.PBase",
							"name": "base",
							"type": "tuple"
						},
						{
							"internalType": "address",
							"name": "target",
							"type": "address"
						},
						{
							"internalType": "uint8",
							"name": "old_department_id",
							"type": "uint8"
						},
						{
							"internalType": "uint8",
							"name": "new_department_id",
							"type": "uint8"
						}
					],
					"internalType": "struct ProposalManager.MoveProposal",
					"name": "",
					"type": "tuple"
				}
			],
			"stateMutability": "view",
			"type": "function"
		},
		{
			"inputs": [
				{
					"internalType": "uint256",
					"name": "d_id",
					"type": "uint256"
				},
				{
					"internalType": "address",
					"name": "m",
					"type": "address"
				}
			],
			"name": "is_department_member",
			"outputs": [
				{
					"internalType": "bool",
					"name": "",
					"type": "bool"
				}
			],
			"stateMutability": "view",
			"type": "function"
		},
		{
			"inputs": [
				{
					"internalType": "address",
					"name": "",
					"type": "address"
				},
				{
					"internalType": "address",
					"name": "",
					"type": "address"
				},
				{
					"internalType": "uint256[]",
					"name": "",
					"type": "uint256[]"
				},
				{
					"internalType": "uint256[]",
					"name": "",
					"type": "uint256[]"
				},
				{
					"internalType": "bytes",
					"name": "",
					"type": "bytes"
				}
			],
			"name": "onERC1155BatchReceived",
			"outputs": [
				{
					"internalType": "bytes4",
					"name": "",
					"type": "bytes4"
				}
			],
			"stateMutability": "nonpayable",
			"type": "function"
		},
		{
			"inputs": [
				{
					"internalType": "address",
					"name": "",
					"type": "address"
				},
				{
					"internalType": "address",
					"name": "",
					"type": "address"
				},
				{
					"internalType": "uint256",
					"name": "",
					"type": "uint256"
				},
				{
					"internalType": "uint256",
					"name": "",
					"type": "uint256"
				},
				{
					"internalType": "bytes",
					"name": "",
					"type": "bytes"
				}
			],
			"name": "onERC1155Received",
			"outputs": [
				{
					"internalType": "bytes4",
					"name": "",
					"type": "bytes4"
				}
			],
			"stateMutability": "nonpayable",
			"type": "function"
		},
		{
			"inputs": [
				{
					"internalType": "uint256",
					"name": "d_id",
					"type": "uint256"
				},
				{
					"internalType": "uint16",
					"name": "p_id",
					"type": "uint16"
				}
			],
			"name": "remove_department_proposal",
			"outputs": [],
			"stateMutability": "nonpayable",
			"type": "function"
		},
		{
			"inputs": [
				{
					"internalType": "uint16",
					"name": "id",
					"type": "uint16"
				}
			],
			"name": "remove_proposal",
			"outputs": [
				{
					"internalType": "bool",
					"name": "",
					"type": "bool"
				}
			],
			"stateMutability": "nonpayable",
			"type": "function"
		},
		{
			"inputs": [
				{
					"internalType": "bytes4",
					"name": "interfaceId",
					"type": "bytes4"
				}
			],
			"name": "supportsInterface",
			"outputs": [
				{
					"internalType": "bool",
					"name": "",
					"type": "bool"
				}
			],
			"stateMutability": "view",
			"type": "function"
		},
		{
			"inputs": [
				{
					"internalType": "uint16",
					"name": "id",
					"type": "uint16"
				}
			],
			"name": "vote",
			"outputs": [],
			"stateMutability": "nonpayable",
			"type": "function"
		},
		{
			"stateMutability": "payable",
			"type": "receive"
		}
	]
}