{
	"data": {
		"bytecode": {
			"linkReferences": {},
			"object": "60806040526000805461ffff191660011790553480156200001f57600080fd5b507f5265736561726368202620446576656c6f706d656e74000000000000000000006007556646696e616e636560c81b600e5564131959d85b60da1b6015556e0a0eac4d8d2c6409eeae8e4cac2c6d608b1b601c5560005b600481101562000110576040516200008f90620001bf565b604051809103906000f080158015620000ac573d6000803e3d6000fd5b5060078260048110620000cf57634e487b7160e01b600052603260045260246000fd5b6007020160030160006101000a8154816001600160a01b0302191690836001600160a01b0316021790555080806200010790620001cd565b91505062000077565b506200012c3360016200014d60201b62002b6f1790919060201c565b50620001466008336200014d602090811b62002b6f17901c565b50620001f5565b600062000164836001600160a01b0384166200016d565b90505b92915050565b6000818152600183016020526040812054620001b65750815460018181018455600084815260208082209093018490558454848252828601909352604090209190915562000167565b50600062000167565b610d09806200508483390190565b6000600019821415620001ee57634e487b7160e01b81526011600452602481fd5b5060010190565b614e7f80620002056000396000f3fe6080604052600436106101395760003560e01c8063ba87146a116100ab578063d537b0601161006f578063d537b060146103b9578063ddb6e116146103d9578063edbc28df146103f9578063f23a6e6114610419578063f492935b14610445578063f5d77adf1461046557600080fd5b8063ba87146a1461030c578063bc197c811461032c578063c696709c14610371578063caa3981714610391578063d0e30db0146103b157600080fd5b80633e08602c116100fd5780633e08602c1461024f57806348eccc2c1461027157806349041d3e146102915780635b4693b9146102b157806398ba1d46146102d15780639a7eabc6146102ec57600080fd5b806301ffc9a71461017a5780631279a374146101af57806323850315146101d1578063267044e5146101f1578063269d6e711461022157600080fd5b366101755760405134815233907f66ff7c8f71ccc7c36152a41920d0d3b46ef3034359f76aa1498ed4478c204b5c9060200160405180910390a2005b600080fd5b34801561018657600080fd5b5061019a610195366004614392565b610493565b60405190151581526020015b60405180910390f35b3480156101bb57600080fd5b506101cf6101ca3660046143ba565b6104ca565b005b3480156101dd57600080fd5b506101cf6101ec366004614691565b610624565b3480156101fd57600080fd5b5061021161020c36600461463d565b6106b5565b6040516101a69493929190614b5e565b34801561022d57600080fd5b5061024161023c366004614657565b610ede565b6040516101a6929190614aec565b34801561025b57600080fd5b50610264610fd1565b6040516101a69190614aa8565b34801561027d57600080fd5b506101cf61028c366004614530565b611028565b34801561029d57600080fd5b506101cf6102ac366004614484565b6111f5565b3480156102bd57600080fd5b506101cf6102cc366004614752565b611337565b3480156102dd57600080fd5b506040514781526020016101a6565b3480156102f857600080fd5b5061019a61030736600461466f565b6113ad565b34801561031857600080fd5b506101cf6103273660046147af565b6113ea565b34801561033857600080fd5b50610358610347366004614289565b63bc197c8160e01b95945050505050565b6040516001600160e01b031990911681526020016101a6565b34801561037d57600080fd5b506101cf61038c366004614406565b611985565b34801561039d57600080fd5b506101cf6103ac3660046147af565b611aeb565b6101cf611b5c565b3480156103c557600080fd5b5061019a6103d436600461463d565b611b93565b3480156103e557600080fd5b506101cf6103f436600461463d565b61205f565b34801561040557600080fd5b506101cf61041436600461463d565b612527565b34801561042557600080fd5b5061035861043436600461432f565b63f23a6e6160e01b95945050505050565b34801561045157600080fd5b506101cf6104603660046147af565b612aa8565b34801561047157600080fd5b506104856104803660046147af565b612b1a565b6040516101a6929190614b18565b60006001600160e01b03198216630271189760e51b14806104c457506301ffc9a760e01b6001600160e01b03198316145b92915050565b336104d6600182612b8b565b6104df57600080fd5b6040805160c08101825284815260ff84166020808301919091526000805461ffff16838501819052426060858101919091526080850183905260a085018190529082526004835293902082518051919261053e92849290910190613ccd565b50602082810151600183018054604086015161ffff166101000262ffffff1990911660ff90931692909217919091179055606083015160028301556080830151600383015560a0830151805161059a9260048501920190613d51565b50506000805461ffff169150806105b083614d57565b82546101009290920a61ffff8181021990931691831602179091556000546105dc925060019116614cbc565b61ffff16846040516105ee91906149cf565b6040805191829003822060ff8716835242602084015291600080516020614dc1833981519152910160405180910390a350505050565b3386610660826007836004811061064b57634e487b7160e01b600052603260045260246000fd5b60070201600101612b8b90919063ffffffff16565b61066957600080fd5b6106ab878787878760078e6004811061069257634e487b7160e01b600052603260045260246000fd5b60070201600401612bad9095949392919063ffffffff16565b5050505050505050565b6106bd613da6565b6106c5613dd4565b6106cd613e11565b6106d5613e3d565b61ffff85166000908152600360209081526040808320600483528184206005845282852060069094529382902082516101408101909352815491949392909185908290608082019083908290829061072c90614d22565b80601f016020809104026020016040519081016040528092919081815260200182805461075890614d22565b80156107a55780601f1061077a576101008083540402835291602001916107a5565b820191906000526020600020905b81548152906001019060200180831161078857829003601f168201915b5050509183525050600182015460ff811660208084019190915261010090910461ffff16604080840191909152600284015460608401526003840154608084015260048401805482518185028101850190935280835260a090940193919290919083018282801561083f57602002820191906000526020600020905b81546001600160a01b03168152600190910190602001808311610821575b5050505050815250508152602001600582018054806020026020016040519081016040528092919081815260200182805480156108a557602002820191906000526020600020905b81546001600160a01b03168152600190910190602001808311610887575b5050505050815260200160068201805480602002602001604051908101604052809291908181526020016000905b8282101561097f5783829060005260206000200180546108f290614d22565b80601f016020809104026020016040519081016040528092919081815260200182805461091e90614d22565b801561096b5780601f106109405761010080835404028352916020019161096b565b820191906000526020600020905b81548152906001019060200180831161094e57829003601f168201915b5050505050815260200190600101906108d3565b505050508152602001600782018054806020026020016040519081016040528092919081815260200182805480156109d657602002820191906000526020600020905b8154815260200190600101908083116109c2575b5050505050815250509350826040518060c00160405290816000820180546109fd90614d22565b80601f0160208091040260200160405190810160405280929190818152602001828054610a2990614d22565b8015610a765780601f10610a4b57610100808354040283529160200191610a76565b820191906000526020600020905b815481529060010190602001808311610a5957829003601f168201915b5050509183525050600182015460ff811660208084019190915261010090910461ffff16604080840191909152600284015460608401526003840154608084015260048401805482518185028101850190935280835260a0909401939192909190830182828015610b1057602002820191906000526020600020905b81546001600160a01b03168152600190910190602001808311610af2575b505050505081525050925081604051806080016040529081600082016040518060c0016040529081600082018054610b4790614d22565b80601f0160208091040260200160405190810160405280929190818152602001828054610b7390614d22565b8015610bc05780601f10610b9557610100808354040283529160200191610bc0565b820191906000526020600020905b815481529060010190602001808311610ba357829003601f168201915b5050509183525050600182015460ff811660208084019190915261010090910461ffff16604080840191909152600284015460608401526003840154608084015260048401805482518185028101850190935280835260a0909401939192909190830182828015610c5a57602002820191906000526020600020905b81546001600160a01b03168152600190910190602001808311610c3c575b505050505081525050815260200160058201805480602002602001604051908101604052809291908181526020018280548015610cc057602002820191906000526020600020905b81546001600160a01b03168152600190910190602001808311610ca2575b5050509183525050600682015460ff1615156020808301919091526007830180546040805182850281018501825282815294019392830182828015610d4257602002820191906000526020600020906000905b825461010083900a900460ff16815260206001928301818104948501949093039092029101808411610d135790505b505050505081525050915080604051806080016040529081600082016040518060c0016040529081600082018054610d7990614d22565b80601f0160208091040260200160405190810160405280929190818152602001828054610da590614d22565b8015610df25780601f10610dc757610100808354040283529160200191610df2565b820191906000526020600020905b815481529060010190602001808311610dd557829003601f168201915b5050509183525050600182015460ff811660208084019190915261010090910461ffff16604080840191909152600284015460608401526003840154608084015260048401805482518185028101850190935280835260a0909401939192909190830182828015610e8c57602002820191906000526020600020905b81546001600160a01b03168152600190910190602001808311610e6e575b505050919092525050508152600591909101546001600160a01b038116602083015260ff600160a01b820481166040840152600160a81b90910416606090910152939992985090965091945092505050565b600060608060005b610f1660078660048110610f0a57634e487b7160e01b600052603260045260246000fd5b60070201600101612d5d565b811015610fa157610f578160078760048110610f4257634e487b7160e01b600052603260045260246000fd5b60070201600101612d6790919063ffffffff16565b828281518110610f7757634e487b7160e01b600052603260045260246000fd5b6001600160a01b039092166020928302919091019091015280610f9981614d79565b915050610ee6565b5060078460048110610fc357634e487b7160e01b600052603260045260246000fd5b600702015494909350915050565b60018054604080516020808402820181019092528281526060939092909183018282801561101e57602002820191906000526020600020905b81548152602001906001019080831161100a575b5050505050905090565b33611034600182612b8b565b61103d57600080fd5b60408051610140810182526080810188815260ff881660a08301526000805461ffff1660c084018190524260e085015261010084018290526060610120850181905292845260208085018a9052881515858701528484018890529082526005815293902082518051805193959293919284926110bc9284920190613ccd565b50602082810151600183018054604086015161ffff166101000262ffffff1990911660ff90931692909217919091179055606083015160028301556080830151600383015560a083015180516111189260048501920190613d51565b50505060208281015180516111339260058501920190613d51565b50604082015160068201805460ff191691151591909117905560608201518051611167916007840191602090910190613e6b565b50506000805461ffff1691508061117d83614d57565b82546101009290920a61ffff8181021990931691831602179091556000546111a9925060019116614cbc565b61ffff16876040516111bb91906149cf565b6040805191829003822060ff8a16835242602084015291600080516020614dc183398151915291015b60405180910390a350505050505050565b33611201600182612b8b565b61120a57600080fd5b60408051610140810182526080810188815260ff881660a08301526000805461ffff1660c084018190524260e085015261010084018290526060610120850181905292845260208085018a90528486018990528484018890529082526003815293902082518051805193959293919284926112889284920190613ccd565b50602082810151600183018054604086015161ffff166101000262ffffff1990911660ff90931692909217919091179055606083015160028301556080830151600383015560a083015180516112e49260048501920190613d51565b50505060208281015180516112ff9260058501920190613d51565b506040820151805161131b916006840191602090910190613f0c565b5060608201518051611167916007840191602090910190613f65565b338461135e826007836004811061064b57634e487b7160e01b600052603260045260246000fd5b61136757600080fd5b6113a585858560078a6004811061138e57634e487b7160e01b600052603260045260246000fd5b60070201600401612d73909392919063ffffffff16565b505050505050565b60006113d4826007856004811061064b57634e487b7160e01b600052603260045260246000fd5b156113e1575060016104c4565b50600092915050565b600082815260246020908152604080832061ffff8516845290915290205460ff161561141557600080fd5b6007826004811061143657634e487b7160e01b600052603260045260246000fd5b61ffff8381166000908152600792909202929092016005016020526040902060010154610100900416158015906114dd5750600261148e60078460048110610f0a57634e487b7160e01b600052603260045260246000fd5b6114989190614c71565b600783600481106114b957634e487b7160e01b600052603260045260246000fd5b61ffff84166000908152600560079290920292909201016020526040902060030154115b156116da5760006007836004811061150557634e487b7160e01b600052603260045260246000fd5b61ffff84166000818152600560079390930293909301919091016020908152604080842087855260248352818520938552929091528220805460ff1916600117905591505b60058201548110156116905761167e82600501828154811061157c57634e487b7160e01b600052603260045260246000fd5b6000918252602090912001546006840180546001600160a01b0390921691849081106115b857634e487b7160e01b600052603260045260246000fd5b9060005260206000200180546115cd90614d22565b80601f01602080910402602001604051908101604052809291908181526020018280546115f990614d22565b80156116465780601f1061161b57610100808354040283529160200191611646565b820191906000526020600020905b81548152906001019060200180831161162957829003601f168201915b505050505084600701848154811061166e57634e487b7160e01b600052603260045260246000fd5b9060005260206000200154612ed9565b8061168881614d79565b91505061154a565b5060405161169f9082906149eb565b6040519081900381206001830154610100900461ffff16825290600080516020614de1833981519152906020015b60405180910390a2505050565b600782600481106116fb57634e487b7160e01b600052603260045260246000fd5b61ffff8381166000908152600792909202929092016006016020526040902060010154610100900416158015906117a25750600261175360078460048110610f0a57634e487b7160e01b600052603260045260246000fd5b61175d9190614c71565b6007836004811061177e57634e487b7160e01b600052603260045260246000fd5b61ffff84166000908152600660079290920292909201016020526040902060030154115b15611981576000600783600481106117ca57634e487b7160e01b600052603260045260246000fd5b61ffff84166000818152600660079390930293909301919091016020908152604080842087855260248352818520938552929091528220805460ff1916600117905591506060905b61183660078660048110610f0a57634e487b7160e01b600052603260045260246000fd5b8110156118ac576118628160078760048110610f4257634e487b7160e01b600052603260045260246000fd5b82828151811061188257634e487b7160e01b600052603260045260246000fd5b6001600160a01b0390921660209283029190910190910152806118a481614d79565b915050611812565b50600784600481106118ce57634e487b7160e01b600052603260045260246000fd5b60070201600301546005830154604051631826c11960e01b81526001600160a01b0390921691631826c1199161190991859190600401614a86565b600060405180830381600087803b15801561192357600080fd5b505af1158015611937573d6000803e3d6000fd5b505060405161194992508491506149eb565b6040519081900381206001840154610100900461ffff16825290600080516020614de18339815191529060200160405180910390a250505b5050565b33611991600182612b8b565b61199a57600080fd5b60408051610140810182526080810188815260ff80891660a08401526000805461ffff1660c085018190524260e08601526101008501829052606061012086018190529385526001600160a01b038a166020808701919091528984168688015292881685850152815260068252939093208251805180519395929391928492611a269284920190613ccd565b50602082810151600183018054604086015161ffff166101000262ffffff1990911660ff90931692909217919091179055606083015160028301556080830151600383015560a08301518051611a829260048501920190613d51565b5050506020820151600591909101805460408401516060909401516001600160a01b039093166001600160a81b031990911617600160a01b60ff948516021760ff60a81b1916600160a81b93909216929092021790556000805461ffff16908061117d83614d57565b3382611b12826007836004811061064b57634e487b7160e01b600052603260045260246000fd5b611b1b57600080fd5b611b558360078660048110611b4057634e487b7160e01b600052603260045260246000fd5b60070201600401612f2090919063ffffffff16565b5050505050565b60405134815233907f66ff7c8f71ccc7c36152a41920d0d3b46ef3034359f76aa1498ed4478c204b5c9060200160405180910390a2565b600033611ba1600182612b8b565b611baa57600080fd5b61ffff80841660009081526003602052604090206001015461010090041615801590611c25575061ffff8316600090815260036020526040902060010154611bf89060ff1662015180614c91565b61ffff841660009081526003602052604090206002015462ffffff9190911690611c229042614cdf565b10155b15611ced5761ffff8316600081815260036020526040908190209051611c4b91906149eb565b60405190819003812090600080516020614e2a83398151915290600090a361ffff83166000908152600360205260408120908181611c898282613f9f565b60018201805462ffffff1916905560006002830181905560038301819055611cb5906004840190613fd9565b50611cc69050600583016000613fd9565b611cd4600683016000613ff7565b611ce2600783016000613fd9565b505060019150612059565b61ffff80841660009081526004602052604090206001015461010090041615801590611d68575061ffff8316600090815260046020526040902060010154611d3b9060ff1662015180614c91565b61ffff841660009081526004602052604090206002015462ffffff9190911690611d659042614cdf565b10155b15611df65761ffff8316600081815260036020526040908190209051611d8e91906149eb565b60405190819003812090600080516020614e2a83398151915290600090a361ffff8316600090815260046020526040812090611dca8282613f9f565b60018201805462ffffff1916905560006002830181905560038301819055611ce2906004840190613fd9565b61ffff80841660009081526005602052604090206001015461010090041615801590611e71575061ffff8316600090815260056020526040902060010154611e449060ff1662015180614c91565b61ffff841660009081526005602052604090206002015462ffffff9190911690611e6e9042614cdf565b10155b15611f2c5761ffff8316600081815260036020526040908190209051611e9791906149eb565b60405190819003812090600080516020614e2a83398151915290600090a361ffff83166000908152600560205260408120908181611ed58282613f9f565b60018201805462ffffff1916905560006002830181905560038301819055611f01906004840190613fd9565b50611f129050600583016000613fd9565b60068201805460ff19169055611ce2600783016000614015565b61ffff80841660009081526006602052604090206001015461010090041615801590611fa7575061ffff8316600090815260066020526040902060010154611f7a9060ff1662015180614c91565b61ffff841660009081526006602052604090206002015462ffffff9190911690611fa49042614cdf565b10155b156120545761ffff8316600081815260036020526040908190209051611fcd91906149eb565b60405190819003812090600080516020614e2a83398151915290600090a361ffff8316600090815260066020526040812090818161200b8282613f9f565b60018201805462ffffff1916905560006002830181905560038301819055612037906004840190613fd9565b50505060050180546001600160b01b031916905560019150612059565b600091505b50919050565b3361206b600182612b8b565b61207457600080fd5b61ffff808316600090815260036020526040902060010154339161010090910416156121c95761ffff8316600090815260036020908152604091829020600401805483518184028101840190945280845261210e939283018282801561210357602002820191906000526020600020905b81546001600160a01b031681526001909101906020018083116120e5575b505050505082613199565b156121c45761ffff8316600090815260036020819052604082200180549161213583614d79565b909155505061ffff8316600081815260036020908152604080832060048101805460018101825590855292842090920180546001600160a01b0319166001600160a01b038716908117909155928490525191929161219391906149eb565b604051908190038120907f96aff3db4ff7dbe7dd5d88fadbcc5c5f7fe5eb97cd711500d046a737b9c08cf990600090a45b505050565b61ffff808416600090815260046020526040902060010154610100900416156122e95761ffff8316600090815260046020818152604092839020909101805483518184028101840190945280845261225e9392830182828015612103576020028201919060005260206000209081546001600160a01b031681526001909101906020018083116120e557505050505082613199565b156121c45761ffff8316600090815260046020526040812060030180549161228583614d79565b909155505061ffff8316600081815260046020818152604080842090920180546001810182559084528184200180546001600160a01b0319166001600160a01b038716908117909155848452600390915291819020905191929161219391906149eb565b61ffff808416600090815260056020526040902060010154610100900416156124085761ffff8316600090815260056020908152604091829020600401805483518184028101840190945280845261237e9392830182828015612103576020028201919060005260206000209081546001600160a01b031681526001909101906020018083116120e557505050505082613199565b156121c45761ffff831660009081526005602052604081206003018054916123a583614d79565b909155505061ffff8316600081815260056020908152604080832060040180546001810182559084528284200180546001600160a01b0319166001600160a01b0387169081179091558484526003909252918290209151909291612193916149eb565b61ffff808416600090815260066020526040902060010154610100900416156121c45761ffff8316600090815260066020908152604091829020600401805483518184028101840190945280845261249d9392830182828015612103576020028201919060005260206000209081546001600160a01b031681526001909101906020018083116120e557505050505082613199565b156121c45761ffff831660009081526006602052604081206003018054916124c483614d79565b909155505061ffff8316600081815260066020908152604080832060040180546001810182559084528284200180546001600160a01b0319166001600160a01b0387169081179091558484526003909252918290209151909291612193916149eb565b61ffff811660009081526023602052604090205460ff161561254857600080fd5b61ffff8082166000908152600360205260409020600101546101009004161580159061259f5750600261257b6001612d5d565b6125859190614c71565b61ffff821660009081526003602081905260409091200154115b1561265a5761ffff8116600090815260036020908152604080832060239092528220805460ff19166001179055905b60058201548110156126125761260082600501828154811061157c57634e487b7160e01b600052603260045260246000fd5b8061260a81614d79565b9150506125ce565b506040516126219082906149eb565b6040519081900381206001830154610100900461ffff16825290600080516020614de18339815191529060200160405180910390a25050565b61ffff808216600090815260056020526040902060010154610100900416158015906126b05750600261268d6001612d5d565b6126979190614c71565b61ffff8216600090815260056020526040902060030154115b156128f35761ffff811660009081526005602090815260408083206023909252909120805460ff19166001179055600681015460ff16156127c95760005b60058201548110156127c3576127b082600501828154811061272057634e487b7160e01b600052603260045260246000fd5b600091825260209091200154600784810180546001600160a01b03909316928590811061275d57634e487b7160e01b600052603260045260246000fd5b60009182526020918290209181049091015460ff601f9092166101000a9004166004811061279b57634e487b7160e01b600052603260045260246000fd5b60070201600101612b6f90919063ffffffff16565b50806127bb81614d79565b9150506126ee565b506128e5565b60005b60058201548110156126125761281b8260050182815481106127fe57634e487b7160e01b600052603260045260246000fd5b6000918252602090912001546001906001600160a01b031661320d565b506128d282600501828154811061284257634e487b7160e01b600052603260045260246000fd5b600091825260209091200154600784810180546001600160a01b03909316928590811061287f57634e487b7160e01b600052603260045260246000fd5b60009182526020918290209181049091015460ff601f9092166101000a900416600481106128bd57634e487b7160e01b600052603260045260246000fd5b6007020160010161320d90919063ffffffff16565b50806128dd81614d79565b9150506127cc565b6040516126219082906149eb565b61ffff80821660009081526006602052604090206001015461010090041615801590612949575060026129266001612d5d565b6129309190614c71565b61ffff8216600090815260066020526040902060030154115b156129f65761ffff811660009081526006602090815260408083206023909252909120805460ff1916600117905560058101546129b6906001600160a01b03811690600790600160a01b900460ff16600481106128bd57634e487b7160e01b600052603260045260246000fd5b506005810154612612906001600160a01b03811690600790600160a81b900460ff166004811061279b57634e487b7160e01b600052603260045260246000fd5b6002612a026001612d5d565b612a0c9190614c71565b61ffff82166000908152600460205260409020600301541115612aa55761ffff81166000908152602360209081526040808320805460ff191660011790556004909152908190209051612a5f91906149eb565b6040805191829003822061ffff84811660009081526004602090815293902060010154610100900416835291600080516020614de1833981519152910160405180910390a25b50565b3382612acf826007836004811061064b57634e487b7160e01b600052603260045260246000fd5b612ad857600080fd5b612b14833360078760048110612afe57634e487b7160e01b600052603260045260246000fd5b600702016004016132229092919063ffffffff16565b50505050565b612b22613da6565b612b2a61403a565b612b648360078660048110612b4f57634e487b7160e01b600052603260045260246000fd5b6007020160040161346890919063ffffffff16565b915091509250929050565b6000612b84836001600160a01b0384166138d5565b9392505050565b6001600160a01b03811660009081526001830160205260408120541515612b84565b60408051610140810182526080810187815260ff871660a0830152885461ffff1660c083018190524260e08401526000610100840181905260606101208501819052928452602080850189905284860188905284840187905291815260018b018252939093208251805180519395929391928492612c2e9284920190613ccd565b50602082810151600183018054604086015161ffff166101000262ffffff1990911660ff90931692909217919091179055606083015160028301556080830151600383015560a08301518051612c8a9260048501920190613d51565b5050506020828101518051612ca59260058501920190613d51565b5060408201518051612cc1916006840191602090910190613f0c565b5060608201518051612cdd916007840191602090910190613f65565b5050875461ffff169050876000612cf383614d57565b82546101009290920a61ffff8181021990931691831602179091558854612d1e925060019116614cbc565b61ffff1686604051612d3091906149cf565b6040805191829003822060ff8916835242602084015291600080516020614dc183398151915291016111e4565b60006104c4825490565b6000612b848383613924565b604080516101008101825280820185815260ff8516606083810191909152875461ffff16608084018190524260a0850152600060c0850181905260e085018390529284526020808501879052908352600289018152939091208251805180519395929391928492612de79284920190613ccd565b50602082810151600183018054604086015161ffff166101000262ffffff1990911660ff90931692909217919091179055606083015160028301556080830151600383015560a08301518051612e439260048501920190613d51565b50505060209190910151600590910155845461ffff16856000612e6583614d57565b82546101009290920a61ffff8181021990931691831602179091558654612e90925060019116614cbc565b61ffff1684604051612ea291906149cf565b6040805191829003822060ff8716835242602084015291600080516020614dc1833981519152910160405180910390a35050505050565b612ee48383836139bd565b50826001600160a01b03167f04bd02e6e14d9c1417ba3582a754b1124ad2fbe11ad4cee6b51d08ebadfc0792826040516116cd91815260200190565b61ffff8082166000908152600180850160205260408220015490916101009091041615801590612fa3575061ffff82166000908152600180850160205260409091200154612f749060ff1662015180614c91565b61ffff8316600090815260018501602052604090206002015462ffffff9190911690612fa09042614cdf565b10155b1561306f5761ffff82166000818152600185016020526040908190209051612fcb91906149eb565b60405190819003812090600080516020614e2a83398151915290600090a361ffff82166000908152600184016020526040812090818161300b8282613f9f565b60018201805462ffffff1916905560006002830181905560038301819055613037906004840190613fd9565b506130489050600583016000613fd9565b613056600683016000613ff7565b613064600783016000613fd9565b5050600190506104c4565b61ffff8083166000908152600285016020526040902060010154610100900416158015906130f0575061ffff821660009081526002840160205260409020600101546130c19060ff1662015180614c91565b61ffff8316600090815260028086016020526040909120015462ffffff91909116906130ed9042614cdf565b10155b156113e15761ffff8216600081815260028501602052604090819020905161311891906149eb565b60405190819003812090600080516020614e2a83398151915290600090a361ffff8216600090815260028401602052604081209081816131588282613f9f565b60018201805462ffffff1916905560006002830181905560038301819055613184906004840190613fd9565b505060058201600090555050600190506104c4565b6000805b835181101561320357826001600160a01b03168482815181106131d057634e487b7160e01b600052603260045260246000fd5b60200260200101516001600160a01b031614156131f15760009150506104c4565b806131fb81614d79565b91505061319d565b5060019392505050565b6000612b84836001600160a01b0384166139eb565b61ffff8083166000908152600180860160205260409091200154610100900416156133465761ffff8216600090815260018401602090815260409182902060040180548351818402810184019094528084526132bd93928301828280156132b257602002820191906000526020600020905b81546001600160a01b03168152600190910190602001808311613294575b505050505082613b02565b156121c45761ffff8216600090815260018401602052604081206003018054916132e683614d79565b909155505061ffff821660008181526001858101602090815260408084206004810180549485018155855291842090920180546001600160a01b0319166001600160a01b03871690811790915592849052905191929161219391906149eb565b61ffff8083166000908152600285016020526040902060010154610100900416156121c45761ffff8216600090815260028401602090815260409182902060040180548351818402810184019094528084526133df93928301828280156132b2576020028201919060005260206000209081546001600160a01b0316815260019091019060200180831161329457505050505082613b02565b156121c45761ffff82166000908152600284016020526040812060030180549161340883614d79565b909155505061ffff82166000818152600285016020908152604080832060048101805460018101825590855292842090920180546001600160a01b0319166001600160a01b038716908117909155928490525191929161219391906149eb565b613470613da6565b61347861403a565b61ffff8316600090815260018501602090815260408083206002880190925291829020825161014081019093528154919290918390829060808201908390829082906134c390614d22565b80601f01602080910402602001604051908101604052809291908181526020018280546134ef90614d22565b801561353c5780601f106135115761010080835404028352916020019161353c565b820191906000526020600020905b81548152906001019060200180831161351f57829003601f168201915b5050509183525050600182015460ff811660208084019190915261010090910461ffff16604080840191909152600284015460608401526003840154608084015260048401805482518185028101850190935280835260a09094019391929091908301828280156135d657602002820191906000526020600020905b81546001600160a01b031681526001909101906020018083116135b8575b50505050508152505081526020016005820180548060200260200160405190810160405280929190818152602001828054801561363c57602002820191906000526020600020905b81546001600160a01b0316815260019091019060200180831161361e575b5050505050815260200160068201805480602002602001604051908101604052809291908181526020016000905b8282101561371657838290600052602060002001805461368990614d22565b80601f01602080910402602001604051908101604052809291908181526020018280546136b590614d22565b80156137025780601f106136d757610100808354040283529160200191613702565b820191906000526020600020905b8154815290600101906020018083116136e557829003601f168201915b50505050508152602001906001019061366a565b5050505081526020016007820180548060200260200160405190810160405280929190818152602001828054801561376d57602002820191906000526020600020905b815481526020019060010190808311613759575b5050509190925250506040805161010081018252845493955092849250839182019083908290829061379e90614d22565b80601f01602080910402602001604051908101604052809291908181526020018280546137ca90614d22565b80156138175780601f106137ec57610100808354040283529160200191613817565b820191906000526020600020905b8154815290600101906020018083116137fa57829003601f168201915b5050509183525050600182015460ff811660208084019190915261010090910461ffff16604080840191909152600284015460608401526003840154608084015260048401805482518185028101850190935280835260a09094019391929091908301828280156138b157602002820191906000526020600020905b81546001600160a01b03168152600190910190602001808311613893575b50505050508152505081526020016005820154815250509050915091509250929050565b600081815260018301602052604081205461391c575081546001818101845560008481526020808220909301849055845484825282860190935260409020919091556104c4565b5060006104c4565b815460009082106139875760405162461bcd60e51b815260206004820152602260248201527f456e756d657261626c655365743a20696e646578206f7574206f6620626f756e604482015261647360f01b60648201526084015b60405180910390fd5b8260000182815481106139aa57634e487b7160e01b600052603260045260246000fd5b9060005260206000200154905092915050565b60606139e3848484604051806060016040528060298152602001614e0160299139613b6c565b949350505050565b60008181526001830160205260408120548015613af8576000613a0f600183614cdf565b8554909150600090613a2390600190614cdf565b90506000866000018281548110613a4a57634e487b7160e01b600052603260045260246000fd5b9060005260206000200154905080876000018481548110613a7b57634e487b7160e01b600052603260045260246000fd5b600091825260208083209091019290925582815260018901909152604090208490558654879080613abc57634e487b7160e01b600052603160045260246000fd5b600190038181906000526020600020016000905590558660010160008781526020019081526020016000206000905560019450505050506104c4565b60009150506104c4565b6000805b835181101561320357826001600160a01b0316848281518110613b3957634e487b7160e01b600052603260045260246000fd5b60200260200101516001600160a01b03161415613b5a5760009150506104c4565b80613b6481614d79565b915050613b06565b606082471015613bcd5760405162461bcd60e51b815260206004820152602660248201527f416464726573733a20696e73756666696369656e742062616c616e636520666f6044820152651c8818d85b1b60d21b606482015260840161397e565b843b613c1b5760405162461bcd60e51b815260206004820152601d60248201527f416464726573733a2063616c6c20746f206e6f6e2d636f6e7472616374000000604482015260640161397e565b600080866001600160a01b03168587604051613c3791906149cf565b60006040518083038185875af1925050503d8060008114613c74576040519150601f19603f3d011682016040523d82523d6000602084013e613c79565b606091505b5091509150613c89828286613c94565b979650505050505050565b60608315613ca3575081612b84565b825115613cb35782518084602001fd5b8160405162461bcd60e51b815260040161397e9190614b05565b828054613cd990614d22565b90600052602060002090601f016020900481019282613cfb5760008555613d41565b82601f10613d1457805160ff1916838001178555613d41565b82800160010185558215613d41579182015b82811115613d41578251825591602001919060010190613d26565b50613d4d92915061405a565b5090565b828054828255906000526020600020908101928215613d41579160200282015b82811115613d4157825182546001600160a01b0319166001600160a01b03909116178255602090920191600190910190613d71565b6040518060800160405280613db9613dd4565b81526020016060815260200160608152602001606081525090565b6040518060c0016040528060608152602001600060ff168152602001600061ffff1681526020016000815260200160008152602001606081525090565b6040518060800160405280613e24613dd4565b8152606060208201819052600060408301529081015290565b6040518060800160405280613e50613dd4565b81526000602082018190526040820181905260609091015290565b82805482825590600052602060002090601f01602090048101928215613d415791602002820160005b83821115613ed257835183826101000a81548160ff021916908360ff1602179055509260200192600101602081600001049283019260010302613e94565b8015613eff5782816101000a81549060ff0219169055600101602081600001049283019260010302613ed2565b5050613d4d92915061405a565b828054828255906000526020600020908101928215613f59579160200282015b82811115613f595782518051613f49918491602090910190613ccd565b5091602001919060010190613f2c565b50613d4d92915061406f565b828054828255906000526020600020908101928215613d415791602002820182811115613d41578251825591602001919060010190613d26565b508054613fab90614d22565b6000825580601f10613fbb575050565b601f016020900490600052602060002090810190612aa5919061405a565b5080546000825590600052602060002090810190612aa5919061405a565b5080546000825590600052602060002090810190612aa5919061406f565b50805460008255601f016020900490600052602060002090810190612aa5919061405a565b604051806040016040528061404d613dd4565b8152602001600081525090565b5b80821115613d4d576000815560010161405b565b80821115613d4d5760006140838282613f9f565b5060010161406f565b80356001600160a01b03811681146140a357600080fd5b919050565b600082601f8301126140b8578081fd5b813560206140cd6140c883614c4d565b614c1c565b80838252828201915082860187848660051b89010111156140ec578586fd5b855b85811015614111576140ff8261408c565b845292840192908401906001016140ee565b5090979650505050505050565b600082601f83011261412e578081fd5b8135602061413e6140c883614c4d565b80838252828201915082860187848660051b890101111561415d578586fd5b855b8581101561411157813567ffffffffffffffff81111561417d578788fd5b61418b8a87838c01016141fb565b855250928401929084019060010161415f565b600082601f8301126141ae578081fd5b813560206141be6140c883614c4d565b80838252828201915082860187848660051b89010111156141dd578586fd5b855b85811015614111578135845292840192908401906001016141df565b600082601f83011261420b578081fd5b813567ffffffffffffffff81111561422557614225614daa565b614238601f8201601f1916602001614c1c565b81815284602083860101111561424c578283fd5b816020850160208301379081016020019190915292915050565b803561ffff811681146140a357600080fd5b803560ff811681146140a357600080fd5b600080600080600060a086880312156142a0578081fd5b6142a98661408c565b94506142b76020870161408c565b9350604086013567ffffffffffffffff808211156142d3578283fd5b6142df89838a0161419e565b945060608801359150808211156142f4578283fd5b61430089838a0161419e565b93506080880135915080821115614315578283fd5b50614322888289016141fb565b9150509295509295909350565b600080600080600060a08688031215614346578081fd5b61434f8661408c565b945061435d6020870161408c565b93506040860135925060608601359150608086013567ffffffffffffffff811115614386578182fd5b614322888289016141fb565b6000602082840312156143a3578081fd5b81356001600160e01b031981168114612b84578182fd5b600080604083850312156143cc578182fd5b823567ffffffffffffffff8111156143e2578283fd5b6143ee858286016141fb565b9250506143fd60208401614278565b90509250929050565b600080600080600060a0868803121561441d578081fd5b853567ffffffffffffffff811115614433578182fd5b61443f888289016141fb565b95505061444e60208701614278565b935061445c6040870161408c565b925061446a60608701614278565b915061447860808701614278565b90509295509295909350565b600080600080600060a0868803121561449b578283fd5b853567ffffffffffffffff808211156144b2578485fd5b6144be89838a016141fb565b96506144cc60208901614278565b955060408801359150808211156144e1578485fd5b6144ed89838a016140a8565b94506060880135915080821115614502578283fd5b61450e89838a0161411e565b93506080880135915080821115614523578283fd5b506143228882890161419e565b600080600080600060a08688031215614547578283fd5b853567ffffffffffffffff8082111561455e578485fd5b61456a89838a016141fb565b96506020915061457b828901614278565b955060408801358181111561458e578586fd5b61459a8a828b016140a8565b955050606088013580151581146145af578384fd5b93506080880135818111156145c2578384fd5b88019050601f810189136145d4578283fd5b80356145e26140c882614c4d565b8082825284820191508484018c868560051b8701011115614601578687fd5b8694505b8385101561462a5761461681614278565b835260019490940193918501918501614605565b5080955050505050509295509295909350565b60006020828403121561464e578081fd5b612b8482614266565b600060208284031215614668578081fd5b5035919050565b60008060408385031215614681578182fd5b823591506143fd6020840161408c565b60008060008060008060c087890312156146a9578384fd5b86359550602087013567ffffffffffffffff808211156146c7578586fd5b6146d38a838b016141fb565b96506146e160408a01614278565b955060608901359150808211156146f6578283fd5b6147028a838b016140a8565b94506080890135915080821115614717578283fd5b6147238a838b0161411e565b935060a0890135915080821115614738578283fd5b5061474589828a0161419e565b9150509295509295509295565b60008060008060808587031215614767578182fd5b84359350602085013567ffffffffffffffff811115614784578283fd5b614790878288016141fb565b93505061479f60408601614278565b9396929550929360600135925050565b600080604083850312156147c1578182fd5b823591506143fd60208401614266565b6000815180845260208085019450808401835b838110156148095781516001600160a01b0316875295820195908201906001016147e4565b509495945050505050565b6000815180845260208085019450808401835b8381101561480957815187529582019590820190600101614827565b6000815180845261485b816020860160208601614cf6565b601f01601f19169290920160200192915050565b60008151608084526148846080850182614969565b905060018060a01b03602084015116602085015260ff604084015116604085015260ff60608401511660608501528091505092915050565b60008151608084526148d16080850182614969565b9050602080840151858303828701526148ea83826147d1565b925050604084015185830360408701528281518085528385019150838160051b8601018484019350865b8281101561494257601f19878303018452614930828651614843565b94860194938601939150600101614914565b506060880151955088810360608a015261495c8187614814565b9998505050505050505050565b6000815160c0845261497e60c0850182614843565b905060ff602084015116602085015261ffff6040840151166040850152606083015160608501526080830151608085015260a083015184820360a08601526149c682826147d1565b95945050505050565b600082516149e1818460208701614cf6565b9190910192915050565b600080835482600182811c915080831680614a0757607f831692505b6020808410821415614a2757634e487b7160e01b87526022600452602487fd5b818015614a3b5760018114614a4c57614a78565b60ff19861689528489019650614a78565b60008a815260209020885b86811015614a705781548b820152908501908301614a57565b505084890196505b509498975050505050505050565b604081526000614a9960408301856147d1565b90508260208301529392505050565b6020808252825182820181905260009190848201906040850190845b81811015614ae057835183529284019291840191600101614ac4565b50909695505050505050565b8281526040602082015260006139e360408301846147d1565b602081526000612b846020830184614843565b604081526000614b2b60408301856148bc565b8281036020840152835160408252614b466040830182614969565b90506020850151602083015280925050509392505050565b608081526000614b7160808301876148bc565b602083820381850152614b848288614969565b91508382036040850152855160808352614ba16080840182614969565b90508187015183820383850152614bb882826147d1565b6040898101511515908601526060808a01518683039190960152845180825290840194840192508591505b80821015614c0657825160ff168552938301939183019160019190910190614be3565b505050508281036060840152613c89818561486f565b604051601f8201601f1916810167ffffffffffffffff81118282101715614c4557614c45614daa565b604052919050565b600067ffffffffffffffff821115614c6757614c67614daa565b5060051b60200190565b600082614c8c57634e487b7160e01b81526012600452602481fd5b500490565b600062ffffff80831681851681830481118215151615614cb357614cb3614d94565b02949350505050565b600061ffff83811690831681811015614cd757614cd7614d94565b039392505050565b600082821015614cf157614cf1614d94565b500390565b60005b83811015614d11578181015183820152602001614cf9565b83811115612b145750506000910152565b600181811c90821680614d3657607f821691505b6020821081141561205957634e487b7160e01b600052602260045260246000fd5b600061ffff80831681811415614d6f57614d6f614d94565b6001019392505050565b6000600019821415614d8d57614d8d614d94565b5060010190565b634e487b7160e01b600052601160045260246000fd5b634e487b7160e01b600052604160045260246000fdfefb07f0b6a495000a76b84fe72725aefa5d6b75fa4c4018f95c244048d02ba1340e4c462064ff3edd0c76f240471b531e7a1fb5d76435e9be70181a779056fbc9416464726573733a206c6f772d6c6576656c2063616c6c20776974682076616c7565206661696c6564e3b80df9e89df04cf349bc0ed35da62b9edc408708393382577b14c234a082d6a2646970667358221220e1b0b1499852f4008bf57249eb56fe1bb58b0bcea0fca661cced703c31e17b0264736f6c63430008040033608060405234801561001057600080fd5b50610ce9806100206000396000f3fe60806040526004361061007f5760003560e01c806398ba1d461161004e57806398ba1d461461015f578063bc197c811461017a578063d0e30db0146101bf578063f23a6e61146101c757600080fd5b806301ffc9a7146100c05780631826c119146100f557806388bde015146101175780638da5cb5b1461013757600080fd5b366100bb5760405134815233907f66ff7c8f71ccc7c36152a41920d0d3b46ef3034359f76aa1498ed4478c204b5c9060200160405180910390a2005b600080fd5b3480156100cc57600080fd5b506100e06100db366004610b35565b6101f3565b60405190151581526020015b60405180910390f35b34801561010157600080fd5b50610115610110366004610af2565b61022a565b005b34801561012357600080fd5b506101156101323660046109fd565b6102fe565b34801561014357600080fd5b506000546040516001600160a01b0390911681526020016100ec565b34801561016b57600080fd5b506040514781526020016100ec565b34801561018657600080fd5b506101a66101953660046108f4565b63bc197c8160e01b95945050505050565b6040516001600160e01b031990911681526020016100ec565b610115610405565b3480156101d357600080fd5b506101a66101e236600461099a565b63f23a6e6160e01b95945050505050565b60006001600160e01b03198216630271189760e51b148061022457506301ffc9a760e01b6001600160e01b03198316145b92915050565b3361023d6000546001600160a01b031690565b6001600160a01b0316146102985760405162461bcd60e51b815260206004820152601e60248201527f4f776e65643a2063616c6c6572206973206e6f7420746865206f776e6572000060448201526064015b60405180910390fd5b60008251826102a79190610c01565b905060005b83518110156102f8576102e6828583815181106102d957634e487b7160e01b600052603260045260246000fd5b602002602001015161043c565b806102f081610c4d565b9150506102ac565b50505050565b336103116000546001600160a01b031690565b6001600160a01b0316146103675760405162461bcd60e51b815260206004820152601e60248201527f4f776e65643a2063616c6c6572206973206e6f7420746865206f776e65720000604482015260640161028f565b60005b83518110156102f8576103f384828151811061039657634e487b7160e01b600052603260045260246000fd5b60200260200101518483815181106103be57634e487b7160e01b600052603260045260246000fd5b60200260200101518484815181106103e657634e487b7160e01b600052603260045260246000fd5b602002602001015161049c565b806103fd81610c4d565b91505061036a565b60405134815233907f66ff7c8f71ccc7c36152a41920d0d3b46ef3034359f76aa1498ed4478c204b5c9060200160405180910390a2565b814781111561044a57600080fd5b816001600160a01b03167f04bd02e6e14d9c1417ba3582a754b1124ad2fbe11ad4cee6b51d08ebadfc07928460405161048591815260200190565b60405180910390a261049782846104f0565b505050565b6104a7838383610609565b50826001600160a01b03167f04bd02e6e14d9c1417ba3582a754b1124ad2fbe11ad4cee6b51d08ebadfc0792826040516104e391815260200190565b60405180910390a2505050565b804710156105405760405162461bcd60e51b815260206004820152601d60248201527f416464726573733a20696e73756666696369656e742062616c616e6365000000604482015260640161028f565b6000826001600160a01b03168260405160006040518083038185875af1925050503d806000811461058d576040519150601f19603f3d011682016040523d82523d6000602084013e610592565b606091505b50509050806104975760405162461bcd60e51b815260206004820152603a60248201527f416464726573733a20756e61626c6520746f2073656e642076616c75652c207260448201527f6563697069656e74206d61792068617665207265766572746564000000000000606482015260840161028f565b606061062f848484604051806060016040528060298152602001610c8b60299139610639565b90505b9392505050565b60608247101561069a5760405162461bcd60e51b815260206004820152602660248201527f416464726573733a20696e73756666696369656e742062616c616e636520666f6044820152651c8818d85b1b60d21b606482015260840161028f565b843b6106e85760405162461bcd60e51b815260206004820152601d60248201527f416464726573733a2063616c6c20746f206e6f6e2d636f6e7472616374000000604482015260640161028f565b600080866001600160a01b031685876040516107049190610b5d565b60006040518083038185875af1925050503d8060008114610741576040519150601f19603f3d011682016040523d82523d6000602084013e610746565b606091505b5091509150610756828286610761565b979650505050505050565b60608315610770575081610632565b8251156107805782518084602001fd5b8160405162461bcd60e51b815260040161028f9190610b79565b80356001600160a01b03811681146107b157600080fd5b919050565b600082601f8301126107c6578081fd5b813560206107db6107d683610bdd565b610bac565b80838252828201915082860187848660051b89010111156107fa578586fd5b855b8581101561081f5761080d8261079a565b845292840192908401906001016107fc565b5090979650505050505050565b600082601f83011261083c578081fd5b8135602061084c6107d683610bdd565b80838252828201915082860187848660051b890101111561086b578586fd5b855b8581101561081f5781358452928401929084019060010161086d565b600082601f830112610899578081fd5b813567ffffffffffffffff8111156108b3576108b3610c74565b6108c6601f8201601f1916602001610bac565b8181528460208386010111156108da578283fd5b816020850160208301379081016020019190915292915050565b600080600080600060a0868803121561090b578081fd5b6109148661079a565b94506109226020870161079a565b9350604086013567ffffffffffffffff8082111561093e578283fd5b61094a89838a0161082c565b9450606088013591508082111561095f578283fd5b61096b89838a0161082c565b93506080880135915080821115610980578283fd5b5061098d88828901610889565b9150509295509295909350565b600080600080600060a086880312156109b1578081fd5b6109ba8661079a565b94506109c86020870161079a565b93506040860135925060608601359150608086013567ffffffffffffffff8111156109f1578182fd5b61098d88828901610889565b600080600060608486031215610a11578283fd5b833567ffffffffffffffff80821115610a28578485fd5b610a34878388016107b6565b9450602091508186013581811115610a4a578485fd5b8601601f81018813610a5a578485fd5b8035610a686107d682610bdd565b8082825285820191508584018b878560051b8701011115610a87578889fd5b885b84811015610ac057813587811115610a9f578a8bfd5b610aad8e8a838a0101610889565b8552509287019290870190600101610a89565b50909750505050604087013592505080821115610adb578283fd5b50610ae88682870161082c565b9150509250925092565b60008060408385031215610b04578182fd5b823567ffffffffffffffff811115610b1a578283fd5b610b26858286016107b6565b95602094909401359450505050565b600060208284031215610b46578081fd5b81356001600160e01b031981168114610632578182fd5b60008251610b6f818460208701610c21565b9190910192915050565b6020815260008251806020840152610b98816040850160208701610c21565b601f01601f19169190910160400192915050565b604051601f8201601f1916810167ffffffffffffffff81118282101715610bd557610bd5610c74565b604052919050565b600067ffffffffffffffff821115610bf757610bf7610c74565b5060051b60200190565b600082610c1c57634e487b7160e01b81526012600452602481fd5b500490565b60005b83811015610c3c578181015183820152602001610c24565b838111156102f85750506000910152565b6000600019821415610c6d57634e487b7160e01b81526011600452602481fd5b5060010190565b634e487b7160e01b600052604160045260246000fdfe416464726573733a206c6f772d6c6576656c2063616c6c20776974682076616c7565206661696c6564a264697066735822122015734bce76f35cf54b3ff77dac0abe39d5ab25b466de90b020f68fc6e639013664736f6c63430008040033",
			"opcodes": "PUSH1 0x80 PUSH1 0x40 MSTORE PUSH1 0x0 DUP1 SLOAD PUSH2 0xFFFF NOT AND PUSH1 0x1 OR SWAP1 SSTORE CALLVALUE DUP1 ISZERO PUSH3 0x1F JUMPI PUSH1 0x0 DUP1 REVERT JUMPDEST POP PUSH32 0x5265736561726368202620446576656C6F706D656E7400000000000000000000 PUSH1 0x7 SSTORE PUSH7 0x46696E616E6365 PUSH1 0xC8 SHL PUSH1 0xE SSTORE PUSH5 0x131959D85B PUSH1 0xDA SHL PUSH1 0x15 SSTORE PUSH15 0xA0EAC4D8D2C6409EEAE8E4CAC2C6D PUSH1 0x8B SHL PUSH1 0x1C SSTORE PUSH1 0x0 JUMPDEST PUSH1 0x4 DUP2 LT ISZERO PUSH3 0x110 JUMPI PUSH1 0x40 MLOAD PUSH3 0x8F SWAP1 PUSH3 0x1BF JUMP JUMPDEST PUSH1 0x40 MLOAD DUP1 SWAP2 SUB SWAP1 PUSH1 0x0 CREATE DUP1 ISZERO DUP1 ISZERO PUSH3 0xAC JUMPI RETURNDATASIZE PUSH1 0x0 DUP1 RETURNDATACOPY RETURNDATASIZE PUSH1 0x0 REVERT JUMPDEST POP PUSH1 0x7 DUP3 PUSH1 0x4 DUP2 LT PUSH3 0xCF JUMPI PUSH4 0x4E487B71 PUSH1 0xE0 SHL PUSH1 0x0 MSTORE PUSH1 0x32 PUSH1 0x4 MSTORE PUSH1 0x24 PUSH1 0x0 REVERT JUMPDEST PUSH1 0x7 MUL ADD PUSH1 0x3 ADD PUSH1 0x0 PUSH2 0x100 EXP DUP2 SLOAD DUP2 PUSH1 0x1 PUSH1 0x1 PUSH1 0xA0 SHL SUB MUL NOT AND SWAP1 DUP4 PUSH1 0x1 PUSH1 0x1 PUSH1 0xA0 SHL SUB AND MUL OR SWAP1 SSTORE POP DUP1 DUP1 PUSH3 0x107 SWAP1 PUSH3 0x1CD JUMP JUMPDEST SWAP2 POP POP PUSH3 0x77 JUMP JUMPDEST POP PUSH3 0x12C CALLER PUSH1 0x1 PUSH3 0x14D PUSH1 0x20 SHL PUSH3 0x2B6F OR SWAP1 SWAP2 SWAP1 PUSH1 0x20 SHR JUMP JUMPDEST POP PUSH3 0x146 PUSH1 0x8 CALLER PUSH3 0x14D PUSH1 0x20 SWAP1 DUP2 SHL PUSH3 0x2B6F OR SWAP1 SHR JUMP JUMPDEST POP PUSH3 0x1F5 JUMP JUMPDEST PUSH1 0x0 PUSH3 0x164 DUP4 PUSH1 0x1 PUSH1 0x1 PUSH1 0xA0 SHL SUB DUP5 AND PUSH3 0x16D JUMP JUMPDEST SWAP1 POP JUMPDEST SWAP3 SWAP2 POP POP JUMP JUMPDEST PUSH1 0x0 DUP2 DUP2 MSTORE PUSH1 0x1 DUP4 ADD PUSH1 0x20 MSTORE PUSH1 0x40 DUP2 KECCAK256 SLOAD PUSH3 0x1B6 JUMPI POP DUP2 SLOAD PUSH1 0x1 DUP2 DUP2 ADD DUP5 SSTORE PUSH1 0x0 DUP5 DUP2 MSTORE PUSH1 0x20 DUP1 DUP3 KECCAK256 SWAP1 SWAP4 ADD DUP5 SWAP1 SSTORE DUP5 SLOAD DUP5 DUP3 MSTORE DUP3 DUP7 ADD SWAP1 SWAP4 MSTORE PUSH1 0x40 SWAP1 KECCAK256 SWAP2 SWAP1 SWAP2 SSTORE PUSH3 0x167 JUMP JUMPDEST POP PUSH1 0x0 PUSH3 0x167 JUMP JUMPDEST PUSH2 0xD09 DUP1 PUSH3 0x5084 DUP4 CODECOPY ADD SWAP1 JUMP JUMPDEST PUSH1 0x0 PUSH1 0x0 NOT DUP3 EQ ISZERO PUSH3 0x1EE JUMPI PUSH4 0x4E487B71 PUSH1 0xE0 SHL DUP2 MSTORE PUSH1 0x11 PUSH1 0x4 MSTORE PUSH1 0x24 DUP2 REVERT JUMPDEST POP PUSH1 0x1 ADD SWAP1 JUMP JUMPDEST PUSH2 0x4E7F DUP1 PUSH3 0x205 PUSH1 0x0 CODECOPY PUSH1 0x0 RETURN INVALID PUSH1 0x80 PUSH1 0x40 MSTORE PUSH1 0x4 CALLDATASIZE LT PUSH2 0x139 JUMPI PUSH1 0x0 CALLDATALOAD PUSH1 0xE0 SHR DUP1 PUSH4 0xBA87146A GT PUSH2 0xAB JUMPI DUP1 PUSH4 0xD537B060 GT PUSH2 0x6F JUMPI DUP1 PUSH4 0xD537B060 EQ PUSH2 0x3B9 JUMPI DUP1 PUSH4 0xDDB6E116 EQ PUSH2 0x3D9 JUMPI DUP1 PUSH4 0xEDBC28DF EQ PUSH2 0x3F9 JUMPI DUP1 PUSH4 0xF23A6E61 EQ PUSH2 0x419 JUMPI DUP1 PUSH4 0xF492935B EQ PUSH2 0x445 JUMPI DUP1 PUSH4 0xF5D77ADF EQ PUSH2 0x465 JUMPI PUSH1 0x0 DUP1 REVERT JUMPDEST DUP1 PUSH4 0xBA87146A EQ PUSH2 0x30C JUMPI DUP1 PUSH4 0xBC197C81 EQ PUSH2 0x32C JUMPI DUP1 PUSH4 0xC696709C EQ PUSH2 0x371 JUMPI DUP1 PUSH4 0xCAA39817 EQ PUSH2 0x391 JUMPI DUP1 PUSH4 0xD0E30DB0 EQ PUSH2 0x3B1 JUMPI PUSH1 0x0 DUP1 REVERT JUMPDEST DUP1 PUSH4 0x3E08602C GT PUSH2 0xFD JUMPI DUP1 PUSH4 0x3E08602C EQ PUSH2 0x24F JUMPI DUP1 PUSH4 0x48ECCC2C EQ PUSH2 0x271 JUMPI DUP1 PUSH4 0x49041D3E EQ PUSH2 0x291 JUMPI DUP1 PUSH4 0x5B4693B9 EQ PUSH2 0x2B1 JUMPI DUP1 PUSH4 0x98BA1D46 EQ PUSH2 0x2D1 JUMPI DUP1 PUSH4 0x9A7EABC6 EQ PUSH2 0x2EC JUMPI PUSH1 0x0 DUP1 REVERT JUMPDEST DUP1 PUSH4 0x1FFC9A7 EQ PUSH2 0x17A JUMPI DUP1 PUSH4 0x1279A374 EQ PUSH2 0x1AF JUMPI DUP1 PUSH4 0x23850315 EQ PUSH2 0x1D1 JUMPI DUP1 PUSH4 0x267044E5 EQ PUSH2 0x1F1 JUMPI DUP1 PUSH4 0x269D6E71 EQ PUSH2 0x221 JUMPI PUSH1 0x0 DUP1 REVERT JUMPDEST CALLDATASIZE PUSH2 0x175 JUMPI PUSH1 0x40 MLOAD CALLVALUE DUP2 MSTORE CALLER SWAP1 PUSH32 0x66FF7C8F71CCC7C36152A41920D0D3B46EF3034359F76AA1498ED4478C204B5C SWAP1 PUSH1 0x20 ADD PUSH1 0x40 MLOAD DUP1 SWAP2 SUB SWAP1 LOG2 STOP JUMPDEST PUSH1 0x0 DUP1 REVERT JUMPDEST CALLVALUE DUP1 ISZERO PUSH2 0x186 JUMPI PUSH1 0x0 DUP1 REVERT JUMPDEST POP PUSH2 0x19A PUSH2 0x195 CALLDATASIZE PUSH1 0x4 PUSH2 0x4392 JUMP JUMPDEST PUSH2 0x493 JUMP JUMPDEST PUSH1 0x40 MLOAD SWAP1 ISZERO ISZERO DUP2 MSTORE PUSH1 0x20 ADD JUMPDEST PUSH1 0x40 MLOAD DUP1 SWAP2 SUB SWAP1 RETURN JUMPDEST CALLVALUE DUP1 ISZERO PUSH2 0x1BB JUMPI PUSH1 0x0 DUP1 REVERT JUMPDEST POP PUSH2 0x1CF PUSH2 0x1CA CALLDATASIZE PUSH1 0x4 PUSH2 0x43BA JUMP JUMPDEST PUSH2 0x4CA JUMP JUMPDEST STOP JUMPDEST CALLVALUE DUP1 ISZERO PUSH2 0x1DD JUMPI PUSH1 0x0 DUP1 REVERT JUMPDEST POP PUSH2 0x1CF PUSH2 0x1EC CALLDATASIZE PUSH1 0x4 PUSH2 0x4691 JUMP JUMPDEST PUSH2 0x624 JUMP JUMPDEST CALLVALUE DUP1 ISZERO PUSH2 0x1FD JUMPI PUSH1 0x0 DUP1 REVERT JUMPDEST POP PUSH2 0x211 PUSH2 0x20C CALLDATASIZE PUSH1 0x4 PUSH2 0x463D JUMP JUMPDEST PUSH2 0x6B5 JUMP JUMPDEST PUSH1 0x40 MLOAD PUSH2 0x1A6 SWAP5 SWAP4 SWAP3 SWAP2 SWAP1 PUSH2 0x4B5E JUMP JUMPDEST CALLVALUE DUP1 ISZERO PUSH2 0x22D JUMPI PUSH1 0x0 DUP1 REVERT JUMPDEST POP PUSH2 0x241 PUSH2 0x23C CALLDATASIZE PUSH1 0x4 PUSH2 0x4657 JUMP JUMPDEST PUSH2 0xEDE JUMP JUMPDEST PUSH1 0x40 MLOAD PUSH2 0x1A6 SWAP3 SWAP2 SWAP1 PUSH2 0x4AEC JUMP JUMPDEST CALLVALUE DUP1 ISZERO PUSH2 0x25B JUMPI PUSH1 0x0 DUP1 REVERT JUMPDEST POP PUSH2 0x264 PUSH2 0xFD1 JUMP JUMPDEST PUSH1 0x40 MLOAD PUSH2 0x1A6 SWAP2 SWAP1 PUSH2 0x4AA8 JUMP JUMPDEST CALLVALUE DUP1 ISZERO PUSH2 0x27D JUMPI PUSH1 0x0 DUP1 REVERT JUMPDEST POP PUSH2 0x1CF PUSH2 0x28C CALLDATASIZE PUSH1 0x4 PUSH2 0x4530 JUMP JUMPDEST PUSH2 0x1028 JUMP JUMPDEST CALLVALUE DUP1 ISZERO PUSH2 0x29D JUMPI PUSH1 0x0 DUP1 REVERT JUMPDEST POP PUSH2 0x1CF PUSH2 0x2AC CALLDATASIZE PUSH1 0x4 PUSH2 0x4484 JUMP JUMPDEST PUSH2 0x11F5 JUMP JUMPDEST CALLVALUE DUP1 ISZERO PUSH2 0x2BD JUMPI PUSH1 0x0 DUP1 REVERT JUMPDEST POP PUSH2 0x1CF PUSH2 0x2CC CALLDATASIZE PUSH1 0x4 PUSH2 0x4752 JUMP JUMPDEST PUSH2 0x1337 JUMP JUMPDEST CALLVALUE DUP1 ISZERO PUSH2 0x2DD JUMPI PUSH1 0x0 DUP1 REVERT JUMPDEST POP PUSH1 0x40 MLOAD SELFBALANCE DUP2 MSTORE PUSH1 0x20 ADD PUSH2 0x1A6 JUMP JUMPDEST CALLVALUE DUP1 ISZERO PUSH2 0x2F8 JUMPI PUSH1 0x0 DUP1 REVERT JUMPDEST POP PUSH2 0x19A PUSH2 0x307 CALLDATASIZE PUSH1 0x4 PUSH2 0x466F JUMP JUMPDEST PUSH2 0x13AD JUMP JUMPDEST CALLVALUE DUP1 ISZERO PUSH2 0x318 JUMPI PUSH1 0x0 DUP1 REVERT JUMPDEST POP PUSH2 0x1CF PUSH2 0x327 CALLDATASIZE PUSH1 0x4 PUSH2 0x47AF JUMP JUMPDEST PUSH2 0x13EA JUMP JUMPDEST CALLVALUE DUP1 ISZERO PUSH2 0x338 JUMPI PUSH1 0x0 DUP1 REVERT JUMPDEST POP PUSH2 0x358 PUSH2 0x347 CALLDATASIZE PUSH1 0x4 PUSH2 0x4289 JUMP JUMPDEST PUSH4 0xBC197C81 PUSH1 0xE0 SHL SWAP6 SWAP5 POP POP POP POP POP JUMP JUMPDEST PUSH1 0x40 MLOAD PUSH1 0x1 PUSH1 0x1 PUSH1 0xE0 SHL SUB NOT SWAP1 SWAP2 AND DUP2 MSTORE PUSH1 0x20 ADD PUSH2 0x1A6 JUMP JUMPDEST CALLVALUE DUP1 ISZERO PUSH2 0x37D JUMPI PUSH1 0x0 DUP1 REVERT JUMPDEST POP PUSH2 0x1CF PUSH2 0x38C CALLDATASIZE PUSH1 0x4 PUSH2 0x4406 JUMP JUMPDEST PUSH2 0x1985 JUMP JUMPDEST CALLVALUE DUP1 ISZERO PUSH2 0x39D JUMPI PUSH1 0x0 DUP1 REVERT JUMPDEST POP PUSH2 0x1CF PUSH2 0x3AC CALLDATASIZE PUSH1 0x4 PUSH2 0x47AF JUMP JUMPDEST PUSH2 0x1AEB JUMP JUMPDEST PUSH2 0x1CF PUSH2 0x1B5C JUMP JUMPDEST CALLVALUE DUP1 ISZERO PUSH2 0x3C5 JUMPI PUSH1 0x0 DUP1 REVERT JUMPDEST POP PUSH2 0x19A PUSH2 0x3D4 CALLDATASIZE PUSH1 0x4 PUSH2 0x463D JUMP JUMPDEST PUSH2 0x1B93 JUMP JUMPDEST CALLVALUE DUP1 ISZERO PUSH2 0x3E5 JUMPI PUSH1 0x0 DUP1 REVERT JUMPDEST POP PUSH2 0x1CF PUSH2 0x3F4 CALLDATASIZE PUSH1 0x4 PUSH2 0x463D JUMP JUMPDEST PUSH2 0x205F JUMP JUMPDEST CALLVALUE DUP1 ISZERO PUSH2 0x405 JUMPI PUSH1 0x0 DUP1 REVERT JUMPDEST POP PUSH2 0x1CF PUSH2 0x414 CALLDATASIZE PUSH1 0x4 PUSH2 0x463D JUMP JUMPDEST PUSH2 0x2527 JUMP JUMPDEST CALLVALUE DUP1 ISZERO PUSH2 0x425 JUMPI PUSH1 0x0 DUP1 REVERT JUMPDEST POP PUSH2 0x358 PUSH2 0x434 CALLDATASIZE PUSH1 0x4 PUSH2 0x432F JUMP JUMPDEST PUSH4 0xF23A6E61 PUSH1 0xE0 SHL SWAP6 SWAP5 POP POP POP POP POP JUMP JUMPDEST CALLVALUE DUP1 ISZERO PUSH2 0x451 JUMPI PUSH1 0x0 DUP1 REVERT JUMPDEST POP PUSH2 0x1CF PUSH2 0x460 CALLDATASIZE PUSH1 0x4 PUSH2 0x47AF JUMP JUMPDEST PUSH2 0x2AA8 JUMP JUMPDEST CALLVALUE DUP1 ISZERO PUSH2 0x471 JUMPI PUSH1 0x0 DUP1 REVERT JUMPDEST POP PUSH2 0x485 PUSH2 0x480 CALLDATASIZE PUSH1 0x4 PUSH2 0x47AF JUMP JUMPDEST PUSH2 0x2B1A JUMP JUMPDEST PUSH1 0x40 MLOAD PUSH2 0x1A6 SWAP3 SWAP2 SWAP1 PUSH2 0x4B18 JUMP JUMPDEST PUSH1 0x0 PUSH1 0x1 PUSH1 0x1 PUSH1 0xE0 SHL SUB NOT DUP3 AND PUSH4 0x2711897 PUSH1 0xE5 SHL EQ DUP1 PUSH2 0x4C4 JUMPI POP PUSH4 0x1FFC9A7 PUSH1 0xE0 SHL PUSH1 0x1 PUSH1 0x1 PUSH1 0xE0 SHL SUB NOT DUP4 AND EQ JUMPDEST SWAP3 SWAP2 POP POP JUMP JUMPDEST CALLER PUSH2 0x4D6 PUSH1 0x1 DUP3 PUSH2 0x2B8B JUMP JUMPDEST PUSH2 0x4DF JUMPI PUSH1 0x0 DUP1 REVERT JUMPDEST PUSH1 0x40 DUP1 MLOAD PUSH1 0xC0 DUP2 ADD DUP3 MSTORE DUP5 DUP2 MSTORE PUSH1 0xFF DUP5 AND PUSH1 0x20 DUP1 DUP4 ADD SWAP2 SWAP1 SWAP2 MSTORE PUSH1 0x0 DUP1 SLOAD PUSH2 0xFFFF AND DUP4 DUP6 ADD DUP2 SWAP1 MSTORE TIMESTAMP PUSH1 0x60 DUP6 DUP2 ADD SWAP2 SWAP1 SWAP2 MSTORE PUSH1 0x80 DUP6 ADD DUP4 SWAP1 MSTORE PUSH1 0xA0 DUP6 ADD DUP2 SWAP1 MSTORE SWAP1 DUP3 MSTORE PUSH1 0x4 DUP4 MSTORE SWAP4 SWAP1 KECCAK256 DUP3 MLOAD DUP1 MLOAD SWAP2 SWAP3 PUSH2 0x53E SWAP3 DUP5 SWAP3 SWAP1 SWAP2 ADD SWAP1 PUSH2 0x3CCD JUMP JUMPDEST POP PUSH1 0x20 DUP3 DUP2 ADD MLOAD PUSH1 0x1 DUP4 ADD DUP1 SLOAD PUSH1 0x40 DUP7 ADD MLOAD PUSH2 0xFFFF AND PUSH2 0x100 MUL PUSH3 0xFFFFFF NOT SWAP1 SWAP2 AND PUSH1 0xFF SWAP1 SWAP4 AND SWAP3 SWAP1 SWAP3 OR SWAP2 SWAP1 SWAP2 OR SWAP1 SSTORE PUSH1 0x60 DUP4 ADD MLOAD PUSH1 0x2 DUP4 ADD SSTORE PUSH1 0x80 DUP4 ADD MLOAD PUSH1 0x3 DUP4 ADD SSTORE PUSH1 0xA0 DUP4 ADD MLOAD DUP1 MLOAD PUSH2 0x59A SWAP3 PUSH1 0x4 DUP6 ADD SWAP3 ADD SWAP1 PUSH2 0x3D51 JUMP JUMPDEST POP POP PUSH1 0x0 DUP1 SLOAD PUSH2 0xFFFF AND SWAP2 POP DUP1 PUSH2 0x5B0 DUP4 PUSH2 0x4D57 JUMP JUMPDEST DUP3 SLOAD PUSH2 0x100 SWAP3 SWAP1 SWAP3 EXP PUSH2 0xFFFF DUP2 DUP2 MUL NOT SWAP1 SWAP4 AND SWAP2 DUP4 AND MUL OR SWAP1 SWAP2 SSTORE PUSH1 0x0 SLOAD PUSH2 0x5DC SWAP3 POP PUSH1 0x1 SWAP2 AND PUSH2 0x4CBC JUMP JUMPDEST PUSH2 0xFFFF AND DUP5 PUSH1 0x40 MLOAD PUSH2 0x5EE SWAP2 SWAP1 PUSH2 0x49CF JUMP JUMPDEST PUSH1 0x40 DUP1 MLOAD SWAP2 DUP3 SWAP1 SUB DUP3 KECCAK256 PUSH1 0xFF DUP8 AND DUP4 MSTORE TIMESTAMP PUSH1 0x20 DUP5 ADD MSTORE SWAP2 PUSH1 0x0 DUP1 MLOAD PUSH1 0x20 PUSH2 0x4DC1 DUP4 CODECOPY DUP2 MLOAD SWAP2 MSTORE SWAP2 ADD PUSH1 0x40 MLOAD DUP1 SWAP2 SUB SWAP1 LOG3 POP POP POP POP JUMP JUMPDEST CALLER DUP7 PUSH2 0x660 DUP3 PUSH1 0x7 DUP4 PUSH1 0x4 DUP2 LT PUSH2 0x64B JUMPI PUSH4 0x4E487B71 PUSH1 0xE0 SHL PUSH1 0x0 MSTORE PUSH1 0x32 PUSH1 0x4 MSTORE PUSH1 0x24 PUSH1 0x0 REVERT JUMPDEST PUSH1 0x7 MUL ADD PUSH1 0x1 ADD PUSH2 0x2B8B SWAP1 SWAP2 SWAP1 PUSH4 0xFFFFFFFF AND JUMP JUMPDEST PUSH2 0x669 JUMPI PUSH1 0x0 DUP1 REVERT JUMPDEST PUSH2 0x6AB DUP8 DUP8 DUP8 DUP8 DUP8 PUSH1 0x7 DUP15 PUSH1 0x4 DUP2 LT PUSH2 0x692 JUMPI PUSH4 0x4E487B71 PUSH1 0xE0 SHL PUSH1 0x0 MSTORE PUSH1 0x32 PUSH1 0x4 MSTORE PUSH1 0x24 PUSH1 0x0 REVERT JUMPDEST PUSH1 0x7 MUL ADD PUSH1 0x4 ADD PUSH2 0x2BAD SWAP1 SWAP6 SWAP5 SWAP4 SWAP3 SWAP2 SWAP1 PUSH4 0xFFFFFFFF AND JUMP JUMPDEST POP POP POP POP POP POP POP POP JUMP JUMPDEST PUSH2 0x6BD PUSH2 0x3DA6 JUMP JUMPDEST PUSH2 0x6C5 PUSH2 0x3DD4 JUMP JUMPDEST PUSH2 0x6CD PUSH2 0x3E11 JUMP JUMPDEST PUSH2 0x6D5 PUSH2 0x3E3D JUMP JUMPDEST PUSH2 0xFFFF DUP6 AND PUSH1 0x0 SWAP1 DUP2 MSTORE PUSH1 0x3 PUSH1 0x20 SWAP1 DUP2 MSTORE PUSH1 0x40 DUP1 DUP4 KECCAK256 PUSH1 0x4 DUP4 MSTORE DUP2 DUP5 KECCAK256 PUSH1 0x5 DUP5 MSTORE DUP3 DUP6 KECCAK256 PUSH1 0x6 SWAP1 SWAP5 MSTORE SWAP4 DUP3 SWAP1 KECCAK256 DUP3 MLOAD PUSH2 0x140 DUP2 ADD SWAP1 SWAP4 MSTORE DUP2 SLOAD SWAP2 SWAP5 SWAP4 SWAP3 SWAP1 SWAP2 DUP6 SWAP1 DUP3 SWAP1 PUSH1 0x80 DUP3 ADD SWAP1 DUP4 SWAP1 DUP3 SWAP1 DUP3 SWAP1 PUSH2 0x72C SWAP1 PUSH2 0x4D22 JUMP JUMPDEST DUP1 PUSH1 0x1F ADD PUSH1 0x20 DUP1 SWAP2 DIV MUL PUSH1 0x20 ADD PUSH1 0x40 MLOAD SWAP1 DUP2 ADD PUSH1 0x40 MSTORE DUP1 SWAP3 SWAP2 SWAP1 DUP2 DUP2 MSTORE PUSH1 0x20 ADD DUP3 DUP1 SLOAD PUSH2 0x758 SWAP1 PUSH2 0x4D22 JUMP JUMPDEST DUP1 ISZERO PUSH2 0x7A5 JUMPI DUP1 PUSH1 0x1F LT PUSH2 0x77A JUMPI PUSH2 0x100 DUP1 DUP4 SLOAD DIV MUL DUP4 MSTORE SWAP2 PUSH1 0x20 ADD SWAP2 PUSH2 0x7A5 JUMP JUMPDEST DUP3 ADD SWAP2 SWAP1 PUSH1 0x0 MSTORE PUSH1 0x20 PUSH1 0x0 KECCAK256 SWAP1 JUMPDEST DUP2 SLOAD DUP2 MSTORE SWAP1 PUSH1 0x1 ADD SWAP1 PUSH1 0x20 ADD DUP1 DUP4 GT PUSH2 0x788 JUMPI DUP3 SWAP1 SUB PUSH1 0x1F AND DUP3 ADD SWAP2 JUMPDEST POP POP POP SWAP2 DUP4 MSTORE POP POP PUSH1 0x1 DUP3 ADD SLOAD PUSH1 0xFF DUP2 AND PUSH1 0x20 DUP1 DUP5 ADD SWAP2 SWAP1 SWAP2 MSTORE PUSH2 0x100 SWAP1 SWAP2 DIV PUSH2 0xFFFF AND PUSH1 0x40 DUP1 DUP5 ADD SWAP2 SWAP1 SWAP2 MSTORE PUSH1 0x2 DUP5 ADD SLOAD PUSH1 0x60 DUP5 ADD MSTORE PUSH1 0x3 DUP5 ADD SLOAD PUSH1 0x80 DUP5 ADD MSTORE PUSH1 0x4 DUP5 ADD DUP1 SLOAD DUP3 MLOAD DUP2 DUP6 MUL DUP2 ADD DUP6 ADD SWAP1 SWAP4 MSTORE DUP1 DUP4 MSTORE PUSH1 0xA0 SWAP1 SWAP5 ADD SWAP4 SWAP2 SWAP3 SWAP1 SWAP2 SWAP1 DUP4 ADD DUP3 DUP3 DUP1 ISZERO PUSH2 0x83F JUMPI PUSH1 0x20 MUL DUP3 ADD SWAP2 SWAP1 PUSH1 0x0 MSTORE PUSH1 0x20 PUSH1 0x0 KECCAK256 SWAP1 JUMPDEST DUP2 SLOAD PUSH1 0x1 PUSH1 0x1 PUSH1 0xA0 SHL SUB AND DUP2 MSTORE PUSH1 0x1 SWAP1 SWAP2 ADD SWAP1 PUSH1 0x20 ADD DUP1 DUP4 GT PUSH2 0x821 JUMPI JUMPDEST POP POP POP POP POP DUP2 MSTORE POP POP DUP2 MSTORE PUSH1 0x20 ADD PUSH1 0x5 DUP3 ADD DUP1 SLOAD DUP1 PUSH1 0x20 MUL PUSH1 0x20 ADD PUSH1 0x40 MLOAD SWAP1 DUP2 ADD PUSH1 0x40 MSTORE DUP1 SWAP3 SWAP2 SWAP1 DUP2 DUP2 MSTORE PUSH1 0x20 ADD DUP3 DUP1 SLOAD DUP1 ISZERO PUSH2 0x8A5 JUMPI PUSH1 0x20 MUL DUP3 ADD SWAP2 SWAP1 PUSH1 0x0 MSTORE PUSH1 0x20 PUSH1 0x0 KECCAK256 SWAP1 JUMPDEST DUP2 SLOAD PUSH1 0x1 PUSH1 0x1 PUSH1 0xA0 SHL SUB AND DUP2 MSTORE PUSH1 0x1 SWAP1 SWAP2 ADD SWAP1 PUSH1 0x20 ADD DUP1 DUP4 GT PUSH2 0x887 JUMPI JUMPDEST POP POP POP POP POP DUP2 MSTORE PUSH1 0x20 ADD PUSH1 0x6 DUP3 ADD DUP1 SLOAD DUP1 PUSH1 0x20 MUL PUSH1 0x20 ADD PUSH1 0x40 MLOAD SWAP1 DUP2 ADD PUSH1 0x40 MSTORE DUP1 SWAP3 SWAP2 SWAP1 DUP2 DUP2 MSTORE PUSH1 0x20 ADD PUSH1 0x0 SWAP1 JUMPDEST DUP3 DUP3 LT ISZERO PUSH2 0x97F JUMPI DUP4 DUP3 SWAP1 PUSH1 0x0 MSTORE PUSH1 0x20 PUSH1 0x0 KECCAK256 ADD DUP1 SLOAD PUSH2 0x8F2 SWAP1 PUSH2 0x4D22 JUMP JUMPDEST DUP1 PUSH1 0x1F ADD PUSH1 0x20 DUP1 SWAP2 DIV MUL PUSH1 0x20 ADD PUSH1 0x40 MLOAD SWAP1 DUP2 ADD PUSH1 0x40 MSTORE DUP1 SWAP3 SWAP2 SWAP1 DUP2 DUP2 MSTORE PUSH1 0x20 ADD DUP3 DUP1 SLOAD PUSH2 0x91E SWAP1 PUSH2 0x4D22 JUMP JUMPDEST DUP1 ISZERO PUSH2 0x96B JUMPI DUP1 PUSH1 0x1F LT PUSH2 0x940 JUMPI PUSH2 0x100 DUP1 DUP4 SLOAD DIV MUL DUP4 MSTORE SWAP2 PUSH1 0x20 ADD SWAP2 PUSH2 0x96B JUMP JUMPDEST DUP3 ADD SWAP2 SWAP1 PUSH1 0x0 MSTORE PUSH1 0x20 PUSH1 0x0 KECCAK256 SWAP1 JUMPDEST DUP2 SLOAD DUP2 MSTORE SWAP1 PUSH1 0x1 ADD SWAP1 PUSH1 0x20 ADD DUP1 DUP4 GT PUSH2 0x94E JUMPI DUP3 SWAP1 SUB PUSH1 0x1F AND DUP3 ADD SWAP2 JUMPDEST POP POP POP POP POP DUP2 MSTORE PUSH1 0x20 ADD SWAP1 PUSH1 0x1 ADD SWAP1 PUSH2 0x8D3 JUMP JUMPDEST POP POP POP POP DUP2 MSTORE PUSH1 0x20 ADD PUSH1 0x7 DUP3 ADD DUP1 SLOAD DUP1 PUSH1 0x20 MUL PUSH1 0x20 ADD PUSH1 0x40 MLOAD SWAP1 DUP2 ADD PUSH1 0x40 MSTORE DUP1 SWAP3 SWAP2 SWAP1 DUP2 DUP2 MSTORE PUSH1 0x20 ADD DUP3 DUP1 SLOAD DUP1 ISZERO PUSH2 0x9D6 JUMPI PUSH1 0x20 MUL DUP3 ADD SWAP2 SWAP1 PUSH1 0x0 MSTORE PUSH1 0x20 PUSH1 0x0 KECCAK256 SWAP1 JUMPDEST DUP2 SLOAD DUP2 MSTORE PUSH1 0x20 ADD SWAP1 PUSH1 0x1 ADD SWAP1 DUP1 DUP4 GT PUSH2 0x9C2 JUMPI JUMPDEST POP POP POP POP POP DUP2 MSTORE POP POP SWAP4 POP DUP3 PUSH1 0x40 MLOAD DUP1 PUSH1 0xC0 ADD PUSH1 0x40 MSTORE SWAP1 DUP2 PUSH1 0x0 DUP3 ADD DUP1 SLOAD PUSH2 0x9FD SWAP1 PUSH2 0x4D22 JUMP JUMPDEST DUP1 PUSH1 0x1F ADD PUSH1 0x20 DUP1 SWAP2 DIV MUL PUSH1 0x20 ADD PUSH1 0x40 MLOAD SWAP1 DUP2 ADD PUSH1 0x40 MSTORE DUP1 SWAP3 SWAP2 SWAP1 DUP2 DUP2 MSTORE PUSH1 0x20 ADD DUP3 DUP1 SLOAD PUSH2 0xA29 SWAP1 PUSH2 0x4D22 JUMP JUMPDEST DUP1 ISZERO PUSH2 0xA76 JUMPI DUP1 PUSH1 0x1F LT PUSH2 0xA4B JUMPI PUSH2 0x100 DUP1 DUP4 SLOAD DIV MUL DUP4 MSTORE SWAP2 PUSH1 0x20 ADD SWAP2 PUSH2 0xA76 JUMP JUMPDEST DUP3 ADD SWAP2 SWAP1 PUSH1 0x0 MSTORE PUSH1 0x20 PUSH1 0x0 KECCAK256 SWAP1 JUMPDEST DUP2 SLOAD DUP2 MSTORE SWAP1 PUSH1 0x1 ADD SWAP1 PUSH1 0x20 ADD DUP1 DUP4 GT PUSH2 0xA59 JUMPI DUP3 SWAP1 SUB PUSH1 0x1F AND DUP3 ADD SWAP2 JUMPDEST POP POP POP SWAP2 DUP4 MSTORE POP POP PUSH1 0x1 DUP3 ADD SLOAD PUSH1 0xFF DUP2 AND PUSH1 0x20 DUP1 DUP5 ADD SWAP2 SWAP1 SWAP2 MSTORE PUSH2 0x100 SWAP1 SWAP2 DIV PUSH2 0xFFFF AND PUSH1 0x40 DUP1 DUP5 ADD SWAP2 SWAP1 SWAP2 MSTORE PUSH1 0x2 DUP5 ADD SLOAD PUSH1 0x60 DUP5 ADD MSTORE PUSH1 0x3 DUP5 ADD SLOAD PUSH1 0x80 DUP5 ADD MSTORE PUSH1 0x4 DUP5 ADD DUP1 SLOAD DUP3 MLOAD DUP2 DUP6 MUL DUP2 ADD DUP6 ADD SWAP1 SWAP4 MSTORE DUP1 DUP4 MSTORE PUSH1 0xA0 SWAP1 SWAP5 ADD SWAP4 SWAP2 SWAP3 SWAP1 SWAP2 SWAP1 DUP4 ADD DUP3 DUP3 DUP1 ISZERO PUSH2 0xB10 JUMPI PUSH1 0x20 MUL DUP3 ADD SWAP2 SWAP1 PUSH1 0x0 MSTORE PUSH1 0x20 PUSH1 0x0 KECCAK256 SWAP1 JUMPDEST DUP2 SLOAD PUSH1 0x1 PUSH1 0x1 PUSH1 0xA0 SHL SUB AND DUP2 MSTORE PUSH1 0x1 SWAP1 SWAP2 ADD SWAP1 PUSH1 0x20 ADD DUP1 DUP4 GT PUSH2 0xAF2 JUMPI JUMPDEST POP POP POP POP POP DUP2 MSTORE POP POP SWAP3 POP DUP2 PUSH1 0x40 MLOAD DUP1 PUSH1 0x80 ADD PUSH1 0x40 MSTORE SWAP1 DUP2 PUSH1 0x0 DUP3 ADD PUSH1 0x40 MLOAD DUP1 PUSH1 0xC0 ADD PUSH1 0x40 MSTORE SWAP1 DUP2 PUSH1 0x0 DUP3 ADD DUP1 SLOAD PUSH2 0xB47 SWAP1 PUSH2 0x4D22 JUMP JUMPDEST DUP1 PUSH1 0x1F ADD PUSH1 0x20 DUP1 SWAP2 DIV MUL PUSH1 0x20 ADD PUSH1 0x40 MLOAD SWAP1 DUP2 ADD PUSH1 0x40 MSTORE DUP1 SWAP3 SWAP2 SWAP1 DUP2 DUP2 MSTORE PUSH1 0x20 ADD DUP3 DUP1 SLOAD PUSH2 0xB73 SWAP1 PUSH2 0x4D22 JUMP JUMPDEST DUP1 ISZERO PUSH2 0xBC0 JUMPI DUP1 PUSH1 0x1F LT PUSH2 0xB95 JUMPI PUSH2 0x100 DUP1 DUP4 SLOAD DIV MUL DUP4 MSTORE SWAP2 PUSH1 0x20 ADD SWAP2 PUSH2 0xBC0 JUMP JUMPDEST DUP3 ADD SWAP2 SWAP1 PUSH1 0x0 MSTORE PUSH1 0x20 PUSH1 0x0 KECCAK256 SWAP1 JUMPDEST DUP2 SLOAD DUP2 MSTORE SWAP1 PUSH1 0x1 ADD SWAP1 PUSH1 0x20 ADD DUP1 DUP4 GT PUSH2 0xBA3 JUMPI DUP3 SWAP1 SUB PUSH1 0x1F AND DUP3 ADD SWAP2 JUMPDEST POP POP POP SWAP2 DUP4 MSTORE POP POP PUSH1 0x1 DUP3 ADD SLOAD PUSH1 0xFF DUP2 AND PUSH1 0x20 DUP1 DUP5 ADD SWAP2 SWAP1 SWAP2 MSTORE PUSH2 0x100 SWAP1 SWAP2 DIV PUSH2 0xFFFF AND PUSH1 0x40 DUP1 DUP5 ADD SWAP2 SWAP1 SWAP2 MSTORE PUSH1 0x2 DUP5 ADD SLOAD PUSH1 0x60 DUP5 ADD MSTORE PUSH1 0x3 DUP5 ADD SLOAD PUSH1 0x80 DUP5 ADD MSTORE PUSH1 0x4 DUP5 ADD DUP1 SLOAD DUP3 MLOAD DUP2 DUP6 MUL DUP2 ADD DUP6 ADD SWAP1 SWAP4 MSTORE DUP1 DUP4 MSTORE PUSH1 0xA0 SWAP1 SWAP5 ADD SWAP4 SWAP2 SWAP3 SWAP1 SWAP2 SWAP1 DUP4 ADD DUP3 DUP3 DUP1 ISZERO PUSH2 0xC5A JUMPI PUSH1 0x20 MUL DUP3 ADD SWAP2 SWAP1 PUSH1 0x0 MSTORE PUSH1 0x20 PUSH1 0x0 KECCAK256 SWAP1 JUMPDEST DUP2 SLOAD PUSH1 0x1 PUSH1 0x1 PUSH1 0xA0 SHL SUB AND DUP2 MSTORE PUSH1 0x1 SWAP1 SWAP2 ADD SWAP1 PUSH1 0x20 ADD DUP1 DUP4 GT PUSH2 0xC3C JUMPI JUMPDEST POP POP POP POP POP DUP2 MSTORE POP POP DUP2 MSTORE PUSH1 0x20 ADD PUSH1 0x5 DUP3 ADD DUP1 SLOAD DUP1 PUSH1 0x20 MUL PUSH1 0x20 ADD PUSH1 0x40 MLOAD SWAP1 DUP2 ADD PUSH1 0x40 MSTORE DUP1 SWAP3 SWAP2 SWAP1 DUP2 DUP2 MSTORE PUSH1 0x20 ADD DUP3 DUP1 SLOAD DUP1 ISZERO PUSH2 0xCC0 JUMPI PUSH1 0x20 MUL DUP3 ADD SWAP2 SWAP1 PUSH1 0x0 MSTORE PUSH1 0x20 PUSH1 0x0 KECCAK256 SWAP1 JUMPDEST DUP2 SLOAD PUSH1 0x1 PUSH1 0x1 PUSH1 0xA0 SHL SUB AND DUP2 MSTORE PUSH1 0x1 SWAP1 SWAP2 ADD SWAP1 PUSH1 0x20 ADD DUP1 DUP4 GT PUSH2 0xCA2 JUMPI JUMPDEST POP POP POP SWAP2 DUP4 MSTORE POP POP PUSH1 0x6 DUP3 ADD SLOAD PUSH1 0xFF AND ISZERO ISZERO PUSH1 0x20 DUP1 DUP4 ADD SWAP2 SWAP1 SWAP2 MSTORE PUSH1 0x7 DUP4 ADD DUP1 SLOAD PUSH1 0x40 DUP1 MLOAD DUP3 DUP6 MUL DUP2 ADD DUP6 ADD DUP3 MSTORE DUP3 DUP2 MSTORE SWAP5 ADD SWAP4 SWAP3 DUP4 ADD DUP3 DUP3 DUP1 ISZERO PUSH2 0xD42 JUMPI PUSH1 0x20 MUL DUP3 ADD SWAP2 SWAP1 PUSH1 0x0 MSTORE PUSH1 0x20 PUSH1 0x0 KECCAK256 SWAP1 PUSH1 0x0 SWAP1 JUMPDEST DUP3 SLOAD PUSH2 0x100 DUP4 SWAP1 EXP SWAP1 DIV PUSH1 0xFF AND DUP2 MSTORE PUSH1 0x20 PUSH1 0x1 SWAP3 DUP4 ADD DUP2 DUP2 DIV SWAP5 DUP6 ADD SWAP5 SWAP1 SWAP4 SUB SWAP1 SWAP3 MUL SWAP2 ADD DUP1 DUP5 GT PUSH2 0xD13 JUMPI SWAP1 POP JUMPDEST POP POP POP POP POP DUP2 MSTORE POP POP SWAP2 POP DUP1 PUSH1 0x40 MLOAD DUP1 PUSH1 0x80 ADD PUSH1 0x40 MSTORE SWAP1 DUP2 PUSH1 0x0 DUP3 ADD PUSH1 0x40 MLOAD DUP1 PUSH1 0xC0 ADD PUSH1 0x40 MSTORE SWAP1 DUP2 PUSH1 0x0 DUP3 ADD DUP1 SLOAD PUSH2 0xD79 SWAP1 PUSH2 0x4D22 JUMP JUMPDEST DUP1 PUSH1 0x1F ADD PUSH1 0x20 DUP1 SWAP2 DIV MUL PUSH1 0x20 ADD PUSH1 0x40 MLOAD SWAP1 DUP2 ADD PUSH1 0x40 MSTORE DUP1 SWAP3 SWAP2 SWAP1 DUP2 DUP2 MSTORE PUSH1 0x20 ADD DUP3 DUP1 SLOAD PUSH2 0xDA5 SWAP1 PUSH2 0x4D22 JUMP JUMPDEST DUP1 ISZERO PUSH2 0xDF2 JUMPI DUP1 PUSH1 0x1F LT PUSH2 0xDC7 JUMPI PUSH2 0x100 DUP1 DUP4 SLOAD DIV MUL DUP4 MSTORE SWAP2 PUSH1 0x20 ADD SWAP2 PUSH2 0xDF2 JUMP JUMPDEST DUP3 ADD SWAP2 SWAP1 PUSH1 0x0 MSTORE PUSH1 0x20 PUSH1 0x0 KECCAK256 SWAP1 JUMPDEST DUP2 SLOAD DUP2 MSTORE SWAP1 PUSH1 0x1 ADD SWAP1 PUSH1 0x20 ADD DUP1 DUP4 GT PUSH2 0xDD5 JUMPI DUP3 SWAP1 SUB PUSH1 0x1F AND DUP3 ADD SWAP2 JUMPDEST POP POP POP SWAP2 DUP4 MSTORE POP POP PUSH1 0x1 DUP3 ADD SLOAD PUSH1 0xFF DUP2 AND PUSH1 0x20 DUP1 DUP5 ADD SWAP2 SWAP1 SWAP2 MSTORE PUSH2 0x100 SWAP1 SWAP2 DIV PUSH2 0xFFFF AND PUSH1 0x40 DUP1 DUP5 ADD SWAP2 SWAP1 SWAP2 MSTORE PUSH1 0x2 DUP5 ADD SLOAD PUSH1 0x60 DUP5 ADD MSTORE PUSH1 0x3 DUP5 ADD SLOAD PUSH1 0x80 DUP5 ADD MSTORE PUSH1 0x4 DUP5 ADD DUP1 SLOAD DUP3 MLOAD DUP2 DUP6 MUL DUP2 ADD DUP6 ADD SWAP1 SWAP4 MSTORE DUP1 DUP4 MSTORE PUSH1 0xA0 SWAP1 SWAP5 ADD SWAP4 SWAP2 SWAP3 SWAP1 SWAP2 SWAP1 DUP4 ADD DUP3 DUP3 DUP1 ISZERO PUSH2 0xE8C JUMPI PUSH1 0x20 MUL DUP3 ADD SWAP2 SWAP1 PUSH1 0x0 MSTORE PUSH1 0x20 PUSH1 0x0 KECCAK256 SWAP1 JUMPDEST DUP2 SLOAD PUSH1 0x1 PUSH1 0x1 PUSH1 0xA0 SHL SUB AND DUP2 MSTORE PUSH1 0x1 SWAP1 SWAP2 ADD SWAP1 PUSH1 0x20 ADD DUP1 DUP4 GT PUSH2 0xE6E JUMPI JUMPDEST POP POP POP SWAP2 SWAP1 SWAP3 MSTORE POP POP POP DUP2 MSTORE PUSH1 0x5 SWAP2 SWAP1 SWAP2 ADD SLOAD PUSH1 0x1 PUSH1 0x1 PUSH1 0xA0 SHL SUB DUP2 AND PUSH1 0x20 DUP4 ADD MSTORE PUSH1 0xFF PUSH1 0x1 PUSH1 0xA0 SHL DUP3 DIV DUP2 AND PUSH1 0x40 DUP5 ADD MSTORE PUSH1 0x1 PUSH1 0xA8 SHL SWAP1 SWAP2 DIV AND PUSH1 0x60 SWAP1 SWAP2 ADD MSTORE SWAP4 SWAP10 SWAP3 SWAP9 POP SWAP1 SWAP7 POP SWAP2 SWAP5 POP SWAP3 POP POP POP JUMP JUMPDEST PUSH1 0x0 PUSH1 0x60 DUP1 PUSH1 0x0 JUMPDEST PUSH2 0xF16 PUSH1 0x7 DUP7 PUSH1 0x4 DUP2 LT PUSH2 0xF0A JUMPI PUSH4 0x4E487B71 PUSH1 0xE0 SHL PUSH1 0x0 MSTORE PUSH1 0x32 PUSH1 0x4 MSTORE PUSH1 0x24 PUSH1 0x0 REVERT JUMPDEST PUSH1 0x7 MUL ADD PUSH1 0x1 ADD PUSH2 0x2D5D JUMP JUMPDEST DUP2 LT ISZERO PUSH2 0xFA1 JUMPI PUSH2 0xF57 DUP2 PUSH1 0x7 DUP8 PUSH1 0x4 DUP2 LT PUSH2 0xF42 JUMPI PUSH4 0x4E487B71 PUSH1 0xE0 SHL PUSH1 0x0 MSTORE PUSH1 0x32 PUSH1 0x4 MSTORE PUSH1 0x24 PUSH1 0x0 REVERT JUMPDEST PUSH1 0x7 MUL ADD PUSH1 0x1 ADD PUSH2 0x2D67 SWAP1 SWAP2 SWAP1 PUSH4 0xFFFFFFFF AND JUMP JUMPDEST DUP3 DUP3 DUP2 MLOAD DUP2 LT PUSH2 0xF77 JUMPI PUSH4 0x4E487B71 PUSH1 0xE0 SHL PUSH1 0x0 MSTORE PUSH1 0x32 PUSH1 0x4 MSTORE PUSH1 0x24 PUSH1 0x0 REVERT JUMPDEST PUSH1 0x1 PUSH1 0x1 PUSH1 0xA0 SHL SUB SWAP1 SWAP3 AND PUSH1 0x20 SWAP3 DUP4 MUL SWAP2 SWAP1 SWAP2 ADD SWAP1 SWAP2 ADD MSTORE DUP1 PUSH2 0xF99 DUP2 PUSH2 0x4D79 JUMP JUMPDEST SWAP2 POP POP PUSH2 0xEE6 JUMP JUMPDEST POP PUSH1 0x7 DUP5 PUSH1 0x4 DUP2 LT PUSH2 0xFC3 JUMPI PUSH4 0x4E487B71 PUSH1 0xE0 SHL PUSH1 0x0 MSTORE PUSH1 0x32 PUSH1 0x4 MSTORE PUSH1 0x24 PUSH1 0x0 REVERT JUMPDEST PUSH1 0x7 MUL ADD SLOAD SWAP5 SWAP1 SWAP4 POP SWAP2 POP POP JUMP JUMPDEST PUSH1 0x1 DUP1 SLOAD PUSH1 0x40 DUP1 MLOAD PUSH1 0x20 DUP1 DUP5 MUL DUP3 ADD DUP2 ADD SWAP1 SWAP3 MSTORE DUP3 DUP2 MSTORE PUSH1 0x60 SWAP4 SWAP1 SWAP3 SWAP1 SWAP2 DUP4 ADD DUP3 DUP3 DUP1 ISZERO PUSH2 0x101E JUMPI PUSH1 0x20 MUL DUP3 ADD SWAP2 SWAP1 PUSH1 0x0 MSTORE PUSH1 0x20 PUSH1 0x0 KECCAK256 SWAP1 JUMPDEST DUP2 SLOAD DUP2 MSTORE PUSH1 0x20 ADD SWAP1 PUSH1 0x1 ADD SWAP1 DUP1 DUP4 GT PUSH2 0x100A JUMPI JUMPDEST POP POP POP POP POP SWAP1 POP SWAP1 JUMP JUMPDEST CALLER PUSH2 0x1034 PUSH1 0x1 DUP3 PUSH2 0x2B8B JUMP JUMPDEST PUSH2 0x103D JUMPI PUSH1 0x0 DUP1 REVERT JUMPDEST PUSH1 0x40 DUP1 MLOAD PUSH2 0x140 DUP2 ADD DUP3 MSTORE PUSH1 0x80 DUP2 ADD DUP9 DUP2 MSTORE PUSH1 0xFF DUP9 AND PUSH1 0xA0 DUP4 ADD MSTORE PUSH1 0x0 DUP1 SLOAD PUSH2 0xFFFF AND PUSH1 0xC0 DUP5 ADD DUP2 SWAP1 MSTORE TIMESTAMP PUSH1 0xE0 DUP6 ADD MSTORE PUSH2 0x100 DUP5 ADD DUP3 SWAP1 MSTORE PUSH1 0x60 PUSH2 0x120 DUP6 ADD DUP2 SWAP1 MSTORE SWAP3 DUP5 MSTORE PUSH1 0x20 DUP1 DUP6 ADD DUP11 SWAP1 MSTORE DUP9 ISZERO ISZERO DUP6 DUP8 ADD MSTORE DUP5 DUP5 ADD DUP9 SWAP1 MSTORE SWAP1 DUP3 MSTORE PUSH1 0x5 DUP2 MSTORE SWAP4 SWAP1 KECCAK256 DUP3 MLOAD DUP1 MLOAD DUP1 MLOAD SWAP4 SWAP6 SWAP3 SWAP4 SWAP2 SWAP3 DUP5 SWAP3 PUSH2 0x10BC SWAP3 DUP5 SWAP3 ADD SWAP1 PUSH2 0x3CCD JUMP JUMPDEST POP PUSH1 0x20 DUP3 DUP2 ADD MLOAD PUSH1 0x1 DUP4 ADD DUP1 SLOAD PUSH1 0x40 DUP7 ADD MLOAD PUSH2 0xFFFF AND PUSH2 0x100 MUL PUSH3 0xFFFFFF NOT SWAP1 SWAP2 AND PUSH1 0xFF SWAP1 SWAP4 AND SWAP3 SWAP1 SWAP3 OR SWAP2 SWAP1 SWAP2 OR SWAP1 SSTORE PUSH1 0x60 DUP4 ADD MLOAD PUSH1 0x2 DUP4 ADD SSTORE PUSH1 0x80 DUP4 ADD MLOAD PUSH1 0x3 DUP4 ADD SSTORE PUSH1 0xA0 DUP4 ADD MLOAD DUP1 MLOAD PUSH2 0x1118 SWAP3 PUSH1 0x4 DUP6 ADD SWAP3 ADD SWAP1 PUSH2 0x3D51 JUMP JUMPDEST POP POP POP PUSH1 0x20 DUP3 DUP2 ADD MLOAD DUP1 MLOAD PUSH2 0x1133 SWAP3 PUSH1 0x5 DUP6 ADD SWAP3 ADD SWAP1 PUSH2 0x3D51 JUMP JUMPDEST POP PUSH1 0x40 DUP3 ADD MLOAD PUSH1 0x6 DUP3 ADD DUP1 SLOAD PUSH1 0xFF NOT AND SWAP2 ISZERO ISZERO SWAP2 SWAP1 SWAP2 OR SWAP1 SSTORE PUSH1 0x60 DUP3 ADD MLOAD DUP1 MLOAD PUSH2 0x1167 SWAP2 PUSH1 0x7 DUP5 ADD SWAP2 PUSH1 0x20 SWAP1 SWAP2 ADD SWAP1 PUSH2 0x3E6B JUMP JUMPDEST POP POP PUSH1 0x0 DUP1 SLOAD PUSH2 0xFFFF AND SWAP2 POP DUP1 PUSH2 0x117D DUP4 PUSH2 0x4D57 JUMP JUMPDEST DUP3 SLOAD PUSH2 0x100 SWAP3 SWAP1 SWAP3 EXP PUSH2 0xFFFF DUP2 DUP2 MUL NOT SWAP1 SWAP4 AND SWAP2 DUP4 AND MUL OR SWAP1 SWAP2 SSTORE PUSH1 0x0 SLOAD PUSH2 0x11A9 SWAP3 POP PUSH1 0x1 SWAP2 AND PUSH2 0x4CBC JUMP JUMPDEST PUSH2 0xFFFF AND DUP8 PUSH1 0x40 MLOAD PUSH2 0x11BB SWAP2 SWAP1 PUSH2 0x49CF JUMP JUMPDEST PUSH1 0x40 DUP1 MLOAD SWAP2 DUP3 SWAP1 SUB DUP3 KECCAK256 PUSH1 0xFF DUP11 AND DUP4 MSTORE TIMESTAMP PUSH1 0x20 DUP5 ADD MSTORE SWAP2 PUSH1 0x0 DUP1 MLOAD PUSH1 0x20 PUSH2 0x4DC1 DUP4 CODECOPY DUP2 MLOAD SWAP2 MSTORE SWAP2 ADD JUMPDEST PUSH1 0x40 MLOAD DUP1 SWAP2 SUB SWAP1 LOG3 POP POP POP POP POP POP POP JUMP JUMPDEST CALLER PUSH2 0x1201 PUSH1 0x1 DUP3 PUSH2 0x2B8B JUMP JUMPDEST PUSH2 0x120A JUMPI PUSH1 0x0 DUP1 REVERT JUMPDEST PUSH1 0x40 DUP1 MLOAD PUSH2 0x140 DUP2 ADD DUP3 MSTORE PUSH1 0x80 DUP2 ADD DUP9 DUP2 MSTORE PUSH1 0xFF DUP9 AND PUSH1 0xA0 DUP4 ADD MSTORE PUSH1 0x0 DUP1 SLOAD PUSH2 0xFFFF AND PUSH1 0xC0 DUP5 ADD DUP2 SWAP1 MSTORE TIMESTAMP PUSH1 0xE0 DUP6 ADD MSTORE PUSH2 0x100 DUP5 ADD DUP3 SWAP1 MSTORE PUSH1 0x60 PUSH2 0x120 DUP6 ADD DUP2 SWAP1 MSTORE SWAP3 DUP5 MSTORE PUSH1 0x20 DUP1 DUP6 ADD DUP11 SWAP1 MSTORE DUP5 DUP7 ADD DUP10 SWAP1 MSTORE DUP5 DUP5 ADD DUP9 SWAP1 MSTORE SWAP1 DUP3 MSTORE PUSH1 0x3 DUP2 MSTORE SWAP4 SWAP1 KECCAK256 DUP3 MLOAD DUP1 MLOAD DUP1 MLOAD SWAP4 SWAP6 SWAP3 SWAP4 SWAP2 SWAP3 DUP5 SWAP3 PUSH2 0x1288 SWAP3 DUP5 SWAP3 ADD SWAP1 PUSH2 0x3CCD JUMP JUMPDEST POP PUSH1 0x20 DUP3 DUP2 ADD MLOAD PUSH1 0x1 DUP4 ADD DUP1 SLOAD PUSH1 0x40 DUP7 ADD MLOAD PUSH2 0xFFFF AND PUSH2 0x100 MUL PUSH3 0xFFFFFF NOT SWAP1 SWAP2 AND PUSH1 0xFF SWAP1 SWAP4 AND SWAP3 SWAP1 SWAP3 OR SWAP2 SWAP1 SWAP2 OR SWAP1 SSTORE PUSH1 0x60 DUP4 ADD MLOAD PUSH1 0x2 DUP4 ADD SSTORE PUSH1 0x80 DUP4 ADD MLOAD PUSH1 0x3 DUP4 ADD SSTORE PUSH1 0xA0 DUP4 ADD MLOAD DUP1 MLOAD PUSH2 0x12E4 SWAP3 PUSH1 0x4 DUP6 ADD SWAP3 ADD SWAP1 PUSH2 0x3D51 JUMP JUMPDEST POP POP POP PUSH1 0x20 DUP3 DUP2 ADD MLOAD DUP1 MLOAD PUSH2 0x12FF SWAP3 PUSH1 0x5 DUP6 ADD SWAP3 ADD SWAP1 PUSH2 0x3D51 JUMP JUMPDEST POP PUSH1 0x40 DUP3 ADD MLOAD DUP1 MLOAD PUSH2 0x131B SWAP2 PUSH1 0x6 DUP5 ADD SWAP2 PUSH1 0x20 SWAP1 SWAP2 ADD SWAP1 PUSH2 0x3F0C JUMP JUMPDEST POP PUSH1 0x60 DUP3 ADD MLOAD DUP1 MLOAD PUSH2 0x1167 SWAP2 PUSH1 0x7 DUP5 ADD SWAP2 PUSH1 0x20 SWAP1 SWAP2 ADD SWAP1 PUSH2 0x3F65 JUMP JUMPDEST CALLER DUP5 PUSH2 0x135E DUP3 PUSH1 0x7 DUP4 PUSH1 0x4 DUP2 LT PUSH2 0x64B JUMPI PUSH4 0x4E487B71 PUSH1 0xE0 SHL PUSH1 0x0 MSTORE PUSH1 0x32 PUSH1 0x4 MSTORE PUSH1 0x24 PUSH1 0x0 REVERT JUMPDEST PUSH2 0x1367 JUMPI PUSH1 0x0 DUP1 REVERT JUMPDEST PUSH2 0x13A5 DUP6 DUP6 DUP6 PUSH1 0x7 DUP11 PUSH1 0x4 DUP2 LT PUSH2 0x138E JUMPI PUSH4 0x4E487B71 PUSH1 0xE0 SHL PUSH1 0x0 MSTORE PUSH1 0x32 PUSH1 0x4 MSTORE PUSH1 0x24 PUSH1 0x0 REVERT JUMPDEST PUSH1 0x7 MUL ADD PUSH1 0x4 ADD PUSH2 0x2D73 SWAP1 SWAP4 SWAP3 SWAP2 SWAP1 PUSH4 0xFFFFFFFF AND JUMP JUMPDEST POP POP POP POP POP POP JUMP JUMPDEST PUSH1 0x0 PUSH2 0x13D4 DUP3 PUSH1 0x7 DUP6 PUSH1 0x4 DUP2 LT PUSH2 0x64B JUMPI PUSH4 0x4E487B71 PUSH1 0xE0 SHL PUSH1 0x0 MSTORE PUSH1 0x32 PUSH1 0x4 MSTORE PUSH1 0x24 PUSH1 0x0 REVERT JUMPDEST ISZERO PUSH2 0x13E1 JUMPI POP PUSH1 0x1 PUSH2 0x4C4 JUMP JUMPDEST POP PUSH1 0x0 SWAP3 SWAP2 POP POP JUMP JUMPDEST PUSH1 0x0 DUP3 DUP2 MSTORE PUSH1 0x24 PUSH1 0x20 SWAP1 DUP2 MSTORE PUSH1 0x40 DUP1 DUP4 KECCAK256 PUSH2 0xFFFF DUP6 AND DUP5 MSTORE SWAP1 SWAP2 MSTORE SWAP1 KECCAK256 SLOAD PUSH1 0xFF AND ISZERO PUSH2 0x1415 JUMPI PUSH1 0x0 DUP1 REVERT JUMPDEST PUSH1 0x7 DUP3 PUSH1 0x4 DUP2 LT PUSH2 0x1436 JUMPI PUSH4 0x4E487B71 PUSH1 0xE0 SHL PUSH1 0x0 MSTORE PUSH1 0x32 PUSH1 0x4 MSTORE PUSH1 0x24 PUSH1 0x0 REVERT JUMPDEST PUSH2 0xFFFF DUP4 DUP2 AND PUSH1 0x0 SWAP1 DUP2 MSTORE PUSH1 0x7 SWAP3 SWAP1 SWAP3 MUL SWAP3 SWAP1 SWAP3 ADD PUSH1 0x5 ADD PUSH1 0x20 MSTORE PUSH1 0x40 SWAP1 KECCAK256 PUSH1 0x1 ADD SLOAD PUSH2 0x100 SWAP1 DIV AND ISZERO DUP1 ISZERO SWAP1 PUSH2 0x14DD JUMPI POP PUSH1 0x2 PUSH2 0x148E PUSH1 0x7 DUP5 PUSH1 0x4 DUP2 LT PUSH2 0xF0A JUMPI PUSH4 0x4E487B71 PUSH1 0xE0 SHL PUSH1 0x0 MSTORE PUSH1 0x32 PUSH1 0x4 MSTORE PUSH1 0x24 PUSH1 0x0 REVERT JUMPDEST PUSH2 0x1498 SWAP2 SWAP1 PUSH2 0x4C71 JUMP JUMPDEST PUSH1 0x7 DUP4 PUSH1 0x4 DUP2 LT PUSH2 0x14B9 JUMPI PUSH4 0x4E487B71 PUSH1 0xE0 SHL PUSH1 0x0 MSTORE PUSH1 0x32 PUSH1 0x4 MSTORE PUSH1 0x24 PUSH1 0x0 REVERT JUMPDEST PUSH2 0xFFFF DUP5 AND PUSH1 0x0 SWAP1 DUP2 MSTORE PUSH1 0x5 PUSH1 0x7 SWAP3 SWAP1 SWAP3 MUL SWAP3 SWAP1 SWAP3 ADD ADD PUSH1 0x20 MSTORE PUSH1 0x40 SWAP1 KECCAK256 PUSH1 0x3 ADD SLOAD GT JUMPDEST ISZERO PUSH2 0x16DA JUMPI PUSH1 0x0 PUSH1 0x7 DUP4 PUSH1 0x4 DUP2 LT PUSH2 0x1505 JUMPI PUSH4 0x4E487B71 PUSH1 0xE0 SHL PUSH1 0x0 MSTORE PUSH1 0x32 PUSH1 0x4 MSTORE PUSH1 0x24 PUSH1 0x0 REVERT JUMPDEST PUSH2 0xFFFF DUP5 AND PUSH1 0x0 DUP2 DUP2 MSTORE PUSH1 0x5 PUSH1 0x7 SWAP4 SWAP1 SWAP4 MUL SWAP4 SWAP1 SWAP4 ADD SWAP2 SWAP1 SWAP2 ADD PUSH1 0x20 SWAP1 DUP2 MSTORE PUSH1 0x40 DUP1 DUP5 KECCAK256 DUP8 DUP6 MSTORE PUSH1 0x24 DUP4 MSTORE DUP2 DUP6 KECCAK256 SWAP4 DUP6 MSTORE SWAP3 SWAP1 SWAP2 MSTORE DUP3 KECCAK256 DUP1 SLOAD PUSH1 0xFF NOT AND PUSH1 0x1 OR SWAP1 SSTORE SWAP2 POP JUMPDEST PUSH1 0x5 DUP3 ADD SLOAD DUP2 LT ISZERO PUSH2 0x1690 JUMPI PUSH2 0x167E DUP3 PUSH1 0x5 ADD DUP3 DUP2 SLOAD DUP2 LT PUSH2 0x157C JUMPI PUSH4 0x4E487B71 PUSH1 0xE0 SHL PUSH1 0x0 MSTORE PUSH1 0x32 PUSH1 0x4 MSTORE PUSH1 0x24 PUSH1 0x0 REVERT JUMPDEST PUSH1 0x0 SWAP2 DUP3 MSTORE PUSH1 0x20 SWAP1 SWAP2 KECCAK256 ADD SLOAD PUSH1 0x6 DUP5 ADD DUP1 SLOAD PUSH1 0x1 PUSH1 0x1 PUSH1 0xA0 SHL SUB SWAP1 SWAP3 AND SWAP2 DUP5 SWAP1 DUP2 LT PUSH2 0x15B8 JUMPI PUSH4 0x4E487B71 PUSH1 0xE0 SHL PUSH1 0x0 MSTORE PUSH1 0x32 PUSH1 0x4 MSTORE PUSH1 0x24 PUSH1 0x0 REVERT JUMPDEST SWAP1 PUSH1 0x0 MSTORE PUSH1 0x20 PUSH1 0x0 KECCAK256 ADD DUP1 SLOAD PUSH2 0x15CD SWAP1 PUSH2 0x4D22 JUMP JUMPDEST DUP1 PUSH1 0x1F ADD PUSH1 0x20 DUP1 SWAP2 DIV MUL PUSH1 0x20 ADD PUSH1 0x40 MLOAD SWAP1 DUP2 ADD PUSH1 0x40 MSTORE DUP1 SWAP3 SWAP2 SWAP1 DUP2 DUP2 MSTORE PUSH1 0x20 ADD DUP3 DUP1 SLOAD PUSH2 0x15F9 SWAP1 PUSH2 0x4D22 JUMP JUMPDEST DUP1 ISZERO PUSH2 0x1646 JUMPI DUP1 PUSH1 0x1F LT PUSH2 0x161B JUMPI PUSH2 0x100 DUP1 DUP4 SLOAD DIV MUL DUP4 MSTORE SWAP2 PUSH1 0x20 ADD SWAP2 PUSH2 0x1646 JUMP JUMPDEST DUP3 ADD SWAP2 SWAP1 PUSH1 0x0 MSTORE PUSH1 0x20 PUSH1 0x0 KECCAK256 SWAP1 JUMPDEST DUP2 SLOAD DUP2 MSTORE SWAP1 PUSH1 0x1 ADD SWAP1 PUSH1 0x20 ADD DUP1 DUP4 GT PUSH2 0x1629 JUMPI DUP3 SWAP1 SUB PUSH1 0x1F AND DUP3 ADD SWAP2 JUMPDEST POP POP POP POP POP DUP5 PUSH1 0x7 ADD DUP5 DUP2 SLOAD DUP2 LT PUSH2 0x166E JUMPI PUSH4 0x4E487B71 PUSH1 0xE0 SHL PUSH1 0x0 MSTORE PUSH1 0x32 PUSH1 0x4 MSTORE PUSH1 0x24 PUSH1 0x0 REVERT JUMPDEST SWAP1 PUSH1 0x0 MSTORE PUSH1 0x20 PUSH1 0x0 KECCAK256 ADD SLOAD PUSH2 0x2ED9 JUMP JUMPDEST DUP1 PUSH2 0x1688 DUP2 PUSH2 0x4D79 JUMP JUMPDEST SWAP2 POP POP PUSH2 0x154A JUMP JUMPDEST POP PUSH1 0x40 MLOAD PUSH2 0x169F SWAP1 DUP3 SWAP1 PUSH2 0x49EB JUMP JUMPDEST PUSH1 0x40 MLOAD SWAP1 DUP2 SWAP1 SUB DUP2 KECCAK256 PUSH1 0x1 DUP4 ADD SLOAD PUSH2 0x100 SWAP1 DIV PUSH2 0xFFFF AND DUP3 MSTORE SWAP1 PUSH1 0x0 DUP1 MLOAD PUSH1 0x20 PUSH2 0x4DE1 DUP4 CODECOPY DUP2 MLOAD SWAP2 MSTORE SWAP1 PUSH1 0x20 ADD JUMPDEST PUSH1 0x40 MLOAD DUP1 SWAP2 SUB SWAP1 LOG2 POP POP POP JUMP JUMPDEST PUSH1 0x7 DUP3 PUSH1 0x4 DUP2 LT PUSH2 0x16FB JUMPI PUSH4 0x4E487B71 PUSH1 0xE0 SHL PUSH1 0x0 MSTORE PUSH1 0x32 PUSH1 0x4 MSTORE PUSH1 0x24 PUSH1 0x0 REVERT JUMPDEST PUSH2 0xFFFF DUP4 DUP2 AND PUSH1 0x0 SWAP1 DUP2 MSTORE PUSH1 0x7 SWAP3 SWAP1 SWAP3 MUL SWAP3 SWAP1 SWAP3 ADD PUSH1 0x6 ADD PUSH1 0x20 MSTORE PUSH1 0x40 SWAP1 KECCAK256 PUSH1 0x1 ADD SLOAD PUSH2 0x100 SWAP1 DIV AND ISZERO DUP1 ISZERO SWAP1 PUSH2 0x17A2 JUMPI POP PUSH1 0x2 PUSH2 0x1753 PUSH1 0x7 DUP5 PUSH1 0x4 DUP2 LT PUSH2 0xF0A JUMPI PUSH4 0x4E487B71 PUSH1 0xE0 SHL PUSH1 0x0 MSTORE PUSH1 0x32 PUSH1 0x4 MSTORE PUSH1 0x24 PUSH1 0x0 REVERT JUMPDEST PUSH2 0x175D SWAP2 SWAP1 PUSH2 0x4C71 JUMP JUMPDEST PUSH1 0x7 DUP4 PUSH1 0x4 DUP2 LT PUSH2 0x177E JUMPI PUSH4 0x4E487B71 PUSH1 0xE0 SHL PUSH1 0x0 MSTORE PUSH1 0x32 PUSH1 0x4 MSTORE PUSH1 0x24 PUSH1 0x0 REVERT JUMPDEST PUSH2 0xFFFF DUP5 AND PUSH1 0x0 SWAP1 DUP2 MSTORE PUSH1 0x6 PUSH1 0x7 SWAP3 SWAP1 SWAP3 MUL SWAP3 SWAP1 SWAP3 ADD ADD PUSH1 0x20 MSTORE PUSH1 0x40 SWAP1 KECCAK256 PUSH1 0x3 ADD SLOAD GT JUMPDEST ISZERO PUSH2 0x1981 JUMPI PUSH1 0x0 PUSH1 0x7 DUP4 PUSH1 0x4 DUP2 LT PUSH2 0x17CA JUMPI PUSH4 0x4E487B71 PUSH1 0xE0 SHL PUSH1 0x0 MSTORE PUSH1 0x32 PUSH1 0x4 MSTORE PUSH1 0x24 PUSH1 0x0 REVERT JUMPDEST PUSH2 0xFFFF DUP5 AND PUSH1 0x0 DUP2 DUP2 MSTORE PUSH1 0x6 PUSH1 0x7 SWAP4 SWAP1 SWAP4 MUL SWAP4 SWAP1 SWAP4 ADD SWAP2 SWAP1 SWAP2 ADD PUSH1 0x20 SWAP1 DUP2 MSTORE PUSH1 0x40 DUP1 DUP5 KECCAK256 DUP8 DUP6 MSTORE PUSH1 0x24 DUP4 MSTORE DUP2 DUP6 KECCAK256 SWAP4 DUP6 MSTORE SWAP3 SWAP1 SWAP2 MSTORE DUP3 KECCAK256 DUP1 SLOAD PUSH1 0xFF NOT AND PUSH1 0x1 OR SWAP1 SSTORE SWAP2 POP PUSH1 0x60 SWAP1 JUMPDEST PUSH2 0x1836 PUSH1 0x7 DUP7 PUSH1 0x4 DUP2 LT PUSH2 0xF0A JUMPI PUSH4 0x4E487B71 PUSH1 0xE0 SHL PUSH1 0x0 MSTORE PUSH1 0x32 PUSH1 0x4 MSTORE PUSH1 0x24 PUSH1 0x0 REVERT JUMPDEST DUP2 LT ISZERO PUSH2 0x18AC JUMPI PUSH2 0x1862 DUP2 PUSH1 0x7 DUP8 PUSH1 0x4 DUP2 LT PUSH2 0xF42 JUMPI PUSH4 0x4E487B71 PUSH1 0xE0 SHL PUSH1 0x0 MSTORE PUSH1 0x32 PUSH1 0x4 MSTORE PUSH1 0x24 PUSH1 0x0 REVERT JUMPDEST DUP3 DUP3 DUP2 MLOAD DUP2 LT PUSH2 0x1882 JUMPI PUSH4 0x4E487B71 PUSH1 0xE0 SHL PUSH1 0x0 MSTORE PUSH1 0x32 PUSH1 0x4 MSTORE PUSH1 0x24 PUSH1 0x0 REVERT JUMPDEST PUSH1 0x1 PUSH1 0x1 PUSH1 0xA0 SHL SUB SWAP1 SWAP3 AND PUSH1 0x20 SWAP3 DUP4 MUL SWAP2 SWAP1 SWAP2 ADD SWAP1 SWAP2 ADD MSTORE DUP1 PUSH2 0x18A4 DUP2 PUSH2 0x4D79 JUMP JUMPDEST SWAP2 POP POP PUSH2 0x1812 JUMP JUMPDEST POP PUSH1 0x7 DUP5 PUSH1 0x4 DUP2 LT PUSH2 0x18CE JUMPI PUSH4 0x4E487B71 PUSH1 0xE0 SHL PUSH1 0x0 MSTORE PUSH1 0x32 PUSH1 0x4 MSTORE PUSH1 0x24 PUSH1 0x0 REVERT JUMPDEST PUSH1 0x7 MUL ADD PUSH1 0x3 ADD SLOAD PUSH1 0x5 DUP4 ADD SLOAD PUSH1 0x40 MLOAD PUSH4 0x1826C119 PUSH1 0xE0 SHL DUP2 MSTORE PUSH1 0x1 PUSH1 0x1 PUSH1 0xA0 SHL SUB SWAP1 SWAP3 AND SWAP2 PUSH4 0x1826C119 SWAP2 PUSH2 0x1909 SWAP2 DUP6 SWAP2 SWAP1 PUSH1 0x4 ADD PUSH2 0x4A86 JUMP JUMPDEST PUSH1 0x0 PUSH1 0x40 MLOAD DUP1 DUP4 SUB DUP2 PUSH1 0x0 DUP8 DUP1 EXTCODESIZE ISZERO DUP1 ISZERO PUSH2 0x1923 JUMPI PUSH1 0x0 DUP1 REVERT JUMPDEST POP GAS CALL ISZERO DUP1 ISZERO PUSH2 0x1937 JUMPI RETURNDATASIZE PUSH1 0x0 DUP1 RETURNDATACOPY RETURNDATASIZE PUSH1 0x0 REVERT JUMPDEST POP POP PUSH1 0x40 MLOAD PUSH2 0x1949 SWAP3 POP DUP5 SWAP2 POP PUSH2 0x49EB JUMP JUMPDEST PUSH1 0x40 MLOAD SWAP1 DUP2 SWAP1 SUB DUP2 KECCAK256 PUSH1 0x1 DUP5 ADD SLOAD PUSH2 0x100 SWAP1 DIV PUSH2 0xFFFF AND DUP3 MSTORE SWAP1 PUSH1 0x0 DUP1 MLOAD PUSH1 0x20 PUSH2 0x4DE1 DUP4 CODECOPY DUP2 MLOAD SWAP2 MSTORE SWAP1 PUSH1 0x20 ADD PUSH1 0x40 MLOAD DUP1 SWAP2 SUB SWAP1 LOG2 POP POP JUMPDEST POP POP JUMP JUMPDEST CALLER PUSH2 0x1991 PUSH1 0x1 DUP3 PUSH2 0x2B8B JUMP JUMPDEST PUSH2 0x199A JUMPI PUSH1 0x0 DUP1 REVERT JUMPDEST PUSH1 0x40 DUP1 MLOAD PUSH2 0x140 DUP2 ADD DUP3 MSTORE PUSH1 0x80 DUP2 ADD DUP9 DUP2 MSTORE PUSH1 0xFF DUP1 DUP10 AND PUSH1 0xA0 DUP5 ADD MSTORE PUSH1 0x0 DUP1 SLOAD PUSH2 0xFFFF AND PUSH1 0xC0 DUP6 ADD DUP2 SWAP1 MSTORE TIMESTAMP PUSH1 0xE0 DUP7 ADD MSTORE PUSH2 0x100 DUP6 ADD DUP3 SWAP1 MSTORE PUSH1 0x60 PUSH2 0x120 DUP7 ADD DUP2 SWAP1 MSTORE SWAP4 DUP6 MSTORE PUSH1 0x1 PUSH1 0x1 PUSH1 0xA0 SHL SUB DUP11 AND PUSH1 0x20 DUP1 DUP8 ADD SWAP2 SWAP1 SWAP2 MSTORE DUP10 DUP5 AND DUP7 DUP9 ADD MSTORE SWAP3 DUP9 AND DUP6 DUP6 ADD MSTORE DUP2 MSTORE PUSH1 0x6 DUP3 MSTORE SWAP4 SWAP1 SWAP4 KECCAK256 DUP3 MLOAD DUP1 MLOAD DUP1 MLOAD SWAP4 SWAP6 SWAP3 SWAP4 SWAP2 SWAP3 DUP5 SWAP3 PUSH2 0x1A26 SWAP3 DUP5 SWAP3 ADD SWAP1 PUSH2 0x3CCD JUMP JUMPDEST POP PUSH1 0x20 DUP3 DUP2 ADD MLOAD PUSH1 0x1 DUP4 ADD DUP1 SLOAD PUSH1 0x40 DUP7 ADD MLOAD PUSH2 0xFFFF AND PUSH2 0x100 MUL PUSH3 0xFFFFFF NOT SWAP1 SWAP2 AND PUSH1 0xFF SWAP1 SWAP4 AND SWAP3 SWAP1 SWAP3 OR SWAP2 SWAP1 SWAP2 OR SWAP1 SSTORE PUSH1 0x60 DUP4 ADD MLOAD PUSH1 0x2 DUP4 ADD SSTORE PUSH1 0x80 DUP4 ADD MLOAD PUSH1 0x3 DUP4 ADD SSTORE PUSH1 0xA0 DUP4 ADD MLOAD DUP1 MLOAD PUSH2 0x1A82 SWAP3 PUSH1 0x4 DUP6 ADD SWAP3 ADD SWAP1 PUSH2 0x3D51 JUMP JUMPDEST POP POP POP PUSH1 0x20 DUP3 ADD MLOAD PUSH1 0x5 SWAP2 SWAP1 SWAP2 ADD DUP1 SLOAD PUSH1 0x40 DUP5 ADD MLOAD PUSH1 0x60 SWAP1 SWAP5 ADD MLOAD PUSH1 0x1 PUSH1 0x1 PUSH1 0xA0 SHL SUB SWAP1 SWAP4 AND PUSH1 0x1 PUSH1 0x1 PUSH1 0xA8 SHL SUB NOT SWAP1 SWAP2 AND OR PUSH1 0x1 PUSH1 0xA0 SHL PUSH1 0xFF SWAP5 DUP6 AND MUL OR PUSH1 0xFF PUSH1 0xA8 SHL NOT AND PUSH1 0x1 PUSH1 0xA8 SHL SWAP4 SWAP1 SWAP3 AND SWAP3 SWAP1 SWAP3 MUL OR SWAP1 SSTORE PUSH1 0x0 DUP1 SLOAD PUSH2 0xFFFF AND SWAP1 DUP1 PUSH2 0x117D DUP4 PUSH2 0x4D57 JUMP JUMPDEST CALLER DUP3 PUSH2 0x1B12 DUP3 PUSH1 0x7 DUP4 PUSH1 0x4 DUP2 LT PUSH2 0x64B JUMPI PUSH4 0x4E487B71 PUSH1 0xE0 SHL PUSH1 0x0 MSTORE PUSH1 0x32 PUSH1 0x4 MSTORE PUSH1 0x24 PUSH1 0x0 REVERT JUMPDEST PUSH2 0x1B1B JUMPI PUSH1 0x0 DUP1 REVERT JUMPDEST PUSH2 0x1B55 DUP4 PUSH1 0x7 DUP7 PUSH1 0x4 DUP2 LT PUSH2 0x1B40 JUMPI PUSH4 0x4E487B71 PUSH1 0xE0 SHL PUSH1 0x0 MSTORE PUSH1 0x32 PUSH1 0x4 MSTORE PUSH1 0x24 PUSH1 0x0 REVERT JUMPDEST PUSH1 0x7 MUL ADD PUSH1 0x4 ADD PUSH2 0x2F20 SWAP1 SWAP2 SWAP1 PUSH4 0xFFFFFFFF AND JUMP JUMPDEST POP POP POP POP POP JUMP JUMPDEST PUSH1 0x40 MLOAD CALLVALUE DUP2 MSTORE CALLER SWAP1 PUSH32 0x66FF7C8F71CCC7C36152A41920D0D3B46EF3034359F76AA1498ED4478C204B5C SWAP1 PUSH1 0x20 ADD PUSH1 0x40 MLOAD DUP1 SWAP2 SUB SWAP1 LOG2 JUMP JUMPDEST PUSH1 0x0 CALLER PUSH2 0x1BA1 PUSH1 0x1 DUP3 PUSH2 0x2B8B JUMP JUMPDEST PUSH2 0x1BAA JUMPI PUSH1 0x0 DUP1 REVERT JUMPDEST PUSH2 0xFFFF DUP1 DUP5 AND PUSH1 0x0 SWAP1 DUP2 MSTORE PUSH1 0x3 PUSH1 0x20 MSTORE PUSH1 0x40 SWAP1 KECCAK256 PUSH1 0x1 ADD SLOAD PUSH2 0x100 SWAP1 DIV AND ISZERO DUP1 ISZERO SWAP1 PUSH2 0x1C25 JUMPI POP PUSH2 0xFFFF DUP4 AND PUSH1 0x0 SWAP1 DUP2 MSTORE PUSH1 0x3 PUSH1 0x20 MSTORE PUSH1 0x40 SWAP1 KECCAK256 PUSH1 0x1 ADD SLOAD PUSH2 0x1BF8 SWAP1 PUSH1 0xFF AND PUSH3 0x15180 PUSH2 0x4C91 JUMP JUMPDEST PUSH2 0xFFFF DUP5 AND PUSH1 0x0 SWAP1 DUP2 MSTORE PUSH1 0x3 PUSH1 0x20 MSTORE PUSH1 0x40 SWAP1 KECCAK256 PUSH1 0x2 ADD SLOAD PUSH3 0xFFFFFF SWAP2 SWAP1 SWAP2 AND SWAP1 PUSH2 0x1C22 SWAP1 TIMESTAMP PUSH2 0x4CDF JUMP JUMPDEST LT ISZERO JUMPDEST ISZERO PUSH2 0x1CED JUMPI PUSH2 0xFFFF DUP4 AND PUSH1 0x0 DUP2 DUP2 MSTORE PUSH1 0x3 PUSH1 0x20 MSTORE PUSH1 0x40 SWAP1 DUP2 SWAP1 KECCAK256 SWAP1 MLOAD PUSH2 0x1C4B SWAP2 SWAP1 PUSH2 0x49EB JUMP JUMPDEST PUSH1 0x40 MLOAD SWAP1 DUP2 SWAP1 SUB DUP2 KECCAK256 SWAP1 PUSH1 0x0 DUP1 MLOAD PUSH1 0x20 PUSH2 0x4E2A DUP4 CODECOPY DUP2 MLOAD SWAP2 MSTORE SWAP1 PUSH1 0x0 SWAP1 LOG3 PUSH2 0xFFFF DUP4 AND PUSH1 0x0 SWAP1 DUP2 MSTORE PUSH1 0x3 PUSH1 0x20 MSTORE PUSH1 0x40 DUP2 KECCAK256 SWAP1 DUP2 DUP2 PUSH2 0x1C89 DUP3 DUP3 PUSH2 0x3F9F JUMP JUMPDEST PUSH1 0x1 DUP3 ADD DUP1 SLOAD PUSH3 0xFFFFFF NOT AND SWAP1 SSTORE PUSH1 0x0 PUSH1 0x2 DUP4 ADD DUP2 SWAP1 SSTORE PUSH1 0x3 DUP4 ADD DUP2 SWAP1 SSTORE PUSH2 0x1CB5 SWAP1 PUSH1 0x4 DUP5 ADD SWAP1 PUSH2 0x3FD9 JUMP JUMPDEST POP PUSH2 0x1CC6 SWAP1 POP PUSH1 0x5 DUP4 ADD PUSH1 0x0 PUSH2 0x3FD9 JUMP JUMPDEST PUSH2 0x1CD4 PUSH1 0x6 DUP4 ADD PUSH1 0x0 PUSH2 0x3FF7 JUMP JUMPDEST PUSH2 0x1CE2 PUSH1 0x7 DUP4 ADD PUSH1 0x0 PUSH2 0x3FD9 JUMP JUMPDEST POP POP PUSH1 0x1 SWAP2 POP PUSH2 0x2059 JUMP JUMPDEST PUSH2 0xFFFF DUP1 DUP5 AND PUSH1 0x0 SWAP1 DUP2 MSTORE PUSH1 0x4 PUSH1 0x20 MSTORE PUSH1 0x40 SWAP1 KECCAK256 PUSH1 0x1 ADD SLOAD PUSH2 0x100 SWAP1 DIV AND ISZERO DUP1 ISZERO SWAP1 PUSH2 0x1D68 JUMPI POP PUSH2 0xFFFF DUP4 AND PUSH1 0x0 SWAP1 DUP2 MSTORE PUSH1 0x4 PUSH1 0x20 MSTORE PUSH1 0x40 SWAP1 KECCAK256 PUSH1 0x1 ADD SLOAD PUSH2 0x1D3B SWAP1 PUSH1 0xFF AND PUSH3 0x15180 PUSH2 0x4C91 JUMP JUMPDEST PUSH2 0xFFFF DUP5 AND PUSH1 0x0 SWAP1 DUP2 MSTORE PUSH1 0x4 PUSH1 0x20 MSTORE PUSH1 0x40 SWAP1 KECCAK256 PUSH1 0x2 ADD SLOAD PUSH3 0xFFFFFF SWAP2 SWAP1 SWAP2 AND SWAP1 PUSH2 0x1D65 SWAP1 TIMESTAMP PUSH2 0x4CDF JUMP JUMPDEST LT ISZERO JUMPDEST ISZERO PUSH2 0x1DF6 JUMPI PUSH2 0xFFFF DUP4 AND PUSH1 0x0 DUP2 DUP2 MSTORE PUSH1 0x3 PUSH1 0x20 MSTORE PUSH1 0x40 SWAP1 DUP2 SWAP1 KECCAK256 SWAP1 MLOAD PUSH2 0x1D8E SWAP2 SWAP1 PUSH2 0x49EB JUMP JUMPDEST PUSH1 0x40 MLOAD SWAP1 DUP2 SWAP1 SUB DUP2 KECCAK256 SWAP1 PUSH1 0x0 DUP1 MLOAD PUSH1 0x20 PUSH2 0x4E2A DUP4 CODECOPY DUP2 MLOAD SWAP2 MSTORE SWAP1 PUSH1 0x0 SWAP1 LOG3 PUSH2 0xFFFF DUP4 AND PUSH1 0x0 SWAP1 DUP2 MSTORE PUSH1 0x4 PUSH1 0x20 MSTORE PUSH1 0x40 DUP2 KECCAK256 SWAP1 PUSH2 0x1DCA DUP3 DUP3 PUSH2 0x3F9F JUMP JUMPDEST PUSH1 0x1 DUP3 ADD DUP1 SLOAD PUSH3 0xFFFFFF NOT AND SWAP1 SSTORE PUSH1 0x0 PUSH1 0x2 DUP4 ADD DUP2 SWAP1 SSTORE PUSH1 0x3 DUP4 ADD DUP2 SWAP1 SSTORE PUSH2 0x1CE2 SWAP1 PUSH1 0x4 DUP5 ADD SWAP1 PUSH2 0x3FD9 JUMP JUMPDEST PUSH2 0xFFFF DUP1 DUP5 AND PUSH1 0x0 SWAP1 DUP2 MSTORE PUSH1 0x5 PUSH1 0x20 MSTORE PUSH1 0x40 SWAP1 KECCAK256 PUSH1 0x1 ADD SLOAD PUSH2 0x100 SWAP1 DIV AND ISZERO DUP1 ISZERO SWAP1 PUSH2 0x1E71 JUMPI POP PUSH2 0xFFFF DUP4 AND PUSH1 0x0 SWAP1 DUP2 MSTORE PUSH1 0x5 PUSH1 0x20 MSTORE PUSH1 0x40 SWAP1 KECCAK256 PUSH1 0x1 ADD SLOAD PUSH2 0x1E44 SWAP1 PUSH1 0xFF AND PUSH3 0x15180 PUSH2 0x4C91 JUMP JUMPDEST PUSH2 0xFFFF DUP5 AND PUSH1 0x0 SWAP1 DUP2 MSTORE PUSH1 0x5 PUSH1 0x20 MSTORE PUSH1 0x40 SWAP1 KECCAK256 PUSH1 0x2 ADD SLOAD PUSH3 0xFFFFFF SWAP2 SWAP1 SWAP2 AND SWAP1 PUSH2 0x1E6E SWAP1 TIMESTAMP PUSH2 0x4CDF JUMP JUMPDEST LT ISZERO JUMPDEST ISZERO PUSH2 0x1F2C JUMPI PUSH2 0xFFFF DUP4 AND PUSH1 0x0 DUP2 DUP2 MSTORE PUSH1 0x3 PUSH1 0x20 MSTORE PUSH1 0x40 SWAP1 DUP2 SWAP1 KECCAK256 SWAP1 MLOAD PUSH2 0x1E97 SWAP2 SWAP1 PUSH2 0x49EB JUMP JUMPDEST PUSH1 0x40 MLOAD SWAP1 DUP2 SWAP1 SUB DUP2 KECCAK256 SWAP1 PUSH1 0x0 DUP1 MLOAD PUSH1 0x20 PUSH2 0x4E2A DUP4 CODECOPY DUP2 MLOAD SWAP2 MSTORE SWAP1 PUSH1 0x0 SWAP1 LOG3 PUSH2 0xFFFF DUP4 AND PUSH1 0x0 SWAP1 DUP2 MSTORE PUSH1 0x5 PUSH1 0x20 MSTORE PUSH1 0x40 DUP2 KECCAK256 SWAP1 DUP2 DUP2 PUSH2 0x1ED5 DUP3 DUP3 PUSH2 0x3F9F JUMP JUMPDEST PUSH1 0x1 DUP3 ADD DUP1 SLOAD PUSH3 0xFFFFFF NOT AND SWAP1 SSTORE PUSH1 0x0 PUSH1 0x2 DUP4 ADD DUP2 SWAP1 SSTORE PUSH1 0x3 DUP4 ADD DUP2 SWAP1 SSTORE PUSH2 0x1F01 SWAP1 PUSH1 0x4 DUP5 ADD SWAP1 PUSH2 0x3FD9 JUMP JUMPDEST POP PUSH2 0x1F12 SWAP1 POP PUSH1 0x5 DUP4 ADD PUSH1 0x0 PUSH2 0x3FD9 JUMP JUMPDEST PUSH1 0x6 DUP3 ADD DUP1 SLOAD PUSH1 0xFF NOT AND SWAP1 SSTORE PUSH2 0x1CE2 PUSH1 0x7 DUP4 ADD PUSH1 0x0 PUSH2 0x4015 JUMP JUMPDEST PUSH2 0xFFFF DUP1 DUP5 AND PUSH1 0x0 SWAP1 DUP2 MSTORE PUSH1 0x6 PUSH1 0x20 MSTORE PUSH1 0x40 SWAP1 KECCAK256 PUSH1 0x1 ADD SLOAD PUSH2 0x100 SWAP1 DIV AND ISZERO DUP1 ISZERO SWAP1 PUSH2 0x1FA7 JUMPI POP PUSH2 0xFFFF DUP4 AND PUSH1 0x0 SWAP1 DUP2 MSTORE PUSH1 0x6 PUSH1 0x20 MSTORE PUSH1 0x40 SWAP1 KECCAK256 PUSH1 0x1 ADD SLOAD PUSH2 0x1F7A SWAP1 PUSH1 0xFF AND PUSH3 0x15180 PUSH2 0x4C91 JUMP JUMPDEST PUSH2 0xFFFF DUP5 AND PUSH1 0x0 SWAP1 DUP2 MSTORE PUSH1 0x6 PUSH1 0x20 MSTORE PUSH1 0x40 SWAP1 KECCAK256 PUSH1 0x2 ADD SLOAD PUSH3 0xFFFFFF SWAP2 SWAP1 SWAP2 AND SWAP1 PUSH2 0x1FA4 SWAP1 TIMESTAMP PUSH2 0x4CDF JUMP JUMPDEST LT ISZERO JUMPDEST ISZERO PUSH2 0x2054 JUMPI PUSH2 0xFFFF DUP4 AND PUSH1 0x0 DUP2 DUP2 MSTORE PUSH1 0x3 PUSH1 0x20 MSTORE PUSH1 0x40 SWAP1 DUP2 SWAP1 KECCAK256 SWAP1 MLOAD PUSH2 0x1FCD SWAP2 SWAP1 PUSH2 0x49EB JUMP JUMPDEST PUSH1 0x40 MLOAD SWAP1 DUP2 SWAP1 SUB DUP2 KECCAK256 SWAP1 PUSH1 0x0 DUP1 MLOAD PUSH1 0x20 PUSH2 0x4E2A DUP4 CODECOPY DUP2 MLOAD SWAP2 MSTORE SWAP1 PUSH1 0x0 SWAP1 LOG3 PUSH2 0xFFFF DUP4 AND PUSH1 0x0 SWAP1 DUP2 MSTORE PUSH1 0x6 PUSH1 0x20 MSTORE PUSH1 0x40 DUP2 KECCAK256 SWAP1 DUP2 DUP2 PUSH2 0x200B DUP3 DUP3 PUSH2 0x3F9F JUMP JUMPDEST PUSH1 0x1 DUP3 ADD DUP1 SLOAD PUSH3 0xFFFFFF NOT AND SWAP1 SSTORE PUSH1 0x0 PUSH1 0x2 DUP4 ADD DUP2 SWAP1 SSTORE PUSH1 0x3 DUP4 ADD DUP2 SWAP1 SSTORE PUSH2 0x2037 SWAP1 PUSH1 0x4 DUP5 ADD SWAP1 PUSH2 0x3FD9 JUMP JUMPDEST POP POP POP PUSH1 0x5 ADD DUP1 SLOAD PUSH1 0x1 PUSH1 0x1 PUSH1 0xB0 SHL SUB NOT AND SWAP1 SSTORE PUSH1 0x1 SWAP2 POP PUSH2 0x2059 JUMP JUMPDEST PUSH1 0x0 SWAP2 POP JUMPDEST POP SWAP2 SWAP1 POP JUMP JUMPDEST CALLER PUSH2 0x206B PUSH1 0x1 DUP3 PUSH2 0x2B8B JUMP JUMPDEST PUSH2 0x2074 JUMPI PUSH1 0x0 DUP1 REVERT JUMPDEST PUSH2 0xFFFF DUP1 DUP4 AND PUSH1 0x0 SWAP1 DUP2 MSTORE PUSH1 0x3 PUSH1 0x20 MSTORE PUSH1 0x40 SWAP1 KECCAK256 PUSH1 0x1 ADD SLOAD CALLER SWAP2 PUSH2 0x100 SWAP1 SWAP2 DIV AND ISZERO PUSH2 0x21C9 JUMPI PUSH2 0xFFFF DUP4 AND PUSH1 0x0 SWAP1 DUP2 MSTORE PUSH1 0x3 PUSH1 0x20 SWAP1 DUP2 MSTORE PUSH1 0x40 SWAP2 DUP3 SWAP1 KECCAK256 PUSH1 0x4 ADD DUP1 SLOAD DUP4 MLOAD DUP2 DUP5 MUL DUP2 ADD DUP5 ADD SWAP1 SWAP5 MSTORE DUP1 DUP5 MSTORE PUSH2 0x210E SWAP4 SWAP3 DUP4 ADD DUP3 DUP3 DUP1 ISZERO PUSH2 0x2103 JUMPI PUSH1 0x20 MUL DUP3 ADD SWAP2 SWAP1 PUSH1 0x0 MSTORE PUSH1 0x20 PUSH1 0x0 KECCAK256 SWAP1 JUMPDEST DUP2 SLOAD PUSH1 0x1 PUSH1 0x1 PUSH1 0xA0 SHL SUB AND DUP2 MSTORE PUSH1 0x1 SWAP1 SWAP2 ADD SWAP1 PUSH1 0x20 ADD DUP1 DUP4 GT PUSH2 0x20E5 JUMPI JUMPDEST POP POP POP POP POP DUP3 PUSH2 0x3199 JUMP JUMPDEST ISZERO PUSH2 0x21C4 JUMPI PUSH2 0xFFFF DUP4 AND PUSH1 0x0 SWAP1 DUP2 MSTORE PUSH1 0x3 PUSH1 0x20 DUP2 SWAP1 MSTORE PUSH1 0x40 DUP3 KECCAK256 ADD DUP1 SLOAD SWAP2 PUSH2 0x2135 DUP4 PUSH2 0x4D79 JUMP JUMPDEST SWAP1 SWAP2 SSTORE POP POP PUSH2 0xFFFF DUP4 AND PUSH1 0x0 DUP2 DUP2 MSTORE PUSH1 0x3 PUSH1 0x20 SWAP1 DUP2 MSTORE PUSH1 0x40 DUP1 DUP4 KECCAK256 PUSH1 0x4 DUP2 ADD DUP1 SLOAD PUSH1 0x1 DUP2 ADD DUP3 SSTORE SWAP1 DUP6 MSTORE SWAP3 DUP5 KECCAK256 SWAP1 SWAP3 ADD DUP1 SLOAD PUSH1 0x1 PUSH1 0x1 PUSH1 0xA0 SHL SUB NOT AND PUSH1 0x1 PUSH1 0x1 PUSH1 0xA0 SHL SUB DUP8 AND SWAP1 DUP2 OR SWAP1 SWAP2 SSTORE SWAP3 DUP5 SWAP1 MSTORE MLOAD SWAP2 SWAP3 SWAP2 PUSH2 0x2193 SWAP2 SWAP1 PUSH2 0x49EB JUMP JUMPDEST PUSH1 0x40 MLOAD SWAP1 DUP2 SWAP1 SUB DUP2 KECCAK256 SWAP1 PUSH32 0x96AFF3DB4FF7DBE7DD5D88FADBCC5C5F7FE5EB97CD711500D046A737B9C08CF9 SWAP1 PUSH1 0x0 SWAP1 LOG4 JUMPDEST POP POP POP JUMP JUMPDEST PUSH2 0xFFFF DUP1 DUP5 AND PUSH1 0x0 SWAP1 DUP2 MSTORE PUSH1 0x4 PUSH1 0x20 MSTORE PUSH1 0x40 SWAP1 KECCAK256 PUSH1 0x1 ADD SLOAD PUSH2 0x100 SWAP1 DIV AND ISZERO PUSH2 0x22E9 JUMPI PUSH2 0xFFFF DUP4 AND PUSH1 0x0 SWAP1 DUP2 MSTORE PUSH1 0x4 PUSH1 0x20 DUP2 DUP2 MSTORE PUSH1 0x40 SWAP3 DUP4 SWAP1 KECCAK256 SWAP1 SWAP2 ADD DUP1 SLOAD DUP4 MLOAD DUP2 DUP5 MUL DUP2 ADD DUP5 ADD SWAP1 SWAP5 MSTORE DUP1 DUP5 MSTORE PUSH2 0x225E SWAP4 SWAP3 DUP4 ADD DUP3 DUP3 DUP1 ISZERO PUSH2 0x2103 JUMPI PUSH1 0x20 MUL DUP3 ADD SWAP2 SWAP1 PUSH1 0x0 MSTORE PUSH1 0x20 PUSH1 0x0 KECCAK256 SWAP1 DUP2 SLOAD PUSH1 0x1 PUSH1 0x1 PUSH1 0xA0 SHL SUB AND DUP2 MSTORE PUSH1 0x1 SWAP1 SWAP2 ADD SWAP1 PUSH1 0x20 ADD DUP1 DUP4 GT PUSH2 0x20E5 JUMPI POP POP POP POP POP DUP3 PUSH2 0x3199 JUMP JUMPDEST ISZERO PUSH2 0x21C4 JUMPI PUSH2 0xFFFF DUP4 AND PUSH1 0x0 SWAP1 DUP2 MSTORE PUSH1 0x4 PUSH1 0x20 MSTORE PUSH1 0x40 DUP2 KECCAK256 PUSH1 0x3 ADD DUP1 SLOAD SWAP2 PUSH2 0x2285 DUP4 PUSH2 0x4D79 JUMP JUMPDEST SWAP1 SWAP2 SSTORE POP POP PUSH2 0xFFFF DUP4 AND PUSH1 0x0 DUP2 DUP2 MSTORE PUSH1 0x4 PUSH1 0x20 DUP2 DUP2 MSTORE PUSH1 0x40 DUP1 DUP5 KECCAK256 SWAP1 SWAP3 ADD DUP1 SLOAD PUSH1 0x1 DUP2 ADD DUP3 SSTORE SWAP1 DUP5 MSTORE DUP2 DUP5 KECCAK256 ADD DUP1 SLOAD PUSH1 0x1 PUSH1 0x1 PUSH1 0xA0 SHL SUB NOT AND PUSH1 0x1 PUSH1 0x1 PUSH1 0xA0 SHL SUB DUP8 AND SWAP1 DUP2 OR SWAP1 SWAP2 SSTORE DUP5 DUP5 MSTORE PUSH1 0x3 SWAP1 SWAP2 MSTORE SWAP2 DUP2 SWAP1 KECCAK256 SWAP1 MLOAD SWAP2 SWAP3 SWAP2 PUSH2 0x2193 SWAP2 SWAP1 PUSH2 0x49EB JUMP JUMPDEST PUSH2 0xFFFF DUP1 DUP5 AND PUSH1 0x0 SWAP1 DUP2 MSTORE PUSH1 0x5 PUSH1 0x20 MSTORE PUSH1 0x40 SWAP1 KECCAK256 PUSH1 0x1 ADD SLOAD PUSH2 0x100 SWAP1 DIV AND ISZERO PUSH2 0x2408 JUMPI PUSH2 0xFFFF DUP4 AND PUSH1 0x0 SWAP1 DUP2 MSTORE PUSH1 0x5 PUSH1 0x20 SWAP1 DUP2 MSTORE PUSH1 0x40 SWAP2 DUP3 SWAP1 KECCAK256 PUSH1 0x4 ADD DUP1 SLOAD DUP4 MLOAD DUP2 DUP5 MUL DUP2 ADD DUP5 ADD SWAP1 SWAP5 MSTORE DUP1 DUP5 MSTORE PUSH2 0x237E SWAP4 SWAP3 DUP4 ADD DUP3 DUP3 DUP1 ISZERO PUSH2 0x2103 JUMPI PUSH1 0x20 MUL DUP3 ADD SWAP2 SWAP1 PUSH1 0x0 MSTORE PUSH1 0x20 PUSH1 0x0 KECCAK256 SWAP1 DUP2 SLOAD PUSH1 0x1 PUSH1 0x1 PUSH1 0xA0 SHL SUB AND DUP2 MSTORE PUSH1 0x1 SWAP1 SWAP2 ADD SWAP1 PUSH1 0x20 ADD DUP1 DUP4 GT PUSH2 0x20E5 JUMPI POP POP POP POP POP DUP3 PUSH2 0x3199 JUMP JUMPDEST ISZERO PUSH2 0x21C4 JUMPI PUSH2 0xFFFF DUP4 AND PUSH1 0x0 SWAP1 DUP2 MSTORE PUSH1 0x5 PUSH1 0x20 MSTORE PUSH1 0x40 DUP2 KECCAK256 PUSH1 0x3 ADD DUP1 SLOAD SWAP2 PUSH2 0x23A5 DUP4 PUSH2 0x4D79 JUMP JUMPDEST SWAP1 SWAP2 SSTORE POP POP PUSH2 0xFFFF DUP4 AND PUSH1 0x0 DUP2 DUP2 MSTORE PUSH1 0x5 PUSH1 0x20 SWAP1 DUP2 MSTORE PUSH1 0x40 DUP1 DUP4 KECCAK256 PUSH1 0x4 ADD DUP1 SLOAD PUSH1 0x1 DUP2 ADD DUP3 SSTORE SWAP1 DUP5 MSTORE DUP3 DUP5 KECCAK256 ADD DUP1 SLOAD PUSH1 0x1 PUSH1 0x1 PUSH1 0xA0 SHL SUB NOT AND PUSH1 0x1 PUSH1 0x1 PUSH1 0xA0 SHL SUB DUP8 AND SWAP1 DUP2 OR SWAP1 SWAP2 SSTORE DUP5 DUP5 MSTORE PUSH1 0x3 SWAP1 SWAP3 MSTORE SWAP2 DUP3 SWAP1 KECCAK256 SWAP2 MLOAD SWAP1 SWAP3 SWAP2 PUSH2 0x2193 SWAP2 PUSH2 0x49EB JUMP JUMPDEST PUSH2 0xFFFF DUP1 DUP5 AND PUSH1 0x0 SWAP1 DUP2 MSTORE PUSH1 0x6 PUSH1 0x20 MSTORE PUSH1 0x40 SWAP1 KECCAK256 PUSH1 0x1 ADD SLOAD PUSH2 0x100 SWAP1 DIV AND ISZERO PUSH2 0x21C4 JUMPI PUSH2 0xFFFF DUP4 AND PUSH1 0x0 SWAP1 DUP2 MSTORE PUSH1 0x6 PUSH1 0x20 SWAP1 DUP2 MSTORE PUSH1 0x40 SWAP2 DUP3 SWAP1 KECCAK256 PUSH1 0x4 ADD DUP1 SLOAD DUP4 MLOAD DUP2 DUP5 MUL DUP2 ADD DUP5 ADD SWAP1 SWAP5 MSTORE DUP1 DUP5 MSTORE PUSH2 0x249D SWAP4 SWAP3 DUP4 ADD DUP3 DUP3 DUP1 ISZERO PUSH2 0x2103 JUMPI PUSH1 0x20 MUL DUP3 ADD SWAP2 SWAP1 PUSH1 0x0 MSTORE PUSH1 0x20 PUSH1 0x0 KECCAK256 SWAP1 DUP2 SLOAD PUSH1 0x1 PUSH1 0x1 PUSH1 0xA0 SHL SUB AND DUP2 MSTORE PUSH1 0x1 SWAP1 SWAP2 ADD SWAP1 PUSH1 0x20 ADD DUP1 DUP4 GT PUSH2 0x20E5 JUMPI POP POP POP POP POP DUP3 PUSH2 0x3199 JUMP JUMPDEST ISZERO PUSH2 0x21C4 JUMPI PUSH2 0xFFFF DUP4 AND PUSH1 0x0 SWAP1 DUP2 MSTORE PUSH1 0x6 PUSH1 0x20 MSTORE PUSH1 0x40 DUP2 KECCAK256 PUSH1 0x3 ADD DUP1 SLOAD SWAP2 PUSH2 0x24C4 DUP4 PUSH2 0x4D79 JUMP JUMPDEST SWAP1 SWAP2 SSTORE POP POP PUSH2 0xFFFF DUP4 AND PUSH1 0x0 DUP2 DUP2 MSTORE PUSH1 0x6 PUSH1 0x20 SWAP1 DUP2 MSTORE PUSH1 0x40 DUP1 DUP4 KECCAK256 PUSH1 0x4 ADD DUP1 SLOAD PUSH1 0x1 DUP2 ADD DUP3 SSTORE SWAP1 DUP5 MSTORE DUP3 DUP5 KECCAK256 ADD DUP1 SLOAD PUSH1 0x1 PUSH1 0x1 PUSH1 0xA0 SHL SUB NOT AND PUSH1 0x1 PUSH1 0x1 PUSH1 0xA0 SHL SUB DUP8 AND SWAP1 DUP2 OR SWAP1 SWAP2 SSTORE DUP5 DUP5 MSTORE PUSH1 0x3 SWAP1 SWAP3 MSTORE SWAP2 DUP3 SWAP1 KECCAK256 SWAP2 MLOAD SWAP1 SWAP3 SWAP2 PUSH2 0x2193 SWAP2 PUSH2 0x49EB JUMP JUMPDEST PUSH2 0xFFFF DUP2 AND PUSH1 0x0 SWAP1 DUP2 MSTORE PUSH1 0x23 PUSH1 0x20 MSTORE PUSH1 0x40 SWAP1 KECCAK256 SLOAD PUSH1 0xFF AND ISZERO PUSH2 0x2548 JUMPI PUSH1 0x0 DUP1 REVERT JUMPDEST PUSH2 0xFFFF DUP1 DUP3 AND PUSH1 0x0 SWAP1 DUP2 MSTORE PUSH1 0x3 PUSH1 0x20 MSTORE PUSH1 0x40 SWAP1 KECCAK256 PUSH1 0x1 ADD SLOAD PUSH2 0x100 SWAP1 DIV AND ISZERO DUP1 ISZERO SWAP1 PUSH2 0x259F JUMPI POP PUSH1 0x2 PUSH2 0x257B PUSH1 0x1 PUSH2 0x2D5D JUMP JUMPDEST PUSH2 0x2585 SWAP2 SWAP1 PUSH2 0x4C71 JUMP JUMPDEST PUSH2 0xFFFF DUP3 AND PUSH1 0x0 SWAP1 DUP2 MSTORE PUSH1 0x3 PUSH1 0x20 DUP2 SWAP1 MSTORE PUSH1 0x40 SWAP1 SWAP2 KECCAK256 ADD SLOAD GT JUMPDEST ISZERO PUSH2 0x265A JUMPI PUSH2 0xFFFF DUP2 AND PUSH1 0x0 SWAP1 DUP2 MSTORE PUSH1 0x3 PUSH1 0x20 SWAP1 DUP2 MSTORE PUSH1 0x40 DUP1 DUP4 KECCAK256 PUSH1 0x23 SWAP1 SWAP3 MSTORE DUP3 KECCAK256 DUP1 SLOAD PUSH1 0xFF NOT AND PUSH1 0x1 OR SWAP1 SSTORE SWAP1 JUMPDEST PUSH1 0x5 DUP3 ADD SLOAD DUP2 LT ISZERO PUSH2 0x2612 JUMPI PUSH2 0x2600 DUP3 PUSH1 0x5 ADD DUP3 DUP2 SLOAD DUP2 LT PUSH2 0x157C JUMPI PUSH4 0x4E487B71 PUSH1 0xE0 SHL PUSH1 0x0 MSTORE PUSH1 0x32 PUSH1 0x4 MSTORE PUSH1 0x24 PUSH1 0x0 REVERT JUMPDEST DUP1 PUSH2 0x260A DUP2 PUSH2 0x4D79 JUMP JUMPDEST SWAP2 POP POP PUSH2 0x25CE JUMP JUMPDEST POP PUSH1 0x40 MLOAD PUSH2 0x2621 SWAP1 DUP3 SWAP1 PUSH2 0x49EB JUMP JUMPDEST PUSH1 0x40 MLOAD SWAP1 DUP2 SWAP1 SUB DUP2 KECCAK256 PUSH1 0x1 DUP4 ADD SLOAD PUSH2 0x100 SWAP1 DIV PUSH2 0xFFFF AND DUP3 MSTORE SWAP1 PUSH1 0x0 DUP1 MLOAD PUSH1 0x20 PUSH2 0x4DE1 DUP4 CODECOPY DUP2 MLOAD SWAP2 MSTORE SWAP1 PUSH1 0x20 ADD PUSH1 0x40 MLOAD DUP1 SWAP2 SUB SWAP1 LOG2 POP POP JUMP JUMPDEST PUSH2 0xFFFF DUP1 DUP3 AND PUSH1 0x0 SWAP1 DUP2 MSTORE PUSH1 0x5 PUSH1 0x20 MSTORE PUSH1 0x40 SWAP1 KECCAK256 PUSH1 0x1 ADD SLOAD PUSH2 0x100 SWAP1 DIV AND ISZERO DUP1 ISZERO SWAP1 PUSH2 0x26B0 JUMPI POP PUSH1 0x2 PUSH2 0x268D PUSH1 0x1 PUSH2 0x2D5D JUMP JUMPDEST PUSH2 0x2697 SWAP2 SWAP1 PUSH2 0x4C71 JUMP JUMPDEST PUSH2 0xFFFF DUP3 AND PUSH1 0x0 SWAP1 DUP2 MSTORE PUSH1 0x5 PUSH1 0x20 MSTORE PUSH1 0x40 SWAP1 KECCAK256 PUSH1 0x3 ADD SLOAD GT JUMPDEST ISZERO PUSH2 0x28F3 JUMPI PUSH2 0xFFFF DUP2 AND PUSH1 0x0 SWAP1 DUP2 MSTORE PUSH1 0x5 PUSH1 0x20 SWAP1 DUP2 MSTORE PUSH1 0x40 DUP1 DUP4 KECCAK256 PUSH1 0x23 SWAP1 SWAP3 MSTORE SWAP1 SWAP2 KECCAK256 DUP1 SLOAD PUSH1 0xFF NOT AND PUSH1 0x1 OR SWAP1 SSTORE PUSH1 0x6 DUP2 ADD SLOAD PUSH1 0xFF AND ISZERO PUSH2 0x27C9 JUMPI PUSH1 0x0 JUMPDEST PUSH1 0x5 DUP3 ADD SLOAD DUP2 LT ISZERO PUSH2 0x27C3 JUMPI PUSH2 0x27B0 DUP3 PUSH1 0x5 ADD DUP3 DUP2 SLOAD DUP2 LT PUSH2 0x2720 JUMPI PUSH4 0x4E487B71 PUSH1 0xE0 SHL PUSH1 0x0 MSTORE PUSH1 0x32 PUSH1 0x4 MSTORE PUSH1 0x24 PUSH1 0x0 REVERT JUMPDEST PUSH1 0x0 SWAP2 DUP3 MSTORE PUSH1 0x20 SWAP1 SWAP2 KECCAK256 ADD SLOAD PUSH1 0x7 DUP5 DUP2 ADD DUP1 SLOAD PUSH1 0x1 PUSH1 0x1 PUSH1 0xA0 SHL SUB SWAP1 SWAP4 AND SWAP3 DUP6 SWAP1 DUP2 LT PUSH2 0x275D JUMPI PUSH4 0x4E487B71 PUSH1 0xE0 SHL PUSH1 0x0 MSTORE PUSH1 0x32 PUSH1 0x4 MSTORE PUSH1 0x24 PUSH1 0x0 REVERT JUMPDEST PUSH1 0x0 SWAP2 DUP3 MSTORE PUSH1 0x20 SWAP2 DUP3 SWAP1 KECCAK256 SWAP2 DUP2 DIV SWAP1 SWAP2 ADD SLOAD PUSH1 0xFF PUSH1 0x1F SWAP1 SWAP3 AND PUSH2 0x100 EXP SWAP1 DIV AND PUSH1 0x4 DUP2 LT PUSH2 0x279B JUMPI PUSH4 0x4E487B71 PUSH1 0xE0 SHL PUSH1 0x0 MSTORE PUSH1 0x32 PUSH1 0x4 MSTORE PUSH1 0x24 PUSH1 0x0 REVERT JUMPDEST PUSH1 0x7 MUL ADD PUSH1 0x1 ADD PUSH2 0x2B6F SWAP1 SWAP2 SWAP1 PUSH4 0xFFFFFFFF AND JUMP JUMPDEST POP DUP1 PUSH2 0x27BB DUP2 PUSH2 0x4D79 JUMP JUMPDEST SWAP2 POP POP PUSH2 0x26EE JUMP JUMPDEST POP PUSH2 0x28E5 JUMP JUMPDEST PUSH1 0x0 JUMPDEST PUSH1 0x5 DUP3 ADD SLOAD DUP2 LT ISZERO PUSH2 0x2612 JUMPI PUSH2 0x281B DUP3 PUSH1 0x5 ADD DUP3 DUP2 SLOAD DUP2 LT PUSH2 0x27FE JUMPI PUSH4 0x4E487B71 PUSH1 0xE0 SHL PUSH1 0x0 MSTORE PUSH1 0x32 PUSH1 0x4 MSTORE PUSH1 0x24 PUSH1 0x0 REVERT JUMPDEST PUSH1 0x0 SWAP2 DUP3 MSTORE PUSH1 0x20 SWAP1 SWAP2 KECCAK256 ADD SLOAD PUSH1 0x1 SWAP1 PUSH1 0x1 PUSH1 0x1 PUSH1 0xA0 SHL SUB AND PUSH2 0x320D JUMP JUMPDEST POP PUSH2 0x28D2 DUP3 PUSH1 0x5 ADD DUP3 DUP2 SLOAD DUP2 LT PUSH2 0x2842 JUMPI PUSH4 0x4E487B71 PUSH1 0xE0 SHL PUSH1 0x0 MSTORE PUSH1 0x32 PUSH1 0x4 MSTORE PUSH1 0x24 PUSH1 0x0 REVERT JUMPDEST PUSH1 0x0 SWAP2 DUP3 MSTORE PUSH1 0x20 SWAP1 SWAP2 KECCAK256 ADD SLOAD PUSH1 0x7 DUP5 DUP2 ADD DUP1 SLOAD PUSH1 0x1 PUSH1 0x1 PUSH1 0xA0 SHL SUB SWAP1 SWAP4 AND SWAP3 DUP6 SWAP1 DUP2 LT PUSH2 0x287F JUMPI PUSH4 0x4E487B71 PUSH1 0xE0 SHL PUSH1 0x0 MSTORE PUSH1 0x32 PUSH1 0x4 MSTORE PUSH1 0x24 PUSH1 0x0 REVERT JUMPDEST PUSH1 0x0 SWAP2 DUP3 MSTORE PUSH1 0x20 SWAP2 DUP3 SWAP1 KECCAK256 SWAP2 DUP2 DIV SWAP1 SWAP2 ADD SLOAD PUSH1 0xFF PUSH1 0x1F SWAP1 SWAP3 AND PUSH2 0x100 EXP SWAP1 DIV AND PUSH1 0x4 DUP2 LT PUSH2 0x28BD JUMPI PUSH4 0x4E487B71 PUSH1 0xE0 SHL PUSH1 0x0 MSTORE PUSH1 0x32 PUSH1 0x4 MSTORE PUSH1 0x24 PUSH1 0x0 REVERT JUMPDEST PUSH1 0x7 MUL ADD PUSH1 0x1 ADD PUSH2 0x320D SWAP1 SWAP2 SWAP1 PUSH4 0xFFFFFFFF AND JUMP JUMPDEST POP DUP1 PUSH2 0x28DD DUP2 PUSH2 0x4D79 JUMP JUMPDEST SWAP2 POP POP PUSH2 0x27CC JUMP JUMPDEST PUSH1 0x40 MLOAD PUSH2 0x2621 SWAP1 DUP3 SWAP1 PUSH2 0x49EB JUMP JUMPDEST PUSH2 0xFFFF DUP1 DUP3 AND PUSH1 0x0 SWAP1 DUP2 MSTORE PUSH1 0x6 PUSH1 0x20 MSTORE PUSH1 0x40 SWAP1 KECCAK256 PUSH1 0x1 ADD SLOAD PUSH2 0x100 SWAP1 DIV AND ISZERO DUP1 ISZERO SWAP1 PUSH2 0x2949 JUMPI POP PUSH1 0x2 PUSH2 0x2926 PUSH1 0x1 PUSH2 0x2D5D JUMP JUMPDEST PUSH2 0x2930 SWAP2 SWAP1 PUSH2 0x4C71 JUMP JUMPDEST PUSH2 0xFFFF DUP3 AND PUSH1 0x0 SWAP1 DUP2 MSTORE PUSH1 0x6 PUSH1 0x20 MSTORE PUSH1 0x40 SWAP1 KECCAK256 PUSH1 0x3 ADD SLOAD GT JUMPDEST ISZERO PUSH2 0x29F6 JUMPI PUSH2 0xFFFF DUP2 AND PUSH1 0x0 SWAP1 DUP2 MSTORE PUSH1 0x6 PUSH1 0x20 SWAP1 DUP2 MSTORE PUSH1 0x40 DUP1 DUP4 KECCAK256 PUSH1 0x23 SWAP1 SWAP3 MSTORE SWAP1 SWAP2 KECCAK256 DUP1 SLOAD PUSH1 0xFF NOT AND PUSH1 0x1 OR SWAP1 SSTORE PUSH1 0x5 DUP2 ADD SLOAD PUSH2 0x29B6 SWAP1 PUSH1 0x1 PUSH1 0x1 PUSH1 0xA0 SHL SUB DUP2 AND SWAP1 PUSH1 0x7 SWAP1 PUSH1 0x1 PUSH1 0xA0 SHL SWAP1 DIV PUSH1 0xFF AND PUSH1 0x4 DUP2 LT PUSH2 0x28BD JUMPI PUSH4 0x4E487B71 PUSH1 0xE0 SHL PUSH1 0x0 MSTORE PUSH1 0x32 PUSH1 0x4 MSTORE PUSH1 0x24 PUSH1 0x0 REVERT JUMPDEST POP PUSH1 0x5 DUP2 ADD SLOAD PUSH2 0x2612 SWAP1 PUSH1 0x1 PUSH1 0x1 PUSH1 0xA0 SHL SUB DUP2 AND SWAP1 PUSH1 0x7 SWAP1 PUSH1 0x1 PUSH1 0xA8 SHL SWAP1 DIV PUSH1 0xFF AND PUSH1 0x4 DUP2 LT PUSH2 0x279B JUMPI PUSH4 0x4E487B71 PUSH1 0xE0 SHL PUSH1 0x0 MSTORE PUSH1 0x32 PUSH1 0x4 MSTORE PUSH1 0x24 PUSH1 0x0 REVERT JUMPDEST PUSH1 0x2 PUSH2 0x2A02 PUSH1 0x1 PUSH2 0x2D5D JUMP JUMPDEST PUSH2 0x2A0C SWAP2 SWAP1 PUSH2 0x4C71 JUMP JUMPDEST PUSH2 0xFFFF DUP3 AND PUSH1 0x0 SWAP1 DUP2 MSTORE PUSH1 0x4 PUSH1 0x20 MSTORE PUSH1 0x40 SWAP1 KECCAK256 PUSH1 0x3 ADD SLOAD GT ISZERO PUSH2 0x2AA5 JUMPI PUSH2 0xFFFF DUP2 AND PUSH1 0x0 SWAP1 DUP2 MSTORE PUSH1 0x23 PUSH1 0x20 SWAP1 DUP2 MSTORE PUSH1 0x40 DUP1 DUP4 KECCAK256 DUP1 SLOAD PUSH1 0xFF NOT AND PUSH1 0x1 OR SWAP1 SSTORE PUSH1 0x4 SWAP1 SWAP2 MSTORE SWAP1 DUP2 SWAP1 KECCAK256 SWAP1 MLOAD PUSH2 0x2A5F SWAP2 SWAP1 PUSH2 0x49EB JUMP JUMPDEST PUSH1 0x40 DUP1 MLOAD SWAP2 DUP3 SWAP1 SUB DUP3 KECCAK256 PUSH2 0xFFFF DUP5 DUP2 AND PUSH1 0x0 SWAP1 DUP2 MSTORE PUSH1 0x4 PUSH1 0x20 SWAP1 DUP2 MSTORE SWAP4 SWAP1 KECCAK256 PUSH1 0x1 ADD SLOAD PUSH2 0x100 SWAP1 DIV AND DUP4 MSTORE SWAP2 PUSH1 0x0 DUP1 MLOAD PUSH1 0x20 PUSH2 0x4DE1 DUP4 CODECOPY DUP2 MLOAD SWAP2 MSTORE SWAP2 ADD PUSH1 0x40 MLOAD DUP1 SWAP2 SUB SWAP1 LOG2 JUMPDEST POP JUMP JUMPDEST CALLER DUP3 PUSH2 0x2ACF DUP3 PUSH1 0x7 DUP4 PUSH1 0x4 DUP2 LT PUSH2 0x64B JUMPI PUSH4 0x4E487B71 PUSH1 0xE0 SHL PUSH1 0x0 MSTORE PUSH1 0x32 PUSH1 0x4 MSTORE PUSH1 0x24 PUSH1 0x0 REVERT JUMPDEST PUSH2 0x2AD8 JUMPI PUSH1 0x0 DUP1 REVERT JUMPDEST PUSH2 0x2B14 DUP4 CALLER PUSH1 0x7 DUP8 PUSH1 0x4 DUP2 LT PUSH2 0x2AFE JUMPI PUSH4 0x4E487B71 PUSH1 0xE0 SHL PUSH1 0x0 MSTORE PUSH1 0x32 PUSH1 0x4 MSTORE PUSH1 0x24 PUSH1 0x0 REVERT JUMPDEST PUSH1 0x7 MUL ADD PUSH1 0x4 ADD PUSH2 0x3222 SWAP1 SWAP3 SWAP2 SWAP1 PUSH4 0xFFFFFFFF AND JUMP JUMPDEST POP POP POP POP JUMP JUMPDEST PUSH2 0x2B22 PUSH2 0x3DA6 JUMP JUMPDEST PUSH2 0x2B2A PUSH2 0x403A JUMP JUMPDEST PUSH2 0x2B64 DUP4 PUSH1 0x7 DUP7 PUSH1 0x4 DUP2 LT PUSH2 0x2B4F JUMPI PUSH4 0x4E487B71 PUSH1 0xE0 SHL PUSH1 0x0 MSTORE PUSH1 0x32 PUSH1 0x4 MSTORE PUSH1 0x24 PUSH1 0x0 REVERT JUMPDEST PUSH1 0x7 MUL ADD PUSH1 0x4 ADD PUSH2 0x3468 SWAP1 SWAP2 SWAP1 PUSH4 0xFFFFFFFF AND JUMP JUMPDEST SWAP2 POP SWAP2 POP SWAP3 POP SWAP3 SWAP1 POP JUMP JUMPDEST PUSH1 0x0 PUSH2 0x2B84 DUP4 PUSH1 0x1 PUSH1 0x1 PUSH1 0xA0 SHL SUB DUP5 AND PUSH2 0x38D5 JUMP JUMPDEST SWAP4 SWAP3 POP POP POP JUMP JUMPDEST PUSH1 0x1 PUSH1 0x1 PUSH1 0xA0 SHL SUB DUP2 AND PUSH1 0x0 SWAP1 DUP2 MSTORE PUSH1 0x1 DUP4 ADD PUSH1 0x20 MSTORE PUSH1 0x40 DUP2 KECCAK256 SLOAD ISZERO ISZERO PUSH2 0x2B84 JUMP JUMPDEST PUSH1 0x40 DUP1 MLOAD PUSH2 0x140 DUP2 ADD DUP3 MSTORE PUSH1 0x80 DUP2 ADD DUP8 DUP2 MSTORE PUSH1 0xFF DUP8 AND PUSH1 0xA0 DUP4 ADD MSTORE DUP9 SLOAD PUSH2 0xFFFF AND PUSH1 0xC0 DUP4 ADD DUP2 SWAP1 MSTORE TIMESTAMP PUSH1 0xE0 DUP5 ADD MSTORE PUSH1 0x0 PUSH2 0x100 DUP5 ADD DUP2 SWAP1 MSTORE PUSH1 0x60 PUSH2 0x120 DUP6 ADD DUP2 SWAP1 MSTORE SWAP3 DUP5 MSTORE PUSH1 0x20 DUP1 DUP6 ADD DUP10 SWAP1 MSTORE DUP5 DUP7 ADD DUP9 SWAP1 MSTORE DUP5 DUP5 ADD DUP8 SWAP1 MSTORE SWAP2 DUP2 MSTORE PUSH1 0x1 DUP12 ADD DUP3 MSTORE SWAP4 SWAP1 SWAP4 KECCAK256 DUP3 MLOAD DUP1 MLOAD DUP1 MLOAD SWAP4 SWAP6 SWAP3 SWAP4 SWAP2 SWAP3 DUP5 SWAP3 PUSH2 0x2C2E SWAP3 DUP5 SWAP3 ADD SWAP1 PUSH2 0x3CCD JUMP JUMPDEST POP PUSH1 0x20 DUP3 DUP2 ADD MLOAD PUSH1 0x1 DUP4 ADD DUP1 SLOAD PUSH1 0x40 DUP7 ADD MLOAD PUSH2 0xFFFF AND PUSH2 0x100 MUL PUSH3 0xFFFFFF NOT SWAP1 SWAP2 AND PUSH1 0xFF SWAP1 SWAP4 AND SWAP3 SWAP1 SWAP3 OR SWAP2 SWAP1 SWAP2 OR SWAP1 SSTORE PUSH1 0x60 DUP4 ADD MLOAD PUSH1 0x2 DUP4 ADD SSTORE PUSH1 0x80 DUP4 ADD MLOAD PUSH1 0x3 DUP4 ADD SSTORE PUSH1 0xA0 DUP4 ADD MLOAD DUP1 MLOAD PUSH2 0x2C8A SWAP3 PUSH1 0x4 DUP6 ADD SWAP3 ADD SWAP1 PUSH2 0x3D51 JUMP JUMPDEST POP POP POP PUSH1 0x20 DUP3 DUP2 ADD MLOAD DUP1 MLOAD PUSH2 0x2CA5 SWAP3 PUSH1 0x5 DUP6 ADD SWAP3 ADD SWAP1 PUSH2 0x3D51 JUMP JUMPDEST POP PUSH1 0x40 DUP3 ADD MLOAD DUP1 MLOAD PUSH2 0x2CC1 SWAP2 PUSH1 0x6 DUP5 ADD SWAP2 PUSH1 0x20 SWAP1 SWAP2 ADD SWAP1 PUSH2 0x3F0C JUMP JUMPDEST POP PUSH1 0x60 DUP3 ADD MLOAD DUP1 MLOAD PUSH2 0x2CDD SWAP2 PUSH1 0x7 DUP5 ADD SWAP2 PUSH1 0x20 SWAP1 SWAP2 ADD SWAP1 PUSH2 0x3F65 JUMP JUMPDEST POP POP DUP8 SLOAD PUSH2 0xFFFF AND SWAP1 POP DUP8 PUSH1 0x0 PUSH2 0x2CF3 DUP4 PUSH2 0x4D57 JUMP JUMPDEST DUP3 SLOAD PUSH2 0x100 SWAP3 SWAP1 SWAP3 EXP PUSH2 0xFFFF DUP2 DUP2 MUL NOT SWAP1 SWAP4 AND SWAP2 DUP4 AND MUL OR SWAP1 SWAP2 SSTORE DUP9 SLOAD PUSH2 0x2D1E SWAP3 POP PUSH1 0x1 SWAP2 AND PUSH2 0x4CBC JUMP JUMPDEST PUSH2 0xFFFF AND DUP7 PUSH1 0x40 MLOAD PUSH2 0x2D30 SWAP2 SWAP1 PUSH2 0x49CF JUMP JUMPDEST PUSH1 0x40 DUP1 MLOAD SWAP2 DUP3 SWAP1 SUB DUP3 KECCAK256 PUSH1 0xFF DUP10 AND DUP4 MSTORE TIMESTAMP PUSH1 0x20 DUP5 ADD MSTORE SWAP2 PUSH1 0x0 DUP1 MLOAD PUSH1 0x20 PUSH2 0x4DC1 DUP4 CODECOPY DUP2 MLOAD SWAP2 MSTORE SWAP2 ADD PUSH2 0x11E4 JUMP JUMPDEST PUSH1 0x0 PUSH2 0x4C4 DUP3 SLOAD SWAP1 JUMP JUMPDEST PUSH1 0x0 PUSH2 0x2B84 DUP4 DUP4 PUSH2 0x3924 JUMP JUMPDEST PUSH1 0x40 DUP1 MLOAD PUSH2 0x100 DUP2 ADD DUP3 MSTORE DUP1 DUP3 ADD DUP6 DUP2 MSTORE PUSH1 0xFF DUP6 AND PUSH1 0x60 DUP4 DUP2 ADD SWAP2 SWAP1 SWAP2 MSTORE DUP8 SLOAD PUSH2 0xFFFF AND PUSH1 0x80 DUP5 ADD DUP2 SWAP1 MSTORE TIMESTAMP PUSH1 0xA0 DUP6 ADD MSTORE PUSH1 0x0 PUSH1 0xC0 DUP6 ADD DUP2 SWAP1 MSTORE PUSH1 0xE0 DUP6 ADD DUP4 SWAP1 MSTORE SWAP3 DUP5 MSTORE PUSH1 0x20 DUP1 DUP6 ADD DUP8 SWAP1 MSTORE SWAP1 DUP4 MSTORE PUSH1 0x2 DUP10 ADD DUP2 MSTORE SWAP4 SWAP1 SWAP2 KECCAK256 DUP3 MLOAD DUP1 MLOAD DUP1 MLOAD SWAP4 SWAP6 SWAP3 SWAP4 SWAP2 SWAP3 DUP5 SWAP3 PUSH2 0x2DE7 SWAP3 DUP5 SWAP3 ADD SWAP1 PUSH2 0x3CCD JUMP JUMPDEST POP PUSH1 0x20 DUP3 DUP2 ADD MLOAD PUSH1 0x1 DUP4 ADD DUP1 SLOAD PUSH1 0x40 DUP7 ADD MLOAD PUSH2 0xFFFF AND PUSH2 0x100 MUL PUSH3 0xFFFFFF NOT SWAP1 SWAP2 AND PUSH1 0xFF SWAP1 SWAP4 AND SWAP3 SWAP1 SWAP3 OR SWAP2 SWAP1 SWAP2 OR SWAP1 SSTORE PUSH1 0x60 DUP4 ADD MLOAD PUSH1 0x2 DUP4 ADD SSTORE PUSH1 0x80 DUP4 ADD MLOAD PUSH1 0x3 DUP4 ADD SSTORE PUSH1 0xA0 DUP4 ADD MLOAD DUP1 MLOAD PUSH2 0x2E43 SWAP3 PUSH1 0x4 DUP6 ADD SWAP3 ADD SWAP1 PUSH2 0x3D51 JUMP JUMPDEST POP POP POP PUSH1 0x20 SWAP2 SWAP1 SWAP2 ADD MLOAD PUSH1 0x5 SWAP1 SWAP2 ADD SSTORE DUP5 SLOAD PUSH2 0xFFFF AND DUP6 PUSH1 0x0 PUSH2 0x2E65 DUP4 PUSH2 0x4D57 JUMP JUMPDEST DUP3 SLOAD PUSH2 0x100 SWAP3 SWAP1 SWAP3 EXP PUSH2 0xFFFF DUP2 DUP2 MUL NOT SWAP1 SWAP4 AND SWAP2 DUP4 AND MUL OR SWAP1 SWAP2 SSTORE DUP7 SLOAD PUSH2 0x2E90 SWAP3 POP PUSH1 0x1 SWAP2 AND PUSH2 0x4CBC JUMP JUMPDEST PUSH2 0xFFFF AND DUP5 PUSH1 0x40 MLOAD PUSH2 0x2EA2 SWAP2 SWAP1 PUSH2 0x49CF JUMP JUMPDEST PUSH1 0x40 DUP1 MLOAD SWAP2 DUP3 SWAP1 SUB DUP3 KECCAK256 PUSH1 0xFF DUP8 AND DUP4 MSTORE TIMESTAMP PUSH1 0x20 DUP5 ADD MSTORE SWAP2 PUSH1 0x0 DUP1 MLOAD PUSH1 0x20 PUSH2 0x4DC1 DUP4 CODECOPY DUP2 MLOAD SWAP2 MSTORE SWAP2 ADD PUSH1 0x40 MLOAD DUP1 SWAP2 SUB SWAP1 LOG3 POP POP POP POP POP JUMP JUMPDEST PUSH2 0x2EE4 DUP4 DUP4 DUP4 PUSH2 0x39BD JUMP JUMPDEST POP DUP3 PUSH1 0x1 PUSH1 0x1 PUSH1 0xA0 SHL SUB AND PUSH32 0x4BD02E6E14D9C1417BA3582A754B1124AD2FBE11AD4CEE6B51D08EBADFC0792 DUP3 PUSH1 0x40 MLOAD PUSH2 0x16CD SWAP2 DUP2 MSTORE PUSH1 0x20 ADD SWAP1 JUMP JUMPDEST PUSH2 0xFFFF DUP1 DUP3 AND PUSH1 0x0 SWAP1 DUP2 MSTORE PUSH1 0x1 DUP1 DUP6 ADD PUSH1 0x20 MSTORE PUSH1 0x40 DUP3 KECCAK256 ADD SLOAD SWAP1 SWAP2 PUSH2 0x100 SWAP1 SWAP2 DIV AND ISZERO DUP1 ISZERO SWAP1 PUSH2 0x2FA3 JUMPI POP PUSH2 0xFFFF DUP3 AND PUSH1 0x0 SWAP1 DUP2 MSTORE PUSH1 0x1 DUP1 DUP6 ADD PUSH1 0x20 MSTORE PUSH1 0x40 SWAP1 SWAP2 KECCAK256 ADD SLOAD PUSH2 0x2F74 SWAP1 PUSH1 0xFF AND PUSH3 0x15180 PUSH2 0x4C91 JUMP JUMPDEST PUSH2 0xFFFF DUP4 AND PUSH1 0x0 SWAP1 DUP2 MSTORE PUSH1 0x1 DUP6 ADD PUSH1 0x20 MSTORE PUSH1 0x40 SWAP1 KECCAK256 PUSH1 0x2 ADD SLOAD PUSH3 0xFFFFFF SWAP2 SWAP1 SWAP2 AND SWAP1 PUSH2 0x2FA0 SWAP1 TIMESTAMP PUSH2 0x4CDF JUMP JUMPDEST LT ISZERO JUMPDEST ISZERO PUSH2 0x306F JUMPI PUSH2 0xFFFF DUP3 AND PUSH1 0x0 DUP2 DUP2 MSTORE PUSH1 0x1 DUP6 ADD PUSH1 0x20 MSTORE PUSH1 0x40 SWAP1 DUP2 SWAP1 KECCAK256 SWAP1 MLOAD PUSH2 0x2FCB SWAP2 SWAP1 PUSH2 0x49EB JUMP JUMPDEST PUSH1 0x40 MLOAD SWAP1 DUP2 SWAP1 SUB DUP2 KECCAK256 SWAP1 PUSH1 0x0 DUP1 MLOAD PUSH1 0x20 PUSH2 0x4E2A DUP4 CODECOPY DUP2 MLOAD SWAP2 MSTORE SWAP1 PUSH1 0x0 SWAP1 LOG3 PUSH2 0xFFFF DUP3 AND PUSH1 0x0 SWAP1 DUP2 MSTORE PUSH1 0x1 DUP5 ADD PUSH1 0x20 MSTORE PUSH1 0x40 DUP2 KECCAK256 SWAP1 DUP2 DUP2 PUSH2 0x300B DUP3 DUP3 PUSH2 0x3F9F JUMP JUMPDEST PUSH1 0x1 DUP3 ADD DUP1 SLOAD PUSH3 0xFFFFFF NOT AND SWAP1 SSTORE PUSH1 0x0 PUSH1 0x2 DUP4 ADD DUP2 SWAP1 SSTORE PUSH1 0x3 DUP4 ADD DUP2 SWAP1 SSTORE PUSH2 0x3037 SWAP1 PUSH1 0x4 DUP5 ADD SWAP1 PUSH2 0x3FD9 JUMP JUMPDEST POP PUSH2 0x3048 SWAP1 POP PUSH1 0x5 DUP4 ADD PUSH1 0x0 PUSH2 0x3FD9 JUMP JUMPDEST PUSH2 0x3056 PUSH1 0x6 DUP4 ADD PUSH1 0x0 PUSH2 0x3FF7 JUMP JUMPDEST PUSH2 0x3064 PUSH1 0x7 DUP4 ADD PUSH1 0x0 PUSH2 0x3FD9 JUMP JUMPDEST POP POP PUSH1 0x1 SWAP1 POP PUSH2 0x4C4 JUMP JUMPDEST PUSH2 0xFFFF DUP1 DUP4 AND PUSH1 0x0 SWAP1 DUP2 MSTORE PUSH1 0x2 DUP6 ADD PUSH1 0x20 MSTORE PUSH1 0x40 SWAP1 KECCAK256 PUSH1 0x1 ADD SLOAD PUSH2 0x100 SWAP1 DIV AND ISZERO DUP1 ISZERO SWAP1 PUSH2 0x30F0 JUMPI POP PUSH2 0xFFFF DUP3 AND PUSH1 0x0 SWAP1 DUP2 MSTORE PUSH1 0x2 DUP5 ADD PUSH1 0x20 MSTORE PUSH1 0x40 SWAP1 KECCAK256 PUSH1 0x1 ADD SLOAD PUSH2 0x30C1 SWAP1 PUSH1 0xFF AND PUSH3 0x15180 PUSH2 0x4C91 JUMP JUMPDEST PUSH2 0xFFFF DUP4 AND PUSH1 0x0 SWAP1 DUP2 MSTORE PUSH1 0x2 DUP1 DUP7 ADD PUSH1 0x20 MSTORE PUSH1 0x40 SWAP1 SWAP2 KECCAK256 ADD SLOAD PUSH3 0xFFFFFF SWAP2 SWAP1 SWAP2 AND SWAP1 PUSH2 0x30ED SWAP1 TIMESTAMP PUSH2 0x4CDF JUMP JUMPDEST LT ISZERO JUMPDEST ISZERO PUSH2 0x13E1 JUMPI PUSH2 0xFFFF DUP3 AND PUSH1 0x0 DUP2 DUP2 MSTORE PUSH1 0x2 DUP6 ADD PUSH1 0x20 MSTORE PUSH1 0x40 SWAP1 DUP2 SWAP1 KECCAK256 SWAP1 MLOAD PUSH2 0x3118 SWAP2 SWAP1 PUSH2 0x49EB JUMP JUMPDEST PUSH1 0x40 MLOAD SWAP1 DUP2 SWAP1 SUB DUP2 KECCAK256 SWAP1 PUSH1 0x0 DUP1 MLOAD PUSH1 0x20 PUSH2 0x4E2A DUP4 CODECOPY DUP2 MLOAD SWAP2 MSTORE SWAP1 PUSH1 0x0 SWAP1 LOG3 PUSH2 0xFFFF DUP3 AND PUSH1 0x0 SWAP1 DUP2 MSTORE PUSH1 0x2 DUP5 ADD PUSH1 0x20 MSTORE PUSH1 0x40 DUP2 KECCAK256 SWAP1 DUP2 DUP2 PUSH2 0x3158 DUP3 DUP3 PUSH2 0x3F9F JUMP JUMPDEST PUSH1 0x1 DUP3 ADD DUP1 SLOAD PUSH3 0xFFFFFF NOT AND SWAP1 SSTORE PUSH1 0x0 PUSH1 0x2 DUP4 ADD DUP2 SWAP1 SSTORE PUSH1 0x3 DUP4 ADD DUP2 SWAP1 SSTORE PUSH2 0x3184 SWAP1 PUSH1 0x4 DUP5 ADD SWAP1 PUSH2 0x3FD9 JUMP JUMPDEST POP POP PUSH1 0x5 DUP3 ADD PUSH1 0x0 SWAP1 SSTORE POP POP PUSH1 0x1 SWAP1 POP PUSH2 0x4C4 JUMP JUMPDEST PUSH1 0x0 DUP1 JUMPDEST DUP4 MLOAD DUP2 LT ISZERO PUSH2 0x3203 JUMPI DUP3 PUSH1 0x1 PUSH1 0x1 PUSH1 0xA0 SHL SUB AND DUP5 DUP3 DUP2 MLOAD DUP2 LT PUSH2 0x31D0 JUMPI PUSH4 0x4E487B71 PUSH1 0xE0 SHL PUSH1 0x0 MSTORE PUSH1 0x32 PUSH1 0x4 MSTORE PUSH1 0x24 PUSH1 0x0 REVERT JUMPDEST PUSH1 0x20 MUL PUSH1 0x20 ADD ADD MLOAD PUSH1 0x1 PUSH1 0x1 PUSH1 0xA0 SHL SUB AND EQ ISZERO PUSH2 0x31F1 JUMPI PUSH1 0x0 SWAP2 POP POP PUSH2 0x4C4 JUMP JUMPDEST DUP1 PUSH2 0x31FB DUP2 PUSH2 0x4D79 JUMP JUMPDEST SWAP2 POP POP PUSH2 0x319D JUMP JUMPDEST POP PUSH1 0x1 SWAP4 SWAP3 POP POP POP JUMP JUMPDEST PUSH1 0x0 PUSH2 0x2B84 DUP4 PUSH1 0x1 PUSH1 0x1 PUSH1 0xA0 SHL SUB DUP5 AND PUSH2 0x39EB JUMP JUMPDEST PUSH2 0xFFFF DUP1 DUP4 AND PUSH1 0x0 SWAP1 DUP2 MSTORE PUSH1 0x1 DUP1 DUP7 ADD PUSH1 0x20 MSTORE PUSH1 0x40 SWAP1 SWAP2 KECCAK256 ADD SLOAD PUSH2 0x100 SWAP1 DIV AND ISZERO PUSH2 0x3346 JUMPI PUSH2 0xFFFF DUP3 AND PUSH1 0x0 SWAP1 DUP2 MSTORE PUSH1 0x1 DUP5 ADD PUSH1 0x20 SWAP1 DUP2 MSTORE PUSH1 0x40 SWAP2 DUP3 SWAP1 KECCAK256 PUSH1 0x4 ADD DUP1 SLOAD DUP4 MLOAD DUP2 DUP5 MUL DUP2 ADD DUP5 ADD SWAP1 SWAP5 MSTORE DUP1 DUP5 MSTORE PUSH2 0x32BD SWAP4 SWAP3 DUP4 ADD DUP3 DUP3 DUP1 ISZERO PUSH2 0x32B2 JUMPI PUSH1 0x20 MUL DUP3 ADD SWAP2 SWAP1 PUSH1 0x0 MSTORE PUSH1 0x20 PUSH1 0x0 KECCAK256 SWAP1 JUMPDEST DUP2 SLOAD PUSH1 0x1 PUSH1 0x1 PUSH1 0xA0 SHL SUB AND DUP2 MSTORE PUSH1 0x1 SWAP1 SWAP2 ADD SWAP1 PUSH1 0x20 ADD DUP1 DUP4 GT PUSH2 0x3294 JUMPI JUMPDEST POP POP POP POP POP DUP3 PUSH2 0x3B02 JUMP JUMPDEST ISZERO PUSH2 0x21C4 JUMPI PUSH2 0xFFFF DUP3 AND PUSH1 0x0 SWAP1 DUP2 MSTORE PUSH1 0x1 DUP5 ADD PUSH1 0x20 MSTORE PUSH1 0x40 DUP2 KECCAK256 PUSH1 0x3 ADD DUP1 SLOAD SWAP2 PUSH2 0x32E6 DUP4 PUSH2 0x4D79 JUMP JUMPDEST SWAP1 SWAP2 SSTORE POP POP PUSH2 0xFFFF DUP3 AND PUSH1 0x0 DUP2 DUP2 MSTORE PUSH1 0x1 DUP6 DUP2 ADD PUSH1 0x20 SWAP1 DUP2 MSTORE PUSH1 0x40 DUP1 DUP5 KECCAK256 PUSH1 0x4 DUP2 ADD DUP1 SLOAD SWAP5 DUP6 ADD DUP2 SSTORE DUP6 MSTORE SWAP2 DUP5 KECCAK256 SWAP1 SWAP3 ADD DUP1 SLOAD PUSH1 0x1 PUSH1 0x1 PUSH1 0xA0 SHL SUB NOT AND PUSH1 0x1 PUSH1 0x1 PUSH1 0xA0 SHL SUB DUP8 AND SWAP1 DUP2 OR SWAP1 SWAP2 SSTORE SWAP3 DUP5 SWAP1 MSTORE SWAP1 MLOAD SWAP2 SWAP3 SWAP2 PUSH2 0x2193 SWAP2 SWAP1 PUSH2 0x49EB JUMP JUMPDEST PUSH2 0xFFFF DUP1 DUP4 AND PUSH1 0x0 SWAP1 DUP2 MSTORE PUSH1 0x2 DUP6 ADD PUSH1 0x20 MSTORE PUSH1 0x40 SWAP1 KECCAK256 PUSH1 0x1 ADD SLOAD PUSH2 0x100 SWAP1 DIV AND ISZERO PUSH2 0x21C4 JUMPI PUSH2 0xFFFF DUP3 AND PUSH1 0x0 SWAP1 DUP2 MSTORE PUSH1 0x2 DUP5 ADD PUSH1 0x20 SWAP1 DUP2 MSTORE PUSH1 0x40 SWAP2 DUP3 SWAP1 KECCAK256 PUSH1 0x4 ADD DUP1 SLOAD DUP4 MLOAD DUP2 DUP5 MUL DUP2 ADD DUP5 ADD SWAP1 SWAP5 MSTORE DUP1 DUP5 MSTORE PUSH2 0x33DF SWAP4 SWAP3 DUP4 ADD DUP3 DUP3 DUP1 ISZERO PUSH2 0x32B2 JUMPI PUSH1 0x20 MUL DUP3 ADD SWAP2 SWAP1 PUSH1 0x0 MSTORE PUSH1 0x20 PUSH1 0x0 KECCAK256 SWAP1 DUP2 SLOAD PUSH1 0x1 PUSH1 0x1 PUSH1 0xA0 SHL SUB AND DUP2 MSTORE PUSH1 0x1 SWAP1 SWAP2 ADD SWAP1 PUSH1 0x20 ADD DUP1 DUP4 GT PUSH2 0x3294 JUMPI POP POP POP POP POP DUP3 PUSH2 0x3B02 JUMP JUMPDEST ISZERO PUSH2 0x21C4 JUMPI PUSH2 0xFFFF DUP3 AND PUSH1 0x0 SWAP1 DUP2 MSTORE PUSH1 0x2 DUP5 ADD PUSH1 0x20 MSTORE PUSH1 0x40 DUP2 KECCAK256 PUSH1 0x3 ADD DUP1 SLOAD SWAP2 PUSH2 0x3408 DUP4 PUSH2 0x4D79 JUMP JUMPDEST SWAP1 SWAP2 SSTORE POP POP PUSH2 0xFFFF DUP3 AND PUSH1 0x0 DUP2 DUP2 MSTORE PUSH1 0x2 DUP6 ADD PUSH1 0x20 SWAP1 DUP2 MSTORE PUSH1 0x40 DUP1 DUP4 KECCAK256 PUSH1 0x4 DUP2 ADD DUP1 SLOAD PUSH1 0x1 DUP2 ADD DUP3 SSTORE SWAP1 DUP6 MSTORE SWAP3 DUP5 KECCAK256 SWAP1 SWAP3 ADD DUP1 SLOAD PUSH1 0x1 PUSH1 0x1 PUSH1 0xA0 SHL SUB NOT AND PUSH1 0x1 PUSH1 0x1 PUSH1 0xA0 SHL SUB DUP8 AND SWAP1 DUP2 OR SWAP1 SWAP2 SSTORE SWAP3 DUP5 SWAP1 MSTORE MLOAD SWAP2 SWAP3 SWAP2 PUSH2 0x2193 SWAP2 SWAP1 PUSH2 0x49EB JUMP JUMPDEST PUSH2 0x3470 PUSH2 0x3DA6 JUMP JUMPDEST PUSH2 0x3478 PUSH2 0x403A JUMP JUMPDEST PUSH2 0xFFFF DUP4 AND PUSH1 0x0 SWAP1 DUP2 MSTORE PUSH1 0x1 DUP6 ADD PUSH1 0x20 SWAP1 DUP2 MSTORE PUSH1 0x40 DUP1 DUP4 KECCAK256 PUSH1 0x2 DUP9 ADD SWAP1 SWAP3 MSTORE SWAP2 DUP3 SWAP1 KECCAK256 DUP3 MLOAD PUSH2 0x140 DUP2 ADD SWAP1 SWAP4 MSTORE DUP2 SLOAD SWAP2 SWAP3 SWAP1 SWAP2 DUP4 SWAP1 DUP3 SWAP1 PUSH1 0x80 DUP3 ADD SWAP1 DUP4 SWAP1 DUP3 SWAP1 DUP3 SWAP1 PUSH2 0x34C3 SWAP1 PUSH2 0x4D22 JUMP JUMPDEST DUP1 PUSH1 0x1F ADD PUSH1 0x20 DUP1 SWAP2 DIV MUL PUSH1 0x20 ADD PUSH1 0x40 MLOAD SWAP1 DUP2 ADD PUSH1 0x40 MSTORE DUP1 SWAP3 SWAP2 SWAP1 DUP2 DUP2 MSTORE PUSH1 0x20 ADD DUP3 DUP1 SLOAD PUSH2 0x34EF SWAP1 PUSH2 0x4D22 JUMP JUMPDEST DUP1 ISZERO PUSH2 0x353C JUMPI DUP1 PUSH1 0x1F LT PUSH2 0x3511 JUMPI PUSH2 0x100 DUP1 DUP4 SLOAD DIV MUL DUP4 MSTORE SWAP2 PUSH1 0x20 ADD SWAP2 PUSH2 0x353C JUMP JUMPDEST DUP3 ADD SWAP2 SWAP1 PUSH1 0x0 MSTORE PUSH1 0x20 PUSH1 0x0 KECCAK256 SWAP1 JUMPDEST DUP2 SLOAD DUP2 MSTORE SWAP1 PUSH1 0x1 ADD SWAP1 PUSH1 0x20 ADD DUP1 DUP4 GT PUSH2 0x351F JUMPI DUP3 SWAP1 SUB PUSH1 0x1F AND DUP3 ADD SWAP2 JUMPDEST POP POP POP SWAP2 DUP4 MSTORE POP POP PUSH1 0x1 DUP3 ADD SLOAD PUSH1 0xFF DUP2 AND PUSH1 0x20 DUP1 DUP5 ADD SWAP2 SWAP1 SWAP2 MSTORE PUSH2 0x100 SWAP1 SWAP2 DIV PUSH2 0xFFFF AND PUSH1 0x40 DUP1 DUP5 ADD SWAP2 SWAP1 SWAP2 MSTORE PUSH1 0x2 DUP5 ADD SLOAD PUSH1 0x60 DUP5 ADD MSTORE PUSH1 0x3 DUP5 ADD SLOAD PUSH1 0x80 DUP5 ADD MSTORE PUSH1 0x4 DUP5 ADD DUP1 SLOAD DUP3 MLOAD DUP2 DUP6 MUL DUP2 ADD DUP6 ADD SWAP1 SWAP4 MSTORE DUP1 DUP4 MSTORE PUSH1 0xA0 SWAP1 SWAP5 ADD SWAP4 SWAP2 SWAP3 SWAP1 SWAP2 SWAP1 DUP4 ADD DUP3 DUP3 DUP1 ISZERO PUSH2 0x35D6 JUMPI PUSH1 0x20 MUL DUP3 ADD SWAP2 SWAP1 PUSH1 0x0 MSTORE PUSH1 0x20 PUSH1 0x0 KECCAK256 SWAP1 JUMPDEST DUP2 SLOAD PUSH1 0x1 PUSH1 0x1 PUSH1 0xA0 SHL SUB AND DUP2 MSTORE PUSH1 0x1 SWAP1 SWAP2 ADD SWAP1 PUSH1 0x20 ADD DUP1 DUP4 GT PUSH2 0x35B8 JUMPI JUMPDEST POP POP POP POP POP DUP2 MSTORE POP POP DUP2 MSTORE PUSH1 0x20 ADD PUSH1 0x5 DUP3 ADD DUP1 SLOAD DUP1 PUSH1 0x20 MUL PUSH1 0x20 ADD PUSH1 0x40 MLOAD SWAP1 DUP2 ADD PUSH1 0x40 MSTORE DUP1 SWAP3 SWAP2 SWAP1 DUP2 DUP2 MSTORE PUSH1 0x20 ADD DUP3 DUP1 SLOAD DUP1 ISZERO PUSH2 0x363C JUMPI PUSH1 0x20 MUL DUP3 ADD SWAP2 SWAP1 PUSH1 0x0 MSTORE PUSH1 0x20 PUSH1 0x0 KECCAK256 SWAP1 JUMPDEST DUP2 SLOAD PUSH1 0x1 PUSH1 0x1 PUSH1 0xA0 SHL SUB AND DUP2 MSTORE PUSH1 0x1 SWAP1 SWAP2 ADD SWAP1 PUSH1 0x20 ADD DUP1 DUP4 GT PUSH2 0x361E JUMPI JUMPDEST POP POP POP POP POP DUP2 MSTORE PUSH1 0x20 ADD PUSH1 0x6 DUP3 ADD DUP1 SLOAD DUP1 PUSH1 0x20 MUL PUSH1 0x20 ADD PUSH1 0x40 MLOAD SWAP1 DUP2 ADD PUSH1 0x40 MSTORE DUP1 SWAP3 SWAP2 SWAP1 DUP2 DUP2 MSTORE PUSH1 0x20 ADD PUSH1 0x0 SWAP1 JUMPDEST DUP3 DUP3 LT ISZERO PUSH2 0x3716 JUMPI DUP4 DUP3 SWAP1 PUSH1 0x0 MSTORE PUSH1 0x20 PUSH1 0x0 KECCAK256 ADD DUP1 SLOAD PUSH2 0x3689 SWAP1 PUSH2 0x4D22 JUMP JUMPDEST DUP1 PUSH1 0x1F ADD PUSH1 0x20 DUP1 SWAP2 DIV MUL PUSH1 0x20 ADD PUSH1 0x40 MLOAD SWAP1 DUP2 ADD PUSH1 0x40 MSTORE DUP1 SWAP3 SWAP2 SWAP1 DUP2 DUP2 MSTORE PUSH1 0x20 ADD DUP3 DUP1 SLOAD PUSH2 0x36B5 SWAP1 PUSH2 0x4D22 JUMP JUMPDEST DUP1 ISZERO PUSH2 0x3702 JUMPI DUP1 PUSH1 0x1F LT PUSH2 0x36D7 JUMPI PUSH2 0x100 DUP1 DUP4 SLOAD DIV MUL DUP4 MSTORE SWAP2 PUSH1 0x20 ADD SWAP2 PUSH2 0x3702 JUMP JUMPDEST DUP3 ADD SWAP2 SWAP1 PUSH1 0x0 MSTORE PUSH1 0x20 PUSH1 0x0 KECCAK256 SWAP1 JUMPDEST DUP2 SLOAD DUP2 MSTORE SWAP1 PUSH1 0x1 ADD SWAP1 PUSH1 0x20 ADD DUP1 DUP4 GT PUSH2 0x36E5 JUMPI DUP3 SWAP1 SUB PUSH1 0x1F AND DUP3 ADD SWAP2 JUMPDEST POP POP POP POP POP DUP2 MSTORE PUSH1 0x20 ADD SWAP1 PUSH1 0x1 ADD SWAP1 PUSH2 0x366A JUMP JUMPDEST POP POP POP POP DUP2 MSTORE PUSH1 0x20 ADD PUSH1 0x7 DUP3 ADD DUP1 SLOAD DUP1 PUSH1 0x20 MUL PUSH1 0x20 ADD PUSH1 0x40 MLOAD SWAP1 DUP2 ADD PUSH1 0x40 MSTORE DUP1 SWAP3 SWAP2 SWAP1 DUP2 DUP2 MSTORE PUSH1 0x20 ADD DUP3 DUP1 SLOAD DUP1 ISZERO PUSH2 0x376D JUMPI PUSH1 0x20 MUL DUP3 ADD SWAP2 SWAP1 PUSH1 0x0 MSTORE PUSH1 0x20 PUSH1 0x0 KECCAK256 SWAP1 JUMPDEST DUP2 SLOAD DUP2 MSTORE PUSH1 0x20 ADD SWAP1 PUSH1 0x1 ADD SWAP1 DUP1 DUP4 GT PUSH2 0x3759 JUMPI JUMPDEST POP POP POP SWAP2 SWAP1 SWAP3 MSTORE POP POP PUSH1 0x40 DUP1 MLOAD PUSH2 0x100 DUP2 ADD DUP3 MSTORE DUP5 SLOAD SWAP4 SWAP6 POP SWAP3 DUP5 SWAP3 POP DUP4 SWAP2 DUP3 ADD SWAP1 DUP4 SWAP1 DUP3 SWAP1 DUP3 SWAP1 PUSH2 0x379E SWAP1 PUSH2 0x4D22 JUMP JUMPDEST DUP1 PUSH1 0x1F ADD PUSH1 0x20 DUP1 SWAP2 DIV MUL PUSH1 0x20 ADD PUSH1 0x40 MLOAD SWAP1 DUP2 ADD PUSH1 0x40 MSTORE DUP1 SWAP3 SWAP2 SWAP1 DUP2 DUP2 MSTORE PUSH1 0x20 ADD DUP3 DUP1 SLOAD PUSH2 0x37CA SWAP1 PUSH2 0x4D22 JUMP JUMPDEST DUP1 ISZERO PUSH2 0x3817 JUMPI DUP1 PUSH1 0x1F LT PUSH2 0x37EC JUMPI PUSH2 0x100 DUP1 DUP4 SLOAD DIV MUL DUP4 MSTORE SWAP2 PUSH1 0x20 ADD SWAP2 PUSH2 0x3817 JUMP JUMPDEST DUP3 ADD SWAP2 SWAP1 PUSH1 0x0 MSTORE PUSH1 0x20 PUSH1 0x0 KECCAK256 SWAP1 JUMPDEST DUP2 SLOAD DUP2 MSTORE SWAP1 PUSH1 0x1 ADD SWAP1 PUSH1 0x20 ADD DUP1 DUP4 GT PUSH2 0x37FA JUMPI DUP3 SWAP1 SUB PUSH1 0x1F AND DUP3 ADD SWAP2 JUMPDEST POP POP POP SWAP2 DUP4 MSTORE POP POP PUSH1 0x1 DUP3 ADD SLOAD PUSH1 0xFF DUP2 AND PUSH1 0x20 DUP1 DUP5 ADD SWAP2 SWAP1 SWAP2 MSTORE PUSH2 0x100 SWAP1 SWAP2 DIV PUSH2 0xFFFF AND PUSH1 0x40 DUP1 DUP5 ADD SWAP2 SWAP1 SWAP2 MSTORE PUSH1 0x2 DUP5 ADD SLOAD PUSH1 0x60 DUP5 ADD MSTORE PUSH1 0x3 DUP5 ADD SLOAD PUSH1 0x80 DUP5 ADD MSTORE PUSH1 0x4 DUP5 ADD DUP1 SLOAD DUP3 MLOAD DUP2 DUP6 MUL DUP2 ADD DUP6 ADD SWAP1 SWAP4 MSTORE DUP1 DUP4 MSTORE PUSH1 0xA0 SWAP1 SWAP5 ADD SWAP4 SWAP2 SWAP3 SWAP1 SWAP2 SWAP1 DUP4 ADD DUP3 DUP3 DUP1 ISZERO PUSH2 0x38B1 JUMPI PUSH1 0x20 MUL DUP3 ADD SWAP2 SWAP1 PUSH1 0x0 MSTORE PUSH1 0x20 PUSH1 0x0 KECCAK256 SWAP1 JUMPDEST DUP2 SLOAD PUSH1 0x1 PUSH1 0x1 PUSH1 0xA0 SHL SUB AND DUP2 MSTORE PUSH1 0x1 SWAP1 SWAP2 ADD SWAP1 PUSH1 0x20 ADD DUP1 DUP4 GT PUSH2 0x3893 JUMPI JUMPDEST POP POP POP POP POP DUP2 MSTORE POP POP DUP2 MSTORE PUSH1 0x20 ADD PUSH1 0x5 DUP3 ADD SLOAD DUP2 MSTORE POP POP SWAP1 POP SWAP2 POP SWAP2 POP SWAP3 POP SWAP3 SWAP1 POP JUMP JUMPDEST PUSH1 0x0 DUP2 DUP2 MSTORE PUSH1 0x1 DUP4 ADD PUSH1 0x20 MSTORE PUSH1 0x40 DUP2 KECCAK256 SLOAD PUSH2 0x391C JUMPI POP DUP2 SLOAD PUSH1 0x1 DUP2 DUP2 ADD DUP5 SSTORE PUSH1 0x0 DUP5 DUP2 MSTORE PUSH1 0x20 DUP1 DUP3 KECCAK256 SWAP1 SWAP4 ADD DUP5 SWAP1 SSTORE DUP5 SLOAD DUP5 DUP3 MSTORE DUP3 DUP7 ADD SWAP1 SWAP4 MSTORE PUSH1 0x40 SWAP1 KECCAK256 SWAP2 SWAP1 SWAP2 SSTORE PUSH2 0x4C4 JUMP JUMPDEST POP PUSH1 0x0 PUSH2 0x4C4 JUMP JUMPDEST DUP2 SLOAD PUSH1 0x0 SWAP1 DUP3 LT PUSH2 0x3987 JUMPI PUSH1 0x40 MLOAD PUSH3 0x461BCD PUSH1 0xE5 SHL DUP2 MSTORE PUSH1 0x20 PUSH1 0x4 DUP3 ADD MSTORE PUSH1 0x22 PUSH1 0x24 DUP3 ADD MSTORE PUSH32 0x456E756D657261626C655365743A20696E646578206F7574206F6620626F756E PUSH1 0x44 DUP3 ADD MSTORE PUSH2 0x6473 PUSH1 0xF0 SHL PUSH1 0x64 DUP3 ADD MSTORE PUSH1 0x84 ADD JUMPDEST PUSH1 0x40 MLOAD DUP1 SWAP2 SUB SWAP1 REVERT JUMPDEST DUP3 PUSH1 0x0 ADD DUP3 DUP2 SLOAD DUP2 LT PUSH2 0x39AA JUMPI PUSH4 0x4E487B71 PUSH1 0xE0 SHL PUSH1 0x0 MSTORE PUSH1 0x32 PUSH1 0x4 MSTORE PUSH1 0x24 PUSH1 0x0 REVERT JUMPDEST SWAP1 PUSH1 0x0 MSTORE PUSH1 0x20 PUSH1 0x0 KECCAK256 ADD SLOAD SWAP1 POP SWAP3 SWAP2 POP POP JUMP JUMPDEST PUSH1 0x60 PUSH2 0x39E3 DUP5 DUP5 DUP5 PUSH1 0x40 MLOAD DUP1 PUSH1 0x60 ADD PUSH1 0x40 MSTORE DUP1 PUSH1 0x29 DUP2 MSTORE PUSH1 0x20 ADD PUSH2 0x4E01 PUSH1 0x29 SWAP2 CODECOPY PUSH2 0x3B6C JUMP JUMPDEST SWAP5 SWAP4 POP POP POP POP JUMP JUMPDEST PUSH1 0x0 DUP2 DUP2 MSTORE PUSH1 0x1 DUP4 ADD PUSH1 0x20 MSTORE PUSH1 0x40 DUP2 KECCAK256 SLOAD DUP1 ISZERO PUSH2 0x3AF8 JUMPI PUSH1 0x0 PUSH2 0x3A0F PUSH1 0x1 DUP4 PUSH2 0x4CDF JUMP JUMPDEST DUP6 SLOAD SWAP1 SWAP2 POP PUSH1 0x0 SWAP1 PUSH2 0x3A23 SWAP1 PUSH1 0x1 SWAP1 PUSH2 0x4CDF JUMP JUMPDEST SWAP1 POP PUSH1 0x0 DUP7 PUSH1 0x0 ADD DUP3 DUP2 SLOAD DUP2 LT PUSH2 0x3A4A JUMPI PUSH4 0x4E487B71 PUSH1 0xE0 SHL PUSH1 0x0 MSTORE PUSH1 0x32 PUSH1 0x4 MSTORE PUSH1 0x24 PUSH1 0x0 REVERT JUMPDEST SWAP1 PUSH1 0x0 MSTORE PUSH1 0x20 PUSH1 0x0 KECCAK256 ADD SLOAD SWAP1 POP DUP1 DUP8 PUSH1 0x0 ADD DUP5 DUP2 SLOAD DUP2 LT PUSH2 0x3A7B JUMPI PUSH4 0x4E487B71 PUSH1 0xE0 SHL PUSH1 0x0 MSTORE PUSH1 0x32 PUSH1 0x4 MSTORE PUSH1 0x24 PUSH1 0x0 REVERT JUMPDEST PUSH1 0x0 SWAP2 DUP3 MSTORE PUSH1 0x20 DUP1 DUP4 KECCAK256 SWAP1 SWAP2 ADD SWAP3 SWAP1 SWAP3 SSTORE DUP3 DUP2 MSTORE PUSH1 0x1 DUP10 ADD SWAP1 SWAP2 MSTORE PUSH1 0x40 SWAP1 KECCAK256 DUP5 SWAP1 SSTORE DUP7 SLOAD DUP8 SWAP1 DUP1 PUSH2 0x3ABC JUMPI PUSH4 0x4E487B71 PUSH1 0xE0 SHL PUSH1 0x0 MSTORE PUSH1 0x31 PUSH1 0x4 MSTORE PUSH1 0x24 PUSH1 0x0 REVERT JUMPDEST PUSH1 0x1 SWAP1 SUB DUP2 DUP2 SWAP1 PUSH1 0x0 MSTORE PUSH1 0x20 PUSH1 0x0 KECCAK256 ADD PUSH1 0x0 SWAP1 SSTORE SWAP1 SSTORE DUP7 PUSH1 0x1 ADD PUSH1 0x0 DUP8 DUP2 MSTORE PUSH1 0x20 ADD SWAP1 DUP2 MSTORE PUSH1 0x20 ADD PUSH1 0x0 KECCAK256 PUSH1 0x0 SWAP1 SSTORE PUSH1 0x1 SWAP5 POP POP POP POP POP PUSH2 0x4C4 JUMP JUMPDEST PUSH1 0x0 SWAP2 POP POP PUSH2 0x4C4 JUMP JUMPDEST PUSH1 0x0 DUP1 JUMPDEST DUP4 MLOAD DUP2 LT ISZERO PUSH2 0x3203 JUMPI DUP3 PUSH1 0x1 PUSH1 0x1 PUSH1 0xA0 SHL SUB AND DUP5 DUP3 DUP2 MLOAD DUP2 LT PUSH2 0x3B39 JUMPI PUSH4 0x4E487B71 PUSH1 0xE0 SHL PUSH1 0x0 MSTORE PUSH1 0x32 PUSH1 0x4 MSTORE PUSH1 0x24 PUSH1 0x0 REVERT JUMPDEST PUSH1 0x20 MUL PUSH1 0x20 ADD ADD MLOAD PUSH1 0x1 PUSH1 0x1 PUSH1 0xA0 SHL SUB AND EQ ISZERO PUSH2 0x3B5A JUMPI PUSH1 0x0 SWAP2 POP POP PUSH2 0x4C4 JUMP JUMPDEST DUP1 PUSH2 0x3B64 DUP2 PUSH2 0x4D79 JUMP JUMPDEST SWAP2 POP POP PUSH2 0x3B06 JUMP JUMPDEST PUSH1 0x60 DUP3 SELFBALANCE LT ISZERO PUSH2 0x3BCD JUMPI PUSH1 0x40 MLOAD PUSH3 0x461BCD PUSH1 0xE5 SHL DUP2 MSTORE PUSH1 0x20 PUSH1 0x4 DUP3 ADD MSTORE PUSH1 0x26 PUSH1 0x24 DUP3 ADD MSTORE PUSH32 0x416464726573733A20696E73756666696369656E742062616C616E636520666F PUSH1 0x44 DUP3 ADD MSTORE PUSH6 0x1C8818D85B1B PUSH1 0xD2 SHL PUSH1 0x64 DUP3 ADD MSTORE PUSH1 0x84 ADD PUSH2 0x397E JUMP JUMPDEST DUP5 EXTCODESIZE PUSH2 0x3C1B JUMPI PUSH1 0x40 MLOAD PUSH3 0x461BCD PUSH1 0xE5 SHL DUP2 MSTORE PUSH1 0x20 PUSH1 0x4 DUP3 ADD MSTORE PUSH1 0x1D PUSH1 0x24 DUP3 ADD MSTORE PUSH32 0x416464726573733A2063616C6C20746F206E6F6E2D636F6E7472616374000000 PUSH1 0x44 DUP3 ADD MSTORE PUSH1 0x64 ADD PUSH2 0x397E JUMP JUMPDEST PUSH1 0x0 DUP1 DUP7 PUSH1 0x1 PUSH1 0x1 PUSH1 0xA0 SHL SUB AND DUP6 DUP8 PUSH1 0x40 MLOAD PUSH2 0x3C37 SWAP2 SWAP1 PUSH2 0x49CF JUMP JUMPDEST PUSH1 0x0 PUSH1 0x40 MLOAD DUP1 DUP4 SUB DUP2 DUP6 DUP8 GAS CALL SWAP3 POP POP POP RETURNDATASIZE DUP1 PUSH1 0x0 DUP2 EQ PUSH2 0x3C74 JUMPI PUSH1 0x40 MLOAD SWAP2 POP PUSH1 0x1F NOT PUSH1 0x3F RETURNDATASIZE ADD AND DUP3 ADD PUSH1 0x40 MSTORE RETURNDATASIZE DUP3 MSTORE RETURNDATASIZE PUSH1 0x0 PUSH1 0x20 DUP5 ADD RETURNDATACOPY PUSH2 0x3C79 JUMP JUMPDEST PUSH1 0x60 SWAP2 POP JUMPDEST POP SWAP2 POP SWAP2 POP PUSH2 0x3C89 DUP3 DUP3 DUP7 PUSH2 0x3C94 JUMP JUMPDEST SWAP8 SWAP7 POP POP POP POP POP POP POP JUMP JUMPDEST PUSH1 0x60 DUP4 ISZERO PUSH2 0x3CA3 JUMPI POP DUP2 PUSH2 0x2B84 JUMP JUMPDEST DUP3 MLOAD ISZERO PUSH2 0x3CB3 JUMPI DUP3 MLOAD DUP1 DUP5 PUSH1 0x20 ADD REVERT JUMPDEST DUP2 PUSH1 0x40 MLOAD PUSH3 0x461BCD PUSH1 0xE5 SHL DUP2 MSTORE PUSH1 0x4 ADD PUSH2 0x397E SWAP2 SWAP1 PUSH2 0x4B05 JUMP JUMPDEST DUP3 DUP1 SLOAD PUSH2 0x3CD9 SWAP1 PUSH2 0x4D22 JUMP JUMPDEST SWAP1 PUSH1 0x0 MSTORE PUSH1 0x20 PUSH1 0x0 KECCAK256 SWAP1 PUSH1 0x1F ADD PUSH1 0x20 SWAP1 DIV DUP2 ADD SWAP3 DUP3 PUSH2 0x3CFB JUMPI PUSH1 0x0 DUP6 SSTORE PUSH2 0x3D41 JUMP JUMPDEST DUP3 PUSH1 0x1F LT PUSH2 0x3D14 JUMPI DUP1 MLOAD PUSH1 0xFF NOT AND DUP4 DUP1 ADD OR DUP6 SSTORE PUSH2 0x3D41 JUMP JUMPDEST DUP3 DUP1 ADD PUSH1 0x1 ADD DUP6 SSTORE DUP3 ISZERO PUSH2 0x3D41 JUMPI SWAP2 DUP3 ADD JUMPDEST DUP3 DUP2 GT ISZERO PUSH2 0x3D41 JUMPI DUP3 MLOAD DUP3 SSTORE SWAP2 PUSH1 0x20 ADD SWAP2 SWAP1 PUSH1 0x1 ADD SWAP1 PUSH2 0x3D26 JUMP JUMPDEST POP PUSH2 0x3D4D SWAP3 SWAP2 POP PUSH2 0x405A JUMP JUMPDEST POP SWAP1 JUMP JUMPDEST DUP3 DUP1 SLOAD DUP3 DUP3 SSTORE SWAP1 PUSH1 0x0 MSTORE PUSH1 0x20 PUSH1 0x0 KECCAK256 SWAP1 DUP2 ADD SWAP3 DUP3 ISZERO PUSH2 0x3D41 JUMPI SWAP2 PUSH1 0x20 MUL DUP3 ADD JUMPDEST DUP3 DUP2 GT ISZERO PUSH2 0x3D41 JUMPI DUP3 MLOAD DUP3 SLOAD PUSH1 0x1 PUSH1 0x1 PUSH1 0xA0 SHL SUB NOT AND PUSH1 0x1 PUSH1 0x1 PUSH1 0xA0 SHL SUB SWAP1 SWAP2 AND OR DUP3 SSTORE PUSH1 0x20 SWAP1 SWAP3 ADD SWAP2 PUSH1 0x1 SWAP1 SWAP2 ADD SWAP1 PUSH2 0x3D71 JUMP JUMPDEST PUSH1 0x40 MLOAD DUP1 PUSH1 0x80 ADD PUSH1 0x40 MSTORE DUP1 PUSH2 0x3DB9 PUSH2 0x3DD4 JUMP JUMPDEST DUP2 MSTORE PUSH1 0x20 ADD PUSH1 0x60 DUP2 MSTORE PUSH1 0x20 ADD PUSH1 0x60 DUP2 MSTORE PUSH1 0x20 ADD PUSH1 0x60 DUP2 MSTORE POP SWAP1 JUMP JUMPDEST PUSH1 0x40 MLOAD DUP1 PUSH1 0xC0 ADD PUSH1 0x40 MSTORE DUP1 PUSH1 0x60 DUP2 MSTORE PUSH1 0x20 ADD PUSH1 0x0 PUSH1 0xFF AND DUP2 MSTORE PUSH1 0x20 ADD PUSH1 0x0 PUSH2 0xFFFF AND DUP2 MSTORE PUSH1 0x20 ADD PUSH1 0x0 DUP2 MSTORE PUSH1 0x20 ADD PUSH1 0x0 DUP2 MSTORE PUSH1 0x20 ADD PUSH1 0x60 DUP2 MSTORE POP SWAP1 JUMP JUMPDEST PUSH1 0x40 MLOAD DUP1 PUSH1 0x80 ADD PUSH1 0x40 MSTORE DUP1 PUSH2 0x3E24 PUSH2 0x3DD4 JUMP JUMPDEST DUP2 MSTORE PUSH1 0x60 PUSH1 0x20 DUP3 ADD DUP2 SWAP1 MSTORE PUSH1 0x0 PUSH1 0x40 DUP4 ADD MSTORE SWAP1 DUP2 ADD MSTORE SWAP1 JUMP JUMPDEST PUSH1 0x40 MLOAD DUP1 PUSH1 0x80 ADD PUSH1 0x40 MSTORE DUP1 PUSH2 0x3E50 PUSH2 0x3DD4 JUMP JUMPDEST DUP2 MSTORE PUSH1 0x0 PUSH1 0x20 DUP3 ADD DUP2 SWAP1 MSTORE PUSH1 0x40 DUP3 ADD DUP2 SWAP1 MSTORE PUSH1 0x60 SWAP1 SWAP2 ADD MSTORE SWAP1 JUMP JUMPDEST DUP3 DUP1 SLOAD DUP3 DUP3 SSTORE SWAP1 PUSH1 0x0 MSTORE PUSH1 0x20 PUSH1 0x0 KECCAK256 SWAP1 PUSH1 0x1F ADD PUSH1 0x20 SWAP1 DIV DUP2 ADD SWAP3 DUP3 ISZERO PUSH2 0x3D41 JUMPI SWAP2 PUSH1 0x20 MUL DUP3 ADD PUSH1 0x0 JUMPDEST DUP4 DUP3 GT ISZERO PUSH2 0x3ED2 JUMPI DUP4 MLOAD DUP4 DUP3 PUSH2 0x100 EXP DUP2 SLOAD DUP2 PUSH1 0xFF MUL NOT AND SWAP1 DUP4 PUSH1 0xFF AND MUL OR SWAP1 SSTORE POP SWAP3 PUSH1 0x20 ADD SWAP3 PUSH1 0x1 ADD PUSH1 0x20 DUP2 PUSH1 0x0 ADD DIV SWAP3 DUP4 ADD SWAP3 PUSH1 0x1 SUB MUL PUSH2 0x3E94 JUMP JUMPDEST DUP1 ISZERO PUSH2 0x3EFF JUMPI DUP3 DUP2 PUSH2 0x100 EXP DUP2 SLOAD SWAP1 PUSH1 0xFF MUL NOT AND SWAP1 SSTORE PUSH1 0x1 ADD PUSH1 0x20 DUP2 PUSH1 0x0 ADD DIV SWAP3 DUP4 ADD SWAP3 PUSH1 0x1 SUB MUL PUSH2 0x3ED2 JUMP JUMPDEST POP POP PUSH2 0x3D4D SWAP3 SWAP2 POP PUSH2 0x405A JUMP JUMPDEST DUP3 DUP1 SLOAD DUP3 DUP3 SSTORE SWAP1 PUSH1 0x0 MSTORE PUSH1 0x20 PUSH1 0x0 KECCAK256 SWAP1 DUP2 ADD SWAP3 DUP3 ISZERO PUSH2 0x3F59 JUMPI SWAP2 PUSH1 0x20 MUL DUP3 ADD JUMPDEST DUP3 DUP2 GT ISZERO PUSH2 0x3F59 JUMPI DUP3 MLOAD DUP1 MLOAD PUSH2 0x3F49 SWAP2 DUP5 SWAP2 PUSH1 0x20 SWAP1 SWAP2 ADD SWAP1 PUSH2 0x3CCD JUMP JUMPDEST POP SWAP2 PUSH1 0x20 ADD SWAP2 SWAP1 PUSH1 0x1 ADD SWAP1 PUSH2 0x3F2C JUMP JUMPDEST POP PUSH2 0x3D4D SWAP3 SWAP2 POP PUSH2 0x406F JUMP JUMPDEST DUP3 DUP1 SLOAD DUP3 DUP3 SSTORE SWAP1 PUSH1 0x0 MSTORE PUSH1 0x20 PUSH1 0x0 KECCAK256 SWAP1 DUP2 ADD SWAP3 DUP3 ISZERO PUSH2 0x3D41 JUMPI SWAP2 PUSH1 0x20 MUL DUP3 ADD DUP3 DUP2 GT ISZERO PUSH2 0x3D41 JUMPI DUP3 MLOAD DUP3 SSTORE SWAP2 PUSH1 0x20 ADD SWAP2 SWAP1 PUSH1 0x1 ADD SWAP1 PUSH2 0x3D26 JUMP JUMPDEST POP DUP1 SLOAD PUSH2 0x3FAB SWAP1 PUSH2 0x4D22 JUMP JUMPDEST PUSH1 0x0 DUP3 SSTORE DUP1 PUSH1 0x1F LT PUSH2 0x3FBB JUMPI POP POP JUMP JUMPDEST PUSH1 0x1F ADD PUSH1 0x20 SWAP1 DIV SWAP1 PUSH1 0x0 MSTORE PUSH1 0x20 PUSH1 0x0 KECCAK256 SWAP1 DUP2 ADD SWAP1 PUSH2 0x2AA5 SWAP2 SWAP1 PUSH2 0x405A JUMP JUMPDEST POP DUP1 SLOAD PUSH1 0x0 DUP3 SSTORE SWAP1 PUSH1 0x0 MSTORE PUSH1 0x20 PUSH1 0x0 KECCAK256 SWAP1 DUP2 ADD SWAP1 PUSH2 0x2AA5 SWAP2 SWAP1 PUSH2 0x405A JUMP JUMPDEST POP DUP1 SLOAD PUSH1 0x0 DUP3 SSTORE SWAP1 PUSH1 0x0 MSTORE PUSH1 0x20 PUSH1 0x0 KECCAK256 SWAP1 DUP2 ADD SWAP1 PUSH2 0x2AA5 SWAP2 SWAP1 PUSH2 0x406F JUMP JUMPDEST POP DUP1 SLOAD PUSH1 0x0 DUP3 SSTORE PUSH1 0x1F ADD PUSH1 0x20 SWAP1 DIV SWAP1 PUSH1 0x0 MSTORE PUSH1 0x20 PUSH1 0x0 KECCAK256 SWAP1 DUP2 ADD SWAP1 PUSH2 0x2AA5 SWAP2 SWAP1 PUSH2 0x405A JUMP JUMPDEST PUSH1 0x40 MLOAD DUP1 PUSH1 0x40 ADD PUSH1 0x40 MSTORE DUP1 PUSH2 0x404D PUSH2 0x3DD4 JUMP JUMPDEST DUP2 MSTORE PUSH1 0x20 ADD PUSH1 0x0 DUP2 MSTORE POP SWAP1 JUMP JUMPDEST JUMPDEST DUP1 DUP3 GT ISZERO PUSH2 0x3D4D JUMPI PUSH1 0x0 DUP2 SSTORE PUSH1 0x1 ADD PUSH2 0x405B JUMP JUMPDEST DUP1 DUP3 GT ISZERO PUSH2 0x3D4D JUMPI PUSH1 0x0 PUSH2 0x4083 DUP3 DUP3 PUSH2 0x3F9F JUMP JUMPDEST POP PUSH1 0x1 ADD PUSH2 0x406F JUMP JUMPDEST DUP1 CALLDATALOAD PUSH1 0x1 PUSH1 0x1 PUSH1 0xA0 SHL SUB DUP2 AND DUP2 EQ PUSH2 0x40A3 JUMPI PUSH1 0x0 DUP1 REVERT JUMPDEST SWAP2 SWAP1 POP JUMP JUMPDEST PUSH1 0x0 DUP3 PUSH1 0x1F DUP4 ADD SLT PUSH2 0x40B8 JUMPI DUP1 DUP2 REVERT JUMPDEST DUP2 CALLDATALOAD PUSH1 0x20 PUSH2 0x40CD PUSH2 0x40C8 DUP4 PUSH2 0x4C4D JUMP JUMPDEST PUSH2 0x4C1C JUMP JUMPDEST DUP1 DUP4 DUP3 MSTORE DUP3 DUP3 ADD SWAP2 POP DUP3 DUP7 ADD DUP8 DUP5 DUP7 PUSH1 0x5 SHL DUP10 ADD ADD GT ISZERO PUSH2 0x40EC JUMPI DUP6 DUP7 REVERT JUMPDEST DUP6 JUMPDEST DUP6 DUP2 LT ISZERO PUSH2 0x4111 JUMPI PUSH2 0x40FF DUP3 PUSH2 0x408C JUMP JUMPDEST DUP5 MSTORE SWAP3 DUP5 ADD SWAP3 SWAP1 DUP5 ADD SWAP1 PUSH1 0x1 ADD PUSH2 0x40EE JUMP JUMPDEST POP SWAP1 SWAP8 SWAP7 POP POP POP POP POP POP POP JUMP JUMPDEST PUSH1 0x0 DUP3 PUSH1 0x1F DUP4 ADD SLT PUSH2 0x412E JUMPI DUP1 DUP2 REVERT JUMPDEST DUP2 CALLDATALOAD PUSH1 0x20 PUSH2 0x413E PUSH2 0x40C8 DUP4 PUSH2 0x4C4D JUMP JUMPDEST DUP1 DUP4 DUP3 MSTORE DUP3 DUP3 ADD SWAP2 POP DUP3 DUP7 ADD DUP8 DUP5 DUP7 PUSH1 0x5 SHL DUP10 ADD ADD GT ISZERO PUSH2 0x415D JUMPI DUP6 DUP7 REVERT JUMPDEST DUP6 JUMPDEST DUP6 DUP2 LT ISZERO PUSH2 0x4111 JUMPI DUP2 CALLDATALOAD PUSH8 0xFFFFFFFFFFFFFFFF DUP2 GT ISZERO PUSH2 0x417D JUMPI DUP8 DUP9 REVERT JUMPDEST PUSH2 0x418B DUP11 DUP8 DUP4 DUP13 ADD ADD PUSH2 0x41FB JUMP JUMPDEST DUP6 MSTORE POP SWAP3 DUP5 ADD SWAP3 SWAP1 DUP5 ADD SWAP1 PUSH1 0x1 ADD PUSH2 0x415F JUMP JUMPDEST PUSH1 0x0 DUP3 PUSH1 0x1F DUP4 ADD SLT PUSH2 0x41AE JUMPI DUP1 DUP2 REVERT JUMPDEST DUP2 CALLDATALOAD PUSH1 0x20 PUSH2 0x41BE PUSH2 0x40C8 DUP4 PUSH2 0x4C4D JUMP JUMPDEST DUP1 DUP4 DUP3 MSTORE DUP3 DUP3 ADD SWAP2 POP DUP3 DUP7 ADD DUP8 DUP5 DUP7 PUSH1 0x5 SHL DUP10 ADD ADD GT ISZERO PUSH2 0x41DD JUMPI DUP6 DUP7 REVERT JUMPDEST DUP6 JUMPDEST DUP6 DUP2 LT ISZERO PUSH2 0x4111 JUMPI DUP2 CALLDATALOAD DUP5 MSTORE SWAP3 DUP5 ADD SWAP3 SWAP1 DUP5 ADD SWAP1 PUSH1 0x1 ADD PUSH2 0x41DF JUMP JUMPDEST PUSH1 0x0 DUP3 PUSH1 0x1F DUP4 ADD SLT PUSH2 0x420B JUMPI DUP1 DUP2 REVERT JUMPDEST DUP2 CALLDATALOAD PUSH8 0xFFFFFFFFFFFFFFFF DUP2 GT ISZERO PUSH2 0x4225 JUMPI PUSH2 0x4225 PUSH2 0x4DAA JUMP JUMPDEST PUSH2 0x4238 PUSH1 0x1F DUP3 ADD PUSH1 0x1F NOT AND PUSH1 0x20 ADD PUSH2 0x4C1C JUMP JUMPDEST DUP2 DUP2 MSTORE DUP5 PUSH1 0x20 DUP4 DUP7 ADD ADD GT ISZERO PUSH2 0x424C JUMPI DUP3 DUP4 REVERT JUMPDEST DUP2 PUSH1 0x20 DUP6 ADD PUSH1 0x20 DUP4 ADD CALLDATACOPY SWAP1 DUP2 ADD PUSH1 0x20 ADD SWAP2 SWAP1 SWAP2 MSTORE SWAP3 SWAP2 POP POP JUMP JUMPDEST DUP1 CALLDATALOAD PUSH2 0xFFFF DUP2 AND DUP2 EQ PUSH2 0x40A3 JUMPI PUSH1 0x0 DUP1 REVERT JUMPDEST DUP1 CALLDATALOAD PUSH1 0xFF DUP2 AND DUP2 EQ PUSH2 0x40A3 JUMPI PUSH1 0x0 DUP1 REVERT JUMPDEST PUSH1 0x0 DUP1 PUSH1 0x0 DUP1 PUSH1 0x0 PUSH1 0xA0 DUP7 DUP9 SUB SLT ISZERO PUSH2 0x42A0 JUMPI DUP1 DUP2 REVERT JUMPDEST PUSH2 0x42A9 DUP7 PUSH2 0x408C JUMP JUMPDEST SWAP5 POP PUSH2 0x42B7 PUSH1 0x20 DUP8 ADD PUSH2 0x408C JUMP JUMPDEST SWAP4 POP PUSH1 0x40 DUP7 ADD CALLDATALOAD PUSH8 0xFFFFFFFFFFFFFFFF DUP1 DUP3 GT ISZERO PUSH2 0x42D3 JUMPI DUP3 DUP4 REVERT JUMPDEST PUSH2 0x42DF DUP10 DUP4 DUP11 ADD PUSH2 0x419E JUMP JUMPDEST SWAP5 POP PUSH1 0x60 DUP9 ADD CALLDATALOAD SWAP2 POP DUP1 DUP3 GT ISZERO PUSH2 0x42F4 JUMPI DUP3 DUP4 REVERT JUMPDEST PUSH2 0x4300 DUP10 DUP4 DUP11 ADD PUSH2 0x419E JUMP JUMPDEST SWAP4 POP PUSH1 0x80 DUP9 ADD CALLDATALOAD SWAP2 POP DUP1 DUP3 GT ISZERO PUSH2 0x4315 JUMPI DUP3 DUP4 REVERT JUMPDEST POP PUSH2 0x4322 DUP9 DUP3 DUP10 ADD PUSH2 0x41FB JUMP JUMPDEST SWAP2 POP POP SWAP3 SWAP6 POP SWAP3 SWAP6 SWAP1 SWAP4 POP JUMP JUMPDEST PUSH1 0x0 DUP1 PUSH1 0x0 DUP1 PUSH1 0x0 PUSH1 0xA0 DUP7 DUP9 SUB SLT ISZERO PUSH2 0x4346 JUMPI DUP1 DUP2 REVERT JUMPDEST PUSH2 0x434F DUP7 PUSH2 0x408C JUMP JUMPDEST SWAP5 POP PUSH2 0x435D PUSH1 0x20 DUP8 ADD PUSH2 0x408C JUMP JUMPDEST SWAP4 POP PUSH1 0x40 DUP7 ADD CALLDATALOAD SWAP3 POP PUSH1 0x60 DUP7 ADD CALLDATALOAD SWAP2 POP PUSH1 0x80 DUP7 ADD CALLDATALOAD PUSH8 0xFFFFFFFFFFFFFFFF DUP2 GT ISZERO PUSH2 0x4386 JUMPI DUP2 DUP3 REVERT JUMPDEST PUSH2 0x4322 DUP9 DUP3 DUP10 ADD PUSH2 0x41FB JUMP JUMPDEST PUSH1 0x0 PUSH1 0x20 DUP3 DUP5 SUB SLT ISZERO PUSH2 0x43A3 JUMPI DUP1 DUP2 REVERT JUMPDEST DUP2 CALLDATALOAD PUSH1 0x1 PUSH1 0x1 PUSH1 0xE0 SHL SUB NOT DUP2 AND DUP2 EQ PUSH2 0x2B84 JUMPI DUP2 DUP3 REVERT JUMPDEST PUSH1 0x0 DUP1 PUSH1 0x40 DUP4 DUP6 SUB SLT ISZERO PUSH2 0x43CC JUMPI DUP2 DUP3 REVERT JUMPDEST DUP3 CALLDATALOAD PUSH8 0xFFFFFFFFFFFFFFFF DUP2 GT ISZERO PUSH2 0x43E2 JUMPI DUP3 DUP4 REVERT JUMPDEST PUSH2 0x43EE DUP6 DUP3 DUP7 ADD PUSH2 0x41FB JUMP JUMPDEST SWAP3 POP POP PUSH2 0x43FD PUSH1 0x20 DUP5 ADD PUSH2 0x4278 JUMP JUMPDEST SWAP1 POP SWAP3 POP SWAP3 SWAP1 POP JUMP JUMPDEST PUSH1 0x0 DUP1 PUSH1 0x0 DUP1 PUSH1 0x0 PUSH1 0xA0 DUP7 DUP9 SUB SLT ISZERO PUSH2 0x441D JUMPI DUP1 DUP2 REVERT JUMPDEST DUP6 CALLDATALOAD PUSH8 0xFFFFFFFFFFFFFFFF DUP2 GT ISZERO PUSH2 0x4433 JUMPI DUP2 DUP3 REVERT JUMPDEST PUSH2 0x443F DUP9 DUP3 DUP10 ADD PUSH2 0x41FB JUMP JUMPDEST SWAP6 POP POP PUSH2 0x444E PUSH1 0x20 DUP8 ADD PUSH2 0x4278 JUMP JUMPDEST SWAP4 POP PUSH2 0x445C PUSH1 0x40 DUP8 ADD PUSH2 0x408C JUMP JUMPDEST SWAP3 POP PUSH2 0x446A PUSH1 0x60 DUP8 ADD PUSH2 0x4278 JUMP JUMPDEST SWAP2 POP PUSH2 0x4478 PUSH1 0x80 DUP8 ADD PUSH2 0x4278 JUMP JUMPDEST SWAP1 POP SWAP3 SWAP6 POP SWAP3 SWAP6 SWAP1 SWAP4 POP JUMP JUMPDEST PUSH1 0x0 DUP1 PUSH1 0x0 DUP1 PUSH1 0x0 PUSH1 0xA0 DUP7 DUP9 SUB SLT ISZERO PUSH2 0x449B JUMPI DUP3 DUP4 REVERT JUMPDEST DUP6 CALLDATALOAD PUSH8 0xFFFFFFFFFFFFFFFF DUP1 DUP3 GT ISZERO PUSH2 0x44B2 JUMPI DUP5 DUP6 REVERT JUMPDEST PUSH2 0x44BE DUP10 DUP4 DUP11 ADD PUSH2 0x41FB JUMP JUMPDEST SWAP7 POP PUSH2 0x44CC PUSH1 0x20 DUP10 ADD PUSH2 0x4278 JUMP JUMPDEST SWAP6 POP PUSH1 0x40 DUP9 ADD CALLDATALOAD SWAP2 POP DUP1 DUP3 GT ISZERO PUSH2 0x44E1 JUMPI DUP5 DUP6 REVERT JUMPDEST PUSH2 0x44ED DUP10 DUP4 DUP11 ADD PUSH2 0x40A8 JUMP JUMPDEST SWAP5 POP PUSH1 0x60 DUP9 ADD CALLDATALOAD SWAP2 POP DUP1 DUP3 GT ISZERO PUSH2 0x4502 JUMPI DUP3 DUP4 REVERT JUMPDEST PUSH2 0x450E DUP10 DUP4 DUP11 ADD PUSH2 0x411E JUMP JUMPDEST SWAP4 POP PUSH1 0x80 DUP9 ADD CALLDATALOAD SWAP2 POP DUP1 DUP3 GT ISZERO PUSH2 0x4523 JUMPI DUP3 DUP4 REVERT JUMPDEST POP PUSH2 0x4322 DUP9 DUP3 DUP10 ADD PUSH2 0x419E JUMP JUMPDEST PUSH1 0x0 DUP1 PUSH1 0x0 DUP1 PUSH1 0x0 PUSH1 0xA0 DUP7 DUP9 SUB SLT ISZERO PUSH2 0x4547 JUMPI DUP3 DUP4 REVERT JUMPDEST DUP6 CALLDATALOAD PUSH8 0xFFFFFFFFFFFFFFFF DUP1 DUP3 GT ISZERO PUSH2 0x455E JUMPI DUP5 DUP6 REVERT JUMPDEST PUSH2 0x456A DUP10 DUP4 DUP11 ADD PUSH2 0x41FB JUMP JUMPDEST SWAP7 POP PUSH1 0x20 SWAP2 POP PUSH2 0x457B DUP3 DUP10 ADD PUSH2 0x4278 JUMP JUMPDEST SWAP6 POP PUSH1 0x40 DUP9 ADD CALLDATALOAD DUP2 DUP2 GT ISZERO PUSH2 0x458E JUMPI DUP6 DUP7 REVERT JUMPDEST PUSH2 0x459A DUP11 DUP3 DUP12 ADD PUSH2 0x40A8 JUMP JUMPDEST SWAP6 POP POP PUSH1 0x60 DUP9 ADD CALLDATALOAD DUP1 ISZERO ISZERO DUP2 EQ PUSH2 0x45AF JUMPI DUP4 DUP5 REVERT JUMPDEST SWAP4 POP PUSH1 0x80 DUP9 ADD CALLDATALOAD DUP2 DUP2 GT ISZERO PUSH2 0x45C2 JUMPI DUP4 DUP5 REVERT JUMPDEST DUP9 ADD SWAP1 POP PUSH1 0x1F DUP2 ADD DUP10 SGT PUSH2 0x45D4 JUMPI DUP3 DUP4 REVERT JUMPDEST DUP1 CALLDATALOAD PUSH2 0x45E2 PUSH2 0x40C8 DUP3 PUSH2 0x4C4D JUMP JUMPDEST DUP1 DUP3 DUP3 MSTORE DUP5 DUP3 ADD SWAP2 POP DUP5 DUP5 ADD DUP13 DUP7 DUP6 PUSH1 0x5 SHL DUP8 ADD ADD GT ISZERO PUSH2 0x4601 JUMPI DUP7 DUP8 REVERT JUMPDEST DUP7 SWAP5 POP JUMPDEST DUP4 DUP6 LT ISZERO PUSH2 0x462A JUMPI PUSH2 0x4616 DUP2 PUSH2 0x4278 JUMP JUMPDEST DUP4 MSTORE PUSH1 0x1 SWAP5 SWAP1 SWAP5 ADD SWAP4 SWAP2 DUP6 ADD SWAP2 DUP6 ADD PUSH2 0x4605 JUMP JUMPDEST POP DUP1 SWAP6 POP POP POP POP POP POP SWAP3 SWAP6 POP SWAP3 SWAP6 SWAP1 SWAP4 POP JUMP JUMPDEST PUSH1 0x0 PUSH1 0x20 DUP3 DUP5 SUB SLT ISZERO PUSH2 0x464E JUMPI DUP1 DUP2 REVERT JUMPDEST PUSH2 0x2B84 DUP3 PUSH2 0x4266 JUMP JUMPDEST PUSH1 0x0 PUSH1 0x20 DUP3 DUP5 SUB SLT ISZERO PUSH2 0x4668 JUMPI DUP1 DUP2 REVERT JUMPDEST POP CALLDATALOAD SWAP2 SWAP1 POP JUMP JUMPDEST PUSH1 0x0 DUP1 PUSH1 0x40 DUP4 DUP6 SUB SLT ISZERO PUSH2 0x4681 JUMPI DUP2 DUP3 REVERT JUMPDEST DUP3 CALLDATALOAD SWAP2 POP PUSH2 0x43FD PUSH1 0x20 DUP5 ADD PUSH2 0x408C JUMP JUMPDEST PUSH1 0x0 DUP1 PUSH1 0x0 DUP1 PUSH1 0x0 DUP1 PUSH1 0xC0 DUP8 DUP10 SUB SLT ISZERO PUSH2 0x46A9 JUMPI DUP4 DUP5 REVERT JUMPDEST DUP7 CALLDATALOAD SWAP6 POP PUSH1 0x20 DUP8 ADD CALLDATALOAD PUSH8 0xFFFFFFFFFFFFFFFF DUP1 DUP3 GT ISZERO PUSH2 0x46C7 JUMPI DUP6 DUP7 REVERT JUMPDEST PUSH2 0x46D3 DUP11 DUP4 DUP12 ADD PUSH2 0x41FB JUMP JUMPDEST SWAP7 POP PUSH2 0x46E1 PUSH1 0x40 DUP11 ADD PUSH2 0x4278 JUMP JUMPDEST SWAP6 POP PUSH1 0x60 DUP10 ADD CALLDATALOAD SWAP2 POP DUP1 DUP3 GT ISZERO PUSH2 0x46F6 JUMPI DUP3 DUP4 REVERT JUMPDEST PUSH2 0x4702 DUP11 DUP4 DUP12 ADD PUSH2 0x40A8 JUMP JUMPDEST SWAP5 POP PUSH1 0x80 DUP10 ADD CALLDATALOAD SWAP2 POP DUP1 DUP3 GT ISZERO PUSH2 0x4717 JUMPI DUP3 DUP4 REVERT JUMPDEST PUSH2 0x4723 DUP11 DUP4 DUP12 ADD PUSH2 0x411E JUMP JUMPDEST SWAP4 POP PUSH1 0xA0 DUP10 ADD CALLDATALOAD SWAP2 POP DUP1 DUP3 GT ISZERO PUSH2 0x4738 JUMPI DUP3 DUP4 REVERT JUMPDEST POP PUSH2 0x4745 DUP10 DUP3 DUP11 ADD PUSH2 0x419E JUMP JUMPDEST SWAP2 POP POP SWAP3 SWAP6 POP SWAP3 SWAP6 POP SWAP3 SWAP6 JUMP JUMPDEST PUSH1 0x0 DUP1 PUSH1 0x0 DUP1 PUSH1 0x80 DUP6 DUP8 SUB SLT ISZERO PUSH2 0x4767 JUMPI DUP2 DUP3 REVERT JUMPDEST DUP5 CALLDATALOAD SWAP4 POP PUSH1 0x20 DUP6 ADD CALLDATALOAD PUSH8 0xFFFFFFFFFFFFFFFF DUP2 GT ISZERO PUSH2 0x4784 JUMPI DUP3 DUP4 REVERT JUMPDEST PUSH2 0x4790 DUP8 DUP3 DUP9 ADD PUSH2 0x41FB JUMP JUMPDEST SWAP4 POP POP PUSH2 0x479F PUSH1 0x40 DUP7 ADD PUSH2 0x4278 JUMP JUMPDEST SWAP4 SWAP7 SWAP3 SWAP6 POP SWAP3 SWAP4 PUSH1 0x60 ADD CALLDATALOAD SWAP3 POP POP JUMP JUMPDEST PUSH1 0x0 DUP1 PUSH1 0x40 DUP4 DUP6 SUB SLT ISZERO PUSH2 0x47C1 JUMPI DUP2 DUP3 REVERT JUMPDEST DUP3 CALLDATALOAD SWAP2 POP PUSH2 0x43FD PUSH1 0x20 DUP5 ADD PUSH2 0x4266 JUMP JUMPDEST PUSH1 0x0 DUP2 MLOAD DUP1 DUP5 MSTORE PUSH1 0x20 DUP1 DUP6 ADD SWAP5 POP DUP1 DUP5 ADD DUP4 JUMPDEST DUP4 DUP2 LT ISZERO PUSH2 0x4809 JUMPI DUP2 MLOAD PUSH1 0x1 PUSH1 0x1 PUSH1 0xA0 SHL SUB AND DUP8 MSTORE SWAP6 DUP3 ADD SWAP6 SWAP1 DUP3 ADD SWAP1 PUSH1 0x1 ADD PUSH2 0x47E4 JUMP JUMPDEST POP SWAP5 SWAP6 SWAP5 POP POP POP POP POP JUMP JUMPDEST PUSH1 0x0 DUP2 MLOAD DUP1 DUP5 MSTORE PUSH1 0x20 DUP1 DUP6 ADD SWAP5 POP DUP1 DUP5 ADD DUP4 JUMPDEST DUP4 DUP2 LT ISZERO PUSH2 0x4809 JUMPI DUP2 MLOAD DUP8 MSTORE SWAP6 DUP3 ADD SWAP6 SWAP1 DUP3 ADD SWAP1 PUSH1 0x1 ADD PUSH2 0x4827 JUMP JUMPDEST PUSH1 0x0 DUP2 MLOAD DUP1 DUP5 MSTORE PUSH2 0x485B DUP2 PUSH1 0x20 DUP7 ADD PUSH1 0x20 DUP7 ADD PUSH2 0x4CF6 JUMP JUMPDEST PUSH1 0x1F ADD PUSH1 0x1F NOT AND SWAP3 SWAP1 SWAP3 ADD PUSH1 0x20 ADD SWAP3 SWAP2 POP POP JUMP JUMPDEST PUSH1 0x0 DUP2 MLOAD PUSH1 0x80 DUP5 MSTORE PUSH2 0x4884 PUSH1 0x80 DUP6 ADD DUP3 PUSH2 0x4969 JUMP JUMPDEST SWAP1 POP PUSH1 0x1 DUP1 PUSH1 0xA0 SHL SUB PUSH1 0x20 DUP5 ADD MLOAD AND PUSH1 0x20 DUP6 ADD MSTORE PUSH1 0xFF PUSH1 0x40 DUP5 ADD MLOAD AND PUSH1 0x40 DUP6 ADD MSTORE PUSH1 0xFF PUSH1 0x60 DUP5 ADD MLOAD AND PUSH1 0x60 DUP6 ADD MSTORE DUP1 SWAP2 POP POP SWAP3 SWAP2 POP POP JUMP JUMPDEST PUSH1 0x0 DUP2 MLOAD PUSH1 0x80 DUP5 MSTORE PUSH2 0x48D1 PUSH1 0x80 DUP6 ADD DUP3 PUSH2 0x4969 JUMP JUMPDEST SWAP1 POP PUSH1 0x20 DUP1 DUP5 ADD MLOAD DUP6 DUP4 SUB DUP3 DUP8 ADD MSTORE PUSH2 0x48EA DUP4 DUP3 PUSH2 0x47D1 JUMP JUMPDEST SWAP3 POP POP PUSH1 0x40 DUP5 ADD MLOAD DUP6 DUP4 SUB PUSH1 0x40 DUP8 ADD MSTORE DUP3 DUP2 MLOAD DUP1 DUP6 MSTORE DUP4 DUP6 ADD SWAP2 POP DUP4 DUP2 PUSH1 0x5 SHL DUP7 ADD ADD DUP5 DUP5 ADD SWAP4 POP DUP7 JUMPDEST DUP3 DUP2 LT ISZERO PUSH2 0x4942 JUMPI PUSH1 0x1F NOT DUP8 DUP4 SUB ADD DUP5 MSTORE PUSH2 0x4930 DUP3 DUP7 MLOAD PUSH2 0x4843 JUMP JUMPDEST SWAP5 DUP7 ADD SWAP5 SWAP4 DUP7 ADD SWAP4 SWAP2 POP PUSH1 0x1 ADD PUSH2 0x4914 JUMP JUMPDEST POP PUSH1 0x60 DUP9 ADD MLOAD SWAP6 POP DUP9 DUP2 SUB PUSH1 0x60 DUP11 ADD MSTORE PUSH2 0x495C DUP2 DUP8 PUSH2 0x4814 JUMP JUMPDEST SWAP10 SWAP9 POP POP POP POP POP POP POP POP POP JUMP JUMPDEST PUSH1 0x0 DUP2 MLOAD PUSH1 0xC0 DUP5 MSTORE PUSH2 0x497E PUSH1 0xC0 DUP6 ADD DUP3 PUSH2 0x4843 JUMP JUMPDEST SWAP1 POP PUSH1 0xFF PUSH1 0x20 DUP5 ADD MLOAD AND PUSH1 0x20 DUP6 ADD MSTORE PUSH2 0xFFFF PUSH1 0x40 DUP5 ADD MLOAD AND PUSH1 0x40 DUP6 ADD MSTORE PUSH1 0x60 DUP4 ADD MLOAD PUSH1 0x60 DUP6 ADD MSTORE PUSH1 0x80 DUP4 ADD MLOAD PUSH1 0x80 DUP6 ADD MSTORE PUSH1 0xA0 DUP4 ADD MLOAD DUP5 DUP3 SUB PUSH1 0xA0 DUP7 ADD MSTORE PUSH2 0x49C6 DUP3 DUP3 PUSH2 0x47D1 JUMP JUMPDEST SWAP6 SWAP5 POP POP POP POP POP JUMP JUMPDEST PUSH1 0x0 DUP3 MLOAD PUSH2 0x49E1 DUP2 DUP5 PUSH1 0x20 DUP8 ADD PUSH2 0x4CF6 JUMP JUMPDEST SWAP2 SWAP1 SWAP2 ADD SWAP3 SWAP2 POP POP JUMP JUMPDEST PUSH1 0x0 DUP1 DUP4 SLOAD DUP3 PUSH1 0x1 DUP3 DUP2 SHR SWAP2 POP DUP1 DUP4 AND DUP1 PUSH2 0x4A07 JUMPI PUSH1 0x7F DUP4 AND SWAP3 POP JUMPDEST PUSH1 0x20 DUP1 DUP5 LT DUP3 EQ ISZERO PUSH2 0x4A27 JUMPI PUSH4 0x4E487B71 PUSH1 0xE0 SHL DUP8 MSTORE PUSH1 0x22 PUSH1 0x4 MSTORE PUSH1 0x24 DUP8 REVERT JUMPDEST DUP2 DUP1 ISZERO PUSH2 0x4A3B JUMPI PUSH1 0x1 DUP2 EQ PUSH2 0x4A4C JUMPI PUSH2 0x4A78 JUMP JUMPDEST PUSH1 0xFF NOT DUP7 AND DUP10 MSTORE DUP5 DUP10 ADD SWAP7 POP PUSH2 0x4A78 JUMP JUMPDEST PUSH1 0x0 DUP11 DUP2 MSTORE PUSH1 0x20 SWAP1 KECCAK256 DUP9 JUMPDEST DUP7 DUP2 LT ISZERO PUSH2 0x4A70 JUMPI DUP2 SLOAD DUP12 DUP3 ADD MSTORE SWAP1 DUP6 ADD SWAP1 DUP4 ADD PUSH2 0x4A57 JUMP JUMPDEST POP POP DUP5 DUP10 ADD SWAP7 POP JUMPDEST POP SWAP5 SWAP9 SWAP8 POP POP POP POP POP POP POP POP JUMP JUMPDEST PUSH1 0x40 DUP2 MSTORE PUSH1 0x0 PUSH2 0x4A99 PUSH1 0x40 DUP4 ADD DUP6 PUSH2 0x47D1 JUMP JUMPDEST SWAP1 POP DUP3 PUSH1 0x20 DUP4 ADD MSTORE SWAP4 SWAP3 POP POP POP JUMP JUMPDEST PUSH1 0x20 DUP1 DUP3 MSTORE DUP3 MLOAD DUP3 DUP3 ADD DUP2 SWAP1 MSTORE PUSH1 0x0 SWAP2 SWAP1 DUP5 DUP3 ADD SWAP1 PUSH1 0x40 DUP6 ADD SWAP1 DUP5 JUMPDEST DUP2 DUP2 LT ISZERO PUSH2 0x4AE0 JUMPI DUP4 MLOAD DUP4 MSTORE SWAP3 DUP5 ADD SWAP3 SWAP2 DUP5 ADD SWAP2 PUSH1 0x1 ADD PUSH2 0x4AC4 JUMP JUMPDEST POP SWAP1 SWAP7 SWAP6 POP POP POP POP POP POP JUMP JUMPDEST DUP3 DUP2 MSTORE PUSH1 0x40 PUSH1 0x20 DUP3 ADD MSTORE PUSH1 0x0 PUSH2 0x39E3 PUSH1 0x40 DUP4 ADD DUP5 PUSH2 0x47D1 JUMP JUMPDEST PUSH1 0x20 DUP2 MSTORE PUSH1 0x0 PUSH2 0x2B84 PUSH1 0x20 DUP4 ADD DUP5 PUSH2 0x4843 JUMP JUMPDEST PUSH1 0x40 DUP2 MSTORE PUSH1 0x0 PUSH2 0x4B2B PUSH1 0x40 DUP4 ADD DUP6 PUSH2 0x48BC JUMP JUMPDEST DUP3 DUP2 SUB PUSH1 0x20 DUP5 ADD MSTORE DUP4 MLOAD PUSH1 0x40 DUP3 MSTORE PUSH2 0x4B46 PUSH1 0x40 DUP4 ADD DUP3 PUSH2 0x4969 JUMP JUMPDEST SWAP1 POP PUSH1 0x20 DUP6 ADD MLOAD PUSH1 0x20 DUP4 ADD MSTORE DUP1 SWAP3 POP POP POP SWAP4 SWAP3 POP POP POP JUMP JUMPDEST PUSH1 0x80 DUP2 MSTORE PUSH1 0x0 PUSH2 0x4B71 PUSH1 0x80 DUP4 ADD DUP8 PUSH2 0x48BC JUMP JUMPDEST PUSH1 0x20 DUP4 DUP3 SUB DUP2 DUP6 ADD MSTORE PUSH2 0x4B84 DUP3 DUP9 PUSH2 0x4969 JUMP JUMPDEST SWAP2 POP DUP4 DUP3 SUB PUSH1 0x40 DUP6 ADD MSTORE DUP6 MLOAD PUSH1 0x80 DUP4 MSTORE PUSH2 0x4BA1 PUSH1 0x80 DUP5 ADD DUP3 PUSH2 0x4969 JUMP JUMPDEST SWAP1 POP DUP2 DUP8 ADD MLOAD DUP4 DUP3 SUB DUP4 DUP6 ADD MSTORE PUSH2 0x4BB8 DUP3 DUP3 PUSH2 0x47D1 JUMP JUMPDEST PUSH1 0x40 DUP10 DUP2 ADD MLOAD ISZERO ISZERO SWAP1 DUP7 ADD MSTORE PUSH1 0x60 DUP1 DUP11 ADD MLOAD DUP7 DUP4 SUB SWAP2 SWAP1 SWAP7 ADD MSTORE DUP5 MLOAD DUP1 DUP3 MSTORE SWAP1 DUP5 ADD SWAP5 DUP5 ADD SWAP3 POP DUP6 SWAP2 POP JUMPDEST DUP1 DUP3 LT ISZERO PUSH2 0x4C06 JUMPI DUP3 MLOAD PUSH1 0xFF AND DUP6 MSTORE SWAP4 DUP4 ADD SWAP4 SWAP2 DUP4 ADD SWAP2 PUSH1 0x1 SWAP2 SWAP1 SWAP2 ADD SWAP1 PUSH2 0x4BE3 JUMP JUMPDEST POP POP POP POP DUP3 DUP2 SUB PUSH1 0x60 DUP5 ADD MSTORE PUSH2 0x3C89 DUP2 DUP6 PUSH2 0x486F JUMP JUMPDEST PUSH1 0x40 MLOAD PUSH1 0x1F DUP3 ADD PUSH1 0x1F NOT AND DUP2 ADD PUSH8 0xFFFFFFFFFFFFFFFF DUP2 GT DUP3 DUP3 LT OR ISZERO PUSH2 0x4C45 JUMPI PUSH2 0x4C45 PUSH2 0x4DAA JUMP JUMPDEST PUSH1 0x40 MSTORE SWAP2 SWAP1 POP JUMP JUMPDEST PUSH1 0x0 PUSH8 0xFFFFFFFFFFFFFFFF DUP3 GT ISZERO PUSH2 0x4C67 JUMPI PUSH2 0x4C67 PUSH2 0x4DAA JUMP JUMPDEST POP PUSH1 0x5 SHL PUSH1 0x20 ADD SWAP1 JUMP JUMPDEST PUSH1 0x0 DUP3 PUSH2 0x4C8C JUMPI PUSH4 0x4E487B71 PUSH1 0xE0 SHL DUP2 MSTORE PUSH1 0x12 PUSH1 0x4 MSTORE PUSH1 0x24 DUP2 REVERT JUMPDEST POP DIV SWAP1 JUMP JUMPDEST PUSH1 0x0 PUSH3 0xFFFFFF DUP1 DUP4 AND DUP2 DUP6 AND DUP2 DUP4 DIV DUP2 GT DUP3 ISZERO ISZERO AND ISZERO PUSH2 0x4CB3 JUMPI PUSH2 0x4CB3 PUSH2 0x4D94 JUMP JUMPDEST MUL SWAP5 SWAP4 POP POP POP POP JUMP JUMPDEST PUSH1 0x0 PUSH2 0xFFFF DUP4 DUP2 AND SWAP1 DUP4 AND DUP2 DUP2 LT ISZERO PUSH2 0x4CD7 JUMPI PUSH2 0x4CD7 PUSH2 0x4D94 JUMP JUMPDEST SUB SWAP4 SWAP3 POP POP POP JUMP JUMPDEST PUSH1 0x0 DUP3 DUP3 LT ISZERO PUSH2 0x4CF1 JUMPI PUSH2 0x4CF1 PUSH2 0x4D94 JUMP JUMPDEST POP SUB SWAP1 JUMP JUMPDEST PUSH1 0x0 JUMPDEST DUP4 DUP2 LT ISZERO PUSH2 0x4D11 JUMPI DUP2 DUP2 ADD MLOAD DUP4 DUP3 ADD MSTORE PUSH1 0x20 ADD PUSH2 0x4CF9 JUMP JUMPDEST DUP4 DUP2 GT ISZERO PUSH2 0x2B14 JUMPI POP POP PUSH1 0x0 SWAP2 ADD MSTORE JUMP JUMPDEST PUSH1 0x1 DUP2 DUP2 SHR SWAP1 DUP3 AND DUP1 PUSH2 0x4D36 JUMPI PUSH1 0x7F DUP3 AND SWAP2 POP JUMPDEST PUSH1 0x20 DUP3 LT DUP2 EQ ISZERO PUSH2 0x2059 JUMPI PUSH4 0x4E487B71 PUSH1 0xE0 SHL PUSH1 0x0 MSTORE PUSH1 0x22 PUSH1 0x4 MSTORE PUSH1 0x24 PUSH1 0x0 REVERT JUMPDEST PUSH1 0x0 PUSH2 0xFFFF DUP1 DUP4 AND DUP2 DUP2 EQ ISZERO PUSH2 0x4D6F JUMPI PUSH2 0x4D6F PUSH2 0x4D94 JUMP JUMPDEST PUSH1 0x1 ADD SWAP4 SWAP3 POP POP POP JUMP JUMPDEST PUSH1 0x0 PUSH1 0x0 NOT DUP3 EQ ISZERO PUSH2 0x4D8D JUMPI PUSH2 0x4D8D PUSH2 0x4D94 JUMP JUMPDEST POP PUSH1 0x1 ADD SWAP1 JUMP JUMPDEST PUSH4 0x4E487B71 PUSH1 0xE0 SHL PUSH1 0x0 MSTORE PUSH1 0x11 PUSH1 0x4 MSTORE PUSH1 0x24 PUSH1 0x0 REVERT JUMPDEST PUSH4 0x4E487B71 PUSH1 0xE0 SHL PUSH1 0x0 MSTORE PUSH1 0x41 PUSH1 0x4 MSTORE PUSH1 0x24 PUSH1 0x0 REVERT INVALID 0xFB SMOD CREATE 0xB6 LOG4 SWAP6 STOP EXP PUSH23 0xB84FE72725AEFA5D6B75FA4C4018F95C244048D02BA134 0xE 0x4C CHAINID KECCAK256 PUSH5 0xFF3EDD0C76 CALLCODE BLOCKHASH SELFBALANCE SHL MSTORE8 0x1E PUSH27 0x1FB5D76435E9BE70181A779056FBC9416464726573733A206C6F77 0x2D PUSH13 0x6576656C2063616C6C20776974 PUSH9 0x2076616C7565206661 PUSH10 0x6C6564E3B80DF9E89DF0 0x4C RETURN 0x49 0xBC 0xE 0xD3 0x5D 0xA6 0x2B SWAP15 0xDC BLOCKHASH DUP8 ADDMOD CODECOPY CALLER DUP3 JUMPI PUSH28 0x14C234A082D6A2646970667358221220E1B0B1499852F4008BF57249 0xEB JUMP INVALID SHL 0xB5 DUP12 SIGNEXTEND 0xCE LOG0 0xFC 0xA6 PUSH2 0xCCED PUSH17 0x3C31E17B0264736F6C6343000804003360 DUP1 PUSH1 0x40 MSTORE CALLVALUE DUP1 ISZERO PUSH2 0x10 JUMPI PUSH1 0x0 DUP1 REVERT JUMPDEST POP PUSH2 0xCE9 DUP1 PUSH2 0x20 PUSH1 0x0 CODECOPY PUSH1 0x0 RETURN INVALID PUSH1 0x80 PUSH1 0x40 MSTORE PUSH1 0x4 CALLDATASIZE LT PUSH2 0x7F JUMPI PUSH1 0x0 CALLDATALOAD PUSH1 0xE0 SHR DUP1 PUSH4 0x98BA1D46 GT PUSH2 0x4E JUMPI DUP1 PUSH4 0x98BA1D46 EQ PUSH2 0x15F JUMPI DUP1 PUSH4 0xBC197C81 EQ PUSH2 0x17A JUMPI DUP1 PUSH4 0xD0E30DB0 EQ PUSH2 0x1BF JUMPI DUP1 PUSH4 0xF23A6E61 EQ PUSH2 0x1C7 JUMPI PUSH1 0x0 DUP1 REVERT JUMPDEST DUP1 PUSH4 0x1FFC9A7 EQ PUSH2 0xC0 JUMPI DUP1 PUSH4 0x1826C119 EQ PUSH2 0xF5 JUMPI DUP1 PUSH4 0x88BDE015 EQ PUSH2 0x117 JUMPI DUP1 PUSH4 0x8DA5CB5B EQ PUSH2 0x137 JUMPI PUSH1 0x0 DUP1 REVERT JUMPDEST CALLDATASIZE PUSH2 0xBB JUMPI PUSH1 0x40 MLOAD CALLVALUE DUP2 MSTORE CALLER SWAP1 PUSH32 0x66FF7C8F71CCC7C36152A41920D0D3B46EF3034359F76AA1498ED4478C204B5C SWAP1 PUSH1 0x20 ADD PUSH1 0x40 MLOAD DUP1 SWAP2 SUB SWAP1 LOG2 STOP JUMPDEST PUSH1 0x0 DUP1 REVERT JUMPDEST CALLVALUE DUP1 ISZERO PUSH2 0xCC JUMPI PUSH1 0x0 DUP1 REVERT JUMPDEST POP PUSH2 0xE0 PUSH2 0xDB CALLDATASIZE PUSH1 0x4 PUSH2 0xB35 JUMP JUMPDEST PUSH2 0x1F3 JUMP JUMPDEST PUSH1 0x40 MLOAD SWAP1 ISZERO ISZERO DUP2 MSTORE PUSH1 0x20 ADD JUMPDEST PUSH1 0x40 MLOAD DUP1 SWAP2 SUB SWAP1 RETURN JUMPDEST CALLVALUE DUP1 ISZERO PUSH2 0x101 JUMPI PUSH1 0x0 DUP1 REVERT JUMPDEST POP PUSH2 0x115 PUSH2 0x110 CALLDATASIZE PUSH1 0x4 PUSH2 0xAF2 JUMP JUMPDEST PUSH2 0x22A JUMP JUMPDEST STOP JUMPDEST CALLVALUE DUP1 ISZERO PUSH2 0x123 JUMPI PUSH1 0x0 DUP1 REVERT JUMPDEST POP PUSH2 0x115 PUSH2 0x132 CALLDATASIZE PUSH1 0x4 PUSH2 0x9FD JUMP JUMPDEST PUSH2 0x2FE JUMP JUMPDEST CALLVALUE DUP1 ISZERO PUSH2 0x143 JUMPI PUSH1 0x0 DUP1 REVERT JUMPDEST POP PUSH1 0x0 SLOAD PUSH1 0x40 MLOAD PUSH1 0x1 PUSH1 0x1 PUSH1 0xA0 SHL SUB SWAP1 SWAP2 AND DUP2 MSTORE PUSH1 0x20 ADD PUSH2 0xEC JUMP JUMPDEST CALLVALUE DUP1 ISZERO PUSH2 0x16B JUMPI PUSH1 0x0 DUP1 REVERT JUMPDEST POP PUSH1 0x40 MLOAD SELFBALANCE DUP2 MSTORE PUSH1 0x20 ADD PUSH2 0xEC JUMP JUMPDEST CALLVALUE DUP1 ISZERO PUSH2 0x186 JUMPI PUSH1 0x0 DUP1 REVERT JUMPDEST POP PUSH2 0x1A6 PUSH2 0x195 CALLDATASIZE PUSH1 0x4 PUSH2 0x8F4 JUMP JUMPDEST PUSH4 0xBC197C81 PUSH1 0xE0 SHL SWAP6 SWAP5 POP POP POP POP POP JUMP JUMPDEST PUSH1 0x40 MLOAD PUSH1 0x1 PUSH1 0x1 PUSH1 0xE0 SHL SUB NOT SWAP1 SWAP2 AND DUP2 MSTORE PUSH1 0x20 ADD PUSH2 0xEC JUMP JUMPDEST PUSH2 0x115 PUSH2 0x405 JUMP JUMPDEST CALLVALUE DUP1 ISZERO PUSH2 0x1D3 JUMPI PUSH1 0x0 DUP1 REVERT JUMPDEST POP PUSH2 0x1A6 PUSH2 0x1E2 CALLDATASIZE PUSH1 0x4 PUSH2 0x99A JUMP JUMPDEST PUSH4 0xF23A6E61 PUSH1 0xE0 SHL SWAP6 SWAP5 POP POP POP POP POP JUMP JUMPDEST PUSH1 0x0 PUSH1 0x1 PUSH1 0x1 PUSH1 0xE0 SHL SUB NOT DUP3 AND PUSH4 0x2711897 PUSH1 0xE5 SHL EQ DUP1 PUSH2 0x224 JUMPI POP PUSH4 0x1FFC9A7 PUSH1 0xE0 SHL PUSH1 0x1 PUSH1 0x1 PUSH1 0xE0 SHL SUB NOT DUP4 AND EQ JUMPDEST SWAP3 SWAP2 POP POP JUMP JUMPDEST CALLER PUSH2 0x23D PUSH1 0x0 SLOAD PUSH1 0x1 PUSH1 0x1 PUSH1 0xA0 SHL SUB AND SWAP1 JUMP JUMPDEST PUSH1 0x1 PUSH1 0x1 PUSH1 0xA0 SHL SUB AND EQ PUSH2 0x298 JUMPI PUSH1 0x40 MLOAD PUSH3 0x461BCD PUSH1 0xE5 SHL DUP2 MSTORE PUSH1 0x20 PUSH1 0x4 DUP3 ADD MSTORE PUSH1 0x1E PUSH1 0x24 DUP3 ADD MSTORE PUSH32 0x4F776E65643A2063616C6C6572206973206E6F7420746865206F776E65720000 PUSH1 0x44 DUP3 ADD MSTORE PUSH1 0x64 ADD JUMPDEST PUSH1 0x40 MLOAD DUP1 SWAP2 SUB SWAP1 REVERT JUMPDEST PUSH1 0x0 DUP3 MLOAD DUP3 PUSH2 0x2A7 SWAP2 SWAP1 PUSH2 0xC01 JUMP JUMPDEST SWAP1 POP PUSH1 0x0 JUMPDEST DUP4 MLOAD DUP2 LT ISZERO PUSH2 0x2F8 JUMPI PUSH2 0x2E6 DUP3 DUP6 DUP4 DUP2 MLOAD DUP2 LT PUSH2 0x2D9 JUMPI PUSH4 0x4E487B71 PUSH1 0xE0 SHL PUSH1 0x0 MSTORE PUSH1 0x32 PUSH1 0x4 MSTORE PUSH1 0x24 PUSH1 0x0 REVERT JUMPDEST PUSH1 0x20 MUL PUSH1 0x20 ADD ADD MLOAD PUSH2 0x43C JUMP JUMPDEST DUP1 PUSH2 0x2F0 DUP2 PUSH2 0xC4D JUMP JUMPDEST SWAP2 POP POP PUSH2 0x2AC JUMP JUMPDEST POP POP POP POP JUMP JUMPDEST CALLER PUSH2 0x311 PUSH1 0x0 SLOAD PUSH1 0x1 PUSH1 0x1 PUSH1 0xA0 SHL SUB AND SWAP1 JUMP JUMPDEST PUSH1 0x1 PUSH1 0x1 PUSH1 0xA0 SHL SUB AND EQ PUSH2 0x367 JUMPI PUSH1 0x40 MLOAD PUSH3 0x461BCD PUSH1 0xE5 SHL DUP2 MSTORE PUSH1 0x20 PUSH1 0x4 DUP3 ADD MSTORE PUSH1 0x1E PUSH1 0x24 DUP3 ADD MSTORE PUSH32 0x4F776E65643A2063616C6C6572206973206E6F7420746865206F776E65720000 PUSH1 0x44 DUP3 ADD MSTORE PUSH1 0x64 ADD PUSH2 0x28F JUMP JUMPDEST PUSH1 0x0 JUMPDEST DUP4 MLOAD DUP2 LT ISZERO PUSH2 0x2F8 JUMPI PUSH2 0x3F3 DUP5 DUP3 DUP2 MLOAD DUP2 LT PUSH2 0x396 JUMPI PUSH4 0x4E487B71 PUSH1 0xE0 SHL PUSH1 0x0 MSTORE PUSH1 0x32 PUSH1 0x4 MSTORE PUSH1 0x24 PUSH1 0x0 REVERT JUMPDEST PUSH1 0x20 MUL PUSH1 0x20 ADD ADD MLOAD DUP5 DUP4 DUP2 MLOAD DUP2 LT PUSH2 0x3BE JUMPI PUSH4 0x4E487B71 PUSH1 0xE0 SHL PUSH1 0x0 MSTORE PUSH1 0x32 PUSH1 0x4 MSTORE PUSH1 0x24 PUSH1 0x0 REVERT JUMPDEST PUSH1 0x20 MUL PUSH1 0x20 ADD ADD MLOAD DUP5 DUP5 DUP2 MLOAD DUP2 LT PUSH2 0x3E6 JUMPI PUSH4 0x4E487B71 PUSH1 0xE0 SHL PUSH1 0x0 MSTORE PUSH1 0x32 PUSH1 0x4 MSTORE PUSH1 0x24 PUSH1 0x0 REVERT JUMPDEST PUSH1 0x20 MUL PUSH1 0x20 ADD ADD MLOAD PUSH2 0x49C JUMP JUMPDEST DUP1 PUSH2 0x3FD DUP2 PUSH2 0xC4D JUMP JUMPDEST SWAP2 POP POP PUSH2 0x36A JUMP JUMPDEST PUSH1 0x40 MLOAD CALLVALUE DUP2 MSTORE CALLER SWAP1 PUSH32 0x66FF7C8F71CCC7C36152A41920D0D3B46EF3034359F76AA1498ED4478C204B5C SWAP1 PUSH1 0x20 ADD PUSH1 0x40 MLOAD DUP1 SWAP2 SUB SWAP1 LOG2 JUMP JUMPDEST DUP2 SELFBALANCE DUP2 GT ISZERO PUSH2 0x44A JUMPI PUSH1 0x0 DUP1 REVERT JUMPDEST DUP2 PUSH1 0x1 PUSH1 0x1 PUSH1 0xA0 SHL SUB AND PUSH32 0x4BD02E6E14D9C1417BA3582A754B1124AD2FBE11AD4CEE6B51D08EBADFC0792 DUP5 PUSH1 0x40 MLOAD PUSH2 0x485 SWAP2 DUP2 MSTORE PUSH1 0x20 ADD SWAP1 JUMP JUMPDEST PUSH1 0x40 MLOAD DUP1 SWAP2 SUB SWAP1 LOG2 PUSH2 0x497 DUP3 DUP5 PUSH2 0x4F0 JUMP JUMPDEST POP POP POP JUMP JUMPDEST PUSH2 0x4A7 DUP4 DUP4 DUP4 PUSH2 0x609 JUMP JUMPDEST POP DUP3 PUSH1 0x1 PUSH1 0x1 PUSH1 0xA0 SHL SUB AND PUSH32 0x4BD02E6E14D9C1417BA3582A754B1124AD2FBE11AD4CEE6B51D08EBADFC0792 DUP3 PUSH1 0x40 MLOAD PUSH2 0x4E3 SWAP2 DUP2 MSTORE PUSH1 0x20 ADD SWAP1 JUMP JUMPDEST PUSH1 0x40 MLOAD DUP1 SWAP2 SUB SWAP1 LOG2 POP POP POP JUMP JUMPDEST DUP1 SELFBALANCE LT ISZERO PUSH2 0x540 JUMPI PUSH1 0x40 MLOAD PUSH3 0x461BCD PUSH1 0xE5 SHL DUP2 MSTORE PUSH1 0x20 PUSH1 0x4 DUP3 ADD MSTORE PUSH1 0x1D PUSH1 0x24 DUP3 ADD MSTORE PUSH32 0x416464726573733A20696E73756666696369656E742062616C616E6365000000 PUSH1 0x44 DUP3 ADD MSTORE PUSH1 0x64 ADD PUSH2 0x28F JUMP JUMPDEST PUSH1 0x0 DUP3 PUSH1 0x1 PUSH1 0x1 PUSH1 0xA0 SHL SUB AND DUP3 PUSH1 0x40 MLOAD PUSH1 0x0 PUSH1 0x40 MLOAD DUP1 DUP4 SUB DUP2 DUP6 DUP8 GAS CALL SWAP3 POP POP POP RETURNDATASIZE DUP1 PUSH1 0x0 DUP2 EQ PUSH2 0x58D JUMPI PUSH1 0x40 MLOAD SWAP2 POP PUSH1 0x1F NOT PUSH1 0x3F RETURNDATASIZE ADD AND DUP3 ADD PUSH1 0x40 MSTORE RETURNDATASIZE DUP3 MSTORE RETURNDATASIZE PUSH1 0x0 PUSH1 0x20 DUP5 ADD RETURNDATACOPY PUSH2 0x592 JUMP JUMPDEST PUSH1 0x60 SWAP2 POP JUMPDEST POP POP SWAP1 POP DUP1 PUSH2 0x497 JUMPI PUSH1 0x40 MLOAD PUSH3 0x461BCD PUSH1 0xE5 SHL DUP2 MSTORE PUSH1 0x20 PUSH1 0x4 DUP3 ADD MSTORE PUSH1 0x3A PUSH1 0x24 DUP3 ADD MSTORE PUSH32 0x416464726573733A20756E61626C6520746F2073656E642076616C75652C2072 PUSH1 0x44 DUP3 ADD MSTORE PUSH32 0x6563697069656E74206D61792068617665207265766572746564000000000000 PUSH1 0x64 DUP3 ADD MSTORE PUSH1 0x84 ADD PUSH2 0x28F JUMP JUMPDEST PUSH1 0x60 PUSH2 0x62F DUP5 DUP5 DUP5 PUSH1 0x40 MLOAD DUP1 PUSH1 0x60 ADD PUSH1 0x40 MSTORE DUP1 PUSH1 0x29 DUP2 MSTORE PUSH1 0x20 ADD PUSH2 0xC8B PUSH1 0x29 SWAP2 CODECOPY PUSH2 0x639 JUMP JUMPDEST SWAP1 POP JUMPDEST SWAP4 SWAP3 POP POP POP JUMP JUMPDEST PUSH1 0x60 DUP3 SELFBALANCE LT ISZERO PUSH2 0x69A JUMPI PUSH1 0x40 MLOAD PUSH3 0x461BCD PUSH1 0xE5 SHL DUP2 MSTORE PUSH1 0x20 PUSH1 0x4 DUP3 ADD MSTORE PUSH1 0x26 PUSH1 0x24 DUP3 ADD MSTORE PUSH32 0x416464726573733A20696E73756666696369656E742062616C616E636520666F PUSH1 0x44 DUP3 ADD MSTORE PUSH6 0x1C8818D85B1B PUSH1 0xD2 SHL PUSH1 0x64 DUP3 ADD MSTORE PUSH1 0x84 ADD PUSH2 0x28F JUMP JUMPDEST DUP5 EXTCODESIZE PUSH2 0x6E8 JUMPI PUSH1 0x40 MLOAD PUSH3 0x461BCD PUSH1 0xE5 SHL DUP2 MSTORE PUSH1 0x20 PUSH1 0x4 DUP3 ADD MSTORE PUSH1 0x1D PUSH1 0x24 DUP3 ADD MSTORE PUSH32 0x416464726573733A2063616C6C20746F206E6F6E2D636F6E7472616374000000 PUSH1 0x44 DUP3 ADD MSTORE PUSH1 0x64 ADD PUSH2 0x28F JUMP JUMPDEST PUSH1 0x0 DUP1 DUP7 PUSH1 0x1 PUSH1 0x1 PUSH1 0xA0 SHL SUB AND DUP6 DUP8 PUSH1 0x40 MLOAD PUSH2 0x704 SWAP2 SWAP1 PUSH2 0xB5D JUMP JUMPDEST PUSH1 0x0 PUSH1 0x40 MLOAD DUP1 DUP4 SUB DUP2 DUP6 DUP8 GAS CALL SWAP3 POP POP POP RETURNDATASIZE DUP1 PUSH1 0x0 DUP2 EQ PUSH2 0x741 JUMPI PUSH1 0x40 MLOAD SWAP2 POP PUSH1 0x1F NOT PUSH1 0x3F RETURNDATASIZE ADD AND DUP3 ADD PUSH1 0x40 MSTORE RETURNDATASIZE DUP3 MSTORE RETURNDATASIZE PUSH1 0x0 PUSH1 0x20 DUP5 ADD RETURNDATACOPY PUSH2 0x746 JUMP JUMPDEST PUSH1 0x60 SWAP2 POP JUMPDEST POP SWAP2 POP SWAP2 POP PUSH2 0x756 DUP3 DUP3 DUP7 PUSH2 0x761 JUMP JUMPDEST SWAP8 SWAP7 POP POP POP POP POP POP POP JUMP JUMPDEST PUSH1 0x60 DUP4 ISZERO PUSH2 0x770 JUMPI POP DUP2 PUSH2 0x632 JUMP JUMPDEST DUP3 MLOAD ISZERO PUSH2 0x780 JUMPI DUP3 MLOAD DUP1 DUP5 PUSH1 0x20 ADD REVERT JUMPDEST DUP2 PUSH1 0x40 MLOAD PUSH3 0x461BCD PUSH1 0xE5 SHL DUP2 MSTORE PUSH1 0x4 ADD PUSH2 0x28F SWAP2 SWAP1 PUSH2 0xB79 JUMP JUMPDEST DUP1 CALLDATALOAD PUSH1 0x1 PUSH1 0x1 PUSH1 0xA0 SHL SUB DUP2 AND DUP2 EQ PUSH2 0x7B1 JUMPI PUSH1 0x0 DUP1 REVERT JUMPDEST SWAP2 SWAP1 POP JUMP JUMPDEST PUSH1 0x0 DUP3 PUSH1 0x1F DUP4 ADD SLT PUSH2 0x7C6 JUMPI DUP1 DUP2 REVERT JUMPDEST DUP2 CALLDATALOAD PUSH1 0x20 PUSH2 0x7DB PUSH2 0x7D6 DUP4 PUSH2 0xBDD JUMP JUMPDEST PUSH2 0xBAC JUMP JUMPDEST DUP1 DUP4 DUP3 MSTORE DUP3 DUP3 ADD SWAP2 POP DUP3 DUP7 ADD DUP8 DUP5 DUP7 PUSH1 0x5 SHL DUP10 ADD ADD GT ISZERO PUSH2 0x7FA JUMPI DUP6 DUP7 REVERT JUMPDEST DUP6 JUMPDEST DUP6 DUP2 LT ISZERO PUSH2 0x81F JUMPI PUSH2 0x80D DUP3 PUSH2 0x79A JUMP JUMPDEST DUP5 MSTORE SWAP3 DUP5 ADD SWAP3 SWAP1 DUP5 ADD SWAP1 PUSH1 0x1 ADD PUSH2 0x7FC JUMP JUMPDEST POP SWAP1 SWAP8 SWAP7 POP POP POP POP POP POP POP JUMP JUMPDEST PUSH1 0x0 DUP3 PUSH1 0x1F DUP4 ADD SLT PUSH2 0x83C JUMPI DUP1 DUP2 REVERT JUMPDEST DUP2 CALLDATALOAD PUSH1 0x20 PUSH2 0x84C PUSH2 0x7D6 DUP4 PUSH2 0xBDD JUMP JUMPDEST DUP1 DUP4 DUP3 MSTORE DUP3 DUP3 ADD SWAP2 POP DUP3 DUP7 ADD DUP8 DUP5 DUP7 PUSH1 0x5 SHL DUP10 ADD ADD GT ISZERO PUSH2 0x86B JUMPI DUP6 DUP7 REVERT JUMPDEST DUP6 JUMPDEST DUP6 DUP2 LT ISZERO PUSH2 0x81F JUMPI DUP2 CALLDATALOAD DUP5 MSTORE SWAP3 DUP5 ADD SWAP3 SWAP1 DUP5 ADD SWAP1 PUSH1 0x1 ADD PUSH2 0x86D JUMP JUMPDEST PUSH1 0x0 DUP3 PUSH1 0x1F DUP4 ADD SLT PUSH2 0x899 JUMPI DUP1 DUP2 REVERT JUMPDEST DUP2 CALLDATALOAD PUSH8 0xFFFFFFFFFFFFFFFF DUP2 GT ISZERO PUSH2 0x8B3 JUMPI PUSH2 0x8B3 PUSH2 0xC74 JUMP JUMPDEST PUSH2 0x8C6 PUSH1 0x1F DUP3 ADD PUSH1 0x1F NOT AND PUSH1 0x20 ADD PUSH2 0xBAC JUMP JUMPDEST DUP2 DUP2 MSTORE DUP5 PUSH1 0x20 DUP4 DUP7 ADD ADD GT ISZERO PUSH2 0x8DA JUMPI DUP3 DUP4 REVERT JUMPDEST DUP2 PUSH1 0x20 DUP6 ADD PUSH1 0x20 DUP4 ADD CALLDATACOPY SWAP1 DUP2 ADD PUSH1 0x20 ADD SWAP2 SWAP1 SWAP2 MSTORE SWAP3 SWAP2 POP POP JUMP JUMPDEST PUSH1 0x0 DUP1 PUSH1 0x0 DUP1 PUSH1 0x0 PUSH1 0xA0 DUP7 DUP9 SUB SLT ISZERO PUSH2 0x90B JUMPI DUP1 DUP2 REVERT JUMPDEST PUSH2 0x914 DUP7 PUSH2 0x79A JUMP JUMPDEST SWAP5 POP PUSH2 0x922 PUSH1 0x20 DUP8 ADD PUSH2 0x79A JUMP JUMPDEST SWAP4 POP PUSH1 0x40 DUP7 ADD CALLDATALOAD PUSH8 0xFFFFFFFFFFFFFFFF DUP1 DUP3 GT ISZERO PUSH2 0x93E JUMPI DUP3 DUP4 REVERT JUMPDEST PUSH2 0x94A DUP10 DUP4 DUP11 ADD PUSH2 0x82C JUMP JUMPDEST SWAP5 POP PUSH1 0x60 DUP9 ADD CALLDATALOAD SWAP2 POP DUP1 DUP3 GT ISZERO PUSH2 0x95F JUMPI DUP3 DUP4 REVERT JUMPDEST PUSH2 0x96B DUP10 DUP4 DUP11 ADD PUSH2 0x82C JUMP JUMPDEST SWAP4 POP PUSH1 0x80 DUP9 ADD CALLDATALOAD SWAP2 POP DUP1 DUP3 GT ISZERO PUSH2 0x980 JUMPI DUP3 DUP4 REVERT JUMPDEST POP PUSH2 0x98D DUP9 DUP3 DUP10 ADD PUSH2 0x889 JUMP JUMPDEST SWAP2 POP POP SWAP3 SWAP6 POP SWAP3 SWAP6 SWAP1 SWAP4 POP JUMP JUMPDEST PUSH1 0x0 DUP1 PUSH1 0x0 DUP1 PUSH1 0x0 PUSH1 0xA0 DUP7 DUP9 SUB SLT ISZERO PUSH2 0x9B1 JUMPI DUP1 DUP2 REVERT JUMPDEST PUSH2 0x9BA DUP7 PUSH2 0x79A JUMP JUMPDEST SWAP5 POP PUSH2 0x9C8 PUSH1 0x20 DUP8 ADD PUSH2 0x79A JUMP JUMPDEST SWAP4 POP PUSH1 0x40 DUP7 ADD CALLDATALOAD SWAP3 POP PUSH1 0x60 DUP7 ADD CALLDATALOAD SWAP2 POP PUSH1 0x80 DUP7 ADD CALLDATALOAD PUSH8 0xFFFFFFFFFFFFFFFF DUP2 GT ISZERO PUSH2 0x9F1 JUMPI DUP2 DUP3 REVERT JUMPDEST PUSH2 0x98D DUP9 DUP3 DUP10 ADD PUSH2 0x889 JUMP JUMPDEST PUSH1 0x0 DUP1 PUSH1 0x0 PUSH1 0x60 DUP5 DUP7 SUB SLT ISZERO PUSH2 0xA11 JUMPI DUP3 DUP4 REVERT JUMPDEST DUP4 CALLDATALOAD PUSH8 0xFFFFFFFFFFFFFFFF DUP1 DUP3 GT ISZERO PUSH2 0xA28 JUMPI DUP5 DUP6 REVERT JUMPDEST PUSH2 0xA34 DUP8 DUP4 DUP9 ADD PUSH2 0x7B6 JUMP JUMPDEST SWAP5 POP PUSH1 0x20 SWAP2 POP DUP2 DUP7 ADD CALLDATALOAD DUP2 DUP2 GT ISZERO PUSH2 0xA4A JUMPI DUP5 DUP6 REVERT JUMPDEST DUP7 ADD PUSH1 0x1F DUP2 ADD DUP9 SGT PUSH2 0xA5A JUMPI DUP5 DUP6 REVERT JUMPDEST DUP1 CALLDATALOAD PUSH2 0xA68 PUSH2 0x7D6 DUP3 PUSH2 0xBDD JUMP JUMPDEST DUP1 DUP3 DUP3 MSTORE DUP6 DUP3 ADD SWAP2 POP DUP6 DUP5 ADD DUP12 DUP8 DUP6 PUSH1 0x5 SHL DUP8 ADD ADD GT ISZERO PUSH2 0xA87 JUMPI DUP9 DUP10 REVERT JUMPDEST DUP9 JUMPDEST DUP5 DUP2 LT ISZERO PUSH2 0xAC0 JUMPI DUP2 CALLDATALOAD DUP8 DUP2 GT ISZERO PUSH2 0xA9F JUMPI DUP11 DUP12 REVERT JUMPDEST PUSH2 0xAAD DUP15 DUP11 DUP4 DUP11 ADD ADD PUSH2 0x889 JUMP JUMPDEST DUP6 MSTORE POP SWAP3 DUP8 ADD SWAP3 SWAP1 DUP8 ADD SWAP1 PUSH1 0x1 ADD PUSH2 0xA89 JUMP JUMPDEST POP SWAP1 SWAP8 POP POP POP POP PUSH1 0x40 DUP8 ADD CALLDATALOAD SWAP3 POP POP DUP1 DUP3 GT ISZERO PUSH2 0xADB JUMPI DUP3 DUP4 REVERT JUMPDEST POP PUSH2 0xAE8 DUP7 DUP3 DUP8 ADD PUSH2 0x82C JUMP JUMPDEST SWAP2 POP POP SWAP3 POP SWAP3 POP SWAP3 JUMP JUMPDEST PUSH1 0x0 DUP1 PUSH1 0x40 DUP4 DUP6 SUB SLT ISZERO PUSH2 0xB04 JUMPI DUP2 DUP3 REVERT JUMPDEST DUP3 CALLDATALOAD PUSH8 0xFFFFFFFFFFFFFFFF DUP2 GT ISZERO PUSH2 0xB1A JUMPI DUP3 DUP4 REVERT JUMPDEST PUSH2 0xB26 DUP6 DUP3 DUP7 ADD PUSH2 0x7B6 JUMP JUMPDEST SWAP6 PUSH1 0x20 SWAP5 SWAP1 SWAP5 ADD CALLDATALOAD SWAP5 POP POP POP POP JUMP JUMPDEST PUSH1 0x0 PUSH1 0x20 DUP3 DUP5 SUB SLT ISZERO PUSH2 0xB46 JUMPI DUP1 DUP2 REVERT JUMPDEST DUP2 CALLDATALOAD PUSH1 0x1 PUSH1 0x1 PUSH1 0xE0 SHL SUB NOT DUP2 AND DUP2 EQ PUSH2 0x632 JUMPI DUP2 DUP3 REVERT JUMPDEST PUSH1 0x0 DUP3 MLOAD PUSH2 0xB6F DUP2 DUP5 PUSH1 0x20 DUP8 ADD PUSH2 0xC21 JUMP JUMPDEST SWAP2 SWAP1 SWAP2 ADD SWAP3 SWAP2 POP POP JUMP JUMPDEST PUSH1 0x20 DUP2 MSTORE PUSH1 0x0 DUP3 MLOAD DUP1 PUSH1 0x20 DUP5 ADD MSTORE PUSH2 0xB98 DUP2 PUSH1 0x40 DUP6 ADD PUSH1 0x20 DUP8 ADD PUSH2 0xC21 JUMP JUMPDEST PUSH1 0x1F ADD PUSH1 0x1F NOT AND SWAP2 SWAP1 SWAP2 ADD PUSH1 0x40 ADD SWAP3 SWAP2 POP POP JUMP JUMPDEST PUSH1 0x40 MLOAD PUSH1 0x1F DUP3 ADD PUSH1 0x1F NOT AND DUP2 ADD PUSH8 0xFFFFFFFFFFFFFFFF DUP2 GT DUP3 DUP3 LT OR ISZERO PUSH2 0xBD5 JUMPI PUSH2 0xBD5 PUSH2 0xC74 JUMP JUMPDEST PUSH1 0x40 MSTORE SWAP2 SWAP1 POP JUMP JUMPDEST PUSH1 0x0 PUSH8 0xFFFFFFFFFFFFFFFF DUP3 GT ISZERO PUSH2 0xBF7 JUMPI PUSH2 0xBF7 PUSH2 0xC74 JUMP JUMPDEST POP PUSH1 0x5 SHL PUSH1 0x20 ADD SWAP1 JUMP JUMPDEST PUSH1 0x0 DUP3 PUSH2 0xC1C JUMPI PUSH4 0x4E487B71 PUSH1 0xE0 SHL DUP2 MSTORE PUSH1 0x12 PUSH1 0x4 MSTORE PUSH1 0x24 DUP2 REVERT JUMPDEST POP DIV SWAP1 JUMP JUMPDEST PUSH1 0x0 JUMPDEST DUP4 DUP2 LT ISZERO PUSH2 0xC3C JUMPI DUP2 DUP2 ADD MLOAD DUP4 DUP3 ADD MSTORE PUSH1 0x20 ADD PUSH2 0xC24 JUMP JUMPDEST DUP4 DUP2 GT ISZERO PUSH2 0x2F8 JUMPI POP POP PUSH1 0x0 SWAP2 ADD MSTORE JUMP JUMPDEST PUSH1 0x0 PUSH1 0x0 NOT DUP3 EQ ISZERO PUSH2 0xC6D JUMPI PUSH4 0x4E487B71 PUSH1 0xE0 SHL DUP2 MSTORE PUSH1 0x11 PUSH1 0x4 MSTORE PUSH1 0x24 DUP2 REVERT JUMPDEST POP PUSH1 0x1 ADD SWAP1 JUMP JUMPDEST PUSH4 0x4E487B71 PUSH1 0xE0 SHL PUSH1 0x0 MSTORE PUSH1 0x41 PUSH1 0x4 MSTORE PUSH1 0x24 PUSH1 0x0 REVERT INVALID COINBASE PUSH5 0x6472657373 GASPRICE KECCAK256 PUSH13 0x6F772D6C6576656C2063616C6C KECCAK256 PUSH24 0x6974682076616C7565206661696C6564A264697066735822 SLT KECCAK256 ISZERO PUSH20 0x4BCE76F35CF54B3FF77DAC0ABE39D5AB25B466DE SWAP1 0xB0 KECCAK256 0xF6 DUP16 0xC6 0xE6 CODECOPY ADD CALLDATASIZE PUSH5 0x736F6C6343 STOP ADDMOD DIV STOP CALLER "
		},
		"gasEstimates": {
			"creation": {
				"codeDepositCost": "4019000",
				"executionCost": "infinite",
				"totalCost": "infinite"
			},
			"external": {
				"check_balance()": "290",
				"check_members()": "infinite",
				"create_department_dproposal(uint256,bytes,uint8,uint256)": "infinite",
				"create_department_tproposal(uint256,bytes,uint8,address[],bytes[],uint256[])": "infinite",
				"create_governance_proposal(bytes,uint8)": "infinite",
				"create_management_proposal(bytes,uint8,address[],bool,uint8[])": "infinite",
				"create_move_proposal(bytes,uint8,address,uint8,uint8)": "infinite",
				"create_transaction_proposal(bytes,uint8,address[],bytes[],uint256[])": "infinite",
				"department_vote(uint256,uint16)": "infinite",
				"deposit()": "1667",
				"execute(uint16)": "infinite",
				"execute_department_proposal(uint256,uint16)": "infinite",
				"get_department_info(uint256)": "infinite",
				"get_department_proposal(uint256,uint16)": "infinite",
				"get_proposal(uint16)": "infinite",
				"is_department_member(uint256,address)": "infinite",
				"onERC1155BatchReceived(address,address,uint256[],uint256[],bytes)": "infinite",
				"onERC1155Received(address,address,uint256,uint256,bytes)": "infinite",
				"remove_department_proposal(uint256,uint16)": "infinite",
				"remove_proposal(uint16)": "infinite",
				"supportsInterface(bytes4)": "450",
				"vote(uint16)": "infinite"
			}
		},
		"methodIdentifiers": {
			"check_balance()": "98ba1d46",
			"check_members()": "3e08602c",
			"create_department_dproposal(uint256,bytes,uint8,uint256)": "5b4693b9",
			"create_department_tproposal(uint256,bytes,uint8,address[],bytes[],uint256[])": "23850315",
			"create_governance_proposal(bytes,uint8)": "1279a374",
			"create_management_proposal(bytes,uint8,address[],bool,uint8[])": "48eccc2c",
			"create_move_proposal(bytes,uint8,address,uint8,uint8)": "c696709c",
			"create_transaction_proposal(bytes,uint8,address[],bytes[],uint256[])": "49041d3e",
			"department_vote(uint256,uint16)": "f492935b",
			"deposit()": "d0e30db0",
			"execute(uint16)": "edbc28df",
			"execute_department_proposal(uint256,uint16)": "ba87146a",
			"get_department_info(uint256)": "269d6e71",
			"get_department_proposal(uint256,uint16)": "f5d77adf",
			"get_proposal(uint16)": "267044e5",
			"is_department_member(uint256,address)": "9a7eabc6",
			"onERC1155BatchReceived(address,address,uint256[],uint256[],bytes)": "bc197c81",
			"onERC1155Received(address,address,uint256,uint256,bytes)": "f23a6e61",
			"remove_department_proposal(uint256,uint16)": "caa39817",
			"remove_proposal(uint16)": "d537b060",
			"supportsInterface(bytes4)": "01ffc9a7",
			"vote(uint16)": "ddb6e116"
		}
	},
	"abi": [
		{
			"inputs": [],
			"stateMutability": "nonpayable",
			"type": "constructor"
		},
		{
			"anonymous": false,
			"inputs": [
				{
					"indexed": true,
					"internalType": "address",
					"name": "from",
					"type": "address"
				},
				{
					"indexed": false,
					"internalType": "uint256",
					"name": "value",
					"type": "uint256"
				}
			],
			"name": "EthDeposited",
			"type": "event"
		},
		{
			"anonymous": false,
			"inputs": [
				{
					"indexed": true,
					"internalType": "address",
					"name": "to",
					"type": "address"
				},
				{
					"indexed": false,
					"internalType": "uint256",
					"name": "value",
					"type": "uint256"
				}
			],
			"name": "EthTransfered",
			"type": "event"
		},
		{
			"anonymous": false,
			"inputs": [
				{
					"indexed": true,
					"internalType": "bytes",
					"name": "name",
					"type": "bytes"
				},
				{
					"indexed": true,
					"internalType": "uint16",
					"name": "id",
					"type": "uint16"
				},
				{
					"indexed": false,
					"internalType": "uint8",
					"name": "lifespan",
					"type": "uint8"
				},
				{
					"indexed": false,
					"internalType": "uint256",
					"name": "timestamp",
					"type": "uint256"
				}
			],
			"name": "ProposalCreated",
			"type": "event"
		},
		{
			"anonymous": false,
			"inputs": [
				{
					"indexed": true,
					"internalType": "bytes",
					"name": "name",
					"type": "bytes"
				},
				{
					"indexed": false,
					"internalType": "uint16",
					"name": "id",
					"type": "uint16"
				}
			],
			"name": "ProposalExecuted",
			"type": "event"
		},
		{
			"anonymous": false,
			"inputs": [
				{
					"indexed": true,
					"internalType": "bytes",
					"name": "name",
					"type": "bytes"
				},
				{
					"indexed": true,
					"internalType": "uint16",
					"name": "id",
					"type": "uint16"
				}
			],
			"name": "ProposalRemoved",
			"type": "event"
		},
		{
			"anonymous": false,
			"inputs": [
				{
					"indexed": true,
					"internalType": "bytes",
					"name": "name",
					"type": "bytes"
				},
				{
					"indexed": true,
					"internalType": "uint16",
					"name": "id",
					"type": "uint16"
				},
				{
					"indexed": true,
					"internalType": "address",
					"name": "voter",
					"type": "address"
				}
			],
			"name": "VoteCast",
			"type": "event"
		},
		{
			"inputs": [],
			"name": "check_balance",
			"outputs": [
				{
					"internalType": "uint256",
					"name": "",
					"type": "uint256"
				}
			],
			"stateMutability": "view",
			"type": "function"
		},
		{
			"inputs": [],
			"name": "check_members",
			"outputs": [
				{
					"internalType": "bytes32[]",
					"name": "",
					"type": "bytes32[]"
				}
			],
			"stateMutability": "view",
			"type": "function"
		},
		{
			"inputs": [
				{
					"internalType": "uint256",
					"name": "d_id",
					"type": "uint256"
				},
				{
					"internalType": "bytes",
					"name": "name",
					"type": "bytes"
				},
				{
					"internalType": "uint8",
					"name": "lifespan",
					"type": "uint8"
				},
				{
					"internalType": "uint256",
					"name": "amount",
					"type": "uint256"
				}
			],
			"name": "create_department_dproposal",
			"outputs": [],
			"stateMutability": "nonpayable",
			"type": "function"
		},
		{
			"inputs": [
				{
					"internalType": "uint256",
					"name": "d_id",
					"type": "uint256"
				},
				{
					"internalType": "bytes",
					"name": "name",
					"type": "bytes"
				},
				{
					"internalType": "uint8",
					"name": "lifespan",
					"type": "uint8"
				},
				{
					"internalType": "address[]",
					"name": "targets",
					"type": "address[]"
				},
				{
					"internalType": "bytes[]",
					"name": "datas",
					"type": "bytes[]"
				},
				{
					"internalType": "uint256[]",
					"name": "values",
					"type": "uint256[]"
				}
			],
			"name": "create_department_tproposal",
			"outputs": [],
			"stateMutability": "nonpayable",
			"type": "function"
		},
		{
			"inputs": [
				{
					"internalType": "bytes",
					"name": "name",
					"type": "bytes"
				},
				{
					"internalType": "uint8",
					"name": "lifespan",
					"type": "uint8"
				}
			],
			"name": "create_governance_proposal",
			"outputs": [],
			"stateMutability": "nonpayable",
			"type": "function"
		},
		{
			"inputs": [
				{
					"internalType": "bytes",
					"name": "name",
					"type": "bytes"
				},
				{
					"internalType": "uint8",
					"name": "lifespan",
					"type": "uint8"
				},
				{
					"internalType": "address[]",
					"name": "targets",
					"type": "address[]"
				},
				{
					"internalType": "bool",
					"name": "adding",
					"type": "bool"
				},
				{
					"internalType": "uint8[]",
					"name": "d_ids",
					"type": "uint8[]"
				}
			],
			"name": "create_management_proposal",
			"outputs": [],
			"stateMutability": "nonpayable",
			"type": "function"
		},
		{
			"inputs": [
				{
					"internalType": "bytes",
					"name": "name",
					"type": "bytes"
				},
				{
					"internalType": "uint8",
					"name": "lifespan",
					"type": "uint8"
				},
				{
					"internalType": "address",
					"name": "target",
					"type": "address"
				},
				{
					"internalType": "uint8",
					"name": "old_d_id",
					"type": "uint8"
				},
				{
					"internalType": "uint8",
					"name": "new_d_id",
					"type": "uint8"
				}
			],
			"name": "create_move_proposal",
			"outputs": [],
			"stateMutability": "nonpayable",
			"type": "function"
		},
		{
			"inputs": [
				{
					"internalType": "bytes",
					"name": "name",
					"type": "bytes"
				},
				{
					"internalType": "uint8",
					"name": "lifespan",
					"type": "uint8"
				},
				{
					"internalType": "address[]",
					"name": "targets",
					"type": "address[]"
				},
				{
					"internalType": "bytes[]",
					"name": "datas",
					"type": "bytes[]"
				},
				{
					"internalType": "uint256[]",
					"name": "values",
					"type": "uint256[]"
				}
			],
			"name": "create_transaction_proposal",
			"outputs": [],
			"stateMutability": "nonpayable",
			"type": "function"
		},
		{
			"inputs": [
				{
					"internalType": "uint256",
					"name": "d_id",
					"type": "uint256"
				},
				{
					"internalType": "uint16",
					"name": "p_id",
					"type": "uint16"
				}
			],
			"name": "department_vote",
			"outputs": [],
			"stateMutability": "nonpayable",
			"type": "function"
		},
		{
			"inputs": [],
			"name": "deposit",
			"outputs": [],
			"stateMutability": "payable",
			"type": "function"
		},
		{
			"inputs": [
				{
					"internalType": "uint16",
					"name": "id",
					"type": "uint16"
				}
			],
			"name": "execute",
			"outputs": [],
			"stateMutability": "nonpayable",
			"type": "function"
		},
		{
			"inputs": [
				{
					"internalType": "uint256",
					"name": "d_id",
					"type": "uint256"
				},
				{
					"internalType": "uint16",
					"name": "p_id",
					"type": "uint16"
				}
			],
			"name": "execute_department_proposal",
			"outputs": [],
			"stateMutability": "nonpayable",
			"type": "function"
		},
		{
			"inputs": [
				{
					"internalType": "uint256",
					"name": "d_id",
					"type": "uint256"
				}
			],
			"name": "get_department_info",
			"outputs": [
				{
					"internalType": "bytes32",
					"name": "",
					"type": "bytes32"
				},
				{
					"internalType": "address[]",
					"name": "",
					"type": "address[]"
				}
			],
			"stateMutability": "view",
			"type": "function"
		},
		{
			"inputs": [
				{
					"internalType": "uint256",
					"name": "d_id",
					"type": "uint256"
				},
				{
					"internalType": "uint16",
					"name": "p_id",
					"type": "uint16"
				}
			],
			"name": "get_department_proposal",
			"outputs": [
				{
					"components": [
						{
							"components": [
								{
									"internalType": "bytes",
									"name": "name",
									"type": "bytes"
								},
								{
									"internalType": "uint8",
									"name": "lifespan",
									"type": "uint8"
								},
								{
									"internalType": "uint16",
									"name": "id",
									"type": "uint16"
								},
								{
									"internalType": "uint256",
									"name": "timestamp",
									"type": "uint256"
								},
								{
									"internalType": "uint256",
									"name": "votes",
									"type": "uint256"
								},
								{
									"internalType": "address[]",
									"name": "voters",
									"type": "address[]"
								}
							],
							"internalType": "struct ProposalManager.PBase",
							"name": "base",
							"type": "tuple"
						},
						{
							"internalType": "address[]",
							"name": "targets",
							"type": "address[]"
						},
						{
							"internalType": "bytes[]",
							"name": "datas",
							"type": "bytes[]"
						},
						{
							"internalType": "uint256[]",
							"name": "values",
							"type": "uint256[]"
						}
					],
					"internalType": "struct ProposalManager.MultiTransactionProposal",
					"name": "",
					"type": "tuple"
				},
				{
					"components": [
						{
							"components": [
								{
									"internalType": "bytes",
									"name": "name",
									"type": "bytes"
								},
								{
									"internalType": "uint8",
									"name": "lifespan",
									"type": "uint8"
								},
								{
									"internalType": "uint16",
									"name": "id",
									"type": "uint16"
								},
								{
									"internalType": "uint256",
									"name": "timestamp",
									"type": "uint256"
								},
								{
									"internalType": "uint256",
									"name": "votes",
									"type": "uint256"
								},
								{
									"internalType": "address[]",
									"name": "voters",
									"type": "address[]"
								}
							],
							"internalType": "struct ProposalManager.PBase",
							"name": "base",
							"type": "tuple"
						},
						{
							"internalType": "uint256",
							"name": "amount",
							"type": "uint256"
						}
					],
					"internalType": "struct ProposalManager.DistributionProposal",
					"name": "",
					"type": "tuple"
				}
			],
			"stateMutability": "view",
			"type": "function"
		},
		{
			"inputs": [
				{
					"internalType": "uint16",
					"name": "id",
					"type": "uint16"
				}
			],
			"name": "get_proposal",
			"outputs": [
				{
					"components": [
						{
							"components": [
								{
									"internalType": "bytes",
									"name": "name",
									"type": "bytes"
								},
								{
									"internalType": "uint8",
									"name": "lifespan",
									"type": "uint8"
								},
								{
									"internalType": "uint16",
									"name": "id",
									"type": "uint16"
								},
								{
									"internalType": "uint256",
									"name": "timestamp",
									"type": "uint256"
								},
								{
									"internalType": "uint256",
									"name": "votes",
									"type": "uint256"
								},
								{
									"internalType": "address[]",
									"name": "voters",
									"type": "address[]"
								}
							],
							"internalType": "struct ProposalManager.PBase",
							"name": "base",
							"type": "tuple"
						},
						{
							"internalType": "address[]",
							"name": "targets",
							"type": "address[]"
						},
						{
							"internalType": "bytes[]",
							"name": "datas",
							"type": "bytes[]"
						},
						{
							"internalType": "uint256[]",
							"name": "values",
							"type": "uint256[]"
						}
					],
					"internalType": "struct ProposalManager.MultiTransactionProposal",
					"name": "",
					"type": "tuple"
				},
				{
					"components": [
						{
							"internalType": "bytes",
							"name": "name",
							"type": "bytes"
						},
						{
							"internalType": "uint8",
							"name": "lifespan",
							"type": "uint8"
						},
						{
							"internalType": "uint16",
							"name": "id",
							"type": "uint16"
						},
						{
							"internalType": "uint256",
							"name": "timestamp",
							"type": "uint256"
						},
						{
							"internalType": "uint256",
							"name": "votes",
							"type": "uint256"
						},
						{
							"internalType": "address[]",
							"name": "voters",
							"type": "address[]"
						}
					],
					"internalType": "struct ProposalManager.PBase",
					"name": "",
					"type": "tuple"
				},
				{
					"components": [
						{
							"components": [
								{
									"internalType": "bytes",
									"name": "name",
									"type": "bytes"
								},
								{
									"internalType": "uint8",
									"name": "lifespan",
									"type": "uint8"
								},
								{
									"internalType": "uint16",
									"name": "id",
									"type": "uint16"
								},
								{
									"internalType": "uint256",
									"name": "timestamp",
									"type": "uint256"
								},
								{
									"internalType": "uint256",
									"name": "votes",
									"type": "uint256"
								},
								{
									"internalType": "address[]",
									"name": "voters",
									"type": "address[]"
								}
							],
							"internalType": "struct ProposalManager.PBase",
							"name": "base",
							"type": "tuple"
						},
						{
							"internalType": "address[]",
							"name": "targets",
							"type": "address[]"
						},
						{
							"internalType": "bool",
							"name": "adding",
							"type": "bool"
						},
						{
							"internalType": "uint8[]",
							"name": "department_ids",
							"type": "uint8[]"
						}
					],
					"internalType": "struct ProposalManager.ManagementProposal",
					"name": "",
					"type": "tuple"
				},
				{
					"components": [
						{
							"components": [
								{
									"internalType": "bytes",
									"name": "name",
									"type": "bytes"
								},
								{
									"internalType": "uint8",
									"name": "lifespan",
									"type": "uint8"
								},
								{
									"internalType": "uint16",
									"name": "id",
									"type": "uint16"
								},
								{
									"internalType": "uint256",
									"name": "timestamp",
									"type": "uint256"
								},
								{
									"internalType": "uint256",
									"name": "votes",
									"type": "uint256"
								},
								{
									"internalType": "address[]",
									"name": "voters",
									"type": "address[]"
								}
							],
							"internalType": "struct ProposalManager.PBase",
							"name": "base",
							"type": "tuple"
						},
						{
							"internalType": "address",
							"name": "target",
							"type": "address"
						},
						{
							"internalType": "uint8",
							"name": "old_department_id",
							"type": "uint8"
						},
						{
							"internalType": "uint8",
							"name": "new_department_id",
							"type": "uint8"
						}
					],
					"internalType": "struct ProposalManager.MoveProposal",
					"name": "",
					"type": "tuple"
				}
			],
			"stateMutability": "view",
			"type": "function"
		},
		{
			"inputs": [
				{
					"internalType": "uint256",
					"name": "d_id",
					"type": "uint256"
				},
				{
					"internalType": "address",
					"name": "m",
					"type": "address"
				}
			],
			"name": "is_department_member",
			"outputs": [
				{
					"internalType": "bool",
					"name": "",
					"type": "bool"
				}
			],
			"stateMutability": "view",
			"type": "function"
		},
		{
			"inputs": [
				{
					"internalType": "address",
					"name": "",
					"type": "address"
				},
				{
					"internalType": "address",
					"name": "",
					"type": "address"
				},
				{
					"internalType": "uint256[]",
					"name": "",
					"type": "uint256[]"
				},
				{
					"internalType": "uint256[]",
					"name": "",
					"type": "uint256[]"
				},
				{
					"internalType": "bytes",
					"name": "",
					"type": "bytes"
				}
			],
			"name": "onERC1155BatchReceived",
			"outputs": [
				{
					"internalType": "bytes4",
					"name": "",
					"type": "bytes4"
				}
			],
			"stateMutability": "nonpayable",
			"type": "function"
		},
		{
			"inputs": [
				{
					"internalType": "address",
					"name": "",
					"type": "address"
				},
				{
					"internalType": "address",
					"name": "",
					"type": "address"
				},
				{
					"internalType": "uint256",
					"name": "",
					"type": "uint256"
				},
				{
					"internalType": "uint256",
					"name": "",
					"type": "uint256"
				},
				{
					"internalType": "bytes",
					"name": "",
					"type": "bytes"
				}
			],
			"name": "onERC1155Received",
			"outputs": [
				{
					"internalType": "bytes4",
					"name": "",
					"type": "bytes4"
				}
			],
			"stateMutability": "nonpayable",
			"type": "function"
		},
		{
			"inputs": [
				{
					"internalType": "uint256",
					"name": "d_id",
					"type": "uint256"
				},
				{
					"internalType": "uint16",
					"name": "p_id",
					"type": "uint16"
				}
			],
			"name": "remove_department_proposal",
			"outputs": [],
			"stateMutability": "nonpayable",
			"type": "function"
		},
		{
			"inputs": [
				{
					"internalType": "uint16",
					"name": "id",
					"type": "uint16"
				}
			],
			"name": "remove_proposal",
			"outputs": [
				{
					"internalType": "bool",
					"name": "",
					"type": "bool"
				}
			],
			"stateMutability": "nonpayable",
			"type": "function"
		},
		{
			"inputs": [
				{
					"internalType": "bytes4",
					"name": "interfaceId",
					"type": "bytes4"
				}
			],
			"name": "supportsInterface",
			"outputs": [
				{
					"internalType": "bool",
					"name": "",
					"type": "bool"
				}
			],
			"stateMutability": "view",
			"type": "function"
		},
		{
			"inputs": [
				{
					"internalType": "uint16",
					"name": "id",
					"type": "uint16"
				}
			],
			"name": "vote",
			"outputs": [],
			"stateMutability": "nonpayable",
			"type": "function"
		},
		{
			"stateMutability": "payable",
			"type": "receive"
		}
	]
}