{
	"data": {
		"bytecode": {
			"linkReferences": {},
			"object": "60806040526000805461ffff191660011790553480156200001f57600080fd5b507f5265736561726368202620446576656c6f706d656e74000000000000000000006007556646696e616e636560c81b600e5564131959d85b60da1b6015556e0a0eac4d8d2c6409eeae8e4cac2c6d608b1b601c5560005b600481101562000110576040516200008f90620001bf565b604051809103906000f080158015620000ac573d6000803e3d6000fd5b5060078260048110620000cf57634e487b7160e01b600052603260045260246000fd5b6007020160030160006101000a8154816001600160a01b0302191690836001600160a01b0316021790555080806200010790620001cd565b91505062000077565b506200012c3360016200014d60201b62002b071790919060201c565b50620001466008336200014d602090811b62002b0717901c565b50620001f5565b600062000164836001600160a01b0384166200016d565b90505b92915050565b6000818152600183016020526040812054620001b65750815460018181018455600084815260208082209093018490558454848252828601909352604090209190915562000167565b50600062000167565b610d09806200500383390190565b6000600019821415620001ee57634e487b7160e01b81526011600452602481fd5b5060010190565b614dfe80620002056000396000f3fe60806040526004361061012e5760003560e01c8063ba87146a116100ab578063d537b0601161006f578063d537b0601461038e578063ddb6e116146103ae578063edbc28df146103ce578063f23a6e61146103ee578063f492935b1461041a578063f5d77adf1461043a57600080fd5b8063ba87146a146102e1578063bc197c8114610301578063c696709c14610346578063caa3981714610366578063d0e30db01461038657600080fd5b80633e08602c116100f25780633e08602c1461024457806348eccc2c1461026657806349041d3e146102865780635b4693b9146102a657806398ba1d46146102c657600080fd5b806301ffc9a71461016f5780631279a374146101a457806323850315146101c6578063267044e5146101e6578063269d6e711461021657600080fd5b3661016a5760405134815233907f66ff7c8f71ccc7c36152a41920d0d3b46ef3034359f76aa1498ed4478c204b5c9060200160405180910390a2005b600080fd5b34801561017b57600080fd5b5061018f61018a366004614333565b610468565b60405190151581526020015b60405180910390f35b3480156101b057600080fd5b506101c46101bf36600461435b565b61049f565b005b3480156101d257600080fd5b506101c46101e1366004614610565b6105f9565b3480156101f257600080fd5b506102066102013660046145de565b61068a565b60405161019b9493929190614add565b34801561022257600080fd5b506102366102313660046145f8565b610eb3565b60405161019b929190614a6b565b34801561025057600080fd5b50610259610fa6565b60405161019b9190614a27565b34801561027257600080fd5b506101c46102813660046144d1565b610ffd565b34801561029257600080fd5b506101c46102a1366004614425565b6111ca565b3480156102b257600080fd5b506101c46102c13660046146d1565b61130c565b3480156102d257600080fd5b5060405147815260200161019b565b3480156102ed57600080fd5b506101c46102fc36600461472e565b611382565b34801561030d57600080fd5b5061032d61031c36600461422a565b63bc197c8160e01b95945050505050565b6040516001600160e01b0319909116815260200161019b565b34801561035257600080fd5b506101c46103613660046143a7565b61191d565b34801561037257600080fd5b506101c461038136600461472e565b611a83565b6101c4611af4565b34801561039a57600080fd5b5061018f6103a93660046145de565b611b2b565b3480156103ba57600080fd5b506101c46103c93660046145de565b611ff7565b3480156103da57600080fd5b506101c46103e93660046145de565b6124bf565b3480156103fa57600080fd5b5061032d6104093660046142d0565b63f23a6e6160e01b95945050505050565b34801561042657600080fd5b506101c461043536600461472e565b612a40565b34801561044657600080fd5b5061045a61045536600461472e565b612ab2565b60405161019b929190614a97565b60006001600160e01b03198216630271189760e51b148061049957506301ffc9a760e01b6001600160e01b03198316145b92915050565b336104ab600182612b23565b6104b457600080fd5b6040805160c08101825284815260ff84166020808301919091526000805461ffff16838501819052426060858101919091526080850183905260a085018190529082526004835293902082518051919261051392849290910190613c6e565b50602082810151600183018054604086015161ffff166101000262ffffff1990911660ff90931692909217919091179055606083015160028301556080830151600383015560a0830151805161056f9260048501920190613cf2565b50506000805461ffff1691508061058583614cd6565b82546101009290920a61ffff8181021990931691831602179091556000546105b1925060019116614c3b565b61ffff16846040516105c3919061494e565b6040805191829003822060ff8716835242602084015291600080516020614d40833981519152910160405180910390a350505050565b3386610635826007836004811061062057634e487b7160e01b600052603260045260246000fd5b60070201600101612b2390919063ffffffff16565b61063e57600080fd5b610680878787878760078e6004811061066757634e487b7160e01b600052603260045260246000fd5b60070201600401612b459095949392919063ffffffff16565b5050505050505050565b610692613d47565b61069a613d75565b6106a2613db2565b6106aa613dde565b61ffff85166000908152600360209081526040808320600483528184206005845282852060069094529382902082516101408101909352815491949392909185908290608082019083908290829061070190614ca1565b80601f016020809104026020016040519081016040528092919081815260200182805461072d90614ca1565b801561077a5780601f1061074f5761010080835404028352916020019161077a565b820191906000526020600020905b81548152906001019060200180831161075d57829003601f168201915b5050509183525050600182015460ff811660208084019190915261010090910461ffff16604080840191909152600284015460608401526003840154608084015260048401805482518185028101850190935280835260a090940193919290919083018282801561081457602002820191906000526020600020905b81546001600160a01b031681526001909101906020018083116107f6575b50505050508152505081526020016005820180548060200260200160405190810160405280929190818152602001828054801561087a57602002820191906000526020600020905b81546001600160a01b0316815260019091019060200180831161085c575b5050505050815260200160068201805480602002602001604051908101604052809291908181526020016000905b828210156109545783829060005260206000200180546108c790614ca1565b80601f01602080910402602001604051908101604052809291908181526020018280546108f390614ca1565b80156109405780601f1061091557610100808354040283529160200191610940565b820191906000526020600020905b81548152906001019060200180831161092357829003601f168201915b5050505050815260200190600101906108a8565b505050508152602001600782018054806020026020016040519081016040528092919081815260200182805480156109ab57602002820191906000526020600020905b815481526020019060010190808311610997575b5050505050815250509350826040518060c00160405290816000820180546109d290614ca1565b80601f01602080910402602001604051908101604052809291908181526020018280546109fe90614ca1565b8015610a4b5780601f10610a2057610100808354040283529160200191610a4b565b820191906000526020600020905b815481529060010190602001808311610a2e57829003601f168201915b5050509183525050600182015460ff811660208084019190915261010090910461ffff16604080840191909152600284015460608401526003840154608084015260048401805482518185028101850190935280835260a0909401939192909190830182828015610ae557602002820191906000526020600020905b81546001600160a01b03168152600190910190602001808311610ac7575b505050505081525050925081604051806080016040529081600082016040518060c0016040529081600082018054610b1c90614ca1565b80601f0160208091040260200160405190810160405280929190818152602001828054610b4890614ca1565b8015610b955780601f10610b6a57610100808354040283529160200191610b95565b820191906000526020600020905b815481529060010190602001808311610b7857829003601f168201915b5050509183525050600182015460ff811660208084019190915261010090910461ffff16604080840191909152600284015460608401526003840154608084015260048401805482518185028101850190935280835260a0909401939192909190830182828015610c2f57602002820191906000526020600020905b81546001600160a01b03168152600190910190602001808311610c11575b505050505081525050815260200160058201805480602002602001604051908101604052809291908181526020018280548015610c9557602002820191906000526020600020905b81546001600160a01b03168152600190910190602001808311610c77575b5050509183525050600682015460ff1615156020808301919091526007830180546040805182850281018501825282815294019392830182828015610d1757602002820191906000526020600020906000905b825461010083900a900460ff16815260206001928301818104948501949093039092029101808411610ce85790505b505050505081525050915080604051806080016040529081600082016040518060c0016040529081600082018054610d4e90614ca1565b80601f0160208091040260200160405190810160405280929190818152602001828054610d7a90614ca1565b8015610dc75780601f10610d9c57610100808354040283529160200191610dc7565b820191906000526020600020905b815481529060010190602001808311610daa57829003601f168201915b5050509183525050600182015460ff811660208084019190915261010090910461ffff16604080840191909152600284015460608401526003840154608084015260048401805482518185028101850190935280835260a0909401939192909190830182828015610e6157602002820191906000526020600020905b81546001600160a01b03168152600190910190602001808311610e43575b505050919092525050508152600591909101546001600160a01b038116602083015260ff600160a01b820481166040840152600160a81b90910416606090910152939992985090965091945092505050565b600060608060005b610eeb60078660048110610edf57634e487b7160e01b600052603260045260246000fd5b60070201600101612cf5565b811015610f7657610f2c8160078760048110610f1757634e487b7160e01b600052603260045260246000fd5b60070201600101612cff90919063ffffffff16565b828281518110610f4c57634e487b7160e01b600052603260045260246000fd5b6001600160a01b039092166020928302919091019091015280610f6e81614cf8565b915050610ebb565b5060078460048110610f9857634e487b7160e01b600052603260045260246000fd5b600702015494909350915050565b600180546040805160208084028201810190925282815260609390929091830182828015610ff357602002820191906000526020600020905b815481526020019060010190808311610fdf575b5050505050905090565b33611009600182612b23565b61101257600080fd5b60408051610140810182526080810188815260ff881660a08301526000805461ffff1660c084018190524260e085015261010084018290526060610120850181905292845260208085018a9052881515858701528484018890529082526005815293902082518051805193959293919284926110919284920190613c6e565b50602082810151600183018054604086015161ffff166101000262ffffff1990911660ff90931692909217919091179055606083015160028301556080830151600383015560a083015180516110ed9260048501920190613cf2565b50505060208281015180516111089260058501920190613cf2565b50604082015160068201805460ff19169115159190911790556060820151805161113c916007840191602090910190613e0c565b50506000805461ffff1691508061115283614cd6565b82546101009290920a61ffff81810219909316918316021790915560005461117e925060019116614c3b565b61ffff1687604051611190919061494e565b6040805191829003822060ff8a16835242602084015291600080516020614d4083398151915291015b60405180910390a350505050505050565b336111d6600182612b23565b6111df57600080fd5b60408051610140810182526080810188815260ff881660a08301526000805461ffff1660c084018190524260e085015261010084018290526060610120850181905292845260208085018a905284860189905284840188905290825260038152939020825180518051939592939192849261125d9284920190613c6e565b50602082810151600183018054604086015161ffff166101000262ffffff1990911660ff90931692909217919091179055606083015160028301556080830151600383015560a083015180516112b99260048501920190613cf2565b50505060208281015180516112d49260058501920190613cf2565b50604082015180516112f0916006840191602090910190613ead565b506060820151805161113c916007840191602090910190613f06565b3384611333826007836004811061062057634e487b7160e01b600052603260045260246000fd5b61133c57600080fd5b61137a85858560078a6004811061136357634e487b7160e01b600052603260045260246000fd5b60070201600401612d0b909392919063ffffffff16565b505050505050565b600082815260246020908152604080832061ffff8516845290915290205460ff16156113ad57600080fd5b600782600481106113ce57634e487b7160e01b600052603260045260246000fd5b61ffff8381166000908152600792909202929092016005016020526040902060010154610100900416158015906114755750600261142660078460048110610edf57634e487b7160e01b600052603260045260246000fd5b6114309190614bf0565b6007836004811061145157634e487b7160e01b600052603260045260246000fd5b61ffff84166000908152600560079290920292909201016020526040902060030154115b156116725760006007836004811061149d57634e487b7160e01b600052603260045260246000fd5b61ffff84166000818152600560079390930293909301919091016020908152604080842087855260248352818520938552929091528220805460ff1916600117905591505b60058201548110156116285761161682600501828154811061151457634e487b7160e01b600052603260045260246000fd5b6000918252602090912001546006840180546001600160a01b03909216918490811061155057634e487b7160e01b600052603260045260246000fd5b90600052602060002001805461156590614ca1565b80601f016020809104026020016040519081016040528092919081815260200182805461159190614ca1565b80156115de5780601f106115b3576101008083540402835291602001916115de565b820191906000526020600020905b8154815290600101906020018083116115c157829003601f168201915b505050505084600701848154811061160657634e487b7160e01b600052603260045260246000fd5b9060005260206000200154612e71565b8061162081614cf8565b9150506114e2565b5060405161163790829061496a565b6040519081900381206001830154610100900461ffff16825290600080516020614d60833981519152906020015b60405180910390a2505050565b6007826004811061169357634e487b7160e01b600052603260045260246000fd5b61ffff83811660009081526007929092029290920160060160205260409020600101546101009004161580159061173a575060026116eb60078460048110610edf57634e487b7160e01b600052603260045260246000fd5b6116f59190614bf0565b6007836004811061171657634e487b7160e01b600052603260045260246000fd5b61ffff84166000908152600660079290920292909201016020526040902060030154115b156119195760006007836004811061176257634e487b7160e01b600052603260045260246000fd5b61ffff84166000818152600660079390930293909301919091016020908152604080842087855260248352818520938552929091528220805460ff1916600117905591506060905b6117ce60078660048110610edf57634e487b7160e01b600052603260045260246000fd5b811015611844576117fa8160078760048110610f1757634e487b7160e01b600052603260045260246000fd5b82828151811061181a57634e487b7160e01b600052603260045260246000fd5b6001600160a01b03909216602092830291909101909101528061183c81614cf8565b9150506117aa565b506007846004811061186657634e487b7160e01b600052603260045260246000fd5b60070201600301546005830154604051631826c11960e01b81526001600160a01b0390921691631826c119916118a191859190600401614a05565b600060405180830381600087803b1580156118bb57600080fd5b505af11580156118cf573d6000803e3d6000fd5b50506040516118e1925084915061496a565b6040519081900381206001840154610100900461ffff16825290600080516020614d608339815191529060200160405180910390a250505b5050565b33611929600182612b23565b61193257600080fd5b60408051610140810182526080810188815260ff80891660a08401526000805461ffff1660c085018190524260e08601526101008501829052606061012086018190529385526001600160a01b038a1660208087019190915289841686880152928816858501528152600682529390932082518051805193959293919284926119be9284920190613c6e565b50602082810151600183018054604086015161ffff166101000262ffffff1990911660ff90931692909217919091179055606083015160028301556080830151600383015560a08301518051611a1a9260048501920190613cf2565b5050506020820151600591909101805460408401516060909401516001600160a01b039093166001600160a81b031990911617600160a01b60ff948516021760ff60a81b1916600160a81b93909216929092021790556000805461ffff16908061115283614cd6565b3382611aaa826007836004811061062057634e487b7160e01b600052603260045260246000fd5b611ab357600080fd5b611aed8360078660048110611ad857634e487b7160e01b600052603260045260246000fd5b60070201600401612eb890919063ffffffff16565b5050505050565b60405134815233907f66ff7c8f71ccc7c36152a41920d0d3b46ef3034359f76aa1498ed4478c204b5c9060200160405180910390a2565b600033611b39600182612b23565b611b4257600080fd5b61ffff80841660009081526003602052604090206001015461010090041615801590611bbd575061ffff8316600090815260036020526040902060010154611b909060ff1662015180614c10565b61ffff841660009081526003602052604090206002015462ffffff9190911690611bba9042614c5e565b10155b15611c855761ffff8316600081815260036020526040908190209051611be3919061496a565b60405190819003812090600080516020614da983398151915290600090a361ffff83166000908152600360205260408120908181611c218282613f40565b60018201805462ffffff1916905560006002830181905560038301819055611c4d906004840190613f7a565b50611c5e9050600583016000613f7a565b611c6c600683016000613f98565b611c7a600783016000613f7a565b505060019150611ff1565b61ffff80841660009081526004602052604090206001015461010090041615801590611d00575061ffff8316600090815260046020526040902060010154611cd39060ff1662015180614c10565b61ffff841660009081526004602052604090206002015462ffffff9190911690611cfd9042614c5e565b10155b15611d8e5761ffff8316600081815260036020526040908190209051611d26919061496a565b60405190819003812090600080516020614da983398151915290600090a361ffff8316600090815260046020526040812090611d628282613f40565b60018201805462ffffff1916905560006002830181905560038301819055611c7a906004840190613f7a565b61ffff80841660009081526005602052604090206001015461010090041615801590611e09575061ffff8316600090815260056020526040902060010154611ddc9060ff1662015180614c10565b61ffff841660009081526005602052604090206002015462ffffff9190911690611e069042614c5e565b10155b15611ec45761ffff8316600081815260036020526040908190209051611e2f919061496a565b60405190819003812090600080516020614da983398151915290600090a361ffff83166000908152600560205260408120908181611e6d8282613f40565b60018201805462ffffff1916905560006002830181905560038301819055611e99906004840190613f7a565b50611eaa9050600583016000613f7a565b60068201805460ff19169055611c7a600783016000613fb6565b61ffff80841660009081526006602052604090206001015461010090041615801590611f3f575061ffff8316600090815260066020526040902060010154611f129060ff1662015180614c10565b61ffff841660009081526006602052604090206002015462ffffff9190911690611f3c9042614c5e565b10155b15611fec5761ffff8316600081815260036020526040908190209051611f65919061496a565b60405190819003812090600080516020614da983398151915290600090a361ffff83166000908152600660205260408120908181611fa38282613f40565b60018201805462ffffff1916905560006002830181905560038301819055611fcf906004840190613f7a565b50505060050180546001600160b01b031916905560019150611ff1565b600091505b50919050565b33612003600182612b23565b61200c57600080fd5b61ffff808316600090815260036020526040902060010154339161010090910416156121615761ffff831660009081526003602090815260409182902060040180548351818402810184019094528084526120a6939283018282801561209b57602002820191906000526020600020905b81546001600160a01b0316815260019091019060200180831161207d575b50505050508261313a565b1561215c5761ffff831660009081526003602081905260408220018054916120cd83614cf8565b909155505061ffff8316600081815260036020908152604080832060048101805460018101825590855292842090920180546001600160a01b0319166001600160a01b038716908117909155928490525191929161212b919061496a565b604051908190038120907f96aff3db4ff7dbe7dd5d88fadbcc5c5f7fe5eb97cd711500d046a737b9c08cf990600090a45b505050565b61ffff808416600090815260046020526040902060010154610100900416156122815761ffff831660009081526004602081815260409283902090910180548351818402810184019094528084526121f6939283018282801561209b576020028201919060005260206000209081546001600160a01b0316815260019091019060200180831161207d5750505050508261313a565b1561215c5761ffff8316600090815260046020526040812060030180549161221d83614cf8565b909155505061ffff8316600081815260046020818152604080842090920180546001810182559084528184200180546001600160a01b0319166001600160a01b038716908117909155848452600390915291819020905191929161212b919061496a565b61ffff808416600090815260056020526040902060010154610100900416156123a05761ffff83166000908152600560209081526040918290206004018054835181840281018401909452808452612316939283018282801561209b576020028201919060005260206000209081546001600160a01b0316815260019091019060200180831161207d5750505050508261313a565b1561215c5761ffff8316600090815260056020526040812060030180549161233d83614cf8565b909155505061ffff8316600081815260056020908152604080832060040180546001810182559084528284200180546001600160a01b0319166001600160a01b038716908117909155848452600390925291829020915190929161212b9161496a565b61ffff8084166000908152600660205260409020600101546101009004161561215c5761ffff83166000908152600660209081526040918290206004018054835181840281018401909452808452612435939283018282801561209b576020028201919060005260206000209081546001600160a01b0316815260019091019060200180831161207d5750505050508261313a565b1561215c5761ffff8316600090815260066020526040812060030180549161245c83614cf8565b909155505061ffff8316600081815260066020908152604080832060040180546001810182559084528284200180546001600160a01b0319166001600160a01b038716908117909155848452600390925291829020915190929161212b9161496a565b61ffff811660009081526023602052604090205460ff16156124e057600080fd5b61ffff80821660009081526003602052604090206001015461010090041615801590612537575060026125136001612cf5565b61251d9190614bf0565b61ffff821660009081526003602081905260409091200154115b156125f25761ffff8116600090815260036020908152604080832060239092528220805460ff19166001179055905b60058201548110156125aa5761259882600501828154811061151457634e487b7160e01b600052603260045260246000fd5b806125a281614cf8565b915050612566565b506040516125b990829061496a565b6040519081900381206001830154610100900461ffff16825290600080516020614d608339815191529060200160405180910390a25050565b61ffff80821660009081526005602052604090206001015461010090041615801590612648575060026126256001612cf5565b61262f9190614bf0565b61ffff8216600090815260056020526040902060030154115b1561288b5761ffff811660009081526005602090815260408083206023909252909120805460ff19166001179055600681015460ff16156127615760005b600582015481101561275b576127488260050182815481106126b857634e487b7160e01b600052603260045260246000fd5b600091825260209091200154600784810180546001600160a01b0390931692859081106126f557634e487b7160e01b600052603260045260246000fd5b60009182526020918290209181049091015460ff601f9092166101000a9004166004811061273357634e487b7160e01b600052603260045260246000fd5b60070201600101612b0790919063ffffffff16565b508061275381614cf8565b915050612686565b5061287d565b60005b60058201548110156125aa576127b382600501828154811061279657634e487b7160e01b600052603260045260246000fd5b6000918252602090912001546001906001600160a01b03166131ae565b5061286a8260050182815481106127da57634e487b7160e01b600052603260045260246000fd5b600091825260209091200154600784810180546001600160a01b03909316928590811061281757634e487b7160e01b600052603260045260246000fd5b60009182526020918290209181049091015460ff601f9092166101000a9004166004811061285557634e487b7160e01b600052603260045260246000fd5b600702016001016131ae90919063ffffffff16565b508061287581614cf8565b915050612764565b6040516125b990829061496a565b61ffff808216600090815260066020526040902060010154610100900416158015906128e1575060026128be6001612cf5565b6128c89190614bf0565b61ffff8216600090815260066020526040902060030154115b1561298e5761ffff811660009081526006602090815260408083206023909252909120805460ff19166001179055600581015461294e906001600160a01b03811690600790600160a01b900460ff166004811061285557634e487b7160e01b600052603260045260246000fd5b5060058101546125aa906001600160a01b03811690600790600160a81b900460ff166004811061273357634e487b7160e01b600052603260045260246000fd5b600261299a6001612cf5565b6129a49190614bf0565b61ffff82166000908152600460205260409020600301541115612a3d5761ffff81166000908152602360209081526040808320805460ff1916600117905560049091529081902090516129f7919061496a565b6040805191829003822061ffff84811660009081526004602090815293902060010154610100900416835291600080516020614d60833981519152910160405180910390a25b50565b3382612a67826007836004811061062057634e487b7160e01b600052603260045260246000fd5b612a7057600080fd5b612aac833360078760048110612a9657634e487b7160e01b600052603260045260246000fd5b600702016004016131c39092919063ffffffff16565b50505050565b612aba613d47565b612ac2613fdb565b612afc8360078660048110612ae757634e487b7160e01b600052603260045260246000fd5b6007020160040161340990919063ffffffff16565b915091509250929050565b6000612b1c836001600160a01b038416613876565b9392505050565b6001600160a01b03811660009081526001830160205260408120541515612b1c565b60408051610140810182526080810187815260ff871660a0830152885461ffff1660c083018190524260e08401526000610100840181905260606101208501819052928452602080850189905284860188905284840187905291815260018b018252939093208251805180519395929391928492612bc69284920190613c6e565b50602082810151600183018054604086015161ffff166101000262ffffff1990911660ff90931692909217919091179055606083015160028301556080830151600383015560a08301518051612c229260048501920190613cf2565b5050506020828101518051612c3d9260058501920190613cf2565b5060408201518051612c59916006840191602090910190613ead565b5060608201518051612c75916007840191602090910190613f06565b5050875461ffff169050876000612c8b83614cd6565b82546101009290920a61ffff8181021990931691831602179091558854612cb6925060019116614c3b565b61ffff1686604051612cc8919061494e565b6040805191829003822060ff8916835242602084015291600080516020614d4083398151915291016111b9565b6000610499825490565b6000612b1c83836138c5565b604080516101008101825280820185815260ff8516606083810191909152875461ffff16608084018190524260a0850152600060c0850181905260e085018390529284526020808501879052908352600289018152939091208251805180519395929391928492612d7f9284920190613c6e565b50602082810151600183018054604086015161ffff166101000262ffffff1990911660ff90931692909217919091179055606083015160028301556080830151600383015560a08301518051612ddb9260048501920190613cf2565b50505060209190910151600590910155845461ffff16856000612dfd83614cd6565b82546101009290920a61ffff8181021990931691831602179091558654612e28925060019116614c3b565b61ffff1684604051612e3a919061494e565b6040805191829003822060ff8716835242602084015291600080516020614d40833981519152910160405180910390a35050505050565b612e7c83838361395e565b50826001600160a01b03167f04bd02e6e14d9c1417ba3582a754b1124ad2fbe11ad4cee6b51d08ebadfc07928260405161166591815260200190565b61ffff8082166000908152600180850160205260408220015490916101009091041615801590612f3b575061ffff82166000908152600180850160205260409091200154612f0c9060ff1662015180614c10565b61ffff8316600090815260018501602052604090206002015462ffffff9190911690612f389042614c5e565b10155b156130075761ffff82166000818152600185016020526040908190209051612f63919061496a565b60405190819003812090600080516020614da983398151915290600090a361ffff821660009081526001840160205260408120908181612fa38282613f40565b60018201805462ffffff1916905560006002830181905560038301819055612fcf906004840190613f7a565b50612fe09050600583016000613f7a565b612fee600683016000613f98565b612ffc600783016000613f7a565b505060019050610499565b61ffff808316600090815260028501602052604090206001015461010090041615801590613088575061ffff821660009081526002840160205260409020600101546130599060ff1662015180614c10565b61ffff8316600090815260028086016020526040909120015462ffffff91909116906130859042614c5e565b10155b156131315761ffff821660008181526002850160205260409081902090516130b0919061496a565b60405190819003812090600080516020614da983398151915290600090a361ffff8216600090815260028401602052604081209081816130f08282613f40565b60018201805462ffffff191690556000600283018190556003830181905561311c906004840190613f7a565b50506005820160009055505060019050610499565b50600092915050565b6000805b83518110156131a457826001600160a01b031684828151811061317157634e487b7160e01b600052603260045260246000fd5b60200260200101516001600160a01b03161415613192576000915050610499565b8061319c81614cf8565b91505061313e565b5060019392505050565b6000612b1c836001600160a01b03841661398c565b61ffff8083166000908152600180860160205260409091200154610100900416156132e75761ffff82166000908152600184016020908152604091829020600401805483518184028101840190945280845261325e939283018282801561325357602002820191906000526020600020905b81546001600160a01b03168152600190910190602001808311613235575b505050505082613aa3565b1561215c5761ffff82166000908152600184016020526040812060030180549161328783614cf8565b909155505061ffff821660008181526001858101602090815260408084206004810180549485018155855291842090920180546001600160a01b0319166001600160a01b03871690811790915592849052905191929161212b919061496a565b61ffff80831660009081526002850160205260409020600101546101009004161561215c5761ffff8216600090815260028401602090815260409182902060040180548351818402810184019094528084526133809392830182828015613253576020028201919060005260206000209081546001600160a01b0316815260019091019060200180831161323557505050505082613aa3565b1561215c5761ffff8216600090815260028401602052604081206003018054916133a983614cf8565b909155505061ffff82166000818152600285016020908152604080832060048101805460018101825590855292842090920180546001600160a01b0319166001600160a01b038716908117909155928490525191929161212b919061496a565b613411613d47565b613419613fdb565b61ffff83166000908152600185016020908152604080832060028801909252918290208251610140810190935281549192909183908290608082019083908290829061346490614ca1565b80601f016020809104026020016040519081016040528092919081815260200182805461349090614ca1565b80156134dd5780601f106134b2576101008083540402835291602001916134dd565b820191906000526020600020905b8154815290600101906020018083116134c057829003601f168201915b5050509183525050600182015460ff811660208084019190915261010090910461ffff16604080840191909152600284015460608401526003840154608084015260048401805482518185028101850190935280835260a090940193919290919083018282801561357757602002820191906000526020600020905b81546001600160a01b03168152600190910190602001808311613559575b5050505050815250508152602001600582018054806020026020016040519081016040528092919081815260200182805480156135dd57602002820191906000526020600020905b81546001600160a01b031681526001909101906020018083116135bf575b5050505050815260200160068201805480602002602001604051908101604052809291908181526020016000905b828210156136b757838290600052602060002001805461362a90614ca1565b80601f016020809104026020016040519081016040528092919081815260200182805461365690614ca1565b80156136a35780601f10613678576101008083540402835291602001916136a3565b820191906000526020600020905b81548152906001019060200180831161368657829003601f168201915b50505050508152602001906001019061360b565b5050505081526020016007820180548060200260200160405190810160405280929190818152602001828054801561370e57602002820191906000526020600020905b8154815260200190600101908083116136fa575b5050509190925250506040805161010081018252845493955092849250839182019083908290829061373f90614ca1565b80601f016020809104026020016040519081016040528092919081815260200182805461376b90614ca1565b80156137b85780601f1061378d576101008083540402835291602001916137b8565b820191906000526020600020905b81548152906001019060200180831161379b57829003601f168201915b5050509183525050600182015460ff811660208084019190915261010090910461ffff16604080840191909152600284015460608401526003840154608084015260048401805482518185028101850190935280835260a090940193919290919083018282801561385257602002820191906000526020600020905b81546001600160a01b03168152600190910190602001808311613834575b50505050508152505081526020016005820154815250509050915091509250929050565b60008181526001830160205260408120546138bd57508154600181810184556000848152602080822090930184905584548482528286019093526040902091909155610499565b506000610499565b815460009082106139285760405162461bcd60e51b815260206004820152602260248201527f456e756d657261626c655365743a20696e646578206f7574206f6620626f756e604482015261647360f01b60648201526084015b60405180910390fd5b82600001828154811061394b57634e487b7160e01b600052603260045260246000fd5b9060005260206000200154905092915050565b6060613984848484604051806060016040528060298152602001614d8060299139613b0d565b949350505050565b60008181526001830160205260408120548015613a995760006139b0600183614c5e565b85549091506000906139c490600190614c5e565b905060008660000182815481106139eb57634e487b7160e01b600052603260045260246000fd5b9060005260206000200154905080876000018481548110613a1c57634e487b7160e01b600052603260045260246000fd5b600091825260208083209091019290925582815260018901909152604090208490558654879080613a5d57634e487b7160e01b600052603160045260246000fd5b60019003818190600052602060002001600090559055866001016000878152602001908152602001600020600090556001945050505050610499565b6000915050610499565b6000805b83518110156131a457826001600160a01b0316848281518110613ada57634e487b7160e01b600052603260045260246000fd5b60200260200101516001600160a01b03161415613afb576000915050610499565b80613b0581614cf8565b915050613aa7565b606082471015613b6e5760405162461bcd60e51b815260206004820152602660248201527f416464726573733a20696e73756666696369656e742062616c616e636520666f6044820152651c8818d85b1b60d21b606482015260840161391f565b843b613bbc5760405162461bcd60e51b815260206004820152601d60248201527f416464726573733a2063616c6c20746f206e6f6e2d636f6e7472616374000000604482015260640161391f565b600080866001600160a01b03168587604051613bd8919061494e565b60006040518083038185875af1925050503d8060008114613c15576040519150601f19603f3d011682016040523d82523d6000602084013e613c1a565b606091505b5091509150613c2a828286613c35565b979650505050505050565b60608315613c44575081612b1c565b825115613c545782518084602001fd5b8160405162461bcd60e51b815260040161391f9190614a84565b828054613c7a90614ca1565b90600052602060002090601f016020900481019282613c9c5760008555613ce2565b82601f10613cb557805160ff1916838001178555613ce2565b82800160010185558215613ce2579182015b82811115613ce2578251825591602001919060010190613cc7565b50613cee929150613ffb565b5090565b828054828255906000526020600020908101928215613ce2579160200282015b82811115613ce257825182546001600160a01b0319166001600160a01b03909116178255602090920191600190910190613d12565b6040518060800160405280613d5a613d75565b81526020016060815260200160608152602001606081525090565b6040518060c0016040528060608152602001600060ff168152602001600061ffff1681526020016000815260200160008152602001606081525090565b6040518060800160405280613dc5613d75565b8152606060208201819052600060408301529081015290565b6040518060800160405280613df1613d75565b81526000602082018190526040820181905260609091015290565b82805482825590600052602060002090601f01602090048101928215613ce25791602002820160005b83821115613e7357835183826101000a81548160ff021916908360ff1602179055509260200192600101602081600001049283019260010302613e35565b8015613ea05782816101000a81549060ff0219169055600101602081600001049283019260010302613e73565b5050613cee929150613ffb565b828054828255906000526020600020908101928215613efa579160200282015b82811115613efa5782518051613eea918491602090910190613c6e565b5091602001919060010190613ecd565b50613cee929150614010565b828054828255906000526020600020908101928215613ce25791602002820182811115613ce2578251825591602001919060010190613cc7565b508054613f4c90614ca1565b6000825580601f10613f5c575050565b601f016020900490600052602060002090810190612a3d9190613ffb565b5080546000825590600052602060002090810190612a3d9190613ffb565b5080546000825590600052602060002090810190612a3d9190614010565b50805460008255601f016020900490600052602060002090810190612a3d9190613ffb565b6040518060400160405280613fee613d75565b8152602001600081525090565b5b80821115613cee5760008155600101613ffc565b80821115613cee5760006140248282613f40565b50600101614010565b80356001600160a01b038116811461404457600080fd5b919050565b600082601f830112614059578081fd5b8135602061406e61406983614bcc565b614b9b565b80838252828201915082860187848660051b890101111561408d578586fd5b855b858110156140b2576140a08261402d565b8452928401929084019060010161408f565b5090979650505050505050565b600082601f8301126140cf578081fd5b813560206140df61406983614bcc565b80838252828201915082860187848660051b89010111156140fe578586fd5b855b858110156140b257813567ffffffffffffffff81111561411e578788fd5b61412c8a87838c010161419c565b8552509284019290840190600101614100565b600082601f83011261414f578081fd5b8135602061415f61406983614bcc565b80838252828201915082860187848660051b890101111561417e578586fd5b855b858110156140b257813584529284019290840190600101614180565b600082601f8301126141ac578081fd5b813567ffffffffffffffff8111156141c6576141c6614d29565b6141d9601f8201601f1916602001614b9b565b8181528460208386010111156141ed578283fd5b816020850160208301379081016020019190915292915050565b803561ffff8116811461404457600080fd5b803560ff8116811461404457600080fd5b600080600080600060a08688031215614241578081fd5b61424a8661402d565b94506142586020870161402d565b9350604086013567ffffffffffffffff80821115614274578283fd5b61428089838a0161413f565b94506060880135915080821115614295578283fd5b6142a189838a0161413f565b935060808801359150808211156142b6578283fd5b506142c38882890161419c565b9150509295509295909350565b600080600080600060a086880312156142e7578081fd5b6142f08661402d565b94506142fe6020870161402d565b93506040860135925060608601359150608086013567ffffffffffffffff811115614327578182fd5b6142c38882890161419c565b600060208284031215614344578081fd5b81356001600160e01b031981168114612b1c578182fd5b6000806040838503121561436d578182fd5b823567ffffffffffffffff811115614383578283fd5b61438f8582860161419c565b92505061439e60208401614219565b90509250929050565b600080600080600060a086880312156143be578081fd5b853567ffffffffffffffff8111156143d4578182fd5b6143e08882890161419c565b9550506143ef60208701614219565b93506143fd6040870161402d565b925061440b60608701614219565b915061441960808701614219565b90509295509295909350565b600080600080600060a0868803121561443c578283fd5b853567ffffffffffffffff80821115614453578485fd5b61445f89838a0161419c565b965061446d60208901614219565b95506040880135915080821115614482578485fd5b61448e89838a01614049565b945060608801359150808211156144a3578283fd5b6144af89838a016140bf565b935060808801359150808211156144c4578283fd5b506142c38882890161413f565b600080600080600060a086880312156144e8578283fd5b853567ffffffffffffffff808211156144ff578485fd5b61450b89838a0161419c565b96506020915061451c828901614219565b955060408801358181111561452f578586fd5b61453b8a828b01614049565b95505060608801358015158114614550578384fd5b9350608088013581811115614563578384fd5b88019050601f81018913614575578283fd5b803561458361406982614bcc565b8082825284820191508484018c868560051b87010111156145a2578687fd5b8694505b838510156145cb576145b781614219565b8352600194909401939185019185016145a6565b5080955050505050509295509295909350565b6000602082840312156145ef578081fd5b612b1c82614207565b600060208284031215614609578081fd5b5035919050565b60008060008060008060c08789031215614628578384fd5b86359550602087013567ffffffffffffffff80821115614646578586fd5b6146528a838b0161419c565b965061466060408a01614219565b95506060890135915080821115614675578283fd5b6146818a838b01614049565b94506080890135915080821115614696578283fd5b6146a28a838b016140bf565b935060a08901359150808211156146b7578283fd5b506146c489828a0161413f565b9150509295509295509295565b600080600080608085870312156146e6578182fd5b84359350602085013567ffffffffffffffff811115614703578283fd5b61470f8782880161419c565b93505061471e60408601614219565b9396929550929360600135925050565b60008060408385031215614740578182fd5b8235915061439e60208401614207565b6000815180845260208085019450808401835b838110156147885781516001600160a01b031687529582019590820190600101614763565b509495945050505050565b6000815180845260208085019450808401835b83811015614788578151875295820195908201906001016147a6565b600081518084526147da816020860160208601614c75565b601f01601f19169290920160200192915050565b600081516080845261480360808501826148e8565b905060018060a01b03602084015116602085015260ff604084015116604085015260ff60608401511660608501528091505092915050565b600081516080845261485060808501826148e8565b9050602080840151858303828701526148698382614750565b925050604084015185830360408701528281518085528385019150838160051b8601018484019350865b828110156148c157601f198783030184526148af8286516147c2565b94860194938601939150600101614893565b506060880151955088810360608a01526148db8187614793565b9998505050505050505050565b6000815160c084526148fd60c08501826147c2565b905060ff602084015116602085015261ffff6040840151166040850152606083015160608501526080830151608085015260a083015184820360a08601526149458282614750565b95945050505050565b60008251614960818460208701614c75565b9190910192915050565b600080835482600182811c91508083168061498657607f831692505b60208084108214156149a657634e487b7160e01b87526022600452602487fd5b8180156149ba57600181146149cb576149f7565b60ff198616895284890196506149f7565b60008a815260209020885b868110156149ef5781548b8201529085019083016149d6565b505084890196505b509498975050505050505050565b604081526000614a186040830185614750565b90508260208301529392505050565b6020808252825182820181905260009190848201906040850190845b81811015614a5f57835183529284019291840191600101614a43565b50909695505050505050565b8281526040602082015260006139846040830184614750565b602081526000612b1c60208301846147c2565b604081526000614aaa604083018561483b565b8281036020840152835160408252614ac560408301826148e8565b90506020850151602083015280925050509392505050565b608081526000614af0608083018761483b565b602083820381850152614b0382886148e8565b91508382036040850152855160808352614b2060808401826148e8565b90508187015183820383850152614b378282614750565b6040898101511515908601526060808a01518683039190960152845180825290840194840192508591505b80821015614b8557825160ff168552938301939183019160019190910190614b62565b505050508281036060840152613c2a81856147ee565b604051601f8201601f1916810167ffffffffffffffff81118282101715614bc457614bc4614d29565b604052919050565b600067ffffffffffffffff821115614be657614be6614d29565b5060051b60200190565b600082614c0b57634e487b7160e01b81526012600452602481fd5b500490565b600062ffffff80831681851681830481118215151615614c3257614c32614d13565b02949350505050565b600061ffff83811690831681811015614c5657614c56614d13565b039392505050565b600082821015614c7057614c70614d13565b500390565b60005b83811015614c90578181015183820152602001614c78565b83811115612aac5750506000910152565b600181811c90821680614cb557607f821691505b60208210811415611ff157634e487b7160e01b600052602260045260246000fd5b600061ffff80831681811415614cee57614cee614d13565b6001019392505050565b6000600019821415614d0c57614d0c614d13565b5060010190565b634e487b7160e01b600052601160045260246000fd5b634e487b7160e01b600052604160045260246000fdfefb07f0b6a495000a76b84fe72725aefa5d6b75fa4c4018f95c244048d02ba1340e4c462064ff3edd0c76f240471b531e7a1fb5d76435e9be70181a779056fbc9416464726573733a206c6f772d6c6576656c2063616c6c20776974682076616c7565206661696c6564e3b80df9e89df04cf349bc0ed35da62b9edc408708393382577b14c234a082d6a264697066735822122057f9c170105d2e3eb8ff2abab7ce4a198b6714152457b86097f76f29f2282d3464736f6c63430008040033608060405234801561001057600080fd5b50610ce9806100206000396000f3fe60806040526004361061007f5760003560e01c806398ba1d461161004e57806398ba1d461461015f578063bc197c811461017a578063d0e30db0146101bf578063f23a6e61146101c757600080fd5b806301ffc9a7146100c05780631826c119146100f557806388bde015146101175780638da5cb5b1461013757600080fd5b366100bb5760405134815233907f66ff7c8f71ccc7c36152a41920d0d3b46ef3034359f76aa1498ed4478c204b5c9060200160405180910390a2005b600080fd5b3480156100cc57600080fd5b506100e06100db366004610b35565b6101f3565b60405190151581526020015b60405180910390f35b34801561010157600080fd5b50610115610110366004610af2565b61022a565b005b34801561012357600080fd5b506101156101323660046109fd565b6102fe565b34801561014357600080fd5b506000546040516001600160a01b0390911681526020016100ec565b34801561016b57600080fd5b506040514781526020016100ec565b34801561018657600080fd5b506101a66101953660046108f4565b63bc197c8160e01b95945050505050565b6040516001600160e01b031990911681526020016100ec565b610115610405565b3480156101d357600080fd5b506101a66101e236600461099a565b63f23a6e6160e01b95945050505050565b60006001600160e01b03198216630271189760e51b148061022457506301ffc9a760e01b6001600160e01b03198316145b92915050565b3361023d6000546001600160a01b031690565b6001600160a01b0316146102985760405162461bcd60e51b815260206004820152601e60248201527f4f776e65643a2063616c6c6572206973206e6f7420746865206f776e6572000060448201526064015b60405180910390fd5b60008251826102a79190610c01565b905060005b83518110156102f8576102e6828583815181106102d957634e487b7160e01b600052603260045260246000fd5b602002602001015161043c565b806102f081610c4d565b9150506102ac565b50505050565b336103116000546001600160a01b031690565b6001600160a01b0316146103675760405162461bcd60e51b815260206004820152601e60248201527f4f776e65643a2063616c6c6572206973206e6f7420746865206f776e65720000604482015260640161028f565b60005b83518110156102f8576103f384828151811061039657634e487b7160e01b600052603260045260246000fd5b60200260200101518483815181106103be57634e487b7160e01b600052603260045260246000fd5b60200260200101518484815181106103e657634e487b7160e01b600052603260045260246000fd5b602002602001015161049c565b806103fd81610c4d565b91505061036a565b60405134815233907f66ff7c8f71ccc7c36152a41920d0d3b46ef3034359f76aa1498ed4478c204b5c9060200160405180910390a2565b814781111561044a57600080fd5b816001600160a01b03167f04bd02e6e14d9c1417ba3582a754b1124ad2fbe11ad4cee6b51d08ebadfc07928460405161048591815260200190565b60405180910390a261049782846104f0565b505050565b6104a7838383610609565b50826001600160a01b03167f04bd02e6e14d9c1417ba3582a754b1124ad2fbe11ad4cee6b51d08ebadfc0792826040516104e391815260200190565b60405180910390a2505050565b804710156105405760405162461bcd60e51b815260206004820152601d60248201527f416464726573733a20696e73756666696369656e742062616c616e6365000000604482015260640161028f565b6000826001600160a01b03168260405160006040518083038185875af1925050503d806000811461058d576040519150601f19603f3d011682016040523d82523d6000602084013e610592565b606091505b50509050806104975760405162461bcd60e51b815260206004820152603a60248201527f416464726573733a20756e61626c6520746f2073656e642076616c75652c207260448201527f6563697069656e74206d61792068617665207265766572746564000000000000606482015260840161028f565b606061062f848484604051806060016040528060298152602001610c8b60299139610639565b90505b9392505050565b60608247101561069a5760405162461bcd60e51b815260206004820152602660248201527f416464726573733a20696e73756666696369656e742062616c616e636520666f6044820152651c8818d85b1b60d21b606482015260840161028f565b843b6106e85760405162461bcd60e51b815260206004820152601d60248201527f416464726573733a2063616c6c20746f206e6f6e2d636f6e7472616374000000604482015260640161028f565b600080866001600160a01b031685876040516107049190610b5d565b60006040518083038185875af1925050503d8060008114610741576040519150601f19603f3d011682016040523d82523d6000602084013e610746565b606091505b5091509150610756828286610761565b979650505050505050565b60608315610770575081610632565b8251156107805782518084602001fd5b8160405162461bcd60e51b815260040161028f9190610b79565b80356001600160a01b03811681146107b157600080fd5b919050565b600082601f8301126107c6578081fd5b813560206107db6107d683610bdd565b610bac565b80838252828201915082860187848660051b89010111156107fa578586fd5b855b8581101561081f5761080d8261079a565b845292840192908401906001016107fc565b5090979650505050505050565b600082601f83011261083c578081fd5b8135602061084c6107d683610bdd565b80838252828201915082860187848660051b890101111561086b578586fd5b855b8581101561081f5781358452928401929084019060010161086d565b600082601f830112610899578081fd5b813567ffffffffffffffff8111156108b3576108b3610c74565b6108c6601f8201601f1916602001610bac565b8181528460208386010111156108da578283fd5b816020850160208301379081016020019190915292915050565b600080600080600060a0868803121561090b578081fd5b6109148661079a565b94506109226020870161079a565b9350604086013567ffffffffffffffff8082111561093e578283fd5b61094a89838a0161082c565b9450606088013591508082111561095f578283fd5b61096b89838a0161082c565b93506080880135915080821115610980578283fd5b5061098d88828901610889565b9150509295509295909350565b600080600080600060a086880312156109b1578081fd5b6109ba8661079a565b94506109c86020870161079a565b93506040860135925060608601359150608086013567ffffffffffffffff8111156109f1578182fd5b61098d88828901610889565b600080600060608486031215610a11578283fd5b833567ffffffffffffffff80821115610a28578485fd5b610a34878388016107b6565b9450602091508186013581811115610a4a578485fd5b8601601f81018813610a5a578485fd5b8035610a686107d682610bdd565b8082825285820191508584018b878560051b8701011115610a87578889fd5b885b84811015610ac057813587811115610a9f578a8bfd5b610aad8e8a838a0101610889565b8552509287019290870190600101610a89565b50909750505050604087013592505080821115610adb578283fd5b50610ae88682870161082c565b9150509250925092565b60008060408385031215610b04578182fd5b823567ffffffffffffffff811115610b1a578283fd5b610b26858286016107b6565b95602094909401359450505050565b600060208284031215610b46578081fd5b81356001600160e01b031981168114610632578182fd5b60008251610b6f818460208701610c21565b9190910192915050565b6020815260008251806020840152610b98816040850160208701610c21565b601f01601f19169190910160400192915050565b604051601f8201601f1916810167ffffffffffffffff81118282101715610bd557610bd5610c74565b604052919050565b600067ffffffffffffffff821115610bf757610bf7610c74565b5060051b60200190565b600082610c1c57634e487b7160e01b81526012600452602481fd5b500490565b60005b83811015610c3c578181015183820152602001610c24565b838111156102f85750506000910152565b6000600019821415610c6d57634e487b7160e01b81526011600452602481fd5b5060010190565b634e487b7160e01b600052604160045260246000fdfe416464726573733a206c6f772d6c6576656c2063616c6c20776974682076616c7565206661696c6564a264697066735822122015734bce76f35cf54b3ff77dac0abe39d5ab25b466de90b020f68fc6e639013664736f6c63430008040033",
			"opcodes": "PUSH1 0x80 PUSH1 0x40 MSTORE PUSH1 0x0 DUP1 SLOAD PUSH2 0xFFFF NOT AND PUSH1 0x1 OR SWAP1 SSTORE CALLVALUE DUP1 ISZERO PUSH3 0x1F JUMPI PUSH1 0x0 DUP1 REVERT JUMPDEST POP PUSH32 0x5265736561726368202620446576656C6F706D656E7400000000000000000000 PUSH1 0x7 SSTORE PUSH7 0x46696E616E6365 PUSH1 0xC8 SHL PUSH1 0xE SSTORE PUSH5 0x131959D85B PUSH1 0xDA SHL PUSH1 0x15 SSTORE PUSH15 0xA0EAC4D8D2C6409EEAE8E4CAC2C6D PUSH1 0x8B SHL PUSH1 0x1C SSTORE PUSH1 0x0 JUMPDEST PUSH1 0x4 DUP2 LT ISZERO PUSH3 0x110 JUMPI PUSH1 0x40 MLOAD PUSH3 0x8F SWAP1 PUSH3 0x1BF JUMP JUMPDEST PUSH1 0x40 MLOAD DUP1 SWAP2 SUB SWAP1 PUSH1 0x0 CREATE DUP1 ISZERO DUP1 ISZERO PUSH3 0xAC JUMPI RETURNDATASIZE PUSH1 0x0 DUP1 RETURNDATACOPY RETURNDATASIZE PUSH1 0x0 REVERT JUMPDEST POP PUSH1 0x7 DUP3 PUSH1 0x4 DUP2 LT PUSH3 0xCF JUMPI PUSH4 0x4E487B71 PUSH1 0xE0 SHL PUSH1 0x0 MSTORE PUSH1 0x32 PUSH1 0x4 MSTORE PUSH1 0x24 PUSH1 0x0 REVERT JUMPDEST PUSH1 0x7 MUL ADD PUSH1 0x3 ADD PUSH1 0x0 PUSH2 0x100 EXP DUP2 SLOAD DUP2 PUSH1 0x1 PUSH1 0x1 PUSH1 0xA0 SHL SUB MUL NOT AND SWAP1 DUP4 PUSH1 0x1 PUSH1 0x1 PUSH1 0xA0 SHL SUB AND MUL OR SWAP1 SSTORE POP DUP1 DUP1 PUSH3 0x107 SWAP1 PUSH3 0x1CD JUMP JUMPDEST SWAP2 POP POP PUSH3 0x77 JUMP JUMPDEST POP PUSH3 0x12C CALLER PUSH1 0x1 PUSH3 0x14D PUSH1 0x20 SHL PUSH3 0x2B07 OR SWAP1 SWAP2 SWAP1 PUSH1 0x20 SHR JUMP JUMPDEST POP PUSH3 0x146 PUSH1 0x8 CALLER PUSH3 0x14D PUSH1 0x20 SWAP1 DUP2 SHL PUSH3 0x2B07 OR SWAP1 SHR JUMP JUMPDEST POP PUSH3 0x1F5 JUMP JUMPDEST PUSH1 0x0 PUSH3 0x164 DUP4 PUSH1 0x1 PUSH1 0x1 PUSH1 0xA0 SHL SUB DUP5 AND PUSH3 0x16D JUMP JUMPDEST SWAP1 POP JUMPDEST SWAP3 SWAP2 POP POP JUMP JUMPDEST PUSH1 0x0 DUP2 DUP2 MSTORE PUSH1 0x1 DUP4 ADD PUSH1 0x20 MSTORE PUSH1 0x40 DUP2 KECCAK256 SLOAD PUSH3 0x1B6 JUMPI POP DUP2 SLOAD PUSH1 0x1 DUP2 DUP2 ADD DUP5 SSTORE PUSH1 0x0 DUP5 DUP2 MSTORE PUSH1 0x20 DUP1 DUP3 KECCAK256 SWAP1 SWAP4 ADD DUP5 SWAP1 SSTORE DUP5 SLOAD DUP5 DUP3 MSTORE DUP3 DUP7 ADD SWAP1 SWAP4 MSTORE PUSH1 0x40 SWAP1 KECCAK256 SWAP2 SWAP1 SWAP2 SSTORE PUSH3 0x167 JUMP JUMPDEST POP PUSH1 0x0 PUSH3 0x167 JUMP JUMPDEST PUSH2 0xD09 DUP1 PUSH3 0x5003 DUP4 CODECOPY ADD SWAP1 JUMP JUMPDEST PUSH1 0x0 PUSH1 0x0 NOT DUP3 EQ ISZERO PUSH3 0x1EE JUMPI PUSH4 0x4E487B71 PUSH1 0xE0 SHL DUP2 MSTORE PUSH1 0x11 PUSH1 0x4 MSTORE PUSH1 0x24 DUP2 REVERT JUMPDEST POP PUSH1 0x1 ADD SWAP1 JUMP JUMPDEST PUSH2 0x4DFE DUP1 PUSH3 0x205 PUSH1 0x0 CODECOPY PUSH1 0x0 RETURN INVALID PUSH1 0x80 PUSH1 0x40 MSTORE PUSH1 0x4 CALLDATASIZE LT PUSH2 0x12E JUMPI PUSH1 0x0 CALLDATALOAD PUSH1 0xE0 SHR DUP1 PUSH4 0xBA87146A GT PUSH2 0xAB JUMPI DUP1 PUSH4 0xD537B060 GT PUSH2 0x6F JUMPI DUP1 PUSH4 0xD537B060 EQ PUSH2 0x38E JUMPI DUP1 PUSH4 0xDDB6E116 EQ PUSH2 0x3AE JUMPI DUP1 PUSH4 0xEDBC28DF EQ PUSH2 0x3CE JUMPI DUP1 PUSH4 0xF23A6E61 EQ PUSH2 0x3EE JUMPI DUP1 PUSH4 0xF492935B EQ PUSH2 0x41A JUMPI DUP1 PUSH4 0xF5D77ADF EQ PUSH2 0x43A JUMPI PUSH1 0x0 DUP1 REVERT JUMPDEST DUP1 PUSH4 0xBA87146A EQ PUSH2 0x2E1 JUMPI DUP1 PUSH4 0xBC197C81 EQ PUSH2 0x301 JUMPI DUP1 PUSH4 0xC696709C EQ PUSH2 0x346 JUMPI DUP1 PUSH4 0xCAA39817 EQ PUSH2 0x366 JUMPI DUP1 PUSH4 0xD0E30DB0 EQ PUSH2 0x386 JUMPI PUSH1 0x0 DUP1 REVERT JUMPDEST DUP1 PUSH4 0x3E08602C GT PUSH2 0xF2 JUMPI DUP1 PUSH4 0x3E08602C EQ PUSH2 0x244 JUMPI DUP1 PUSH4 0x48ECCC2C EQ PUSH2 0x266 JUMPI DUP1 PUSH4 0x49041D3E EQ PUSH2 0x286 JUMPI DUP1 PUSH4 0x5B4693B9 EQ PUSH2 0x2A6 JUMPI DUP1 PUSH4 0x98BA1D46 EQ PUSH2 0x2C6 JUMPI PUSH1 0x0 DUP1 REVERT JUMPDEST DUP1 PUSH4 0x1FFC9A7 EQ PUSH2 0x16F JUMPI DUP1 PUSH4 0x1279A374 EQ PUSH2 0x1A4 JUMPI DUP1 PUSH4 0x23850315 EQ PUSH2 0x1C6 JUMPI DUP1 PUSH4 0x267044E5 EQ PUSH2 0x1E6 JUMPI DUP1 PUSH4 0x269D6E71 EQ PUSH2 0x216 JUMPI PUSH1 0x0 DUP1 REVERT JUMPDEST CALLDATASIZE PUSH2 0x16A JUMPI PUSH1 0x40 MLOAD CALLVALUE DUP2 MSTORE CALLER SWAP1 PUSH32 0x66FF7C8F71CCC7C36152A41920D0D3B46EF3034359F76AA1498ED4478C204B5C SWAP1 PUSH1 0x20 ADD PUSH1 0x40 MLOAD DUP1 SWAP2 SUB SWAP1 LOG2 STOP JUMPDEST PUSH1 0x0 DUP1 REVERT JUMPDEST CALLVALUE DUP1 ISZERO PUSH2 0x17B JUMPI PUSH1 0x0 DUP1 REVERT JUMPDEST POP PUSH2 0x18F PUSH2 0x18A CALLDATASIZE PUSH1 0x4 PUSH2 0x4333 JUMP JUMPDEST PUSH2 0x468 JUMP JUMPDEST PUSH1 0x40 MLOAD SWAP1 ISZERO ISZERO DUP2 MSTORE PUSH1 0x20 ADD JUMPDEST PUSH1 0x40 MLOAD DUP1 SWAP2 SUB SWAP1 RETURN JUMPDEST CALLVALUE DUP1 ISZERO PUSH2 0x1B0 JUMPI PUSH1 0x0 DUP1 REVERT JUMPDEST POP PUSH2 0x1C4 PUSH2 0x1BF CALLDATASIZE PUSH1 0x4 PUSH2 0x435B JUMP JUMPDEST PUSH2 0x49F JUMP JUMPDEST STOP JUMPDEST CALLVALUE DUP1 ISZERO PUSH2 0x1D2 JUMPI PUSH1 0x0 DUP1 REVERT JUMPDEST POP PUSH2 0x1C4 PUSH2 0x1E1 CALLDATASIZE PUSH1 0x4 PUSH2 0x4610 JUMP JUMPDEST PUSH2 0x5F9 JUMP JUMPDEST CALLVALUE DUP1 ISZERO PUSH2 0x1F2 JUMPI PUSH1 0x0 DUP1 REVERT JUMPDEST POP PUSH2 0x206 PUSH2 0x201 CALLDATASIZE PUSH1 0x4 PUSH2 0x45DE JUMP JUMPDEST PUSH2 0x68A JUMP JUMPDEST PUSH1 0x40 MLOAD PUSH2 0x19B SWAP5 SWAP4 SWAP3 SWAP2 SWAP1 PUSH2 0x4ADD JUMP JUMPDEST CALLVALUE DUP1 ISZERO PUSH2 0x222 JUMPI PUSH1 0x0 DUP1 REVERT JUMPDEST POP PUSH2 0x236 PUSH2 0x231 CALLDATASIZE PUSH1 0x4 PUSH2 0x45F8 JUMP JUMPDEST PUSH2 0xEB3 JUMP JUMPDEST PUSH1 0x40 MLOAD PUSH2 0x19B SWAP3 SWAP2 SWAP1 PUSH2 0x4A6B JUMP JUMPDEST CALLVALUE DUP1 ISZERO PUSH2 0x250 JUMPI PUSH1 0x0 DUP1 REVERT JUMPDEST POP PUSH2 0x259 PUSH2 0xFA6 JUMP JUMPDEST PUSH1 0x40 MLOAD PUSH2 0x19B SWAP2 SWAP1 PUSH2 0x4A27 JUMP JUMPDEST CALLVALUE DUP1 ISZERO PUSH2 0x272 JUMPI PUSH1 0x0 DUP1 REVERT JUMPDEST POP PUSH2 0x1C4 PUSH2 0x281 CALLDATASIZE PUSH1 0x4 PUSH2 0x44D1 JUMP JUMPDEST PUSH2 0xFFD JUMP JUMPDEST CALLVALUE DUP1 ISZERO PUSH2 0x292 JUMPI PUSH1 0x0 DUP1 REVERT JUMPDEST POP PUSH2 0x1C4 PUSH2 0x2A1 CALLDATASIZE PUSH1 0x4 PUSH2 0x4425 JUMP JUMPDEST PUSH2 0x11CA JUMP JUMPDEST CALLVALUE DUP1 ISZERO PUSH2 0x2B2 JUMPI PUSH1 0x0 DUP1 REVERT JUMPDEST POP PUSH2 0x1C4 PUSH2 0x2C1 CALLDATASIZE PUSH1 0x4 PUSH2 0x46D1 JUMP JUMPDEST PUSH2 0x130C JUMP JUMPDEST CALLVALUE DUP1 ISZERO PUSH2 0x2D2 JUMPI PUSH1 0x0 DUP1 REVERT JUMPDEST POP PUSH1 0x40 MLOAD SELFBALANCE DUP2 MSTORE PUSH1 0x20 ADD PUSH2 0x19B JUMP JUMPDEST CALLVALUE DUP1 ISZERO PUSH2 0x2ED JUMPI PUSH1 0x0 DUP1 REVERT JUMPDEST POP PUSH2 0x1C4 PUSH2 0x2FC CALLDATASIZE PUSH1 0x4 PUSH2 0x472E JUMP JUMPDEST PUSH2 0x1382 JUMP JUMPDEST CALLVALUE DUP1 ISZERO PUSH2 0x30D JUMPI PUSH1 0x0 DUP1 REVERT JUMPDEST POP PUSH2 0x32D PUSH2 0x31C CALLDATASIZE PUSH1 0x4 PUSH2 0x422A JUMP JUMPDEST PUSH4 0xBC197C81 PUSH1 0xE0 SHL SWAP6 SWAP5 POP POP POP POP POP JUMP JUMPDEST PUSH1 0x40 MLOAD PUSH1 0x1 PUSH1 0x1 PUSH1 0xE0 SHL SUB NOT SWAP1 SWAP2 AND DUP2 MSTORE PUSH1 0x20 ADD PUSH2 0x19B JUMP JUMPDEST CALLVALUE DUP1 ISZERO PUSH2 0x352 JUMPI PUSH1 0x0 DUP1 REVERT JUMPDEST POP PUSH2 0x1C4 PUSH2 0x361 CALLDATASIZE PUSH1 0x4 PUSH2 0x43A7 JUMP JUMPDEST PUSH2 0x191D JUMP JUMPDEST CALLVALUE DUP1 ISZERO PUSH2 0x372 JUMPI PUSH1 0x0 DUP1 REVERT JUMPDEST POP PUSH2 0x1C4 PUSH2 0x381 CALLDATASIZE PUSH1 0x4 PUSH2 0x472E JUMP JUMPDEST PUSH2 0x1A83 JUMP JUMPDEST PUSH2 0x1C4 PUSH2 0x1AF4 JUMP JUMPDEST CALLVALUE DUP1 ISZERO PUSH2 0x39A JUMPI PUSH1 0x0 DUP1 REVERT JUMPDEST POP PUSH2 0x18F PUSH2 0x3A9 CALLDATASIZE PUSH1 0x4 PUSH2 0x45DE JUMP JUMPDEST PUSH2 0x1B2B JUMP JUMPDEST CALLVALUE DUP1 ISZERO PUSH2 0x3BA JUMPI PUSH1 0x0 DUP1 REVERT JUMPDEST POP PUSH2 0x1C4 PUSH2 0x3C9 CALLDATASIZE PUSH1 0x4 PUSH2 0x45DE JUMP JUMPDEST PUSH2 0x1FF7 JUMP JUMPDEST CALLVALUE DUP1 ISZERO PUSH2 0x3DA JUMPI PUSH1 0x0 DUP1 REVERT JUMPDEST POP PUSH2 0x1C4 PUSH2 0x3E9 CALLDATASIZE PUSH1 0x4 PUSH2 0x45DE JUMP JUMPDEST PUSH2 0x24BF JUMP JUMPDEST CALLVALUE DUP1 ISZERO PUSH2 0x3FA JUMPI PUSH1 0x0 DUP1 REVERT JUMPDEST POP PUSH2 0x32D PUSH2 0x409 CALLDATASIZE PUSH1 0x4 PUSH2 0x42D0 JUMP JUMPDEST PUSH4 0xF23A6E61 PUSH1 0xE0 SHL SWAP6 SWAP5 POP POP POP POP POP JUMP JUMPDEST CALLVALUE DUP1 ISZERO PUSH2 0x426 JUMPI PUSH1 0x0 DUP1 REVERT JUMPDEST POP PUSH2 0x1C4 PUSH2 0x435 CALLDATASIZE PUSH1 0x4 PUSH2 0x472E JUMP JUMPDEST PUSH2 0x2A40 JUMP JUMPDEST CALLVALUE DUP1 ISZERO PUSH2 0x446 JUMPI PUSH1 0x0 DUP1 REVERT JUMPDEST POP PUSH2 0x45A PUSH2 0x455 CALLDATASIZE PUSH1 0x4 PUSH2 0x472E JUMP JUMPDEST PUSH2 0x2AB2 JUMP JUMPDEST PUSH1 0x40 MLOAD PUSH2 0x19B SWAP3 SWAP2 SWAP1 PUSH2 0x4A97 JUMP JUMPDEST PUSH1 0x0 PUSH1 0x1 PUSH1 0x1 PUSH1 0xE0 SHL SUB NOT DUP3 AND PUSH4 0x2711897 PUSH1 0xE5 SHL EQ DUP1 PUSH2 0x499 JUMPI POP PUSH4 0x1FFC9A7 PUSH1 0xE0 SHL PUSH1 0x1 PUSH1 0x1 PUSH1 0xE0 SHL SUB NOT DUP4 AND EQ JUMPDEST SWAP3 SWAP2 POP POP JUMP JUMPDEST CALLER PUSH2 0x4AB PUSH1 0x1 DUP3 PUSH2 0x2B23 JUMP JUMPDEST PUSH2 0x4B4 JUMPI PUSH1 0x0 DUP1 REVERT JUMPDEST PUSH1 0x40 DUP1 MLOAD PUSH1 0xC0 DUP2 ADD DUP3 MSTORE DUP5 DUP2 MSTORE PUSH1 0xFF DUP5 AND PUSH1 0x20 DUP1 DUP4 ADD SWAP2 SWAP1 SWAP2 MSTORE PUSH1 0x0 DUP1 SLOAD PUSH2 0xFFFF AND DUP4 DUP6 ADD DUP2 SWAP1 MSTORE TIMESTAMP PUSH1 0x60 DUP6 DUP2 ADD SWAP2 SWAP1 SWAP2 MSTORE PUSH1 0x80 DUP6 ADD DUP4 SWAP1 MSTORE PUSH1 0xA0 DUP6 ADD DUP2 SWAP1 MSTORE SWAP1 DUP3 MSTORE PUSH1 0x4 DUP4 MSTORE SWAP4 SWAP1 KECCAK256 DUP3 MLOAD DUP1 MLOAD SWAP2 SWAP3 PUSH2 0x513 SWAP3 DUP5 SWAP3 SWAP1 SWAP2 ADD SWAP1 PUSH2 0x3C6E JUMP JUMPDEST POP PUSH1 0x20 DUP3 DUP2 ADD MLOAD PUSH1 0x1 DUP4 ADD DUP1 SLOAD PUSH1 0x40 DUP7 ADD MLOAD PUSH2 0xFFFF AND PUSH2 0x100 MUL PUSH3 0xFFFFFF NOT SWAP1 SWAP2 AND PUSH1 0xFF SWAP1 SWAP4 AND SWAP3 SWAP1 SWAP3 OR SWAP2 SWAP1 SWAP2 OR SWAP1 SSTORE PUSH1 0x60 DUP4 ADD MLOAD PUSH1 0x2 DUP4 ADD SSTORE PUSH1 0x80 DUP4 ADD MLOAD PUSH1 0x3 DUP4 ADD SSTORE PUSH1 0xA0 DUP4 ADD MLOAD DUP1 MLOAD PUSH2 0x56F SWAP3 PUSH1 0x4 DUP6 ADD SWAP3 ADD SWAP1 PUSH2 0x3CF2 JUMP JUMPDEST POP POP PUSH1 0x0 DUP1 SLOAD PUSH2 0xFFFF AND SWAP2 POP DUP1 PUSH2 0x585 DUP4 PUSH2 0x4CD6 JUMP JUMPDEST DUP3 SLOAD PUSH2 0x100 SWAP3 SWAP1 SWAP3 EXP PUSH2 0xFFFF DUP2 DUP2 MUL NOT SWAP1 SWAP4 AND SWAP2 DUP4 AND MUL OR SWAP1 SWAP2 SSTORE PUSH1 0x0 SLOAD PUSH2 0x5B1 SWAP3 POP PUSH1 0x1 SWAP2 AND PUSH2 0x4C3B JUMP JUMPDEST PUSH2 0xFFFF AND DUP5 PUSH1 0x40 MLOAD PUSH2 0x5C3 SWAP2 SWAP1 PUSH2 0x494E JUMP JUMPDEST PUSH1 0x40 DUP1 MLOAD SWAP2 DUP3 SWAP1 SUB DUP3 KECCAK256 PUSH1 0xFF DUP8 AND DUP4 MSTORE TIMESTAMP PUSH1 0x20 DUP5 ADD MSTORE SWAP2 PUSH1 0x0 DUP1 MLOAD PUSH1 0x20 PUSH2 0x4D40 DUP4 CODECOPY DUP2 MLOAD SWAP2 MSTORE SWAP2 ADD PUSH1 0x40 MLOAD DUP1 SWAP2 SUB SWAP1 LOG3 POP POP POP POP JUMP JUMPDEST CALLER DUP7 PUSH2 0x635 DUP3 PUSH1 0x7 DUP4 PUSH1 0x4 DUP2 LT PUSH2 0x620 JUMPI PUSH4 0x4E487B71 PUSH1 0xE0 SHL PUSH1 0x0 MSTORE PUSH1 0x32 PUSH1 0x4 MSTORE PUSH1 0x24 PUSH1 0x0 REVERT JUMPDEST PUSH1 0x7 MUL ADD PUSH1 0x1 ADD PUSH2 0x2B23 SWAP1 SWAP2 SWAP1 PUSH4 0xFFFFFFFF AND JUMP JUMPDEST PUSH2 0x63E JUMPI PUSH1 0x0 DUP1 REVERT JUMPDEST PUSH2 0x680 DUP8 DUP8 DUP8 DUP8 DUP8 PUSH1 0x7 DUP15 PUSH1 0x4 DUP2 LT PUSH2 0x667 JUMPI PUSH4 0x4E487B71 PUSH1 0xE0 SHL PUSH1 0x0 MSTORE PUSH1 0x32 PUSH1 0x4 MSTORE PUSH1 0x24 PUSH1 0x0 REVERT JUMPDEST PUSH1 0x7 MUL ADD PUSH1 0x4 ADD PUSH2 0x2B45 SWAP1 SWAP6 SWAP5 SWAP4 SWAP3 SWAP2 SWAP1 PUSH4 0xFFFFFFFF AND JUMP JUMPDEST POP POP POP POP POP POP POP POP JUMP JUMPDEST PUSH2 0x692 PUSH2 0x3D47 JUMP JUMPDEST PUSH2 0x69A PUSH2 0x3D75 JUMP JUMPDEST PUSH2 0x6A2 PUSH2 0x3DB2 JUMP JUMPDEST PUSH2 0x6AA PUSH2 0x3DDE JUMP JUMPDEST PUSH2 0xFFFF DUP6 AND PUSH1 0x0 SWAP1 DUP2 MSTORE PUSH1 0x3 PUSH1 0x20 SWAP1 DUP2 MSTORE PUSH1 0x40 DUP1 DUP4 KECCAK256 PUSH1 0x4 DUP4 MSTORE DUP2 DUP5 KECCAK256 PUSH1 0x5 DUP5 MSTORE DUP3 DUP6 KECCAK256 PUSH1 0x6 SWAP1 SWAP5 MSTORE SWAP4 DUP3 SWAP1 KECCAK256 DUP3 MLOAD PUSH2 0x140 DUP2 ADD SWAP1 SWAP4 MSTORE DUP2 SLOAD SWAP2 SWAP5 SWAP4 SWAP3 SWAP1 SWAP2 DUP6 SWAP1 DUP3 SWAP1 PUSH1 0x80 DUP3 ADD SWAP1 DUP4 SWAP1 DUP3 SWAP1 DUP3 SWAP1 PUSH2 0x701 SWAP1 PUSH2 0x4CA1 JUMP JUMPDEST DUP1 PUSH1 0x1F ADD PUSH1 0x20 DUP1 SWAP2 DIV MUL PUSH1 0x20 ADD PUSH1 0x40 MLOAD SWAP1 DUP2 ADD PUSH1 0x40 MSTORE DUP1 SWAP3 SWAP2 SWAP1 DUP2 DUP2 MSTORE PUSH1 0x20 ADD DUP3 DUP1 SLOAD PUSH2 0x72D SWAP1 PUSH2 0x4CA1 JUMP JUMPDEST DUP1 ISZERO PUSH2 0x77A JUMPI DUP1 PUSH1 0x1F LT PUSH2 0x74F JUMPI PUSH2 0x100 DUP1 DUP4 SLOAD DIV MUL DUP4 MSTORE SWAP2 PUSH1 0x20 ADD SWAP2 PUSH2 0x77A JUMP JUMPDEST DUP3 ADD SWAP2 SWAP1 PUSH1 0x0 MSTORE PUSH1 0x20 PUSH1 0x0 KECCAK256 SWAP1 JUMPDEST DUP2 SLOAD DUP2 MSTORE SWAP1 PUSH1 0x1 ADD SWAP1 PUSH1 0x20 ADD DUP1 DUP4 GT PUSH2 0x75D JUMPI DUP3 SWAP1 SUB PUSH1 0x1F AND DUP3 ADD SWAP2 JUMPDEST POP POP POP SWAP2 DUP4 MSTORE POP POP PUSH1 0x1 DUP3 ADD SLOAD PUSH1 0xFF DUP2 AND PUSH1 0x20 DUP1 DUP5 ADD SWAP2 SWAP1 SWAP2 MSTORE PUSH2 0x100 SWAP1 SWAP2 DIV PUSH2 0xFFFF AND PUSH1 0x40 DUP1 DUP5 ADD SWAP2 SWAP1 SWAP2 MSTORE PUSH1 0x2 DUP5 ADD SLOAD PUSH1 0x60 DUP5 ADD MSTORE PUSH1 0x3 DUP5 ADD SLOAD PUSH1 0x80 DUP5 ADD MSTORE PUSH1 0x4 DUP5 ADD DUP1 SLOAD DUP3 MLOAD DUP2 DUP6 MUL DUP2 ADD DUP6 ADD SWAP1 SWAP4 MSTORE DUP1 DUP4 MSTORE PUSH1 0xA0 SWAP1 SWAP5 ADD SWAP4 SWAP2 SWAP3 SWAP1 SWAP2 SWAP1 DUP4 ADD DUP3 DUP3 DUP1 ISZERO PUSH2 0x814 JUMPI PUSH1 0x20 MUL DUP3 ADD SWAP2 SWAP1 PUSH1 0x0 MSTORE PUSH1 0x20 PUSH1 0x0 KECCAK256 SWAP1 JUMPDEST DUP2 SLOAD PUSH1 0x1 PUSH1 0x1 PUSH1 0xA0 SHL SUB AND DUP2 MSTORE PUSH1 0x1 SWAP1 SWAP2 ADD SWAP1 PUSH1 0x20 ADD DUP1 DUP4 GT PUSH2 0x7F6 JUMPI JUMPDEST POP POP POP POP POP DUP2 MSTORE POP POP DUP2 MSTORE PUSH1 0x20 ADD PUSH1 0x5 DUP3 ADD DUP1 SLOAD DUP1 PUSH1 0x20 MUL PUSH1 0x20 ADD PUSH1 0x40 MLOAD SWAP1 DUP2 ADD PUSH1 0x40 MSTORE DUP1 SWAP3 SWAP2 SWAP1 DUP2 DUP2 MSTORE PUSH1 0x20 ADD DUP3 DUP1 SLOAD DUP1 ISZERO PUSH2 0x87A JUMPI PUSH1 0x20 MUL DUP3 ADD SWAP2 SWAP1 PUSH1 0x0 MSTORE PUSH1 0x20 PUSH1 0x0 KECCAK256 SWAP1 JUMPDEST DUP2 SLOAD PUSH1 0x1 PUSH1 0x1 PUSH1 0xA0 SHL SUB AND DUP2 MSTORE PUSH1 0x1 SWAP1 SWAP2 ADD SWAP1 PUSH1 0x20 ADD DUP1 DUP4 GT PUSH2 0x85C JUMPI JUMPDEST POP POP POP POP POP DUP2 MSTORE PUSH1 0x20 ADD PUSH1 0x6 DUP3 ADD DUP1 SLOAD DUP1 PUSH1 0x20 MUL PUSH1 0x20 ADD PUSH1 0x40 MLOAD SWAP1 DUP2 ADD PUSH1 0x40 MSTORE DUP1 SWAP3 SWAP2 SWAP1 DUP2 DUP2 MSTORE PUSH1 0x20 ADD PUSH1 0x0 SWAP1 JUMPDEST DUP3 DUP3 LT ISZERO PUSH2 0x954 JUMPI DUP4 DUP3 SWAP1 PUSH1 0x0 MSTORE PUSH1 0x20 PUSH1 0x0 KECCAK256 ADD DUP1 SLOAD PUSH2 0x8C7 SWAP1 PUSH2 0x4CA1 JUMP JUMPDEST DUP1 PUSH1 0x1F ADD PUSH1 0x20 DUP1 SWAP2 DIV MUL PUSH1 0x20 ADD PUSH1 0x40 MLOAD SWAP1 DUP2 ADD PUSH1 0x40 MSTORE DUP1 SWAP3 SWAP2 SWAP1 DUP2 DUP2 MSTORE PUSH1 0x20 ADD DUP3 DUP1 SLOAD PUSH2 0x8F3 SWAP1 PUSH2 0x4CA1 JUMP JUMPDEST DUP1 ISZERO PUSH2 0x940 JUMPI DUP1 PUSH1 0x1F LT PUSH2 0x915 JUMPI PUSH2 0x100 DUP1 DUP4 SLOAD DIV MUL DUP4 MSTORE SWAP2 PUSH1 0x20 ADD SWAP2 PUSH2 0x940 JUMP JUMPDEST DUP3 ADD SWAP2 SWAP1 PUSH1 0x0 MSTORE PUSH1 0x20 PUSH1 0x0 KECCAK256 SWAP1 JUMPDEST DUP2 SLOAD DUP2 MSTORE SWAP1 PUSH1 0x1 ADD SWAP1 PUSH1 0x20 ADD DUP1 DUP4 GT PUSH2 0x923 JUMPI DUP3 SWAP1 SUB PUSH1 0x1F AND DUP3 ADD SWAP2 JUMPDEST POP POP POP POP POP DUP2 MSTORE PUSH1 0x20 ADD SWAP1 PUSH1 0x1 ADD SWAP1 PUSH2 0x8A8 JUMP JUMPDEST POP POP POP POP DUP2 MSTORE PUSH1 0x20 ADD PUSH1 0x7 DUP3 ADD DUP1 SLOAD DUP1 PUSH1 0x20 MUL PUSH1 0x20 ADD PUSH1 0x40 MLOAD SWAP1 DUP2 ADD PUSH1 0x40 MSTORE DUP1 SWAP3 SWAP2 SWAP1 DUP2 DUP2 MSTORE PUSH1 0x20 ADD DUP3 DUP1 SLOAD DUP1 ISZERO PUSH2 0x9AB JUMPI PUSH1 0x20 MUL DUP3 ADD SWAP2 SWAP1 PUSH1 0x0 MSTORE PUSH1 0x20 PUSH1 0x0 KECCAK256 SWAP1 JUMPDEST DUP2 SLOAD DUP2 MSTORE PUSH1 0x20 ADD SWAP1 PUSH1 0x1 ADD SWAP1 DUP1 DUP4 GT PUSH2 0x997 JUMPI JUMPDEST POP POP POP POP POP DUP2 MSTORE POP POP SWAP4 POP DUP3 PUSH1 0x40 MLOAD DUP1 PUSH1 0xC0 ADD PUSH1 0x40 MSTORE SWAP1 DUP2 PUSH1 0x0 DUP3 ADD DUP1 SLOAD PUSH2 0x9D2 SWAP1 PUSH2 0x4CA1 JUMP JUMPDEST DUP1 PUSH1 0x1F ADD PUSH1 0x20 DUP1 SWAP2 DIV MUL PUSH1 0x20 ADD PUSH1 0x40 MLOAD SWAP1 DUP2 ADD PUSH1 0x40 MSTORE DUP1 SWAP3 SWAP2 SWAP1 DUP2 DUP2 MSTORE PUSH1 0x20 ADD DUP3 DUP1 SLOAD PUSH2 0x9FE SWAP1 PUSH2 0x4CA1 JUMP JUMPDEST DUP1 ISZERO PUSH2 0xA4B JUMPI DUP1 PUSH1 0x1F LT PUSH2 0xA20 JUMPI PUSH2 0x100 DUP1 DUP4 SLOAD DIV MUL DUP4 MSTORE SWAP2 PUSH1 0x20 ADD SWAP2 PUSH2 0xA4B JUMP JUMPDEST DUP3 ADD SWAP2 SWAP1 PUSH1 0x0 MSTORE PUSH1 0x20 PUSH1 0x0 KECCAK256 SWAP1 JUMPDEST DUP2 SLOAD DUP2 MSTORE SWAP1 PUSH1 0x1 ADD SWAP1 PUSH1 0x20 ADD DUP1 DUP4 GT PUSH2 0xA2E JUMPI DUP3 SWAP1 SUB PUSH1 0x1F AND DUP3 ADD SWAP2 JUMPDEST POP POP POP SWAP2 DUP4 MSTORE POP POP PUSH1 0x1 DUP3 ADD SLOAD PUSH1 0xFF DUP2 AND PUSH1 0x20 DUP1 DUP5 ADD SWAP2 SWAP1 SWAP2 MSTORE PUSH2 0x100 SWAP1 SWAP2 DIV PUSH2 0xFFFF AND PUSH1 0x40 DUP1 DUP5 ADD SWAP2 SWAP1 SWAP2 MSTORE PUSH1 0x2 DUP5 ADD SLOAD PUSH1 0x60 DUP5 ADD MSTORE PUSH1 0x3 DUP5 ADD SLOAD PUSH1 0x80 DUP5 ADD MSTORE PUSH1 0x4 DUP5 ADD DUP1 SLOAD DUP3 MLOAD DUP2 DUP6 MUL DUP2 ADD DUP6 ADD SWAP1 SWAP4 MSTORE DUP1 DUP4 MSTORE PUSH1 0xA0 SWAP1 SWAP5 ADD SWAP4 SWAP2 SWAP3 SWAP1 SWAP2 SWAP1 DUP4 ADD DUP3 DUP3 DUP1 ISZERO PUSH2 0xAE5 JUMPI PUSH1 0x20 MUL DUP3 ADD SWAP2 SWAP1 PUSH1 0x0 MSTORE PUSH1 0x20 PUSH1 0x0 KECCAK256 SWAP1 JUMPDEST DUP2 SLOAD PUSH1 0x1 PUSH1 0x1 PUSH1 0xA0 SHL SUB AND DUP2 MSTORE PUSH1 0x1 SWAP1 SWAP2 ADD SWAP1 PUSH1 0x20 ADD DUP1 DUP4 GT PUSH2 0xAC7 JUMPI JUMPDEST POP POP POP POP POP DUP2 MSTORE POP POP SWAP3 POP DUP2 PUSH1 0x40 MLOAD DUP1 PUSH1 0x80 ADD PUSH1 0x40 MSTORE SWAP1 DUP2 PUSH1 0x0 DUP3 ADD PUSH1 0x40 MLOAD DUP1 PUSH1 0xC0 ADD PUSH1 0x40 MSTORE SWAP1 DUP2 PUSH1 0x0 DUP3 ADD DUP1 SLOAD PUSH2 0xB1C SWAP1 PUSH2 0x4CA1 JUMP JUMPDEST DUP1 PUSH1 0x1F ADD PUSH1 0x20 DUP1 SWAP2 DIV MUL PUSH1 0x20 ADD PUSH1 0x40 MLOAD SWAP1 DUP2 ADD PUSH1 0x40 MSTORE DUP1 SWAP3 SWAP2 SWAP1 DUP2 DUP2 MSTORE PUSH1 0x20 ADD DUP3 DUP1 SLOAD PUSH2 0xB48 SWAP1 PUSH2 0x4CA1 JUMP JUMPDEST DUP1 ISZERO PUSH2 0xB95 JUMPI DUP1 PUSH1 0x1F LT PUSH2 0xB6A JUMPI PUSH2 0x100 DUP1 DUP4 SLOAD DIV MUL DUP4 MSTORE SWAP2 PUSH1 0x20 ADD SWAP2 PUSH2 0xB95 JUMP JUMPDEST DUP3 ADD SWAP2 SWAP1 PUSH1 0x0 MSTORE PUSH1 0x20 PUSH1 0x0 KECCAK256 SWAP1 JUMPDEST DUP2 SLOAD DUP2 MSTORE SWAP1 PUSH1 0x1 ADD SWAP1 PUSH1 0x20 ADD DUP1 DUP4 GT PUSH2 0xB78 JUMPI DUP3 SWAP1 SUB PUSH1 0x1F AND DUP3 ADD SWAP2 JUMPDEST POP POP POP SWAP2 DUP4 MSTORE POP POP PUSH1 0x1 DUP3 ADD SLOAD PUSH1 0xFF DUP2 AND PUSH1 0x20 DUP1 DUP5 ADD SWAP2 SWAP1 SWAP2 MSTORE PUSH2 0x100 SWAP1 SWAP2 DIV PUSH2 0xFFFF AND PUSH1 0x40 DUP1 DUP5 ADD SWAP2 SWAP1 SWAP2 MSTORE PUSH1 0x2 DUP5 ADD SLOAD PUSH1 0x60 DUP5 ADD MSTORE PUSH1 0x3 DUP5 ADD SLOAD PUSH1 0x80 DUP5 ADD MSTORE PUSH1 0x4 DUP5 ADD DUP1 SLOAD DUP3 MLOAD DUP2 DUP6 MUL DUP2 ADD DUP6 ADD SWAP1 SWAP4 MSTORE DUP1 DUP4 MSTORE PUSH1 0xA0 SWAP1 SWAP5 ADD SWAP4 SWAP2 SWAP3 SWAP1 SWAP2 SWAP1 DUP4 ADD DUP3 DUP3 DUP1 ISZERO PUSH2 0xC2F JUMPI PUSH1 0x20 MUL DUP3 ADD SWAP2 SWAP1 PUSH1 0x0 MSTORE PUSH1 0x20 PUSH1 0x0 KECCAK256 SWAP1 JUMPDEST DUP2 SLOAD PUSH1 0x1 PUSH1 0x1 PUSH1 0xA0 SHL SUB AND DUP2 MSTORE PUSH1 0x1 SWAP1 SWAP2 ADD SWAP1 PUSH1 0x20 ADD DUP1 DUP4 GT PUSH2 0xC11 JUMPI JUMPDEST POP POP POP POP POP DUP2 MSTORE POP POP DUP2 MSTORE PUSH1 0x20 ADD PUSH1 0x5 DUP3 ADD DUP1 SLOAD DUP1 PUSH1 0x20 MUL PUSH1 0x20 ADD PUSH1 0x40 MLOAD SWAP1 DUP2 ADD PUSH1 0x40 MSTORE DUP1 SWAP3 SWAP2 SWAP1 DUP2 DUP2 MSTORE PUSH1 0x20 ADD DUP3 DUP1 SLOAD DUP1 ISZERO PUSH2 0xC95 JUMPI PUSH1 0x20 MUL DUP3 ADD SWAP2 SWAP1 PUSH1 0x0 MSTORE PUSH1 0x20 PUSH1 0x0 KECCAK256 SWAP1 JUMPDEST DUP2 SLOAD PUSH1 0x1 PUSH1 0x1 PUSH1 0xA0 SHL SUB AND DUP2 MSTORE PUSH1 0x1 SWAP1 SWAP2 ADD SWAP1 PUSH1 0x20 ADD DUP1 DUP4 GT PUSH2 0xC77 JUMPI JUMPDEST POP POP POP SWAP2 DUP4 MSTORE POP POP PUSH1 0x6 DUP3 ADD SLOAD PUSH1 0xFF AND ISZERO ISZERO PUSH1 0x20 DUP1 DUP4 ADD SWAP2 SWAP1 SWAP2 MSTORE PUSH1 0x7 DUP4 ADD DUP1 SLOAD PUSH1 0x40 DUP1 MLOAD DUP3 DUP6 MUL DUP2 ADD DUP6 ADD DUP3 MSTORE DUP3 DUP2 MSTORE SWAP5 ADD SWAP4 SWAP3 DUP4 ADD DUP3 DUP3 DUP1 ISZERO PUSH2 0xD17 JUMPI PUSH1 0x20 MUL DUP3 ADD SWAP2 SWAP1 PUSH1 0x0 MSTORE PUSH1 0x20 PUSH1 0x0 KECCAK256 SWAP1 PUSH1 0x0 SWAP1 JUMPDEST DUP3 SLOAD PUSH2 0x100 DUP4 SWAP1 EXP SWAP1 DIV PUSH1 0xFF AND DUP2 MSTORE PUSH1 0x20 PUSH1 0x1 SWAP3 DUP4 ADD DUP2 DUP2 DIV SWAP5 DUP6 ADD SWAP5 SWAP1 SWAP4 SUB SWAP1 SWAP3 MUL SWAP2 ADD DUP1 DUP5 GT PUSH2 0xCE8 JUMPI SWAP1 POP JUMPDEST POP POP POP POP POP DUP2 MSTORE POP POP SWAP2 POP DUP1 PUSH1 0x40 MLOAD DUP1 PUSH1 0x80 ADD PUSH1 0x40 MSTORE SWAP1 DUP2 PUSH1 0x0 DUP3 ADD PUSH1 0x40 MLOAD DUP1 PUSH1 0xC0 ADD PUSH1 0x40 MSTORE SWAP1 DUP2 PUSH1 0x0 DUP3 ADD DUP1 SLOAD PUSH2 0xD4E SWAP1 PUSH2 0x4CA1 JUMP JUMPDEST DUP1 PUSH1 0x1F ADD PUSH1 0x20 DUP1 SWAP2 DIV MUL PUSH1 0x20 ADD PUSH1 0x40 MLOAD SWAP1 DUP2 ADD PUSH1 0x40 MSTORE DUP1 SWAP3 SWAP2 SWAP1 DUP2 DUP2 MSTORE PUSH1 0x20 ADD DUP3 DUP1 SLOAD PUSH2 0xD7A SWAP1 PUSH2 0x4CA1 JUMP JUMPDEST DUP1 ISZERO PUSH2 0xDC7 JUMPI DUP1 PUSH1 0x1F LT PUSH2 0xD9C JUMPI PUSH2 0x100 DUP1 DUP4 SLOAD DIV MUL DUP4 MSTORE SWAP2 PUSH1 0x20 ADD SWAP2 PUSH2 0xDC7 JUMP JUMPDEST DUP3 ADD SWAP2 SWAP1 PUSH1 0x0 MSTORE PUSH1 0x20 PUSH1 0x0 KECCAK256 SWAP1 JUMPDEST DUP2 SLOAD DUP2 MSTORE SWAP1 PUSH1 0x1 ADD SWAP1 PUSH1 0x20 ADD DUP1 DUP4 GT PUSH2 0xDAA JUMPI DUP3 SWAP1 SUB PUSH1 0x1F AND DUP3 ADD SWAP2 JUMPDEST POP POP POP SWAP2 DUP4 MSTORE POP POP PUSH1 0x1 DUP3 ADD SLOAD PUSH1 0xFF DUP2 AND PUSH1 0x20 DUP1 DUP5 ADD SWAP2 SWAP1 SWAP2 MSTORE PUSH2 0x100 SWAP1 SWAP2 DIV PUSH2 0xFFFF AND PUSH1 0x40 DUP1 DUP5 ADD SWAP2 SWAP1 SWAP2 MSTORE PUSH1 0x2 DUP5 ADD SLOAD PUSH1 0x60 DUP5 ADD MSTORE PUSH1 0x3 DUP5 ADD SLOAD PUSH1 0x80 DUP5 ADD MSTORE PUSH1 0x4 DUP5 ADD DUP1 SLOAD DUP3 MLOAD DUP2 DUP6 MUL DUP2 ADD DUP6 ADD SWAP1 SWAP4 MSTORE DUP1 DUP4 MSTORE PUSH1 0xA0 SWAP1 SWAP5 ADD SWAP4 SWAP2 SWAP3 SWAP1 SWAP2 SWAP1 DUP4 ADD DUP3 DUP3 DUP1 ISZERO PUSH2 0xE61 JUMPI PUSH1 0x20 MUL DUP3 ADD SWAP2 SWAP1 PUSH1 0x0 MSTORE PUSH1 0x20 PUSH1 0x0 KECCAK256 SWAP1 JUMPDEST DUP2 SLOAD PUSH1 0x1 PUSH1 0x1 PUSH1 0xA0 SHL SUB AND DUP2 MSTORE PUSH1 0x1 SWAP1 SWAP2 ADD SWAP1 PUSH1 0x20 ADD DUP1 DUP4 GT PUSH2 0xE43 JUMPI JUMPDEST POP POP POP SWAP2 SWAP1 SWAP3 MSTORE POP POP POP DUP2 MSTORE PUSH1 0x5 SWAP2 SWAP1 SWAP2 ADD SLOAD PUSH1 0x1 PUSH1 0x1 PUSH1 0xA0 SHL SUB DUP2 AND PUSH1 0x20 DUP4 ADD MSTORE PUSH1 0xFF PUSH1 0x1 PUSH1 0xA0 SHL DUP3 DIV DUP2 AND PUSH1 0x40 DUP5 ADD MSTORE PUSH1 0x1 PUSH1 0xA8 SHL SWAP1 SWAP2 DIV AND PUSH1 0x60 SWAP1 SWAP2 ADD MSTORE SWAP4 SWAP10 SWAP3 SWAP9 POP SWAP1 SWAP7 POP SWAP2 SWAP5 POP SWAP3 POP POP POP JUMP JUMPDEST PUSH1 0x0 PUSH1 0x60 DUP1 PUSH1 0x0 JUMPDEST PUSH2 0xEEB PUSH1 0x7 DUP7 PUSH1 0x4 DUP2 LT PUSH2 0xEDF JUMPI PUSH4 0x4E487B71 PUSH1 0xE0 SHL PUSH1 0x0 MSTORE PUSH1 0x32 PUSH1 0x4 MSTORE PUSH1 0x24 PUSH1 0x0 REVERT JUMPDEST PUSH1 0x7 MUL ADD PUSH1 0x1 ADD PUSH2 0x2CF5 JUMP JUMPDEST DUP2 LT ISZERO PUSH2 0xF76 JUMPI PUSH2 0xF2C DUP2 PUSH1 0x7 DUP8 PUSH1 0x4 DUP2 LT PUSH2 0xF17 JUMPI PUSH4 0x4E487B71 PUSH1 0xE0 SHL PUSH1 0x0 MSTORE PUSH1 0x32 PUSH1 0x4 MSTORE PUSH1 0x24 PUSH1 0x0 REVERT JUMPDEST PUSH1 0x7 MUL ADD PUSH1 0x1 ADD PUSH2 0x2CFF SWAP1 SWAP2 SWAP1 PUSH4 0xFFFFFFFF AND JUMP JUMPDEST DUP3 DUP3 DUP2 MLOAD DUP2 LT PUSH2 0xF4C JUMPI PUSH4 0x4E487B71 PUSH1 0xE0 SHL PUSH1 0x0 MSTORE PUSH1 0x32 PUSH1 0x4 MSTORE PUSH1 0x24 PUSH1 0x0 REVERT JUMPDEST PUSH1 0x1 PUSH1 0x1 PUSH1 0xA0 SHL SUB SWAP1 SWAP3 AND PUSH1 0x20 SWAP3 DUP4 MUL SWAP2 SWAP1 SWAP2 ADD SWAP1 SWAP2 ADD MSTORE DUP1 PUSH2 0xF6E DUP2 PUSH2 0x4CF8 JUMP JUMPDEST SWAP2 POP POP PUSH2 0xEBB JUMP JUMPDEST POP PUSH1 0x7 DUP5 PUSH1 0x4 DUP2 LT PUSH2 0xF98 JUMPI PUSH4 0x4E487B71 PUSH1 0xE0 SHL PUSH1 0x0 MSTORE PUSH1 0x32 PUSH1 0x4 MSTORE PUSH1 0x24 PUSH1 0x0 REVERT JUMPDEST PUSH1 0x7 MUL ADD SLOAD SWAP5 SWAP1 SWAP4 POP SWAP2 POP POP JUMP JUMPDEST PUSH1 0x1 DUP1 SLOAD PUSH1 0x40 DUP1 MLOAD PUSH1 0x20 DUP1 DUP5 MUL DUP3 ADD DUP2 ADD SWAP1 SWAP3 MSTORE DUP3 DUP2 MSTORE PUSH1 0x60 SWAP4 SWAP1 SWAP3 SWAP1 SWAP2 DUP4 ADD DUP3 DUP3 DUP1 ISZERO PUSH2 0xFF3 JUMPI PUSH1 0x20 MUL DUP3 ADD SWAP2 SWAP1 PUSH1 0x0 MSTORE PUSH1 0x20 PUSH1 0x0 KECCAK256 SWAP1 JUMPDEST DUP2 SLOAD DUP2 MSTORE PUSH1 0x20 ADD SWAP1 PUSH1 0x1 ADD SWAP1 DUP1 DUP4 GT PUSH2 0xFDF JUMPI JUMPDEST POP POP POP POP POP SWAP1 POP SWAP1 JUMP JUMPDEST CALLER PUSH2 0x1009 PUSH1 0x1 DUP3 PUSH2 0x2B23 JUMP JUMPDEST PUSH2 0x1012 JUMPI PUSH1 0x0 DUP1 REVERT JUMPDEST PUSH1 0x40 DUP1 MLOAD PUSH2 0x140 DUP2 ADD DUP3 MSTORE PUSH1 0x80 DUP2 ADD DUP9 DUP2 MSTORE PUSH1 0xFF DUP9 AND PUSH1 0xA0 DUP4 ADD MSTORE PUSH1 0x0 DUP1 SLOAD PUSH2 0xFFFF AND PUSH1 0xC0 DUP5 ADD DUP2 SWAP1 MSTORE TIMESTAMP PUSH1 0xE0 DUP6 ADD MSTORE PUSH2 0x100 DUP5 ADD DUP3 SWAP1 MSTORE PUSH1 0x60 PUSH2 0x120 DUP6 ADD DUP2 SWAP1 MSTORE SWAP3 DUP5 MSTORE PUSH1 0x20 DUP1 DUP6 ADD DUP11 SWAP1 MSTORE DUP9 ISZERO ISZERO DUP6 DUP8 ADD MSTORE DUP5 DUP5 ADD DUP9 SWAP1 MSTORE SWAP1 DUP3 MSTORE PUSH1 0x5 DUP2 MSTORE SWAP4 SWAP1 KECCAK256 DUP3 MLOAD DUP1 MLOAD DUP1 MLOAD SWAP4 SWAP6 SWAP3 SWAP4 SWAP2 SWAP3 DUP5 SWAP3 PUSH2 0x1091 SWAP3 DUP5 SWAP3 ADD SWAP1 PUSH2 0x3C6E JUMP JUMPDEST POP PUSH1 0x20 DUP3 DUP2 ADD MLOAD PUSH1 0x1 DUP4 ADD DUP1 SLOAD PUSH1 0x40 DUP7 ADD MLOAD PUSH2 0xFFFF AND PUSH2 0x100 MUL PUSH3 0xFFFFFF NOT SWAP1 SWAP2 AND PUSH1 0xFF SWAP1 SWAP4 AND SWAP3 SWAP1 SWAP3 OR SWAP2 SWAP1 SWAP2 OR SWAP1 SSTORE PUSH1 0x60 DUP4 ADD MLOAD PUSH1 0x2 DUP4 ADD SSTORE PUSH1 0x80 DUP4 ADD MLOAD PUSH1 0x3 DUP4 ADD SSTORE PUSH1 0xA0 DUP4 ADD MLOAD DUP1 MLOAD PUSH2 0x10ED SWAP3 PUSH1 0x4 DUP6 ADD SWAP3 ADD SWAP1 PUSH2 0x3CF2 JUMP JUMPDEST POP POP POP PUSH1 0x20 DUP3 DUP2 ADD MLOAD DUP1 MLOAD PUSH2 0x1108 SWAP3 PUSH1 0x5 DUP6 ADD SWAP3 ADD SWAP1 PUSH2 0x3CF2 JUMP JUMPDEST POP PUSH1 0x40 DUP3 ADD MLOAD PUSH1 0x6 DUP3 ADD DUP1 SLOAD PUSH1 0xFF NOT AND SWAP2 ISZERO ISZERO SWAP2 SWAP1 SWAP2 OR SWAP1 SSTORE PUSH1 0x60 DUP3 ADD MLOAD DUP1 MLOAD PUSH2 0x113C SWAP2 PUSH1 0x7 DUP5 ADD SWAP2 PUSH1 0x20 SWAP1 SWAP2 ADD SWAP1 PUSH2 0x3E0C JUMP JUMPDEST POP POP PUSH1 0x0 DUP1 SLOAD PUSH2 0xFFFF AND SWAP2 POP DUP1 PUSH2 0x1152 DUP4 PUSH2 0x4CD6 JUMP JUMPDEST DUP3 SLOAD PUSH2 0x100 SWAP3 SWAP1 SWAP3 EXP PUSH2 0xFFFF DUP2 DUP2 MUL NOT SWAP1 SWAP4 AND SWAP2 DUP4 AND MUL OR SWAP1 SWAP2 SSTORE PUSH1 0x0 SLOAD PUSH2 0x117E SWAP3 POP PUSH1 0x1 SWAP2 AND PUSH2 0x4C3B JUMP JUMPDEST PUSH2 0xFFFF AND DUP8 PUSH1 0x40 MLOAD PUSH2 0x1190 SWAP2 SWAP1 PUSH2 0x494E JUMP JUMPDEST PUSH1 0x40 DUP1 MLOAD SWAP2 DUP3 SWAP1 SUB DUP3 KECCAK256 PUSH1 0xFF DUP11 AND DUP4 MSTORE TIMESTAMP PUSH1 0x20 DUP5 ADD MSTORE SWAP2 PUSH1 0x0 DUP1 MLOAD PUSH1 0x20 PUSH2 0x4D40 DUP4 CODECOPY DUP2 MLOAD SWAP2 MSTORE SWAP2 ADD JUMPDEST PUSH1 0x40 MLOAD DUP1 SWAP2 SUB SWAP1 LOG3 POP POP POP POP POP POP POP JUMP JUMPDEST CALLER PUSH2 0x11D6 PUSH1 0x1 DUP3 PUSH2 0x2B23 JUMP JUMPDEST PUSH2 0x11DF JUMPI PUSH1 0x0 DUP1 REVERT JUMPDEST PUSH1 0x40 DUP1 MLOAD PUSH2 0x140 DUP2 ADD DUP3 MSTORE PUSH1 0x80 DUP2 ADD DUP9 DUP2 MSTORE PUSH1 0xFF DUP9 AND PUSH1 0xA0 DUP4 ADD MSTORE PUSH1 0x0 DUP1 SLOAD PUSH2 0xFFFF AND PUSH1 0xC0 DUP5 ADD DUP2 SWAP1 MSTORE TIMESTAMP PUSH1 0xE0 DUP6 ADD MSTORE PUSH2 0x100 DUP5 ADD DUP3 SWAP1 MSTORE PUSH1 0x60 PUSH2 0x120 DUP6 ADD DUP2 SWAP1 MSTORE SWAP3 DUP5 MSTORE PUSH1 0x20 DUP1 DUP6 ADD DUP11 SWAP1 MSTORE DUP5 DUP7 ADD DUP10 SWAP1 MSTORE DUP5 DUP5 ADD DUP9 SWAP1 MSTORE SWAP1 DUP3 MSTORE PUSH1 0x3 DUP2 MSTORE SWAP4 SWAP1 KECCAK256 DUP3 MLOAD DUP1 MLOAD DUP1 MLOAD SWAP4 SWAP6 SWAP3 SWAP4 SWAP2 SWAP3 DUP5 SWAP3 PUSH2 0x125D SWAP3 DUP5 SWAP3 ADD SWAP1 PUSH2 0x3C6E JUMP JUMPDEST POP PUSH1 0x20 DUP3 DUP2 ADD MLOAD PUSH1 0x1 DUP4 ADD DUP1 SLOAD PUSH1 0x40 DUP7 ADD MLOAD PUSH2 0xFFFF AND PUSH2 0x100 MUL PUSH3 0xFFFFFF NOT SWAP1 SWAP2 AND PUSH1 0xFF SWAP1 SWAP4 AND SWAP3 SWAP1 SWAP3 OR SWAP2 SWAP1 SWAP2 OR SWAP1 SSTORE PUSH1 0x60 DUP4 ADD MLOAD PUSH1 0x2 DUP4 ADD SSTORE PUSH1 0x80 DUP4 ADD MLOAD PUSH1 0x3 DUP4 ADD SSTORE PUSH1 0xA0 DUP4 ADD MLOAD DUP1 MLOAD PUSH2 0x12B9 SWAP3 PUSH1 0x4 DUP6 ADD SWAP3 ADD SWAP1 PUSH2 0x3CF2 JUMP JUMPDEST POP POP POP PUSH1 0x20 DUP3 DUP2 ADD MLOAD DUP1 MLOAD PUSH2 0x12D4 SWAP3 PUSH1 0x5 DUP6 ADD SWAP3 ADD SWAP1 PUSH2 0x3CF2 JUMP JUMPDEST POP PUSH1 0x40 DUP3 ADD MLOAD DUP1 MLOAD PUSH2 0x12F0 SWAP2 PUSH1 0x6 DUP5 ADD SWAP2 PUSH1 0x20 SWAP1 SWAP2 ADD SWAP1 PUSH2 0x3EAD JUMP JUMPDEST POP PUSH1 0x60 DUP3 ADD MLOAD DUP1 MLOAD PUSH2 0x113C SWAP2 PUSH1 0x7 DUP5 ADD SWAP2 PUSH1 0x20 SWAP1 SWAP2 ADD SWAP1 PUSH2 0x3F06 JUMP JUMPDEST CALLER DUP5 PUSH2 0x1333 DUP3 PUSH1 0x7 DUP4 PUSH1 0x4 DUP2 LT PUSH2 0x620 JUMPI PUSH4 0x4E487B71 PUSH1 0xE0 SHL PUSH1 0x0 MSTORE PUSH1 0x32 PUSH1 0x4 MSTORE PUSH1 0x24 PUSH1 0x0 REVERT JUMPDEST PUSH2 0x133C JUMPI PUSH1 0x0 DUP1 REVERT JUMPDEST PUSH2 0x137A DUP6 DUP6 DUP6 PUSH1 0x7 DUP11 PUSH1 0x4 DUP2 LT PUSH2 0x1363 JUMPI PUSH4 0x4E487B71 PUSH1 0xE0 SHL PUSH1 0x0 MSTORE PUSH1 0x32 PUSH1 0x4 MSTORE PUSH1 0x24 PUSH1 0x0 REVERT JUMPDEST PUSH1 0x7 MUL ADD PUSH1 0x4 ADD PUSH2 0x2D0B SWAP1 SWAP4 SWAP3 SWAP2 SWAP1 PUSH4 0xFFFFFFFF AND JUMP JUMPDEST POP POP POP POP POP POP JUMP JUMPDEST PUSH1 0x0 DUP3 DUP2 MSTORE PUSH1 0x24 PUSH1 0x20 SWAP1 DUP2 MSTORE PUSH1 0x40 DUP1 DUP4 KECCAK256 PUSH2 0xFFFF DUP6 AND DUP5 MSTORE SWAP1 SWAP2 MSTORE SWAP1 KECCAK256 SLOAD PUSH1 0xFF AND ISZERO PUSH2 0x13AD JUMPI PUSH1 0x0 DUP1 REVERT JUMPDEST PUSH1 0x7 DUP3 PUSH1 0x4 DUP2 LT PUSH2 0x13CE JUMPI PUSH4 0x4E487B71 PUSH1 0xE0 SHL PUSH1 0x0 MSTORE PUSH1 0x32 PUSH1 0x4 MSTORE PUSH1 0x24 PUSH1 0x0 REVERT JUMPDEST PUSH2 0xFFFF DUP4 DUP2 AND PUSH1 0x0 SWAP1 DUP2 MSTORE PUSH1 0x7 SWAP3 SWAP1 SWAP3 MUL SWAP3 SWAP1 SWAP3 ADD PUSH1 0x5 ADD PUSH1 0x20 MSTORE PUSH1 0x40 SWAP1 KECCAK256 PUSH1 0x1 ADD SLOAD PUSH2 0x100 SWAP1 DIV AND ISZERO DUP1 ISZERO SWAP1 PUSH2 0x1475 JUMPI POP PUSH1 0x2 PUSH2 0x1426 PUSH1 0x7 DUP5 PUSH1 0x4 DUP2 LT PUSH2 0xEDF JUMPI PUSH4 0x4E487B71 PUSH1 0xE0 SHL PUSH1 0x0 MSTORE PUSH1 0x32 PUSH1 0x4 MSTORE PUSH1 0x24 PUSH1 0x0 REVERT JUMPDEST PUSH2 0x1430 SWAP2 SWAP1 PUSH2 0x4BF0 JUMP JUMPDEST PUSH1 0x7 DUP4 PUSH1 0x4 DUP2 LT PUSH2 0x1451 JUMPI PUSH4 0x4E487B71 PUSH1 0xE0 SHL PUSH1 0x0 MSTORE PUSH1 0x32 PUSH1 0x4 MSTORE PUSH1 0x24 PUSH1 0x0 REVERT JUMPDEST PUSH2 0xFFFF DUP5 AND PUSH1 0x0 SWAP1 DUP2 MSTORE PUSH1 0x5 PUSH1 0x7 SWAP3 SWAP1 SWAP3 MUL SWAP3 SWAP1 SWAP3 ADD ADD PUSH1 0x20 MSTORE PUSH1 0x40 SWAP1 KECCAK256 PUSH1 0x3 ADD SLOAD GT JUMPDEST ISZERO PUSH2 0x1672 JUMPI PUSH1 0x0 PUSH1 0x7 DUP4 PUSH1 0x4 DUP2 LT PUSH2 0x149D JUMPI PUSH4 0x4E487B71 PUSH1 0xE0 SHL PUSH1 0x0 MSTORE PUSH1 0x32 PUSH1 0x4 MSTORE PUSH1 0x24 PUSH1 0x0 REVERT JUMPDEST PUSH2 0xFFFF DUP5 AND PUSH1 0x0 DUP2 DUP2 MSTORE PUSH1 0x5 PUSH1 0x7 SWAP4 SWAP1 SWAP4 MUL SWAP4 SWAP1 SWAP4 ADD SWAP2 SWAP1 SWAP2 ADD PUSH1 0x20 SWAP1 DUP2 MSTORE PUSH1 0x40 DUP1 DUP5 KECCAK256 DUP8 DUP6 MSTORE PUSH1 0x24 DUP4 MSTORE DUP2 DUP6 KECCAK256 SWAP4 DUP6 MSTORE SWAP3 SWAP1 SWAP2 MSTORE DUP3 KECCAK256 DUP1 SLOAD PUSH1 0xFF NOT AND PUSH1 0x1 OR SWAP1 SSTORE SWAP2 POP JUMPDEST PUSH1 0x5 DUP3 ADD SLOAD DUP2 LT ISZERO PUSH2 0x1628 JUMPI PUSH2 0x1616 DUP3 PUSH1 0x5 ADD DUP3 DUP2 SLOAD DUP2 LT PUSH2 0x1514 JUMPI PUSH4 0x4E487B71 PUSH1 0xE0 SHL PUSH1 0x0 MSTORE PUSH1 0x32 PUSH1 0x4 MSTORE PUSH1 0x24 PUSH1 0x0 REVERT JUMPDEST PUSH1 0x0 SWAP2 DUP3 MSTORE PUSH1 0x20 SWAP1 SWAP2 KECCAK256 ADD SLOAD PUSH1 0x6 DUP5 ADD DUP1 SLOAD PUSH1 0x1 PUSH1 0x1 PUSH1 0xA0 SHL SUB SWAP1 SWAP3 AND SWAP2 DUP5 SWAP1 DUP2 LT PUSH2 0x1550 JUMPI PUSH4 0x4E487B71 PUSH1 0xE0 SHL PUSH1 0x0 MSTORE PUSH1 0x32 PUSH1 0x4 MSTORE PUSH1 0x24 PUSH1 0x0 REVERT JUMPDEST SWAP1 PUSH1 0x0 MSTORE PUSH1 0x20 PUSH1 0x0 KECCAK256 ADD DUP1 SLOAD PUSH2 0x1565 SWAP1 PUSH2 0x4CA1 JUMP JUMPDEST DUP1 PUSH1 0x1F ADD PUSH1 0x20 DUP1 SWAP2 DIV MUL PUSH1 0x20 ADD PUSH1 0x40 MLOAD SWAP1 DUP2 ADD PUSH1 0x40 MSTORE DUP1 SWAP3 SWAP2 SWAP1 DUP2 DUP2 MSTORE PUSH1 0x20 ADD DUP3 DUP1 SLOAD PUSH2 0x1591 SWAP1 PUSH2 0x4CA1 JUMP JUMPDEST DUP1 ISZERO PUSH2 0x15DE JUMPI DUP1 PUSH1 0x1F LT PUSH2 0x15B3 JUMPI PUSH2 0x100 DUP1 DUP4 SLOAD DIV MUL DUP4 MSTORE SWAP2 PUSH1 0x20 ADD SWAP2 PUSH2 0x15DE JUMP JUMPDEST DUP3 ADD SWAP2 SWAP1 PUSH1 0x0 MSTORE PUSH1 0x20 PUSH1 0x0 KECCAK256 SWAP1 JUMPDEST DUP2 SLOAD DUP2 MSTORE SWAP1 PUSH1 0x1 ADD SWAP1 PUSH1 0x20 ADD DUP1 DUP4 GT PUSH2 0x15C1 JUMPI DUP3 SWAP1 SUB PUSH1 0x1F AND DUP3 ADD SWAP2 JUMPDEST POP POP POP POP POP DUP5 PUSH1 0x7 ADD DUP5 DUP2 SLOAD DUP2 LT PUSH2 0x1606 JUMPI PUSH4 0x4E487B71 PUSH1 0xE0 SHL PUSH1 0x0 MSTORE PUSH1 0x32 PUSH1 0x4 MSTORE PUSH1 0x24 PUSH1 0x0 REVERT JUMPDEST SWAP1 PUSH1 0x0 MSTORE PUSH1 0x20 PUSH1 0x0 KECCAK256 ADD SLOAD PUSH2 0x2E71 JUMP JUMPDEST DUP1 PUSH2 0x1620 DUP2 PUSH2 0x4CF8 JUMP JUMPDEST SWAP2 POP POP PUSH2 0x14E2 JUMP JUMPDEST POP PUSH1 0x40 MLOAD PUSH2 0x1637 SWAP1 DUP3 SWAP1 PUSH2 0x496A JUMP JUMPDEST PUSH1 0x40 MLOAD SWAP1 DUP2 SWAP1 SUB DUP2 KECCAK256 PUSH1 0x1 DUP4 ADD SLOAD PUSH2 0x100 SWAP1 DIV PUSH2 0xFFFF AND DUP3 MSTORE SWAP1 PUSH1 0x0 DUP1 MLOAD PUSH1 0x20 PUSH2 0x4D60 DUP4 CODECOPY DUP2 MLOAD SWAP2 MSTORE SWAP1 PUSH1 0x20 ADD JUMPDEST PUSH1 0x40 MLOAD DUP1 SWAP2 SUB SWAP1 LOG2 POP POP POP JUMP JUMPDEST PUSH1 0x7 DUP3 PUSH1 0x4 DUP2 LT PUSH2 0x1693 JUMPI PUSH4 0x4E487B71 PUSH1 0xE0 SHL PUSH1 0x0 MSTORE PUSH1 0x32 PUSH1 0x4 MSTORE PUSH1 0x24 PUSH1 0x0 REVERT JUMPDEST PUSH2 0xFFFF DUP4 DUP2 AND PUSH1 0x0 SWAP1 DUP2 MSTORE PUSH1 0x7 SWAP3 SWAP1 SWAP3 MUL SWAP3 SWAP1 SWAP3 ADD PUSH1 0x6 ADD PUSH1 0x20 MSTORE PUSH1 0x40 SWAP1 KECCAK256 PUSH1 0x1 ADD SLOAD PUSH2 0x100 SWAP1 DIV AND ISZERO DUP1 ISZERO SWAP1 PUSH2 0x173A JUMPI POP PUSH1 0x2 PUSH2 0x16EB PUSH1 0x7 DUP5 PUSH1 0x4 DUP2 LT PUSH2 0xEDF JUMPI PUSH4 0x4E487B71 PUSH1 0xE0 SHL PUSH1 0x0 MSTORE PUSH1 0x32 PUSH1 0x4 MSTORE PUSH1 0x24 PUSH1 0x0 REVERT JUMPDEST PUSH2 0x16F5 SWAP2 SWAP1 PUSH2 0x4BF0 JUMP JUMPDEST PUSH1 0x7 DUP4 PUSH1 0x4 DUP2 LT PUSH2 0x1716 JUMPI PUSH4 0x4E487B71 PUSH1 0xE0 SHL PUSH1 0x0 MSTORE PUSH1 0x32 PUSH1 0x4 MSTORE PUSH1 0x24 PUSH1 0x0 REVERT JUMPDEST PUSH2 0xFFFF DUP5 AND PUSH1 0x0 SWAP1 DUP2 MSTORE PUSH1 0x6 PUSH1 0x7 SWAP3 SWAP1 SWAP3 MUL SWAP3 SWAP1 SWAP3 ADD ADD PUSH1 0x20 MSTORE PUSH1 0x40 SWAP1 KECCAK256 PUSH1 0x3 ADD SLOAD GT JUMPDEST ISZERO PUSH2 0x1919 JUMPI PUSH1 0x0 PUSH1 0x7 DUP4 PUSH1 0x4 DUP2 LT PUSH2 0x1762 JUMPI PUSH4 0x4E487B71 PUSH1 0xE0 SHL PUSH1 0x0 MSTORE PUSH1 0x32 PUSH1 0x4 MSTORE PUSH1 0x24 PUSH1 0x0 REVERT JUMPDEST PUSH2 0xFFFF DUP5 AND PUSH1 0x0 DUP2 DUP2 MSTORE PUSH1 0x6 PUSH1 0x7 SWAP4 SWAP1 SWAP4 MUL SWAP4 SWAP1 SWAP4 ADD SWAP2 SWAP1 SWAP2 ADD PUSH1 0x20 SWAP1 DUP2 MSTORE PUSH1 0x40 DUP1 DUP5 KECCAK256 DUP8 DUP6 MSTORE PUSH1 0x24 DUP4 MSTORE DUP2 DUP6 KECCAK256 SWAP4 DUP6 MSTORE SWAP3 SWAP1 SWAP2 MSTORE DUP3 KECCAK256 DUP1 SLOAD PUSH1 0xFF NOT AND PUSH1 0x1 OR SWAP1 SSTORE SWAP2 POP PUSH1 0x60 SWAP1 JUMPDEST PUSH2 0x17CE PUSH1 0x7 DUP7 PUSH1 0x4 DUP2 LT PUSH2 0xEDF JUMPI PUSH4 0x4E487B71 PUSH1 0xE0 SHL PUSH1 0x0 MSTORE PUSH1 0x32 PUSH1 0x4 MSTORE PUSH1 0x24 PUSH1 0x0 REVERT JUMPDEST DUP2 LT ISZERO PUSH2 0x1844 JUMPI PUSH2 0x17FA DUP2 PUSH1 0x7 DUP8 PUSH1 0x4 DUP2 LT PUSH2 0xF17 JUMPI PUSH4 0x4E487B71 PUSH1 0xE0 SHL PUSH1 0x0 MSTORE PUSH1 0x32 PUSH1 0x4 MSTORE PUSH1 0x24 PUSH1 0x0 REVERT JUMPDEST DUP3 DUP3 DUP2 MLOAD DUP2 LT PUSH2 0x181A JUMPI PUSH4 0x4E487B71 PUSH1 0xE0 SHL PUSH1 0x0 MSTORE PUSH1 0x32 PUSH1 0x4 MSTORE PUSH1 0x24 PUSH1 0x0 REVERT JUMPDEST PUSH1 0x1 PUSH1 0x1 PUSH1 0xA0 SHL SUB SWAP1 SWAP3 AND PUSH1 0x20 SWAP3 DUP4 MUL SWAP2 SWAP1 SWAP2 ADD SWAP1 SWAP2 ADD MSTORE DUP1 PUSH2 0x183C DUP2 PUSH2 0x4CF8 JUMP JUMPDEST SWAP2 POP POP PUSH2 0x17AA JUMP JUMPDEST POP PUSH1 0x7 DUP5 PUSH1 0x4 DUP2 LT PUSH2 0x1866 JUMPI PUSH4 0x4E487B71 PUSH1 0xE0 SHL PUSH1 0x0 MSTORE PUSH1 0x32 PUSH1 0x4 MSTORE PUSH1 0x24 PUSH1 0x0 REVERT JUMPDEST PUSH1 0x7 MUL ADD PUSH1 0x3 ADD SLOAD PUSH1 0x5 DUP4 ADD SLOAD PUSH1 0x40 MLOAD PUSH4 0x1826C119 PUSH1 0xE0 SHL DUP2 MSTORE PUSH1 0x1 PUSH1 0x1 PUSH1 0xA0 SHL SUB SWAP1 SWAP3 AND SWAP2 PUSH4 0x1826C119 SWAP2 PUSH2 0x18A1 SWAP2 DUP6 SWAP2 SWAP1 PUSH1 0x4 ADD PUSH2 0x4A05 JUMP JUMPDEST PUSH1 0x0 PUSH1 0x40 MLOAD DUP1 DUP4 SUB DUP2 PUSH1 0x0 DUP8 DUP1 EXTCODESIZE ISZERO DUP1 ISZERO PUSH2 0x18BB JUMPI PUSH1 0x0 DUP1 REVERT JUMPDEST POP GAS CALL ISZERO DUP1 ISZERO PUSH2 0x18CF JUMPI RETURNDATASIZE PUSH1 0x0 DUP1 RETURNDATACOPY RETURNDATASIZE PUSH1 0x0 REVERT JUMPDEST POP POP PUSH1 0x40 MLOAD PUSH2 0x18E1 SWAP3 POP DUP5 SWAP2 POP PUSH2 0x496A JUMP JUMPDEST PUSH1 0x40 MLOAD SWAP1 DUP2 SWAP1 SUB DUP2 KECCAK256 PUSH1 0x1 DUP5 ADD SLOAD PUSH2 0x100 SWAP1 DIV PUSH2 0xFFFF AND DUP3 MSTORE SWAP1 PUSH1 0x0 DUP1 MLOAD PUSH1 0x20 PUSH2 0x4D60 DUP4 CODECOPY DUP2 MLOAD SWAP2 MSTORE SWAP1 PUSH1 0x20 ADD PUSH1 0x40 MLOAD DUP1 SWAP2 SUB SWAP1 LOG2 POP POP JUMPDEST POP POP JUMP JUMPDEST CALLER PUSH2 0x1929 PUSH1 0x1 DUP3 PUSH2 0x2B23 JUMP JUMPDEST PUSH2 0x1932 JUMPI PUSH1 0x0 DUP1 REVERT JUMPDEST PUSH1 0x40 DUP1 MLOAD PUSH2 0x140 DUP2 ADD DUP3 MSTORE PUSH1 0x80 DUP2 ADD DUP9 DUP2 MSTORE PUSH1 0xFF DUP1 DUP10 AND PUSH1 0xA0 DUP5 ADD MSTORE PUSH1 0x0 DUP1 SLOAD PUSH2 0xFFFF AND PUSH1 0xC0 DUP6 ADD DUP2 SWAP1 MSTORE TIMESTAMP PUSH1 0xE0 DUP7 ADD MSTORE PUSH2 0x100 DUP6 ADD DUP3 SWAP1 MSTORE PUSH1 0x60 PUSH2 0x120 DUP7 ADD DUP2 SWAP1 MSTORE SWAP4 DUP6 MSTORE PUSH1 0x1 PUSH1 0x1 PUSH1 0xA0 SHL SUB DUP11 AND PUSH1 0x20 DUP1 DUP8 ADD SWAP2 SWAP1 SWAP2 MSTORE DUP10 DUP5 AND DUP7 DUP9 ADD MSTORE SWAP3 DUP9 AND DUP6 DUP6 ADD MSTORE DUP2 MSTORE PUSH1 0x6 DUP3 MSTORE SWAP4 SWAP1 SWAP4 KECCAK256 DUP3 MLOAD DUP1 MLOAD DUP1 MLOAD SWAP4 SWAP6 SWAP3 SWAP4 SWAP2 SWAP3 DUP5 SWAP3 PUSH2 0x19BE SWAP3 DUP5 SWAP3 ADD SWAP1 PUSH2 0x3C6E JUMP JUMPDEST POP PUSH1 0x20 DUP3 DUP2 ADD MLOAD PUSH1 0x1 DUP4 ADD DUP1 SLOAD PUSH1 0x40 DUP7 ADD MLOAD PUSH2 0xFFFF AND PUSH2 0x100 MUL PUSH3 0xFFFFFF NOT SWAP1 SWAP2 AND PUSH1 0xFF SWAP1 SWAP4 AND SWAP3 SWAP1 SWAP3 OR SWAP2 SWAP1 SWAP2 OR SWAP1 SSTORE PUSH1 0x60 DUP4 ADD MLOAD PUSH1 0x2 DUP4 ADD SSTORE PUSH1 0x80 DUP4 ADD MLOAD PUSH1 0x3 DUP4 ADD SSTORE PUSH1 0xA0 DUP4 ADD MLOAD DUP1 MLOAD PUSH2 0x1A1A SWAP3 PUSH1 0x4 DUP6 ADD SWAP3 ADD SWAP1 PUSH2 0x3CF2 JUMP JUMPDEST POP POP POP PUSH1 0x20 DUP3 ADD MLOAD PUSH1 0x5 SWAP2 SWAP1 SWAP2 ADD DUP1 SLOAD PUSH1 0x40 DUP5 ADD MLOAD PUSH1 0x60 SWAP1 SWAP5 ADD MLOAD PUSH1 0x1 PUSH1 0x1 PUSH1 0xA0 SHL SUB SWAP1 SWAP4 AND PUSH1 0x1 PUSH1 0x1 PUSH1 0xA8 SHL SUB NOT SWAP1 SWAP2 AND OR PUSH1 0x1 PUSH1 0xA0 SHL PUSH1 0xFF SWAP5 DUP6 AND MUL OR PUSH1 0xFF PUSH1 0xA8 SHL NOT AND PUSH1 0x1 PUSH1 0xA8 SHL SWAP4 SWAP1 SWAP3 AND SWAP3 SWAP1 SWAP3 MUL OR SWAP1 SSTORE PUSH1 0x0 DUP1 SLOAD PUSH2 0xFFFF AND SWAP1 DUP1 PUSH2 0x1152 DUP4 PUSH2 0x4CD6 JUMP JUMPDEST CALLER DUP3 PUSH2 0x1AAA DUP3 PUSH1 0x7 DUP4 PUSH1 0x4 DUP2 LT PUSH2 0x620 JUMPI PUSH4 0x4E487B71 PUSH1 0xE0 SHL PUSH1 0x0 MSTORE PUSH1 0x32 PUSH1 0x4 MSTORE PUSH1 0x24 PUSH1 0x0 REVERT JUMPDEST PUSH2 0x1AB3 JUMPI PUSH1 0x0 DUP1 REVERT JUMPDEST PUSH2 0x1AED DUP4 PUSH1 0x7 DUP7 PUSH1 0x4 DUP2 LT PUSH2 0x1AD8 JUMPI PUSH4 0x4E487B71 PUSH1 0xE0 SHL PUSH1 0x0 MSTORE PUSH1 0x32 PUSH1 0x4 MSTORE PUSH1 0x24 PUSH1 0x0 REVERT JUMPDEST PUSH1 0x7 MUL ADD PUSH1 0x4 ADD PUSH2 0x2EB8 SWAP1 SWAP2 SWAP1 PUSH4 0xFFFFFFFF AND JUMP JUMPDEST POP POP POP POP POP JUMP JUMPDEST PUSH1 0x40 MLOAD CALLVALUE DUP2 MSTORE CALLER SWAP1 PUSH32 0x66FF7C8F71CCC7C36152A41920D0D3B46EF3034359F76AA1498ED4478C204B5C SWAP1 PUSH1 0x20 ADD PUSH1 0x40 MLOAD DUP1 SWAP2 SUB SWAP1 LOG2 JUMP JUMPDEST PUSH1 0x0 CALLER PUSH2 0x1B39 PUSH1 0x1 DUP3 PUSH2 0x2B23 JUMP JUMPDEST PUSH2 0x1B42 JUMPI PUSH1 0x0 DUP1 REVERT JUMPDEST PUSH2 0xFFFF DUP1 DUP5 AND PUSH1 0x0 SWAP1 DUP2 MSTORE PUSH1 0x3 PUSH1 0x20 MSTORE PUSH1 0x40 SWAP1 KECCAK256 PUSH1 0x1 ADD SLOAD PUSH2 0x100 SWAP1 DIV AND ISZERO DUP1 ISZERO SWAP1 PUSH2 0x1BBD JUMPI POP PUSH2 0xFFFF DUP4 AND PUSH1 0x0 SWAP1 DUP2 MSTORE PUSH1 0x3 PUSH1 0x20 MSTORE PUSH1 0x40 SWAP1 KECCAK256 PUSH1 0x1 ADD SLOAD PUSH2 0x1B90 SWAP1 PUSH1 0xFF AND PUSH3 0x15180 PUSH2 0x4C10 JUMP JUMPDEST PUSH2 0xFFFF DUP5 AND PUSH1 0x0 SWAP1 DUP2 MSTORE PUSH1 0x3 PUSH1 0x20 MSTORE PUSH1 0x40 SWAP1 KECCAK256 PUSH1 0x2 ADD SLOAD PUSH3 0xFFFFFF SWAP2 SWAP1 SWAP2 AND SWAP1 PUSH2 0x1BBA SWAP1 TIMESTAMP PUSH2 0x4C5E JUMP JUMPDEST LT ISZERO JUMPDEST ISZERO PUSH2 0x1C85 JUMPI PUSH2 0xFFFF DUP4 AND PUSH1 0x0 DUP2 DUP2 MSTORE PUSH1 0x3 PUSH1 0x20 MSTORE PUSH1 0x40 SWAP1 DUP2 SWAP1 KECCAK256 SWAP1 MLOAD PUSH2 0x1BE3 SWAP2 SWAP1 PUSH2 0x496A JUMP JUMPDEST PUSH1 0x40 MLOAD SWAP1 DUP2 SWAP1 SUB DUP2 KECCAK256 SWAP1 PUSH1 0x0 DUP1 MLOAD PUSH1 0x20 PUSH2 0x4DA9 DUP4 CODECOPY DUP2 MLOAD SWAP2 MSTORE SWAP1 PUSH1 0x0 SWAP1 LOG3 PUSH2 0xFFFF DUP4 AND PUSH1 0x0 SWAP1 DUP2 MSTORE PUSH1 0x3 PUSH1 0x20 MSTORE PUSH1 0x40 DUP2 KECCAK256 SWAP1 DUP2 DUP2 PUSH2 0x1C21 DUP3 DUP3 PUSH2 0x3F40 JUMP JUMPDEST PUSH1 0x1 DUP3 ADD DUP1 SLOAD PUSH3 0xFFFFFF NOT AND SWAP1 SSTORE PUSH1 0x0 PUSH1 0x2 DUP4 ADD DUP2 SWAP1 SSTORE PUSH1 0x3 DUP4 ADD DUP2 SWAP1 SSTORE PUSH2 0x1C4D SWAP1 PUSH1 0x4 DUP5 ADD SWAP1 PUSH2 0x3F7A JUMP JUMPDEST POP PUSH2 0x1C5E SWAP1 POP PUSH1 0x5 DUP4 ADD PUSH1 0x0 PUSH2 0x3F7A JUMP JUMPDEST PUSH2 0x1C6C PUSH1 0x6 DUP4 ADD PUSH1 0x0 PUSH2 0x3F98 JUMP JUMPDEST PUSH2 0x1C7A PUSH1 0x7 DUP4 ADD PUSH1 0x0 PUSH2 0x3F7A JUMP JUMPDEST POP POP PUSH1 0x1 SWAP2 POP PUSH2 0x1FF1 JUMP JUMPDEST PUSH2 0xFFFF DUP1 DUP5 AND PUSH1 0x0 SWAP1 DUP2 MSTORE PUSH1 0x4 PUSH1 0x20 MSTORE PUSH1 0x40 SWAP1 KECCAK256 PUSH1 0x1 ADD SLOAD PUSH2 0x100 SWAP1 DIV AND ISZERO DUP1 ISZERO SWAP1 PUSH2 0x1D00 JUMPI POP PUSH2 0xFFFF DUP4 AND PUSH1 0x0 SWAP1 DUP2 MSTORE PUSH1 0x4 PUSH1 0x20 MSTORE PUSH1 0x40 SWAP1 KECCAK256 PUSH1 0x1 ADD SLOAD PUSH2 0x1CD3 SWAP1 PUSH1 0xFF AND PUSH3 0x15180 PUSH2 0x4C10 JUMP JUMPDEST PUSH2 0xFFFF DUP5 AND PUSH1 0x0 SWAP1 DUP2 MSTORE PUSH1 0x4 PUSH1 0x20 MSTORE PUSH1 0x40 SWAP1 KECCAK256 PUSH1 0x2 ADD SLOAD PUSH3 0xFFFFFF SWAP2 SWAP1 SWAP2 AND SWAP1 PUSH2 0x1CFD SWAP1 TIMESTAMP PUSH2 0x4C5E JUMP JUMPDEST LT ISZERO JUMPDEST ISZERO PUSH2 0x1D8E JUMPI PUSH2 0xFFFF DUP4 AND PUSH1 0x0 DUP2 DUP2 MSTORE PUSH1 0x3 PUSH1 0x20 MSTORE PUSH1 0x40 SWAP1 DUP2 SWAP1 KECCAK256 SWAP1 MLOAD PUSH2 0x1D26 SWAP2 SWAP1 PUSH2 0x496A JUMP JUMPDEST PUSH1 0x40 MLOAD SWAP1 DUP2 SWAP1 SUB DUP2 KECCAK256 SWAP1 PUSH1 0x0 DUP1 MLOAD PUSH1 0x20 PUSH2 0x4DA9 DUP4 CODECOPY DUP2 MLOAD SWAP2 MSTORE SWAP1 PUSH1 0x0 SWAP1 LOG3 PUSH2 0xFFFF DUP4 AND PUSH1 0x0 SWAP1 DUP2 MSTORE PUSH1 0x4 PUSH1 0x20 MSTORE PUSH1 0x40 DUP2 KECCAK256 SWAP1 PUSH2 0x1D62 DUP3 DUP3 PUSH2 0x3F40 JUMP JUMPDEST PUSH1 0x1 DUP3 ADD DUP1 SLOAD PUSH3 0xFFFFFF NOT AND SWAP1 SSTORE PUSH1 0x0 PUSH1 0x2 DUP4 ADD DUP2 SWAP1 SSTORE PUSH1 0x3 DUP4 ADD DUP2 SWAP1 SSTORE PUSH2 0x1C7A SWAP1 PUSH1 0x4 DUP5 ADD SWAP1 PUSH2 0x3F7A JUMP JUMPDEST PUSH2 0xFFFF DUP1 DUP5 AND PUSH1 0x0 SWAP1 DUP2 MSTORE PUSH1 0x5 PUSH1 0x20 MSTORE PUSH1 0x40 SWAP1 KECCAK256 PUSH1 0x1 ADD SLOAD PUSH2 0x100 SWAP1 DIV AND ISZERO DUP1 ISZERO SWAP1 PUSH2 0x1E09 JUMPI POP PUSH2 0xFFFF DUP4 AND PUSH1 0x0 SWAP1 DUP2 MSTORE PUSH1 0x5 PUSH1 0x20 MSTORE PUSH1 0x40 SWAP1 KECCAK256 PUSH1 0x1 ADD SLOAD PUSH2 0x1DDC SWAP1 PUSH1 0xFF AND PUSH3 0x15180 PUSH2 0x4C10 JUMP JUMPDEST PUSH2 0xFFFF DUP5 AND PUSH1 0x0 SWAP1 DUP2 MSTORE PUSH1 0x5 PUSH1 0x20 MSTORE PUSH1 0x40 SWAP1 KECCAK256 PUSH1 0x2 ADD SLOAD PUSH3 0xFFFFFF SWAP2 SWAP1 SWAP2 AND SWAP1 PUSH2 0x1E06 SWAP1 TIMESTAMP PUSH2 0x4C5E JUMP JUMPDEST LT ISZERO JUMPDEST ISZERO PUSH2 0x1EC4 JUMPI PUSH2 0xFFFF DUP4 AND PUSH1 0x0 DUP2 DUP2 MSTORE PUSH1 0x3 PUSH1 0x20 MSTORE PUSH1 0x40 SWAP1 DUP2 SWAP1 KECCAK256 SWAP1 MLOAD PUSH2 0x1E2F SWAP2 SWAP1 PUSH2 0x496A JUMP JUMPDEST PUSH1 0x40 MLOAD SWAP1 DUP2 SWAP1 SUB DUP2 KECCAK256 SWAP1 PUSH1 0x0 DUP1 MLOAD PUSH1 0x20 PUSH2 0x4DA9 DUP4 CODECOPY DUP2 MLOAD SWAP2 MSTORE SWAP1 PUSH1 0x0 SWAP1 LOG3 PUSH2 0xFFFF DUP4 AND PUSH1 0x0 SWAP1 DUP2 MSTORE PUSH1 0x5 PUSH1 0x20 MSTORE PUSH1 0x40 DUP2 KECCAK256 SWAP1 DUP2 DUP2 PUSH2 0x1E6D DUP3 DUP3 PUSH2 0x3F40 JUMP JUMPDEST PUSH1 0x1 DUP3 ADD DUP1 SLOAD PUSH3 0xFFFFFF NOT AND SWAP1 SSTORE PUSH1 0x0 PUSH1 0x2 DUP4 ADD DUP2 SWAP1 SSTORE PUSH1 0x3 DUP4 ADD DUP2 SWAP1 SSTORE PUSH2 0x1E99 SWAP1 PUSH1 0x4 DUP5 ADD SWAP1 PUSH2 0x3F7A JUMP JUMPDEST POP PUSH2 0x1EAA SWAP1 POP PUSH1 0x5 DUP4 ADD PUSH1 0x0 PUSH2 0x3F7A JUMP JUMPDEST PUSH1 0x6 DUP3 ADD DUP1 SLOAD PUSH1 0xFF NOT AND SWAP1 SSTORE PUSH2 0x1C7A PUSH1 0x7 DUP4 ADD PUSH1 0x0 PUSH2 0x3FB6 JUMP JUMPDEST PUSH2 0xFFFF DUP1 DUP5 AND PUSH1 0x0 SWAP1 DUP2 MSTORE PUSH1 0x6 PUSH1 0x20 MSTORE PUSH1 0x40 SWAP1 KECCAK256 PUSH1 0x1 ADD SLOAD PUSH2 0x100 SWAP1 DIV AND ISZERO DUP1 ISZERO SWAP1 PUSH2 0x1F3F JUMPI POP PUSH2 0xFFFF DUP4 AND PUSH1 0x0 SWAP1 DUP2 MSTORE PUSH1 0x6 PUSH1 0x20 MSTORE PUSH1 0x40 SWAP1 KECCAK256 PUSH1 0x1 ADD SLOAD PUSH2 0x1F12 SWAP1 PUSH1 0xFF AND PUSH3 0x15180 PUSH2 0x4C10 JUMP JUMPDEST PUSH2 0xFFFF DUP5 AND PUSH1 0x0 SWAP1 DUP2 MSTORE PUSH1 0x6 PUSH1 0x20 MSTORE PUSH1 0x40 SWAP1 KECCAK256 PUSH1 0x2 ADD SLOAD PUSH3 0xFFFFFF SWAP2 SWAP1 SWAP2 AND SWAP1 PUSH2 0x1F3C SWAP1 TIMESTAMP PUSH2 0x4C5E JUMP JUMPDEST LT ISZERO JUMPDEST ISZERO PUSH2 0x1FEC JUMPI PUSH2 0xFFFF DUP4 AND PUSH1 0x0 DUP2 DUP2 MSTORE PUSH1 0x3 PUSH1 0x20 MSTORE PUSH1 0x40 SWAP1 DUP2 SWAP1 KECCAK256 SWAP1 MLOAD PUSH2 0x1F65 SWAP2 SWAP1 PUSH2 0x496A JUMP JUMPDEST PUSH1 0x40 MLOAD SWAP1 DUP2 SWAP1 SUB DUP2 KECCAK256 SWAP1 PUSH1 0x0 DUP1 MLOAD PUSH1 0x20 PUSH2 0x4DA9 DUP4 CODECOPY DUP2 MLOAD SWAP2 MSTORE SWAP1 PUSH1 0x0 SWAP1 LOG3 PUSH2 0xFFFF DUP4 AND PUSH1 0x0 SWAP1 DUP2 MSTORE PUSH1 0x6 PUSH1 0x20 MSTORE PUSH1 0x40 DUP2 KECCAK256 SWAP1 DUP2 DUP2 PUSH2 0x1FA3 DUP3 DUP3 PUSH2 0x3F40 JUMP JUMPDEST PUSH1 0x1 DUP3 ADD DUP1 SLOAD PUSH3 0xFFFFFF NOT AND SWAP1 SSTORE PUSH1 0x0 PUSH1 0x2 DUP4 ADD DUP2 SWAP1 SSTORE PUSH1 0x3 DUP4 ADD DUP2 SWAP1 SSTORE PUSH2 0x1FCF SWAP1 PUSH1 0x4 DUP5 ADD SWAP1 PUSH2 0x3F7A JUMP JUMPDEST POP POP POP PUSH1 0x5 ADD DUP1 SLOAD PUSH1 0x1 PUSH1 0x1 PUSH1 0xB0 SHL SUB NOT AND SWAP1 SSTORE PUSH1 0x1 SWAP2 POP PUSH2 0x1FF1 JUMP JUMPDEST PUSH1 0x0 SWAP2 POP JUMPDEST POP SWAP2 SWAP1 POP JUMP JUMPDEST CALLER PUSH2 0x2003 PUSH1 0x1 DUP3 PUSH2 0x2B23 JUMP JUMPDEST PUSH2 0x200C JUMPI PUSH1 0x0 DUP1 REVERT JUMPDEST PUSH2 0xFFFF DUP1 DUP4 AND PUSH1 0x0 SWAP1 DUP2 MSTORE PUSH1 0x3 PUSH1 0x20 MSTORE PUSH1 0x40 SWAP1 KECCAK256 PUSH1 0x1 ADD SLOAD CALLER SWAP2 PUSH2 0x100 SWAP1 SWAP2 DIV AND ISZERO PUSH2 0x2161 JUMPI PUSH2 0xFFFF DUP4 AND PUSH1 0x0 SWAP1 DUP2 MSTORE PUSH1 0x3 PUSH1 0x20 SWAP1 DUP2 MSTORE PUSH1 0x40 SWAP2 DUP3 SWAP1 KECCAK256 PUSH1 0x4 ADD DUP1 SLOAD DUP4 MLOAD DUP2 DUP5 MUL DUP2 ADD DUP5 ADD SWAP1 SWAP5 MSTORE DUP1 DUP5 MSTORE PUSH2 0x20A6 SWAP4 SWAP3 DUP4 ADD DUP3 DUP3 DUP1 ISZERO PUSH2 0x209B JUMPI PUSH1 0x20 MUL DUP3 ADD SWAP2 SWAP1 PUSH1 0x0 MSTORE PUSH1 0x20 PUSH1 0x0 KECCAK256 SWAP1 JUMPDEST DUP2 SLOAD PUSH1 0x1 PUSH1 0x1 PUSH1 0xA0 SHL SUB AND DUP2 MSTORE PUSH1 0x1 SWAP1 SWAP2 ADD SWAP1 PUSH1 0x20 ADD DUP1 DUP4 GT PUSH2 0x207D JUMPI JUMPDEST POP POP POP POP POP DUP3 PUSH2 0x313A JUMP JUMPDEST ISZERO PUSH2 0x215C JUMPI PUSH2 0xFFFF DUP4 AND PUSH1 0x0 SWAP1 DUP2 MSTORE PUSH1 0x3 PUSH1 0x20 DUP2 SWAP1 MSTORE PUSH1 0x40 DUP3 KECCAK256 ADD DUP1 SLOAD SWAP2 PUSH2 0x20CD DUP4 PUSH2 0x4CF8 JUMP JUMPDEST SWAP1 SWAP2 SSTORE POP POP PUSH2 0xFFFF DUP4 AND PUSH1 0x0 DUP2 DUP2 MSTORE PUSH1 0x3 PUSH1 0x20 SWAP1 DUP2 MSTORE PUSH1 0x40 DUP1 DUP4 KECCAK256 PUSH1 0x4 DUP2 ADD DUP1 SLOAD PUSH1 0x1 DUP2 ADD DUP3 SSTORE SWAP1 DUP6 MSTORE SWAP3 DUP5 KECCAK256 SWAP1 SWAP3 ADD DUP1 SLOAD PUSH1 0x1 PUSH1 0x1 PUSH1 0xA0 SHL SUB NOT AND PUSH1 0x1 PUSH1 0x1 PUSH1 0xA0 SHL SUB DUP8 AND SWAP1 DUP2 OR SWAP1 SWAP2 SSTORE SWAP3 DUP5 SWAP1 MSTORE MLOAD SWAP2 SWAP3 SWAP2 PUSH2 0x212B SWAP2 SWAP1 PUSH2 0x496A JUMP JUMPDEST PUSH1 0x40 MLOAD SWAP1 DUP2 SWAP1 SUB DUP2 KECCAK256 SWAP1 PUSH32 0x96AFF3DB4FF7DBE7DD5D88FADBCC5C5F7FE5EB97CD711500D046A737B9C08CF9 SWAP1 PUSH1 0x0 SWAP1 LOG4 JUMPDEST POP POP POP JUMP JUMPDEST PUSH2 0xFFFF DUP1 DUP5 AND PUSH1 0x0 SWAP1 DUP2 MSTORE PUSH1 0x4 PUSH1 0x20 MSTORE PUSH1 0x40 SWAP1 KECCAK256 PUSH1 0x1 ADD SLOAD PUSH2 0x100 SWAP1 DIV AND ISZERO PUSH2 0x2281 JUMPI PUSH2 0xFFFF DUP4 AND PUSH1 0x0 SWAP1 DUP2 MSTORE PUSH1 0x4 PUSH1 0x20 DUP2 DUP2 MSTORE PUSH1 0x40 SWAP3 DUP4 SWAP1 KECCAK256 SWAP1 SWAP2 ADD DUP1 SLOAD DUP4 MLOAD DUP2 DUP5 MUL DUP2 ADD DUP5 ADD SWAP1 SWAP5 MSTORE DUP1 DUP5 MSTORE PUSH2 0x21F6 SWAP4 SWAP3 DUP4 ADD DUP3 DUP3 DUP1 ISZERO PUSH2 0x209B JUMPI PUSH1 0x20 MUL DUP3 ADD SWAP2 SWAP1 PUSH1 0x0 MSTORE PUSH1 0x20 PUSH1 0x0 KECCAK256 SWAP1 DUP2 SLOAD PUSH1 0x1 PUSH1 0x1 PUSH1 0xA0 SHL SUB AND DUP2 MSTORE PUSH1 0x1 SWAP1 SWAP2 ADD SWAP1 PUSH1 0x20 ADD DUP1 DUP4 GT PUSH2 0x207D JUMPI POP POP POP POP POP DUP3 PUSH2 0x313A JUMP JUMPDEST ISZERO PUSH2 0x215C JUMPI PUSH2 0xFFFF DUP4 AND PUSH1 0x0 SWAP1 DUP2 MSTORE PUSH1 0x4 PUSH1 0x20 MSTORE PUSH1 0x40 DUP2 KECCAK256 PUSH1 0x3 ADD DUP1 SLOAD SWAP2 PUSH2 0x221D DUP4 PUSH2 0x4CF8 JUMP JUMPDEST SWAP1 SWAP2 SSTORE POP POP PUSH2 0xFFFF DUP4 AND PUSH1 0x0 DUP2 DUP2 MSTORE PUSH1 0x4 PUSH1 0x20 DUP2 DUP2 MSTORE PUSH1 0x40 DUP1 DUP5 KECCAK256 SWAP1 SWAP3 ADD DUP1 SLOAD PUSH1 0x1 DUP2 ADD DUP3 SSTORE SWAP1 DUP5 MSTORE DUP2 DUP5 KECCAK256 ADD DUP1 SLOAD PUSH1 0x1 PUSH1 0x1 PUSH1 0xA0 SHL SUB NOT AND PUSH1 0x1 PUSH1 0x1 PUSH1 0xA0 SHL SUB DUP8 AND SWAP1 DUP2 OR SWAP1 SWAP2 SSTORE DUP5 DUP5 MSTORE PUSH1 0x3 SWAP1 SWAP2 MSTORE SWAP2 DUP2 SWAP1 KECCAK256 SWAP1 MLOAD SWAP2 SWAP3 SWAP2 PUSH2 0x212B SWAP2 SWAP1 PUSH2 0x496A JUMP JUMPDEST PUSH2 0xFFFF DUP1 DUP5 AND PUSH1 0x0 SWAP1 DUP2 MSTORE PUSH1 0x5 PUSH1 0x20 MSTORE PUSH1 0x40 SWAP1 KECCAK256 PUSH1 0x1 ADD SLOAD PUSH2 0x100 SWAP1 DIV AND ISZERO PUSH2 0x23A0 JUMPI PUSH2 0xFFFF DUP4 AND PUSH1 0x0 SWAP1 DUP2 MSTORE PUSH1 0x5 PUSH1 0x20 SWAP1 DUP2 MSTORE PUSH1 0x40 SWAP2 DUP3 SWAP1 KECCAK256 PUSH1 0x4 ADD DUP1 SLOAD DUP4 MLOAD DUP2 DUP5 MUL DUP2 ADD DUP5 ADD SWAP1 SWAP5 MSTORE DUP1 DUP5 MSTORE PUSH2 0x2316 SWAP4 SWAP3 DUP4 ADD DUP3 DUP3 DUP1 ISZERO PUSH2 0x209B JUMPI PUSH1 0x20 MUL DUP3 ADD SWAP2 SWAP1 PUSH1 0x0 MSTORE PUSH1 0x20 PUSH1 0x0 KECCAK256 SWAP1 DUP2 SLOAD PUSH1 0x1 PUSH1 0x1 PUSH1 0xA0 SHL SUB AND DUP2 MSTORE PUSH1 0x1 SWAP1 SWAP2 ADD SWAP1 PUSH1 0x20 ADD DUP1 DUP4 GT PUSH2 0x207D JUMPI POP POP POP POP POP DUP3 PUSH2 0x313A JUMP JUMPDEST ISZERO PUSH2 0x215C JUMPI PUSH2 0xFFFF DUP4 AND PUSH1 0x0 SWAP1 DUP2 MSTORE PUSH1 0x5 PUSH1 0x20 MSTORE PUSH1 0x40 DUP2 KECCAK256 PUSH1 0x3 ADD DUP1 SLOAD SWAP2 PUSH2 0x233D DUP4 PUSH2 0x4CF8 JUMP JUMPDEST SWAP1 SWAP2 SSTORE POP POP PUSH2 0xFFFF DUP4 AND PUSH1 0x0 DUP2 DUP2 MSTORE PUSH1 0x5 PUSH1 0x20 SWAP1 DUP2 MSTORE PUSH1 0x40 DUP1 DUP4 KECCAK256 PUSH1 0x4 ADD DUP1 SLOAD PUSH1 0x1 DUP2 ADD DUP3 SSTORE SWAP1 DUP5 MSTORE DUP3 DUP5 KECCAK256 ADD DUP1 SLOAD PUSH1 0x1 PUSH1 0x1 PUSH1 0xA0 SHL SUB NOT AND PUSH1 0x1 PUSH1 0x1 PUSH1 0xA0 SHL SUB DUP8 AND SWAP1 DUP2 OR SWAP1 SWAP2 SSTORE DUP5 DUP5 MSTORE PUSH1 0x3 SWAP1 SWAP3 MSTORE SWAP2 DUP3 SWAP1 KECCAK256 SWAP2 MLOAD SWAP1 SWAP3 SWAP2 PUSH2 0x212B SWAP2 PUSH2 0x496A JUMP JUMPDEST PUSH2 0xFFFF DUP1 DUP5 AND PUSH1 0x0 SWAP1 DUP2 MSTORE PUSH1 0x6 PUSH1 0x20 MSTORE PUSH1 0x40 SWAP1 KECCAK256 PUSH1 0x1 ADD SLOAD PUSH2 0x100 SWAP1 DIV AND ISZERO PUSH2 0x215C JUMPI PUSH2 0xFFFF DUP4 AND PUSH1 0x0 SWAP1 DUP2 MSTORE PUSH1 0x6 PUSH1 0x20 SWAP1 DUP2 MSTORE PUSH1 0x40 SWAP2 DUP3 SWAP1 KECCAK256 PUSH1 0x4 ADD DUP1 SLOAD DUP4 MLOAD DUP2 DUP5 MUL DUP2 ADD DUP5 ADD SWAP1 SWAP5 MSTORE DUP1 DUP5 MSTORE PUSH2 0x2435 SWAP4 SWAP3 DUP4 ADD DUP3 DUP3 DUP1 ISZERO PUSH2 0x209B JUMPI PUSH1 0x20 MUL DUP3 ADD SWAP2 SWAP1 PUSH1 0x0 MSTORE PUSH1 0x20 PUSH1 0x0 KECCAK256 SWAP1 DUP2 SLOAD PUSH1 0x1 PUSH1 0x1 PUSH1 0xA0 SHL SUB AND DUP2 MSTORE PUSH1 0x1 SWAP1 SWAP2 ADD SWAP1 PUSH1 0x20 ADD DUP1 DUP4 GT PUSH2 0x207D JUMPI POP POP POP POP POP DUP3 PUSH2 0x313A JUMP JUMPDEST ISZERO PUSH2 0x215C JUMPI PUSH2 0xFFFF DUP4 AND PUSH1 0x0 SWAP1 DUP2 MSTORE PUSH1 0x6 PUSH1 0x20 MSTORE PUSH1 0x40 DUP2 KECCAK256 PUSH1 0x3 ADD DUP1 SLOAD SWAP2 PUSH2 0x245C DUP4 PUSH2 0x4CF8 JUMP JUMPDEST SWAP1 SWAP2 SSTORE POP POP PUSH2 0xFFFF DUP4 AND PUSH1 0x0 DUP2 DUP2 MSTORE PUSH1 0x6 PUSH1 0x20 SWAP1 DUP2 MSTORE PUSH1 0x40 DUP1 DUP4 KECCAK256 PUSH1 0x4 ADD DUP1 SLOAD PUSH1 0x1 DUP2 ADD DUP3 SSTORE SWAP1 DUP5 MSTORE DUP3 DUP5 KECCAK256 ADD DUP1 SLOAD PUSH1 0x1 PUSH1 0x1 PUSH1 0xA0 SHL SUB NOT AND PUSH1 0x1 PUSH1 0x1 PUSH1 0xA0 SHL SUB DUP8 AND SWAP1 DUP2 OR SWAP1 SWAP2 SSTORE DUP5 DUP5 MSTORE PUSH1 0x3 SWAP1 SWAP3 MSTORE SWAP2 DUP3 SWAP1 KECCAK256 SWAP2 MLOAD SWAP1 SWAP3 SWAP2 PUSH2 0x212B SWAP2 PUSH2 0x496A JUMP JUMPDEST PUSH2 0xFFFF DUP2 AND PUSH1 0x0 SWAP1 DUP2 MSTORE PUSH1 0x23 PUSH1 0x20 MSTORE PUSH1 0x40 SWAP1 KECCAK256 SLOAD PUSH1 0xFF AND ISZERO PUSH2 0x24E0 JUMPI PUSH1 0x0 DUP1 REVERT JUMPDEST PUSH2 0xFFFF DUP1 DUP3 AND PUSH1 0x0 SWAP1 DUP2 MSTORE PUSH1 0x3 PUSH1 0x20 MSTORE PUSH1 0x40 SWAP1 KECCAK256 PUSH1 0x1 ADD SLOAD PUSH2 0x100 SWAP1 DIV AND ISZERO DUP1 ISZERO SWAP1 PUSH2 0x2537 JUMPI POP PUSH1 0x2 PUSH2 0x2513 PUSH1 0x1 PUSH2 0x2CF5 JUMP JUMPDEST PUSH2 0x251D SWAP2 SWAP1 PUSH2 0x4BF0 JUMP JUMPDEST PUSH2 0xFFFF DUP3 AND PUSH1 0x0 SWAP1 DUP2 MSTORE PUSH1 0x3 PUSH1 0x20 DUP2 SWAP1 MSTORE PUSH1 0x40 SWAP1 SWAP2 KECCAK256 ADD SLOAD GT JUMPDEST ISZERO PUSH2 0x25F2 JUMPI PUSH2 0xFFFF DUP2 AND PUSH1 0x0 SWAP1 DUP2 MSTORE PUSH1 0x3 PUSH1 0x20 SWAP1 DUP2 MSTORE PUSH1 0x40 DUP1 DUP4 KECCAK256 PUSH1 0x23 SWAP1 SWAP3 MSTORE DUP3 KECCAK256 DUP1 SLOAD PUSH1 0xFF NOT AND PUSH1 0x1 OR SWAP1 SSTORE SWAP1 JUMPDEST PUSH1 0x5 DUP3 ADD SLOAD DUP2 LT ISZERO PUSH2 0x25AA JUMPI PUSH2 0x2598 DUP3 PUSH1 0x5 ADD DUP3 DUP2 SLOAD DUP2 LT PUSH2 0x1514 JUMPI PUSH4 0x4E487B71 PUSH1 0xE0 SHL PUSH1 0x0 MSTORE PUSH1 0x32 PUSH1 0x4 MSTORE PUSH1 0x24 PUSH1 0x0 REVERT JUMPDEST DUP1 PUSH2 0x25A2 DUP2 PUSH2 0x4CF8 JUMP JUMPDEST SWAP2 POP POP PUSH2 0x2566 JUMP JUMPDEST POP PUSH1 0x40 MLOAD PUSH2 0x25B9 SWAP1 DUP3 SWAP1 PUSH2 0x496A JUMP JUMPDEST PUSH1 0x40 MLOAD SWAP1 DUP2 SWAP1 SUB DUP2 KECCAK256 PUSH1 0x1 DUP4 ADD SLOAD PUSH2 0x100 SWAP1 DIV PUSH2 0xFFFF AND DUP3 MSTORE SWAP1 PUSH1 0x0 DUP1 MLOAD PUSH1 0x20 PUSH2 0x4D60 DUP4 CODECOPY DUP2 MLOAD SWAP2 MSTORE SWAP1 PUSH1 0x20 ADD PUSH1 0x40 MLOAD DUP1 SWAP2 SUB SWAP1 LOG2 POP POP JUMP JUMPDEST PUSH2 0xFFFF DUP1 DUP3 AND PUSH1 0x0 SWAP1 DUP2 MSTORE PUSH1 0x5 PUSH1 0x20 MSTORE PUSH1 0x40 SWAP1 KECCAK256 PUSH1 0x1 ADD SLOAD PUSH2 0x100 SWAP1 DIV AND ISZERO DUP1 ISZERO SWAP1 PUSH2 0x2648 JUMPI POP PUSH1 0x2 PUSH2 0x2625 PUSH1 0x1 PUSH2 0x2CF5 JUMP JUMPDEST PUSH2 0x262F SWAP2 SWAP1 PUSH2 0x4BF0 JUMP JUMPDEST PUSH2 0xFFFF DUP3 AND PUSH1 0x0 SWAP1 DUP2 MSTORE PUSH1 0x5 PUSH1 0x20 MSTORE PUSH1 0x40 SWAP1 KECCAK256 PUSH1 0x3 ADD SLOAD GT JUMPDEST ISZERO PUSH2 0x288B JUMPI PUSH2 0xFFFF DUP2 AND PUSH1 0x0 SWAP1 DUP2 MSTORE PUSH1 0x5 PUSH1 0x20 SWAP1 DUP2 MSTORE PUSH1 0x40 DUP1 DUP4 KECCAK256 PUSH1 0x23 SWAP1 SWAP3 MSTORE SWAP1 SWAP2 KECCAK256 DUP1 SLOAD PUSH1 0xFF NOT AND PUSH1 0x1 OR SWAP1 SSTORE PUSH1 0x6 DUP2 ADD SLOAD PUSH1 0xFF AND ISZERO PUSH2 0x2761 JUMPI PUSH1 0x0 JUMPDEST PUSH1 0x5 DUP3 ADD SLOAD DUP2 LT ISZERO PUSH2 0x275B JUMPI PUSH2 0x2748 DUP3 PUSH1 0x5 ADD DUP3 DUP2 SLOAD DUP2 LT PUSH2 0x26B8 JUMPI PUSH4 0x4E487B71 PUSH1 0xE0 SHL PUSH1 0x0 MSTORE PUSH1 0x32 PUSH1 0x4 MSTORE PUSH1 0x24 PUSH1 0x0 REVERT JUMPDEST PUSH1 0x0 SWAP2 DUP3 MSTORE PUSH1 0x20 SWAP1 SWAP2 KECCAK256 ADD SLOAD PUSH1 0x7 DUP5 DUP2 ADD DUP1 SLOAD PUSH1 0x1 PUSH1 0x1 PUSH1 0xA0 SHL SUB SWAP1 SWAP4 AND SWAP3 DUP6 SWAP1 DUP2 LT PUSH2 0x26F5 JUMPI PUSH4 0x4E487B71 PUSH1 0xE0 SHL PUSH1 0x0 MSTORE PUSH1 0x32 PUSH1 0x4 MSTORE PUSH1 0x24 PUSH1 0x0 REVERT JUMPDEST PUSH1 0x0 SWAP2 DUP3 MSTORE PUSH1 0x20 SWAP2 DUP3 SWAP1 KECCAK256 SWAP2 DUP2 DIV SWAP1 SWAP2 ADD SLOAD PUSH1 0xFF PUSH1 0x1F SWAP1 SWAP3 AND PUSH2 0x100 EXP SWAP1 DIV AND PUSH1 0x4 DUP2 LT PUSH2 0x2733 JUMPI PUSH4 0x4E487B71 PUSH1 0xE0 SHL PUSH1 0x0 MSTORE PUSH1 0x32 PUSH1 0x4 MSTORE PUSH1 0x24 PUSH1 0x0 REVERT JUMPDEST PUSH1 0x7 MUL ADD PUSH1 0x1 ADD PUSH2 0x2B07 SWAP1 SWAP2 SWAP1 PUSH4 0xFFFFFFFF AND JUMP JUMPDEST POP DUP1 PUSH2 0x2753 DUP2 PUSH2 0x4CF8 JUMP JUMPDEST SWAP2 POP POP PUSH2 0x2686 JUMP JUMPDEST POP PUSH2 0x287D JUMP JUMPDEST PUSH1 0x0 JUMPDEST PUSH1 0x5 DUP3 ADD SLOAD DUP2 LT ISZERO PUSH2 0x25AA JUMPI PUSH2 0x27B3 DUP3 PUSH1 0x5 ADD DUP3 DUP2 SLOAD DUP2 LT PUSH2 0x2796 JUMPI PUSH4 0x4E487B71 PUSH1 0xE0 SHL PUSH1 0x0 MSTORE PUSH1 0x32 PUSH1 0x4 MSTORE PUSH1 0x24 PUSH1 0x0 REVERT JUMPDEST PUSH1 0x0 SWAP2 DUP3 MSTORE PUSH1 0x20 SWAP1 SWAP2 KECCAK256 ADD SLOAD PUSH1 0x1 SWAP1 PUSH1 0x1 PUSH1 0x1 PUSH1 0xA0 SHL SUB AND PUSH2 0x31AE JUMP JUMPDEST POP PUSH2 0x286A DUP3 PUSH1 0x5 ADD DUP3 DUP2 SLOAD DUP2 LT PUSH2 0x27DA JUMPI PUSH4 0x4E487B71 PUSH1 0xE0 SHL PUSH1 0x0 MSTORE PUSH1 0x32 PUSH1 0x4 MSTORE PUSH1 0x24 PUSH1 0x0 REVERT JUMPDEST PUSH1 0x0 SWAP2 DUP3 MSTORE PUSH1 0x20 SWAP1 SWAP2 KECCAK256 ADD SLOAD PUSH1 0x7 DUP5 DUP2 ADD DUP1 SLOAD PUSH1 0x1 PUSH1 0x1 PUSH1 0xA0 SHL SUB SWAP1 SWAP4 AND SWAP3 DUP6 SWAP1 DUP2 LT PUSH2 0x2817 JUMPI PUSH4 0x4E487B71 PUSH1 0xE0 SHL PUSH1 0x0 MSTORE PUSH1 0x32 PUSH1 0x4 MSTORE PUSH1 0x24 PUSH1 0x0 REVERT JUMPDEST PUSH1 0x0 SWAP2 DUP3 MSTORE PUSH1 0x20 SWAP2 DUP3 SWAP1 KECCAK256 SWAP2 DUP2 DIV SWAP1 SWAP2 ADD SLOAD PUSH1 0xFF PUSH1 0x1F SWAP1 SWAP3 AND PUSH2 0x100 EXP SWAP1 DIV AND PUSH1 0x4 DUP2 LT PUSH2 0x2855 JUMPI PUSH4 0x4E487B71 PUSH1 0xE0 SHL PUSH1 0x0 MSTORE PUSH1 0x32 PUSH1 0x4 MSTORE PUSH1 0x24 PUSH1 0x0 REVERT JUMPDEST PUSH1 0x7 MUL ADD PUSH1 0x1 ADD PUSH2 0x31AE SWAP1 SWAP2 SWAP1 PUSH4 0xFFFFFFFF AND JUMP JUMPDEST POP DUP1 PUSH2 0x2875 DUP2 PUSH2 0x4CF8 JUMP JUMPDEST SWAP2 POP POP PUSH2 0x2764 JUMP JUMPDEST PUSH1 0x40 MLOAD PUSH2 0x25B9 SWAP1 DUP3 SWAP1 PUSH2 0x496A JUMP JUMPDEST PUSH2 0xFFFF DUP1 DUP3 AND PUSH1 0x0 SWAP1 DUP2 MSTORE PUSH1 0x6 PUSH1 0x20 MSTORE PUSH1 0x40 SWAP1 KECCAK256 PUSH1 0x1 ADD SLOAD PUSH2 0x100 SWAP1 DIV AND ISZERO DUP1 ISZERO SWAP1 PUSH2 0x28E1 JUMPI POP PUSH1 0x2 PUSH2 0x28BE PUSH1 0x1 PUSH2 0x2CF5 JUMP JUMPDEST PUSH2 0x28C8 SWAP2 SWAP1 PUSH2 0x4BF0 JUMP JUMPDEST PUSH2 0xFFFF DUP3 AND PUSH1 0x0 SWAP1 DUP2 MSTORE PUSH1 0x6 PUSH1 0x20 MSTORE PUSH1 0x40 SWAP1 KECCAK256 PUSH1 0x3 ADD SLOAD GT JUMPDEST ISZERO PUSH2 0x298E JUMPI PUSH2 0xFFFF DUP2 AND PUSH1 0x0 SWAP1 DUP2 MSTORE PUSH1 0x6 PUSH1 0x20 SWAP1 DUP2 MSTORE PUSH1 0x40 DUP1 DUP4 KECCAK256 PUSH1 0x23 SWAP1 SWAP3 MSTORE SWAP1 SWAP2 KECCAK256 DUP1 SLOAD PUSH1 0xFF NOT AND PUSH1 0x1 OR SWAP1 SSTORE PUSH1 0x5 DUP2 ADD SLOAD PUSH2 0x294E SWAP1 PUSH1 0x1 PUSH1 0x1 PUSH1 0xA0 SHL SUB DUP2 AND SWAP1 PUSH1 0x7 SWAP1 PUSH1 0x1 PUSH1 0xA0 SHL SWAP1 DIV PUSH1 0xFF AND PUSH1 0x4 DUP2 LT PUSH2 0x2855 JUMPI PUSH4 0x4E487B71 PUSH1 0xE0 SHL PUSH1 0x0 MSTORE PUSH1 0x32 PUSH1 0x4 MSTORE PUSH1 0x24 PUSH1 0x0 REVERT JUMPDEST POP PUSH1 0x5 DUP2 ADD SLOAD PUSH2 0x25AA SWAP1 PUSH1 0x1 PUSH1 0x1 PUSH1 0xA0 SHL SUB DUP2 AND SWAP1 PUSH1 0x7 SWAP1 PUSH1 0x1 PUSH1 0xA8 SHL SWAP1 DIV PUSH1 0xFF AND PUSH1 0x4 DUP2 LT PUSH2 0x2733 JUMPI PUSH4 0x4E487B71 PUSH1 0xE0 SHL PUSH1 0x0 MSTORE PUSH1 0x32 PUSH1 0x4 MSTORE PUSH1 0x24 PUSH1 0x0 REVERT JUMPDEST PUSH1 0x2 PUSH2 0x299A PUSH1 0x1 PUSH2 0x2CF5 JUMP JUMPDEST PUSH2 0x29A4 SWAP2 SWAP1 PUSH2 0x4BF0 JUMP JUMPDEST PUSH2 0xFFFF DUP3 AND PUSH1 0x0 SWAP1 DUP2 MSTORE PUSH1 0x4 PUSH1 0x20 MSTORE PUSH1 0x40 SWAP1 KECCAK256 PUSH1 0x3 ADD SLOAD GT ISZERO PUSH2 0x2A3D JUMPI PUSH2 0xFFFF DUP2 AND PUSH1 0x0 SWAP1 DUP2 MSTORE PUSH1 0x23 PUSH1 0x20 SWAP1 DUP2 MSTORE PUSH1 0x40 DUP1 DUP4 KECCAK256 DUP1 SLOAD PUSH1 0xFF NOT AND PUSH1 0x1 OR SWAP1 SSTORE PUSH1 0x4 SWAP1 SWAP2 MSTORE SWAP1 DUP2 SWAP1 KECCAK256 SWAP1 MLOAD PUSH2 0x29F7 SWAP2 SWAP1 PUSH2 0x496A JUMP JUMPDEST PUSH1 0x40 DUP1 MLOAD SWAP2 DUP3 SWAP1 SUB DUP3 KECCAK256 PUSH2 0xFFFF DUP5 DUP2 AND PUSH1 0x0 SWAP1 DUP2 MSTORE PUSH1 0x4 PUSH1 0x20 SWAP1 DUP2 MSTORE SWAP4 SWAP1 KECCAK256 PUSH1 0x1 ADD SLOAD PUSH2 0x100 SWAP1 DIV AND DUP4 MSTORE SWAP2 PUSH1 0x0 DUP1 MLOAD PUSH1 0x20 PUSH2 0x4D60 DUP4 CODECOPY DUP2 MLOAD SWAP2 MSTORE SWAP2 ADD PUSH1 0x40 MLOAD DUP1 SWAP2 SUB SWAP1 LOG2 JUMPDEST POP JUMP JUMPDEST CALLER DUP3 PUSH2 0x2A67 DUP3 PUSH1 0x7 DUP4 PUSH1 0x4 DUP2 LT PUSH2 0x620 JUMPI PUSH4 0x4E487B71 PUSH1 0xE0 SHL PUSH1 0x0 MSTORE PUSH1 0x32 PUSH1 0x4 MSTORE PUSH1 0x24 PUSH1 0x0 REVERT JUMPDEST PUSH2 0x2A70 JUMPI PUSH1 0x0 DUP1 REVERT JUMPDEST PUSH2 0x2AAC DUP4 CALLER PUSH1 0x7 DUP8 PUSH1 0x4 DUP2 LT PUSH2 0x2A96 JUMPI PUSH4 0x4E487B71 PUSH1 0xE0 SHL PUSH1 0x0 MSTORE PUSH1 0x32 PUSH1 0x4 MSTORE PUSH1 0x24 PUSH1 0x0 REVERT JUMPDEST PUSH1 0x7 MUL ADD PUSH1 0x4 ADD PUSH2 0x31C3 SWAP1 SWAP3 SWAP2 SWAP1 PUSH4 0xFFFFFFFF AND JUMP JUMPDEST POP POP POP POP JUMP JUMPDEST PUSH2 0x2ABA PUSH2 0x3D47 JUMP JUMPDEST PUSH2 0x2AC2 PUSH2 0x3FDB JUMP JUMPDEST PUSH2 0x2AFC DUP4 PUSH1 0x7 DUP7 PUSH1 0x4 DUP2 LT PUSH2 0x2AE7 JUMPI PUSH4 0x4E487B71 PUSH1 0xE0 SHL PUSH1 0x0 MSTORE PUSH1 0x32 PUSH1 0x4 MSTORE PUSH1 0x24 PUSH1 0x0 REVERT JUMPDEST PUSH1 0x7 MUL ADD PUSH1 0x4 ADD PUSH2 0x3409 SWAP1 SWAP2 SWAP1 PUSH4 0xFFFFFFFF AND JUMP JUMPDEST SWAP2 POP SWAP2 POP SWAP3 POP SWAP3 SWAP1 POP JUMP JUMPDEST PUSH1 0x0 PUSH2 0x2B1C DUP4 PUSH1 0x1 PUSH1 0x1 PUSH1 0xA0 SHL SUB DUP5 AND PUSH2 0x3876 JUMP JUMPDEST SWAP4 SWAP3 POP POP POP JUMP JUMPDEST PUSH1 0x1 PUSH1 0x1 PUSH1 0xA0 SHL SUB DUP2 AND PUSH1 0x0 SWAP1 DUP2 MSTORE PUSH1 0x1 DUP4 ADD PUSH1 0x20 MSTORE PUSH1 0x40 DUP2 KECCAK256 SLOAD ISZERO ISZERO PUSH2 0x2B1C JUMP JUMPDEST PUSH1 0x40 DUP1 MLOAD PUSH2 0x140 DUP2 ADD DUP3 MSTORE PUSH1 0x80 DUP2 ADD DUP8 DUP2 MSTORE PUSH1 0xFF DUP8 AND PUSH1 0xA0 DUP4 ADD MSTORE DUP9 SLOAD PUSH2 0xFFFF AND PUSH1 0xC0 DUP4 ADD DUP2 SWAP1 MSTORE TIMESTAMP PUSH1 0xE0 DUP5 ADD MSTORE PUSH1 0x0 PUSH2 0x100 DUP5 ADD DUP2 SWAP1 MSTORE PUSH1 0x60 PUSH2 0x120 DUP6 ADD DUP2 SWAP1 MSTORE SWAP3 DUP5 MSTORE PUSH1 0x20 DUP1 DUP6 ADD DUP10 SWAP1 MSTORE DUP5 DUP7 ADD DUP9 SWAP1 MSTORE DUP5 DUP5 ADD DUP8 SWAP1 MSTORE SWAP2 DUP2 MSTORE PUSH1 0x1 DUP12 ADD DUP3 MSTORE SWAP4 SWAP1 SWAP4 KECCAK256 DUP3 MLOAD DUP1 MLOAD DUP1 MLOAD SWAP4 SWAP6 SWAP3 SWAP4 SWAP2 SWAP3 DUP5 SWAP3 PUSH2 0x2BC6 SWAP3 DUP5 SWAP3 ADD SWAP1 PUSH2 0x3C6E JUMP JUMPDEST POP PUSH1 0x20 DUP3 DUP2 ADD MLOAD PUSH1 0x1 DUP4 ADD DUP1 SLOAD PUSH1 0x40 DUP7 ADD MLOAD PUSH2 0xFFFF AND PUSH2 0x100 MUL PUSH3 0xFFFFFF NOT SWAP1 SWAP2 AND PUSH1 0xFF SWAP1 SWAP4 AND SWAP3 SWAP1 SWAP3 OR SWAP2 SWAP1 SWAP2 OR SWAP1 SSTORE PUSH1 0x60 DUP4 ADD MLOAD PUSH1 0x2 DUP4 ADD SSTORE PUSH1 0x80 DUP4 ADD MLOAD PUSH1 0x3 DUP4 ADD SSTORE PUSH1 0xA0 DUP4 ADD MLOAD DUP1 MLOAD PUSH2 0x2C22 SWAP3 PUSH1 0x4 DUP6 ADD SWAP3 ADD SWAP1 PUSH2 0x3CF2 JUMP JUMPDEST POP POP POP PUSH1 0x20 DUP3 DUP2 ADD MLOAD DUP1 MLOAD PUSH2 0x2C3D SWAP3 PUSH1 0x5 DUP6 ADD SWAP3 ADD SWAP1 PUSH2 0x3CF2 JUMP JUMPDEST POP PUSH1 0x40 DUP3 ADD MLOAD DUP1 MLOAD PUSH2 0x2C59 SWAP2 PUSH1 0x6 DUP5 ADD SWAP2 PUSH1 0x20 SWAP1 SWAP2 ADD SWAP1 PUSH2 0x3EAD JUMP JUMPDEST POP PUSH1 0x60 DUP3 ADD MLOAD DUP1 MLOAD PUSH2 0x2C75 SWAP2 PUSH1 0x7 DUP5 ADD SWAP2 PUSH1 0x20 SWAP1 SWAP2 ADD SWAP1 PUSH2 0x3F06 JUMP JUMPDEST POP POP DUP8 SLOAD PUSH2 0xFFFF AND SWAP1 POP DUP8 PUSH1 0x0 PUSH2 0x2C8B DUP4 PUSH2 0x4CD6 JUMP JUMPDEST DUP3 SLOAD PUSH2 0x100 SWAP3 SWAP1 SWAP3 EXP PUSH2 0xFFFF DUP2 DUP2 MUL NOT SWAP1 SWAP4 AND SWAP2 DUP4 AND MUL OR SWAP1 SWAP2 SSTORE DUP9 SLOAD PUSH2 0x2CB6 SWAP3 POP PUSH1 0x1 SWAP2 AND PUSH2 0x4C3B JUMP JUMPDEST PUSH2 0xFFFF AND DUP7 PUSH1 0x40 MLOAD PUSH2 0x2CC8 SWAP2 SWAP1 PUSH2 0x494E JUMP JUMPDEST PUSH1 0x40 DUP1 MLOAD SWAP2 DUP3 SWAP1 SUB DUP3 KECCAK256 PUSH1 0xFF DUP10 AND DUP4 MSTORE TIMESTAMP PUSH1 0x20 DUP5 ADD MSTORE SWAP2 PUSH1 0x0 DUP1 MLOAD PUSH1 0x20 PUSH2 0x4D40 DUP4 CODECOPY DUP2 MLOAD SWAP2 MSTORE SWAP2 ADD PUSH2 0x11B9 JUMP JUMPDEST PUSH1 0x0 PUSH2 0x499 DUP3 SLOAD SWAP1 JUMP JUMPDEST PUSH1 0x0 PUSH2 0x2B1C DUP4 DUP4 PUSH2 0x38C5 JUMP JUMPDEST PUSH1 0x40 DUP1 MLOAD PUSH2 0x100 DUP2 ADD DUP3 MSTORE DUP1 DUP3 ADD DUP6 DUP2 MSTORE PUSH1 0xFF DUP6 AND PUSH1 0x60 DUP4 DUP2 ADD SWAP2 SWAP1 SWAP2 MSTORE DUP8 SLOAD PUSH2 0xFFFF AND PUSH1 0x80 DUP5 ADD DUP2 SWAP1 MSTORE TIMESTAMP PUSH1 0xA0 DUP6 ADD MSTORE PUSH1 0x0 PUSH1 0xC0 DUP6 ADD DUP2 SWAP1 MSTORE PUSH1 0xE0 DUP6 ADD DUP4 SWAP1 MSTORE SWAP3 DUP5 MSTORE PUSH1 0x20 DUP1 DUP6 ADD DUP8 SWAP1 MSTORE SWAP1 DUP4 MSTORE PUSH1 0x2 DUP10 ADD DUP2 MSTORE SWAP4 SWAP1 SWAP2 KECCAK256 DUP3 MLOAD DUP1 MLOAD DUP1 MLOAD SWAP4 SWAP6 SWAP3 SWAP4 SWAP2 SWAP3 DUP5 SWAP3 PUSH2 0x2D7F SWAP3 DUP5 SWAP3 ADD SWAP1 PUSH2 0x3C6E JUMP JUMPDEST POP PUSH1 0x20 DUP3 DUP2 ADD MLOAD PUSH1 0x1 DUP4 ADD DUP1 SLOAD PUSH1 0x40 DUP7 ADD MLOAD PUSH2 0xFFFF AND PUSH2 0x100 MUL PUSH3 0xFFFFFF NOT SWAP1 SWAP2 AND PUSH1 0xFF SWAP1 SWAP4 AND SWAP3 SWAP1 SWAP3 OR SWAP2 SWAP1 SWAP2 OR SWAP1 SSTORE PUSH1 0x60 DUP4 ADD MLOAD PUSH1 0x2 DUP4 ADD SSTORE PUSH1 0x80 DUP4 ADD MLOAD PUSH1 0x3 DUP4 ADD SSTORE PUSH1 0xA0 DUP4 ADD MLOAD DUP1 MLOAD PUSH2 0x2DDB SWAP3 PUSH1 0x4 DUP6 ADD SWAP3 ADD SWAP1 PUSH2 0x3CF2 JUMP JUMPDEST POP POP POP PUSH1 0x20 SWAP2 SWAP1 SWAP2 ADD MLOAD PUSH1 0x5 SWAP1 SWAP2 ADD SSTORE DUP5 SLOAD PUSH2 0xFFFF AND DUP6 PUSH1 0x0 PUSH2 0x2DFD DUP4 PUSH2 0x4CD6 JUMP JUMPDEST DUP3 SLOAD PUSH2 0x100 SWAP3 SWAP1 SWAP3 EXP PUSH2 0xFFFF DUP2 DUP2 MUL NOT SWAP1 SWAP4 AND SWAP2 DUP4 AND MUL OR SWAP1 SWAP2 SSTORE DUP7 SLOAD PUSH2 0x2E28 SWAP3 POP PUSH1 0x1 SWAP2 AND PUSH2 0x4C3B JUMP JUMPDEST PUSH2 0xFFFF AND DUP5 PUSH1 0x40 MLOAD PUSH2 0x2E3A SWAP2 SWAP1 PUSH2 0x494E JUMP JUMPDEST PUSH1 0x40 DUP1 MLOAD SWAP2 DUP3 SWAP1 SUB DUP3 KECCAK256 PUSH1 0xFF DUP8 AND DUP4 MSTORE TIMESTAMP PUSH1 0x20 DUP5 ADD MSTORE SWAP2 PUSH1 0x0 DUP1 MLOAD PUSH1 0x20 PUSH2 0x4D40 DUP4 CODECOPY DUP2 MLOAD SWAP2 MSTORE SWAP2 ADD PUSH1 0x40 MLOAD DUP1 SWAP2 SUB SWAP1 LOG3 POP POP POP POP POP JUMP JUMPDEST PUSH2 0x2E7C DUP4 DUP4 DUP4 PUSH2 0x395E JUMP JUMPDEST POP DUP3 PUSH1 0x1 PUSH1 0x1 PUSH1 0xA0 SHL SUB AND PUSH32 0x4BD02E6E14D9C1417BA3582A754B1124AD2FBE11AD4CEE6B51D08EBADFC0792 DUP3 PUSH1 0x40 MLOAD PUSH2 0x1665 SWAP2 DUP2 MSTORE PUSH1 0x20 ADD SWAP1 JUMP JUMPDEST PUSH2 0xFFFF DUP1 DUP3 AND PUSH1 0x0 SWAP1 DUP2 MSTORE PUSH1 0x1 DUP1 DUP6 ADD PUSH1 0x20 MSTORE PUSH1 0x40 DUP3 KECCAK256 ADD SLOAD SWAP1 SWAP2 PUSH2 0x100 SWAP1 SWAP2 DIV AND ISZERO DUP1 ISZERO SWAP1 PUSH2 0x2F3B JUMPI POP PUSH2 0xFFFF DUP3 AND PUSH1 0x0 SWAP1 DUP2 MSTORE PUSH1 0x1 DUP1 DUP6 ADD PUSH1 0x20 MSTORE PUSH1 0x40 SWAP1 SWAP2 KECCAK256 ADD SLOAD PUSH2 0x2F0C SWAP1 PUSH1 0xFF AND PUSH3 0x15180 PUSH2 0x4C10 JUMP JUMPDEST PUSH2 0xFFFF DUP4 AND PUSH1 0x0 SWAP1 DUP2 MSTORE PUSH1 0x1 DUP6 ADD PUSH1 0x20 MSTORE PUSH1 0x40 SWAP1 KECCAK256 PUSH1 0x2 ADD SLOAD PUSH3 0xFFFFFF SWAP2 SWAP1 SWAP2 AND SWAP1 PUSH2 0x2F38 SWAP1 TIMESTAMP PUSH2 0x4C5E JUMP JUMPDEST LT ISZERO JUMPDEST ISZERO PUSH2 0x3007 JUMPI PUSH2 0xFFFF DUP3 AND PUSH1 0x0 DUP2 DUP2 MSTORE PUSH1 0x1 DUP6 ADD PUSH1 0x20 MSTORE PUSH1 0x40 SWAP1 DUP2 SWAP1 KECCAK256 SWAP1 MLOAD PUSH2 0x2F63 SWAP2 SWAP1 PUSH2 0x496A JUMP JUMPDEST PUSH1 0x40 MLOAD SWAP1 DUP2 SWAP1 SUB DUP2 KECCAK256 SWAP1 PUSH1 0x0 DUP1 MLOAD PUSH1 0x20 PUSH2 0x4DA9 DUP4 CODECOPY DUP2 MLOAD SWAP2 MSTORE SWAP1 PUSH1 0x0 SWAP1 LOG3 PUSH2 0xFFFF DUP3 AND PUSH1 0x0 SWAP1 DUP2 MSTORE PUSH1 0x1 DUP5 ADD PUSH1 0x20 MSTORE PUSH1 0x40 DUP2 KECCAK256 SWAP1 DUP2 DUP2 PUSH2 0x2FA3 DUP3 DUP3 PUSH2 0x3F40 JUMP JUMPDEST PUSH1 0x1 DUP3 ADD DUP1 SLOAD PUSH3 0xFFFFFF NOT AND SWAP1 SSTORE PUSH1 0x0 PUSH1 0x2 DUP4 ADD DUP2 SWAP1 SSTORE PUSH1 0x3 DUP4 ADD DUP2 SWAP1 SSTORE PUSH2 0x2FCF SWAP1 PUSH1 0x4 DUP5 ADD SWAP1 PUSH2 0x3F7A JUMP JUMPDEST POP PUSH2 0x2FE0 SWAP1 POP PUSH1 0x5 DUP4 ADD PUSH1 0x0 PUSH2 0x3F7A JUMP JUMPDEST PUSH2 0x2FEE PUSH1 0x6 DUP4 ADD PUSH1 0x0 PUSH2 0x3F98 JUMP JUMPDEST PUSH2 0x2FFC PUSH1 0x7 DUP4 ADD PUSH1 0x0 PUSH2 0x3F7A JUMP JUMPDEST POP POP PUSH1 0x1 SWAP1 POP PUSH2 0x499 JUMP JUMPDEST PUSH2 0xFFFF DUP1 DUP4 AND PUSH1 0x0 SWAP1 DUP2 MSTORE PUSH1 0x2 DUP6 ADD PUSH1 0x20 MSTORE PUSH1 0x40 SWAP1 KECCAK256 PUSH1 0x1 ADD SLOAD PUSH2 0x100 SWAP1 DIV AND ISZERO DUP1 ISZERO SWAP1 PUSH2 0x3088 JUMPI POP PUSH2 0xFFFF DUP3 AND PUSH1 0x0 SWAP1 DUP2 MSTORE PUSH1 0x2 DUP5 ADD PUSH1 0x20 MSTORE PUSH1 0x40 SWAP1 KECCAK256 PUSH1 0x1 ADD SLOAD PUSH2 0x3059 SWAP1 PUSH1 0xFF AND PUSH3 0x15180 PUSH2 0x4C10 JUMP JUMPDEST PUSH2 0xFFFF DUP4 AND PUSH1 0x0 SWAP1 DUP2 MSTORE PUSH1 0x2 DUP1 DUP7 ADD PUSH1 0x20 MSTORE PUSH1 0x40 SWAP1 SWAP2 KECCAK256 ADD SLOAD PUSH3 0xFFFFFF SWAP2 SWAP1 SWAP2 AND SWAP1 PUSH2 0x3085 SWAP1 TIMESTAMP PUSH2 0x4C5E JUMP JUMPDEST LT ISZERO JUMPDEST ISZERO PUSH2 0x3131 JUMPI PUSH2 0xFFFF DUP3 AND PUSH1 0x0 DUP2 DUP2 MSTORE PUSH1 0x2 DUP6 ADD PUSH1 0x20 MSTORE PUSH1 0x40 SWAP1 DUP2 SWAP1 KECCAK256 SWAP1 MLOAD PUSH2 0x30B0 SWAP2 SWAP1 PUSH2 0x496A JUMP JUMPDEST PUSH1 0x40 MLOAD SWAP1 DUP2 SWAP1 SUB DUP2 KECCAK256 SWAP1 PUSH1 0x0 DUP1 MLOAD PUSH1 0x20 PUSH2 0x4DA9 DUP4 CODECOPY DUP2 MLOAD SWAP2 MSTORE SWAP1 PUSH1 0x0 SWAP1 LOG3 PUSH2 0xFFFF DUP3 AND PUSH1 0x0 SWAP1 DUP2 MSTORE PUSH1 0x2 DUP5 ADD PUSH1 0x20 MSTORE PUSH1 0x40 DUP2 KECCAK256 SWAP1 DUP2 DUP2 PUSH2 0x30F0 DUP3 DUP3 PUSH2 0x3F40 JUMP JUMPDEST PUSH1 0x1 DUP3 ADD DUP1 SLOAD PUSH3 0xFFFFFF NOT AND SWAP1 SSTORE PUSH1 0x0 PUSH1 0x2 DUP4 ADD DUP2 SWAP1 SSTORE PUSH1 0x3 DUP4 ADD DUP2 SWAP1 SSTORE PUSH2 0x311C SWAP1 PUSH1 0x4 DUP5 ADD SWAP1 PUSH2 0x3F7A JUMP JUMPDEST POP POP PUSH1 0x5 DUP3 ADD PUSH1 0x0 SWAP1 SSTORE POP POP PUSH1 0x1 SWAP1 POP PUSH2 0x499 JUMP JUMPDEST POP PUSH1 0x0 SWAP3 SWAP2 POP POP JUMP JUMPDEST PUSH1 0x0 DUP1 JUMPDEST DUP4 MLOAD DUP2 LT ISZERO PUSH2 0x31A4 JUMPI DUP3 PUSH1 0x1 PUSH1 0x1 PUSH1 0xA0 SHL SUB AND DUP5 DUP3 DUP2 MLOAD DUP2 LT PUSH2 0x3171 JUMPI PUSH4 0x4E487B71 PUSH1 0xE0 SHL PUSH1 0x0 MSTORE PUSH1 0x32 PUSH1 0x4 MSTORE PUSH1 0x24 PUSH1 0x0 REVERT JUMPDEST PUSH1 0x20 MUL PUSH1 0x20 ADD ADD MLOAD PUSH1 0x1 PUSH1 0x1 PUSH1 0xA0 SHL SUB AND EQ ISZERO PUSH2 0x3192 JUMPI PUSH1 0x0 SWAP2 POP POP PUSH2 0x499 JUMP JUMPDEST DUP1 PUSH2 0x319C DUP2 PUSH2 0x4CF8 JUMP JUMPDEST SWAP2 POP POP PUSH2 0x313E JUMP JUMPDEST POP PUSH1 0x1 SWAP4 SWAP3 POP POP POP JUMP JUMPDEST PUSH1 0x0 PUSH2 0x2B1C DUP4 PUSH1 0x1 PUSH1 0x1 PUSH1 0xA0 SHL SUB DUP5 AND PUSH2 0x398C JUMP JUMPDEST PUSH2 0xFFFF DUP1 DUP4 AND PUSH1 0x0 SWAP1 DUP2 MSTORE PUSH1 0x1 DUP1 DUP7 ADD PUSH1 0x20 MSTORE PUSH1 0x40 SWAP1 SWAP2 KECCAK256 ADD SLOAD PUSH2 0x100 SWAP1 DIV AND ISZERO PUSH2 0x32E7 JUMPI PUSH2 0xFFFF DUP3 AND PUSH1 0x0 SWAP1 DUP2 MSTORE PUSH1 0x1 DUP5 ADD PUSH1 0x20 SWAP1 DUP2 MSTORE PUSH1 0x40 SWAP2 DUP3 SWAP1 KECCAK256 PUSH1 0x4 ADD DUP1 SLOAD DUP4 MLOAD DUP2 DUP5 MUL DUP2 ADD DUP5 ADD SWAP1 SWAP5 MSTORE DUP1 DUP5 MSTORE PUSH2 0x325E SWAP4 SWAP3 DUP4 ADD DUP3 DUP3 DUP1 ISZERO PUSH2 0x3253 JUMPI PUSH1 0x20 MUL DUP3 ADD SWAP2 SWAP1 PUSH1 0x0 MSTORE PUSH1 0x20 PUSH1 0x0 KECCAK256 SWAP1 JUMPDEST DUP2 SLOAD PUSH1 0x1 PUSH1 0x1 PUSH1 0xA0 SHL SUB AND DUP2 MSTORE PUSH1 0x1 SWAP1 SWAP2 ADD SWAP1 PUSH1 0x20 ADD DUP1 DUP4 GT PUSH2 0x3235 JUMPI JUMPDEST POP POP POP POP POP DUP3 PUSH2 0x3AA3 JUMP JUMPDEST ISZERO PUSH2 0x215C JUMPI PUSH2 0xFFFF DUP3 AND PUSH1 0x0 SWAP1 DUP2 MSTORE PUSH1 0x1 DUP5 ADD PUSH1 0x20 MSTORE PUSH1 0x40 DUP2 KECCAK256 PUSH1 0x3 ADD DUP1 SLOAD SWAP2 PUSH2 0x3287 DUP4 PUSH2 0x4CF8 JUMP JUMPDEST SWAP1 SWAP2 SSTORE POP POP PUSH2 0xFFFF DUP3 AND PUSH1 0x0 DUP2 DUP2 MSTORE PUSH1 0x1 DUP6 DUP2 ADD PUSH1 0x20 SWAP1 DUP2 MSTORE PUSH1 0x40 DUP1 DUP5 KECCAK256 PUSH1 0x4 DUP2 ADD DUP1 SLOAD SWAP5 DUP6 ADD DUP2 SSTORE DUP6 MSTORE SWAP2 DUP5 KECCAK256 SWAP1 SWAP3 ADD DUP1 SLOAD PUSH1 0x1 PUSH1 0x1 PUSH1 0xA0 SHL SUB NOT AND PUSH1 0x1 PUSH1 0x1 PUSH1 0xA0 SHL SUB DUP8 AND SWAP1 DUP2 OR SWAP1 SWAP2 SSTORE SWAP3 DUP5 SWAP1 MSTORE SWAP1 MLOAD SWAP2 SWAP3 SWAP2 PUSH2 0x212B SWAP2 SWAP1 PUSH2 0x496A JUMP JUMPDEST PUSH2 0xFFFF DUP1 DUP4 AND PUSH1 0x0 SWAP1 DUP2 MSTORE PUSH1 0x2 DUP6 ADD PUSH1 0x20 MSTORE PUSH1 0x40 SWAP1 KECCAK256 PUSH1 0x1 ADD SLOAD PUSH2 0x100 SWAP1 DIV AND ISZERO PUSH2 0x215C JUMPI PUSH2 0xFFFF DUP3 AND PUSH1 0x0 SWAP1 DUP2 MSTORE PUSH1 0x2 DUP5 ADD PUSH1 0x20 SWAP1 DUP2 MSTORE PUSH1 0x40 SWAP2 DUP3 SWAP1 KECCAK256 PUSH1 0x4 ADD DUP1 SLOAD DUP4 MLOAD DUP2 DUP5 MUL DUP2 ADD DUP5 ADD SWAP1 SWAP5 MSTORE DUP1 DUP5 MSTORE PUSH2 0x3380 SWAP4 SWAP3 DUP4 ADD DUP3 DUP3 DUP1 ISZERO PUSH2 0x3253 JUMPI PUSH1 0x20 MUL DUP3 ADD SWAP2 SWAP1 PUSH1 0x0 MSTORE PUSH1 0x20 PUSH1 0x0 KECCAK256 SWAP1 DUP2 SLOAD PUSH1 0x1 PUSH1 0x1 PUSH1 0xA0 SHL SUB AND DUP2 MSTORE PUSH1 0x1 SWAP1 SWAP2 ADD SWAP1 PUSH1 0x20 ADD DUP1 DUP4 GT PUSH2 0x3235 JUMPI POP POP POP POP POP DUP3 PUSH2 0x3AA3 JUMP JUMPDEST ISZERO PUSH2 0x215C JUMPI PUSH2 0xFFFF DUP3 AND PUSH1 0x0 SWAP1 DUP2 MSTORE PUSH1 0x2 DUP5 ADD PUSH1 0x20 MSTORE PUSH1 0x40 DUP2 KECCAK256 PUSH1 0x3 ADD DUP1 SLOAD SWAP2 PUSH2 0x33A9 DUP4 PUSH2 0x4CF8 JUMP JUMPDEST SWAP1 SWAP2 SSTORE POP POP PUSH2 0xFFFF DUP3 AND PUSH1 0x0 DUP2 DUP2 MSTORE PUSH1 0x2 DUP6 ADD PUSH1 0x20 SWAP1 DUP2 MSTORE PUSH1 0x40 DUP1 DUP4 KECCAK256 PUSH1 0x4 DUP2 ADD DUP1 SLOAD PUSH1 0x1 DUP2 ADD DUP3 SSTORE SWAP1 DUP6 MSTORE SWAP3 DUP5 KECCAK256 SWAP1 SWAP3 ADD DUP1 SLOAD PUSH1 0x1 PUSH1 0x1 PUSH1 0xA0 SHL SUB NOT AND PUSH1 0x1 PUSH1 0x1 PUSH1 0xA0 SHL SUB DUP8 AND SWAP1 DUP2 OR SWAP1 SWAP2 SSTORE SWAP3 DUP5 SWAP1 MSTORE MLOAD SWAP2 SWAP3 SWAP2 PUSH2 0x212B SWAP2 SWAP1 PUSH2 0x496A JUMP JUMPDEST PUSH2 0x3411 PUSH2 0x3D47 JUMP JUMPDEST PUSH2 0x3419 PUSH2 0x3FDB JUMP JUMPDEST PUSH2 0xFFFF DUP4 AND PUSH1 0x0 SWAP1 DUP2 MSTORE PUSH1 0x1 DUP6 ADD PUSH1 0x20 SWAP1 DUP2 MSTORE PUSH1 0x40 DUP1 DUP4 KECCAK256 PUSH1 0x2 DUP9 ADD SWAP1 SWAP3 MSTORE SWAP2 DUP3 SWAP1 KECCAK256 DUP3 MLOAD PUSH2 0x140 DUP2 ADD SWAP1 SWAP4 MSTORE DUP2 SLOAD SWAP2 SWAP3 SWAP1 SWAP2 DUP4 SWAP1 DUP3 SWAP1 PUSH1 0x80 DUP3 ADD SWAP1 DUP4 SWAP1 DUP3 SWAP1 DUP3 SWAP1 PUSH2 0x3464 SWAP1 PUSH2 0x4CA1 JUMP JUMPDEST DUP1 PUSH1 0x1F ADD PUSH1 0x20 DUP1 SWAP2 DIV MUL PUSH1 0x20 ADD PUSH1 0x40 MLOAD SWAP1 DUP2 ADD PUSH1 0x40 MSTORE DUP1 SWAP3 SWAP2 SWAP1 DUP2 DUP2 MSTORE PUSH1 0x20 ADD DUP3 DUP1 SLOAD PUSH2 0x3490 SWAP1 PUSH2 0x4CA1 JUMP JUMPDEST DUP1 ISZERO PUSH2 0x34DD JUMPI DUP1 PUSH1 0x1F LT PUSH2 0x34B2 JUMPI PUSH2 0x100 DUP1 DUP4 SLOAD DIV MUL DUP4 MSTORE SWAP2 PUSH1 0x20 ADD SWAP2 PUSH2 0x34DD JUMP JUMPDEST DUP3 ADD SWAP2 SWAP1 PUSH1 0x0 MSTORE PUSH1 0x20 PUSH1 0x0 KECCAK256 SWAP1 JUMPDEST DUP2 SLOAD DUP2 MSTORE SWAP1 PUSH1 0x1 ADD SWAP1 PUSH1 0x20 ADD DUP1 DUP4 GT PUSH2 0x34C0 JUMPI DUP3 SWAP1 SUB PUSH1 0x1F AND DUP3 ADD SWAP2 JUMPDEST POP POP POP SWAP2 DUP4 MSTORE POP POP PUSH1 0x1 DUP3 ADD SLOAD PUSH1 0xFF DUP2 AND PUSH1 0x20 DUP1 DUP5 ADD SWAP2 SWAP1 SWAP2 MSTORE PUSH2 0x100 SWAP1 SWAP2 DIV PUSH2 0xFFFF AND PUSH1 0x40 DUP1 DUP5 ADD SWAP2 SWAP1 SWAP2 MSTORE PUSH1 0x2 DUP5 ADD SLOAD PUSH1 0x60 DUP5 ADD MSTORE PUSH1 0x3 DUP5 ADD SLOAD PUSH1 0x80 DUP5 ADD MSTORE PUSH1 0x4 DUP5 ADD DUP1 SLOAD DUP3 MLOAD DUP2 DUP6 MUL DUP2 ADD DUP6 ADD SWAP1 SWAP4 MSTORE DUP1 DUP4 MSTORE PUSH1 0xA0 SWAP1 SWAP5 ADD SWAP4 SWAP2 SWAP3 SWAP1 SWAP2 SWAP1 DUP4 ADD DUP3 DUP3 DUP1 ISZERO PUSH2 0x3577 JUMPI PUSH1 0x20 MUL DUP3 ADD SWAP2 SWAP1 PUSH1 0x0 MSTORE PUSH1 0x20 PUSH1 0x0 KECCAK256 SWAP1 JUMPDEST DUP2 SLOAD PUSH1 0x1 PUSH1 0x1 PUSH1 0xA0 SHL SUB AND DUP2 MSTORE PUSH1 0x1 SWAP1 SWAP2 ADD SWAP1 PUSH1 0x20 ADD DUP1 DUP4 GT PUSH2 0x3559 JUMPI JUMPDEST POP POP POP POP POP DUP2 MSTORE POP POP DUP2 MSTORE PUSH1 0x20 ADD PUSH1 0x5 DUP3 ADD DUP1 SLOAD DUP1 PUSH1 0x20 MUL PUSH1 0x20 ADD PUSH1 0x40 MLOAD SWAP1 DUP2 ADD PUSH1 0x40 MSTORE DUP1 SWAP3 SWAP2 SWAP1 DUP2 DUP2 MSTORE PUSH1 0x20 ADD DUP3 DUP1 SLOAD DUP1 ISZERO PUSH2 0x35DD JUMPI PUSH1 0x20 MUL DUP3 ADD SWAP2 SWAP1 PUSH1 0x0 MSTORE PUSH1 0x20 PUSH1 0x0 KECCAK256 SWAP1 JUMPDEST DUP2 SLOAD PUSH1 0x1 PUSH1 0x1 PUSH1 0xA0 SHL SUB AND DUP2 MSTORE PUSH1 0x1 SWAP1 SWAP2 ADD SWAP1 PUSH1 0x20 ADD DUP1 DUP4 GT PUSH2 0x35BF JUMPI JUMPDEST POP POP POP POP POP DUP2 MSTORE PUSH1 0x20 ADD PUSH1 0x6 DUP3 ADD DUP1 SLOAD DUP1 PUSH1 0x20 MUL PUSH1 0x20 ADD PUSH1 0x40 MLOAD SWAP1 DUP2 ADD PUSH1 0x40 MSTORE DUP1 SWAP3 SWAP2 SWAP1 DUP2 DUP2 MSTORE PUSH1 0x20 ADD PUSH1 0x0 SWAP1 JUMPDEST DUP3 DUP3 LT ISZERO PUSH2 0x36B7 JUMPI DUP4 DUP3 SWAP1 PUSH1 0x0 MSTORE PUSH1 0x20 PUSH1 0x0 KECCAK256 ADD DUP1 SLOAD PUSH2 0x362A SWAP1 PUSH2 0x4CA1 JUMP JUMPDEST DUP1 PUSH1 0x1F ADD PUSH1 0x20 DUP1 SWAP2 DIV MUL PUSH1 0x20 ADD PUSH1 0x40 MLOAD SWAP1 DUP2 ADD PUSH1 0x40 MSTORE DUP1 SWAP3 SWAP2 SWAP1 DUP2 DUP2 MSTORE PUSH1 0x20 ADD DUP3 DUP1 SLOAD PUSH2 0x3656 SWAP1 PUSH2 0x4CA1 JUMP JUMPDEST DUP1 ISZERO PUSH2 0x36A3 JUMPI DUP1 PUSH1 0x1F LT PUSH2 0x3678 JUMPI PUSH2 0x100 DUP1 DUP4 SLOAD DIV MUL DUP4 MSTORE SWAP2 PUSH1 0x20 ADD SWAP2 PUSH2 0x36A3 JUMP JUMPDEST DUP3 ADD SWAP2 SWAP1 PUSH1 0x0 MSTORE PUSH1 0x20 PUSH1 0x0 KECCAK256 SWAP1 JUMPDEST DUP2 SLOAD DUP2 MSTORE SWAP1 PUSH1 0x1 ADD SWAP1 PUSH1 0x20 ADD DUP1 DUP4 GT PUSH2 0x3686 JUMPI DUP3 SWAP1 SUB PUSH1 0x1F AND DUP3 ADD SWAP2 JUMPDEST POP POP POP POP POP DUP2 MSTORE PUSH1 0x20 ADD SWAP1 PUSH1 0x1 ADD SWAP1 PUSH2 0x360B JUMP JUMPDEST POP POP POP POP DUP2 MSTORE PUSH1 0x20 ADD PUSH1 0x7 DUP3 ADD DUP1 SLOAD DUP1 PUSH1 0x20 MUL PUSH1 0x20 ADD PUSH1 0x40 MLOAD SWAP1 DUP2 ADD PUSH1 0x40 MSTORE DUP1 SWAP3 SWAP2 SWAP1 DUP2 DUP2 MSTORE PUSH1 0x20 ADD DUP3 DUP1 SLOAD DUP1 ISZERO PUSH2 0x370E JUMPI PUSH1 0x20 MUL DUP3 ADD SWAP2 SWAP1 PUSH1 0x0 MSTORE PUSH1 0x20 PUSH1 0x0 KECCAK256 SWAP1 JUMPDEST DUP2 SLOAD DUP2 MSTORE PUSH1 0x20 ADD SWAP1 PUSH1 0x1 ADD SWAP1 DUP1 DUP4 GT PUSH2 0x36FA JUMPI JUMPDEST POP POP POP SWAP2 SWAP1 SWAP3 MSTORE POP POP PUSH1 0x40 DUP1 MLOAD PUSH2 0x100 DUP2 ADD DUP3 MSTORE DUP5 SLOAD SWAP4 SWAP6 POP SWAP3 DUP5 SWAP3 POP DUP4 SWAP2 DUP3 ADD SWAP1 DUP4 SWAP1 DUP3 SWAP1 DUP3 SWAP1 PUSH2 0x373F SWAP1 PUSH2 0x4CA1 JUMP JUMPDEST DUP1 PUSH1 0x1F ADD PUSH1 0x20 DUP1 SWAP2 DIV MUL PUSH1 0x20 ADD PUSH1 0x40 MLOAD SWAP1 DUP2 ADD PUSH1 0x40 MSTORE DUP1 SWAP3 SWAP2 SWAP1 DUP2 DUP2 MSTORE PUSH1 0x20 ADD DUP3 DUP1 SLOAD PUSH2 0x376B SWAP1 PUSH2 0x4CA1 JUMP JUMPDEST DUP1 ISZERO PUSH2 0x37B8 JUMPI DUP1 PUSH1 0x1F LT PUSH2 0x378D JUMPI PUSH2 0x100 DUP1 DUP4 SLOAD DIV MUL DUP4 MSTORE SWAP2 PUSH1 0x20 ADD SWAP2 PUSH2 0x37B8 JUMP JUMPDEST DUP3 ADD SWAP2 SWAP1 PUSH1 0x0 MSTORE PUSH1 0x20 PUSH1 0x0 KECCAK256 SWAP1 JUMPDEST DUP2 SLOAD DUP2 MSTORE SWAP1 PUSH1 0x1 ADD SWAP1 PUSH1 0x20 ADD DUP1 DUP4 GT PUSH2 0x379B JUMPI DUP3 SWAP1 SUB PUSH1 0x1F AND DUP3 ADD SWAP2 JUMPDEST POP POP POP SWAP2 DUP4 MSTORE POP POP PUSH1 0x1 DUP3 ADD SLOAD PUSH1 0xFF DUP2 AND PUSH1 0x20 DUP1 DUP5 ADD SWAP2 SWAP1 SWAP2 MSTORE PUSH2 0x100 SWAP1 SWAP2 DIV PUSH2 0xFFFF AND PUSH1 0x40 DUP1 DUP5 ADD SWAP2 SWAP1 SWAP2 MSTORE PUSH1 0x2 DUP5 ADD SLOAD PUSH1 0x60 DUP5 ADD MSTORE PUSH1 0x3 DUP5 ADD SLOAD PUSH1 0x80 DUP5 ADD MSTORE PUSH1 0x4 DUP5 ADD DUP1 SLOAD DUP3 MLOAD DUP2 DUP6 MUL DUP2 ADD DUP6 ADD SWAP1 SWAP4 MSTORE DUP1 DUP4 MSTORE PUSH1 0xA0 SWAP1 SWAP5 ADD SWAP4 SWAP2 SWAP3 SWAP1 SWAP2 SWAP1 DUP4 ADD DUP3 DUP3 DUP1 ISZERO PUSH2 0x3852 JUMPI PUSH1 0x20 MUL DUP3 ADD SWAP2 SWAP1 PUSH1 0x0 MSTORE PUSH1 0x20 PUSH1 0x0 KECCAK256 SWAP1 JUMPDEST DUP2 SLOAD PUSH1 0x1 PUSH1 0x1 PUSH1 0xA0 SHL SUB AND DUP2 MSTORE PUSH1 0x1 SWAP1 SWAP2 ADD SWAP1 PUSH1 0x20 ADD DUP1 DUP4 GT PUSH2 0x3834 JUMPI JUMPDEST POP POP POP POP POP DUP2 MSTORE POP POP DUP2 MSTORE PUSH1 0x20 ADD PUSH1 0x5 DUP3 ADD SLOAD DUP2 MSTORE POP POP SWAP1 POP SWAP2 POP SWAP2 POP SWAP3 POP SWAP3 SWAP1 POP JUMP JUMPDEST PUSH1 0x0 DUP2 DUP2 MSTORE PUSH1 0x1 DUP4 ADD PUSH1 0x20 MSTORE PUSH1 0x40 DUP2 KECCAK256 SLOAD PUSH2 0x38BD JUMPI POP DUP2 SLOAD PUSH1 0x1 DUP2 DUP2 ADD DUP5 SSTORE PUSH1 0x0 DUP5 DUP2 MSTORE PUSH1 0x20 DUP1 DUP3 KECCAK256 SWAP1 SWAP4 ADD DUP5 SWAP1 SSTORE DUP5 SLOAD DUP5 DUP3 MSTORE DUP3 DUP7 ADD SWAP1 SWAP4 MSTORE PUSH1 0x40 SWAP1 KECCAK256 SWAP2 SWAP1 SWAP2 SSTORE PUSH2 0x499 JUMP JUMPDEST POP PUSH1 0x0 PUSH2 0x499 JUMP JUMPDEST DUP2 SLOAD PUSH1 0x0 SWAP1 DUP3 LT PUSH2 0x3928 JUMPI PUSH1 0x40 MLOAD PUSH3 0x461BCD PUSH1 0xE5 SHL DUP2 MSTORE PUSH1 0x20 PUSH1 0x4 DUP3 ADD MSTORE PUSH1 0x22 PUSH1 0x24 DUP3 ADD MSTORE PUSH32 0x456E756D657261626C655365743A20696E646578206F7574206F6620626F756E PUSH1 0x44 DUP3 ADD MSTORE PUSH2 0x6473 PUSH1 0xF0 SHL PUSH1 0x64 DUP3 ADD MSTORE PUSH1 0x84 ADD JUMPDEST PUSH1 0x40 MLOAD DUP1 SWAP2 SUB SWAP1 REVERT JUMPDEST DUP3 PUSH1 0x0 ADD DUP3 DUP2 SLOAD DUP2 LT PUSH2 0x394B JUMPI PUSH4 0x4E487B71 PUSH1 0xE0 SHL PUSH1 0x0 MSTORE PUSH1 0x32 PUSH1 0x4 MSTORE PUSH1 0x24 PUSH1 0x0 REVERT JUMPDEST SWAP1 PUSH1 0x0 MSTORE PUSH1 0x20 PUSH1 0x0 KECCAK256 ADD SLOAD SWAP1 POP SWAP3 SWAP2 POP POP JUMP JUMPDEST PUSH1 0x60 PUSH2 0x3984 DUP5 DUP5 DUP5 PUSH1 0x40 MLOAD DUP1 PUSH1 0x60 ADD PUSH1 0x40 MSTORE DUP1 PUSH1 0x29 DUP2 MSTORE PUSH1 0x20 ADD PUSH2 0x4D80 PUSH1 0x29 SWAP2 CODECOPY PUSH2 0x3B0D JUMP JUMPDEST SWAP5 SWAP4 POP POP POP POP JUMP JUMPDEST PUSH1 0x0 DUP2 DUP2 MSTORE PUSH1 0x1 DUP4 ADD PUSH1 0x20 MSTORE PUSH1 0x40 DUP2 KECCAK256 SLOAD DUP1 ISZERO PUSH2 0x3A99 JUMPI PUSH1 0x0 PUSH2 0x39B0 PUSH1 0x1 DUP4 PUSH2 0x4C5E JUMP JUMPDEST DUP6 SLOAD SWAP1 SWAP2 POP PUSH1 0x0 SWAP1 PUSH2 0x39C4 SWAP1 PUSH1 0x1 SWAP1 PUSH2 0x4C5E JUMP JUMPDEST SWAP1 POP PUSH1 0x0 DUP7 PUSH1 0x0 ADD DUP3 DUP2 SLOAD DUP2 LT PUSH2 0x39EB JUMPI PUSH4 0x4E487B71 PUSH1 0xE0 SHL PUSH1 0x0 MSTORE PUSH1 0x32 PUSH1 0x4 MSTORE PUSH1 0x24 PUSH1 0x0 REVERT JUMPDEST SWAP1 PUSH1 0x0 MSTORE PUSH1 0x20 PUSH1 0x0 KECCAK256 ADD SLOAD SWAP1 POP DUP1 DUP8 PUSH1 0x0 ADD DUP5 DUP2 SLOAD DUP2 LT PUSH2 0x3A1C JUMPI PUSH4 0x4E487B71 PUSH1 0xE0 SHL PUSH1 0x0 MSTORE PUSH1 0x32 PUSH1 0x4 MSTORE PUSH1 0x24 PUSH1 0x0 REVERT JUMPDEST PUSH1 0x0 SWAP2 DUP3 MSTORE PUSH1 0x20 DUP1 DUP4 KECCAK256 SWAP1 SWAP2 ADD SWAP3 SWAP1 SWAP3 SSTORE DUP3 DUP2 MSTORE PUSH1 0x1 DUP10 ADD SWAP1 SWAP2 MSTORE PUSH1 0x40 SWAP1 KECCAK256 DUP5 SWAP1 SSTORE DUP7 SLOAD DUP8 SWAP1 DUP1 PUSH2 0x3A5D JUMPI PUSH4 0x4E487B71 PUSH1 0xE0 SHL PUSH1 0x0 MSTORE PUSH1 0x31 PUSH1 0x4 MSTORE PUSH1 0x24 PUSH1 0x0 REVERT JUMPDEST PUSH1 0x1 SWAP1 SUB DUP2 DUP2 SWAP1 PUSH1 0x0 MSTORE PUSH1 0x20 PUSH1 0x0 KECCAK256 ADD PUSH1 0x0 SWAP1 SSTORE SWAP1 SSTORE DUP7 PUSH1 0x1 ADD PUSH1 0x0 DUP8 DUP2 MSTORE PUSH1 0x20 ADD SWAP1 DUP2 MSTORE PUSH1 0x20 ADD PUSH1 0x0 KECCAK256 PUSH1 0x0 SWAP1 SSTORE PUSH1 0x1 SWAP5 POP POP POP POP POP PUSH2 0x499 JUMP JUMPDEST PUSH1 0x0 SWAP2 POP POP PUSH2 0x499 JUMP JUMPDEST PUSH1 0x0 DUP1 JUMPDEST DUP4 MLOAD DUP2 LT ISZERO PUSH2 0x31A4 JUMPI DUP3 PUSH1 0x1 PUSH1 0x1 PUSH1 0xA0 SHL SUB AND DUP5 DUP3 DUP2 MLOAD DUP2 LT PUSH2 0x3ADA JUMPI PUSH4 0x4E487B71 PUSH1 0xE0 SHL PUSH1 0x0 MSTORE PUSH1 0x32 PUSH1 0x4 MSTORE PUSH1 0x24 PUSH1 0x0 REVERT JUMPDEST PUSH1 0x20 MUL PUSH1 0x20 ADD ADD MLOAD PUSH1 0x1 PUSH1 0x1 PUSH1 0xA0 SHL SUB AND EQ ISZERO PUSH2 0x3AFB JUMPI PUSH1 0x0 SWAP2 POP POP PUSH2 0x499 JUMP JUMPDEST DUP1 PUSH2 0x3B05 DUP2 PUSH2 0x4CF8 JUMP JUMPDEST SWAP2 POP POP PUSH2 0x3AA7 JUMP JUMPDEST PUSH1 0x60 DUP3 SELFBALANCE LT ISZERO PUSH2 0x3B6E JUMPI PUSH1 0x40 MLOAD PUSH3 0x461BCD PUSH1 0xE5 SHL DUP2 MSTORE PUSH1 0x20 PUSH1 0x4 DUP3 ADD MSTORE PUSH1 0x26 PUSH1 0x24 DUP3 ADD MSTORE PUSH32 0x416464726573733A20696E73756666696369656E742062616C616E636520666F PUSH1 0x44 DUP3 ADD MSTORE PUSH6 0x1C8818D85B1B PUSH1 0xD2 SHL PUSH1 0x64 DUP3 ADD MSTORE PUSH1 0x84 ADD PUSH2 0x391F JUMP JUMPDEST DUP5 EXTCODESIZE PUSH2 0x3BBC JUMPI PUSH1 0x40 MLOAD PUSH3 0x461BCD PUSH1 0xE5 SHL DUP2 MSTORE PUSH1 0x20 PUSH1 0x4 DUP3 ADD MSTORE PUSH1 0x1D PUSH1 0x24 DUP3 ADD MSTORE PUSH32 0x416464726573733A2063616C6C20746F206E6F6E2D636F6E7472616374000000 PUSH1 0x44 DUP3 ADD MSTORE PUSH1 0x64 ADD PUSH2 0x391F JUMP JUMPDEST PUSH1 0x0 DUP1 DUP7 PUSH1 0x1 PUSH1 0x1 PUSH1 0xA0 SHL SUB AND DUP6 DUP8 PUSH1 0x40 MLOAD PUSH2 0x3BD8 SWAP2 SWAP1 PUSH2 0x494E JUMP JUMPDEST PUSH1 0x0 PUSH1 0x40 MLOAD DUP1 DUP4 SUB DUP2 DUP6 DUP8 GAS CALL SWAP3 POP POP POP RETURNDATASIZE DUP1 PUSH1 0x0 DUP2 EQ PUSH2 0x3C15 JUMPI PUSH1 0x40 MLOAD SWAP2 POP PUSH1 0x1F NOT PUSH1 0x3F RETURNDATASIZE ADD AND DUP3 ADD PUSH1 0x40 MSTORE RETURNDATASIZE DUP3 MSTORE RETURNDATASIZE PUSH1 0x0 PUSH1 0x20 DUP5 ADD RETURNDATACOPY PUSH2 0x3C1A JUMP JUMPDEST PUSH1 0x60 SWAP2 POP JUMPDEST POP SWAP2 POP SWAP2 POP PUSH2 0x3C2A DUP3 DUP3 DUP7 PUSH2 0x3C35 JUMP JUMPDEST SWAP8 SWAP7 POP POP POP POP POP POP POP JUMP JUMPDEST PUSH1 0x60 DUP4 ISZERO PUSH2 0x3C44 JUMPI POP DUP2 PUSH2 0x2B1C JUMP JUMPDEST DUP3 MLOAD ISZERO PUSH2 0x3C54 JUMPI DUP3 MLOAD DUP1 DUP5 PUSH1 0x20 ADD REVERT JUMPDEST DUP2 PUSH1 0x40 MLOAD PUSH3 0x461BCD PUSH1 0xE5 SHL DUP2 MSTORE PUSH1 0x4 ADD PUSH2 0x391F SWAP2 SWAP1 PUSH2 0x4A84 JUMP JUMPDEST DUP3 DUP1 SLOAD PUSH2 0x3C7A SWAP1 PUSH2 0x4CA1 JUMP JUMPDEST SWAP1 PUSH1 0x0 MSTORE PUSH1 0x20 PUSH1 0x0 KECCAK256 SWAP1 PUSH1 0x1F ADD PUSH1 0x20 SWAP1 DIV DUP2 ADD SWAP3 DUP3 PUSH2 0x3C9C JUMPI PUSH1 0x0 DUP6 SSTORE PUSH2 0x3CE2 JUMP JUMPDEST DUP3 PUSH1 0x1F LT PUSH2 0x3CB5 JUMPI DUP1 MLOAD PUSH1 0xFF NOT AND DUP4 DUP1 ADD OR DUP6 SSTORE PUSH2 0x3CE2 JUMP JUMPDEST DUP3 DUP1 ADD PUSH1 0x1 ADD DUP6 SSTORE DUP3 ISZERO PUSH2 0x3CE2 JUMPI SWAP2 DUP3 ADD JUMPDEST DUP3 DUP2 GT ISZERO PUSH2 0x3CE2 JUMPI DUP3 MLOAD DUP3 SSTORE SWAP2 PUSH1 0x20 ADD SWAP2 SWAP1 PUSH1 0x1 ADD SWAP1 PUSH2 0x3CC7 JUMP JUMPDEST POP PUSH2 0x3CEE SWAP3 SWAP2 POP PUSH2 0x3FFB JUMP JUMPDEST POP SWAP1 JUMP JUMPDEST DUP3 DUP1 SLOAD DUP3 DUP3 SSTORE SWAP1 PUSH1 0x0 MSTORE PUSH1 0x20 PUSH1 0x0 KECCAK256 SWAP1 DUP2 ADD SWAP3 DUP3 ISZERO PUSH2 0x3CE2 JUMPI SWAP2 PUSH1 0x20 MUL DUP3 ADD JUMPDEST DUP3 DUP2 GT ISZERO PUSH2 0x3CE2 JUMPI DUP3 MLOAD DUP3 SLOAD PUSH1 0x1 PUSH1 0x1 PUSH1 0xA0 SHL SUB NOT AND PUSH1 0x1 PUSH1 0x1 PUSH1 0xA0 SHL SUB SWAP1 SWAP2 AND OR DUP3 SSTORE PUSH1 0x20 SWAP1 SWAP3 ADD SWAP2 PUSH1 0x1 SWAP1 SWAP2 ADD SWAP1 PUSH2 0x3D12 JUMP JUMPDEST PUSH1 0x40 MLOAD DUP1 PUSH1 0x80 ADD PUSH1 0x40 MSTORE DUP1 PUSH2 0x3D5A PUSH2 0x3D75 JUMP JUMPDEST DUP2 MSTORE PUSH1 0x20 ADD PUSH1 0x60 DUP2 MSTORE PUSH1 0x20 ADD PUSH1 0x60 DUP2 MSTORE PUSH1 0x20 ADD PUSH1 0x60 DUP2 MSTORE POP SWAP1 JUMP JUMPDEST PUSH1 0x40 MLOAD DUP1 PUSH1 0xC0 ADD PUSH1 0x40 MSTORE DUP1 PUSH1 0x60 DUP2 MSTORE PUSH1 0x20 ADD PUSH1 0x0 PUSH1 0xFF AND DUP2 MSTORE PUSH1 0x20 ADD PUSH1 0x0 PUSH2 0xFFFF AND DUP2 MSTORE PUSH1 0x20 ADD PUSH1 0x0 DUP2 MSTORE PUSH1 0x20 ADD PUSH1 0x0 DUP2 MSTORE PUSH1 0x20 ADD PUSH1 0x60 DUP2 MSTORE POP SWAP1 JUMP JUMPDEST PUSH1 0x40 MLOAD DUP1 PUSH1 0x80 ADD PUSH1 0x40 MSTORE DUP1 PUSH2 0x3DC5 PUSH2 0x3D75 JUMP JUMPDEST DUP2 MSTORE PUSH1 0x60 PUSH1 0x20 DUP3 ADD DUP2 SWAP1 MSTORE PUSH1 0x0 PUSH1 0x40 DUP4 ADD MSTORE SWAP1 DUP2 ADD MSTORE SWAP1 JUMP JUMPDEST PUSH1 0x40 MLOAD DUP1 PUSH1 0x80 ADD PUSH1 0x40 MSTORE DUP1 PUSH2 0x3DF1 PUSH2 0x3D75 JUMP JUMPDEST DUP2 MSTORE PUSH1 0x0 PUSH1 0x20 DUP3 ADD DUP2 SWAP1 MSTORE PUSH1 0x40 DUP3 ADD DUP2 SWAP1 MSTORE PUSH1 0x60 SWAP1 SWAP2 ADD MSTORE SWAP1 JUMP JUMPDEST DUP3 DUP1 SLOAD DUP3 DUP3 SSTORE SWAP1 PUSH1 0x0 MSTORE PUSH1 0x20 PUSH1 0x0 KECCAK256 SWAP1 PUSH1 0x1F ADD PUSH1 0x20 SWAP1 DIV DUP2 ADD SWAP3 DUP3 ISZERO PUSH2 0x3CE2 JUMPI SWAP2 PUSH1 0x20 MUL DUP3 ADD PUSH1 0x0 JUMPDEST DUP4 DUP3 GT ISZERO PUSH2 0x3E73 JUMPI DUP4 MLOAD DUP4 DUP3 PUSH2 0x100 EXP DUP2 SLOAD DUP2 PUSH1 0xFF MUL NOT AND SWAP1 DUP4 PUSH1 0xFF AND MUL OR SWAP1 SSTORE POP SWAP3 PUSH1 0x20 ADD SWAP3 PUSH1 0x1 ADD PUSH1 0x20 DUP2 PUSH1 0x0 ADD DIV SWAP3 DUP4 ADD SWAP3 PUSH1 0x1 SUB MUL PUSH2 0x3E35 JUMP JUMPDEST DUP1 ISZERO PUSH2 0x3EA0 JUMPI DUP3 DUP2 PUSH2 0x100 EXP DUP2 SLOAD SWAP1 PUSH1 0xFF MUL NOT AND SWAP1 SSTORE PUSH1 0x1 ADD PUSH1 0x20 DUP2 PUSH1 0x0 ADD DIV SWAP3 DUP4 ADD SWAP3 PUSH1 0x1 SUB MUL PUSH2 0x3E73 JUMP JUMPDEST POP POP PUSH2 0x3CEE SWAP3 SWAP2 POP PUSH2 0x3FFB JUMP JUMPDEST DUP3 DUP1 SLOAD DUP3 DUP3 SSTORE SWAP1 PUSH1 0x0 MSTORE PUSH1 0x20 PUSH1 0x0 KECCAK256 SWAP1 DUP2 ADD SWAP3 DUP3 ISZERO PUSH2 0x3EFA JUMPI SWAP2 PUSH1 0x20 MUL DUP3 ADD JUMPDEST DUP3 DUP2 GT ISZERO PUSH2 0x3EFA JUMPI DUP3 MLOAD DUP1 MLOAD PUSH2 0x3EEA SWAP2 DUP5 SWAP2 PUSH1 0x20 SWAP1 SWAP2 ADD SWAP1 PUSH2 0x3C6E JUMP JUMPDEST POP SWAP2 PUSH1 0x20 ADD SWAP2 SWAP1 PUSH1 0x1 ADD SWAP1 PUSH2 0x3ECD JUMP JUMPDEST POP PUSH2 0x3CEE SWAP3 SWAP2 POP PUSH2 0x4010 JUMP JUMPDEST DUP3 DUP1 SLOAD DUP3 DUP3 SSTORE SWAP1 PUSH1 0x0 MSTORE PUSH1 0x20 PUSH1 0x0 KECCAK256 SWAP1 DUP2 ADD SWAP3 DUP3 ISZERO PUSH2 0x3CE2 JUMPI SWAP2 PUSH1 0x20 MUL DUP3 ADD DUP3 DUP2 GT ISZERO PUSH2 0x3CE2 JUMPI DUP3 MLOAD DUP3 SSTORE SWAP2 PUSH1 0x20 ADD SWAP2 SWAP1 PUSH1 0x1 ADD SWAP1 PUSH2 0x3CC7 JUMP JUMPDEST POP DUP1 SLOAD PUSH2 0x3F4C SWAP1 PUSH2 0x4CA1 JUMP JUMPDEST PUSH1 0x0 DUP3 SSTORE DUP1 PUSH1 0x1F LT PUSH2 0x3F5C JUMPI POP POP JUMP JUMPDEST PUSH1 0x1F ADD PUSH1 0x20 SWAP1 DIV SWAP1 PUSH1 0x0 MSTORE PUSH1 0x20 PUSH1 0x0 KECCAK256 SWAP1 DUP2 ADD SWAP1 PUSH2 0x2A3D SWAP2 SWAP1 PUSH2 0x3FFB JUMP JUMPDEST POP DUP1 SLOAD PUSH1 0x0 DUP3 SSTORE SWAP1 PUSH1 0x0 MSTORE PUSH1 0x20 PUSH1 0x0 KECCAK256 SWAP1 DUP2 ADD SWAP1 PUSH2 0x2A3D SWAP2 SWAP1 PUSH2 0x3FFB JUMP JUMPDEST POP DUP1 SLOAD PUSH1 0x0 DUP3 SSTORE SWAP1 PUSH1 0x0 MSTORE PUSH1 0x20 PUSH1 0x0 KECCAK256 SWAP1 DUP2 ADD SWAP1 PUSH2 0x2A3D SWAP2 SWAP1 PUSH2 0x4010 JUMP JUMPDEST POP DUP1 SLOAD PUSH1 0x0 DUP3 SSTORE PUSH1 0x1F ADD PUSH1 0x20 SWAP1 DIV SWAP1 PUSH1 0x0 MSTORE PUSH1 0x20 PUSH1 0x0 KECCAK256 SWAP1 DUP2 ADD SWAP1 PUSH2 0x2A3D SWAP2 SWAP1 PUSH2 0x3FFB JUMP JUMPDEST PUSH1 0x40 MLOAD DUP1 PUSH1 0x40 ADD PUSH1 0x40 MSTORE DUP1 PUSH2 0x3FEE PUSH2 0x3D75 JUMP JUMPDEST DUP2 MSTORE PUSH1 0x20 ADD PUSH1 0x0 DUP2 MSTORE POP SWAP1 JUMP JUMPDEST JUMPDEST DUP1 DUP3 GT ISZERO PUSH2 0x3CEE JUMPI PUSH1 0x0 DUP2 SSTORE PUSH1 0x1 ADD PUSH2 0x3FFC JUMP JUMPDEST DUP1 DUP3 GT ISZERO PUSH2 0x3CEE JUMPI PUSH1 0x0 PUSH2 0x4024 DUP3 DUP3 PUSH2 0x3F40 JUMP JUMPDEST POP PUSH1 0x1 ADD PUSH2 0x4010 JUMP JUMPDEST DUP1 CALLDATALOAD PUSH1 0x1 PUSH1 0x1 PUSH1 0xA0 SHL SUB DUP2 AND DUP2 EQ PUSH2 0x4044 JUMPI PUSH1 0x0 DUP1 REVERT JUMPDEST SWAP2 SWAP1 POP JUMP JUMPDEST PUSH1 0x0 DUP3 PUSH1 0x1F DUP4 ADD SLT PUSH2 0x4059 JUMPI DUP1 DUP2 REVERT JUMPDEST DUP2 CALLDATALOAD PUSH1 0x20 PUSH2 0x406E PUSH2 0x4069 DUP4 PUSH2 0x4BCC JUMP JUMPDEST PUSH2 0x4B9B JUMP JUMPDEST DUP1 DUP4 DUP3 MSTORE DUP3 DUP3 ADD SWAP2 POP DUP3 DUP7 ADD DUP8 DUP5 DUP7 PUSH1 0x5 SHL DUP10 ADD ADD GT ISZERO PUSH2 0x408D JUMPI DUP6 DUP7 REVERT JUMPDEST DUP6 JUMPDEST DUP6 DUP2 LT ISZERO PUSH2 0x40B2 JUMPI PUSH2 0x40A0 DUP3 PUSH2 0x402D JUMP JUMPDEST DUP5 MSTORE SWAP3 DUP5 ADD SWAP3 SWAP1 DUP5 ADD SWAP1 PUSH1 0x1 ADD PUSH2 0x408F JUMP JUMPDEST POP SWAP1 SWAP8 SWAP7 POP POP POP POP POP POP POP JUMP JUMPDEST PUSH1 0x0 DUP3 PUSH1 0x1F DUP4 ADD SLT PUSH2 0x40CF JUMPI DUP1 DUP2 REVERT JUMPDEST DUP2 CALLDATALOAD PUSH1 0x20 PUSH2 0x40DF PUSH2 0x4069 DUP4 PUSH2 0x4BCC JUMP JUMPDEST DUP1 DUP4 DUP3 MSTORE DUP3 DUP3 ADD SWAP2 POP DUP3 DUP7 ADD DUP8 DUP5 DUP7 PUSH1 0x5 SHL DUP10 ADD ADD GT ISZERO PUSH2 0x40FE JUMPI DUP6 DUP7 REVERT JUMPDEST DUP6 JUMPDEST DUP6 DUP2 LT ISZERO PUSH2 0x40B2 JUMPI DUP2 CALLDATALOAD PUSH8 0xFFFFFFFFFFFFFFFF DUP2 GT ISZERO PUSH2 0x411E JUMPI DUP8 DUP9 REVERT JUMPDEST PUSH2 0x412C DUP11 DUP8 DUP4 DUP13 ADD ADD PUSH2 0x419C JUMP JUMPDEST DUP6 MSTORE POP SWAP3 DUP5 ADD SWAP3 SWAP1 DUP5 ADD SWAP1 PUSH1 0x1 ADD PUSH2 0x4100 JUMP JUMPDEST PUSH1 0x0 DUP3 PUSH1 0x1F DUP4 ADD SLT PUSH2 0x414F JUMPI DUP1 DUP2 REVERT JUMPDEST DUP2 CALLDATALOAD PUSH1 0x20 PUSH2 0x415F PUSH2 0x4069 DUP4 PUSH2 0x4BCC JUMP JUMPDEST DUP1 DUP4 DUP3 MSTORE DUP3 DUP3 ADD SWAP2 POP DUP3 DUP7 ADD DUP8 DUP5 DUP7 PUSH1 0x5 SHL DUP10 ADD ADD GT ISZERO PUSH2 0x417E JUMPI DUP6 DUP7 REVERT JUMPDEST DUP6 JUMPDEST DUP6 DUP2 LT ISZERO PUSH2 0x40B2 JUMPI DUP2 CALLDATALOAD DUP5 MSTORE SWAP3 DUP5 ADD SWAP3 SWAP1 DUP5 ADD SWAP1 PUSH1 0x1 ADD PUSH2 0x4180 JUMP JUMPDEST PUSH1 0x0 DUP3 PUSH1 0x1F DUP4 ADD SLT PUSH2 0x41AC JUMPI DUP1 DUP2 REVERT JUMPDEST DUP2 CALLDATALOAD PUSH8 0xFFFFFFFFFFFFFFFF DUP2 GT ISZERO PUSH2 0x41C6 JUMPI PUSH2 0x41C6 PUSH2 0x4D29 JUMP JUMPDEST PUSH2 0x41D9 PUSH1 0x1F DUP3 ADD PUSH1 0x1F NOT AND PUSH1 0x20 ADD PUSH2 0x4B9B JUMP JUMPDEST DUP2 DUP2 MSTORE DUP5 PUSH1 0x20 DUP4 DUP7 ADD ADD GT ISZERO PUSH2 0x41ED JUMPI DUP3 DUP4 REVERT JUMPDEST DUP2 PUSH1 0x20 DUP6 ADD PUSH1 0x20 DUP4 ADD CALLDATACOPY SWAP1 DUP2 ADD PUSH1 0x20 ADD SWAP2 SWAP1 SWAP2 MSTORE SWAP3 SWAP2 POP POP JUMP JUMPDEST DUP1 CALLDATALOAD PUSH2 0xFFFF DUP2 AND DUP2 EQ PUSH2 0x4044 JUMPI PUSH1 0x0 DUP1 REVERT JUMPDEST DUP1 CALLDATALOAD PUSH1 0xFF DUP2 AND DUP2 EQ PUSH2 0x4044 JUMPI PUSH1 0x0 DUP1 REVERT JUMPDEST PUSH1 0x0 DUP1 PUSH1 0x0 DUP1 PUSH1 0x0 PUSH1 0xA0 DUP7 DUP9 SUB SLT ISZERO PUSH2 0x4241 JUMPI DUP1 DUP2 REVERT JUMPDEST PUSH2 0x424A DUP7 PUSH2 0x402D JUMP JUMPDEST SWAP5 POP PUSH2 0x4258 PUSH1 0x20 DUP8 ADD PUSH2 0x402D JUMP JUMPDEST SWAP4 POP PUSH1 0x40 DUP7 ADD CALLDATALOAD PUSH8 0xFFFFFFFFFFFFFFFF DUP1 DUP3 GT ISZERO PUSH2 0x4274 JUMPI DUP3 DUP4 REVERT JUMPDEST PUSH2 0x4280 DUP10 DUP4 DUP11 ADD PUSH2 0x413F JUMP JUMPDEST SWAP5 POP PUSH1 0x60 DUP9 ADD CALLDATALOAD SWAP2 POP DUP1 DUP3 GT ISZERO PUSH2 0x4295 JUMPI DUP3 DUP4 REVERT JUMPDEST PUSH2 0x42A1 DUP10 DUP4 DUP11 ADD PUSH2 0x413F JUMP JUMPDEST SWAP4 POP PUSH1 0x80 DUP9 ADD CALLDATALOAD SWAP2 POP DUP1 DUP3 GT ISZERO PUSH2 0x42B6 JUMPI DUP3 DUP4 REVERT JUMPDEST POP PUSH2 0x42C3 DUP9 DUP3 DUP10 ADD PUSH2 0x419C JUMP JUMPDEST SWAP2 POP POP SWAP3 SWAP6 POP SWAP3 SWAP6 SWAP1 SWAP4 POP JUMP JUMPDEST PUSH1 0x0 DUP1 PUSH1 0x0 DUP1 PUSH1 0x0 PUSH1 0xA0 DUP7 DUP9 SUB SLT ISZERO PUSH2 0x42E7 JUMPI DUP1 DUP2 REVERT JUMPDEST PUSH2 0x42F0 DUP7 PUSH2 0x402D JUMP JUMPDEST SWAP5 POP PUSH2 0x42FE PUSH1 0x20 DUP8 ADD PUSH2 0x402D JUMP JUMPDEST SWAP4 POP PUSH1 0x40 DUP7 ADD CALLDATALOAD SWAP3 POP PUSH1 0x60 DUP7 ADD CALLDATALOAD SWAP2 POP PUSH1 0x80 DUP7 ADD CALLDATALOAD PUSH8 0xFFFFFFFFFFFFFFFF DUP2 GT ISZERO PUSH2 0x4327 JUMPI DUP2 DUP3 REVERT JUMPDEST PUSH2 0x42C3 DUP9 DUP3 DUP10 ADD PUSH2 0x419C JUMP JUMPDEST PUSH1 0x0 PUSH1 0x20 DUP3 DUP5 SUB SLT ISZERO PUSH2 0x4344 JUMPI DUP1 DUP2 REVERT JUMPDEST DUP2 CALLDATALOAD PUSH1 0x1 PUSH1 0x1 PUSH1 0xE0 SHL SUB NOT DUP2 AND DUP2 EQ PUSH2 0x2B1C JUMPI DUP2 DUP3 REVERT JUMPDEST PUSH1 0x0 DUP1 PUSH1 0x40 DUP4 DUP6 SUB SLT ISZERO PUSH2 0x436D JUMPI DUP2 DUP3 REVERT JUMPDEST DUP3 CALLDATALOAD PUSH8 0xFFFFFFFFFFFFFFFF DUP2 GT ISZERO PUSH2 0x4383 JUMPI DUP3 DUP4 REVERT JUMPDEST PUSH2 0x438F DUP6 DUP3 DUP7 ADD PUSH2 0x419C JUMP JUMPDEST SWAP3 POP POP PUSH2 0x439E PUSH1 0x20 DUP5 ADD PUSH2 0x4219 JUMP JUMPDEST SWAP1 POP SWAP3 POP SWAP3 SWAP1 POP JUMP JUMPDEST PUSH1 0x0 DUP1 PUSH1 0x0 DUP1 PUSH1 0x0 PUSH1 0xA0 DUP7 DUP9 SUB SLT ISZERO PUSH2 0x43BE JUMPI DUP1 DUP2 REVERT JUMPDEST DUP6 CALLDATALOAD PUSH8 0xFFFFFFFFFFFFFFFF DUP2 GT ISZERO PUSH2 0x43D4 JUMPI DUP2 DUP3 REVERT JUMPDEST PUSH2 0x43E0 DUP9 DUP3 DUP10 ADD PUSH2 0x419C JUMP JUMPDEST SWAP6 POP POP PUSH2 0x43EF PUSH1 0x20 DUP8 ADD PUSH2 0x4219 JUMP JUMPDEST SWAP4 POP PUSH2 0x43FD PUSH1 0x40 DUP8 ADD PUSH2 0x402D JUMP JUMPDEST SWAP3 POP PUSH2 0x440B PUSH1 0x60 DUP8 ADD PUSH2 0x4219 JUMP JUMPDEST SWAP2 POP PUSH2 0x4419 PUSH1 0x80 DUP8 ADD PUSH2 0x4219 JUMP JUMPDEST SWAP1 POP SWAP3 SWAP6 POP SWAP3 SWAP6 SWAP1 SWAP4 POP JUMP JUMPDEST PUSH1 0x0 DUP1 PUSH1 0x0 DUP1 PUSH1 0x0 PUSH1 0xA0 DUP7 DUP9 SUB SLT ISZERO PUSH2 0x443C JUMPI DUP3 DUP4 REVERT JUMPDEST DUP6 CALLDATALOAD PUSH8 0xFFFFFFFFFFFFFFFF DUP1 DUP3 GT ISZERO PUSH2 0x4453 JUMPI DUP5 DUP6 REVERT JUMPDEST PUSH2 0x445F DUP10 DUP4 DUP11 ADD PUSH2 0x419C JUMP JUMPDEST SWAP7 POP PUSH2 0x446D PUSH1 0x20 DUP10 ADD PUSH2 0x4219 JUMP JUMPDEST SWAP6 POP PUSH1 0x40 DUP9 ADD CALLDATALOAD SWAP2 POP DUP1 DUP3 GT ISZERO PUSH2 0x4482 JUMPI DUP5 DUP6 REVERT JUMPDEST PUSH2 0x448E DUP10 DUP4 DUP11 ADD PUSH2 0x4049 JUMP JUMPDEST SWAP5 POP PUSH1 0x60 DUP9 ADD CALLDATALOAD SWAP2 POP DUP1 DUP3 GT ISZERO PUSH2 0x44A3 JUMPI DUP3 DUP4 REVERT JUMPDEST PUSH2 0x44AF DUP10 DUP4 DUP11 ADD PUSH2 0x40BF JUMP JUMPDEST SWAP4 POP PUSH1 0x80 DUP9 ADD CALLDATALOAD SWAP2 POP DUP1 DUP3 GT ISZERO PUSH2 0x44C4 JUMPI DUP3 DUP4 REVERT JUMPDEST POP PUSH2 0x42C3 DUP9 DUP3 DUP10 ADD PUSH2 0x413F JUMP JUMPDEST PUSH1 0x0 DUP1 PUSH1 0x0 DUP1 PUSH1 0x0 PUSH1 0xA0 DUP7 DUP9 SUB SLT ISZERO PUSH2 0x44E8 JUMPI DUP3 DUP4 REVERT JUMPDEST DUP6 CALLDATALOAD PUSH8 0xFFFFFFFFFFFFFFFF DUP1 DUP3 GT ISZERO PUSH2 0x44FF JUMPI DUP5 DUP6 REVERT JUMPDEST PUSH2 0x450B DUP10 DUP4 DUP11 ADD PUSH2 0x419C JUMP JUMPDEST SWAP7 POP PUSH1 0x20 SWAP2 POP PUSH2 0x451C DUP3 DUP10 ADD PUSH2 0x4219 JUMP JUMPDEST SWAP6 POP PUSH1 0x40 DUP9 ADD CALLDATALOAD DUP2 DUP2 GT ISZERO PUSH2 0x452F JUMPI DUP6 DUP7 REVERT JUMPDEST PUSH2 0x453B DUP11 DUP3 DUP12 ADD PUSH2 0x4049 JUMP JUMPDEST SWAP6 POP POP PUSH1 0x60 DUP9 ADD CALLDATALOAD DUP1 ISZERO ISZERO DUP2 EQ PUSH2 0x4550 JUMPI DUP4 DUP5 REVERT JUMPDEST SWAP4 POP PUSH1 0x80 DUP9 ADD CALLDATALOAD DUP2 DUP2 GT ISZERO PUSH2 0x4563 JUMPI DUP4 DUP5 REVERT JUMPDEST DUP9 ADD SWAP1 POP PUSH1 0x1F DUP2 ADD DUP10 SGT PUSH2 0x4575 JUMPI DUP3 DUP4 REVERT JUMPDEST DUP1 CALLDATALOAD PUSH2 0x4583 PUSH2 0x4069 DUP3 PUSH2 0x4BCC JUMP JUMPDEST DUP1 DUP3 DUP3 MSTORE DUP5 DUP3 ADD SWAP2 POP DUP5 DUP5 ADD DUP13 DUP7 DUP6 PUSH1 0x5 SHL DUP8 ADD ADD GT ISZERO PUSH2 0x45A2 JUMPI DUP7 DUP8 REVERT JUMPDEST DUP7 SWAP5 POP JUMPDEST DUP4 DUP6 LT ISZERO PUSH2 0x45CB JUMPI PUSH2 0x45B7 DUP2 PUSH2 0x4219 JUMP JUMPDEST DUP4 MSTORE PUSH1 0x1 SWAP5 SWAP1 SWAP5 ADD SWAP4 SWAP2 DUP6 ADD SWAP2 DUP6 ADD PUSH2 0x45A6 JUMP JUMPDEST POP DUP1 SWAP6 POP POP POP POP POP POP SWAP3 SWAP6 POP SWAP3 SWAP6 SWAP1 SWAP4 POP JUMP JUMPDEST PUSH1 0x0 PUSH1 0x20 DUP3 DUP5 SUB SLT ISZERO PUSH2 0x45EF JUMPI DUP1 DUP2 REVERT JUMPDEST PUSH2 0x2B1C DUP3 PUSH2 0x4207 JUMP JUMPDEST PUSH1 0x0 PUSH1 0x20 DUP3 DUP5 SUB SLT ISZERO PUSH2 0x4609 JUMPI DUP1 DUP2 REVERT JUMPDEST POP CALLDATALOAD SWAP2 SWAP1 POP JUMP JUMPDEST PUSH1 0x0 DUP1 PUSH1 0x0 DUP1 PUSH1 0x0 DUP1 PUSH1 0xC0 DUP8 DUP10 SUB SLT ISZERO PUSH2 0x4628 JUMPI DUP4 DUP5 REVERT JUMPDEST DUP7 CALLDATALOAD SWAP6 POP PUSH1 0x20 DUP8 ADD CALLDATALOAD PUSH8 0xFFFFFFFFFFFFFFFF DUP1 DUP3 GT ISZERO PUSH2 0x4646 JUMPI DUP6 DUP7 REVERT JUMPDEST PUSH2 0x4652 DUP11 DUP4 DUP12 ADD PUSH2 0x419C JUMP JUMPDEST SWAP7 POP PUSH2 0x4660 PUSH1 0x40 DUP11 ADD PUSH2 0x4219 JUMP JUMPDEST SWAP6 POP PUSH1 0x60 DUP10 ADD CALLDATALOAD SWAP2 POP DUP1 DUP3 GT ISZERO PUSH2 0x4675 JUMPI DUP3 DUP4 REVERT JUMPDEST PUSH2 0x4681 DUP11 DUP4 DUP12 ADD PUSH2 0x4049 JUMP JUMPDEST SWAP5 POP PUSH1 0x80 DUP10 ADD CALLDATALOAD SWAP2 POP DUP1 DUP3 GT ISZERO PUSH2 0x4696 JUMPI DUP3 DUP4 REVERT JUMPDEST PUSH2 0x46A2 DUP11 DUP4 DUP12 ADD PUSH2 0x40BF JUMP JUMPDEST SWAP4 POP PUSH1 0xA0 DUP10 ADD CALLDATALOAD SWAP2 POP DUP1 DUP3 GT ISZERO PUSH2 0x46B7 JUMPI DUP3 DUP4 REVERT JUMPDEST POP PUSH2 0x46C4 DUP10 DUP3 DUP11 ADD PUSH2 0x413F JUMP JUMPDEST SWAP2 POP POP SWAP3 SWAP6 POP SWAP3 SWAP6 POP SWAP3 SWAP6 JUMP JUMPDEST PUSH1 0x0 DUP1 PUSH1 0x0 DUP1 PUSH1 0x80 DUP6 DUP8 SUB SLT ISZERO PUSH2 0x46E6 JUMPI DUP2 DUP3 REVERT JUMPDEST DUP5 CALLDATALOAD SWAP4 POP PUSH1 0x20 DUP6 ADD CALLDATALOAD PUSH8 0xFFFFFFFFFFFFFFFF DUP2 GT ISZERO PUSH2 0x4703 JUMPI DUP3 DUP4 REVERT JUMPDEST PUSH2 0x470F DUP8 DUP3 DUP9 ADD PUSH2 0x419C JUMP JUMPDEST SWAP4 POP POP PUSH2 0x471E PUSH1 0x40 DUP7 ADD PUSH2 0x4219 JUMP JUMPDEST SWAP4 SWAP7 SWAP3 SWAP6 POP SWAP3 SWAP4 PUSH1 0x60 ADD CALLDATALOAD SWAP3 POP POP JUMP JUMPDEST PUSH1 0x0 DUP1 PUSH1 0x40 DUP4 DUP6 SUB SLT ISZERO PUSH2 0x4740 JUMPI DUP2 DUP3 REVERT JUMPDEST DUP3 CALLDATALOAD SWAP2 POP PUSH2 0x439E PUSH1 0x20 DUP5 ADD PUSH2 0x4207 JUMP JUMPDEST PUSH1 0x0 DUP2 MLOAD DUP1 DUP5 MSTORE PUSH1 0x20 DUP1 DUP6 ADD SWAP5 POP DUP1 DUP5 ADD DUP4 JUMPDEST DUP4 DUP2 LT ISZERO PUSH2 0x4788 JUMPI DUP2 MLOAD PUSH1 0x1 PUSH1 0x1 PUSH1 0xA0 SHL SUB AND DUP8 MSTORE SWAP6 DUP3 ADD SWAP6 SWAP1 DUP3 ADD SWAP1 PUSH1 0x1 ADD PUSH2 0x4763 JUMP JUMPDEST POP SWAP5 SWAP6 SWAP5 POP POP POP POP POP JUMP JUMPDEST PUSH1 0x0 DUP2 MLOAD DUP1 DUP5 MSTORE PUSH1 0x20 DUP1 DUP6 ADD SWAP5 POP DUP1 DUP5 ADD DUP4 JUMPDEST DUP4 DUP2 LT ISZERO PUSH2 0x4788 JUMPI DUP2 MLOAD DUP8 MSTORE SWAP6 DUP3 ADD SWAP6 SWAP1 DUP3 ADD SWAP1 PUSH1 0x1 ADD PUSH2 0x47A6 JUMP JUMPDEST PUSH1 0x0 DUP2 MLOAD DUP1 DUP5 MSTORE PUSH2 0x47DA DUP2 PUSH1 0x20 DUP7 ADD PUSH1 0x20 DUP7 ADD PUSH2 0x4C75 JUMP JUMPDEST PUSH1 0x1F ADD PUSH1 0x1F NOT AND SWAP3 SWAP1 SWAP3 ADD PUSH1 0x20 ADD SWAP3 SWAP2 POP POP JUMP JUMPDEST PUSH1 0x0 DUP2 MLOAD PUSH1 0x80 DUP5 MSTORE PUSH2 0x4803 PUSH1 0x80 DUP6 ADD DUP3 PUSH2 0x48E8 JUMP JUMPDEST SWAP1 POP PUSH1 0x1 DUP1 PUSH1 0xA0 SHL SUB PUSH1 0x20 DUP5 ADD MLOAD AND PUSH1 0x20 DUP6 ADD MSTORE PUSH1 0xFF PUSH1 0x40 DUP5 ADD MLOAD AND PUSH1 0x40 DUP6 ADD MSTORE PUSH1 0xFF PUSH1 0x60 DUP5 ADD MLOAD AND PUSH1 0x60 DUP6 ADD MSTORE DUP1 SWAP2 POP POP SWAP3 SWAP2 POP POP JUMP JUMPDEST PUSH1 0x0 DUP2 MLOAD PUSH1 0x80 DUP5 MSTORE PUSH2 0x4850 PUSH1 0x80 DUP6 ADD DUP3 PUSH2 0x48E8 JUMP JUMPDEST SWAP1 POP PUSH1 0x20 DUP1 DUP5 ADD MLOAD DUP6 DUP4 SUB DUP3 DUP8 ADD MSTORE PUSH2 0x4869 DUP4 DUP3 PUSH2 0x4750 JUMP JUMPDEST SWAP3 POP POP PUSH1 0x40 DUP5 ADD MLOAD DUP6 DUP4 SUB PUSH1 0x40 DUP8 ADD MSTORE DUP3 DUP2 MLOAD DUP1 DUP6 MSTORE DUP4 DUP6 ADD SWAP2 POP DUP4 DUP2 PUSH1 0x5 SHL DUP7 ADD ADD DUP5 DUP5 ADD SWAP4 POP DUP7 JUMPDEST DUP3 DUP2 LT ISZERO PUSH2 0x48C1 JUMPI PUSH1 0x1F NOT DUP8 DUP4 SUB ADD DUP5 MSTORE PUSH2 0x48AF DUP3 DUP7 MLOAD PUSH2 0x47C2 JUMP JUMPDEST SWAP5 DUP7 ADD SWAP5 SWAP4 DUP7 ADD SWAP4 SWAP2 POP PUSH1 0x1 ADD PUSH2 0x4893 JUMP JUMPDEST POP PUSH1 0x60 DUP9 ADD MLOAD SWAP6 POP DUP9 DUP2 SUB PUSH1 0x60 DUP11 ADD MSTORE PUSH2 0x48DB DUP2 DUP8 PUSH2 0x4793 JUMP JUMPDEST SWAP10 SWAP9 POP POP POP POP POP POP POP POP POP JUMP JUMPDEST PUSH1 0x0 DUP2 MLOAD PUSH1 0xC0 DUP5 MSTORE PUSH2 0x48FD PUSH1 0xC0 DUP6 ADD DUP3 PUSH2 0x47C2 JUMP JUMPDEST SWAP1 POP PUSH1 0xFF PUSH1 0x20 DUP5 ADD MLOAD AND PUSH1 0x20 DUP6 ADD MSTORE PUSH2 0xFFFF PUSH1 0x40 DUP5 ADD MLOAD AND PUSH1 0x40 DUP6 ADD MSTORE PUSH1 0x60 DUP4 ADD MLOAD PUSH1 0x60 DUP6 ADD MSTORE PUSH1 0x80 DUP4 ADD MLOAD PUSH1 0x80 DUP6 ADD MSTORE PUSH1 0xA0 DUP4 ADD MLOAD DUP5 DUP3 SUB PUSH1 0xA0 DUP7 ADD MSTORE PUSH2 0x4945 DUP3 DUP3 PUSH2 0x4750 JUMP JUMPDEST SWAP6 SWAP5 POP POP POP POP POP JUMP JUMPDEST PUSH1 0x0 DUP3 MLOAD PUSH2 0x4960 DUP2 DUP5 PUSH1 0x20 DUP8 ADD PUSH2 0x4C75 JUMP JUMPDEST SWAP2 SWAP1 SWAP2 ADD SWAP3 SWAP2 POP POP JUMP JUMPDEST PUSH1 0x0 DUP1 DUP4 SLOAD DUP3 PUSH1 0x1 DUP3 DUP2 SHR SWAP2 POP DUP1 DUP4 AND DUP1 PUSH2 0x4986 JUMPI PUSH1 0x7F DUP4 AND SWAP3 POP JUMPDEST PUSH1 0x20 DUP1 DUP5 LT DUP3 EQ ISZERO PUSH2 0x49A6 JUMPI PUSH4 0x4E487B71 PUSH1 0xE0 SHL DUP8 MSTORE PUSH1 0x22 PUSH1 0x4 MSTORE PUSH1 0x24 DUP8 REVERT JUMPDEST DUP2 DUP1 ISZERO PUSH2 0x49BA JUMPI PUSH1 0x1 DUP2 EQ PUSH2 0x49CB JUMPI PUSH2 0x49F7 JUMP JUMPDEST PUSH1 0xFF NOT DUP7 AND DUP10 MSTORE DUP5 DUP10 ADD SWAP7 POP PUSH2 0x49F7 JUMP JUMPDEST PUSH1 0x0 DUP11 DUP2 MSTORE PUSH1 0x20 SWAP1 KECCAK256 DUP9 JUMPDEST DUP7 DUP2 LT ISZERO PUSH2 0x49EF JUMPI DUP2 SLOAD DUP12 DUP3 ADD MSTORE SWAP1 DUP6 ADD SWAP1 DUP4 ADD PUSH2 0x49D6 JUMP JUMPDEST POP POP DUP5 DUP10 ADD SWAP7 POP JUMPDEST POP SWAP5 SWAP9 SWAP8 POP POP POP POP POP POP POP POP JUMP JUMPDEST PUSH1 0x40 DUP2 MSTORE PUSH1 0x0 PUSH2 0x4A18 PUSH1 0x40 DUP4 ADD DUP6 PUSH2 0x4750 JUMP JUMPDEST SWAP1 POP DUP3 PUSH1 0x20 DUP4 ADD MSTORE SWAP4 SWAP3 POP POP POP JUMP JUMPDEST PUSH1 0x20 DUP1 DUP3 MSTORE DUP3 MLOAD DUP3 DUP3 ADD DUP2 SWAP1 MSTORE PUSH1 0x0 SWAP2 SWAP1 DUP5 DUP3 ADD SWAP1 PUSH1 0x40 DUP6 ADD SWAP1 DUP5 JUMPDEST DUP2 DUP2 LT ISZERO PUSH2 0x4A5F JUMPI DUP4 MLOAD DUP4 MSTORE SWAP3 DUP5 ADD SWAP3 SWAP2 DUP5 ADD SWAP2 PUSH1 0x1 ADD PUSH2 0x4A43 JUMP JUMPDEST POP SWAP1 SWAP7 SWAP6 POP POP POP POP POP POP JUMP JUMPDEST DUP3 DUP2 MSTORE PUSH1 0x40 PUSH1 0x20 DUP3 ADD MSTORE PUSH1 0x0 PUSH2 0x3984 PUSH1 0x40 DUP4 ADD DUP5 PUSH2 0x4750 JUMP JUMPDEST PUSH1 0x20 DUP2 MSTORE PUSH1 0x0 PUSH2 0x2B1C PUSH1 0x20 DUP4 ADD DUP5 PUSH2 0x47C2 JUMP JUMPDEST PUSH1 0x40 DUP2 MSTORE PUSH1 0x0 PUSH2 0x4AAA PUSH1 0x40 DUP4 ADD DUP6 PUSH2 0x483B JUMP JUMPDEST DUP3 DUP2 SUB PUSH1 0x20 DUP5 ADD MSTORE DUP4 MLOAD PUSH1 0x40 DUP3 MSTORE PUSH2 0x4AC5 PUSH1 0x40 DUP4 ADD DUP3 PUSH2 0x48E8 JUMP JUMPDEST SWAP1 POP PUSH1 0x20 DUP6 ADD MLOAD PUSH1 0x20 DUP4 ADD MSTORE DUP1 SWAP3 POP POP POP SWAP4 SWAP3 POP POP POP JUMP JUMPDEST PUSH1 0x80 DUP2 MSTORE PUSH1 0x0 PUSH2 0x4AF0 PUSH1 0x80 DUP4 ADD DUP8 PUSH2 0x483B JUMP JUMPDEST PUSH1 0x20 DUP4 DUP3 SUB DUP2 DUP6 ADD MSTORE PUSH2 0x4B03 DUP3 DUP9 PUSH2 0x48E8 JUMP JUMPDEST SWAP2 POP DUP4 DUP3 SUB PUSH1 0x40 DUP6 ADD MSTORE DUP6 MLOAD PUSH1 0x80 DUP4 MSTORE PUSH2 0x4B20 PUSH1 0x80 DUP5 ADD DUP3 PUSH2 0x48E8 JUMP JUMPDEST SWAP1 POP DUP2 DUP8 ADD MLOAD DUP4 DUP3 SUB DUP4 DUP6 ADD MSTORE PUSH2 0x4B37 DUP3 DUP3 PUSH2 0x4750 JUMP JUMPDEST PUSH1 0x40 DUP10 DUP2 ADD MLOAD ISZERO ISZERO SWAP1 DUP7 ADD MSTORE PUSH1 0x60 DUP1 DUP11 ADD MLOAD DUP7 DUP4 SUB SWAP2 SWAP1 SWAP7 ADD MSTORE DUP5 MLOAD DUP1 DUP3 MSTORE SWAP1 DUP5 ADD SWAP5 DUP5 ADD SWAP3 POP DUP6 SWAP2 POP JUMPDEST DUP1 DUP3 LT ISZERO PUSH2 0x4B85 JUMPI DUP3 MLOAD PUSH1 0xFF AND DUP6 MSTORE SWAP4 DUP4 ADD SWAP4 SWAP2 DUP4 ADD SWAP2 PUSH1 0x1 SWAP2 SWAP1 SWAP2 ADD SWAP1 PUSH2 0x4B62 JUMP JUMPDEST POP POP POP POP DUP3 DUP2 SUB PUSH1 0x60 DUP5 ADD MSTORE PUSH2 0x3C2A DUP2 DUP6 PUSH2 0x47EE JUMP JUMPDEST PUSH1 0x40 MLOAD PUSH1 0x1F DUP3 ADD PUSH1 0x1F NOT AND DUP2 ADD PUSH8 0xFFFFFFFFFFFFFFFF DUP2 GT DUP3 DUP3 LT OR ISZERO PUSH2 0x4BC4 JUMPI PUSH2 0x4BC4 PUSH2 0x4D29 JUMP JUMPDEST PUSH1 0x40 MSTORE SWAP2 SWAP1 POP JUMP JUMPDEST PUSH1 0x0 PUSH8 0xFFFFFFFFFFFFFFFF DUP3 GT ISZERO PUSH2 0x4BE6 JUMPI PUSH2 0x4BE6 PUSH2 0x4D29 JUMP JUMPDEST POP PUSH1 0x5 SHL PUSH1 0x20 ADD SWAP1 JUMP JUMPDEST PUSH1 0x0 DUP3 PUSH2 0x4C0B JUMPI PUSH4 0x4E487B71 PUSH1 0xE0 SHL DUP2 MSTORE PUSH1 0x12 PUSH1 0x4 MSTORE PUSH1 0x24 DUP2 REVERT JUMPDEST POP DIV SWAP1 JUMP JUMPDEST PUSH1 0x0 PUSH3 0xFFFFFF DUP1 DUP4 AND DUP2 DUP6 AND DUP2 DUP4 DIV DUP2 GT DUP3 ISZERO ISZERO AND ISZERO PUSH2 0x4C32 JUMPI PUSH2 0x4C32 PUSH2 0x4D13 JUMP JUMPDEST MUL SWAP5 SWAP4 POP POP POP POP JUMP JUMPDEST PUSH1 0x0 PUSH2 0xFFFF DUP4 DUP2 AND SWAP1 DUP4 AND DUP2 DUP2 LT ISZERO PUSH2 0x4C56 JUMPI PUSH2 0x4C56 PUSH2 0x4D13 JUMP JUMPDEST SUB SWAP4 SWAP3 POP POP POP JUMP JUMPDEST PUSH1 0x0 DUP3 DUP3 LT ISZERO PUSH2 0x4C70 JUMPI PUSH2 0x4C70 PUSH2 0x4D13 JUMP JUMPDEST POP SUB SWAP1 JUMP JUMPDEST PUSH1 0x0 JUMPDEST DUP4 DUP2 LT ISZERO PUSH2 0x4C90 JUMPI DUP2 DUP2 ADD MLOAD DUP4 DUP3 ADD MSTORE PUSH1 0x20 ADD PUSH2 0x4C78 JUMP JUMPDEST DUP4 DUP2 GT ISZERO PUSH2 0x2AAC JUMPI POP POP PUSH1 0x0 SWAP2 ADD MSTORE JUMP JUMPDEST PUSH1 0x1 DUP2 DUP2 SHR SWAP1 DUP3 AND DUP1 PUSH2 0x4CB5 JUMPI PUSH1 0x7F DUP3 AND SWAP2 POP JUMPDEST PUSH1 0x20 DUP3 LT DUP2 EQ ISZERO PUSH2 0x1FF1 JUMPI PUSH4 0x4E487B71 PUSH1 0xE0 SHL PUSH1 0x0 MSTORE PUSH1 0x22 PUSH1 0x4 MSTORE PUSH1 0x24 PUSH1 0x0 REVERT JUMPDEST PUSH1 0x0 PUSH2 0xFFFF DUP1 DUP4 AND DUP2 DUP2 EQ ISZERO PUSH2 0x4CEE JUMPI PUSH2 0x4CEE PUSH2 0x4D13 JUMP JUMPDEST PUSH1 0x1 ADD SWAP4 SWAP3 POP POP POP JUMP JUMPDEST PUSH1 0x0 PUSH1 0x0 NOT DUP3 EQ ISZERO PUSH2 0x4D0C JUMPI PUSH2 0x4D0C PUSH2 0x4D13 JUMP JUMPDEST POP PUSH1 0x1 ADD SWAP1 JUMP JUMPDEST PUSH4 0x4E487B71 PUSH1 0xE0 SHL PUSH1 0x0 MSTORE PUSH1 0x11 PUSH1 0x4 MSTORE PUSH1 0x24 PUSH1 0x0 REVERT JUMPDEST PUSH4 0x4E487B71 PUSH1 0xE0 SHL PUSH1 0x0 MSTORE PUSH1 0x41 PUSH1 0x4 MSTORE PUSH1 0x24 PUSH1 0x0 REVERT INVALID 0xFB SMOD CREATE 0xB6 LOG4 SWAP6 STOP EXP PUSH23 0xB84FE72725AEFA5D6B75FA4C4018F95C244048D02BA134 0xE 0x4C CHAINID KECCAK256 PUSH5 0xFF3EDD0C76 CALLCODE BLOCKHASH SELFBALANCE SHL MSTORE8 0x1E PUSH27 0x1FB5D76435E9BE70181A779056FBC9416464726573733A206C6F77 0x2D PUSH13 0x6576656C2063616C6C20776974 PUSH9 0x2076616C7565206661 PUSH10 0x6C6564E3B80DF9E89DF0 0x4C RETURN 0x49 0xBC 0xE 0xD3 0x5D 0xA6 0x2B SWAP15 0xDC BLOCKHASH DUP8 ADDMOD CODECOPY CALLER DUP3 JUMPI PUSH28 0x14C234A082D6A264697066735822122057F9C170105D2E3EB8FF2ABA 0xB7 0xCE 0x4A NOT DUP12 PUSH8 0x14152457B86097F7 PUSH16 0x29F2282D3464736F6C63430008040033 PUSH1 0x80 PUSH1 0x40 MSTORE CALLVALUE DUP1 ISZERO PUSH2 0x10 JUMPI PUSH1 0x0 DUP1 REVERT JUMPDEST POP PUSH2 0xCE9 DUP1 PUSH2 0x20 PUSH1 0x0 CODECOPY PUSH1 0x0 RETURN INVALID PUSH1 0x80 PUSH1 0x40 MSTORE PUSH1 0x4 CALLDATASIZE LT PUSH2 0x7F JUMPI PUSH1 0x0 CALLDATALOAD PUSH1 0xE0 SHR DUP1 PUSH4 0x98BA1D46 GT PUSH2 0x4E JUMPI DUP1 PUSH4 0x98BA1D46 EQ PUSH2 0x15F JUMPI DUP1 PUSH4 0xBC197C81 EQ PUSH2 0x17A JUMPI DUP1 PUSH4 0xD0E30DB0 EQ PUSH2 0x1BF JUMPI DUP1 PUSH4 0xF23A6E61 EQ PUSH2 0x1C7 JUMPI PUSH1 0x0 DUP1 REVERT JUMPDEST DUP1 PUSH4 0x1FFC9A7 EQ PUSH2 0xC0 JUMPI DUP1 PUSH4 0x1826C119 EQ PUSH2 0xF5 JUMPI DUP1 PUSH4 0x88BDE015 EQ PUSH2 0x117 JUMPI DUP1 PUSH4 0x8DA5CB5B EQ PUSH2 0x137 JUMPI PUSH1 0x0 DUP1 REVERT JUMPDEST CALLDATASIZE PUSH2 0xBB JUMPI PUSH1 0x40 MLOAD CALLVALUE DUP2 MSTORE CALLER SWAP1 PUSH32 0x66FF7C8F71CCC7C36152A41920D0D3B46EF3034359F76AA1498ED4478C204B5C SWAP1 PUSH1 0x20 ADD PUSH1 0x40 MLOAD DUP1 SWAP2 SUB SWAP1 LOG2 STOP JUMPDEST PUSH1 0x0 DUP1 REVERT JUMPDEST CALLVALUE DUP1 ISZERO PUSH2 0xCC JUMPI PUSH1 0x0 DUP1 REVERT JUMPDEST POP PUSH2 0xE0 PUSH2 0xDB CALLDATASIZE PUSH1 0x4 PUSH2 0xB35 JUMP JUMPDEST PUSH2 0x1F3 JUMP JUMPDEST PUSH1 0x40 MLOAD SWAP1 ISZERO ISZERO DUP2 MSTORE PUSH1 0x20 ADD JUMPDEST PUSH1 0x40 MLOAD DUP1 SWAP2 SUB SWAP1 RETURN JUMPDEST CALLVALUE DUP1 ISZERO PUSH2 0x101 JUMPI PUSH1 0x0 DUP1 REVERT JUMPDEST POP PUSH2 0x115 PUSH2 0x110 CALLDATASIZE PUSH1 0x4 PUSH2 0xAF2 JUMP JUMPDEST PUSH2 0x22A JUMP JUMPDEST STOP JUMPDEST CALLVALUE DUP1 ISZERO PUSH2 0x123 JUMPI PUSH1 0x0 DUP1 REVERT JUMPDEST POP PUSH2 0x115 PUSH2 0x132 CALLDATASIZE PUSH1 0x4 PUSH2 0x9FD JUMP JUMPDEST PUSH2 0x2FE JUMP JUMPDEST CALLVALUE DUP1 ISZERO PUSH2 0x143 JUMPI PUSH1 0x0 DUP1 REVERT JUMPDEST POP PUSH1 0x0 SLOAD PUSH1 0x40 MLOAD PUSH1 0x1 PUSH1 0x1 PUSH1 0xA0 SHL SUB SWAP1 SWAP2 AND DUP2 MSTORE PUSH1 0x20 ADD PUSH2 0xEC JUMP JUMPDEST CALLVALUE DUP1 ISZERO PUSH2 0x16B JUMPI PUSH1 0x0 DUP1 REVERT JUMPDEST POP PUSH1 0x40 MLOAD SELFBALANCE DUP2 MSTORE PUSH1 0x20 ADD PUSH2 0xEC JUMP JUMPDEST CALLVALUE DUP1 ISZERO PUSH2 0x186 JUMPI PUSH1 0x0 DUP1 REVERT JUMPDEST POP PUSH2 0x1A6 PUSH2 0x195 CALLDATASIZE PUSH1 0x4 PUSH2 0x8F4 JUMP JUMPDEST PUSH4 0xBC197C81 PUSH1 0xE0 SHL SWAP6 SWAP5 POP POP POP POP POP JUMP JUMPDEST PUSH1 0x40 MLOAD PUSH1 0x1 PUSH1 0x1 PUSH1 0xE0 SHL SUB NOT SWAP1 SWAP2 AND DUP2 MSTORE PUSH1 0x20 ADD PUSH2 0xEC JUMP JUMPDEST PUSH2 0x115 PUSH2 0x405 JUMP JUMPDEST CALLVALUE DUP1 ISZERO PUSH2 0x1D3 JUMPI PUSH1 0x0 DUP1 REVERT JUMPDEST POP PUSH2 0x1A6 PUSH2 0x1E2 CALLDATASIZE PUSH1 0x4 PUSH2 0x99A JUMP JUMPDEST PUSH4 0xF23A6E61 PUSH1 0xE0 SHL SWAP6 SWAP5 POP POP POP POP POP JUMP JUMPDEST PUSH1 0x0 PUSH1 0x1 PUSH1 0x1 PUSH1 0xE0 SHL SUB NOT DUP3 AND PUSH4 0x2711897 PUSH1 0xE5 SHL EQ DUP1 PUSH2 0x224 JUMPI POP PUSH4 0x1FFC9A7 PUSH1 0xE0 SHL PUSH1 0x1 PUSH1 0x1 PUSH1 0xE0 SHL SUB NOT DUP4 AND EQ JUMPDEST SWAP3 SWAP2 POP POP JUMP JUMPDEST CALLER PUSH2 0x23D PUSH1 0x0 SLOAD PUSH1 0x1 PUSH1 0x1 PUSH1 0xA0 SHL SUB AND SWAP1 JUMP JUMPDEST PUSH1 0x1 PUSH1 0x1 PUSH1 0xA0 SHL SUB AND EQ PUSH2 0x298 JUMPI PUSH1 0x40 MLOAD PUSH3 0x461BCD PUSH1 0xE5 SHL DUP2 MSTORE PUSH1 0x20 PUSH1 0x4 DUP3 ADD MSTORE PUSH1 0x1E PUSH1 0x24 DUP3 ADD MSTORE PUSH32 0x4F776E65643A2063616C6C6572206973206E6F7420746865206F776E65720000 PUSH1 0x44 DUP3 ADD MSTORE PUSH1 0x64 ADD JUMPDEST PUSH1 0x40 MLOAD DUP1 SWAP2 SUB SWAP1 REVERT JUMPDEST PUSH1 0x0 DUP3 MLOAD DUP3 PUSH2 0x2A7 SWAP2 SWAP1 PUSH2 0xC01 JUMP JUMPDEST SWAP1 POP PUSH1 0x0 JUMPDEST DUP4 MLOAD DUP2 LT ISZERO PUSH2 0x2F8 JUMPI PUSH2 0x2E6 DUP3 DUP6 DUP4 DUP2 MLOAD DUP2 LT PUSH2 0x2D9 JUMPI PUSH4 0x4E487B71 PUSH1 0xE0 SHL PUSH1 0x0 MSTORE PUSH1 0x32 PUSH1 0x4 MSTORE PUSH1 0x24 PUSH1 0x0 REVERT JUMPDEST PUSH1 0x20 MUL PUSH1 0x20 ADD ADD MLOAD PUSH2 0x43C JUMP JUMPDEST DUP1 PUSH2 0x2F0 DUP2 PUSH2 0xC4D JUMP JUMPDEST SWAP2 POP POP PUSH2 0x2AC JUMP JUMPDEST POP POP POP POP JUMP JUMPDEST CALLER PUSH2 0x311 PUSH1 0x0 SLOAD PUSH1 0x1 PUSH1 0x1 PUSH1 0xA0 SHL SUB AND SWAP1 JUMP JUMPDEST PUSH1 0x1 PUSH1 0x1 PUSH1 0xA0 SHL SUB AND EQ PUSH2 0x367 JUMPI PUSH1 0x40 MLOAD PUSH3 0x461BCD PUSH1 0xE5 SHL DUP2 MSTORE PUSH1 0x20 PUSH1 0x4 DUP3 ADD MSTORE PUSH1 0x1E PUSH1 0x24 DUP3 ADD MSTORE PUSH32 0x4F776E65643A2063616C6C6572206973206E6F7420746865206F776E65720000 PUSH1 0x44 DUP3 ADD MSTORE PUSH1 0x64 ADD PUSH2 0x28F JUMP JUMPDEST PUSH1 0x0 JUMPDEST DUP4 MLOAD DUP2 LT ISZERO PUSH2 0x2F8 JUMPI PUSH2 0x3F3 DUP5 DUP3 DUP2 MLOAD DUP2 LT PUSH2 0x396 JUMPI PUSH4 0x4E487B71 PUSH1 0xE0 SHL PUSH1 0x0 MSTORE PUSH1 0x32 PUSH1 0x4 MSTORE PUSH1 0x24 PUSH1 0x0 REVERT JUMPDEST PUSH1 0x20 MUL PUSH1 0x20 ADD ADD MLOAD DUP5 DUP4 DUP2 MLOAD DUP2 LT PUSH2 0x3BE JUMPI PUSH4 0x4E487B71 PUSH1 0xE0 SHL PUSH1 0x0 MSTORE PUSH1 0x32 PUSH1 0x4 MSTORE PUSH1 0x24 PUSH1 0x0 REVERT JUMPDEST PUSH1 0x20 MUL PUSH1 0x20 ADD ADD MLOAD DUP5 DUP5 DUP2 MLOAD DUP2 LT PUSH2 0x3E6 JUMPI PUSH4 0x4E487B71 PUSH1 0xE0 SHL PUSH1 0x0 MSTORE PUSH1 0x32 PUSH1 0x4 MSTORE PUSH1 0x24 PUSH1 0x0 REVERT JUMPDEST PUSH1 0x20 MUL PUSH1 0x20 ADD ADD MLOAD PUSH2 0x49C JUMP JUMPDEST DUP1 PUSH2 0x3FD DUP2 PUSH2 0xC4D JUMP JUMPDEST SWAP2 POP POP PUSH2 0x36A JUMP JUMPDEST PUSH1 0x40 MLOAD CALLVALUE DUP2 MSTORE CALLER SWAP1 PUSH32 0x66FF7C8F71CCC7C36152A41920D0D3B46EF3034359F76AA1498ED4478C204B5C SWAP1 PUSH1 0x20 ADD PUSH1 0x40 MLOAD DUP1 SWAP2 SUB SWAP1 LOG2 JUMP JUMPDEST DUP2 SELFBALANCE DUP2 GT ISZERO PUSH2 0x44A JUMPI PUSH1 0x0 DUP1 REVERT JUMPDEST DUP2 PUSH1 0x1 PUSH1 0x1 PUSH1 0xA0 SHL SUB AND PUSH32 0x4BD02E6E14D9C1417BA3582A754B1124AD2FBE11AD4CEE6B51D08EBADFC0792 DUP5 PUSH1 0x40 MLOAD PUSH2 0x485 SWAP2 DUP2 MSTORE PUSH1 0x20 ADD SWAP1 JUMP JUMPDEST PUSH1 0x40 MLOAD DUP1 SWAP2 SUB SWAP1 LOG2 PUSH2 0x497 DUP3 DUP5 PUSH2 0x4F0 JUMP JUMPDEST POP POP POP JUMP JUMPDEST PUSH2 0x4A7 DUP4 DUP4 DUP4 PUSH2 0x609 JUMP JUMPDEST POP DUP3 PUSH1 0x1 PUSH1 0x1 PUSH1 0xA0 SHL SUB AND PUSH32 0x4BD02E6E14D9C1417BA3582A754B1124AD2FBE11AD4CEE6B51D08EBADFC0792 DUP3 PUSH1 0x40 MLOAD PUSH2 0x4E3 SWAP2 DUP2 MSTORE PUSH1 0x20 ADD SWAP1 JUMP JUMPDEST PUSH1 0x40 MLOAD DUP1 SWAP2 SUB SWAP1 LOG2 POP POP POP JUMP JUMPDEST DUP1 SELFBALANCE LT ISZERO PUSH2 0x540 JUMPI PUSH1 0x40 MLOAD PUSH3 0x461BCD PUSH1 0xE5 SHL DUP2 MSTORE PUSH1 0x20 PUSH1 0x4 DUP3 ADD MSTORE PUSH1 0x1D PUSH1 0x24 DUP3 ADD MSTORE PUSH32 0x416464726573733A20696E73756666696369656E742062616C616E6365000000 PUSH1 0x44 DUP3 ADD MSTORE PUSH1 0x64 ADD PUSH2 0x28F JUMP JUMPDEST PUSH1 0x0 DUP3 PUSH1 0x1 PUSH1 0x1 PUSH1 0xA0 SHL SUB AND DUP3 PUSH1 0x40 MLOAD PUSH1 0x0 PUSH1 0x40 MLOAD DUP1 DUP4 SUB DUP2 DUP6 DUP8 GAS CALL SWAP3 POP POP POP RETURNDATASIZE DUP1 PUSH1 0x0 DUP2 EQ PUSH2 0x58D JUMPI PUSH1 0x40 MLOAD SWAP2 POP PUSH1 0x1F NOT PUSH1 0x3F RETURNDATASIZE ADD AND DUP3 ADD PUSH1 0x40 MSTORE RETURNDATASIZE DUP3 MSTORE RETURNDATASIZE PUSH1 0x0 PUSH1 0x20 DUP5 ADD RETURNDATACOPY PUSH2 0x592 JUMP JUMPDEST PUSH1 0x60 SWAP2 POP JUMPDEST POP POP SWAP1 POP DUP1 PUSH2 0x497 JUMPI PUSH1 0x40 MLOAD PUSH3 0x461BCD PUSH1 0xE5 SHL DUP2 MSTORE PUSH1 0x20 PUSH1 0x4 DUP3 ADD MSTORE PUSH1 0x3A PUSH1 0x24 DUP3 ADD MSTORE PUSH32 0x416464726573733A20756E61626C6520746F2073656E642076616C75652C2072 PUSH1 0x44 DUP3 ADD MSTORE PUSH32 0x6563697069656E74206D61792068617665207265766572746564000000000000 PUSH1 0x64 DUP3 ADD MSTORE PUSH1 0x84 ADD PUSH2 0x28F JUMP JUMPDEST PUSH1 0x60 PUSH2 0x62F DUP5 DUP5 DUP5 PUSH1 0x40 MLOAD DUP1 PUSH1 0x60 ADD PUSH1 0x40 MSTORE DUP1 PUSH1 0x29 DUP2 MSTORE PUSH1 0x20 ADD PUSH2 0xC8B PUSH1 0x29 SWAP2 CODECOPY PUSH2 0x639 JUMP JUMPDEST SWAP1 POP JUMPDEST SWAP4 SWAP3 POP POP POP JUMP JUMPDEST PUSH1 0x60 DUP3 SELFBALANCE LT ISZERO PUSH2 0x69A JUMPI PUSH1 0x40 MLOAD PUSH3 0x461BCD PUSH1 0xE5 SHL DUP2 MSTORE PUSH1 0x20 PUSH1 0x4 DUP3 ADD MSTORE PUSH1 0x26 PUSH1 0x24 DUP3 ADD MSTORE PUSH32 0x416464726573733A20696E73756666696369656E742062616C616E636520666F PUSH1 0x44 DUP3 ADD MSTORE PUSH6 0x1C8818D85B1B PUSH1 0xD2 SHL PUSH1 0x64 DUP3 ADD MSTORE PUSH1 0x84 ADD PUSH2 0x28F JUMP JUMPDEST DUP5 EXTCODESIZE PUSH2 0x6E8 JUMPI PUSH1 0x40 MLOAD PUSH3 0x461BCD PUSH1 0xE5 SHL DUP2 MSTORE PUSH1 0x20 PUSH1 0x4 DUP3 ADD MSTORE PUSH1 0x1D PUSH1 0x24 DUP3 ADD MSTORE PUSH32 0x416464726573733A2063616C6C20746F206E6F6E2D636F6E7472616374000000 PUSH1 0x44 DUP3 ADD MSTORE PUSH1 0x64 ADD PUSH2 0x28F JUMP JUMPDEST PUSH1 0x0 DUP1 DUP7 PUSH1 0x1 PUSH1 0x1 PUSH1 0xA0 SHL SUB AND DUP6 DUP8 PUSH1 0x40 MLOAD PUSH2 0x704 SWAP2 SWAP1 PUSH2 0xB5D JUMP JUMPDEST PUSH1 0x0 PUSH1 0x40 MLOAD DUP1 DUP4 SUB DUP2 DUP6 DUP8 GAS CALL SWAP3 POP POP POP RETURNDATASIZE DUP1 PUSH1 0x0 DUP2 EQ PUSH2 0x741 JUMPI PUSH1 0x40 MLOAD SWAP2 POP PUSH1 0x1F NOT PUSH1 0x3F RETURNDATASIZE ADD AND DUP3 ADD PUSH1 0x40 MSTORE RETURNDATASIZE DUP3 MSTORE RETURNDATASIZE PUSH1 0x0 PUSH1 0x20 DUP5 ADD RETURNDATACOPY PUSH2 0x746 JUMP JUMPDEST PUSH1 0x60 SWAP2 POP JUMPDEST POP SWAP2 POP SWAP2 POP PUSH2 0x756 DUP3 DUP3 DUP7 PUSH2 0x761 JUMP JUMPDEST SWAP8 SWAP7 POP POP POP POP POP POP POP JUMP JUMPDEST PUSH1 0x60 DUP4 ISZERO PUSH2 0x770 JUMPI POP DUP2 PUSH2 0x632 JUMP JUMPDEST DUP3 MLOAD ISZERO PUSH2 0x780 JUMPI DUP3 MLOAD DUP1 DUP5 PUSH1 0x20 ADD REVERT JUMPDEST DUP2 PUSH1 0x40 MLOAD PUSH3 0x461BCD PUSH1 0xE5 SHL DUP2 MSTORE PUSH1 0x4 ADD PUSH2 0x28F SWAP2 SWAP1 PUSH2 0xB79 JUMP JUMPDEST DUP1 CALLDATALOAD PUSH1 0x1 PUSH1 0x1 PUSH1 0xA0 SHL SUB DUP2 AND DUP2 EQ PUSH2 0x7B1 JUMPI PUSH1 0x0 DUP1 REVERT JUMPDEST SWAP2 SWAP1 POP JUMP JUMPDEST PUSH1 0x0 DUP3 PUSH1 0x1F DUP4 ADD SLT PUSH2 0x7C6 JUMPI DUP1 DUP2 REVERT JUMPDEST DUP2 CALLDATALOAD PUSH1 0x20 PUSH2 0x7DB PUSH2 0x7D6 DUP4 PUSH2 0xBDD JUMP JUMPDEST PUSH2 0xBAC JUMP JUMPDEST DUP1 DUP4 DUP3 MSTORE DUP3 DUP3 ADD SWAP2 POP DUP3 DUP7 ADD DUP8 DUP5 DUP7 PUSH1 0x5 SHL DUP10 ADD ADD GT ISZERO PUSH2 0x7FA JUMPI DUP6 DUP7 REVERT JUMPDEST DUP6 JUMPDEST DUP6 DUP2 LT ISZERO PUSH2 0x81F JUMPI PUSH2 0x80D DUP3 PUSH2 0x79A JUMP JUMPDEST DUP5 MSTORE SWAP3 DUP5 ADD SWAP3 SWAP1 DUP5 ADD SWAP1 PUSH1 0x1 ADD PUSH2 0x7FC JUMP JUMPDEST POP SWAP1 SWAP8 SWAP7 POP POP POP POP POP POP POP JUMP JUMPDEST PUSH1 0x0 DUP3 PUSH1 0x1F DUP4 ADD SLT PUSH2 0x83C JUMPI DUP1 DUP2 REVERT JUMPDEST DUP2 CALLDATALOAD PUSH1 0x20 PUSH2 0x84C PUSH2 0x7D6 DUP4 PUSH2 0xBDD JUMP JUMPDEST DUP1 DUP4 DUP3 MSTORE DUP3 DUP3 ADD SWAP2 POP DUP3 DUP7 ADD DUP8 DUP5 DUP7 PUSH1 0x5 SHL DUP10 ADD ADD GT ISZERO PUSH2 0x86B JUMPI DUP6 DUP7 REVERT JUMPDEST DUP6 JUMPDEST DUP6 DUP2 LT ISZERO PUSH2 0x81F JUMPI DUP2 CALLDATALOAD DUP5 MSTORE SWAP3 DUP5 ADD SWAP3 SWAP1 DUP5 ADD SWAP1 PUSH1 0x1 ADD PUSH2 0x86D JUMP JUMPDEST PUSH1 0x0 DUP3 PUSH1 0x1F DUP4 ADD SLT PUSH2 0x899 JUMPI DUP1 DUP2 REVERT JUMPDEST DUP2 CALLDATALOAD PUSH8 0xFFFFFFFFFFFFFFFF DUP2 GT ISZERO PUSH2 0x8B3 JUMPI PUSH2 0x8B3 PUSH2 0xC74 JUMP JUMPDEST PUSH2 0x8C6 PUSH1 0x1F DUP3 ADD PUSH1 0x1F NOT AND PUSH1 0x20 ADD PUSH2 0xBAC JUMP JUMPDEST DUP2 DUP2 MSTORE DUP5 PUSH1 0x20 DUP4 DUP7 ADD ADD GT ISZERO PUSH2 0x8DA JUMPI DUP3 DUP4 REVERT JUMPDEST DUP2 PUSH1 0x20 DUP6 ADD PUSH1 0x20 DUP4 ADD CALLDATACOPY SWAP1 DUP2 ADD PUSH1 0x20 ADD SWAP2 SWAP1 SWAP2 MSTORE SWAP3 SWAP2 POP POP JUMP JUMPDEST PUSH1 0x0 DUP1 PUSH1 0x0 DUP1 PUSH1 0x0 PUSH1 0xA0 DUP7 DUP9 SUB SLT ISZERO PUSH2 0x90B JUMPI DUP1 DUP2 REVERT JUMPDEST PUSH2 0x914 DUP7 PUSH2 0x79A JUMP JUMPDEST SWAP5 POP PUSH2 0x922 PUSH1 0x20 DUP8 ADD PUSH2 0x79A JUMP JUMPDEST SWAP4 POP PUSH1 0x40 DUP7 ADD CALLDATALOAD PUSH8 0xFFFFFFFFFFFFFFFF DUP1 DUP3 GT ISZERO PUSH2 0x93E JUMPI DUP3 DUP4 REVERT JUMPDEST PUSH2 0x94A DUP10 DUP4 DUP11 ADD PUSH2 0x82C JUMP JUMPDEST SWAP5 POP PUSH1 0x60 DUP9 ADD CALLDATALOAD SWAP2 POP DUP1 DUP3 GT ISZERO PUSH2 0x95F JUMPI DUP3 DUP4 REVERT JUMPDEST PUSH2 0x96B DUP10 DUP4 DUP11 ADD PUSH2 0x82C JUMP JUMPDEST SWAP4 POP PUSH1 0x80 DUP9 ADD CALLDATALOAD SWAP2 POP DUP1 DUP3 GT ISZERO PUSH2 0x980 JUMPI DUP3 DUP4 REVERT JUMPDEST POP PUSH2 0x98D DUP9 DUP3 DUP10 ADD PUSH2 0x889 JUMP JUMPDEST SWAP2 POP POP SWAP3 SWAP6 POP SWAP3 SWAP6 SWAP1 SWAP4 POP JUMP JUMPDEST PUSH1 0x0 DUP1 PUSH1 0x0 DUP1 PUSH1 0x0 PUSH1 0xA0 DUP7 DUP9 SUB SLT ISZERO PUSH2 0x9B1 JUMPI DUP1 DUP2 REVERT JUMPDEST PUSH2 0x9BA DUP7 PUSH2 0x79A JUMP JUMPDEST SWAP5 POP PUSH2 0x9C8 PUSH1 0x20 DUP8 ADD PUSH2 0x79A JUMP JUMPDEST SWAP4 POP PUSH1 0x40 DUP7 ADD CALLDATALOAD SWAP3 POP PUSH1 0x60 DUP7 ADD CALLDATALOAD SWAP2 POP PUSH1 0x80 DUP7 ADD CALLDATALOAD PUSH8 0xFFFFFFFFFFFFFFFF DUP2 GT ISZERO PUSH2 0x9F1 JUMPI DUP2 DUP3 REVERT JUMPDEST PUSH2 0x98D DUP9 DUP3 DUP10 ADD PUSH2 0x889 JUMP JUMPDEST PUSH1 0x0 DUP1 PUSH1 0x0 PUSH1 0x60 DUP5 DUP7 SUB SLT ISZERO PUSH2 0xA11 JUMPI DUP3 DUP4 REVERT JUMPDEST DUP4 CALLDATALOAD PUSH8 0xFFFFFFFFFFFFFFFF DUP1 DUP3 GT ISZERO PUSH2 0xA28 JUMPI DUP5 DUP6 REVERT JUMPDEST PUSH2 0xA34 DUP8 DUP4 DUP9 ADD PUSH2 0x7B6 JUMP JUMPDEST SWAP5 POP PUSH1 0x20 SWAP2 POP DUP2 DUP7 ADD CALLDATALOAD DUP2 DUP2 GT ISZERO PUSH2 0xA4A JUMPI DUP5 DUP6 REVERT JUMPDEST DUP7 ADD PUSH1 0x1F DUP2 ADD DUP9 SGT PUSH2 0xA5A JUMPI DUP5 DUP6 REVERT JUMPDEST DUP1 CALLDATALOAD PUSH2 0xA68 PUSH2 0x7D6 DUP3 PUSH2 0xBDD JUMP JUMPDEST DUP1 DUP3 DUP3 MSTORE DUP6 DUP3 ADD SWAP2 POP DUP6 DUP5 ADD DUP12 DUP8 DUP6 PUSH1 0x5 SHL DUP8 ADD ADD GT ISZERO PUSH2 0xA87 JUMPI DUP9 DUP10 REVERT JUMPDEST DUP9 JUMPDEST DUP5 DUP2 LT ISZERO PUSH2 0xAC0 JUMPI DUP2 CALLDATALOAD DUP8 DUP2 GT ISZERO PUSH2 0xA9F JUMPI DUP11 DUP12 REVERT JUMPDEST PUSH2 0xAAD DUP15 DUP11 DUP4 DUP11 ADD ADD PUSH2 0x889 JUMP JUMPDEST DUP6 MSTORE POP SWAP3 DUP8 ADD SWAP3 SWAP1 DUP8 ADD SWAP1 PUSH1 0x1 ADD PUSH2 0xA89 JUMP JUMPDEST POP SWAP1 SWAP8 POP POP POP POP PUSH1 0x40 DUP8 ADD CALLDATALOAD SWAP3 POP POP DUP1 DUP3 GT ISZERO PUSH2 0xADB JUMPI DUP3 DUP4 REVERT JUMPDEST POP PUSH2 0xAE8 DUP7 DUP3 DUP8 ADD PUSH2 0x82C JUMP JUMPDEST SWAP2 POP POP SWAP3 POP SWAP3 POP SWAP3 JUMP JUMPDEST PUSH1 0x0 DUP1 PUSH1 0x40 DUP4 DUP6 SUB SLT ISZERO PUSH2 0xB04 JUMPI DUP2 DUP3 REVERT JUMPDEST DUP3 CALLDATALOAD PUSH8 0xFFFFFFFFFFFFFFFF DUP2 GT ISZERO PUSH2 0xB1A JUMPI DUP3 DUP4 REVERT JUMPDEST PUSH2 0xB26 DUP6 DUP3 DUP7 ADD PUSH2 0x7B6 JUMP JUMPDEST SWAP6 PUSH1 0x20 SWAP5 SWAP1 SWAP5 ADD CALLDATALOAD SWAP5 POP POP POP POP JUMP JUMPDEST PUSH1 0x0 PUSH1 0x20 DUP3 DUP5 SUB SLT ISZERO PUSH2 0xB46 JUMPI DUP1 DUP2 REVERT JUMPDEST DUP2 CALLDATALOAD PUSH1 0x1 PUSH1 0x1 PUSH1 0xE0 SHL SUB NOT DUP2 AND DUP2 EQ PUSH2 0x632 JUMPI DUP2 DUP3 REVERT JUMPDEST PUSH1 0x0 DUP3 MLOAD PUSH2 0xB6F DUP2 DUP5 PUSH1 0x20 DUP8 ADD PUSH2 0xC21 JUMP JUMPDEST SWAP2 SWAP1 SWAP2 ADD SWAP3 SWAP2 POP POP JUMP JUMPDEST PUSH1 0x20 DUP2 MSTORE PUSH1 0x0 DUP3 MLOAD DUP1 PUSH1 0x20 DUP5 ADD MSTORE PUSH2 0xB98 DUP2 PUSH1 0x40 DUP6 ADD PUSH1 0x20 DUP8 ADD PUSH2 0xC21 JUMP JUMPDEST PUSH1 0x1F ADD PUSH1 0x1F NOT AND SWAP2 SWAP1 SWAP2 ADD PUSH1 0x40 ADD SWAP3 SWAP2 POP POP JUMP JUMPDEST PUSH1 0x40 MLOAD PUSH1 0x1F DUP3 ADD PUSH1 0x1F NOT AND DUP2 ADD PUSH8 0xFFFFFFFFFFFFFFFF DUP2 GT DUP3 DUP3 LT OR ISZERO PUSH2 0xBD5 JUMPI PUSH2 0xBD5 PUSH2 0xC74 JUMP JUMPDEST PUSH1 0x40 MSTORE SWAP2 SWAP1 POP JUMP JUMPDEST PUSH1 0x0 PUSH8 0xFFFFFFFFFFFFFFFF DUP3 GT ISZERO PUSH2 0xBF7 JUMPI PUSH2 0xBF7 PUSH2 0xC74 JUMP JUMPDEST POP PUSH1 0x5 SHL PUSH1 0x20 ADD SWAP1 JUMP JUMPDEST PUSH1 0x0 DUP3 PUSH2 0xC1C JUMPI PUSH4 0x4E487B71 PUSH1 0xE0 SHL DUP2 MSTORE PUSH1 0x12 PUSH1 0x4 MSTORE PUSH1 0x24 DUP2 REVERT JUMPDEST POP DIV SWAP1 JUMP JUMPDEST PUSH1 0x0 JUMPDEST DUP4 DUP2 LT ISZERO PUSH2 0xC3C JUMPI DUP2 DUP2 ADD MLOAD DUP4 DUP3 ADD MSTORE PUSH1 0x20 ADD PUSH2 0xC24 JUMP JUMPDEST DUP4 DUP2 GT ISZERO PUSH2 0x2F8 JUMPI POP POP PUSH1 0x0 SWAP2 ADD MSTORE JUMP JUMPDEST PUSH1 0x0 PUSH1 0x0 NOT DUP3 EQ ISZERO PUSH2 0xC6D JUMPI PUSH4 0x4E487B71 PUSH1 0xE0 SHL DUP2 MSTORE PUSH1 0x11 PUSH1 0x4 MSTORE PUSH1 0x24 DUP2 REVERT JUMPDEST POP PUSH1 0x1 ADD SWAP1 JUMP JUMPDEST PUSH4 0x4E487B71 PUSH1 0xE0 SHL PUSH1 0x0 MSTORE PUSH1 0x41 PUSH1 0x4 MSTORE PUSH1 0x24 PUSH1 0x0 REVERT INVALID COINBASE PUSH5 0x6472657373 GASPRICE KECCAK256 PUSH13 0x6F772D6C6576656C2063616C6C KECCAK256 PUSH24 0x6974682076616C7565206661696C6564A264697066735822 SLT KECCAK256 ISZERO PUSH20 0x4BCE76F35CF54B3FF77DAC0ABE39D5AB25B466DE SWAP1 0xB0 KECCAK256 0xF6 DUP16 0xC6 0xE6 CODECOPY ADD CALLDATASIZE PUSH5 0x736F6C6343 STOP ADDMOD DIV STOP CALLER "
		},
		"gasEstimates": {
			"creation": {
				"codeDepositCost": "3993200",
				"executionCost": "infinite",
				"totalCost": "infinite"
			},
			"external": {
				"check_balance()": "290",
				"check_members()": "infinite",
				"create_department_dproposal(uint256,bytes,uint8,uint256)": "infinite",
				"create_department_tproposal(uint256,bytes,uint8,address[],bytes[],uint256[])": "infinite",
				"create_governance_proposal(bytes,uint8)": "infinite",
				"create_management_proposal(bytes,uint8,address[],bool,uint8[])": "infinite",
				"create_move_proposal(bytes,uint8,address,uint8,uint8)": "infinite",
				"create_transaction_proposal(bytes,uint8,address[],bytes[],uint256[])": "infinite",
				"department_vote(uint256,uint16)": "infinite",
				"deposit()": "1667",
				"execute(uint16)": "infinite",
				"execute_department_proposal(uint256,uint16)": "infinite",
				"get_department_info(uint256)": "infinite",
				"get_department_proposal(uint256,uint16)": "infinite",
				"get_proposal(uint16)": "infinite",
				"onERC1155BatchReceived(address,address,uint256[],uint256[],bytes)": "infinite",
				"onERC1155Received(address,address,uint256,uint256,bytes)": "infinite",
				"remove_department_proposal(uint256,uint16)": "infinite",
				"remove_proposal(uint16)": "infinite",
				"supportsInterface(bytes4)": "450",
				"vote(uint16)": "infinite"
			}
		},
		"methodIdentifiers": {
			"check_balance()": "98ba1d46",
			"check_members()": "3e08602c",
			"create_department_dproposal(uint256,bytes,uint8,uint256)": "5b4693b9",
			"create_department_tproposal(uint256,bytes,uint8,address[],bytes[],uint256[])": "23850315",
			"create_governance_proposal(bytes,uint8)": "1279a374",
			"create_management_proposal(bytes,uint8,address[],bool,uint8[])": "48eccc2c",
			"create_move_proposal(bytes,uint8,address,uint8,uint8)": "c696709c",
			"create_transaction_proposal(bytes,uint8,address[],bytes[],uint256[])": "49041d3e",
			"department_vote(uint256,uint16)": "f492935b",
			"deposit()": "d0e30db0",
			"execute(uint16)": "edbc28df",
			"execute_department_proposal(uint256,uint16)": "ba87146a",
			"get_department_info(uint256)": "269d6e71",
			"get_department_proposal(uint256,uint16)": "f5d77adf",
			"get_proposal(uint16)": "267044e5",
			"onERC1155BatchReceived(address,address,uint256[],uint256[],bytes)": "bc197c81",
			"onERC1155Received(address,address,uint256,uint256,bytes)": "f23a6e61",
			"remove_department_proposal(uint256,uint16)": "caa39817",
			"remove_proposal(uint16)": "d537b060",
			"supportsInterface(bytes4)": "01ffc9a7",
			"vote(uint16)": "ddb6e116"
		}
	},
	"abi": [
		{
			"inputs": [],
			"stateMutability": "nonpayable",
			"type": "constructor"
		},
		{
			"anonymous": false,
			"inputs": [
				{
					"indexed": true,
					"internalType": "address",
					"name": "from",
					"type": "address"
				},
				{
					"indexed": false,
					"internalType": "uint256",
					"name": "value",
					"type": "uint256"
				}
			],
			"name": "EthDeposited",
			"type": "event"
		},
		{
			"anonymous": false,
			"inputs": [
				{
					"indexed": true,
					"internalType": "address",
					"name": "to",
					"type": "address"
				},
				{
					"indexed": false,
					"internalType": "uint256",
					"name": "value",
					"type": "uint256"
				}
			],
			"name": "EthTransfered",
			"type": "event"
		},
		{
			"anonymous": false,
			"inputs": [
				{
					"indexed": true,
					"internalType": "bytes",
					"name": "name",
					"type": "bytes"
				},
				{
					"indexed": true,
					"internalType": "uint16",
					"name": "id",
					"type": "uint16"
				},
				{
					"indexed": false,
					"internalType": "uint8",
					"name": "lifespan",
					"type": "uint8"
				},
				{
					"indexed": false,
					"internalType": "uint256",
					"name": "timestamp",
					"type": "uint256"
				}
			],
			"name": "ProposalCreated",
			"type": "event"
		},
		{
			"anonymous": false,
			"inputs": [
				{
					"indexed": true,
					"internalType": "bytes",
					"name": "name",
					"type": "bytes"
				},
				{
					"indexed": false,
					"internalType": "uint16",
					"name": "id",
					"type": "uint16"
				}
			],
			"name": "ProposalExecuted",
			"type": "event"
		},
		{
			"anonymous": false,
			"inputs": [
				{
					"indexed": true,
					"internalType": "bytes",
					"name": "name",
					"type": "bytes"
				},
				{
					"indexed": true,
					"internalType": "uint16",
					"name": "id",
					"type": "uint16"
				}
			],
			"name": "ProposalRemoved",
			"type": "event"
		},
		{
			"anonymous": false,
			"inputs": [
				{
					"indexed": true,
					"internalType": "bytes",
					"name": "name",
					"type": "bytes"
				},
				{
					"indexed": true,
					"internalType": "uint16",
					"name": "id",
					"type": "uint16"
				},
				{
					"indexed": true,
					"internalType": "address",
					"name": "voter",
					"type": "address"
				}
			],
			"name": "VoteCast",
			"type": "event"
		},
		{
			"inputs": [],
			"name": "check_balance",
			"outputs": [
				{
					"internalType": "uint256",
					"name": "",
					"type": "uint256"
				}
			],
			"stateMutability": "view",
			"type": "function"
		},
		{
			"inputs": [],
			"name": "check_members",
			"outputs": [
				{
					"internalType": "bytes32[]",
					"name": "",
					"type": "bytes32[]"
				}
			],
			"stateMutability": "view",
			"type": "function"
		},
		{
			"inputs": [
				{
					"internalType": "uint256",
					"name": "d_id",
					"type": "uint256"
				},
				{
					"internalType": "bytes",
					"name": "name",
					"type": "bytes"
				},
				{
					"internalType": "uint8",
					"name": "lifespan",
					"type": "uint8"
				},
				{
					"internalType": "uint256",
					"name": "amount",
					"type": "uint256"
				}
			],
			"name": "create_department_dproposal",
			"outputs": [],
			"stateMutability": "nonpayable",
			"type": "function"
		},
		{
			"inputs": [
				{
					"internalType": "uint256",
					"name": "d_id",
					"type": "uint256"
				},
				{
					"internalType": "bytes",
					"name": "name",
					"type": "bytes"
				},
				{
					"internalType": "uint8",
					"name": "lifespan",
					"type": "uint8"
				},
				{
					"internalType": "address[]",
					"name": "targets",
					"type": "address[]"
				},
				{
					"internalType": "bytes[]",
					"name": "datas",
					"type": "bytes[]"
				},
				{
					"internalType": "uint256[]",
					"name": "values",
					"type": "uint256[]"
				}
			],
			"name": "create_department_tproposal",
			"outputs": [],
			"stateMutability": "nonpayable",
			"type": "function"
		},
		{
			"inputs": [
				{
					"internalType": "bytes",
					"name": "name",
					"type": "bytes"
				},
				{
					"internalType": "uint8",
					"name": "lifespan",
					"type": "uint8"
				}
			],
			"name": "create_governance_proposal",
			"outputs": [],
			"stateMutability": "nonpayable",
			"type": "function"
		},
		{
			"inputs": [
				{
					"internalType": "bytes",
					"name": "name",
					"type": "bytes"
				},
				{
					"internalType": "uint8",
					"name": "lifespan",
					"type": "uint8"
				},
				{
					"internalType": "address[]",
					"name": "targets",
					"type": "address[]"
				},
				{
					"internalType": "bool",
					"name": "adding",
					"type": "bool"
				},
				{
					"internalType": "uint8[]",
					"name": "d_ids",
					"type": "uint8[]"
				}
			],
			"name": "create_management_proposal",
			"outputs": [],
			"stateMutability": "nonpayable",
			"type": "function"
		},
		{
			"inputs": [
				{
					"internalType": "bytes",
					"name": "name",
					"type": "bytes"
				},
				{
					"internalType": "uint8",
					"name": "lifespan",
					"type": "uint8"
				},
				{
					"internalType": "address",
					"name": "target",
					"type": "address"
				},
				{
					"internalType": "uint8",
					"name": "old_d_id",
					"type": "uint8"
				},
				{
					"internalType": "uint8",
					"name": "new_d_id",
					"type": "uint8"
				}
			],
			"name": "create_move_proposal",
			"outputs": [],
			"stateMutability": "nonpayable",
			"type": "function"
		},
		{
			"inputs": [
				{
					"internalType": "bytes",
					"name": "name",
					"type": "bytes"
				},
				{
					"internalType": "uint8",
					"name": "lifespan",
					"type": "uint8"
				},
				{
					"internalType": "address[]",
					"name": "targets",
					"type": "address[]"
				},
				{
					"internalType": "bytes[]",
					"name": "datas",
					"type": "bytes[]"
				},
				{
					"internalType": "uint256[]",
					"name": "values",
					"type": "uint256[]"
				}
			],
			"name": "create_transaction_proposal",
			"outputs": [],
			"stateMutability": "nonpayable",
			"type": "function"
		},
		{
			"inputs": [
				{
					"internalType": "uint256",
					"name": "d_id",
					"type": "uint256"
				},
				{
					"internalType": "uint16",
					"name": "p_id",
					"type": "uint16"
				}
			],
			"name": "department_vote",
			"outputs": [],
			"stateMutability": "nonpayable",
			"type": "function"
		},
		{
			"inputs": [],
			"name": "deposit",
			"outputs": [],
			"stateMutability": "payable",
			"type": "function"
		},
		{
			"inputs": [
				{
					"internalType": "uint16",
					"name": "id",
					"type": "uint16"
				}
			],
			"name": "execute",
			"outputs": [],
			"stateMutability": "nonpayable",
			"type": "function"
		},
		{
			"inputs": [
				{
					"internalType": "uint256",
					"name": "d_id",
					"type": "uint256"
				},
				{
					"internalType": "uint16",
					"name": "p_id",
					"type": "uint16"
				}
			],
			"name": "execute_department_proposal",
			"outputs": [],
			"stateMutability": "nonpayable",
			"type": "function"
		},
		{
			"inputs": [
				{
					"internalType": "uint256",
					"name": "d_id",
					"type": "uint256"
				}
			],
			"name": "get_department_info",
			"outputs": [
				{
					"internalType": "bytes32",
					"name": "",
					"type": "bytes32"
				},
				{
					"internalType": "address[]",
					"name": "",
					"type": "address[]"
				}
			],
			"stateMutability": "view",
			"type": "function"
		},
		{
			"inputs": [
				{
					"internalType": "uint256",
					"name": "d_id",
					"type": "uint256"
				},
				{
					"internalType": "uint16",
					"name": "p_id",
					"type": "uint16"
				}
			],
			"name": "get_department_proposal",
			"outputs": [
				{
					"components": [
						{
							"components": [
								{
									"internalType": "bytes",
									"name": "name",
									"type": "bytes"
								},
								{
									"internalType": "uint8",
									"name": "lifespan",
									"type": "uint8"
								},
								{
									"internalType": "uint16",
									"name": "id",
									"type": "uint16"
								},
								{
									"internalType": "uint256",
									"name": "timestamp",
									"type": "uint256"
								},
								{
									"internalType": "uint256",
									"name": "votes",
									"type": "uint256"
								},
								{
									"internalType": "address[]",
									"name": "voters",
									"type": "address[]"
								}
							],
							"internalType": "struct ProposalManager.PBase",
							"name": "base",
							"type": "tuple"
						},
						{
							"internalType": "address[]",
							"name": "targets",
							"type": "address[]"
						},
						{
							"internalType": "bytes[]",
							"name": "datas",
							"type": "bytes[]"
						},
						{
							"internalType": "uint256[]",
							"name": "values",
							"type": "uint256[]"
						}
					],
					"internalType": "struct ProposalManager.MultiTransactionProposal",
					"name": "",
					"type": "tuple"
				},
				{
					"components": [
						{
							"components": [
								{
									"internalType": "bytes",
									"name": "name",
									"type": "bytes"
								},
								{
									"internalType": "uint8",
									"name": "lifespan",
									"type": "uint8"
								},
								{
									"internalType": "uint16",
									"name": "id",
									"type": "uint16"
								},
								{
									"internalType": "uint256",
									"name": "timestamp",
									"type": "uint256"
								},
								{
									"internalType": "uint256",
									"name": "votes",
									"type": "uint256"
								},
								{
									"internalType": "address[]",
									"name": "voters",
									"type": "address[]"
								}
							],
							"internalType": "struct ProposalManager.PBase",
							"name": "base",
							"type": "tuple"
						},
						{
							"internalType": "uint256",
							"name": "amount",
							"type": "uint256"
						}
					],
					"internalType": "struct ProposalManager.DistributionProposal",
					"name": "",
					"type": "tuple"
				}
			],
			"stateMutability": "view",
			"type": "function"
		},
		{
			"inputs": [
				{
					"internalType": "uint16",
					"name": "id",
					"type": "uint16"
				}
			],
			"name": "get_proposal",
			"outputs": [
				{
					"components": [
						{
							"components": [
								{
									"internalType": "bytes",
									"name": "name",
									"type": "bytes"
								},
								{
									"internalType": "uint8",
									"name": "lifespan",
									"type": "uint8"
								},
								{
									"internalType": "uint16",
									"name": "id",
									"type": "uint16"
								},
								{
									"internalType": "uint256",
									"name": "timestamp",
									"type": "uint256"
								},
								{
									"internalType": "uint256",
									"name": "votes",
									"type": "uint256"
								},
								{
									"internalType": "address[]",
									"name": "voters",
									"type": "address[]"
								}
							],
							"internalType": "struct ProposalManager.PBase",
							"name": "base",
							"type": "tuple"
						},
						{
							"internalType": "address[]",
							"name": "targets",
							"type": "address[]"
						},
						{
							"internalType": "bytes[]",
							"name": "datas",
							"type": "bytes[]"
						},
						{
							"internalType": "uint256[]",
							"name": "values",
							"type": "uint256[]"
						}
					],
					"internalType": "struct ProposalManager.MultiTransactionProposal",
					"name": "",
					"type": "tuple"
				},
				{
					"components": [
						{
							"internalType": "bytes",
							"name": "name",
							"type": "bytes"
						},
						{
							"internalType": "uint8",
							"name": "lifespan",
							"type": "uint8"
						},
						{
							"internalType": "uint16",
							"name": "id",
							"type": "uint16"
						},
						{
							"internalType": "uint256",
							"name": "timestamp",
							"type": "uint256"
						},
						{
							"internalType": "uint256",
							"name": "votes",
							"type": "uint256"
						},
						{
							"internalType": "address[]",
							"name": "voters",
							"type": "address[]"
						}
					],
					"internalType": "struct ProposalManager.PBase",
					"name": "",
					"type": "tuple"
				},
				{
					"components": [
						{
							"components": [
								{
									"internalType": "bytes",
									"name": "name",
									"type": "bytes"
								},
								{
									"internalType": "uint8",
									"name": "lifespan",
									"type": "uint8"
								},
								{
									"internalType": "uint16",
									"name": "id",
									"type": "uint16"
								},
								{
									"internalType": "uint256",
									"name": "timestamp",
									"type": "uint256"
								},
								{
									"internalType": "uint256",
									"name": "votes",
									"type": "uint256"
								},
								{
									"internalType": "address[]",
									"name": "voters",
									"type": "address[]"
								}
							],
							"internalType": "struct ProposalManager.PBase",
							"name": "base",
							"type": "tuple"
						},
						{
							"internalType": "address[]",
							"name": "targets",
							"type": "address[]"
						},
						{
							"internalType": "bool",
							"name": "adding",
							"type": "bool"
						},
						{
							"internalType": "uint8[]",
							"name": "department_ids",
							"type": "uint8[]"
						}
					],
					"internalType": "struct ProposalManager.ManagementProposal",
					"name": "",
					"type": "tuple"
				},
				{
					"components": [
						{
							"components": [
								{
									"internalType": "bytes",
									"name": "name",
									"type": "bytes"
								},
								{
									"internalType": "uint8",
									"name": "lifespan",
									"type": "uint8"
								},
								{
									"internalType": "uint16",
									"name": "id",
									"type": "uint16"
								},
								{
									"internalType": "uint256",
									"name": "timestamp",
									"type": "uint256"
								},
								{
									"internalType": "uint256",
									"name": "votes",
									"type": "uint256"
								},
								{
									"internalType": "address[]",
									"name": "voters",
									"type": "address[]"
								}
							],
							"internalType": "struct ProposalManager.PBase",
							"name": "base",
							"type": "tuple"
						},
						{
							"internalType": "address",
							"name": "target",
							"type": "address"
						},
						{
							"internalType": "uint8",
							"name": "old_department_id",
							"type": "uint8"
						},
						{
							"internalType": "uint8",
							"name": "new_department_id",
							"type": "uint8"
						}
					],
					"internalType": "struct ProposalManager.MoveProposal",
					"name": "",
					"type": "tuple"
				}
			],
			"stateMutability": "view",
			"type": "function"
		},
		{
			"inputs": [
				{
					"internalType": "address",
					"name": "",
					"type": "address"
				},
				{
					"internalType": "address",
					"name": "",
					"type": "address"
				},
				{
					"internalType": "uint256[]",
					"name": "",
					"type": "uint256[]"
				},
				{
					"internalType": "uint256[]",
					"name": "",
					"type": "uint256[]"
				},
				{
					"internalType": "bytes",
					"name": "",
					"type": "bytes"
				}
			],
			"name": "onERC1155BatchReceived",
			"outputs": [
				{
					"internalType": "bytes4",
					"name": "",
					"type": "bytes4"
				}
			],
			"stateMutability": "nonpayable",
			"type": "function"
		},
		{
			"inputs": [
				{
					"internalType": "address",
					"name": "",
					"type": "address"
				},
				{
					"internalType": "address",
					"name": "",
					"type": "address"
				},
				{
					"internalType": "uint256",
					"name": "",
					"type": "uint256"
				},
				{
					"internalType": "uint256",
					"name": "",
					"type": "uint256"
				},
				{
					"internalType": "bytes",
					"name": "",
					"type": "bytes"
				}
			],
			"name": "onERC1155Received",
			"outputs": [
				{
					"internalType": "bytes4",
					"name": "",
					"type": "bytes4"
				}
			],
			"stateMutability": "nonpayable",
			"type": "function"
		},
		{
			"inputs": [
				{
					"internalType": "uint256",
					"name": "d_id",
					"type": "uint256"
				},
				{
					"internalType": "uint16",
					"name": "p_id",
					"type": "uint16"
				}
			],
			"name": "remove_department_proposal",
			"outputs": [],
			"stateMutability": "nonpayable",
			"type": "function"
		},
		{
			"inputs": [
				{
					"internalType": "uint16",
					"name": "id",
					"type": "uint16"
				}
			],
			"name": "remove_proposal",
			"outputs": [
				{
					"internalType": "bool",
					"name": "",
					"type": "bool"
				}
			],
			"stateMutability": "nonpayable",
			"type": "function"
		},
		{
			"inputs": [
				{
					"internalType": "bytes4",
					"name": "interfaceId",
					"type": "bytes4"
				}
			],
			"name": "supportsInterface",
			"outputs": [
				{
					"internalType": "bool",
					"name": "",
					"type": "bool"
				}
			],
			"stateMutability": "view",
			"type": "function"
		},
		{
			"inputs": [
				{
					"internalType": "uint16",
					"name": "id",
					"type": "uint16"
				}
			],
			"name": "vote",
			"outputs": [],
			"stateMutability": "nonpayable",
			"type": "function"
		},
		{
			"stateMutability": "payable",
			"type": "receive"
		}
	]
}