{
	"data": {
		"bytecode": {
			"linkReferences": {},
			"object": "60806040526000805461ffff1916600117905534801561001e57600080fd5b50612b798061002e6000396000f3fe6080604052600436106100e15760003560e01c806398ba1d461161007f578063d0e30db011610059578063d0e30db0146102ab578063d537b060146102b3578063ddb6e116146102d3578063f23a6e61146102f357600080fd5b806398ba1d461461022b578063bc197c8114610246578063c696709c1461028b57600080fd5b8063267044e5116100bb578063267044e5146101995780633e08602c146101c957806348eccc2c146101eb57806349041d3e1461020b57600080fd5b806301ffc9a7146101225780631279a37414610157578063252e504c1461017957600080fd5b3661011d5760405134815233907f66ff7c8f71ccc7c36152a41920d0d3b46ef3034359f76aa1498ed4478c204b5c9060200160405180910390a2005b600080fd5b34801561012e57600080fd5b5061014261013d36600461228a565b61031f565b60405190151581526020015b60405180910390f35b34801561016357600080fd5b506101776101723660046122b2565b610356565b005b34801561018557600080fd5b5061014261019436600461223e565b6104c2565b3480156101a557600080fd5b506101b96101b43660046125a6565b610536565b60405161014e94939291906128a0565b3480156101d557600080fd5b506101de610d5f565b60405161014e919061285c565b3480156101f757600080fd5b50610177610206366004612499565b610db6565b34801561021757600080fd5b50610177610226366004612373565b610f94565b34801561023757600080fd5b5060405147815260200161014e565b34801561025257600080fd5b50610272610261366004612135565b63bc197c8160e01b95945050505050565b6040516001600160e01b0319909116815260200161014e565b34801561029757600080fd5b506101776102a63660046122f5565b6110d6565b61017761123c565b3480156102bf57600080fd5b506101426102ce3660046125a6565b611273565b3480156102df57600080fd5b506101776102ee3660046125a6565b61173f565b3480156102ff57600080fd5b5061027261030e3660046121db565b63f23a6e6160e01b95945050505050565b60006001600160e01b03198216630271189760e51b148061035057506301ffc9a760e01b6001600160e01b03198316145b92915050565b33610362600182611c07565b61036b57600080fd5b6040805160c08101825284815260ff84166020808301919091526000805461ffff16838501819052426060858101919091526080850183905260a08501819052908252600483529390208251805191926103ca92849290910190611c2c565b50602082810151600183018054604086015161ffff166101000262ffffff1990911660ff90931692909217919091179055606083015160028301556080830151600383015560a083015180516104269260048501920190611cb0565b50506000805461ffff1691508061043c83612aba565b82546101009290920a61ffff818102199093169183160217909155600054610468925060019116612a1b565b61ffff168460405161047a91906127a5565b6040805191829003822060ff87168352426020840152917ffb07f0b6a495000a76b84fe72725aefa5d6b75fa4c4018f95c244048d02ba134910160405180910390a350505050565b6000805b835181101561052c57826001600160a01b03168482815181106104f957634e487b7160e01b600052603260045260246000fd5b60200260200101516001600160a01b0316141561051a576000915050610350565b8061052481612adc565b9150506104c6565b5060019392505050565b61053e611d05565b610546611d33565b61054e611d70565b610556611d9c565b61ffff8516600090815260036020908152604080832060048352818420600584528285206006909452938290208251610140810190935281549194939290918590829060808201908390829082906105ad90612a85565b80601f01602080910402602001604051908101604052809291908181526020018280546105d990612a85565b80156106265780601f106105fb57610100808354040283529160200191610626565b820191906000526020600020905b81548152906001019060200180831161060957829003601f168201915b5050509183525050600182015460ff811660208084019190915261010090910461ffff16604080840191909152600284015460608401526003840154608084015260048401805482518185028101850190935280835260a09094019391929091908301828280156106c057602002820191906000526020600020905b81546001600160a01b031681526001909101906020018083116106a2575b50505050508152505081526020016005820180548060200260200160405190810160405280929190818152602001828054801561072657602002820191906000526020600020905b81546001600160a01b03168152600190910190602001808311610708575b5050505050815260200160068201805480602002602001604051908101604052809291908181526020016000905b8282101561080057838290600052602060002001805461077390612a85565b80601f016020809104026020016040519081016040528092919081815260200182805461079f90612a85565b80156107ec5780601f106107c1576101008083540402835291602001916107ec565b820191906000526020600020905b8154815290600101906020018083116107cf57829003601f168201915b505050505081526020019060010190610754565b5050505081526020016007820180548060200260200160405190810160405280929190818152602001828054801561085757602002820191906000526020600020905b815481526020019060010190808311610843575b5050505050815250509350826040518060c001604052908160008201805461087e90612a85565b80601f01602080910402602001604051908101604052809291908181526020018280546108aa90612a85565b80156108f75780601f106108cc576101008083540402835291602001916108f7565b820191906000526020600020905b8154815290600101906020018083116108da57829003601f168201915b5050509183525050600182015460ff811660208084019190915261010090910461ffff16604080840191909152600284015460608401526003840154608084015260048401805482518185028101850190935280835260a090940193919290919083018282801561099157602002820191906000526020600020905b81546001600160a01b03168152600190910190602001808311610973575b505050505081525050925081604051806080016040529081600082016040518060c00160405290816000820180546109c890612a85565b80601f01602080910402602001604051908101604052809291908181526020018280546109f490612a85565b8015610a415780601f10610a1657610100808354040283529160200191610a41565b820191906000526020600020905b815481529060010190602001808311610a2457829003601f168201915b5050509183525050600182015460ff811660208084019190915261010090910461ffff16604080840191909152600284015460608401526003840154608084015260048401805482518185028101850190935280835260a0909401939192909190830182828015610adb57602002820191906000526020600020905b81546001600160a01b03168152600190910190602001808311610abd575b505050505081525050815260200160058201805480602002602001604051908101604052809291908181526020018280548015610b4157602002820191906000526020600020905b81546001600160a01b03168152600190910190602001808311610b23575b5050509183525050600682015460ff1615156020808301919091526007830180546040805182850281018501825282815294019392830182828015610bc357602002820191906000526020600020906000905b825461010083900a900460ff16815260206001928301818104948501949093039092029101808411610b945790505b505050505081525050915080604051806080016040529081600082016040518060c0016040529081600082018054610bfa90612a85565b80601f0160208091040260200160405190810160405280929190818152602001828054610c2690612a85565b8015610c735780601f10610c4857610100808354040283529160200191610c73565b820191906000526020600020905b815481529060010190602001808311610c5657829003601f168201915b5050509183525050600182015460ff811660208084019190915261010090910461ffff16604080840191909152600284015460608401526003840154608084015260048401805482518185028101850190935280835260a0909401939192909190830182828015610d0d57602002820191906000526020600020905b81546001600160a01b03168152600190910190602001808311610cef575b505050919092525050508152600591909101546001600160a01b038116602083015260ff600160a01b820481166040840152600160a81b90910416606090910152939992985090965091945092505050565b600180546040805160208084028201810190925282815260609390929091830182828015610dac57602002820191906000526020600020905b815481526020019060010190808311610d98575b5050505050905090565b33610dc2600182611c07565b610dcb57600080fd5b60408051610140810182526080810188815260ff881660a08301526000805461ffff1660c084018190524260e085015261010084018290526060610120850181905292845260208085018a905288151585870152848401889052908252600581529390208251805180519395929391928492610e4a9284920190611c2c565b50602082810151600183018054604086015161ffff166101000262ffffff1990911660ff90931692909217919091179055606083015160028301556080830151600383015560a08301518051610ea69260048501920190611cb0565b5050506020828101518051610ec19260058501920190611cb0565b50604082015160068201805460ff191691151591909117905560608201518051610ef5916007840191602090910190611dca565b50506000805461ffff16915080610f0b83612aba565b82546101009290920a61ffff818102199093169183160217909155600054610f37925060019116612a1b565b61ffff1687604051610f4991906127a5565b6040805191829003822060ff8a168352426020840152917ffb07f0b6a495000a76b84fe72725aefa5d6b75fa4c4018f95c244048d02ba134910160405180910390a350505050505050565b33610fa0600182611c07565b610fa957600080fd5b60408051610140810182526080810188815260ff881660a08301526000805461ffff1660c084018190524260e085015261010084018290526060610120850181905292845260208085018a90528486018990528484018890529082526003815293902082518051805193959293919284926110279284920190611c2c565b50602082810151600183018054604086015161ffff166101000262ffffff1990911660ff90931692909217919091179055606083015160028301556080830151600383015560a083015180516110839260048501920190611cb0565b505050602082810151805161109e9260058501920190611cb0565b50604082015180516110ba916006840191602090910190611e6b565b5060608201518051610ef5916007840191602090910190611ec4565b336110e2600182611c07565b6110eb57600080fd5b60408051610140810182526080810188815260ff80891660a08401526000805461ffff1660c085018190524260e08601526101008501829052606061012086018190529385526001600160a01b038a1660208087019190915289841686880152928816858501528152600682529390932082518051805193959293919284926111779284920190611c2c565b50602082810151600183018054604086015161ffff166101000262ffffff1990911660ff90931692909217919091179055606083015160028301556080830151600383015560a083015180516111d39260048501920190611cb0565b5050506020820151600591909101805460408401516060909401516001600160a01b039093166001600160a81b031990911617600160a01b60ff948516021760ff60a81b1916600160a81b93909216929092021790556000805461ffff169080610f0b83612aba565b60405134815233907f66ff7c8f71ccc7c36152a41920d0d3b46ef3034359f76aa1498ed4478c204b5c9060200160405180910390a2565b600033611281600182611c07565b61128a57600080fd5b61ffff80841660009081526003602052604090206001015461010090041615801590611305575061ffff83166000908152600360205260409020600101546112d89060ff16620151806129f0565b61ffff841660009081526003602052604090206002015462ffffff91909116906113029042612a3e565b10155b156113cd5761ffff831660008181526003602052604090819020905161132b91906127c1565b60405190819003812090600080516020612b2483398151915290600090a361ffff831660009081526003602052604081209081816113698282611efe565b60018201805462ffffff1916905560006002830181905560038301819055611395906004840190611f3b565b506113a69050600583016000611f3b565b6113b4600683016000611f59565b6113c2600783016000611f3b565b505060019150611739565b61ffff80841660009081526004602052604090206001015461010090041615801590611448575061ffff831660009081526004602052604090206001015461141b9060ff16620151806129f0565b61ffff841660009081526004602052604090206002015462ffffff91909116906114459042612a3e565b10155b156114d65761ffff831660008181526003602052604090819020905161146e91906127c1565b60405190819003812090600080516020612b2483398151915290600090a361ffff83166000908152600460205260408120906114aa8282611efe565b60018201805462ffffff19169055600060028301819055600383018190556113c2906004840190611f3b565b61ffff80841660009081526005602052604090206001015461010090041615801590611551575061ffff83166000908152600560205260409020600101546115249060ff16620151806129f0565b61ffff841660009081526005602052604090206002015462ffffff919091169061154e9042612a3e565b10155b1561160c5761ffff831660008181526003602052604090819020905161157791906127c1565b60405190819003812090600080516020612b2483398151915290600090a361ffff831660009081526005602052604081209081816115b58282611efe565b60018201805462ffffff19169055600060028301819055600383018190556115e1906004840190611f3b565b506115f29050600583016000611f3b565b60068201805460ff191690556113c2600783016000611f77565b61ffff80841660009081526006602052604090206001015461010090041615801590611687575061ffff831660009081526006602052604090206001015461165a9060ff16620151806129f0565b61ffff841660009081526006602052604090206002015462ffffff91909116906116849042612a3e565b10155b156117345761ffff83166000818152600360205260409081902090516116ad91906127c1565b60405190819003812090600080516020612b2483398151915290600090a361ffff831660009081526006602052604081209081816116eb8282611efe565b60018201805462ffffff1916905560006002830181905560038301819055611717906004840190611f3b565b50505060050180546001600160b01b031916905560019150611739565b600091505b50919050565b3361174b600182611c07565b61175457600080fd5b61ffff808316600090815260036020526040902060010154339161010090910416156118a95761ffff831660009081526003602090815260409182902060040180548351818402810184019094528084526117ee93928301828280156117e357602002820191906000526020600020905b81546001600160a01b031681526001909101906020018083116117c5575b5050505050826104c2565b156118a45761ffff8316600090815260036020819052604082200180549161181583612adc565b909155505061ffff8316600081815260036020908152604080832060048101805460018101825590855292842090920180546001600160a01b0319166001600160a01b038716908117909155928490525191929161187391906127c1565b604051908190038120907f96aff3db4ff7dbe7dd5d88fadbcc5c5f7fe5eb97cd711500d046a737b9c08cf990600090a45b505050565b61ffff808416600090815260046020526040902060010154610100900416156119c95761ffff8316600090815260046020818152604092839020909101805483518184028101840190945280845261193e93928301828280156117e3576020028201919060005260206000209081546001600160a01b031681526001909101906020018083116117c5575050505050826104c2565b156118a45761ffff8316600090815260046020526040812060030180549161196583612adc565b909155505061ffff8316600081815260046020818152604080842090920180546001810182559084528184200180546001600160a01b0319166001600160a01b038716908117909155848452600390915291819020905191929161187391906127c1565b61ffff80841660009081526005602052604090206001015461010090041615611ae85761ffff83166000908152600560209081526040918290206004018054835181840281018401909452808452611a5e93928301828280156117e3576020028201919060005260206000209081546001600160a01b031681526001909101906020018083116117c5575050505050826104c2565b156118a45761ffff83166000908152600560205260408120600301805491611a8583612adc565b909155505061ffff8316600081815260056020908152604080832060040180546001810182559084528284200180546001600160a01b0319166001600160a01b0387169081179091558484526003909252918290209151909291611873916127c1565b61ffff808416600090815260066020526040902060010154610100900416156118a45761ffff83166000908152600660209081526040918290206004018054835181840281018401909452808452611b7d93928301828280156117e3576020028201919060005260206000209081546001600160a01b031681526001909101906020018083116117c5575050505050826104c2565b156118a45761ffff83166000908152600660205260408120600301805491611ba483612adc565b909155505061ffff8316600081815260066020908152604080832060040180546001810182559084528284200180546001600160a01b0319166001600160a01b0387169081179091558484526003909252918290209151909291611873916127c1565b6001600160a01b038116600090815260018301602052604081205415155b9392505050565b828054611c3890612a85565b90600052602060002090601f016020900481019282611c5a5760008555611ca0565b82601f10611c7357805160ff1916838001178555611ca0565b82800160010185558215611ca0579182015b82811115611ca0578251825591602001919060010190611c85565b50611cac929150611f98565b5090565b828054828255906000526020600020908101928215611ca0579160200282015b82811115611ca057825182546001600160a01b0319166001600160a01b03909116178255602090920191600190910190611cd0565b6040518060800160405280611d18611d33565b81526020016060815260200160608152602001606081525090565b6040518060c0016040528060608152602001600060ff168152602001600061ffff1681526020016000815260200160008152602001606081525090565b6040518060800160405280611d83611d33565b8152606060208201819052600060408301529081015290565b6040518060800160405280611daf611d33565b81526000602082018190526040820181905260609091015290565b82805482825590600052602060002090601f01602090048101928215611ca05791602002820160005b83821115611e3157835183826101000a81548160ff021916908360ff1602179055509260200192600101602081600001049283019260010302611df3565b8015611e5e5782816101000a81549060ff0219169055600101602081600001049283019260010302611e31565b5050611cac929150611f98565b828054828255906000526020600020908101928215611eb8579160200282015b82811115611eb85782518051611ea8918491602090910190611c2c565b5091602001919060010190611e8b565b50611cac929150611fad565b828054828255906000526020600020908101928215611ca05791602002820182811115611ca0578251825591602001919060010190611c85565b508054611f0a90612a85565b6000825580601f10611f1a575050565b601f016020900490600052602060002090810190611f389190611f98565b50565b5080546000825590600052602060002090810190611f389190611f98565b5080546000825590600052602060002090810190611f389190611fad565b50805460008255601f016020900490600052602060002090810190611f3891905b5b80821115611cac5760008155600101611f99565b80821115611cac576000611fc18282611efe565b50600101611fad565b80356001600160a01b0381168114611fe157600080fd5b919050565b600082601f830112611ff6578081fd5b8135602061200b612006836129cc565b61299b565b80838252828201915082860187848660051b890101111561202a578586fd5b855b8581101561204f5761203d82611fca565b8452928401929084019060010161202c565b5090979650505050505050565b600082601f83011261206c578081fd5b8135602061207c612006836129cc565b80838252828201915082860187848660051b890101111561209b578586fd5b855b8581101561204f5781358452928401929084019060010161209d565b600082601f8301126120c9578081fd5b813567ffffffffffffffff8111156120e3576120e3612b0d565b6120f6601f8201601f191660200161299b565b81815284602083860101111561210a578283fd5b816020850160208301379081016020019190915292915050565b803560ff81168114611fe157600080fd5b600080600080600060a0868803121561214c578081fd5b61215586611fca565b945061216360208701611fca565b9350604086013567ffffffffffffffff8082111561217f578283fd5b61218b89838a0161205c565b945060608801359150808211156121a0578283fd5b6121ac89838a0161205c565b935060808801359150808211156121c1578283fd5b506121ce888289016120b9565b9150509295509295909350565b600080600080600060a086880312156121f2578081fd5b6121fb86611fca565b945061220960208701611fca565b93506040860135925060608601359150608086013567ffffffffffffffff811115612232578182fd5b6121ce888289016120b9565b60008060408385031215612250578182fd5b823567ffffffffffffffff811115612266578283fd5b61227285828601611fe6565b92505061228160208401611fca565b90509250929050565b60006020828403121561229b578081fd5b81356001600160e01b031981168114611c25578182fd5b600080604083850312156122c4578182fd5b823567ffffffffffffffff8111156122da578283fd5b6122e6858286016120b9565b92505061228160208401612124565b600080600080600060a0868803121561230c578283fd5b853567ffffffffffffffff811115612322578384fd5b61232e888289016120b9565b95505061233d60208701612124565b935061234b60408701611fca565b925061235960608701612124565b915061236760808701612124565b90509295509295909350565b600080600080600060a0868803121561238a578283fd5b67ffffffffffffffff80873511156123a0578384fd5b6123ad88883589016120b9565b955060206123bc818901612124565b95506040880135828111156123cf578586fd5b6123db8a828b01611fe6565b9550506060880135828111156123ef578384fd5b8801601f81018a136123ff578384fd5b803561240d612006826129cc565b8082825284820191508484018d868560051b870101111561242c578788fd5b875b84811015612464578782351115612443578889fd5b6124528f8884358901016120b9565b8452928601929086019060010161242e565b5050809750505050505060808701358181111561247f578283fd5b61248b89828a0161205c565b925050509295509295909350565b600080600080600060a086880312156124b0578283fd5b853567ffffffffffffffff808211156124c7578485fd5b6124d389838a016120b9565b9650602091506124e4828901612124565b95506040880135818111156124f7578586fd5b6125038a828b01611fe6565b95505060608801358015158114612518578384fd5b935060808801358181111561252b578384fd5b88019050601f8101891361253d578283fd5b803561254b612006826129cc565b8082825284820191508484018c868560051b870101111561256a578687fd5b8694505b838510156125935761257f81612124565b83526001949094019391850191850161256e565b5080955050505050509295509295909350565b6000602082840312156125b7578081fd5b813561ffff81168114611c25578182fd5b6000815180845260208085019450808401835b838110156126005781516001600160a01b0316875295820195908201906001016125db565b509495945050505050565b6000815180845260208085019450808401835b838110156126005781518752958201959082019060010161261e565b60008151808452612652816020860160208601612a55565b601f01601f19169290920160200192915050565b600081516080845261267b608085018261273f565b90506020808401518583038287015261269483826125c8565b92505060408401511515604086015260608401518583036060870152828151808552838501915083830194508592505b808310156126e757845160ff1682529383019360019290920191908301906126c4565b509695505050505050565b6000815160808452612707608085018261273f565b905060018060a01b03602084015116602085015260ff604084015116604085015260ff60608401511660608501528091505092915050565b6000815160c0845261275460c085018261263a565b905060ff602084015116602085015261ffff6040840151166040850152606083015160608501526080830151608085015260a083015184820360a086015261279c82826125c8565b95945050505050565b600082516127b7818460208701612a55565b9190910192915050565b600080835482600182811c9150808316806127dd57607f831692505b60208084108214156127fd57634e487b7160e01b87526022600452602487fd5b81801561281157600181146128225761284e565b60ff1986168952848901965061284e565b60008a815260209020885b868110156128465781548b82015290850190830161282d565b505084890196505b509498975050505050505050565b6020808252825182820181905260009190848201906040850190845b8181101561289457835183529284019291840191600101612878565b50909695505050505050565b60808152600085516080808401526128bc61010084018261273f565b9050602080880151607f19808685030160a08701526128db84836125c8565b60408b0151878203830160c089015280518083529195508401925083850190600581901b86018501875b8281101561293357601f1988830301845261292182875161263a565b95870195938701939150600101612905565b5060608d01519650838982030160e08a015261294f818861260b565b965050505050508382038185015250612968818761273f565b9050828103604084015261297c8186612666565b9050828103606084015261299081856126f2565b979650505050505050565b604051601f8201601f1916810167ffffffffffffffff811182821017156129c4576129c4612b0d565b604052919050565b600067ffffffffffffffff8211156129e6576129e6612b0d565b5060051b60200190565b600062ffffff80831681851681830481118215151615612a1257612a12612af7565b02949350505050565b600061ffff83811690831681811015612a3657612a36612af7565b039392505050565b600082821015612a5057612a50612af7565b500390565b60005b83811015612a70578181015183820152602001612a58565b83811115612a7f576000848401525b50505050565b600181811c90821680612a9957607f821691505b6020821081141561173957634e487b7160e01b600052602260045260246000fd5b600061ffff80831681811415612ad257612ad2612af7565b6001019392505050565b6000600019821415612af057612af0612af7565b5060010190565b634e487b7160e01b600052601160045260246000fd5b634e487b7160e01b600052604160045260246000fdfee3b80df9e89df04cf349bc0ed35da62b9edc408708393382577b14c234a082d6a2646970667358221220eee779adaf16d95fdcbd9b24ac64e154fa764a16a4781142cc1bd3e76755e2c164736f6c63430008040033",
			"opcodes": "PUSH1 0x80 PUSH1 0x40 MSTORE PUSH1 0x0 DUP1 SLOAD PUSH2 0xFFFF NOT AND PUSH1 0x1 OR SWAP1 SSTORE CALLVALUE DUP1 ISZERO PUSH2 0x1E JUMPI PUSH1 0x0 DUP1 REVERT JUMPDEST POP PUSH2 0x2B79 DUP1 PUSH2 0x2E PUSH1 0x0 CODECOPY PUSH1 0x0 RETURN INVALID PUSH1 0x80 PUSH1 0x40 MSTORE PUSH1 0x4 CALLDATASIZE LT PUSH2 0xE1 JUMPI PUSH1 0x0 CALLDATALOAD PUSH1 0xE0 SHR DUP1 PUSH4 0x98BA1D46 GT PUSH2 0x7F JUMPI DUP1 PUSH4 0xD0E30DB0 GT PUSH2 0x59 JUMPI DUP1 PUSH4 0xD0E30DB0 EQ PUSH2 0x2AB JUMPI DUP1 PUSH4 0xD537B060 EQ PUSH2 0x2B3 JUMPI DUP1 PUSH4 0xDDB6E116 EQ PUSH2 0x2D3 JUMPI DUP1 PUSH4 0xF23A6E61 EQ PUSH2 0x2F3 JUMPI PUSH1 0x0 DUP1 REVERT JUMPDEST DUP1 PUSH4 0x98BA1D46 EQ PUSH2 0x22B JUMPI DUP1 PUSH4 0xBC197C81 EQ PUSH2 0x246 JUMPI DUP1 PUSH4 0xC696709C EQ PUSH2 0x28B JUMPI PUSH1 0x0 DUP1 REVERT JUMPDEST DUP1 PUSH4 0x267044E5 GT PUSH2 0xBB JUMPI DUP1 PUSH4 0x267044E5 EQ PUSH2 0x199 JUMPI DUP1 PUSH4 0x3E08602C EQ PUSH2 0x1C9 JUMPI DUP1 PUSH4 0x48ECCC2C EQ PUSH2 0x1EB JUMPI DUP1 PUSH4 0x49041D3E EQ PUSH2 0x20B JUMPI PUSH1 0x0 DUP1 REVERT JUMPDEST DUP1 PUSH4 0x1FFC9A7 EQ PUSH2 0x122 JUMPI DUP1 PUSH4 0x1279A374 EQ PUSH2 0x157 JUMPI DUP1 PUSH4 0x252E504C EQ PUSH2 0x179 JUMPI PUSH1 0x0 DUP1 REVERT JUMPDEST CALLDATASIZE PUSH2 0x11D JUMPI PUSH1 0x40 MLOAD CALLVALUE DUP2 MSTORE CALLER SWAP1 PUSH32 0x66FF7C8F71CCC7C36152A41920D0D3B46EF3034359F76AA1498ED4478C204B5C SWAP1 PUSH1 0x20 ADD PUSH1 0x40 MLOAD DUP1 SWAP2 SUB SWAP1 LOG2 STOP JUMPDEST PUSH1 0x0 DUP1 REVERT JUMPDEST CALLVALUE DUP1 ISZERO PUSH2 0x12E JUMPI PUSH1 0x0 DUP1 REVERT JUMPDEST POP PUSH2 0x142 PUSH2 0x13D CALLDATASIZE PUSH1 0x4 PUSH2 0x228A JUMP JUMPDEST PUSH2 0x31F JUMP JUMPDEST PUSH1 0x40 MLOAD SWAP1 ISZERO ISZERO DUP2 MSTORE PUSH1 0x20 ADD JUMPDEST PUSH1 0x40 MLOAD DUP1 SWAP2 SUB SWAP1 RETURN JUMPDEST CALLVALUE DUP1 ISZERO PUSH2 0x163 JUMPI PUSH1 0x0 DUP1 REVERT JUMPDEST POP PUSH2 0x177 PUSH2 0x172 CALLDATASIZE PUSH1 0x4 PUSH2 0x22B2 JUMP JUMPDEST PUSH2 0x356 JUMP JUMPDEST STOP JUMPDEST CALLVALUE DUP1 ISZERO PUSH2 0x185 JUMPI PUSH1 0x0 DUP1 REVERT JUMPDEST POP PUSH2 0x142 PUSH2 0x194 CALLDATASIZE PUSH1 0x4 PUSH2 0x223E JUMP JUMPDEST PUSH2 0x4C2 JUMP JUMPDEST CALLVALUE DUP1 ISZERO PUSH2 0x1A5 JUMPI PUSH1 0x0 DUP1 REVERT JUMPDEST POP PUSH2 0x1B9 PUSH2 0x1B4 CALLDATASIZE PUSH1 0x4 PUSH2 0x25A6 JUMP JUMPDEST PUSH2 0x536 JUMP JUMPDEST PUSH1 0x40 MLOAD PUSH2 0x14E SWAP5 SWAP4 SWAP3 SWAP2 SWAP1 PUSH2 0x28A0 JUMP JUMPDEST CALLVALUE DUP1 ISZERO PUSH2 0x1D5 JUMPI PUSH1 0x0 DUP1 REVERT JUMPDEST POP PUSH2 0x1DE PUSH2 0xD5F JUMP JUMPDEST PUSH1 0x40 MLOAD PUSH2 0x14E SWAP2 SWAP1 PUSH2 0x285C JUMP JUMPDEST CALLVALUE DUP1 ISZERO PUSH2 0x1F7 JUMPI PUSH1 0x0 DUP1 REVERT JUMPDEST POP PUSH2 0x177 PUSH2 0x206 CALLDATASIZE PUSH1 0x4 PUSH2 0x2499 JUMP JUMPDEST PUSH2 0xDB6 JUMP JUMPDEST CALLVALUE DUP1 ISZERO PUSH2 0x217 JUMPI PUSH1 0x0 DUP1 REVERT JUMPDEST POP PUSH2 0x177 PUSH2 0x226 CALLDATASIZE PUSH1 0x4 PUSH2 0x2373 JUMP JUMPDEST PUSH2 0xF94 JUMP JUMPDEST CALLVALUE DUP1 ISZERO PUSH2 0x237 JUMPI PUSH1 0x0 DUP1 REVERT JUMPDEST POP PUSH1 0x40 MLOAD SELFBALANCE DUP2 MSTORE PUSH1 0x20 ADD PUSH2 0x14E JUMP JUMPDEST CALLVALUE DUP1 ISZERO PUSH2 0x252 JUMPI PUSH1 0x0 DUP1 REVERT JUMPDEST POP PUSH2 0x272 PUSH2 0x261 CALLDATASIZE PUSH1 0x4 PUSH2 0x2135 JUMP JUMPDEST PUSH4 0xBC197C81 PUSH1 0xE0 SHL SWAP6 SWAP5 POP POP POP POP POP JUMP JUMPDEST PUSH1 0x40 MLOAD PUSH1 0x1 PUSH1 0x1 PUSH1 0xE0 SHL SUB NOT SWAP1 SWAP2 AND DUP2 MSTORE PUSH1 0x20 ADD PUSH2 0x14E JUMP JUMPDEST CALLVALUE DUP1 ISZERO PUSH2 0x297 JUMPI PUSH1 0x0 DUP1 REVERT JUMPDEST POP PUSH2 0x177 PUSH2 0x2A6 CALLDATASIZE PUSH1 0x4 PUSH2 0x22F5 JUMP JUMPDEST PUSH2 0x10D6 JUMP JUMPDEST PUSH2 0x177 PUSH2 0x123C JUMP JUMPDEST CALLVALUE DUP1 ISZERO PUSH2 0x2BF JUMPI PUSH1 0x0 DUP1 REVERT JUMPDEST POP PUSH2 0x142 PUSH2 0x2CE CALLDATASIZE PUSH1 0x4 PUSH2 0x25A6 JUMP JUMPDEST PUSH2 0x1273 JUMP JUMPDEST CALLVALUE DUP1 ISZERO PUSH2 0x2DF JUMPI PUSH1 0x0 DUP1 REVERT JUMPDEST POP PUSH2 0x177 PUSH2 0x2EE CALLDATASIZE PUSH1 0x4 PUSH2 0x25A6 JUMP JUMPDEST PUSH2 0x173F JUMP JUMPDEST CALLVALUE DUP1 ISZERO PUSH2 0x2FF JUMPI PUSH1 0x0 DUP1 REVERT JUMPDEST POP PUSH2 0x272 PUSH2 0x30E CALLDATASIZE PUSH1 0x4 PUSH2 0x21DB JUMP JUMPDEST PUSH4 0xF23A6E61 PUSH1 0xE0 SHL SWAP6 SWAP5 POP POP POP POP POP JUMP JUMPDEST PUSH1 0x0 PUSH1 0x1 PUSH1 0x1 PUSH1 0xE0 SHL SUB NOT DUP3 AND PUSH4 0x2711897 PUSH1 0xE5 SHL EQ DUP1 PUSH2 0x350 JUMPI POP PUSH4 0x1FFC9A7 PUSH1 0xE0 SHL PUSH1 0x1 PUSH1 0x1 PUSH1 0xE0 SHL SUB NOT DUP4 AND EQ JUMPDEST SWAP3 SWAP2 POP POP JUMP JUMPDEST CALLER PUSH2 0x362 PUSH1 0x1 DUP3 PUSH2 0x1C07 JUMP JUMPDEST PUSH2 0x36B JUMPI PUSH1 0x0 DUP1 REVERT JUMPDEST PUSH1 0x40 DUP1 MLOAD PUSH1 0xC0 DUP2 ADD DUP3 MSTORE DUP5 DUP2 MSTORE PUSH1 0xFF DUP5 AND PUSH1 0x20 DUP1 DUP4 ADD SWAP2 SWAP1 SWAP2 MSTORE PUSH1 0x0 DUP1 SLOAD PUSH2 0xFFFF AND DUP4 DUP6 ADD DUP2 SWAP1 MSTORE TIMESTAMP PUSH1 0x60 DUP6 DUP2 ADD SWAP2 SWAP1 SWAP2 MSTORE PUSH1 0x80 DUP6 ADD DUP4 SWAP1 MSTORE PUSH1 0xA0 DUP6 ADD DUP2 SWAP1 MSTORE SWAP1 DUP3 MSTORE PUSH1 0x4 DUP4 MSTORE SWAP4 SWAP1 KECCAK256 DUP3 MLOAD DUP1 MLOAD SWAP2 SWAP3 PUSH2 0x3CA SWAP3 DUP5 SWAP3 SWAP1 SWAP2 ADD SWAP1 PUSH2 0x1C2C JUMP JUMPDEST POP PUSH1 0x20 DUP3 DUP2 ADD MLOAD PUSH1 0x1 DUP4 ADD DUP1 SLOAD PUSH1 0x40 DUP7 ADD MLOAD PUSH2 0xFFFF AND PUSH2 0x100 MUL PUSH3 0xFFFFFF NOT SWAP1 SWAP2 AND PUSH1 0xFF SWAP1 SWAP4 AND SWAP3 SWAP1 SWAP3 OR SWAP2 SWAP1 SWAP2 OR SWAP1 SSTORE PUSH1 0x60 DUP4 ADD MLOAD PUSH1 0x2 DUP4 ADD SSTORE PUSH1 0x80 DUP4 ADD MLOAD PUSH1 0x3 DUP4 ADD SSTORE PUSH1 0xA0 DUP4 ADD MLOAD DUP1 MLOAD PUSH2 0x426 SWAP3 PUSH1 0x4 DUP6 ADD SWAP3 ADD SWAP1 PUSH2 0x1CB0 JUMP JUMPDEST POP POP PUSH1 0x0 DUP1 SLOAD PUSH2 0xFFFF AND SWAP2 POP DUP1 PUSH2 0x43C DUP4 PUSH2 0x2ABA JUMP JUMPDEST DUP3 SLOAD PUSH2 0x100 SWAP3 SWAP1 SWAP3 EXP PUSH2 0xFFFF DUP2 DUP2 MUL NOT SWAP1 SWAP4 AND SWAP2 DUP4 AND MUL OR SWAP1 SWAP2 SSTORE PUSH1 0x0 SLOAD PUSH2 0x468 SWAP3 POP PUSH1 0x1 SWAP2 AND PUSH2 0x2A1B JUMP JUMPDEST PUSH2 0xFFFF AND DUP5 PUSH1 0x40 MLOAD PUSH2 0x47A SWAP2 SWAP1 PUSH2 0x27A5 JUMP JUMPDEST PUSH1 0x40 DUP1 MLOAD SWAP2 DUP3 SWAP1 SUB DUP3 KECCAK256 PUSH1 0xFF DUP8 AND DUP4 MSTORE TIMESTAMP PUSH1 0x20 DUP5 ADD MSTORE SWAP2 PUSH32 0xFB07F0B6A495000A76B84FE72725AEFA5D6B75FA4C4018F95C244048D02BA134 SWAP2 ADD PUSH1 0x40 MLOAD DUP1 SWAP2 SUB SWAP1 LOG3 POP POP POP POP JUMP JUMPDEST PUSH1 0x0 DUP1 JUMPDEST DUP4 MLOAD DUP2 LT ISZERO PUSH2 0x52C JUMPI DUP3 PUSH1 0x1 PUSH1 0x1 PUSH1 0xA0 SHL SUB AND DUP5 DUP3 DUP2 MLOAD DUP2 LT PUSH2 0x4F9 JUMPI PUSH4 0x4E487B71 PUSH1 0xE0 SHL PUSH1 0x0 MSTORE PUSH1 0x32 PUSH1 0x4 MSTORE PUSH1 0x24 PUSH1 0x0 REVERT JUMPDEST PUSH1 0x20 MUL PUSH1 0x20 ADD ADD MLOAD PUSH1 0x1 PUSH1 0x1 PUSH1 0xA0 SHL SUB AND EQ ISZERO PUSH2 0x51A JUMPI PUSH1 0x0 SWAP2 POP POP PUSH2 0x350 JUMP JUMPDEST DUP1 PUSH2 0x524 DUP2 PUSH2 0x2ADC JUMP JUMPDEST SWAP2 POP POP PUSH2 0x4C6 JUMP JUMPDEST POP PUSH1 0x1 SWAP4 SWAP3 POP POP POP JUMP JUMPDEST PUSH2 0x53E PUSH2 0x1D05 JUMP JUMPDEST PUSH2 0x546 PUSH2 0x1D33 JUMP JUMPDEST PUSH2 0x54E PUSH2 0x1D70 JUMP JUMPDEST PUSH2 0x556 PUSH2 0x1D9C JUMP JUMPDEST PUSH2 0xFFFF DUP6 AND PUSH1 0x0 SWAP1 DUP2 MSTORE PUSH1 0x3 PUSH1 0x20 SWAP1 DUP2 MSTORE PUSH1 0x40 DUP1 DUP4 KECCAK256 PUSH1 0x4 DUP4 MSTORE DUP2 DUP5 KECCAK256 PUSH1 0x5 DUP5 MSTORE DUP3 DUP6 KECCAK256 PUSH1 0x6 SWAP1 SWAP5 MSTORE SWAP4 DUP3 SWAP1 KECCAK256 DUP3 MLOAD PUSH2 0x140 DUP2 ADD SWAP1 SWAP4 MSTORE DUP2 SLOAD SWAP2 SWAP5 SWAP4 SWAP3 SWAP1 SWAP2 DUP6 SWAP1 DUP3 SWAP1 PUSH1 0x80 DUP3 ADD SWAP1 DUP4 SWAP1 DUP3 SWAP1 DUP3 SWAP1 PUSH2 0x5AD SWAP1 PUSH2 0x2A85 JUMP JUMPDEST DUP1 PUSH1 0x1F ADD PUSH1 0x20 DUP1 SWAP2 DIV MUL PUSH1 0x20 ADD PUSH1 0x40 MLOAD SWAP1 DUP2 ADD PUSH1 0x40 MSTORE DUP1 SWAP3 SWAP2 SWAP1 DUP2 DUP2 MSTORE PUSH1 0x20 ADD DUP3 DUP1 SLOAD PUSH2 0x5D9 SWAP1 PUSH2 0x2A85 JUMP JUMPDEST DUP1 ISZERO PUSH2 0x626 JUMPI DUP1 PUSH1 0x1F LT PUSH2 0x5FB JUMPI PUSH2 0x100 DUP1 DUP4 SLOAD DIV MUL DUP4 MSTORE SWAP2 PUSH1 0x20 ADD SWAP2 PUSH2 0x626 JUMP JUMPDEST DUP3 ADD SWAP2 SWAP1 PUSH1 0x0 MSTORE PUSH1 0x20 PUSH1 0x0 KECCAK256 SWAP1 JUMPDEST DUP2 SLOAD DUP2 MSTORE SWAP1 PUSH1 0x1 ADD SWAP1 PUSH1 0x20 ADD DUP1 DUP4 GT PUSH2 0x609 JUMPI DUP3 SWAP1 SUB PUSH1 0x1F AND DUP3 ADD SWAP2 JUMPDEST POP POP POP SWAP2 DUP4 MSTORE POP POP PUSH1 0x1 DUP3 ADD SLOAD PUSH1 0xFF DUP2 AND PUSH1 0x20 DUP1 DUP5 ADD SWAP2 SWAP1 SWAP2 MSTORE PUSH2 0x100 SWAP1 SWAP2 DIV PUSH2 0xFFFF AND PUSH1 0x40 DUP1 DUP5 ADD SWAP2 SWAP1 SWAP2 MSTORE PUSH1 0x2 DUP5 ADD SLOAD PUSH1 0x60 DUP5 ADD MSTORE PUSH1 0x3 DUP5 ADD SLOAD PUSH1 0x80 DUP5 ADD MSTORE PUSH1 0x4 DUP5 ADD DUP1 SLOAD DUP3 MLOAD DUP2 DUP6 MUL DUP2 ADD DUP6 ADD SWAP1 SWAP4 MSTORE DUP1 DUP4 MSTORE PUSH1 0xA0 SWAP1 SWAP5 ADD SWAP4 SWAP2 SWAP3 SWAP1 SWAP2 SWAP1 DUP4 ADD DUP3 DUP3 DUP1 ISZERO PUSH2 0x6C0 JUMPI PUSH1 0x20 MUL DUP3 ADD SWAP2 SWAP1 PUSH1 0x0 MSTORE PUSH1 0x20 PUSH1 0x0 KECCAK256 SWAP1 JUMPDEST DUP2 SLOAD PUSH1 0x1 PUSH1 0x1 PUSH1 0xA0 SHL SUB AND DUP2 MSTORE PUSH1 0x1 SWAP1 SWAP2 ADD SWAP1 PUSH1 0x20 ADD DUP1 DUP4 GT PUSH2 0x6A2 JUMPI JUMPDEST POP POP POP POP POP DUP2 MSTORE POP POP DUP2 MSTORE PUSH1 0x20 ADD PUSH1 0x5 DUP3 ADD DUP1 SLOAD DUP1 PUSH1 0x20 MUL PUSH1 0x20 ADD PUSH1 0x40 MLOAD SWAP1 DUP2 ADD PUSH1 0x40 MSTORE DUP1 SWAP3 SWAP2 SWAP1 DUP2 DUP2 MSTORE PUSH1 0x20 ADD DUP3 DUP1 SLOAD DUP1 ISZERO PUSH2 0x726 JUMPI PUSH1 0x20 MUL DUP3 ADD SWAP2 SWAP1 PUSH1 0x0 MSTORE PUSH1 0x20 PUSH1 0x0 KECCAK256 SWAP1 JUMPDEST DUP2 SLOAD PUSH1 0x1 PUSH1 0x1 PUSH1 0xA0 SHL SUB AND DUP2 MSTORE PUSH1 0x1 SWAP1 SWAP2 ADD SWAP1 PUSH1 0x20 ADD DUP1 DUP4 GT PUSH2 0x708 JUMPI JUMPDEST POP POP POP POP POP DUP2 MSTORE PUSH1 0x20 ADD PUSH1 0x6 DUP3 ADD DUP1 SLOAD DUP1 PUSH1 0x20 MUL PUSH1 0x20 ADD PUSH1 0x40 MLOAD SWAP1 DUP2 ADD PUSH1 0x40 MSTORE DUP1 SWAP3 SWAP2 SWAP1 DUP2 DUP2 MSTORE PUSH1 0x20 ADD PUSH1 0x0 SWAP1 JUMPDEST DUP3 DUP3 LT ISZERO PUSH2 0x800 JUMPI DUP4 DUP3 SWAP1 PUSH1 0x0 MSTORE PUSH1 0x20 PUSH1 0x0 KECCAK256 ADD DUP1 SLOAD PUSH2 0x773 SWAP1 PUSH2 0x2A85 JUMP JUMPDEST DUP1 PUSH1 0x1F ADD PUSH1 0x20 DUP1 SWAP2 DIV MUL PUSH1 0x20 ADD PUSH1 0x40 MLOAD SWAP1 DUP2 ADD PUSH1 0x40 MSTORE DUP1 SWAP3 SWAP2 SWAP1 DUP2 DUP2 MSTORE PUSH1 0x20 ADD DUP3 DUP1 SLOAD PUSH2 0x79F SWAP1 PUSH2 0x2A85 JUMP JUMPDEST DUP1 ISZERO PUSH2 0x7EC JUMPI DUP1 PUSH1 0x1F LT PUSH2 0x7C1 JUMPI PUSH2 0x100 DUP1 DUP4 SLOAD DIV MUL DUP4 MSTORE SWAP2 PUSH1 0x20 ADD SWAP2 PUSH2 0x7EC JUMP JUMPDEST DUP3 ADD SWAP2 SWAP1 PUSH1 0x0 MSTORE PUSH1 0x20 PUSH1 0x0 KECCAK256 SWAP1 JUMPDEST DUP2 SLOAD DUP2 MSTORE SWAP1 PUSH1 0x1 ADD SWAP1 PUSH1 0x20 ADD DUP1 DUP4 GT PUSH2 0x7CF JUMPI DUP3 SWAP1 SUB PUSH1 0x1F AND DUP3 ADD SWAP2 JUMPDEST POP POP POP POP POP DUP2 MSTORE PUSH1 0x20 ADD SWAP1 PUSH1 0x1 ADD SWAP1 PUSH2 0x754 JUMP JUMPDEST POP POP POP POP DUP2 MSTORE PUSH1 0x20 ADD PUSH1 0x7 DUP3 ADD DUP1 SLOAD DUP1 PUSH1 0x20 MUL PUSH1 0x20 ADD PUSH1 0x40 MLOAD SWAP1 DUP2 ADD PUSH1 0x40 MSTORE DUP1 SWAP3 SWAP2 SWAP1 DUP2 DUP2 MSTORE PUSH1 0x20 ADD DUP3 DUP1 SLOAD DUP1 ISZERO PUSH2 0x857 JUMPI PUSH1 0x20 MUL DUP3 ADD SWAP2 SWAP1 PUSH1 0x0 MSTORE PUSH1 0x20 PUSH1 0x0 KECCAK256 SWAP1 JUMPDEST DUP2 SLOAD DUP2 MSTORE PUSH1 0x20 ADD SWAP1 PUSH1 0x1 ADD SWAP1 DUP1 DUP4 GT PUSH2 0x843 JUMPI JUMPDEST POP POP POP POP POP DUP2 MSTORE POP POP SWAP4 POP DUP3 PUSH1 0x40 MLOAD DUP1 PUSH1 0xC0 ADD PUSH1 0x40 MSTORE SWAP1 DUP2 PUSH1 0x0 DUP3 ADD DUP1 SLOAD PUSH2 0x87E SWAP1 PUSH2 0x2A85 JUMP JUMPDEST DUP1 PUSH1 0x1F ADD PUSH1 0x20 DUP1 SWAP2 DIV MUL PUSH1 0x20 ADD PUSH1 0x40 MLOAD SWAP1 DUP2 ADD PUSH1 0x40 MSTORE DUP1 SWAP3 SWAP2 SWAP1 DUP2 DUP2 MSTORE PUSH1 0x20 ADD DUP3 DUP1 SLOAD PUSH2 0x8AA SWAP1 PUSH2 0x2A85 JUMP JUMPDEST DUP1 ISZERO PUSH2 0x8F7 JUMPI DUP1 PUSH1 0x1F LT PUSH2 0x8CC JUMPI PUSH2 0x100 DUP1 DUP4 SLOAD DIV MUL DUP4 MSTORE SWAP2 PUSH1 0x20 ADD SWAP2 PUSH2 0x8F7 JUMP JUMPDEST DUP3 ADD SWAP2 SWAP1 PUSH1 0x0 MSTORE PUSH1 0x20 PUSH1 0x0 KECCAK256 SWAP1 JUMPDEST DUP2 SLOAD DUP2 MSTORE SWAP1 PUSH1 0x1 ADD SWAP1 PUSH1 0x20 ADD DUP1 DUP4 GT PUSH2 0x8DA JUMPI DUP3 SWAP1 SUB PUSH1 0x1F AND DUP3 ADD SWAP2 JUMPDEST POP POP POP SWAP2 DUP4 MSTORE POP POP PUSH1 0x1 DUP3 ADD SLOAD PUSH1 0xFF DUP2 AND PUSH1 0x20 DUP1 DUP5 ADD SWAP2 SWAP1 SWAP2 MSTORE PUSH2 0x100 SWAP1 SWAP2 DIV PUSH2 0xFFFF AND PUSH1 0x40 DUP1 DUP5 ADD SWAP2 SWAP1 SWAP2 MSTORE PUSH1 0x2 DUP5 ADD SLOAD PUSH1 0x60 DUP5 ADD MSTORE PUSH1 0x3 DUP5 ADD SLOAD PUSH1 0x80 DUP5 ADD MSTORE PUSH1 0x4 DUP5 ADD DUP1 SLOAD DUP3 MLOAD DUP2 DUP6 MUL DUP2 ADD DUP6 ADD SWAP1 SWAP4 MSTORE DUP1 DUP4 MSTORE PUSH1 0xA0 SWAP1 SWAP5 ADD SWAP4 SWAP2 SWAP3 SWAP1 SWAP2 SWAP1 DUP4 ADD DUP3 DUP3 DUP1 ISZERO PUSH2 0x991 JUMPI PUSH1 0x20 MUL DUP3 ADD SWAP2 SWAP1 PUSH1 0x0 MSTORE PUSH1 0x20 PUSH1 0x0 KECCAK256 SWAP1 JUMPDEST DUP2 SLOAD PUSH1 0x1 PUSH1 0x1 PUSH1 0xA0 SHL SUB AND DUP2 MSTORE PUSH1 0x1 SWAP1 SWAP2 ADD SWAP1 PUSH1 0x20 ADD DUP1 DUP4 GT PUSH2 0x973 JUMPI JUMPDEST POP POP POP POP POP DUP2 MSTORE POP POP SWAP3 POP DUP2 PUSH1 0x40 MLOAD DUP1 PUSH1 0x80 ADD PUSH1 0x40 MSTORE SWAP1 DUP2 PUSH1 0x0 DUP3 ADD PUSH1 0x40 MLOAD DUP1 PUSH1 0xC0 ADD PUSH1 0x40 MSTORE SWAP1 DUP2 PUSH1 0x0 DUP3 ADD DUP1 SLOAD PUSH2 0x9C8 SWAP1 PUSH2 0x2A85 JUMP JUMPDEST DUP1 PUSH1 0x1F ADD PUSH1 0x20 DUP1 SWAP2 DIV MUL PUSH1 0x20 ADD PUSH1 0x40 MLOAD SWAP1 DUP2 ADD PUSH1 0x40 MSTORE DUP1 SWAP3 SWAP2 SWAP1 DUP2 DUP2 MSTORE PUSH1 0x20 ADD DUP3 DUP1 SLOAD PUSH2 0x9F4 SWAP1 PUSH2 0x2A85 JUMP JUMPDEST DUP1 ISZERO PUSH2 0xA41 JUMPI DUP1 PUSH1 0x1F LT PUSH2 0xA16 JUMPI PUSH2 0x100 DUP1 DUP4 SLOAD DIV MUL DUP4 MSTORE SWAP2 PUSH1 0x20 ADD SWAP2 PUSH2 0xA41 JUMP JUMPDEST DUP3 ADD SWAP2 SWAP1 PUSH1 0x0 MSTORE PUSH1 0x20 PUSH1 0x0 KECCAK256 SWAP1 JUMPDEST DUP2 SLOAD DUP2 MSTORE SWAP1 PUSH1 0x1 ADD SWAP1 PUSH1 0x20 ADD DUP1 DUP4 GT PUSH2 0xA24 JUMPI DUP3 SWAP1 SUB PUSH1 0x1F AND DUP3 ADD SWAP2 JUMPDEST POP POP POP SWAP2 DUP4 MSTORE POP POP PUSH1 0x1 DUP3 ADD SLOAD PUSH1 0xFF DUP2 AND PUSH1 0x20 DUP1 DUP5 ADD SWAP2 SWAP1 SWAP2 MSTORE PUSH2 0x100 SWAP1 SWAP2 DIV PUSH2 0xFFFF AND PUSH1 0x40 DUP1 DUP5 ADD SWAP2 SWAP1 SWAP2 MSTORE PUSH1 0x2 DUP5 ADD SLOAD PUSH1 0x60 DUP5 ADD MSTORE PUSH1 0x3 DUP5 ADD SLOAD PUSH1 0x80 DUP5 ADD MSTORE PUSH1 0x4 DUP5 ADD DUP1 SLOAD DUP3 MLOAD DUP2 DUP6 MUL DUP2 ADD DUP6 ADD SWAP1 SWAP4 MSTORE DUP1 DUP4 MSTORE PUSH1 0xA0 SWAP1 SWAP5 ADD SWAP4 SWAP2 SWAP3 SWAP1 SWAP2 SWAP1 DUP4 ADD DUP3 DUP3 DUP1 ISZERO PUSH2 0xADB JUMPI PUSH1 0x20 MUL DUP3 ADD SWAP2 SWAP1 PUSH1 0x0 MSTORE PUSH1 0x20 PUSH1 0x0 KECCAK256 SWAP1 JUMPDEST DUP2 SLOAD PUSH1 0x1 PUSH1 0x1 PUSH1 0xA0 SHL SUB AND DUP2 MSTORE PUSH1 0x1 SWAP1 SWAP2 ADD SWAP1 PUSH1 0x20 ADD DUP1 DUP4 GT PUSH2 0xABD JUMPI JUMPDEST POP POP POP POP POP DUP2 MSTORE POP POP DUP2 MSTORE PUSH1 0x20 ADD PUSH1 0x5 DUP3 ADD DUP1 SLOAD DUP1 PUSH1 0x20 MUL PUSH1 0x20 ADD PUSH1 0x40 MLOAD SWAP1 DUP2 ADD PUSH1 0x40 MSTORE DUP1 SWAP3 SWAP2 SWAP1 DUP2 DUP2 MSTORE PUSH1 0x20 ADD DUP3 DUP1 SLOAD DUP1 ISZERO PUSH2 0xB41 JUMPI PUSH1 0x20 MUL DUP3 ADD SWAP2 SWAP1 PUSH1 0x0 MSTORE PUSH1 0x20 PUSH1 0x0 KECCAK256 SWAP1 JUMPDEST DUP2 SLOAD PUSH1 0x1 PUSH1 0x1 PUSH1 0xA0 SHL SUB AND DUP2 MSTORE PUSH1 0x1 SWAP1 SWAP2 ADD SWAP1 PUSH1 0x20 ADD DUP1 DUP4 GT PUSH2 0xB23 JUMPI JUMPDEST POP POP POP SWAP2 DUP4 MSTORE POP POP PUSH1 0x6 DUP3 ADD SLOAD PUSH1 0xFF AND ISZERO ISZERO PUSH1 0x20 DUP1 DUP4 ADD SWAP2 SWAP1 SWAP2 MSTORE PUSH1 0x7 DUP4 ADD DUP1 SLOAD PUSH1 0x40 DUP1 MLOAD DUP3 DUP6 MUL DUP2 ADD DUP6 ADD DUP3 MSTORE DUP3 DUP2 MSTORE SWAP5 ADD SWAP4 SWAP3 DUP4 ADD DUP3 DUP3 DUP1 ISZERO PUSH2 0xBC3 JUMPI PUSH1 0x20 MUL DUP3 ADD SWAP2 SWAP1 PUSH1 0x0 MSTORE PUSH1 0x20 PUSH1 0x0 KECCAK256 SWAP1 PUSH1 0x0 SWAP1 JUMPDEST DUP3 SLOAD PUSH2 0x100 DUP4 SWAP1 EXP SWAP1 DIV PUSH1 0xFF AND DUP2 MSTORE PUSH1 0x20 PUSH1 0x1 SWAP3 DUP4 ADD DUP2 DUP2 DIV SWAP5 DUP6 ADD SWAP5 SWAP1 SWAP4 SUB SWAP1 SWAP3 MUL SWAP2 ADD DUP1 DUP5 GT PUSH2 0xB94 JUMPI SWAP1 POP JUMPDEST POP POP POP POP POP DUP2 MSTORE POP POP SWAP2 POP DUP1 PUSH1 0x40 MLOAD DUP1 PUSH1 0x80 ADD PUSH1 0x40 MSTORE SWAP1 DUP2 PUSH1 0x0 DUP3 ADD PUSH1 0x40 MLOAD DUP1 PUSH1 0xC0 ADD PUSH1 0x40 MSTORE SWAP1 DUP2 PUSH1 0x0 DUP3 ADD DUP1 SLOAD PUSH2 0xBFA SWAP1 PUSH2 0x2A85 JUMP JUMPDEST DUP1 PUSH1 0x1F ADD PUSH1 0x20 DUP1 SWAP2 DIV MUL PUSH1 0x20 ADD PUSH1 0x40 MLOAD SWAP1 DUP2 ADD PUSH1 0x40 MSTORE DUP1 SWAP3 SWAP2 SWAP1 DUP2 DUP2 MSTORE PUSH1 0x20 ADD DUP3 DUP1 SLOAD PUSH2 0xC26 SWAP1 PUSH2 0x2A85 JUMP JUMPDEST DUP1 ISZERO PUSH2 0xC73 JUMPI DUP1 PUSH1 0x1F LT PUSH2 0xC48 JUMPI PUSH2 0x100 DUP1 DUP4 SLOAD DIV MUL DUP4 MSTORE SWAP2 PUSH1 0x20 ADD SWAP2 PUSH2 0xC73 JUMP JUMPDEST DUP3 ADD SWAP2 SWAP1 PUSH1 0x0 MSTORE PUSH1 0x20 PUSH1 0x0 KECCAK256 SWAP1 JUMPDEST DUP2 SLOAD DUP2 MSTORE SWAP1 PUSH1 0x1 ADD SWAP1 PUSH1 0x20 ADD DUP1 DUP4 GT PUSH2 0xC56 JUMPI DUP3 SWAP1 SUB PUSH1 0x1F AND DUP3 ADD SWAP2 JUMPDEST POP POP POP SWAP2 DUP4 MSTORE POP POP PUSH1 0x1 DUP3 ADD SLOAD PUSH1 0xFF DUP2 AND PUSH1 0x20 DUP1 DUP5 ADD SWAP2 SWAP1 SWAP2 MSTORE PUSH2 0x100 SWAP1 SWAP2 DIV PUSH2 0xFFFF AND PUSH1 0x40 DUP1 DUP5 ADD SWAP2 SWAP1 SWAP2 MSTORE PUSH1 0x2 DUP5 ADD SLOAD PUSH1 0x60 DUP5 ADD MSTORE PUSH1 0x3 DUP5 ADD SLOAD PUSH1 0x80 DUP5 ADD MSTORE PUSH1 0x4 DUP5 ADD DUP1 SLOAD DUP3 MLOAD DUP2 DUP6 MUL DUP2 ADD DUP6 ADD SWAP1 SWAP4 MSTORE DUP1 DUP4 MSTORE PUSH1 0xA0 SWAP1 SWAP5 ADD SWAP4 SWAP2 SWAP3 SWAP1 SWAP2 SWAP1 DUP4 ADD DUP3 DUP3 DUP1 ISZERO PUSH2 0xD0D JUMPI PUSH1 0x20 MUL DUP3 ADD SWAP2 SWAP1 PUSH1 0x0 MSTORE PUSH1 0x20 PUSH1 0x0 KECCAK256 SWAP1 JUMPDEST DUP2 SLOAD PUSH1 0x1 PUSH1 0x1 PUSH1 0xA0 SHL SUB AND DUP2 MSTORE PUSH1 0x1 SWAP1 SWAP2 ADD SWAP1 PUSH1 0x20 ADD DUP1 DUP4 GT PUSH2 0xCEF JUMPI JUMPDEST POP POP POP SWAP2 SWAP1 SWAP3 MSTORE POP POP POP DUP2 MSTORE PUSH1 0x5 SWAP2 SWAP1 SWAP2 ADD SLOAD PUSH1 0x1 PUSH1 0x1 PUSH1 0xA0 SHL SUB DUP2 AND PUSH1 0x20 DUP4 ADD MSTORE PUSH1 0xFF PUSH1 0x1 PUSH1 0xA0 SHL DUP3 DIV DUP2 AND PUSH1 0x40 DUP5 ADD MSTORE PUSH1 0x1 PUSH1 0xA8 SHL SWAP1 SWAP2 DIV AND PUSH1 0x60 SWAP1 SWAP2 ADD MSTORE SWAP4 SWAP10 SWAP3 SWAP9 POP SWAP1 SWAP7 POP SWAP2 SWAP5 POP SWAP3 POP POP POP JUMP JUMPDEST PUSH1 0x1 DUP1 SLOAD PUSH1 0x40 DUP1 MLOAD PUSH1 0x20 DUP1 DUP5 MUL DUP3 ADD DUP2 ADD SWAP1 SWAP3 MSTORE DUP3 DUP2 MSTORE PUSH1 0x60 SWAP4 SWAP1 SWAP3 SWAP1 SWAP2 DUP4 ADD DUP3 DUP3 DUP1 ISZERO PUSH2 0xDAC JUMPI PUSH1 0x20 MUL DUP3 ADD SWAP2 SWAP1 PUSH1 0x0 MSTORE PUSH1 0x20 PUSH1 0x0 KECCAK256 SWAP1 JUMPDEST DUP2 SLOAD DUP2 MSTORE PUSH1 0x20 ADD SWAP1 PUSH1 0x1 ADD SWAP1 DUP1 DUP4 GT PUSH2 0xD98 JUMPI JUMPDEST POP POP POP POP POP SWAP1 POP SWAP1 JUMP JUMPDEST CALLER PUSH2 0xDC2 PUSH1 0x1 DUP3 PUSH2 0x1C07 JUMP JUMPDEST PUSH2 0xDCB JUMPI PUSH1 0x0 DUP1 REVERT JUMPDEST PUSH1 0x40 DUP1 MLOAD PUSH2 0x140 DUP2 ADD DUP3 MSTORE PUSH1 0x80 DUP2 ADD DUP9 DUP2 MSTORE PUSH1 0xFF DUP9 AND PUSH1 0xA0 DUP4 ADD MSTORE PUSH1 0x0 DUP1 SLOAD PUSH2 0xFFFF AND PUSH1 0xC0 DUP5 ADD DUP2 SWAP1 MSTORE TIMESTAMP PUSH1 0xE0 DUP6 ADD MSTORE PUSH2 0x100 DUP5 ADD DUP3 SWAP1 MSTORE PUSH1 0x60 PUSH2 0x120 DUP6 ADD DUP2 SWAP1 MSTORE SWAP3 DUP5 MSTORE PUSH1 0x20 DUP1 DUP6 ADD DUP11 SWAP1 MSTORE DUP9 ISZERO ISZERO DUP6 DUP8 ADD MSTORE DUP5 DUP5 ADD DUP9 SWAP1 MSTORE SWAP1 DUP3 MSTORE PUSH1 0x5 DUP2 MSTORE SWAP4 SWAP1 KECCAK256 DUP3 MLOAD DUP1 MLOAD DUP1 MLOAD SWAP4 SWAP6 SWAP3 SWAP4 SWAP2 SWAP3 DUP5 SWAP3 PUSH2 0xE4A SWAP3 DUP5 SWAP3 ADD SWAP1 PUSH2 0x1C2C JUMP JUMPDEST POP PUSH1 0x20 DUP3 DUP2 ADD MLOAD PUSH1 0x1 DUP4 ADD DUP1 SLOAD PUSH1 0x40 DUP7 ADD MLOAD PUSH2 0xFFFF AND PUSH2 0x100 MUL PUSH3 0xFFFFFF NOT SWAP1 SWAP2 AND PUSH1 0xFF SWAP1 SWAP4 AND SWAP3 SWAP1 SWAP3 OR SWAP2 SWAP1 SWAP2 OR SWAP1 SSTORE PUSH1 0x60 DUP4 ADD MLOAD PUSH1 0x2 DUP4 ADD SSTORE PUSH1 0x80 DUP4 ADD MLOAD PUSH1 0x3 DUP4 ADD SSTORE PUSH1 0xA0 DUP4 ADD MLOAD DUP1 MLOAD PUSH2 0xEA6 SWAP3 PUSH1 0x4 DUP6 ADD SWAP3 ADD SWAP1 PUSH2 0x1CB0 JUMP JUMPDEST POP POP POP PUSH1 0x20 DUP3 DUP2 ADD MLOAD DUP1 MLOAD PUSH2 0xEC1 SWAP3 PUSH1 0x5 DUP6 ADD SWAP3 ADD SWAP1 PUSH2 0x1CB0 JUMP JUMPDEST POP PUSH1 0x40 DUP3 ADD MLOAD PUSH1 0x6 DUP3 ADD DUP1 SLOAD PUSH1 0xFF NOT AND SWAP2 ISZERO ISZERO SWAP2 SWAP1 SWAP2 OR SWAP1 SSTORE PUSH1 0x60 DUP3 ADD MLOAD DUP1 MLOAD PUSH2 0xEF5 SWAP2 PUSH1 0x7 DUP5 ADD SWAP2 PUSH1 0x20 SWAP1 SWAP2 ADD SWAP1 PUSH2 0x1DCA JUMP JUMPDEST POP POP PUSH1 0x0 DUP1 SLOAD PUSH2 0xFFFF AND SWAP2 POP DUP1 PUSH2 0xF0B DUP4 PUSH2 0x2ABA JUMP JUMPDEST DUP3 SLOAD PUSH2 0x100 SWAP3 SWAP1 SWAP3 EXP PUSH2 0xFFFF DUP2 DUP2 MUL NOT SWAP1 SWAP4 AND SWAP2 DUP4 AND MUL OR SWAP1 SWAP2 SSTORE PUSH1 0x0 SLOAD PUSH2 0xF37 SWAP3 POP PUSH1 0x1 SWAP2 AND PUSH2 0x2A1B JUMP JUMPDEST PUSH2 0xFFFF AND DUP8 PUSH1 0x40 MLOAD PUSH2 0xF49 SWAP2 SWAP1 PUSH2 0x27A5 JUMP JUMPDEST PUSH1 0x40 DUP1 MLOAD SWAP2 DUP3 SWAP1 SUB DUP3 KECCAK256 PUSH1 0xFF DUP11 AND DUP4 MSTORE TIMESTAMP PUSH1 0x20 DUP5 ADD MSTORE SWAP2 PUSH32 0xFB07F0B6A495000A76B84FE72725AEFA5D6B75FA4C4018F95C244048D02BA134 SWAP2 ADD PUSH1 0x40 MLOAD DUP1 SWAP2 SUB SWAP1 LOG3 POP POP POP POP POP POP POP JUMP JUMPDEST CALLER PUSH2 0xFA0 PUSH1 0x1 DUP3 PUSH2 0x1C07 JUMP JUMPDEST PUSH2 0xFA9 JUMPI PUSH1 0x0 DUP1 REVERT JUMPDEST PUSH1 0x40 DUP1 MLOAD PUSH2 0x140 DUP2 ADD DUP3 MSTORE PUSH1 0x80 DUP2 ADD DUP9 DUP2 MSTORE PUSH1 0xFF DUP9 AND PUSH1 0xA0 DUP4 ADD MSTORE PUSH1 0x0 DUP1 SLOAD PUSH2 0xFFFF AND PUSH1 0xC0 DUP5 ADD DUP2 SWAP1 MSTORE TIMESTAMP PUSH1 0xE0 DUP6 ADD MSTORE PUSH2 0x100 DUP5 ADD DUP3 SWAP1 MSTORE PUSH1 0x60 PUSH2 0x120 DUP6 ADD DUP2 SWAP1 MSTORE SWAP3 DUP5 MSTORE PUSH1 0x20 DUP1 DUP6 ADD DUP11 SWAP1 MSTORE DUP5 DUP7 ADD DUP10 SWAP1 MSTORE DUP5 DUP5 ADD DUP9 SWAP1 MSTORE SWAP1 DUP3 MSTORE PUSH1 0x3 DUP2 MSTORE SWAP4 SWAP1 KECCAK256 DUP3 MLOAD DUP1 MLOAD DUP1 MLOAD SWAP4 SWAP6 SWAP3 SWAP4 SWAP2 SWAP3 DUP5 SWAP3 PUSH2 0x1027 SWAP3 DUP5 SWAP3 ADD SWAP1 PUSH2 0x1C2C JUMP JUMPDEST POP PUSH1 0x20 DUP3 DUP2 ADD MLOAD PUSH1 0x1 DUP4 ADD DUP1 SLOAD PUSH1 0x40 DUP7 ADD MLOAD PUSH2 0xFFFF AND PUSH2 0x100 MUL PUSH3 0xFFFFFF NOT SWAP1 SWAP2 AND PUSH1 0xFF SWAP1 SWAP4 AND SWAP3 SWAP1 SWAP3 OR SWAP2 SWAP1 SWAP2 OR SWAP1 SSTORE PUSH1 0x60 DUP4 ADD MLOAD PUSH1 0x2 DUP4 ADD SSTORE PUSH1 0x80 DUP4 ADD MLOAD PUSH1 0x3 DUP4 ADD SSTORE PUSH1 0xA0 DUP4 ADD MLOAD DUP1 MLOAD PUSH2 0x1083 SWAP3 PUSH1 0x4 DUP6 ADD SWAP3 ADD SWAP1 PUSH2 0x1CB0 JUMP JUMPDEST POP POP POP PUSH1 0x20 DUP3 DUP2 ADD MLOAD DUP1 MLOAD PUSH2 0x109E SWAP3 PUSH1 0x5 DUP6 ADD SWAP3 ADD SWAP1 PUSH2 0x1CB0 JUMP JUMPDEST POP PUSH1 0x40 DUP3 ADD MLOAD DUP1 MLOAD PUSH2 0x10BA SWAP2 PUSH1 0x6 DUP5 ADD SWAP2 PUSH1 0x20 SWAP1 SWAP2 ADD SWAP1 PUSH2 0x1E6B JUMP JUMPDEST POP PUSH1 0x60 DUP3 ADD MLOAD DUP1 MLOAD PUSH2 0xEF5 SWAP2 PUSH1 0x7 DUP5 ADD SWAP2 PUSH1 0x20 SWAP1 SWAP2 ADD SWAP1 PUSH2 0x1EC4 JUMP JUMPDEST CALLER PUSH2 0x10E2 PUSH1 0x1 DUP3 PUSH2 0x1C07 JUMP JUMPDEST PUSH2 0x10EB JUMPI PUSH1 0x0 DUP1 REVERT JUMPDEST PUSH1 0x40 DUP1 MLOAD PUSH2 0x140 DUP2 ADD DUP3 MSTORE PUSH1 0x80 DUP2 ADD DUP9 DUP2 MSTORE PUSH1 0xFF DUP1 DUP10 AND PUSH1 0xA0 DUP5 ADD MSTORE PUSH1 0x0 DUP1 SLOAD PUSH2 0xFFFF AND PUSH1 0xC0 DUP6 ADD DUP2 SWAP1 MSTORE TIMESTAMP PUSH1 0xE0 DUP7 ADD MSTORE PUSH2 0x100 DUP6 ADD DUP3 SWAP1 MSTORE PUSH1 0x60 PUSH2 0x120 DUP7 ADD DUP2 SWAP1 MSTORE SWAP4 DUP6 MSTORE PUSH1 0x1 PUSH1 0x1 PUSH1 0xA0 SHL SUB DUP11 AND PUSH1 0x20 DUP1 DUP8 ADD SWAP2 SWAP1 SWAP2 MSTORE DUP10 DUP5 AND DUP7 DUP9 ADD MSTORE SWAP3 DUP9 AND DUP6 DUP6 ADD MSTORE DUP2 MSTORE PUSH1 0x6 DUP3 MSTORE SWAP4 SWAP1 SWAP4 KECCAK256 DUP3 MLOAD DUP1 MLOAD DUP1 MLOAD SWAP4 SWAP6 SWAP3 SWAP4 SWAP2 SWAP3 DUP5 SWAP3 PUSH2 0x1177 SWAP3 DUP5 SWAP3 ADD SWAP1 PUSH2 0x1C2C JUMP JUMPDEST POP PUSH1 0x20 DUP3 DUP2 ADD MLOAD PUSH1 0x1 DUP4 ADD DUP1 SLOAD PUSH1 0x40 DUP7 ADD MLOAD PUSH2 0xFFFF AND PUSH2 0x100 MUL PUSH3 0xFFFFFF NOT SWAP1 SWAP2 AND PUSH1 0xFF SWAP1 SWAP4 AND SWAP3 SWAP1 SWAP3 OR SWAP2 SWAP1 SWAP2 OR SWAP1 SSTORE PUSH1 0x60 DUP4 ADD MLOAD PUSH1 0x2 DUP4 ADD SSTORE PUSH1 0x80 DUP4 ADD MLOAD PUSH1 0x3 DUP4 ADD SSTORE PUSH1 0xA0 DUP4 ADD MLOAD DUP1 MLOAD PUSH2 0x11D3 SWAP3 PUSH1 0x4 DUP6 ADD SWAP3 ADD SWAP1 PUSH2 0x1CB0 JUMP JUMPDEST POP POP POP PUSH1 0x20 DUP3 ADD MLOAD PUSH1 0x5 SWAP2 SWAP1 SWAP2 ADD DUP1 SLOAD PUSH1 0x40 DUP5 ADD MLOAD PUSH1 0x60 SWAP1 SWAP5 ADD MLOAD PUSH1 0x1 PUSH1 0x1 PUSH1 0xA0 SHL SUB SWAP1 SWAP4 AND PUSH1 0x1 PUSH1 0x1 PUSH1 0xA8 SHL SUB NOT SWAP1 SWAP2 AND OR PUSH1 0x1 PUSH1 0xA0 SHL PUSH1 0xFF SWAP5 DUP6 AND MUL OR PUSH1 0xFF PUSH1 0xA8 SHL NOT AND PUSH1 0x1 PUSH1 0xA8 SHL SWAP4 SWAP1 SWAP3 AND SWAP3 SWAP1 SWAP3 MUL OR SWAP1 SSTORE PUSH1 0x0 DUP1 SLOAD PUSH2 0xFFFF AND SWAP1 DUP1 PUSH2 0xF0B DUP4 PUSH2 0x2ABA JUMP JUMPDEST PUSH1 0x40 MLOAD CALLVALUE DUP2 MSTORE CALLER SWAP1 PUSH32 0x66FF7C8F71CCC7C36152A41920D0D3B46EF3034359F76AA1498ED4478C204B5C SWAP1 PUSH1 0x20 ADD PUSH1 0x40 MLOAD DUP1 SWAP2 SUB SWAP1 LOG2 JUMP JUMPDEST PUSH1 0x0 CALLER PUSH2 0x1281 PUSH1 0x1 DUP3 PUSH2 0x1C07 JUMP JUMPDEST PUSH2 0x128A JUMPI PUSH1 0x0 DUP1 REVERT JUMPDEST PUSH2 0xFFFF DUP1 DUP5 AND PUSH1 0x0 SWAP1 DUP2 MSTORE PUSH1 0x3 PUSH1 0x20 MSTORE PUSH1 0x40 SWAP1 KECCAK256 PUSH1 0x1 ADD SLOAD PUSH2 0x100 SWAP1 DIV AND ISZERO DUP1 ISZERO SWAP1 PUSH2 0x1305 JUMPI POP PUSH2 0xFFFF DUP4 AND PUSH1 0x0 SWAP1 DUP2 MSTORE PUSH1 0x3 PUSH1 0x20 MSTORE PUSH1 0x40 SWAP1 KECCAK256 PUSH1 0x1 ADD SLOAD PUSH2 0x12D8 SWAP1 PUSH1 0xFF AND PUSH3 0x15180 PUSH2 0x29F0 JUMP JUMPDEST PUSH2 0xFFFF DUP5 AND PUSH1 0x0 SWAP1 DUP2 MSTORE PUSH1 0x3 PUSH1 0x20 MSTORE PUSH1 0x40 SWAP1 KECCAK256 PUSH1 0x2 ADD SLOAD PUSH3 0xFFFFFF SWAP2 SWAP1 SWAP2 AND SWAP1 PUSH2 0x1302 SWAP1 TIMESTAMP PUSH2 0x2A3E JUMP JUMPDEST LT ISZERO JUMPDEST ISZERO PUSH2 0x13CD JUMPI PUSH2 0xFFFF DUP4 AND PUSH1 0x0 DUP2 DUP2 MSTORE PUSH1 0x3 PUSH1 0x20 MSTORE PUSH1 0x40 SWAP1 DUP2 SWAP1 KECCAK256 SWAP1 MLOAD PUSH2 0x132B SWAP2 SWAP1 PUSH2 0x27C1 JUMP JUMPDEST PUSH1 0x40 MLOAD SWAP1 DUP2 SWAP1 SUB DUP2 KECCAK256 SWAP1 PUSH1 0x0 DUP1 MLOAD PUSH1 0x20 PUSH2 0x2B24 DUP4 CODECOPY DUP2 MLOAD SWAP2 MSTORE SWAP1 PUSH1 0x0 SWAP1 LOG3 PUSH2 0xFFFF DUP4 AND PUSH1 0x0 SWAP1 DUP2 MSTORE PUSH1 0x3 PUSH1 0x20 MSTORE PUSH1 0x40 DUP2 KECCAK256 SWAP1 DUP2 DUP2 PUSH2 0x1369 DUP3 DUP3 PUSH2 0x1EFE JUMP JUMPDEST PUSH1 0x1 DUP3 ADD DUP1 SLOAD PUSH3 0xFFFFFF NOT AND SWAP1 SSTORE PUSH1 0x0 PUSH1 0x2 DUP4 ADD DUP2 SWAP1 SSTORE PUSH1 0x3 DUP4 ADD DUP2 SWAP1 SSTORE PUSH2 0x1395 SWAP1 PUSH1 0x4 DUP5 ADD SWAP1 PUSH2 0x1F3B JUMP JUMPDEST POP PUSH2 0x13A6 SWAP1 POP PUSH1 0x5 DUP4 ADD PUSH1 0x0 PUSH2 0x1F3B JUMP JUMPDEST PUSH2 0x13B4 PUSH1 0x6 DUP4 ADD PUSH1 0x0 PUSH2 0x1F59 JUMP JUMPDEST PUSH2 0x13C2 PUSH1 0x7 DUP4 ADD PUSH1 0x0 PUSH2 0x1F3B JUMP JUMPDEST POP POP PUSH1 0x1 SWAP2 POP PUSH2 0x1739 JUMP JUMPDEST PUSH2 0xFFFF DUP1 DUP5 AND PUSH1 0x0 SWAP1 DUP2 MSTORE PUSH1 0x4 PUSH1 0x20 MSTORE PUSH1 0x40 SWAP1 KECCAK256 PUSH1 0x1 ADD SLOAD PUSH2 0x100 SWAP1 DIV AND ISZERO DUP1 ISZERO SWAP1 PUSH2 0x1448 JUMPI POP PUSH2 0xFFFF DUP4 AND PUSH1 0x0 SWAP1 DUP2 MSTORE PUSH1 0x4 PUSH1 0x20 MSTORE PUSH1 0x40 SWAP1 KECCAK256 PUSH1 0x1 ADD SLOAD PUSH2 0x141B SWAP1 PUSH1 0xFF AND PUSH3 0x15180 PUSH2 0x29F0 JUMP JUMPDEST PUSH2 0xFFFF DUP5 AND PUSH1 0x0 SWAP1 DUP2 MSTORE PUSH1 0x4 PUSH1 0x20 MSTORE PUSH1 0x40 SWAP1 KECCAK256 PUSH1 0x2 ADD SLOAD PUSH3 0xFFFFFF SWAP2 SWAP1 SWAP2 AND SWAP1 PUSH2 0x1445 SWAP1 TIMESTAMP PUSH2 0x2A3E JUMP JUMPDEST LT ISZERO JUMPDEST ISZERO PUSH2 0x14D6 JUMPI PUSH2 0xFFFF DUP4 AND PUSH1 0x0 DUP2 DUP2 MSTORE PUSH1 0x3 PUSH1 0x20 MSTORE PUSH1 0x40 SWAP1 DUP2 SWAP1 KECCAK256 SWAP1 MLOAD PUSH2 0x146E SWAP2 SWAP1 PUSH2 0x27C1 JUMP JUMPDEST PUSH1 0x40 MLOAD SWAP1 DUP2 SWAP1 SUB DUP2 KECCAK256 SWAP1 PUSH1 0x0 DUP1 MLOAD PUSH1 0x20 PUSH2 0x2B24 DUP4 CODECOPY DUP2 MLOAD SWAP2 MSTORE SWAP1 PUSH1 0x0 SWAP1 LOG3 PUSH2 0xFFFF DUP4 AND PUSH1 0x0 SWAP1 DUP2 MSTORE PUSH1 0x4 PUSH1 0x20 MSTORE PUSH1 0x40 DUP2 KECCAK256 SWAP1 PUSH2 0x14AA DUP3 DUP3 PUSH2 0x1EFE JUMP JUMPDEST PUSH1 0x1 DUP3 ADD DUP1 SLOAD PUSH3 0xFFFFFF NOT AND SWAP1 SSTORE PUSH1 0x0 PUSH1 0x2 DUP4 ADD DUP2 SWAP1 SSTORE PUSH1 0x3 DUP4 ADD DUP2 SWAP1 SSTORE PUSH2 0x13C2 SWAP1 PUSH1 0x4 DUP5 ADD SWAP1 PUSH2 0x1F3B JUMP JUMPDEST PUSH2 0xFFFF DUP1 DUP5 AND PUSH1 0x0 SWAP1 DUP2 MSTORE PUSH1 0x5 PUSH1 0x20 MSTORE PUSH1 0x40 SWAP1 KECCAK256 PUSH1 0x1 ADD SLOAD PUSH2 0x100 SWAP1 DIV AND ISZERO DUP1 ISZERO SWAP1 PUSH2 0x1551 JUMPI POP PUSH2 0xFFFF DUP4 AND PUSH1 0x0 SWAP1 DUP2 MSTORE PUSH1 0x5 PUSH1 0x20 MSTORE PUSH1 0x40 SWAP1 KECCAK256 PUSH1 0x1 ADD SLOAD PUSH2 0x1524 SWAP1 PUSH1 0xFF AND PUSH3 0x15180 PUSH2 0x29F0 JUMP JUMPDEST PUSH2 0xFFFF DUP5 AND PUSH1 0x0 SWAP1 DUP2 MSTORE PUSH1 0x5 PUSH1 0x20 MSTORE PUSH1 0x40 SWAP1 KECCAK256 PUSH1 0x2 ADD SLOAD PUSH3 0xFFFFFF SWAP2 SWAP1 SWAP2 AND SWAP1 PUSH2 0x154E SWAP1 TIMESTAMP PUSH2 0x2A3E JUMP JUMPDEST LT ISZERO JUMPDEST ISZERO PUSH2 0x160C JUMPI PUSH2 0xFFFF DUP4 AND PUSH1 0x0 DUP2 DUP2 MSTORE PUSH1 0x3 PUSH1 0x20 MSTORE PUSH1 0x40 SWAP1 DUP2 SWAP1 KECCAK256 SWAP1 MLOAD PUSH2 0x1577 SWAP2 SWAP1 PUSH2 0x27C1 JUMP JUMPDEST PUSH1 0x40 MLOAD SWAP1 DUP2 SWAP1 SUB DUP2 KECCAK256 SWAP1 PUSH1 0x0 DUP1 MLOAD PUSH1 0x20 PUSH2 0x2B24 DUP4 CODECOPY DUP2 MLOAD SWAP2 MSTORE SWAP1 PUSH1 0x0 SWAP1 LOG3 PUSH2 0xFFFF DUP4 AND PUSH1 0x0 SWAP1 DUP2 MSTORE PUSH1 0x5 PUSH1 0x20 MSTORE PUSH1 0x40 DUP2 KECCAK256 SWAP1 DUP2 DUP2 PUSH2 0x15B5 DUP3 DUP3 PUSH2 0x1EFE JUMP JUMPDEST PUSH1 0x1 DUP3 ADD DUP1 SLOAD PUSH3 0xFFFFFF NOT AND SWAP1 SSTORE PUSH1 0x0 PUSH1 0x2 DUP4 ADD DUP2 SWAP1 SSTORE PUSH1 0x3 DUP4 ADD DUP2 SWAP1 SSTORE PUSH2 0x15E1 SWAP1 PUSH1 0x4 DUP5 ADD SWAP1 PUSH2 0x1F3B JUMP JUMPDEST POP PUSH2 0x15F2 SWAP1 POP PUSH1 0x5 DUP4 ADD PUSH1 0x0 PUSH2 0x1F3B JUMP JUMPDEST PUSH1 0x6 DUP3 ADD DUP1 SLOAD PUSH1 0xFF NOT AND SWAP1 SSTORE PUSH2 0x13C2 PUSH1 0x7 DUP4 ADD PUSH1 0x0 PUSH2 0x1F77 JUMP JUMPDEST PUSH2 0xFFFF DUP1 DUP5 AND PUSH1 0x0 SWAP1 DUP2 MSTORE PUSH1 0x6 PUSH1 0x20 MSTORE PUSH1 0x40 SWAP1 KECCAK256 PUSH1 0x1 ADD SLOAD PUSH2 0x100 SWAP1 DIV AND ISZERO DUP1 ISZERO SWAP1 PUSH2 0x1687 JUMPI POP PUSH2 0xFFFF DUP4 AND PUSH1 0x0 SWAP1 DUP2 MSTORE PUSH1 0x6 PUSH1 0x20 MSTORE PUSH1 0x40 SWAP1 KECCAK256 PUSH1 0x1 ADD SLOAD PUSH2 0x165A SWAP1 PUSH1 0xFF AND PUSH3 0x15180 PUSH2 0x29F0 JUMP JUMPDEST PUSH2 0xFFFF DUP5 AND PUSH1 0x0 SWAP1 DUP2 MSTORE PUSH1 0x6 PUSH1 0x20 MSTORE PUSH1 0x40 SWAP1 KECCAK256 PUSH1 0x2 ADD SLOAD PUSH3 0xFFFFFF SWAP2 SWAP1 SWAP2 AND SWAP1 PUSH2 0x1684 SWAP1 TIMESTAMP PUSH2 0x2A3E JUMP JUMPDEST LT ISZERO JUMPDEST ISZERO PUSH2 0x1734 JUMPI PUSH2 0xFFFF DUP4 AND PUSH1 0x0 DUP2 DUP2 MSTORE PUSH1 0x3 PUSH1 0x20 MSTORE PUSH1 0x40 SWAP1 DUP2 SWAP1 KECCAK256 SWAP1 MLOAD PUSH2 0x16AD SWAP2 SWAP1 PUSH2 0x27C1 JUMP JUMPDEST PUSH1 0x40 MLOAD SWAP1 DUP2 SWAP1 SUB DUP2 KECCAK256 SWAP1 PUSH1 0x0 DUP1 MLOAD PUSH1 0x20 PUSH2 0x2B24 DUP4 CODECOPY DUP2 MLOAD SWAP2 MSTORE SWAP1 PUSH1 0x0 SWAP1 LOG3 PUSH2 0xFFFF DUP4 AND PUSH1 0x0 SWAP1 DUP2 MSTORE PUSH1 0x6 PUSH1 0x20 MSTORE PUSH1 0x40 DUP2 KECCAK256 SWAP1 DUP2 DUP2 PUSH2 0x16EB DUP3 DUP3 PUSH2 0x1EFE JUMP JUMPDEST PUSH1 0x1 DUP3 ADD DUP1 SLOAD PUSH3 0xFFFFFF NOT AND SWAP1 SSTORE PUSH1 0x0 PUSH1 0x2 DUP4 ADD DUP2 SWAP1 SSTORE PUSH1 0x3 DUP4 ADD DUP2 SWAP1 SSTORE PUSH2 0x1717 SWAP1 PUSH1 0x4 DUP5 ADD SWAP1 PUSH2 0x1F3B JUMP JUMPDEST POP POP POP PUSH1 0x5 ADD DUP1 SLOAD PUSH1 0x1 PUSH1 0x1 PUSH1 0xB0 SHL SUB NOT AND SWAP1 SSTORE PUSH1 0x1 SWAP2 POP PUSH2 0x1739 JUMP JUMPDEST PUSH1 0x0 SWAP2 POP JUMPDEST POP SWAP2 SWAP1 POP JUMP JUMPDEST CALLER PUSH2 0x174B PUSH1 0x1 DUP3 PUSH2 0x1C07 JUMP JUMPDEST PUSH2 0x1754 JUMPI PUSH1 0x0 DUP1 REVERT JUMPDEST PUSH2 0xFFFF DUP1 DUP4 AND PUSH1 0x0 SWAP1 DUP2 MSTORE PUSH1 0x3 PUSH1 0x20 MSTORE PUSH1 0x40 SWAP1 KECCAK256 PUSH1 0x1 ADD SLOAD CALLER SWAP2 PUSH2 0x100 SWAP1 SWAP2 DIV AND ISZERO PUSH2 0x18A9 JUMPI PUSH2 0xFFFF DUP4 AND PUSH1 0x0 SWAP1 DUP2 MSTORE PUSH1 0x3 PUSH1 0x20 SWAP1 DUP2 MSTORE PUSH1 0x40 SWAP2 DUP3 SWAP1 KECCAK256 PUSH1 0x4 ADD DUP1 SLOAD DUP4 MLOAD DUP2 DUP5 MUL DUP2 ADD DUP5 ADD SWAP1 SWAP5 MSTORE DUP1 DUP5 MSTORE PUSH2 0x17EE SWAP4 SWAP3 DUP4 ADD DUP3 DUP3 DUP1 ISZERO PUSH2 0x17E3 JUMPI PUSH1 0x20 MUL DUP3 ADD SWAP2 SWAP1 PUSH1 0x0 MSTORE PUSH1 0x20 PUSH1 0x0 KECCAK256 SWAP1 JUMPDEST DUP2 SLOAD PUSH1 0x1 PUSH1 0x1 PUSH1 0xA0 SHL SUB AND DUP2 MSTORE PUSH1 0x1 SWAP1 SWAP2 ADD SWAP1 PUSH1 0x20 ADD DUP1 DUP4 GT PUSH2 0x17C5 JUMPI JUMPDEST POP POP POP POP POP DUP3 PUSH2 0x4C2 JUMP JUMPDEST ISZERO PUSH2 0x18A4 JUMPI PUSH2 0xFFFF DUP4 AND PUSH1 0x0 SWAP1 DUP2 MSTORE PUSH1 0x3 PUSH1 0x20 DUP2 SWAP1 MSTORE PUSH1 0x40 DUP3 KECCAK256 ADD DUP1 SLOAD SWAP2 PUSH2 0x1815 DUP4 PUSH2 0x2ADC JUMP JUMPDEST SWAP1 SWAP2 SSTORE POP POP PUSH2 0xFFFF DUP4 AND PUSH1 0x0 DUP2 DUP2 MSTORE PUSH1 0x3 PUSH1 0x20 SWAP1 DUP2 MSTORE PUSH1 0x40 DUP1 DUP4 KECCAK256 PUSH1 0x4 DUP2 ADD DUP1 SLOAD PUSH1 0x1 DUP2 ADD DUP3 SSTORE SWAP1 DUP6 MSTORE SWAP3 DUP5 KECCAK256 SWAP1 SWAP3 ADD DUP1 SLOAD PUSH1 0x1 PUSH1 0x1 PUSH1 0xA0 SHL SUB NOT AND PUSH1 0x1 PUSH1 0x1 PUSH1 0xA0 SHL SUB DUP8 AND SWAP1 DUP2 OR SWAP1 SWAP2 SSTORE SWAP3 DUP5 SWAP1 MSTORE MLOAD SWAP2 SWAP3 SWAP2 PUSH2 0x1873 SWAP2 SWAP1 PUSH2 0x27C1 JUMP JUMPDEST PUSH1 0x40 MLOAD SWAP1 DUP2 SWAP1 SUB DUP2 KECCAK256 SWAP1 PUSH32 0x96AFF3DB4FF7DBE7DD5D88FADBCC5C5F7FE5EB97CD711500D046A737B9C08CF9 SWAP1 PUSH1 0x0 SWAP1 LOG4 JUMPDEST POP POP POP JUMP JUMPDEST PUSH2 0xFFFF DUP1 DUP5 AND PUSH1 0x0 SWAP1 DUP2 MSTORE PUSH1 0x4 PUSH1 0x20 MSTORE PUSH1 0x40 SWAP1 KECCAK256 PUSH1 0x1 ADD SLOAD PUSH2 0x100 SWAP1 DIV AND ISZERO PUSH2 0x19C9 JUMPI PUSH2 0xFFFF DUP4 AND PUSH1 0x0 SWAP1 DUP2 MSTORE PUSH1 0x4 PUSH1 0x20 DUP2 DUP2 MSTORE PUSH1 0x40 SWAP3 DUP4 SWAP1 KECCAK256 SWAP1 SWAP2 ADD DUP1 SLOAD DUP4 MLOAD DUP2 DUP5 MUL DUP2 ADD DUP5 ADD SWAP1 SWAP5 MSTORE DUP1 DUP5 MSTORE PUSH2 0x193E SWAP4 SWAP3 DUP4 ADD DUP3 DUP3 DUP1 ISZERO PUSH2 0x17E3 JUMPI PUSH1 0x20 MUL DUP3 ADD SWAP2 SWAP1 PUSH1 0x0 MSTORE PUSH1 0x20 PUSH1 0x0 KECCAK256 SWAP1 DUP2 SLOAD PUSH1 0x1 PUSH1 0x1 PUSH1 0xA0 SHL SUB AND DUP2 MSTORE PUSH1 0x1 SWAP1 SWAP2 ADD SWAP1 PUSH1 0x20 ADD DUP1 DUP4 GT PUSH2 0x17C5 JUMPI POP POP POP POP POP DUP3 PUSH2 0x4C2 JUMP JUMPDEST ISZERO PUSH2 0x18A4 JUMPI PUSH2 0xFFFF DUP4 AND PUSH1 0x0 SWAP1 DUP2 MSTORE PUSH1 0x4 PUSH1 0x20 MSTORE PUSH1 0x40 DUP2 KECCAK256 PUSH1 0x3 ADD DUP1 SLOAD SWAP2 PUSH2 0x1965 DUP4 PUSH2 0x2ADC JUMP JUMPDEST SWAP1 SWAP2 SSTORE POP POP PUSH2 0xFFFF DUP4 AND PUSH1 0x0 DUP2 DUP2 MSTORE PUSH1 0x4 PUSH1 0x20 DUP2 DUP2 MSTORE PUSH1 0x40 DUP1 DUP5 KECCAK256 SWAP1 SWAP3 ADD DUP1 SLOAD PUSH1 0x1 DUP2 ADD DUP3 SSTORE SWAP1 DUP5 MSTORE DUP2 DUP5 KECCAK256 ADD DUP1 SLOAD PUSH1 0x1 PUSH1 0x1 PUSH1 0xA0 SHL SUB NOT AND PUSH1 0x1 PUSH1 0x1 PUSH1 0xA0 SHL SUB DUP8 AND SWAP1 DUP2 OR SWAP1 SWAP2 SSTORE DUP5 DUP5 MSTORE PUSH1 0x3 SWAP1 SWAP2 MSTORE SWAP2 DUP2 SWAP1 KECCAK256 SWAP1 MLOAD SWAP2 SWAP3 SWAP2 PUSH2 0x1873 SWAP2 SWAP1 PUSH2 0x27C1 JUMP JUMPDEST PUSH2 0xFFFF DUP1 DUP5 AND PUSH1 0x0 SWAP1 DUP2 MSTORE PUSH1 0x5 PUSH1 0x20 MSTORE PUSH1 0x40 SWAP1 KECCAK256 PUSH1 0x1 ADD SLOAD PUSH2 0x100 SWAP1 DIV AND ISZERO PUSH2 0x1AE8 JUMPI PUSH2 0xFFFF DUP4 AND PUSH1 0x0 SWAP1 DUP2 MSTORE PUSH1 0x5 PUSH1 0x20 SWAP1 DUP2 MSTORE PUSH1 0x40 SWAP2 DUP3 SWAP1 KECCAK256 PUSH1 0x4 ADD DUP1 SLOAD DUP4 MLOAD DUP2 DUP5 MUL DUP2 ADD DUP5 ADD SWAP1 SWAP5 MSTORE DUP1 DUP5 MSTORE PUSH2 0x1A5E SWAP4 SWAP3 DUP4 ADD DUP3 DUP3 DUP1 ISZERO PUSH2 0x17E3 JUMPI PUSH1 0x20 MUL DUP3 ADD SWAP2 SWAP1 PUSH1 0x0 MSTORE PUSH1 0x20 PUSH1 0x0 KECCAK256 SWAP1 DUP2 SLOAD PUSH1 0x1 PUSH1 0x1 PUSH1 0xA0 SHL SUB AND DUP2 MSTORE PUSH1 0x1 SWAP1 SWAP2 ADD SWAP1 PUSH1 0x20 ADD DUP1 DUP4 GT PUSH2 0x17C5 JUMPI POP POP POP POP POP DUP3 PUSH2 0x4C2 JUMP JUMPDEST ISZERO PUSH2 0x18A4 JUMPI PUSH2 0xFFFF DUP4 AND PUSH1 0x0 SWAP1 DUP2 MSTORE PUSH1 0x5 PUSH1 0x20 MSTORE PUSH1 0x40 DUP2 KECCAK256 PUSH1 0x3 ADD DUP1 SLOAD SWAP2 PUSH2 0x1A85 DUP4 PUSH2 0x2ADC JUMP JUMPDEST SWAP1 SWAP2 SSTORE POP POP PUSH2 0xFFFF DUP4 AND PUSH1 0x0 DUP2 DUP2 MSTORE PUSH1 0x5 PUSH1 0x20 SWAP1 DUP2 MSTORE PUSH1 0x40 DUP1 DUP4 KECCAK256 PUSH1 0x4 ADD DUP1 SLOAD PUSH1 0x1 DUP2 ADD DUP3 SSTORE SWAP1 DUP5 MSTORE DUP3 DUP5 KECCAK256 ADD DUP1 SLOAD PUSH1 0x1 PUSH1 0x1 PUSH1 0xA0 SHL SUB NOT AND PUSH1 0x1 PUSH1 0x1 PUSH1 0xA0 SHL SUB DUP8 AND SWAP1 DUP2 OR SWAP1 SWAP2 SSTORE DUP5 DUP5 MSTORE PUSH1 0x3 SWAP1 SWAP3 MSTORE SWAP2 DUP3 SWAP1 KECCAK256 SWAP2 MLOAD SWAP1 SWAP3 SWAP2 PUSH2 0x1873 SWAP2 PUSH2 0x27C1 JUMP JUMPDEST PUSH2 0xFFFF DUP1 DUP5 AND PUSH1 0x0 SWAP1 DUP2 MSTORE PUSH1 0x6 PUSH1 0x20 MSTORE PUSH1 0x40 SWAP1 KECCAK256 PUSH1 0x1 ADD SLOAD PUSH2 0x100 SWAP1 DIV AND ISZERO PUSH2 0x18A4 JUMPI PUSH2 0xFFFF DUP4 AND PUSH1 0x0 SWAP1 DUP2 MSTORE PUSH1 0x6 PUSH1 0x20 SWAP1 DUP2 MSTORE PUSH1 0x40 SWAP2 DUP3 SWAP1 KECCAK256 PUSH1 0x4 ADD DUP1 SLOAD DUP4 MLOAD DUP2 DUP5 MUL DUP2 ADD DUP5 ADD SWAP1 SWAP5 MSTORE DUP1 DUP5 MSTORE PUSH2 0x1B7D SWAP4 SWAP3 DUP4 ADD DUP3 DUP3 DUP1 ISZERO PUSH2 0x17E3 JUMPI PUSH1 0x20 MUL DUP3 ADD SWAP2 SWAP1 PUSH1 0x0 MSTORE PUSH1 0x20 PUSH1 0x0 KECCAK256 SWAP1 DUP2 SLOAD PUSH1 0x1 PUSH1 0x1 PUSH1 0xA0 SHL SUB AND DUP2 MSTORE PUSH1 0x1 SWAP1 SWAP2 ADD SWAP1 PUSH1 0x20 ADD DUP1 DUP4 GT PUSH2 0x17C5 JUMPI POP POP POP POP POP DUP3 PUSH2 0x4C2 JUMP JUMPDEST ISZERO PUSH2 0x18A4 JUMPI PUSH2 0xFFFF DUP4 AND PUSH1 0x0 SWAP1 DUP2 MSTORE PUSH1 0x6 PUSH1 0x20 MSTORE PUSH1 0x40 DUP2 KECCAK256 PUSH1 0x3 ADD DUP1 SLOAD SWAP2 PUSH2 0x1BA4 DUP4 PUSH2 0x2ADC JUMP JUMPDEST SWAP1 SWAP2 SSTORE POP POP PUSH2 0xFFFF DUP4 AND PUSH1 0x0 DUP2 DUP2 MSTORE PUSH1 0x6 PUSH1 0x20 SWAP1 DUP2 MSTORE PUSH1 0x40 DUP1 DUP4 KECCAK256 PUSH1 0x4 ADD DUP1 SLOAD PUSH1 0x1 DUP2 ADD DUP3 SSTORE SWAP1 DUP5 MSTORE DUP3 DUP5 KECCAK256 ADD DUP1 SLOAD PUSH1 0x1 PUSH1 0x1 PUSH1 0xA0 SHL SUB NOT AND PUSH1 0x1 PUSH1 0x1 PUSH1 0xA0 SHL SUB DUP8 AND SWAP1 DUP2 OR SWAP1 SWAP2 SSTORE DUP5 DUP5 MSTORE PUSH1 0x3 SWAP1 SWAP3 MSTORE SWAP2 DUP3 SWAP1 KECCAK256 SWAP2 MLOAD SWAP1 SWAP3 SWAP2 PUSH2 0x1873 SWAP2 PUSH2 0x27C1 JUMP JUMPDEST PUSH1 0x1 PUSH1 0x1 PUSH1 0xA0 SHL SUB DUP2 AND PUSH1 0x0 SWAP1 DUP2 MSTORE PUSH1 0x1 DUP4 ADD PUSH1 0x20 MSTORE PUSH1 0x40 DUP2 KECCAK256 SLOAD ISZERO ISZERO JUMPDEST SWAP4 SWAP3 POP POP POP JUMP JUMPDEST DUP3 DUP1 SLOAD PUSH2 0x1C38 SWAP1 PUSH2 0x2A85 JUMP JUMPDEST SWAP1 PUSH1 0x0 MSTORE PUSH1 0x20 PUSH1 0x0 KECCAK256 SWAP1 PUSH1 0x1F ADD PUSH1 0x20 SWAP1 DIV DUP2 ADD SWAP3 DUP3 PUSH2 0x1C5A JUMPI PUSH1 0x0 DUP6 SSTORE PUSH2 0x1CA0 JUMP JUMPDEST DUP3 PUSH1 0x1F LT PUSH2 0x1C73 JUMPI DUP1 MLOAD PUSH1 0xFF NOT AND DUP4 DUP1 ADD OR DUP6 SSTORE PUSH2 0x1CA0 JUMP JUMPDEST DUP3 DUP1 ADD PUSH1 0x1 ADD DUP6 SSTORE DUP3 ISZERO PUSH2 0x1CA0 JUMPI SWAP2 DUP3 ADD JUMPDEST DUP3 DUP2 GT ISZERO PUSH2 0x1CA0 JUMPI DUP3 MLOAD DUP3 SSTORE SWAP2 PUSH1 0x20 ADD SWAP2 SWAP1 PUSH1 0x1 ADD SWAP1 PUSH2 0x1C85 JUMP JUMPDEST POP PUSH2 0x1CAC SWAP3 SWAP2 POP PUSH2 0x1F98 JUMP JUMPDEST POP SWAP1 JUMP JUMPDEST DUP3 DUP1 SLOAD DUP3 DUP3 SSTORE SWAP1 PUSH1 0x0 MSTORE PUSH1 0x20 PUSH1 0x0 KECCAK256 SWAP1 DUP2 ADD SWAP3 DUP3 ISZERO PUSH2 0x1CA0 JUMPI SWAP2 PUSH1 0x20 MUL DUP3 ADD JUMPDEST DUP3 DUP2 GT ISZERO PUSH2 0x1CA0 JUMPI DUP3 MLOAD DUP3 SLOAD PUSH1 0x1 PUSH1 0x1 PUSH1 0xA0 SHL SUB NOT AND PUSH1 0x1 PUSH1 0x1 PUSH1 0xA0 SHL SUB SWAP1 SWAP2 AND OR DUP3 SSTORE PUSH1 0x20 SWAP1 SWAP3 ADD SWAP2 PUSH1 0x1 SWAP1 SWAP2 ADD SWAP1 PUSH2 0x1CD0 JUMP JUMPDEST PUSH1 0x40 MLOAD DUP1 PUSH1 0x80 ADD PUSH1 0x40 MSTORE DUP1 PUSH2 0x1D18 PUSH2 0x1D33 JUMP JUMPDEST DUP2 MSTORE PUSH1 0x20 ADD PUSH1 0x60 DUP2 MSTORE PUSH1 0x20 ADD PUSH1 0x60 DUP2 MSTORE PUSH1 0x20 ADD PUSH1 0x60 DUP2 MSTORE POP SWAP1 JUMP JUMPDEST PUSH1 0x40 MLOAD DUP1 PUSH1 0xC0 ADD PUSH1 0x40 MSTORE DUP1 PUSH1 0x60 DUP2 MSTORE PUSH1 0x20 ADD PUSH1 0x0 PUSH1 0xFF AND DUP2 MSTORE PUSH1 0x20 ADD PUSH1 0x0 PUSH2 0xFFFF AND DUP2 MSTORE PUSH1 0x20 ADD PUSH1 0x0 DUP2 MSTORE PUSH1 0x20 ADD PUSH1 0x0 DUP2 MSTORE PUSH1 0x20 ADD PUSH1 0x60 DUP2 MSTORE POP SWAP1 JUMP JUMPDEST PUSH1 0x40 MLOAD DUP1 PUSH1 0x80 ADD PUSH1 0x40 MSTORE DUP1 PUSH2 0x1D83 PUSH2 0x1D33 JUMP JUMPDEST DUP2 MSTORE PUSH1 0x60 PUSH1 0x20 DUP3 ADD DUP2 SWAP1 MSTORE PUSH1 0x0 PUSH1 0x40 DUP4 ADD MSTORE SWAP1 DUP2 ADD MSTORE SWAP1 JUMP JUMPDEST PUSH1 0x40 MLOAD DUP1 PUSH1 0x80 ADD PUSH1 0x40 MSTORE DUP1 PUSH2 0x1DAF PUSH2 0x1D33 JUMP JUMPDEST DUP2 MSTORE PUSH1 0x0 PUSH1 0x20 DUP3 ADD DUP2 SWAP1 MSTORE PUSH1 0x40 DUP3 ADD DUP2 SWAP1 MSTORE PUSH1 0x60 SWAP1 SWAP2 ADD MSTORE SWAP1 JUMP JUMPDEST DUP3 DUP1 SLOAD DUP3 DUP3 SSTORE SWAP1 PUSH1 0x0 MSTORE PUSH1 0x20 PUSH1 0x0 KECCAK256 SWAP1 PUSH1 0x1F ADD PUSH1 0x20 SWAP1 DIV DUP2 ADD SWAP3 DUP3 ISZERO PUSH2 0x1CA0 JUMPI SWAP2 PUSH1 0x20 MUL DUP3 ADD PUSH1 0x0 JUMPDEST DUP4 DUP3 GT ISZERO PUSH2 0x1E31 JUMPI DUP4 MLOAD DUP4 DUP3 PUSH2 0x100 EXP DUP2 SLOAD DUP2 PUSH1 0xFF MUL NOT AND SWAP1 DUP4 PUSH1 0xFF AND MUL OR SWAP1 SSTORE POP SWAP3 PUSH1 0x20 ADD SWAP3 PUSH1 0x1 ADD PUSH1 0x20 DUP2 PUSH1 0x0 ADD DIV SWAP3 DUP4 ADD SWAP3 PUSH1 0x1 SUB MUL PUSH2 0x1DF3 JUMP JUMPDEST DUP1 ISZERO PUSH2 0x1E5E JUMPI DUP3 DUP2 PUSH2 0x100 EXP DUP2 SLOAD SWAP1 PUSH1 0xFF MUL NOT AND SWAP1 SSTORE PUSH1 0x1 ADD PUSH1 0x20 DUP2 PUSH1 0x0 ADD DIV SWAP3 DUP4 ADD SWAP3 PUSH1 0x1 SUB MUL PUSH2 0x1E31 JUMP JUMPDEST POP POP PUSH2 0x1CAC SWAP3 SWAP2 POP PUSH2 0x1F98 JUMP JUMPDEST DUP3 DUP1 SLOAD DUP3 DUP3 SSTORE SWAP1 PUSH1 0x0 MSTORE PUSH1 0x20 PUSH1 0x0 KECCAK256 SWAP1 DUP2 ADD SWAP3 DUP3 ISZERO PUSH2 0x1EB8 JUMPI SWAP2 PUSH1 0x20 MUL DUP3 ADD JUMPDEST DUP3 DUP2 GT ISZERO PUSH2 0x1EB8 JUMPI DUP3 MLOAD DUP1 MLOAD PUSH2 0x1EA8 SWAP2 DUP5 SWAP2 PUSH1 0x20 SWAP1 SWAP2 ADD SWAP1 PUSH2 0x1C2C JUMP JUMPDEST POP SWAP2 PUSH1 0x20 ADD SWAP2 SWAP1 PUSH1 0x1 ADD SWAP1 PUSH2 0x1E8B JUMP JUMPDEST POP PUSH2 0x1CAC SWAP3 SWAP2 POP PUSH2 0x1FAD JUMP JUMPDEST DUP3 DUP1 SLOAD DUP3 DUP3 SSTORE SWAP1 PUSH1 0x0 MSTORE PUSH1 0x20 PUSH1 0x0 KECCAK256 SWAP1 DUP2 ADD SWAP3 DUP3 ISZERO PUSH2 0x1CA0 JUMPI SWAP2 PUSH1 0x20 MUL DUP3 ADD DUP3 DUP2 GT ISZERO PUSH2 0x1CA0 JUMPI DUP3 MLOAD DUP3 SSTORE SWAP2 PUSH1 0x20 ADD SWAP2 SWAP1 PUSH1 0x1 ADD SWAP1 PUSH2 0x1C85 JUMP JUMPDEST POP DUP1 SLOAD PUSH2 0x1F0A SWAP1 PUSH2 0x2A85 JUMP JUMPDEST PUSH1 0x0 DUP3 SSTORE DUP1 PUSH1 0x1F LT PUSH2 0x1F1A JUMPI POP POP JUMP JUMPDEST PUSH1 0x1F ADD PUSH1 0x20 SWAP1 DIV SWAP1 PUSH1 0x0 MSTORE PUSH1 0x20 PUSH1 0x0 KECCAK256 SWAP1 DUP2 ADD SWAP1 PUSH2 0x1F38 SWAP2 SWAP1 PUSH2 0x1F98 JUMP JUMPDEST POP JUMP JUMPDEST POP DUP1 SLOAD PUSH1 0x0 DUP3 SSTORE SWAP1 PUSH1 0x0 MSTORE PUSH1 0x20 PUSH1 0x0 KECCAK256 SWAP1 DUP2 ADD SWAP1 PUSH2 0x1F38 SWAP2 SWAP1 PUSH2 0x1F98 JUMP JUMPDEST POP DUP1 SLOAD PUSH1 0x0 DUP3 SSTORE SWAP1 PUSH1 0x0 MSTORE PUSH1 0x20 PUSH1 0x0 KECCAK256 SWAP1 DUP2 ADD SWAP1 PUSH2 0x1F38 SWAP2 SWAP1 PUSH2 0x1FAD JUMP JUMPDEST POP DUP1 SLOAD PUSH1 0x0 DUP3 SSTORE PUSH1 0x1F ADD PUSH1 0x20 SWAP1 DIV SWAP1 PUSH1 0x0 MSTORE PUSH1 0x20 PUSH1 0x0 KECCAK256 SWAP1 DUP2 ADD SWAP1 PUSH2 0x1F38 SWAP2 SWAP1 JUMPDEST JUMPDEST DUP1 DUP3 GT ISZERO PUSH2 0x1CAC JUMPI PUSH1 0x0 DUP2 SSTORE PUSH1 0x1 ADD PUSH2 0x1F99 JUMP JUMPDEST DUP1 DUP3 GT ISZERO PUSH2 0x1CAC JUMPI PUSH1 0x0 PUSH2 0x1FC1 DUP3 DUP3 PUSH2 0x1EFE JUMP JUMPDEST POP PUSH1 0x1 ADD PUSH2 0x1FAD JUMP JUMPDEST DUP1 CALLDATALOAD PUSH1 0x1 PUSH1 0x1 PUSH1 0xA0 SHL SUB DUP2 AND DUP2 EQ PUSH2 0x1FE1 JUMPI PUSH1 0x0 DUP1 REVERT JUMPDEST SWAP2 SWAP1 POP JUMP JUMPDEST PUSH1 0x0 DUP3 PUSH1 0x1F DUP4 ADD SLT PUSH2 0x1FF6 JUMPI DUP1 DUP2 REVERT JUMPDEST DUP2 CALLDATALOAD PUSH1 0x20 PUSH2 0x200B PUSH2 0x2006 DUP4 PUSH2 0x29CC JUMP JUMPDEST PUSH2 0x299B JUMP JUMPDEST DUP1 DUP4 DUP3 MSTORE DUP3 DUP3 ADD SWAP2 POP DUP3 DUP7 ADD DUP8 DUP5 DUP7 PUSH1 0x5 SHL DUP10 ADD ADD GT ISZERO PUSH2 0x202A JUMPI DUP6 DUP7 REVERT JUMPDEST DUP6 JUMPDEST DUP6 DUP2 LT ISZERO PUSH2 0x204F JUMPI PUSH2 0x203D DUP3 PUSH2 0x1FCA JUMP JUMPDEST DUP5 MSTORE SWAP3 DUP5 ADD SWAP3 SWAP1 DUP5 ADD SWAP1 PUSH1 0x1 ADD PUSH2 0x202C JUMP JUMPDEST POP SWAP1 SWAP8 SWAP7 POP POP POP POP POP POP POP JUMP JUMPDEST PUSH1 0x0 DUP3 PUSH1 0x1F DUP4 ADD SLT PUSH2 0x206C JUMPI DUP1 DUP2 REVERT JUMPDEST DUP2 CALLDATALOAD PUSH1 0x20 PUSH2 0x207C PUSH2 0x2006 DUP4 PUSH2 0x29CC JUMP JUMPDEST DUP1 DUP4 DUP3 MSTORE DUP3 DUP3 ADD SWAP2 POP DUP3 DUP7 ADD DUP8 DUP5 DUP7 PUSH1 0x5 SHL DUP10 ADD ADD GT ISZERO PUSH2 0x209B JUMPI DUP6 DUP7 REVERT JUMPDEST DUP6 JUMPDEST DUP6 DUP2 LT ISZERO PUSH2 0x204F JUMPI DUP2 CALLDATALOAD DUP5 MSTORE SWAP3 DUP5 ADD SWAP3 SWAP1 DUP5 ADD SWAP1 PUSH1 0x1 ADD PUSH2 0x209D JUMP JUMPDEST PUSH1 0x0 DUP3 PUSH1 0x1F DUP4 ADD SLT PUSH2 0x20C9 JUMPI DUP1 DUP2 REVERT JUMPDEST DUP2 CALLDATALOAD PUSH8 0xFFFFFFFFFFFFFFFF DUP2 GT ISZERO PUSH2 0x20E3 JUMPI PUSH2 0x20E3 PUSH2 0x2B0D JUMP JUMPDEST PUSH2 0x20F6 PUSH1 0x1F DUP3 ADD PUSH1 0x1F NOT AND PUSH1 0x20 ADD PUSH2 0x299B JUMP JUMPDEST DUP2 DUP2 MSTORE DUP5 PUSH1 0x20 DUP4 DUP7 ADD ADD GT ISZERO PUSH2 0x210A JUMPI DUP3 DUP4 REVERT JUMPDEST DUP2 PUSH1 0x20 DUP6 ADD PUSH1 0x20 DUP4 ADD CALLDATACOPY SWAP1 DUP2 ADD PUSH1 0x20 ADD SWAP2 SWAP1 SWAP2 MSTORE SWAP3 SWAP2 POP POP JUMP JUMPDEST DUP1 CALLDATALOAD PUSH1 0xFF DUP2 AND DUP2 EQ PUSH2 0x1FE1 JUMPI PUSH1 0x0 DUP1 REVERT JUMPDEST PUSH1 0x0 DUP1 PUSH1 0x0 DUP1 PUSH1 0x0 PUSH1 0xA0 DUP7 DUP9 SUB SLT ISZERO PUSH2 0x214C JUMPI DUP1 DUP2 REVERT JUMPDEST PUSH2 0x2155 DUP7 PUSH2 0x1FCA JUMP JUMPDEST SWAP5 POP PUSH2 0x2163 PUSH1 0x20 DUP8 ADD PUSH2 0x1FCA JUMP JUMPDEST SWAP4 POP PUSH1 0x40 DUP7 ADD CALLDATALOAD PUSH8 0xFFFFFFFFFFFFFFFF DUP1 DUP3 GT ISZERO PUSH2 0x217F JUMPI DUP3 DUP4 REVERT JUMPDEST PUSH2 0x218B DUP10 DUP4 DUP11 ADD PUSH2 0x205C JUMP JUMPDEST SWAP5 POP PUSH1 0x60 DUP9 ADD CALLDATALOAD SWAP2 POP DUP1 DUP3 GT ISZERO PUSH2 0x21A0 JUMPI DUP3 DUP4 REVERT JUMPDEST PUSH2 0x21AC DUP10 DUP4 DUP11 ADD PUSH2 0x205C JUMP JUMPDEST SWAP4 POP PUSH1 0x80 DUP9 ADD CALLDATALOAD SWAP2 POP DUP1 DUP3 GT ISZERO PUSH2 0x21C1 JUMPI DUP3 DUP4 REVERT JUMPDEST POP PUSH2 0x21CE DUP9 DUP3 DUP10 ADD PUSH2 0x20B9 JUMP JUMPDEST SWAP2 POP POP SWAP3 SWAP6 POP SWAP3 SWAP6 SWAP1 SWAP4 POP JUMP JUMPDEST PUSH1 0x0 DUP1 PUSH1 0x0 DUP1 PUSH1 0x0 PUSH1 0xA0 DUP7 DUP9 SUB SLT ISZERO PUSH2 0x21F2 JUMPI DUP1 DUP2 REVERT JUMPDEST PUSH2 0x21FB DUP7 PUSH2 0x1FCA JUMP JUMPDEST SWAP5 POP PUSH2 0x2209 PUSH1 0x20 DUP8 ADD PUSH2 0x1FCA JUMP JUMPDEST SWAP4 POP PUSH1 0x40 DUP7 ADD CALLDATALOAD SWAP3 POP PUSH1 0x60 DUP7 ADD CALLDATALOAD SWAP2 POP PUSH1 0x80 DUP7 ADD CALLDATALOAD PUSH8 0xFFFFFFFFFFFFFFFF DUP2 GT ISZERO PUSH2 0x2232 JUMPI DUP2 DUP3 REVERT JUMPDEST PUSH2 0x21CE DUP9 DUP3 DUP10 ADD PUSH2 0x20B9 JUMP JUMPDEST PUSH1 0x0 DUP1 PUSH1 0x40 DUP4 DUP6 SUB SLT ISZERO PUSH2 0x2250 JUMPI DUP2 DUP3 REVERT JUMPDEST DUP3 CALLDATALOAD PUSH8 0xFFFFFFFFFFFFFFFF DUP2 GT ISZERO PUSH2 0x2266 JUMPI DUP3 DUP4 REVERT JUMPDEST PUSH2 0x2272 DUP6 DUP3 DUP7 ADD PUSH2 0x1FE6 JUMP JUMPDEST SWAP3 POP POP PUSH2 0x2281 PUSH1 0x20 DUP5 ADD PUSH2 0x1FCA JUMP JUMPDEST SWAP1 POP SWAP3 POP SWAP3 SWAP1 POP JUMP JUMPDEST PUSH1 0x0 PUSH1 0x20 DUP3 DUP5 SUB SLT ISZERO PUSH2 0x229B JUMPI DUP1 DUP2 REVERT JUMPDEST DUP2 CALLDATALOAD PUSH1 0x1 PUSH1 0x1 PUSH1 0xE0 SHL SUB NOT DUP2 AND DUP2 EQ PUSH2 0x1C25 JUMPI DUP2 DUP3 REVERT JUMPDEST PUSH1 0x0 DUP1 PUSH1 0x40 DUP4 DUP6 SUB SLT ISZERO PUSH2 0x22C4 JUMPI DUP2 DUP3 REVERT JUMPDEST DUP3 CALLDATALOAD PUSH8 0xFFFFFFFFFFFFFFFF DUP2 GT ISZERO PUSH2 0x22DA JUMPI DUP3 DUP4 REVERT JUMPDEST PUSH2 0x22E6 DUP6 DUP3 DUP7 ADD PUSH2 0x20B9 JUMP JUMPDEST SWAP3 POP POP PUSH2 0x2281 PUSH1 0x20 DUP5 ADD PUSH2 0x2124 JUMP JUMPDEST PUSH1 0x0 DUP1 PUSH1 0x0 DUP1 PUSH1 0x0 PUSH1 0xA0 DUP7 DUP9 SUB SLT ISZERO PUSH2 0x230C JUMPI DUP3 DUP4 REVERT JUMPDEST DUP6 CALLDATALOAD PUSH8 0xFFFFFFFFFFFFFFFF DUP2 GT ISZERO PUSH2 0x2322 JUMPI DUP4 DUP5 REVERT JUMPDEST PUSH2 0x232E DUP9 DUP3 DUP10 ADD PUSH2 0x20B9 JUMP JUMPDEST SWAP6 POP POP PUSH2 0x233D PUSH1 0x20 DUP8 ADD PUSH2 0x2124 JUMP JUMPDEST SWAP4 POP PUSH2 0x234B PUSH1 0x40 DUP8 ADD PUSH2 0x1FCA JUMP JUMPDEST SWAP3 POP PUSH2 0x2359 PUSH1 0x60 DUP8 ADD PUSH2 0x2124 JUMP JUMPDEST SWAP2 POP PUSH2 0x2367 PUSH1 0x80 DUP8 ADD PUSH2 0x2124 JUMP JUMPDEST SWAP1 POP SWAP3 SWAP6 POP SWAP3 SWAP6 SWAP1 SWAP4 POP JUMP JUMPDEST PUSH1 0x0 DUP1 PUSH1 0x0 DUP1 PUSH1 0x0 PUSH1 0xA0 DUP7 DUP9 SUB SLT ISZERO PUSH2 0x238A JUMPI DUP3 DUP4 REVERT JUMPDEST PUSH8 0xFFFFFFFFFFFFFFFF DUP1 DUP8 CALLDATALOAD GT ISZERO PUSH2 0x23A0 JUMPI DUP4 DUP5 REVERT JUMPDEST PUSH2 0x23AD DUP9 DUP9 CALLDATALOAD DUP10 ADD PUSH2 0x20B9 JUMP JUMPDEST SWAP6 POP PUSH1 0x20 PUSH2 0x23BC DUP2 DUP10 ADD PUSH2 0x2124 JUMP JUMPDEST SWAP6 POP PUSH1 0x40 DUP9 ADD CALLDATALOAD DUP3 DUP2 GT ISZERO PUSH2 0x23CF JUMPI DUP6 DUP7 REVERT JUMPDEST PUSH2 0x23DB DUP11 DUP3 DUP12 ADD PUSH2 0x1FE6 JUMP JUMPDEST SWAP6 POP POP PUSH1 0x60 DUP9 ADD CALLDATALOAD DUP3 DUP2 GT ISZERO PUSH2 0x23EF JUMPI DUP4 DUP5 REVERT JUMPDEST DUP9 ADD PUSH1 0x1F DUP2 ADD DUP11 SGT PUSH2 0x23FF JUMPI DUP4 DUP5 REVERT JUMPDEST DUP1 CALLDATALOAD PUSH2 0x240D PUSH2 0x2006 DUP3 PUSH2 0x29CC JUMP JUMPDEST DUP1 DUP3 DUP3 MSTORE DUP5 DUP3 ADD SWAP2 POP DUP5 DUP5 ADD DUP14 DUP7 DUP6 PUSH1 0x5 SHL DUP8 ADD ADD GT ISZERO PUSH2 0x242C JUMPI DUP8 DUP9 REVERT JUMPDEST DUP8 JUMPDEST DUP5 DUP2 LT ISZERO PUSH2 0x2464 JUMPI DUP8 DUP3 CALLDATALOAD GT ISZERO PUSH2 0x2443 JUMPI DUP9 DUP10 REVERT JUMPDEST PUSH2 0x2452 DUP16 DUP9 DUP5 CALLDATALOAD DUP10 ADD ADD PUSH2 0x20B9 JUMP JUMPDEST DUP5 MSTORE SWAP3 DUP7 ADD SWAP3 SWAP1 DUP7 ADD SWAP1 PUSH1 0x1 ADD PUSH2 0x242E JUMP JUMPDEST POP POP DUP1 SWAP8 POP POP POP POP POP POP PUSH1 0x80 DUP8 ADD CALLDATALOAD DUP2 DUP2 GT ISZERO PUSH2 0x247F JUMPI DUP3 DUP4 REVERT JUMPDEST PUSH2 0x248B DUP10 DUP3 DUP11 ADD PUSH2 0x205C JUMP JUMPDEST SWAP3 POP POP POP SWAP3 SWAP6 POP SWAP3 SWAP6 SWAP1 SWAP4 POP JUMP JUMPDEST PUSH1 0x0 DUP1 PUSH1 0x0 DUP1 PUSH1 0x0 PUSH1 0xA0 DUP7 DUP9 SUB SLT ISZERO PUSH2 0x24B0 JUMPI DUP3 DUP4 REVERT JUMPDEST DUP6 CALLDATALOAD PUSH8 0xFFFFFFFFFFFFFFFF DUP1 DUP3 GT ISZERO PUSH2 0x24C7 JUMPI DUP5 DUP6 REVERT JUMPDEST PUSH2 0x24D3 DUP10 DUP4 DUP11 ADD PUSH2 0x20B9 JUMP JUMPDEST SWAP7 POP PUSH1 0x20 SWAP2 POP PUSH2 0x24E4 DUP3 DUP10 ADD PUSH2 0x2124 JUMP JUMPDEST SWAP6 POP PUSH1 0x40 DUP9 ADD CALLDATALOAD DUP2 DUP2 GT ISZERO PUSH2 0x24F7 JUMPI DUP6 DUP7 REVERT JUMPDEST PUSH2 0x2503 DUP11 DUP3 DUP12 ADD PUSH2 0x1FE6 JUMP JUMPDEST SWAP6 POP POP PUSH1 0x60 DUP9 ADD CALLDATALOAD DUP1 ISZERO ISZERO DUP2 EQ PUSH2 0x2518 JUMPI DUP4 DUP5 REVERT JUMPDEST SWAP4 POP PUSH1 0x80 DUP9 ADD CALLDATALOAD DUP2 DUP2 GT ISZERO PUSH2 0x252B JUMPI DUP4 DUP5 REVERT JUMPDEST DUP9 ADD SWAP1 POP PUSH1 0x1F DUP2 ADD DUP10 SGT PUSH2 0x253D JUMPI DUP3 DUP4 REVERT JUMPDEST DUP1 CALLDATALOAD PUSH2 0x254B PUSH2 0x2006 DUP3 PUSH2 0x29CC JUMP JUMPDEST DUP1 DUP3 DUP3 MSTORE DUP5 DUP3 ADD SWAP2 POP DUP5 DUP5 ADD DUP13 DUP7 DUP6 PUSH1 0x5 SHL DUP8 ADD ADD GT ISZERO PUSH2 0x256A JUMPI DUP7 DUP8 REVERT JUMPDEST DUP7 SWAP5 POP JUMPDEST DUP4 DUP6 LT ISZERO PUSH2 0x2593 JUMPI PUSH2 0x257F DUP2 PUSH2 0x2124 JUMP JUMPDEST DUP4 MSTORE PUSH1 0x1 SWAP5 SWAP1 SWAP5 ADD SWAP4 SWAP2 DUP6 ADD SWAP2 DUP6 ADD PUSH2 0x256E JUMP JUMPDEST POP DUP1 SWAP6 POP POP POP POP POP POP SWAP3 SWAP6 POP SWAP3 SWAP6 SWAP1 SWAP4 POP JUMP JUMPDEST PUSH1 0x0 PUSH1 0x20 DUP3 DUP5 SUB SLT ISZERO PUSH2 0x25B7 JUMPI DUP1 DUP2 REVERT JUMPDEST DUP2 CALLDATALOAD PUSH2 0xFFFF DUP2 AND DUP2 EQ PUSH2 0x1C25 JUMPI DUP2 DUP3 REVERT JUMPDEST PUSH1 0x0 DUP2 MLOAD DUP1 DUP5 MSTORE PUSH1 0x20 DUP1 DUP6 ADD SWAP5 POP DUP1 DUP5 ADD DUP4 JUMPDEST DUP4 DUP2 LT ISZERO PUSH2 0x2600 JUMPI DUP2 MLOAD PUSH1 0x1 PUSH1 0x1 PUSH1 0xA0 SHL SUB AND DUP8 MSTORE SWAP6 DUP3 ADD SWAP6 SWAP1 DUP3 ADD SWAP1 PUSH1 0x1 ADD PUSH2 0x25DB JUMP JUMPDEST POP SWAP5 SWAP6 SWAP5 POP POP POP POP POP JUMP JUMPDEST PUSH1 0x0 DUP2 MLOAD DUP1 DUP5 MSTORE PUSH1 0x20 DUP1 DUP6 ADD SWAP5 POP DUP1 DUP5 ADD DUP4 JUMPDEST DUP4 DUP2 LT ISZERO PUSH2 0x2600 JUMPI DUP2 MLOAD DUP8 MSTORE SWAP6 DUP3 ADD SWAP6 SWAP1 DUP3 ADD SWAP1 PUSH1 0x1 ADD PUSH2 0x261E JUMP JUMPDEST PUSH1 0x0 DUP2 MLOAD DUP1 DUP5 MSTORE PUSH2 0x2652 DUP2 PUSH1 0x20 DUP7 ADD PUSH1 0x20 DUP7 ADD PUSH2 0x2A55 JUMP JUMPDEST PUSH1 0x1F ADD PUSH1 0x1F NOT AND SWAP3 SWAP1 SWAP3 ADD PUSH1 0x20 ADD SWAP3 SWAP2 POP POP JUMP JUMPDEST PUSH1 0x0 DUP2 MLOAD PUSH1 0x80 DUP5 MSTORE PUSH2 0x267B PUSH1 0x80 DUP6 ADD DUP3 PUSH2 0x273F JUMP JUMPDEST SWAP1 POP PUSH1 0x20 DUP1 DUP5 ADD MLOAD DUP6 DUP4 SUB DUP3 DUP8 ADD MSTORE PUSH2 0x2694 DUP4 DUP3 PUSH2 0x25C8 JUMP JUMPDEST SWAP3 POP POP PUSH1 0x40 DUP5 ADD MLOAD ISZERO ISZERO PUSH1 0x40 DUP7 ADD MSTORE PUSH1 0x60 DUP5 ADD MLOAD DUP6 DUP4 SUB PUSH1 0x60 DUP8 ADD MSTORE DUP3 DUP2 MLOAD DUP1 DUP6 MSTORE DUP4 DUP6 ADD SWAP2 POP DUP4 DUP4 ADD SWAP5 POP DUP6 SWAP3 POP JUMPDEST DUP1 DUP4 LT ISZERO PUSH2 0x26E7 JUMPI DUP5 MLOAD PUSH1 0xFF AND DUP3 MSTORE SWAP4 DUP4 ADD SWAP4 PUSH1 0x1 SWAP3 SWAP1 SWAP3 ADD SWAP2 SWAP1 DUP4 ADD SWAP1 PUSH2 0x26C4 JUMP JUMPDEST POP SWAP7 SWAP6 POP POP POP POP POP POP JUMP JUMPDEST PUSH1 0x0 DUP2 MLOAD PUSH1 0x80 DUP5 MSTORE PUSH2 0x2707 PUSH1 0x80 DUP6 ADD DUP3 PUSH2 0x273F JUMP JUMPDEST SWAP1 POP PUSH1 0x1 DUP1 PUSH1 0xA0 SHL SUB PUSH1 0x20 DUP5 ADD MLOAD AND PUSH1 0x20 DUP6 ADD MSTORE PUSH1 0xFF PUSH1 0x40 DUP5 ADD MLOAD AND PUSH1 0x40 DUP6 ADD MSTORE PUSH1 0xFF PUSH1 0x60 DUP5 ADD MLOAD AND PUSH1 0x60 DUP6 ADD MSTORE DUP1 SWAP2 POP POP SWAP3 SWAP2 POP POP JUMP JUMPDEST PUSH1 0x0 DUP2 MLOAD PUSH1 0xC0 DUP5 MSTORE PUSH2 0x2754 PUSH1 0xC0 DUP6 ADD DUP3 PUSH2 0x263A JUMP JUMPDEST SWAP1 POP PUSH1 0xFF PUSH1 0x20 DUP5 ADD MLOAD AND PUSH1 0x20 DUP6 ADD MSTORE PUSH2 0xFFFF PUSH1 0x40 DUP5 ADD MLOAD AND PUSH1 0x40 DUP6 ADD MSTORE PUSH1 0x60 DUP4 ADD MLOAD PUSH1 0x60 DUP6 ADD MSTORE PUSH1 0x80 DUP4 ADD MLOAD PUSH1 0x80 DUP6 ADD MSTORE PUSH1 0xA0 DUP4 ADD MLOAD DUP5 DUP3 SUB PUSH1 0xA0 DUP7 ADD MSTORE PUSH2 0x279C DUP3 DUP3 PUSH2 0x25C8 JUMP JUMPDEST SWAP6 SWAP5 POP POP POP POP POP JUMP JUMPDEST PUSH1 0x0 DUP3 MLOAD PUSH2 0x27B7 DUP2 DUP5 PUSH1 0x20 DUP8 ADD PUSH2 0x2A55 JUMP JUMPDEST SWAP2 SWAP1 SWAP2 ADD SWAP3 SWAP2 POP POP JUMP JUMPDEST PUSH1 0x0 DUP1 DUP4 SLOAD DUP3 PUSH1 0x1 DUP3 DUP2 SHR SWAP2 POP DUP1 DUP4 AND DUP1 PUSH2 0x27DD JUMPI PUSH1 0x7F DUP4 AND SWAP3 POP JUMPDEST PUSH1 0x20 DUP1 DUP5 LT DUP3 EQ ISZERO PUSH2 0x27FD JUMPI PUSH4 0x4E487B71 PUSH1 0xE0 SHL DUP8 MSTORE PUSH1 0x22 PUSH1 0x4 MSTORE PUSH1 0x24 DUP8 REVERT JUMPDEST DUP2 DUP1 ISZERO PUSH2 0x2811 JUMPI PUSH1 0x1 DUP2 EQ PUSH2 0x2822 JUMPI PUSH2 0x284E JUMP JUMPDEST PUSH1 0xFF NOT DUP7 AND DUP10 MSTORE DUP5 DUP10 ADD SWAP7 POP PUSH2 0x284E JUMP JUMPDEST PUSH1 0x0 DUP11 DUP2 MSTORE PUSH1 0x20 SWAP1 KECCAK256 DUP9 JUMPDEST DUP7 DUP2 LT ISZERO PUSH2 0x2846 JUMPI DUP2 SLOAD DUP12 DUP3 ADD MSTORE SWAP1 DUP6 ADD SWAP1 DUP4 ADD PUSH2 0x282D JUMP JUMPDEST POP POP DUP5 DUP10 ADD SWAP7 POP JUMPDEST POP SWAP5 SWAP9 SWAP8 POP POP POP POP POP POP POP POP JUMP JUMPDEST PUSH1 0x20 DUP1 DUP3 MSTORE DUP3 MLOAD DUP3 DUP3 ADD DUP2 SWAP1 MSTORE PUSH1 0x0 SWAP2 SWAP1 DUP5 DUP3 ADD SWAP1 PUSH1 0x40 DUP6 ADD SWAP1 DUP5 JUMPDEST DUP2 DUP2 LT ISZERO PUSH2 0x2894 JUMPI DUP4 MLOAD DUP4 MSTORE SWAP3 DUP5 ADD SWAP3 SWAP2 DUP5 ADD SWAP2 PUSH1 0x1 ADD PUSH2 0x2878 JUMP JUMPDEST POP SWAP1 SWAP7 SWAP6 POP POP POP POP POP POP JUMP JUMPDEST PUSH1 0x80 DUP2 MSTORE PUSH1 0x0 DUP6 MLOAD PUSH1 0x80 DUP1 DUP5 ADD MSTORE PUSH2 0x28BC PUSH2 0x100 DUP5 ADD DUP3 PUSH2 0x273F JUMP JUMPDEST SWAP1 POP PUSH1 0x20 DUP1 DUP9 ADD MLOAD PUSH1 0x7F NOT DUP1 DUP7 DUP6 SUB ADD PUSH1 0xA0 DUP8 ADD MSTORE PUSH2 0x28DB DUP5 DUP4 PUSH2 0x25C8 JUMP JUMPDEST PUSH1 0x40 DUP12 ADD MLOAD DUP8 DUP3 SUB DUP4 ADD PUSH1 0xC0 DUP10 ADD MSTORE DUP1 MLOAD DUP1 DUP4 MSTORE SWAP2 SWAP6 POP DUP5 ADD SWAP3 POP DUP4 DUP6 ADD SWAP1 PUSH1 0x5 DUP2 SWAP1 SHL DUP7 ADD DUP6 ADD DUP8 JUMPDEST DUP3 DUP2 LT ISZERO PUSH2 0x2933 JUMPI PUSH1 0x1F NOT DUP9 DUP4 SUB ADD DUP5 MSTORE PUSH2 0x2921 DUP3 DUP8 MLOAD PUSH2 0x263A JUMP JUMPDEST SWAP6 DUP8 ADD SWAP6 SWAP4 DUP8 ADD SWAP4 SWAP2 POP PUSH1 0x1 ADD PUSH2 0x2905 JUMP JUMPDEST POP PUSH1 0x60 DUP14 ADD MLOAD SWAP7 POP DUP4 DUP10 DUP3 SUB ADD PUSH1 0xE0 DUP11 ADD MSTORE PUSH2 0x294F DUP2 DUP9 PUSH2 0x260B JUMP JUMPDEST SWAP7 POP POP POP POP POP POP DUP4 DUP3 SUB DUP2 DUP6 ADD MSTORE POP PUSH2 0x2968 DUP2 DUP8 PUSH2 0x273F JUMP JUMPDEST SWAP1 POP DUP3 DUP2 SUB PUSH1 0x40 DUP5 ADD MSTORE PUSH2 0x297C DUP2 DUP7 PUSH2 0x2666 JUMP JUMPDEST SWAP1 POP DUP3 DUP2 SUB PUSH1 0x60 DUP5 ADD MSTORE PUSH2 0x2990 DUP2 DUP6 PUSH2 0x26F2 JUMP JUMPDEST SWAP8 SWAP7 POP POP POP POP POP POP POP JUMP JUMPDEST PUSH1 0x40 MLOAD PUSH1 0x1F DUP3 ADD PUSH1 0x1F NOT AND DUP2 ADD PUSH8 0xFFFFFFFFFFFFFFFF DUP2 GT DUP3 DUP3 LT OR ISZERO PUSH2 0x29C4 JUMPI PUSH2 0x29C4 PUSH2 0x2B0D JUMP JUMPDEST PUSH1 0x40 MSTORE SWAP2 SWAP1 POP JUMP JUMPDEST PUSH1 0x0 PUSH8 0xFFFFFFFFFFFFFFFF DUP3 GT ISZERO PUSH2 0x29E6 JUMPI PUSH2 0x29E6 PUSH2 0x2B0D JUMP JUMPDEST POP PUSH1 0x5 SHL PUSH1 0x20 ADD SWAP1 JUMP JUMPDEST PUSH1 0x0 PUSH3 0xFFFFFF DUP1 DUP4 AND DUP2 DUP6 AND DUP2 DUP4 DIV DUP2 GT DUP3 ISZERO ISZERO AND ISZERO PUSH2 0x2A12 JUMPI PUSH2 0x2A12 PUSH2 0x2AF7 JUMP JUMPDEST MUL SWAP5 SWAP4 POP POP POP POP JUMP JUMPDEST PUSH1 0x0 PUSH2 0xFFFF DUP4 DUP2 AND SWAP1 DUP4 AND DUP2 DUP2 LT ISZERO PUSH2 0x2A36 JUMPI PUSH2 0x2A36 PUSH2 0x2AF7 JUMP JUMPDEST SUB SWAP4 SWAP3 POP POP POP JUMP JUMPDEST PUSH1 0x0 DUP3 DUP3 LT ISZERO PUSH2 0x2A50 JUMPI PUSH2 0x2A50 PUSH2 0x2AF7 JUMP JUMPDEST POP SUB SWAP1 JUMP JUMPDEST PUSH1 0x0 JUMPDEST DUP4 DUP2 LT ISZERO PUSH2 0x2A70 JUMPI DUP2 DUP2 ADD MLOAD DUP4 DUP3 ADD MSTORE PUSH1 0x20 ADD PUSH2 0x2A58 JUMP JUMPDEST DUP4 DUP2 GT ISZERO PUSH2 0x2A7F JUMPI PUSH1 0x0 DUP5 DUP5 ADD MSTORE JUMPDEST POP POP POP POP JUMP JUMPDEST PUSH1 0x1 DUP2 DUP2 SHR SWAP1 DUP3 AND DUP1 PUSH2 0x2A99 JUMPI PUSH1 0x7F DUP3 AND SWAP2 POP JUMPDEST PUSH1 0x20 DUP3 LT DUP2 EQ ISZERO PUSH2 0x1739 JUMPI PUSH4 0x4E487B71 PUSH1 0xE0 SHL PUSH1 0x0 MSTORE PUSH1 0x22 PUSH1 0x4 MSTORE PUSH1 0x24 PUSH1 0x0 REVERT JUMPDEST PUSH1 0x0 PUSH2 0xFFFF DUP1 DUP4 AND DUP2 DUP2 EQ ISZERO PUSH2 0x2AD2 JUMPI PUSH2 0x2AD2 PUSH2 0x2AF7 JUMP JUMPDEST PUSH1 0x1 ADD SWAP4 SWAP3 POP POP POP JUMP JUMPDEST PUSH1 0x0 PUSH1 0x0 NOT DUP3 EQ ISZERO PUSH2 0x2AF0 JUMPI PUSH2 0x2AF0 PUSH2 0x2AF7 JUMP JUMPDEST POP PUSH1 0x1 ADD SWAP1 JUMP JUMPDEST PUSH4 0x4E487B71 PUSH1 0xE0 SHL PUSH1 0x0 MSTORE PUSH1 0x11 PUSH1 0x4 MSTORE PUSH1 0x24 PUSH1 0x0 REVERT JUMPDEST PUSH4 0x4E487B71 PUSH1 0xE0 SHL PUSH1 0x0 MSTORE PUSH1 0x41 PUSH1 0x4 MSTORE PUSH1 0x24 PUSH1 0x0 REVERT INVALID 0xE3 0xB8 0xD 0xF9 0xE8 SWAP14 CREATE 0x4C RETURN 0x49 0xBC 0xE 0xD3 0x5D 0xA6 0x2B SWAP15 0xDC BLOCKHASH DUP8 ADDMOD CODECOPY CALLER DUP3 JUMPI PUSH28 0x14C234A082D6A2646970667358221220EEE779ADAF16D95FDCBD9B24 0xAC PUSH5 0xE154FA764A AND LOG4 PUSH25 0x1142CC1BD3E76755E2C164736F6C6343000804003300000000 "
		},
		"gasEstimates": {
			"creation": {
				"codeDepositCost": "2225800",
				"executionCost": "23199",
				"totalCost": "2248999"
			},
			"external": {
				"check_balance()": "202",
				"check_members()": "infinite",
				"create_governance_proposal(bytes,uint8)": "infinite",
				"create_management_proposal(bytes,uint8,address[],bool,uint8[])": "infinite",
				"create_move_proposal(bytes,uint8,address,uint8,uint8)": "infinite",
				"create_transaction_proposal(bytes,uint8,address[],bytes[],uint256[])": "infinite",
				"deposit()": "1578",
				"get_proposal(uint16)": "infinite",
				"not_contains(address[],address)": "infinite",
				"onERC1155BatchReceived(address,address,uint256[],uint256[],bytes)": "infinite",
				"onERC1155Received(address,address,uint256,uint256,bytes)": "infinite",
				"remove_proposal(uint16)": "infinite",
				"supportsInterface(bytes4)": "450",
				"vote(uint16)": "infinite"
			}
		},
		"methodIdentifiers": {
			"check_balance()": "98ba1d46",
			"check_members()": "3e08602c",
			"create_governance_proposal(bytes,uint8)": "1279a374",
			"create_management_proposal(bytes,uint8,address[],bool,uint8[])": "48eccc2c",
			"create_move_proposal(bytes,uint8,address,uint8,uint8)": "c696709c",
			"create_transaction_proposal(bytes,uint8,address[],bytes[],uint256[])": "49041d3e",
			"deposit()": "d0e30db0",
			"get_proposal(uint16)": "267044e5",
			"not_contains(address[],address)": "252e504c",
			"onERC1155BatchReceived(address,address,uint256[],uint256[],bytes)": "bc197c81",
			"onERC1155Received(address,address,uint256,uint256,bytes)": "f23a6e61",
			"remove_proposal(uint16)": "d537b060",
			"supportsInterface(bytes4)": "01ffc9a7",
			"vote(uint16)": "ddb6e116"
		}
	},
	"abi": [
		{
			"anonymous": false,
			"inputs": [
				{
					"indexed": true,
					"internalType": "address",
					"name": "from",
					"type": "address"
				},
				{
					"indexed": false,
					"internalType": "uint256",
					"name": "value",
					"type": "uint256"
				}
			],
			"name": "EthDeposited",
			"type": "event"
		},
		{
			"anonymous": false,
			"inputs": [
				{
					"indexed": true,
					"internalType": "address",
					"name": "to",
					"type": "address"
				},
				{
					"indexed": false,
					"internalType": "uint256",
					"name": "value",
					"type": "uint256"
				}
			],
			"name": "EthTransfered",
			"type": "event"
		},
		{
			"anonymous": false,
			"inputs": [
				{
					"indexed": true,
					"internalType": "bytes",
					"name": "name",
					"type": "bytes"
				},
				{
					"indexed": true,
					"internalType": "uint16",
					"name": "id",
					"type": "uint16"
				},
				{
					"indexed": false,
					"internalType": "uint8",
					"name": "lifespan",
					"type": "uint8"
				},
				{
					"indexed": false,
					"internalType": "uint256",
					"name": "timestamp",
					"type": "uint256"
				}
			],
			"name": "ProposalCreated",
			"type": "event"
		},
		{
			"anonymous": false,
			"inputs": [
				{
					"indexed": true,
					"internalType": "bytes",
					"name": "name",
					"type": "bytes"
				},
				{
					"indexed": false,
					"internalType": "uint16",
					"name": "id",
					"type": "uint16"
				}
			],
			"name": "ProposalExecuted",
			"type": "event"
		},
		{
			"anonymous": false,
			"inputs": [
				{
					"indexed": true,
					"internalType": "bytes",
					"name": "name",
					"type": "bytes"
				},
				{
					"indexed": true,
					"internalType": "uint16",
					"name": "id",
					"type": "uint16"
				}
			],
			"name": "ProposalRemoved",
			"type": "event"
		},
		{
			"anonymous": false,
			"inputs": [
				{
					"indexed": true,
					"internalType": "bytes",
					"name": "name",
					"type": "bytes"
				},
				{
					"indexed": true,
					"internalType": "uint16",
					"name": "id",
					"type": "uint16"
				},
				{
					"indexed": true,
					"internalType": "address",
					"name": "voter",
					"type": "address"
				}
			],
			"name": "VoteCast",
			"type": "event"
		},
		{
			"inputs": [],
			"name": "check_balance",
			"outputs": [
				{
					"internalType": "uint256",
					"name": "",
					"type": "uint256"
				}
			],
			"stateMutability": "view",
			"type": "function"
		},
		{
			"inputs": [],
			"name": "check_members",
			"outputs": [
				{
					"internalType": "bytes32[]",
					"name": "",
					"type": "bytes32[]"
				}
			],
			"stateMutability": "view",
			"type": "function"
		},
		{
			"inputs": [
				{
					"internalType": "bytes",
					"name": "name",
					"type": "bytes"
				},
				{
					"internalType": "uint8",
					"name": "lifespan",
					"type": "uint8"
				}
			],
			"name": "create_governance_proposal",
			"outputs": [],
			"stateMutability": "nonpayable",
			"type": "function"
		},
		{
			"inputs": [
				{
					"internalType": "bytes",
					"name": "name",
					"type": "bytes"
				},
				{
					"internalType": "uint8",
					"name": "lifespan",
					"type": "uint8"
				},
				{
					"internalType": "address[]",
					"name": "targets",
					"type": "address[]"
				},
				{
					"internalType": "bool",
					"name": "adding",
					"type": "bool"
				},
				{
					"internalType": "uint8[]",
					"name": "d_ids",
					"type": "uint8[]"
				}
			],
			"name": "create_management_proposal",
			"outputs": [],
			"stateMutability": "nonpayable",
			"type": "function"
		},
		{
			"inputs": [
				{
					"internalType": "bytes",
					"name": "name",
					"type": "bytes"
				},
				{
					"internalType": "uint8",
					"name": "lifespan",
					"type": "uint8"
				},
				{
					"internalType": "address",
					"name": "target",
					"type": "address"
				},
				{
					"internalType": "uint8",
					"name": "old_d_id",
					"type": "uint8"
				},
				{
					"internalType": "uint8",
					"name": "new_d_id",
					"type": "uint8"
				}
			],
			"name": "create_move_proposal",
			"outputs": [],
			"stateMutability": "nonpayable",
			"type": "function"
		},
		{
			"inputs": [
				{
					"internalType": "bytes",
					"name": "name",
					"type": "bytes"
				},
				{
					"internalType": "uint8",
					"name": "lifespan",
					"type": "uint8"
				},
				{
					"internalType": "address[]",
					"name": "targets",
					"type": "address[]"
				},
				{
					"internalType": "bytes[]",
					"name": "datas",
					"type": "bytes[]"
				},
				{
					"internalType": "uint256[]",
					"name": "values",
					"type": "uint256[]"
				}
			],
			"name": "create_transaction_proposal",
			"outputs": [],
			"stateMutability": "nonpayable",
			"type": "function"
		},
		{
			"inputs": [],
			"name": "deposit",
			"outputs": [],
			"stateMutability": "payable",
			"type": "function"
		},
		{
			"inputs": [
				{
					"internalType": "uint16",
					"name": "id",
					"type": "uint16"
				}
			],
			"name": "get_proposal",
			"outputs": [
				{
					"components": [
						{
							"components": [
								{
									"internalType": "bytes",
									"name": "name",
									"type": "bytes"
								},
								{
									"internalType": "uint8",
									"name": "lifespan",
									"type": "uint8"
								},
								{
									"internalType": "uint16",
									"name": "id",
									"type": "uint16"
								},
								{
									"internalType": "uint256",
									"name": "timestamp",
									"type": "uint256"
								},
								{
									"internalType": "uint256",
									"name": "votes",
									"type": "uint256"
								},
								{
									"internalType": "address[]",
									"name": "voters",
									"type": "address[]"
								}
							],
							"internalType": "struct ProposalManager.PBase",
							"name": "base",
							"type": "tuple"
						},
						{
							"internalType": "address[]",
							"name": "targets",
							"type": "address[]"
						},
						{
							"internalType": "bytes[]",
							"name": "datas",
							"type": "bytes[]"
						},
						{
							"internalType": "uint256[]",
							"name": "values",
							"type": "uint256[]"
						}
					],
					"internalType": "struct ProposalManager.MultiTransactionProposal",
					"name": "",
					"type": "tuple"
				},
				{
					"components": [
						{
							"internalType": "bytes",
							"name": "name",
							"type": "bytes"
						},
						{
							"internalType": "uint8",
							"name": "lifespan",
							"type": "uint8"
						},
						{
							"internalType": "uint16",
							"name": "id",
							"type": "uint16"
						},
						{
							"internalType": "uint256",
							"name": "timestamp",
							"type": "uint256"
						},
						{
							"internalType": "uint256",
							"name": "votes",
							"type": "uint256"
						},
						{
							"internalType": "address[]",
							"name": "voters",
							"type": "address[]"
						}
					],
					"internalType": "struct ProposalManager.PBase",
					"name": "",
					"type": "tuple"
				},
				{
					"components": [
						{
							"components": [
								{
									"internalType": "bytes",
									"name": "name",
									"type": "bytes"
								},
								{
									"internalType": "uint8",
									"name": "lifespan",
									"type": "uint8"
								},
								{
									"internalType": "uint16",
									"name": "id",
									"type": "uint16"
								},
								{
									"internalType": "uint256",
									"name": "timestamp",
									"type": "uint256"
								},
								{
									"internalType": "uint256",
									"name": "votes",
									"type": "uint256"
								},
								{
									"internalType": "address[]",
									"name": "voters",
									"type": "address[]"
								}
							],
							"internalType": "struct ProposalManager.PBase",
							"name": "base",
							"type": "tuple"
						},
						{
							"internalType": "address[]",
							"name": "targets",
							"type": "address[]"
						},
						{
							"internalType": "bool",
							"name": "adding",
							"type": "bool"
						},
						{
							"internalType": "uint8[]",
							"name": "department_ids",
							"type": "uint8[]"
						}
					],
					"internalType": "struct ProposalManager.ManagementProposal",
					"name": "",
					"type": "tuple"
				},
				{
					"components": [
						{
							"components": [
								{
									"internalType": "bytes",
									"name": "name",
									"type": "bytes"
								},
								{
									"internalType": "uint8",
									"name": "lifespan",
									"type": "uint8"
								},
								{
									"internalType": "uint16",
									"name": "id",
									"type": "uint16"
								},
								{
									"internalType": "uint256",
									"name": "timestamp",
									"type": "uint256"
								},
								{
									"internalType": "uint256",
									"name": "votes",
									"type": "uint256"
								},
								{
									"internalType": "address[]",
									"name": "voters",
									"type": "address[]"
								}
							],
							"internalType": "struct ProposalManager.PBase",
							"name": "base",
							"type": "tuple"
						},
						{
							"internalType": "address",
							"name": "target",
							"type": "address"
						},
						{
							"internalType": "uint8",
							"name": "old_department_id",
							"type": "uint8"
						},
						{
							"internalType": "uint8",
							"name": "new_department_id",
							"type": "uint8"
						}
					],
					"internalType": "struct ProposalManager.MoveProposal",
					"name": "",
					"type": "tuple"
				}
			],
			"stateMutability": "view",
			"type": "function"
		},
		{
			"inputs": [
				{
					"internalType": "address[]",
					"name": "list",
					"type": "address[]"
				},
				{
					"internalType": "address",
					"name": "item",
					"type": "address"
				}
			],
			"name": "not_contains",
			"outputs": [
				{
					"internalType": "bool",
					"name": "",
					"type": "bool"
				}
			],
			"stateMutability": "pure",
			"type": "function"
		},
		{
			"inputs": [
				{
					"internalType": "address",
					"name": "",
					"type": "address"
				},
				{
					"internalType": "address",
					"name": "",
					"type": "address"
				},
				{
					"internalType": "uint256[]",
					"name": "",
					"type": "uint256[]"
				},
				{
					"internalType": "uint256[]",
					"name": "",
					"type": "uint256[]"
				},
				{
					"internalType": "bytes",
					"name": "",
					"type": "bytes"
				}
			],
			"name": "onERC1155BatchReceived",
			"outputs": [
				{
					"internalType": "bytes4",
					"name": "",
					"type": "bytes4"
				}
			],
			"stateMutability": "nonpayable",
			"type": "function"
		},
		{
			"inputs": [
				{
					"internalType": "address",
					"name": "",
					"type": "address"
				},
				{
					"internalType": "address",
					"name": "",
					"type": "address"
				},
				{
					"internalType": "uint256",
					"name": "",
					"type": "uint256"
				},
				{
					"internalType": "uint256",
					"name": "",
					"type": "uint256"
				},
				{
					"internalType": "bytes",
					"name": "",
					"type": "bytes"
				}
			],
			"name": "onERC1155Received",
			"outputs": [
				{
					"internalType": "bytes4",
					"name": "",
					"type": "bytes4"
				}
			],
			"stateMutability": "nonpayable",
			"type": "function"
		},
		{
			"inputs": [
				{
					"internalType": "uint16",
					"name": "id",
					"type": "uint16"
				}
			],
			"name": "remove_proposal",
			"outputs": [
				{
					"internalType": "bool",
					"name": "",
					"type": "bool"
				}
			],
			"stateMutability": "nonpayable",
			"type": "function"
		},
		{
			"inputs": [
				{
					"internalType": "bytes4",
					"name": "interfaceId",
					"type": "bytes4"
				}
			],
			"name": "supportsInterface",
			"outputs": [
				{
					"internalType": "bool",
					"name": "",
					"type": "bool"
				}
			],
			"stateMutability": "view",
			"type": "function"
		},
		{
			"inputs": [
				{
					"internalType": "uint16",
					"name": "id",
					"type": "uint16"
				}
			],
			"name": "vote",
			"outputs": [],
			"stateMutability": "nonpayable",
			"type": "function"
		},
		{
			"stateMutability": "payable",
			"type": "receive"
		}
	]
}